{
	"RPSLS.sol": {
		"RPSLS": {
			"abi": [
				{
					"inputs": [
						{
							"internalType": "address",
							"name": "_commitContract",
							"type": "address"
						}
					],
					"stateMutability": "nonpayable",
					"type": "constructor"
				},
				{
					"inputs": [],
					"name": "addPlayer",
					"outputs": [],
					"stateMutability": "payable",
					"type": "function"
				},
				{
					"inputs": [
						{
							"internalType": "bytes32",
							"name": "dataHash",
							"type": "bytes32"
						}
					],
					"name": "commit",
					"outputs": [],
					"stateMutability": "nonpayable",
					"type": "function"
				},
				{
					"inputs": [],
					"name": "commitContract",
					"outputs": [
						{
							"internalType": "contract CommitReveal",
							"name": "",
							"type": "address"
						}
					],
					"stateMutability": "view",
					"type": "function"
				},
				{
					"inputs": [],
					"name": "delayTime",
					"outputs": [
						{
							"internalType": "uint256",
							"name": "",
							"type": "uint256"
						}
					],
					"stateMutability": "view",
					"type": "function"
				},
				{
					"inputs": [],
					"name": "elapsedSeconds",
					"outputs": [
						{
							"internalType": "uint256",
							"name": "",
							"type": "uint256"
						}
					],
					"stateMutability": "view",
					"type": "function"
				},
				{
					"inputs": [],
					"name": "isTimeout",
					"outputs": [
						{
							"internalType": "bool",
							"name": "",
							"type": "bool"
						}
					],
					"stateMutability": "view",
					"type": "function"
				},
				{
					"inputs": [],
					"name": "latestActionTime",
					"outputs": [
						{
							"internalType": "uint256",
							"name": "",
							"type": "uint256"
						}
					],
					"stateMutability": "view",
					"type": "function"
				},
				{
					"inputs": [],
					"name": "numInput",
					"outputs": [
						{
							"internalType": "uint256",
							"name": "",
							"type": "uint256"
						}
					],
					"stateMutability": "view",
					"type": "function"
				},
				{
					"inputs": [],
					"name": "numPlayer",
					"outputs": [
						{
							"internalType": "uint256",
							"name": "",
							"type": "uint256"
						}
					],
					"stateMutability": "view",
					"type": "function"
				},
				{
					"inputs": [
						{
							"internalType": "address",
							"name": "",
							"type": "address"
						}
					],
					"name": "player_choice",
					"outputs": [
						{
							"internalType": "uint256",
							"name": "",
							"type": "uint256"
						}
					],
					"stateMutability": "view",
					"type": "function"
				},
				{
					"inputs": [
						{
							"internalType": "address",
							"name": "",
							"type": "address"
						}
					],
					"name": "player_not_played",
					"outputs": [
						{
							"internalType": "bool",
							"name": "",
							"type": "bool"
						}
					],
					"stateMutability": "view",
					"type": "function"
				},
				{
					"inputs": [
						{
							"internalType": "uint256",
							"name": "",
							"type": "uint256"
						}
					],
					"name": "players",
					"outputs": [
						{
							"internalType": "address",
							"name": "",
							"type": "address"
						}
					],
					"stateMutability": "view",
					"type": "function"
				},
				{
					"inputs": [],
					"name": "refund",
					"outputs": [],
					"stateMutability": "nonpayable",
					"type": "function"
				},
				{
					"inputs": [
						{
							"internalType": "string",
							"name": "randomSalt",
							"type": "string"
						},
						{
							"internalType": "uint256",
							"name": "choice",
							"type": "uint256"
						}
					],
					"name": "reveal",
					"outputs": [],
					"stateMutability": "nonpayable",
					"type": "function"
				},
				{
					"inputs": [],
					"name": "reward",
					"outputs": [
						{
							"internalType": "uint256",
							"name": "",
							"type": "uint256"
						}
					],
					"stateMutability": "view",
					"type": "function"
				}
			],
			"devdoc": {
				"kind": "dev",
				"methods": {},
				"version": 1
			},
			"evm": {
				"assembly": "    /* \"RPSLS.sol\":130:4360  contract RPSLS is TimeUnit {... */\n  mstore(0x40, 0x80)\n    /* \"TimeUnit.sol\":128:143  block.timestamp */\n  timestamp\n    /* \"TimeUnit.sol\":97:143  uint public latestActionTime = block.timestamp */\n  0x00\n  sstore\n    /* \"RPSLS.sol\":235:236  0 */\n  0x00\n    /* \"RPSLS.sol\":211:236  uint public numPlayer = 0 */\n  0x02\n  sstore\n    /* \"RPSLS.sol\":264:265  0 */\n  0x00\n    /* \"RPSLS.sol\":243:265  uint public reward = 0 */\n  0x03\n  sstore\n    /* \"RPSLS.sol\":434:435  0 */\n  0x00\n    /* \"RPSLS.sol\":411:435  uint public numInput = 0 */\n  0x07\n  sstore\n    /* \"RPSLS.sol\":444:699  address[] private allowedAccounts = [... */\n  mload(0x40)\n  dup1\n  0x80\n  add\n  0x40\n  mstore\n  dup1\n    /* \"RPSLS.sol\":491:533  0x5B38Da6a701c568545dCfcB03FcB875f56beddC4 */\n  0x5b38da6a701c568545dcfcb03fcb875f56beddc4\n    /* \"RPSLS.sol\":444:699  address[] private allowedAccounts = [... */\n  0xffffffffffffffffffffffffffffffffffffffff\n  and\n  0xffffffffffffffffffffffffffffffffffffffff\n  and\n  dup2\n  mstore\n  0x20\n  add\n    /* \"RPSLS.sol\":544:586  0xAb8483F64d9C6d1EcF9b849Ae677dD3315835cb2 */\n  0xab8483f64d9c6d1ecf9b849ae677dd3315835cb2\n    /* \"RPSLS.sol\":444:699  address[] private allowedAccounts = [... */\n  0xffffffffffffffffffffffffffffffffffffffff\n  and\n  0xffffffffffffffffffffffffffffffffffffffff\n  and\n  dup2\n  mstore\n  0x20\n  add\n    /* \"RPSLS.sol\":597:639  0x4B20993Bc481177ec7E8f571ceCaE8A9e22C02db */\n  0x4b20993bc481177ec7e8f571cecae8a9e22c02db\n    /* \"RPSLS.sol\":444:699  address[] private allowedAccounts = [... */\n  0xffffffffffffffffffffffffffffffffffffffff\n  and\n  0xffffffffffffffffffffffffffffffffffffffff\n  and\n  dup2\n  mstore\n  0x20\n  add\n    /* \"RPSLS.sol\":650:692  0x78731D3Ca6b7E34aC0F824c42a7cC18A495cabaB */\n  0x78731d3ca6b7e34ac0f824c42a7cc18a495cabab\n    /* \"RPSLS.sol\":444:699  address[] private allowedAccounts = [... */\n  0xffffffffffffffffffffffffffffffffffffffff\n  and\n  0xffffffffffffffffffffffffffffffffffffffff\n  and\n  dup2\n  mstore\n  pop\n  0x08\n  swap1\n  0x04\n  tag_1\n  swap3\n  swap2\n  swap1\n  tag_2\n  jump\t// in\ntag_1:\n  pop\n    /* \"RPSLS.sol\":708:810  constructor(address _commitContract) {... */\n  callvalue\n  dup1\n  iszero\n  tag_3\n  jumpi\n  0x00\n  dup1\n  revert\ntag_3:\n  pop\n  mload(0x40)\n  sub(codesize, bytecodeSize)\n  dup1\n  bytecodeSize\n  dup4\n  codecopy\n  dup2\n  dup2\n  add\n  0x40\n  mstore\n  dup2\n  add\n  swap1\n  tag_4\n  swap2\n  swap1\n  tag_5\n  jump\t// in\ntag_4:\n    /* \"RPSLS.sol\":786:801  _commitContract */\n  dup1\n    /* \"RPSLS.sol\":756:770  commitContract */\n  0x01\n  0x00\n    /* \"RPSLS.sol\":756:802  commitContract = CommitReveal(_commitContract) */\n  0x0100\n  exp\n  dup2\n  sload\n  dup2\n  0xffffffffffffffffffffffffffffffffffffffff\n  mul\n  not\n  and\n  swap1\n  dup4\n  0xffffffffffffffffffffffffffffffffffffffff\n  and\n  mul\n  or\n  swap1\n  sstore\n  pop\n    /* \"RPSLS.sol\":708:810  constructor(address _commitContract) {... */\n  pop\n    /* \"RPSLS.sol\":130:4360  contract RPSLS is TimeUnit {... */\n  jump(tag_8)\ntag_2:\n  dup3\n  dup1\n  sload\n  dup3\n  dup3\n  sstore\n  swap1\n  0x00\n  mstore\n  keccak256(0x00, 0x20)\n  swap1\n  dup2\n  add\n  swap3\n  dup3\n  iszero\n  tag_9\n  jumpi\n  swap2\n  0x20\n  mul\n  dup3\n  add\ntag_10:\n  dup3\n  dup2\n  gt\n  iszero\n  tag_11\n  jumpi\n  dup3\n  mload\n  dup3\n  exp(0x0100, 0x00)\n  dup2\n  sload\n  dup2\n  0xffffffffffffffffffffffffffffffffffffffff\n  mul\n  not\n  and\n  swap1\n  dup4\n  0xffffffffffffffffffffffffffffffffffffffff\n  and\n  mul\n  or\n  swap1\n  sstore\n  pop\n  swap2\n  0x20\n  add\n  swap2\n  swap1\n  0x01\n  add\n  swap1\n  jump(tag_10)\ntag_11:\ntag_9:\n  pop\n  swap1\n  pop\n  tag_12\n  swap2\n  swap1\n  tag_13\n  jump\t// in\ntag_12:\n  pop\n  swap1\n  jump\t// out\ntag_13:\ntag_14:\n  dup1\n  dup3\n  gt\n  iszero\n  tag_15\n  jumpi\n  0x00\n  dup2\n  0x00\n  swap1\n  sstore\n  pop\n  0x01\n  add\n  jump(tag_14)\ntag_15:\n  pop\n  swap1\n  jump\t// out\n    /* \"#utility.yul\":88:205   */\ntag_17:\n    /* \"#utility.yul\":197:198   */\n  0x00\n    /* \"#utility.yul\":194:195   */\n  dup1\n    /* \"#utility.yul\":187:199   */\n  revert\n    /* \"#utility.yul\":334:460   */\ntag_19:\n    /* \"#utility.yul\":371:378   */\n  0x00\n    /* \"#utility.yul\":411:453   */\n  0xffffffffffffffffffffffffffffffffffffffff\n    /* \"#utility.yul\":404:409   */\n  dup3\n    /* \"#utility.yul\":400:454   */\n  and\n    /* \"#utility.yul\":389:454   */\n  swap1\n  pop\n    /* \"#utility.yul\":334:460   */\n  swap2\n  swap1\n  pop\n  jump\t// out\n    /* \"#utility.yul\":466:562   */\ntag_20:\n    /* \"#utility.yul\":503:510   */\n  0x00\n    /* \"#utility.yul\":532:556   */\n  tag_29\n    /* \"#utility.yul\":550:555   */\n  dup3\n    /* \"#utility.yul\":532:556   */\n  tag_19\n  jump\t// in\ntag_29:\n    /* \"#utility.yul\":521:556   */\n  swap1\n  pop\n    /* \"#utility.yul\":466:562   */\n  swap2\n  swap1\n  pop\n  jump\t// out\n    /* \"#utility.yul\":568:690   */\ntag_21:\n    /* \"#utility.yul\":641:665   */\n  tag_31\n    /* \"#utility.yul\":659:664   */\n  dup2\n    /* \"#utility.yul\":641:665   */\n  tag_20\n  jump\t// in\ntag_31:\n    /* \"#utility.yul\":634:639   */\n  dup2\n    /* \"#utility.yul\":631:666   */\n  eq\n    /* \"#utility.yul\":621:684   */\n  tag_32\n  jumpi\n    /* \"#utility.yul\":680:681   */\n  0x00\n    /* \"#utility.yul\":677:678   */\n  dup1\n    /* \"#utility.yul\":670:682   */\n  revert\n    /* \"#utility.yul\":621:684   */\ntag_32:\n    /* \"#utility.yul\":568:690   */\n  pop\n  jump\t// out\n    /* \"#utility.yul\":696:839   */\ntag_22:\n    /* \"#utility.yul\":753:758   */\n  0x00\n    /* \"#utility.yul\":784:790   */\n  dup2\n    /* \"#utility.yul\":778:791   */\n  mload\n    /* \"#utility.yul\":769:791   */\n  swap1\n  pop\n    /* \"#utility.yul\":800:833   */\n  tag_34\n    /* \"#utility.yul\":827:832   */\n  dup2\n    /* \"#utility.yul\":800:833   */\n  tag_21\n  jump\t// in\ntag_34:\n    /* \"#utility.yul\":696:839   */\n  swap3\n  swap2\n  pop\n  pop\n  jump\t// out\n    /* \"#utility.yul\":845:1196   */\ntag_5:\n    /* \"#utility.yul\":915:921   */\n  0x00\n    /* \"#utility.yul\":964:966   */\n  0x20\n    /* \"#utility.yul\":952:961   */\n  dup3\n    /* \"#utility.yul\":943:950   */\n  dup5\n    /* \"#utility.yul\":939:962   */\n  sub\n    /* \"#utility.yul\":935:967   */\n  slt\n    /* \"#utility.yul\":932:1051   */\n  iszero\n  tag_36\n  jumpi\n    /* \"#utility.yul\":970:1049   */\n  tag_37\n  tag_17\n  jump\t// in\ntag_37:\n    /* \"#utility.yul\":932:1051   */\ntag_36:\n    /* \"#utility.yul\":1090:1091   */\n  0x00\n    /* \"#utility.yul\":1115:1179   */\n  tag_38\n    /* \"#utility.yul\":1171:1178   */\n  dup5\n    /* \"#utility.yul\":1162:1168   */\n  dup3\n    /* \"#utility.yul\":1151:1160   */\n  dup6\n    /* \"#utility.yul\":1147:1169   */\n  add\n    /* \"#utility.yul\":1115:1179   */\n  tag_22\n  jump\t// in\ntag_38:\n    /* \"#utility.yul\":1105:1179   */\n  swap2\n  pop\n    /* \"#utility.yul\":1061:1189   */\n  pop\n    /* \"#utility.yul\":845:1196   */\n  swap3\n  swap2\n  pop\n  pop\n  jump\t// out\n    /* \"RPSLS.sol\":130:4360  contract RPSLS is TimeUnit {... */\ntag_8:\n  dataSize(sub_0)\n  dup1\n  dataOffset(sub_0)\n  0x00\n  codecopy\n  0x00\n  return\nstop\n\nsub_0: assembly {\n        /* \"RPSLS.sol\":130:4360  contract RPSLS is TimeUnit {... */\n      mstore(0x40, 0x80)\n      jumpi(tag_1, lt(calldatasize, 0x04))\n      shr(0xe0, calldataload(0x00))\n      dup1\n      0x7bab61bc\n      gt\n      tag_17\n      jumpi\n      dup1\n      0xa040478d\n      gt\n      tag_18\n      jumpi\n      dup1\n      0xa040478d\n      eq\n      tag_13\n      jumpi\n      dup1\n      0xbc06b8cd\n      eq\n      tag_14\n      jumpi\n      dup1\n      0xf14fcbc8\n      eq\n      tag_15\n      jumpi\n      dup1\n      0xf71d96cb\n      eq\n      tag_16\n      jumpi\n      jump(tag_1)\n    tag_18:\n      dup1\n      0x7bab61bc\n      eq\n      tag_9\n      jumpi\n      dup1\n      0x7df9aefb\n      eq\n      tag_10\n      jumpi\n      dup1\n      0x7e2eee53\n      eq\n      tag_11\n      jumpi\n      dup1\n      0x90d5d0c3\n      eq\n      tag_12\n      jumpi\n      jump(tag_1)\n    tag_17:\n      dup1\n      0x27b5db8a\n      gt\n      tag_19\n      jumpi\n      dup1\n      0x27b5db8a\n      eq\n      tag_5\n      jumpi\n      dup1\n      0x32c26957\n      eq\n      tag_6\n      jumpi\n      dup1\n      0x590e1ae3\n      eq\n      tag_7\n      jumpi\n      dup1\n      0x708b4730\n      eq\n      tag_8\n      jumpi\n      jump(tag_1)\n    tag_19:\n      dup1\n      0x086f7815\n      eq\n      tag_2\n      jumpi\n      dup1\n      0x190cf745\n      eq\n      tag_3\n      jumpi\n      dup1\n      0x228cb733\n      eq\n      tag_4\n      jumpi\n    tag_1:\n      0x00\n      dup1\n      revert\n        /* \"RPSLS.sol\":411:435  uint public numInput = 0 */\n    tag_2:\n      callvalue\n      dup1\n      iszero\n      tag_20\n      jumpi\n      0x00\n      dup1\n      revert\n    tag_20:\n      pop\n      tag_21\n      tag_22\n      jump\t// in\n    tag_21:\n      mload(0x40)\n      tag_23\n      swap2\n      swap1\n      tag_24\n      jump\t// in\n    tag_23:\n      mload(0x40)\n      dup1\n      swap2\n      sub\n      swap1\n      return\n        /* \"RPSLS.sol\":324:373  mapping(address => bool) public player_not_played */\n    tag_3:\n      callvalue\n      dup1\n      iszero\n      tag_25\n      jumpi\n      0x00\n      dup1\n      revert\n    tag_25:\n      pop\n      tag_26\n      0x04\n      dup1\n      calldatasize\n      sub\n      dup2\n      add\n      swap1\n      tag_27\n      swap2\n      swap1\n      tag_28\n      jump\t// in\n    tag_27:\n      tag_29\n      jump\t// in\n    tag_26:\n      mload(0x40)\n      tag_30\n      swap2\n      swap1\n      tag_31\n      jump\t// in\n    tag_30:\n      mload(0x40)\n      dup1\n      swap2\n      sub\n      swap1\n      return\n        /* \"RPSLS.sol\":243:265  uint public reward = 0 */\n    tag_4:\n      callvalue\n      dup1\n      iszero\n      tag_32\n      jumpi\n      0x00\n      dup1\n      revert\n    tag_32:\n      pop\n      tag_33\n      tag_34\n      jump\t// in\n    tag_33:\n      mload(0x40)\n      tag_35\n      swap2\n      swap1\n      tag_24\n      jump\t// in\n    tag_35:\n      mload(0x40)\n      dup1\n      swap2\n      sub\n      swap1\n      return\n        /* \"RPSLS.sol\":1165:1610  function addPlayer() public payable onlyAllowedAccounts {... */\n    tag_5:\n      tag_36\n      tag_37\n      jump\t// in\n    tag_36:\n      stop\n        /* \"TimeUnit.sol\":890:1012  function isTimeout() public view returns (bool) {... */\n    tag_6:\n      callvalue\n      dup1\n      iszero\n      tag_38\n      jumpi\n      0x00\n      dup1\n      revert\n    tag_38:\n      pop\n      tag_39\n      tag_40\n      jump\t// in\n    tag_39:\n      mload(0x40)\n      tag_41\n      swap2\n      swap1\n      tag_31\n      jump\t// in\n    tag_41:\n      mload(0x40)\n      dup1\n      swap2\n      sub\n      swap1\n      return\n        /* \"RPSLS.sol\":3330:4023  function refund() public onlyAllowedAccounts {... */\n    tag_7:\n      callvalue\n      dup1\n      iszero\n      tag_42\n      jumpi\n      0x00\n      dup1\n      revert\n    tag_42:\n      pop\n      tag_43\n      tag_44\n      jump\t// in\n    tag_43:\n      stop\n        /* \"RPSLS.sol\":1826:2309  function reveal(string memory randomSalt, uint choice) public onlyAllowedAccounts {... */\n    tag_8:\n      callvalue\n      dup1\n      iszero\n      tag_45\n      jumpi\n      0x00\n      dup1\n      revert\n    tag_45:\n      pop\n      tag_46\n      0x04\n      dup1\n      calldatasize\n      sub\n      dup2\n      add\n      swap1\n      tag_47\n      swap2\n      swap1\n      tag_48\n      jump\t// in\n    tag_47:\n      tag_49\n      jump\t// in\n    tag_46:\n      stop\n        /* \"TimeUnit.sol\":97:143  uint public latestActionTime = block.timestamp */\n    tag_9:\n      callvalue\n      dup1\n      iszero\n      tag_50\n      jumpi\n      0x00\n      dup1\n      revert\n    tag_50:\n      pop\n      tag_51\n      tag_52\n      jump\t// in\n    tag_51:\n      mload(0x40)\n      tag_53\n      swap2\n      swap1\n      tag_24\n      jump\t// in\n    tag_53:\n      mload(0x40)\n      dup1\n      swap2\n      sub\n      swap1\n      return\n        /* \"RPSLS.sol\":164:198  CommitReveal public commitContract */\n    tag_10:\n      callvalue\n      dup1\n      iszero\n      tag_54\n      jumpi\n      0x00\n      dup1\n      revert\n    tag_54:\n      pop\n      tag_55\n      tag_56\n      jump\t// in\n    tag_55:\n      mload(0x40)\n      tag_57\n      swap2\n      swap1\n      tag_58\n      jump\t// in\n    tag_57:\n      mload(0x40)\n      dup1\n      swap2\n      sub\n      swap1\n      return\n        /* \"TimeUnit.sol\":150:192  uint public constant delayTime = 1 minutes */\n    tag_11:\n      callvalue\n      dup1\n      iszero\n      tag_59\n      jumpi\n      0x00\n      dup1\n      revert\n    tag_59:\n      pop\n      tag_60\n      tag_61\n      jump\t// in\n    tag_60:\n      mload(0x40)\n      tag_62\n      swap2\n      swap1\n      tag_24\n      jump\t// in\n    tag_62:\n      mload(0x40)\n      dup1\n      swap2\n      sub\n      swap1\n      return\n        /* \"RPSLS.sol\":211:236  uint public numPlayer = 0 */\n    tag_12:\n      callvalue\n      dup1\n      iszero\n      tag_63\n      jumpi\n      0x00\n      dup1\n      revert\n    tag_63:\n      pop\n      tag_64\n      tag_65\n      jump\t// in\n    tag_64:\n      mload(0x40)\n      tag_66\n      swap2\n      swap1\n      tag_24\n      jump\t// in\n    tag_66:\n      mload(0x40)\n      dup1\n      swap2\n      sub\n      swap1\n      return\n        /* \"RPSLS.sol\":272:317  mapping(address => uint) public player_choice */\n    tag_13:\n      callvalue\n      dup1\n      iszero\n      tag_67\n      jumpi\n      0x00\n      dup1\n      revert\n    tag_67:\n      pop\n      tag_68\n      0x04\n      dup1\n      calldatasize\n      sub\n      dup2\n      add\n      swap1\n      tag_69\n      swap2\n      swap1\n      tag_28\n      jump\t// in\n    tag_69:\n      tag_70\n      jump\t// in\n    tag_68:\n      mload(0x40)\n      tag_71\n      swap2\n      swap1\n      tag_24\n      jump\t// in\n    tag_71:\n      mload(0x40)\n      dup1\n      swap2\n      sub\n      swap1\n      return\n        /* \"TimeUnit.sol\":646:762  function elapsedSeconds() public view returns (uint256) {... */\n    tag_14:\n      callvalue\n      dup1\n      iszero\n      tag_72\n      jumpi\n      0x00\n      dup1\n      revert\n    tag_72:\n      pop\n      tag_73\n      tag_74\n      jump\t// in\n    tag_73:\n      mload(0x40)\n      tag_75\n      swap2\n      swap1\n      tag_24\n      jump\t// in\n    tag_75:\n      mload(0x40)\n      dup1\n      swap2\n      sub\n      swap1\n      return\n        /* \"RPSLS.sol\":1618:1818  function commit(bytes32 dataHash) public onlyAllowedAccounts {... */\n    tag_15:\n      callvalue\n      dup1\n      iszero\n      tag_76\n      jumpi\n      0x00\n      dup1\n      revert\n    tag_76:\n      pop\n      tag_77\n      0x04\n      dup1\n      calldatasize\n      sub\n      dup2\n      add\n      swap1\n      tag_78\n      swap2\n      swap1\n      tag_79\n      jump\t// in\n    tag_78:\n      tag_80\n      jump\t// in\n    tag_77:\n      stop\n        /* \"RPSLS.sol\":380:404  address[] public players */\n    tag_16:\n      callvalue\n      dup1\n      iszero\n      tag_81\n      jumpi\n      0x00\n      dup1\n      revert\n    tag_81:\n      pop\n      tag_82\n      0x04\n      dup1\n      calldatasize\n      sub\n      dup2\n      add\n      swap1\n      tag_83\n      swap2\n      swap1\n      tag_84\n      jump\t// in\n    tag_83:\n      tag_85\n      jump\t// in\n    tag_82:\n      mload(0x40)\n      tag_86\n      swap2\n      swap1\n      tag_87\n      jump\t// in\n    tag_86:\n      mload(0x40)\n      dup1\n      swap2\n      sub\n      swap1\n      return\n        /* \"RPSLS.sol\":411:435  uint public numInput = 0 */\n    tag_22:\n      sload(0x07)\n      dup2\n      jump\t// out\n        /* \"RPSLS.sol\":324:373  mapping(address => bool) public player_not_played */\n    tag_29:\n      mstore(0x20, 0x05)\n      dup1\n      0x00\n      mstore\n      keccak256(0x00, 0x40)\n      0x00\n      swap2\n      pop\n      sload\n      swap1\n      0x0100\n      exp\n      swap1\n      div\n      0xff\n      and\n      dup2\n      jump\t// out\n        /* \"RPSLS.sol\":243:265  uint public reward = 0 */\n    tag_34:\n      sload(0x03)\n      dup2\n      jump\t// out\n        /* \"RPSLS.sol\":1165:1610  function addPlayer() public payable onlyAllowedAccounts {... */\n    tag_37:\n        /* \"RPSLS.sol\":860:874  bool isAllowed */\n      0x00\n        /* \"RPSLS.sol\":898:904  uint i */\n      dup1\n        /* \"RPSLS.sol\":893:1082  for (uint i = 0; i < allowedAccounts.length; i++) {... */\n    tag_89:\n        /* \"RPSLS.sol\":914:929  allowedAccounts */\n      0x08\n        /* \"RPSLS.sol\":914:936  allowedAccounts.length */\n      dup1\n      sload\n      swap1\n      pop\n        /* \"RPSLS.sol\":910:911  i */\n      dup2\n        /* \"RPSLS.sol\":910:936  i < allowedAccounts.length */\n      lt\n        /* \"RPSLS.sol\":893:1082  for (uint i = 0; i < allowedAccounts.length; i++) {... */\n      iszero\n      tag_90\n      jumpi\n        /* \"RPSLS.sol\":976:991  allowedAccounts */\n      0x08\n        /* \"RPSLS.sol\":992:993  i */\n      dup2\n        /* \"RPSLS.sol\":976:994  allowedAccounts[i] */\n      dup2\n      sload\n      dup2\n      lt\n      tag_92\n      jumpi\n      tag_93\n      tag_94\n      jump\t// in\n    tag_93:\n    tag_92:\n      swap1\n      0x00\n      mstore\n      keccak256(0x00, 0x20)\n      add\n      0x00\n      swap1\n      sload\n      swap1\n      0x0100\n      exp\n      swap1\n      div\n      0xffffffffffffffffffffffffffffffffffffffff\n      and\n        /* \"RPSLS.sol\":962:994  msg.sender == allowedAccounts[i] */\n      0xffffffffffffffffffffffffffffffffffffffff\n      and\n        /* \"RPSLS.sol\":962:972  msg.sender */\n      caller\n        /* \"RPSLS.sol\":962:994  msg.sender == allowedAccounts[i] */\n      0xffffffffffffffffffffffffffffffffffffffff\n      and\n      sub\n        /* \"RPSLS.sol\":958:1071  if (msg.sender == allowedAccounts[i]) {... */\n      tag_96\n      jumpi\n        /* \"RPSLS.sol\":1027:1031  true */\n      0x01\n        /* \"RPSLS.sol\":1015:1031  isAllowed = true */\n      swap2\n      pop\n        /* \"RPSLS.sol\":1050:1055  break */\n      jump(tag_90)\n        /* \"RPSLS.sol\":958:1071  if (msg.sender == allowedAccounts[i]) {... */\n    tag_96:\n        /* \"RPSLS.sol\":938:941  i++ */\n      dup1\n      dup1\n      0x01\n      add\n      swap2\n      pop\n      pop\n        /* \"RPSLS.sol\":893:1082  for (uint i = 0; i < allowedAccounts.length; i++) {... */\n      jump(tag_89)\n    tag_90:\n      pop\n        /* \"RPSLS.sol\":1100:1109  isAllowed */\n      dup1\n        /* \"RPSLS.sol\":1092:1137  require(isAllowed, \"Not an allowed account.\") */\n      tag_97\n      jumpi\n      mload(0x40)\n      0x08c379a000000000000000000000000000000000000000000000000000000000\n      dup2\n      mstore\n      0x04\n      add\n      tag_98\n      swap1\n      tag_99\n      jump\t// in\n    tag_98:\n      mload(0x40)\n      dup1\n      swap2\n      sub\n      swap1\n      revert\n    tag_97:\n        /* \"RPSLS.sol\":1252:1253  2 */\n      0x02\n        /* \"RPSLS.sol\":1240:1249  numPlayer */\n      dup1\n      sload\n        /* \"RPSLS.sol\":1240:1253  numPlayer < 2 */\n      lt\n        /* \"RPSLS.sol\":1232:1276  require(numPlayer < 2, \"Already 2 players.\") */\n      tag_101\n      jumpi\n      mload(0x40)\n      0x08c379a000000000000000000000000000000000000000000000000000000000\n      dup2\n      mstore\n      0x04\n      add\n      tag_102\n      swap1\n      tag_103\n      jump\t// in\n    tag_102:\n      mload(0x40)\n      dup1\n      swap2\n      sub\n      swap1\n      revert\n    tag_101:\n        /* \"RPSLS.sol\":1308:1315  1 ether */\n      0x0de0b6b3a7640000\n        /* \"RPSLS.sol\":1295:1304  msg.value */\n      callvalue\n        /* \"RPSLS.sol\":1295:1315  msg.value == 1 ether */\n      eq\n        /* \"RPSLS.sol\":1287:1336  require(msg.value == 1 ether, \"Must send 1 ETH.\") */\n      tag_104\n      jumpi\n      mload(0x40)\n      0x08c379a000000000000000000000000000000000000000000000000000000000\n      dup2\n      mstore\n      0x04\n      add\n      tag_105\n      swap1\n      tag_106\n      jump\t// in\n    tag_105:\n      mload(0x40)\n      dup1\n      swap2\n      sub\n      swap1\n      revert\n    tag_104:\n        /* \"RPSLS.sol\":1373:1374  0 */\n      0x00\n        /* \"RPSLS.sol\":1361:1370  numPlayer */\n      sload(0x02)\n        /* \"RPSLS.sol\":1361:1374  numPlayer > 0 */\n      gt\n        /* \"RPSLS.sol\":1357:1436  if (numPlayer > 0) {... */\n      iszero\n      tag_107\n      jumpi\n        /* \"RPSLS.sol\":1413:1420  players */\n      0x06\n        /* \"RPSLS.sol\":1421:1422  0 */\n      0x00\n        /* \"RPSLS.sol\":1413:1423  players[0] */\n      dup2\n      sload\n      dup2\n      lt\n      tag_108\n      jumpi\n      tag_109\n      tag_94\n      jump\t// in\n    tag_109:\n    tag_108:\n      swap1\n      0x00\n      mstore\n      keccak256(0x00, 0x20)\n      add\n      0x00\n      swap1\n      sload\n      swap1\n      0x0100\n      exp\n      swap1\n      div\n      0xffffffffffffffffffffffffffffffffffffffff\n      and\n        /* \"RPSLS.sol\":1399:1423  msg.sender != players[0] */\n      0xffffffffffffffffffffffffffffffffffffffff\n      and\n        /* \"RPSLS.sol\":1399:1409  msg.sender */\n      caller\n        /* \"RPSLS.sol\":1399:1423  msg.sender != players[0] */\n      0xffffffffffffffffffffffffffffffffffffffff\n      and\n      sub\n        /* \"RPSLS.sol\":1391:1424  require(msg.sender != players[0]) */\n      tag_111\n      jumpi\n      0x00\n      dup1\n      revert\n    tag_111:\n        /* \"RPSLS.sol\":1357:1436  if (numPlayer > 0) {... */\n    tag_107:\n        /* \"RPSLS.sol\":1458:1467  msg.value */\n      callvalue\n        /* \"RPSLS.sol\":1448:1454  reward */\n      0x03\n      0x00\n        /* \"RPSLS.sol\":1448:1467  reward += msg.value */\n      dup3\n      dup3\n      sload\n      tag_112\n      swap2\n      swap1\n      tag_113\n      jump\t// in\n    tag_112:\n      swap3\n      pop\n      pop\n      dup2\n      swap1\n      sstore\n      pop\n        /* \"RPSLS.sol\":1510:1514  true */\n      0x01\n        /* \"RPSLS.sol\":1478:1495  player_not_played */\n      0x05\n        /* \"RPSLS.sol\":1478:1507  player_not_played[msg.sender] */\n      0x00\n        /* \"RPSLS.sol\":1496:1506  msg.sender */\n      caller\n        /* \"RPSLS.sol\":1478:1507  player_not_played[msg.sender] */\n      0xffffffffffffffffffffffffffffffffffffffff\n      and\n      0xffffffffffffffffffffffffffffffffffffffff\n      and\n      dup2\n      mstore\n      0x20\n      add\n      swap1\n      dup2\n      mstore\n      0x20\n      add\n      0x00\n      keccak256\n      0x00\n        /* \"RPSLS.sol\":1478:1514  player_not_played[msg.sender] = true */\n      0x0100\n      exp\n      dup2\n      sload\n      dup2\n      0xff\n      mul\n      not\n      and\n      swap1\n      dup4\n      iszero\n      iszero\n      mul\n      or\n      swap1\n      sstore\n      pop\n        /* \"RPSLS.sol\":1525:1532  players */\n      0x06\n        /* \"RPSLS.sol\":1538:1548  msg.sender */\n      caller\n        /* \"RPSLS.sol\":1525:1549  players.push(msg.sender) */\n      swap1\n      dup1\n      0x01\n      dup2\n      sload\n      add\n      dup1\n      dup3\n      sstore\n      dup1\n      swap2\n      pop\n      pop\n      0x01\n      swap1\n      sub\n      swap1\n      0x00\n      mstore\n      keccak256(0x00, 0x20)\n      add\n      0x00\n      swap1\n      swap2\n      swap1\n      swap2\n      swap1\n      swap2\n      0x0100\n      exp\n      dup2\n      sload\n      dup2\n      0xffffffffffffffffffffffffffffffffffffffff\n      mul\n      not\n      and\n      swap1\n      dup4\n      0xffffffffffffffffffffffffffffffffffffffff\n      and\n      mul\n      or\n      swap1\n      sstore\n      pop\n        /* \"RPSLS.sol\":1560:1569  numPlayer */\n      0x02\n      0x00\n        /* \"RPSLS.sol\":1560:1571  numPlayer++ */\n      dup2\n      sload\n      dup1\n      swap3\n      swap2\n      swap1\n      tag_115\n      swap1\n      tag_116\n      jump\t// in\n    tag_115:\n      swap2\n      swap1\n      pop\n      sstore\n      pop\n        /* \"RPSLS.sol\":1584:1602  updateActionTime() */\n      tag_117\n        /* \"RPSLS.sol\":1584:1600  updateActionTime */\n      tag_118\n        /* \"RPSLS.sol\":1584:1602  updateActionTime() */\n      jump\t// in\n    tag_117:\n        /* \"RPSLS.sol\":849:1157  {... */\n      pop\n        /* \"RPSLS.sol\":1165:1610  function addPlayer() public payable onlyAllowedAccounts {... */\n      jump\t// out\n        /* \"TimeUnit.sol\":890:1012  function isTimeout() public view returns (bool) {... */\n    tag_40:\n        /* \"TimeUnit.sol\":932:936  bool */\n      0x00\n        /* \"TimeUnit.sol\":183:192  1 minutes */\n      0x3c\n        /* \"TimeUnit.sol\":975:991  latestActionTime */\n      sload(0x00)\n        /* \"TimeUnit.sol\":957:972  block.timestamp */\n      timestamp\n        /* \"TimeUnit.sol\":957:991  block.timestamp - latestActionTime */\n      tag_120\n      swap2\n      swap1\n      tag_121\n      jump\t// in\n    tag_120:\n        /* \"TimeUnit.sol\":956:1004  (block.timestamp - latestActionTime) > delayTime */\n      gt\n        /* \"TimeUnit.sol\":949:1004  return (block.timestamp - latestActionTime) > delayTime */\n      swap1\n      pop\n        /* \"TimeUnit.sol\":890:1012  function isTimeout() public view returns (bool) {... */\n      swap1\n      jump\t// out\n        /* \"RPSLS.sol\":3330:4023  function refund() public onlyAllowedAccounts {... */\n    tag_44:\n        /* \"RPSLS.sol\":860:874  bool isAllowed */\n      0x00\n        /* \"RPSLS.sol\":898:904  uint i */\n      dup1\n        /* \"RPSLS.sol\":893:1082  for (uint i = 0; i < allowedAccounts.length; i++) {... */\n    tag_123:\n        /* \"RPSLS.sol\":914:929  allowedAccounts */\n      0x08\n        /* \"RPSLS.sol\":914:936  allowedAccounts.length */\n      dup1\n      sload\n      swap1\n      pop\n        /* \"RPSLS.sol\":910:911  i */\n      dup2\n        /* \"RPSLS.sol\":910:936  i < allowedAccounts.length */\n      lt\n        /* \"RPSLS.sol\":893:1082  for (uint i = 0; i < allowedAccounts.length; i++) {... */\n      iszero\n      tag_124\n      jumpi\n        /* \"RPSLS.sol\":976:991  allowedAccounts */\n      0x08\n        /* \"RPSLS.sol\":992:993  i */\n      dup2\n        /* \"RPSLS.sol\":976:994  allowedAccounts[i] */\n      dup2\n      sload\n      dup2\n      lt\n      tag_126\n      jumpi\n      tag_127\n      tag_94\n      jump\t// in\n    tag_127:\n    tag_126:\n      swap1\n      0x00\n      mstore\n      keccak256(0x00, 0x20)\n      add\n      0x00\n      swap1\n      sload\n      swap1\n      0x0100\n      exp\n      swap1\n      div\n      0xffffffffffffffffffffffffffffffffffffffff\n      and\n        /* \"RPSLS.sol\":962:994  msg.sender == allowedAccounts[i] */\n      0xffffffffffffffffffffffffffffffffffffffff\n      and\n        /* \"RPSLS.sol\":962:972  msg.sender */\n      caller\n        /* \"RPSLS.sol\":962:994  msg.sender == allowedAccounts[i] */\n      0xffffffffffffffffffffffffffffffffffffffff\n      and\n      sub\n        /* \"RPSLS.sol\":958:1071  if (msg.sender == allowedAccounts[i]) {... */\n      tag_129\n      jumpi\n        /* \"RPSLS.sol\":1027:1031  true */\n      0x01\n        /* \"RPSLS.sol\":1015:1031  isAllowed = true */\n      swap2\n      pop\n        /* \"RPSLS.sol\":1050:1055  break */\n      jump(tag_124)\n        /* \"RPSLS.sol\":958:1071  if (msg.sender == allowedAccounts[i]) {... */\n    tag_129:\n        /* \"RPSLS.sol\":938:941  i++ */\n      dup1\n      dup1\n      0x01\n      add\n      swap2\n      pop\n      pop\n        /* \"RPSLS.sol\":893:1082  for (uint i = 0; i < allowedAccounts.length; i++) {... */\n      jump(tag_123)\n    tag_124:\n      pop\n        /* \"RPSLS.sol\":1100:1109  isAllowed */\n      dup1\n        /* \"RPSLS.sol\":1092:1137  require(isAllowed, \"Not an allowed account.\") */\n      tag_130\n      jumpi\n      mload(0x40)\n      0x08c379a000000000000000000000000000000000000000000000000000000000\n      dup2\n      mstore\n      0x04\n      add\n      tag_131\n      swap1\n      tag_99\n      jump\t// in\n    tag_131:\n      mload(0x40)\n      dup1\n      swap2\n      sub\n      swap1\n      revert\n    tag_130:\n        /* \"RPSLS.sol\":3406:3407  0 */\n      0x00\n        /* \"RPSLS.sol\":3394:3403  numPlayer */\n      sload(0x02)\n        /* \"RPSLS.sol\":3394:3407  numPlayer > 0 */\n      gt\n        /* \"RPSLS.sol\":3386:3427  require(numPlayer > 0, \"No active game.\") */\n      tag_133\n      jumpi\n      mload(0x40)\n      0x08c379a000000000000000000000000000000000000000000000000000000000\n      dup2\n      mstore\n      0x04\n      add\n      tag_134\n      swap1\n      tag_135\n      jump\t// in\n    tag_134:\n      mload(0x40)\n      dup1\n      swap2\n      sub\n      swap1\n      revert\n    tag_133:\n        /* \"RPSLS.sol\":3455:3456  0 */\n      0x00\n        /* \"RPSLS.sol\":3446:3452  reward */\n      sload(0x03)\n        /* \"RPSLS.sol\":3446:3456  reward > 0 */\n      gt\n        /* \"RPSLS.sol\":3438:3481  require(reward > 0, \"No reward available.\") */\n      tag_136\n      jumpi\n      mload(0x40)\n      0x08c379a000000000000000000000000000000000000000000000000000000000\n      dup2\n      mstore\n      0x04\n      add\n      tag_137\n      swap1\n      tag_138\n      jump\t// in\n    tag_137:\n      mload(0x40)\n      dup1\n      swap2\n      sub\n      swap1\n      revert\n    tag_136:\n        /* \"RPSLS.sol\":3494:3518  address payable account0 */\n      0x00\n        /* \"RPSLS.sol\":3529:3536  players */\n      0x06\n        /* \"RPSLS.sol\":3537:3538  0 */\n      0x00\n        /* \"RPSLS.sol\":3529:3539  players[0] */\n      dup2\n      sload\n      dup2\n      lt\n      tag_139\n      jumpi\n      tag_140\n      tag_94\n      jump\t// in\n    tag_140:\n    tag_139:\n      swap1\n      0x00\n      mstore\n      keccak256(0x00, 0x20)\n      add\n      0x00\n      swap1\n      sload\n      swap1\n      0x0100\n      exp\n      swap1\n      div\n      0xffffffffffffffffffffffffffffffffffffffff\n      and\n        /* \"RPSLS.sol\":3494:3540  address payable account0 = payable(players[0]) */\n      swap1\n      pop\n        /* \"RPSLS.sol\":3570:3571  1 */\n      0x01\n        /* \"RPSLS.sol\":3557:3566  numPlayer */\n      sload(0x02)\n        /* \"RPSLS.sol\":3557:3571  numPlayer == 1 */\n      sub\n        /* \"RPSLS.sol\":3553:3991  if (numPlayer == 1) {... */\n      tag_142\n      jumpi\n        /* \"RPSLS.sol\":3610:3617  players */\n      0x06\n        /* \"RPSLS.sol\":3618:3619  0 */\n      0x00\n        /* \"RPSLS.sol\":3610:3620  players[0] */\n      dup2\n      sload\n      dup2\n      lt\n      tag_143\n      jumpi\n      tag_144\n      tag_94\n      jump\t// in\n    tag_144:\n    tag_143:\n      swap1\n      0x00\n      mstore\n      keccak256(0x00, 0x20)\n      add\n      0x00\n      swap1\n      sload\n      swap1\n      0x0100\n      exp\n      swap1\n      div\n      0xffffffffffffffffffffffffffffffffffffffff\n      and\n        /* \"RPSLS.sol\":3596:3620  msg.sender == players[0] */\n      0xffffffffffffffffffffffffffffffffffffffff\n      and\n        /* \"RPSLS.sol\":3596:3606  msg.sender */\n      caller\n        /* \"RPSLS.sol\":3596:3620  msg.sender == players[0] */\n      0xffffffffffffffffffffffffffffffffffffffff\n      and\n      eq\n        /* \"RPSLS.sol\":3588:3648  require(msg.sender == players[0], \"Only player can refund.\") */\n      tag_146\n      jumpi\n      mload(0x40)\n      0x08c379a000000000000000000000000000000000000000000000000000000000\n      dup2\n      mstore\n      0x04\n      add\n      tag_147\n      swap1\n      tag_148\n      jump\t// in\n    tag_147:\n      mload(0x40)\n      dup1\n      swap2\n      sub\n      swap1\n      revert\n    tag_146:\n        /* \"RPSLS.sol\":3663:3671  account0 */\n      dup1\n        /* \"RPSLS.sol\":3663:3680  account0.transfer */\n      0xffffffffffffffffffffffffffffffffffffffff\n      and\n        /* \"RPSLS.sol\":3663:3688  account0.transfer(reward) */\n      0x08fc\n        /* \"RPSLS.sol\":3681:3687  reward */\n      sload(0x03)\n        /* \"RPSLS.sol\":3663:3688  account0.transfer(reward) */\n      swap1\n      dup2\n      iszero\n      mul\n      swap1\n      mload(0x40)\n      0x00\n      mload(0x40)\n      dup1\n      dup4\n      sub\n      dup2\n      dup6\n      dup9\n      dup9\n      call\n      swap4\n      pop\n      pop\n      pop\n      pop\n      iszero\n      dup1\n      iszero\n      tag_150\n      jumpi\n      returndatasize\n      0x00\n      dup1\n      returndatacopy\n      revert(0x00, returndatasize)\n    tag_150:\n      pop\n        /* \"RPSLS.sol\":3553:3991  if (numPlayer == 1) {... */\n      jump(tag_151)\n    tag_142:\n        /* \"RPSLS.sol\":3723:3724  2 */\n      0x02\n        /* \"RPSLS.sol\":3710:3719  numPlayer */\n      dup1\n      sload\n        /* \"RPSLS.sol\":3710:3724  numPlayer == 2 */\n      sub\n        /* \"RPSLS.sol\":3706:3991  if (numPlayer == 2) {... */\n      tag_152\n      jumpi\n        /* \"RPSLS.sol\":3763:3770  players */\n      0x06\n        /* \"RPSLS.sol\":3771:3772  0 */\n      0x00\n        /* \"RPSLS.sol\":3763:3773  players[0] */\n      dup2\n      sload\n      dup2\n      lt\n      tag_153\n      jumpi\n      tag_154\n      tag_94\n      jump\t// in\n    tag_154:\n    tag_153:\n      swap1\n      0x00\n      mstore\n      keccak256(0x00, 0x20)\n      add\n      0x00\n      swap1\n      sload\n      swap1\n      0x0100\n      exp\n      swap1\n      div\n      0xffffffffffffffffffffffffffffffffffffffff\n      and\n        /* \"RPSLS.sol\":3749:3773  msg.sender == players[0] */\n      0xffffffffffffffffffffffffffffffffffffffff\n      and\n        /* \"RPSLS.sol\":3749:3759  msg.sender */\n      caller\n        /* \"RPSLS.sol\":3749:3773  msg.sender == players[0] */\n      0xffffffffffffffffffffffffffffffffffffffff\n      and\n      eq\n        /* \"RPSLS.sol\":3749:3801  msg.sender == players[0] || msg.sender == players[1] */\n      dup1\n      tag_156\n      jumpi\n      pop\n        /* \"RPSLS.sol\":3791:3798  players */\n      0x06\n        /* \"RPSLS.sol\":3799:3800  1 */\n      0x01\n        /* \"RPSLS.sol\":3791:3801  players[1] */\n      dup2\n      sload\n      dup2\n      lt\n      tag_157\n      jumpi\n      tag_158\n      tag_94\n      jump\t// in\n    tag_158:\n    tag_157:\n      swap1\n      0x00\n      mstore\n      keccak256(0x00, 0x20)\n      add\n      0x00\n      swap1\n      sload\n      swap1\n      0x0100\n      exp\n      swap1\n      div\n      0xffffffffffffffffffffffffffffffffffffffff\n      and\n        /* \"RPSLS.sol\":3777:3801  msg.sender == players[1] */\n      0xffffffffffffffffffffffffffffffffffffffff\n      and\n        /* \"RPSLS.sol\":3777:3787  msg.sender */\n      caller\n        /* \"RPSLS.sol\":3777:3801  msg.sender == players[1] */\n      0xffffffffffffffffffffffffffffffffffffffff\n      and\n      eq\n        /* \"RPSLS.sol\":3749:3801  msg.sender == players[0] || msg.sender == players[1] */\n    tag_156:\n        /* \"RPSLS.sol\":3741:3830  require(msg.sender == players[0] || msg.sender == players[1], \"Only players can refund.\") */\n      tag_160\n      jumpi\n      mload(0x40)\n      0x08c379a000000000000000000000000000000000000000000000000000000000\n      dup2\n      mstore\n      0x04\n      add\n      tag_161\n      swap1\n      tag_162\n      jump\t// in\n    tag_161:\n      mload(0x40)\n      dup1\n      swap2\n      sub\n      swap1\n      revert\n    tag_160:\n        /* \"RPSLS.sol\":3845:3869  address payable account1 */\n      0x00\n        /* \"RPSLS.sol\":3880:3887  players */\n      0x06\n        /* \"RPSLS.sol\":3888:3889  1 */\n      0x01\n        /* \"RPSLS.sol\":3880:3890  players[1] */\n      dup2\n      sload\n      dup2\n      lt\n      tag_163\n      jumpi\n      tag_164\n      tag_94\n      jump\t// in\n    tag_164:\n    tag_163:\n      swap1\n      0x00\n      mstore\n      keccak256(0x00, 0x20)\n      add\n      0x00\n      swap1\n      sload\n      swap1\n      0x0100\n      exp\n      swap1\n      div\n      0xffffffffffffffffffffffffffffffffffffffff\n      and\n        /* \"RPSLS.sol\":3845:3891  address payable account1 = payable(players[1]) */\n      swap1\n      pop\n        /* \"RPSLS.sol\":3906:3914  account0 */\n      dup2\n        /* \"RPSLS.sol\":3906:3923  account0.transfer */\n      0xffffffffffffffffffffffffffffffffffffffff\n      and\n        /* \"RPSLS.sol\":3906:3935  account0.transfer(reward / 2) */\n      0x08fc\n        /* \"RPSLS.sol\":3933:3934  2 */\n      0x02\n        /* \"RPSLS.sol\":3924:3930  reward */\n      sload(0x03)\n        /* \"RPSLS.sol\":3924:3934  reward / 2 */\n      tag_166\n      swap2\n      swap1\n      tag_167\n      jump\t// in\n    tag_166:\n        /* \"RPSLS.sol\":3906:3935  account0.transfer(reward / 2) */\n      swap1\n      dup2\n      iszero\n      mul\n      swap1\n      mload(0x40)\n      0x00\n      mload(0x40)\n      dup1\n      dup4\n      sub\n      dup2\n      dup6\n      dup9\n      dup9\n      call\n      swap4\n      pop\n      pop\n      pop\n      pop\n      iszero\n      dup1\n      iszero\n      tag_169\n      jumpi\n      returndatasize\n      0x00\n      dup1\n      returndatacopy\n      revert(0x00, returndatasize)\n    tag_169:\n      pop\n        /* \"RPSLS.sol\":3950:3958  account1 */\n      dup1\n        /* \"RPSLS.sol\":3950:3967  account1.transfer */\n      0xffffffffffffffffffffffffffffffffffffffff\n      and\n        /* \"RPSLS.sol\":3950:3979  account1.transfer(reward / 2) */\n      0x08fc\n        /* \"RPSLS.sol\":3977:3978  2 */\n      0x02\n        /* \"RPSLS.sol\":3968:3974  reward */\n      sload(0x03)\n        /* \"RPSLS.sol\":3968:3978  reward / 2 */\n      tag_170\n      swap2\n      swap1\n      tag_167\n      jump\t// in\n    tag_170:\n        /* \"RPSLS.sol\":3950:3979  account1.transfer(reward / 2) */\n      swap1\n      dup2\n      iszero\n      mul\n      swap1\n      mload(0x40)\n      0x00\n      mload(0x40)\n      dup1\n      dup4\n      sub\n      dup2\n      dup6\n      dup9\n      dup9\n      call\n      swap4\n      pop\n      pop\n      pop\n      pop\n      iszero\n      dup1\n      iszero\n      tag_172\n      jumpi\n      returndatasize\n      0x00\n      dup1\n      returndatacopy\n      revert(0x00, returndatasize)\n    tag_172:\n      pop\n        /* \"RPSLS.sol\":3726:3991  {... */\n      pop\n        /* \"RPSLS.sol\":3706:3991  if (numPlayer == 2) {... */\n    tag_152:\n        /* \"RPSLS.sol\":3553:3991  if (numPlayer == 1) {... */\n    tag_151:\n        /* \"RPSLS.sol\":4003:4015  _resetGame() */\n      tag_173\n        /* \"RPSLS.sol\":4003:4013  _resetGame */\n      tag_174\n        /* \"RPSLS.sol\":4003:4015  _resetGame() */\n      jump\t// in\n    tag_173:\n        /* \"RPSLS.sol\":3375:4023  {... */\n      pop\n        /* \"RPSLS.sol\":849:1157  {... */\n      pop\n        /* \"RPSLS.sol\":3330:4023  function refund() public onlyAllowedAccounts {... */\n      jump\t// out\n        /* \"RPSLS.sol\":1826:2309  function reveal(string memory randomSalt, uint choice) public onlyAllowedAccounts {... */\n    tag_49:\n        /* \"RPSLS.sol\":860:874  bool isAllowed */\n      0x00\n        /* \"RPSLS.sol\":898:904  uint i */\n      dup1\n        /* \"RPSLS.sol\":893:1082  for (uint i = 0; i < allowedAccounts.length; i++) {... */\n    tag_176:\n        /* \"RPSLS.sol\":914:929  allowedAccounts */\n      0x08\n        /* \"RPSLS.sol\":914:936  allowedAccounts.length */\n      dup1\n      sload\n      swap1\n      pop\n        /* \"RPSLS.sol\":910:911  i */\n      dup2\n        /* \"RPSLS.sol\":910:936  i < allowedAccounts.length */\n      lt\n        /* \"RPSLS.sol\":893:1082  for (uint i = 0; i < allowedAccounts.length; i++) {... */\n      iszero\n      tag_177\n      jumpi\n        /* \"RPSLS.sol\":976:991  allowedAccounts */\n      0x08\n        /* \"RPSLS.sol\":992:993  i */\n      dup2\n        /* \"RPSLS.sol\":976:994  allowedAccounts[i] */\n      dup2\n      sload\n      dup2\n      lt\n      tag_179\n      jumpi\n      tag_180\n      tag_94\n      jump\t// in\n    tag_180:\n    tag_179:\n      swap1\n      0x00\n      mstore\n      keccak256(0x00, 0x20)\n      add\n      0x00\n      swap1\n      sload\n      swap1\n      0x0100\n      exp\n      swap1\n      div\n      0xffffffffffffffffffffffffffffffffffffffff\n      and\n        /* \"RPSLS.sol\":962:994  msg.sender == allowedAccounts[i] */\n      0xffffffffffffffffffffffffffffffffffffffff\n      and\n        /* \"RPSLS.sol\":962:972  msg.sender */\n      caller\n        /* \"RPSLS.sol\":962:994  msg.sender == allowedAccounts[i] */\n      0xffffffffffffffffffffffffffffffffffffffff\n      and\n      sub\n        /* \"RPSLS.sol\":958:1071  if (msg.sender == allowedAccounts[i]) {... */\n      tag_182\n      jumpi\n        /* \"RPSLS.sol\":1027:1031  true */\n      0x01\n        /* \"RPSLS.sol\":1015:1031  isAllowed = true */\n      swap2\n      pop\n        /* \"RPSLS.sol\":1050:1055  break */\n      jump(tag_177)\n        /* \"RPSLS.sol\":958:1071  if (msg.sender == allowedAccounts[i]) {... */\n    tag_182:\n        /* \"RPSLS.sol\":938:941  i++ */\n      dup1\n      dup1\n      0x01\n      add\n      swap2\n      pop\n      pop\n        /* \"RPSLS.sol\":893:1082  for (uint i = 0; i < allowedAccounts.length; i++) {... */\n      jump(tag_176)\n    tag_177:\n      pop\n        /* \"RPSLS.sol\":1100:1109  isAllowed */\n      dup1\n        /* \"RPSLS.sol\":1092:1137  require(isAllowed, \"Not an allowed account.\") */\n      tag_183\n      jumpi\n      mload(0x40)\n      0x08c379a000000000000000000000000000000000000000000000000000000000\n      dup2\n      mstore\n      0x04\n      add\n      tag_184\n      swap1\n      tag_99\n      jump\t// in\n    tag_184:\n      mload(0x40)\n      dup1\n      swap2\n      sub\n      swap1\n      revert\n    tag_183:\n        /* \"RPSLS.sol\":1927:1944  player_not_played */\n      0x05\n        /* \"RPSLS.sol\":1927:1956  player_not_played[msg.sender] */\n      0x00\n        /* \"RPSLS.sol\":1945:1955  msg.sender */\n      caller\n        /* \"RPSLS.sol\":1927:1956  player_not_played[msg.sender] */\n      0xffffffffffffffffffffffffffffffffffffffff\n      and\n      0xffffffffffffffffffffffffffffffffffffffff\n      and\n      dup2\n      mstore\n      0x20\n      add\n      swap1\n      dup2\n      mstore\n      0x20\n      add\n      0x00\n      keccak256\n      0x00\n      swap1\n      sload\n      swap1\n      0x0100\n      exp\n      swap1\n      div\n      0xff\n      and\n        /* \"RPSLS.sol\":1919:1996  require(player_not_played[msg.sender], \"Not registered or already revealed.\") */\n      tag_186\n      jumpi\n      mload(0x40)\n      0x08c379a000000000000000000000000000000000000000000000000000000000\n      dup2\n      mstore\n      0x04\n      add\n      tag_187\n      swap1\n      tag_188\n      jump\t// in\n    tag_187:\n      mload(0x40)\n      dup1\n      swap2\n      sub\n      swap1\n      revert\n    tag_186:\n        /* \"RPSLS.sol\":2015:2029  commitContract */\n      0x01\n      0x00\n      swap1\n      sload\n      swap1\n      0x0100\n      exp\n      swap1\n      div\n      0xffffffffffffffffffffffffffffffffffffffff\n      and\n        /* \"RPSLS.sol\":2015:2036  commitContract.reveal */\n      0xffffffffffffffffffffffffffffffffffffffff\n      and\n      0x708b4730\n        /* \"RPSLS.sol\":2037:2047  randomSalt */\n      dup5\n        /* \"RPSLS.sol\":2049:2055  choice */\n      dup5\n        /* \"RPSLS.sol\":2015:2056  commitContract.reveal(randomSalt, choice) */\n      mload(0x40)\n      dup4\n      0xffffffff\n      and\n      0xe0\n      shl\n      dup2\n      mstore\n      0x04\n      add\n      tag_189\n      swap3\n      swap2\n      swap1\n      tag_190\n      jump\t// in\n    tag_189:\n      0x20\n      mload(0x40)\n      dup1\n      dup4\n      sub\n      dup2\n      0x00\n      dup8\n      gas\n      call\n      iszero\n      dup1\n      iszero\n      tag_192\n      jumpi\n      returndatasize\n      0x00\n      dup1\n      returndatacopy\n      revert(0x00, returndatasize)\n    tag_192:\n      pop\n      pop\n      pop\n      pop\n      mload(0x40)\n      returndatasize\n      not(0x1f)\n      0x1f\n      dup3\n      add\n      and\n      dup3\n      add\n      dup1\n      0x40\n      mstore\n      pop\n      dup2\n      add\n      swap1\n      tag_193\n      swap2\n      swap1\n      tag_194\n      jump\t// in\n    tag_193:\n        /* \"RPSLS.sol\":2007:2076  require(commitContract.reveal(randomSalt, choice), \"Invalid reveal.\") */\n      tag_195\n      jumpi\n      mload(0x40)\n      0x08c379a000000000000000000000000000000000000000000000000000000000\n      dup2\n      mstore\n      0x04\n      add\n      tag_196\n      swap1\n      tag_197\n      jump\t// in\n    tag_196:\n      mload(0x40)\n      dup1\n      swap2\n      sub\n      swap1\n      revert\n    tag_195:\n        /* \"RPSLS.sol\":2117:2123  choice */\n      dup2\n        /* \"RPSLS.sol\":2089:2102  player_choice */\n      0x04\n        /* \"RPSLS.sol\":2089:2114  player_choice[msg.sender] */\n      0x00\n        /* \"RPSLS.sol\":2103:2113  msg.sender */\n      caller\n        /* \"RPSLS.sol\":2089:2114  player_choice[msg.sender] */\n      0xffffffffffffffffffffffffffffffffffffffff\n      and\n      0xffffffffffffffffffffffffffffffffffffffff\n      and\n      dup2\n      mstore\n      0x20\n      add\n      swap1\n      dup2\n      mstore\n      0x20\n      add\n      0x00\n      keccak256\n        /* \"RPSLS.sol\":2089:2123  player_choice[msg.sender] = choice */\n      dup2\n      swap1\n      sstore\n      pop\n        /* \"RPSLS.sol\":2166:2171  false */\n      0x00\n        /* \"RPSLS.sol\":2134:2151  player_not_played */\n      0x05\n        /* \"RPSLS.sol\":2134:2163  player_not_played[msg.sender] */\n      0x00\n        /* \"RPSLS.sol\":2152:2162  msg.sender */\n      caller\n        /* \"RPSLS.sol\":2134:2163  player_not_played[msg.sender] */\n      0xffffffffffffffffffffffffffffffffffffffff\n      and\n      0xffffffffffffffffffffffffffffffffffffffff\n      and\n      dup2\n      mstore\n      0x20\n      add\n      swap1\n      dup2\n      mstore\n      0x20\n      add\n      0x00\n      keccak256\n      0x00\n        /* \"RPSLS.sol\":2134:2171  player_not_played[msg.sender] = false */\n      0x0100\n      exp\n      dup2\n      sload\n      dup2\n      0xff\n      mul\n      not\n      and\n      swap1\n      dup4\n      iszero\n      iszero\n      mul\n      or\n      swap1\n      sstore\n      pop\n        /* \"RPSLS.sol\":2182:2190  numInput */\n      0x07\n      0x00\n        /* \"RPSLS.sol\":2182:2192  numInput++ */\n      dup2\n      sload\n      dup1\n      swap3\n      swap2\n      swap1\n      tag_198\n      swap1\n      tag_116\n      jump\t// in\n    tag_198:\n      swap2\n      swap1\n      pop\n      sstore\n      pop\n        /* \"RPSLS.sol\":2221:2222  2 */\n      0x02\n        /* \"RPSLS.sol\":2209:2217  numInput */\n      sload(0x07)\n        /* \"RPSLS.sol\":2209:2222  numInput == 2 */\n      sub\n        /* \"RPSLS.sol\":2205:2271  if (numInput == 2) {... */\n      tag_199\n      jumpi\n        /* \"RPSLS.sol\":2239:2259  _checkWinnerAndPay() */\n      tag_200\n        /* \"RPSLS.sol\":2239:2257  _checkWinnerAndPay */\n      tag_201\n        /* \"RPSLS.sol\":2239:2259  _checkWinnerAndPay() */\n      jump\t// in\n    tag_200:\n        /* \"RPSLS.sol\":2205:2271  if (numInput == 2) {... */\n    tag_199:\n        /* \"RPSLS.sol\":2283:2301  updateActionTime() */\n      tag_202\n        /* \"RPSLS.sol\":2283:2299  updateActionTime */\n      tag_118\n        /* \"RPSLS.sol\":2283:2301  updateActionTime() */\n      jump\t// in\n    tag_202:\n        /* \"RPSLS.sol\":849:1157  {... */\n      pop\n        /* \"RPSLS.sol\":1826:2309  function reveal(string memory randomSalt, uint choice) public onlyAllowedAccounts {... */\n      pop\n      pop\n      jump\t// out\n        /* \"TimeUnit.sol\":97:143  uint public latestActionTime = block.timestamp */\n    tag_52:\n      sload(0x00)\n      dup2\n      jump\t// out\n        /* \"RPSLS.sol\":164:198  CommitReveal public commitContract */\n    tag_56:\n      0x01\n      0x00\n      swap1\n      sload\n      swap1\n      0x0100\n      exp\n      swap1\n      div\n      0xffffffffffffffffffffffffffffffffffffffff\n      and\n      dup2\n      jump\t// out\n        /* \"TimeUnit.sol\":150:192  uint public constant delayTime = 1 minutes */\n    tag_61:\n        /* \"TimeUnit.sol\":183:192  1 minutes */\n      0x3c\n        /* \"TimeUnit.sol\":150:192  uint public constant delayTime = 1 minutes */\n      dup2\n      jump\t// out\n        /* \"RPSLS.sol\":211:236  uint public numPlayer = 0 */\n    tag_65:\n      sload(0x02)\n      dup2\n      jump\t// out\n        /* \"RPSLS.sol\":272:317  mapping(address => uint) public player_choice */\n    tag_70:\n      mstore(0x20, 0x04)\n      dup1\n      0x00\n      mstore\n      keccak256(0x00, 0x40)\n      0x00\n      swap2\n      pop\n      swap1\n      pop\n      sload\n      dup2\n      jump\t// out\n        /* \"TimeUnit.sol\":646:762  function elapsedSeconds() public view returns (uint256) {... */\n    tag_74:\n        /* \"TimeUnit.sol\":693:700  uint256 */\n      0x00\n        /* \"TimeUnit.sol\":738:754  latestActionTime */\n      dup1\n      sload\n        /* \"TimeUnit.sol\":720:735  block.timestamp */\n      timestamp\n        /* \"TimeUnit.sol\":720:754  block.timestamp - latestActionTime */\n      tag_204\n      swap2\n      swap1\n      tag_121\n      jump\t// in\n    tag_204:\n        /* \"TimeUnit.sol\":713:754  return block.timestamp - latestActionTime */\n      swap1\n      pop\n        /* \"TimeUnit.sol\":646:762  function elapsedSeconds() public view returns (uint256) {... */\n      swap1\n      jump\t// out\n        /* \"RPSLS.sol\":1618:1818  function commit(bytes32 dataHash) public onlyAllowedAccounts {... */\n    tag_80:\n        /* \"RPSLS.sol\":860:874  bool isAllowed */\n      0x00\n        /* \"RPSLS.sol\":898:904  uint i */\n      dup1\n        /* \"RPSLS.sol\":893:1082  for (uint i = 0; i < allowedAccounts.length; i++) {... */\n    tag_206:\n        /* \"RPSLS.sol\":914:929  allowedAccounts */\n      0x08\n        /* \"RPSLS.sol\":914:936  allowedAccounts.length */\n      dup1\n      sload\n      swap1\n      pop\n        /* \"RPSLS.sol\":910:911  i */\n      dup2\n        /* \"RPSLS.sol\":910:936  i < allowedAccounts.length */\n      lt\n        /* \"RPSLS.sol\":893:1082  for (uint i = 0; i < allowedAccounts.length; i++) {... */\n      iszero\n      tag_207\n      jumpi\n        /* \"RPSLS.sol\":976:991  allowedAccounts */\n      0x08\n        /* \"RPSLS.sol\":992:993  i */\n      dup2\n        /* \"RPSLS.sol\":976:994  allowedAccounts[i] */\n      dup2\n      sload\n      dup2\n      lt\n      tag_209\n      jumpi\n      tag_210\n      tag_94\n      jump\t// in\n    tag_210:\n    tag_209:\n      swap1\n      0x00\n      mstore\n      keccak256(0x00, 0x20)\n      add\n      0x00\n      swap1\n      sload\n      swap1\n      0x0100\n      exp\n      swap1\n      div\n      0xffffffffffffffffffffffffffffffffffffffff\n      and\n        /* \"RPSLS.sol\":962:994  msg.sender == allowedAccounts[i] */\n      0xffffffffffffffffffffffffffffffffffffffff\n      and\n        /* \"RPSLS.sol\":962:972  msg.sender */\n      caller\n        /* \"RPSLS.sol\":962:994  msg.sender == allowedAccounts[i] */\n      0xffffffffffffffffffffffffffffffffffffffff\n      and\n      sub\n        /* \"RPSLS.sol\":958:1071  if (msg.sender == allowedAccounts[i]) {... */\n      tag_212\n      jumpi\n        /* \"RPSLS.sol\":1027:1031  true */\n      0x01\n        /* \"RPSLS.sol\":1015:1031  isAllowed = true */\n      swap2\n      pop\n        /* \"RPSLS.sol\":1050:1055  break */\n      jump(tag_207)\n        /* \"RPSLS.sol\":958:1071  if (msg.sender == allowedAccounts[i]) {... */\n    tag_212:\n        /* \"RPSLS.sol\":938:941  i++ */\n      dup1\n      dup1\n      0x01\n      add\n      swap2\n      pop\n      pop\n        /* \"RPSLS.sol\":893:1082  for (uint i = 0; i < allowedAccounts.length; i++) {... */\n      jump(tag_206)\n    tag_207:\n      pop\n        /* \"RPSLS.sol\":1100:1109  isAllowed */\n      dup1\n        /* \"RPSLS.sol\":1092:1137  require(isAllowed, \"Not an allowed account.\") */\n      tag_213\n      jumpi\n      mload(0x40)\n      0x08c379a000000000000000000000000000000000000000000000000000000000\n      dup2\n      mstore\n      0x04\n      add\n      tag_214\n      swap1\n      tag_99\n      jump\t// in\n    tag_214:\n      mload(0x40)\n      dup1\n      swap2\n      sub\n      swap1\n      revert\n    tag_213:\n        /* \"RPSLS.sol\":1698:1715  player_not_played */\n      0x05\n        /* \"RPSLS.sol\":1698:1727  player_not_played[msg.sender] */\n      0x00\n        /* \"RPSLS.sol\":1716:1726  msg.sender */\n      caller\n        /* \"RPSLS.sol\":1698:1727  player_not_played[msg.sender] */\n      0xffffffffffffffffffffffffffffffffffffffff\n      and\n      0xffffffffffffffffffffffffffffffffffffffff\n      and\n      dup2\n      mstore\n      0x20\n      add\n      swap1\n      dup2\n      mstore\n      0x20\n      add\n      0x00\n      keccak256\n      0x00\n      swap1\n      sload\n      swap1\n      0x0100\n      exp\n      swap1\n      div\n      0xff\n      and\n        /* \"RPSLS.sol\":1690:1768  require(player_not_played[msg.sender], \"Not registered or already committed.\") */\n      tag_216\n      jumpi\n      mload(0x40)\n      0x08c379a000000000000000000000000000000000000000000000000000000000\n      dup2\n      mstore\n      0x04\n      add\n      tag_217\n      swap1\n      tag_218\n      jump\t// in\n    tag_217:\n      mload(0x40)\n      dup1\n      swap2\n      sub\n      swap1\n      revert\n    tag_216:\n        /* \"RPSLS.sol\":1779:1793  commitContract */\n      0x01\n      0x00\n      swap1\n      sload\n      swap1\n      0x0100\n      exp\n      swap1\n      div\n      0xffffffffffffffffffffffffffffffffffffffff\n      and\n        /* \"RPSLS.sol\":1779:1800  commitContract.commit */\n      0xffffffffffffffffffffffffffffffffffffffff\n      and\n      0xf14fcbc8\n        /* \"RPSLS.sol\":1801:1809  dataHash */\n      dup4\n        /* \"RPSLS.sol\":1779:1810  commitContract.commit(dataHash) */\n      mload(0x40)\n      dup3\n      0xffffffff\n      and\n      0xe0\n      shl\n      dup2\n      mstore\n      0x04\n      add\n      tag_219\n      swap2\n      swap1\n      tag_220\n      jump\t// in\n    tag_219:\n      0x00\n      mload(0x40)\n      dup1\n      dup4\n      sub\n      dup2\n      0x00\n      dup8\n      dup1\n      extcodesize\n      iszero\n      dup1\n      iszero\n      tag_221\n      jumpi\n      0x00\n      dup1\n      revert\n    tag_221:\n      pop\n      gas\n      call\n      iszero\n      dup1\n      iszero\n      tag_223\n      jumpi\n      returndatasize\n      0x00\n      dup1\n      returndatacopy\n      revert(0x00, returndatasize)\n    tag_223:\n      pop\n      pop\n      pop\n      pop\n        /* \"RPSLS.sol\":849:1157  {... */\n      pop\n        /* \"RPSLS.sol\":1618:1818  function commit(bytes32 dataHash) public onlyAllowedAccounts {... */\n      pop\n      jump\t// out\n        /* \"RPSLS.sol\":380:404  address[] public players */\n    tag_85:\n      0x06\n      dup2\n      dup2\n      sload\n      dup2\n      lt\n      tag_224\n      jumpi\n      0x00\n      dup1\n      revert\n    tag_224:\n      swap1\n      0x00\n      mstore\n      keccak256(0x00, 0x20)\n      add\n      0x00\n      swap2\n      pop\n      sload\n      swap1\n      0x0100\n      exp\n      swap1\n      div\n      0xffffffffffffffffffffffffffffffffffffffff\n      and\n      dup2\n      jump\t// out\n        /* \"TimeUnit.sol\":392:482  function updateActionTime() internal {... */\n    tag_118:\n        /* \"TimeUnit.sol\":459:474  block.timestamp */\n      timestamp\n        /* \"TimeUnit.sol\":440:456  latestActionTime */\n      0x00\n        /* \"TimeUnit.sol\":440:474  latestActionTime = block.timestamp */\n      dup2\n      swap1\n      sstore\n      pop\n        /* \"TimeUnit.sol\":392:482  function updateActionTime() internal {... */\n      jump\t// out\n        /* \"RPSLS.sol\":4031:4357  function _resetGame() private {... */\n    tag_174:\n        /* \"RPSLS.sol\":4084:4085  0 */\n      0x00\n        /* \"RPSLS.sol\":4072:4081  numPlayer */\n      0x02\n        /* \"RPSLS.sol\":4072:4085  numPlayer = 0 */\n      dup2\n      swap1\n      sstore\n      pop\n        /* \"RPSLS.sol\":4107:4108  0 */\n      0x00\n        /* \"RPSLS.sol\":4096:4104  numInput */\n      0x07\n        /* \"RPSLS.sol\":4096:4108  numInput = 0 */\n      dup2\n      swap1\n      sstore\n      pop\n        /* \"RPSLS.sol\":4128:4129  0 */\n      0x00\n        /* \"RPSLS.sol\":4119:4125  reward */\n      0x03\n        /* \"RPSLS.sol\":4119:4129  reward = 0 */\n      dup2\n      swap1\n      sstore\n      pop\n        /* \"RPSLS.sol\":4147:4153  uint i */\n      0x00\n        /* \"RPSLS.sol\":4142:4294  for (uint i = 0; i < players.length; i++) {... */\n    tag_228:\n        /* \"RPSLS.sol\":4163:4170  players */\n      0x06\n        /* \"RPSLS.sol\":4163:4177  players.length */\n      dup1\n      sload\n      swap1\n      pop\n        /* \"RPSLS.sol\":4159:4160  i */\n      dup2\n        /* \"RPSLS.sol\":4159:4177  i < players.length */\n      lt\n        /* \"RPSLS.sol\":4142:4294  for (uint i = 0; i < players.length; i++) {... */\n      iszero\n      tag_229\n      jumpi\n        /* \"RPSLS.sol\":4206:4219  player_choice */\n      0x04\n        /* \"RPSLS.sol\":4206:4231  player_choice[players[i]] */\n      0x00\n        /* \"RPSLS.sol\":4220:4227  players */\n      0x06\n        /* \"RPSLS.sol\":4228:4229  i */\n      dup4\n        /* \"RPSLS.sol\":4220:4230  players[i] */\n      dup2\n      sload\n      dup2\n      lt\n      tag_231\n      jumpi\n      tag_232\n      tag_94\n      jump\t// in\n    tag_232:\n    tag_231:\n      swap1\n      0x00\n      mstore\n      keccak256(0x00, 0x20)\n      add\n      0x00\n      swap1\n      sload\n      swap1\n      0x0100\n      exp\n      swap1\n      div\n      0xffffffffffffffffffffffffffffffffffffffff\n      and\n        /* \"RPSLS.sol\":4206:4231  player_choice[players[i]] */\n      0xffffffffffffffffffffffffffffffffffffffff\n      and\n      0xffffffffffffffffffffffffffffffffffffffff\n      and\n      dup2\n      mstore\n      0x20\n      add\n      swap1\n      dup2\n      mstore\n      0x20\n      add\n      0x00\n      keccak256\n        /* \"RPSLS.sol\":4199:4231  delete player_choice[players[i]] */\n      0x00\n      swap1\n      sstore\n        /* \"RPSLS.sol\":4253:4270  player_not_played */\n      0x05\n        /* \"RPSLS.sol\":4253:4282  player_not_played[players[i]] */\n      0x00\n        /* \"RPSLS.sol\":4271:4278  players */\n      0x06\n        /* \"RPSLS.sol\":4279:4280  i */\n      dup4\n        /* \"RPSLS.sol\":4271:4281  players[i] */\n      dup2\n      sload\n      dup2\n      lt\n      tag_234\n      jumpi\n      tag_235\n      tag_94\n      jump\t// in\n    tag_235:\n    tag_234:\n      swap1\n      0x00\n      mstore\n      keccak256(0x00, 0x20)\n      add\n      0x00\n      swap1\n      sload\n      swap1\n      0x0100\n      exp\n      swap1\n      div\n      0xffffffffffffffffffffffffffffffffffffffff\n      and\n        /* \"RPSLS.sol\":4253:4282  player_not_played[players[i]] */\n      0xffffffffffffffffffffffffffffffffffffffff\n      and\n      0xffffffffffffffffffffffffffffffffffffffff\n      and\n      dup2\n      mstore\n      0x20\n      add\n      swap1\n      dup2\n      mstore\n      0x20\n      add\n      0x00\n      keccak256\n      0x00\n        /* \"RPSLS.sol\":4246:4282  delete player_not_played[players[i]] */\n      0x0100\n      exp\n      dup2\n      sload\n      swap1\n      0xff\n      mul\n      not\n      and\n      swap1\n      sstore\n        /* \"RPSLS.sol\":4179:4182  i++ */\n      dup1\n      dup1\n      0x01\n      add\n      swap2\n      pop\n      pop\n        /* \"RPSLS.sol\":4142:4294  for (uint i = 0; i < players.length; i++) {... */\n      jump(tag_228)\n    tag_229:\n      pop\n        /* \"RPSLS.sol\":4313:4320  players */\n      0x06\n      0x00\n        /* \"RPSLS.sol\":4306:4320  delete players */\n      tag_237\n      swap2\n      swap1\n      tag_238\n      jump\t// in\n    tag_237:\n        /* \"RPSLS.sol\":4331:4349  updateActionTime() */\n      tag_239\n        /* \"RPSLS.sol\":4331:4347  updateActionTime */\n      tag_118\n        /* \"RPSLS.sol\":4331:4349  updateActionTime() */\n      jump\t// in\n    tag_239:\n        /* \"RPSLS.sol\":4031:4357  function _resetGame() private {... */\n      jump\t// out\n        /* \"RPSLS.sol\":2317:2879  function _checkWinnerAndPay() private {... */\n    tag_201:\n        /* \"RPSLS.sol\":2366:2379  uint p0Choice */\n      0x00\n        /* \"RPSLS.sol\":2382:2395  player_choice */\n      0x04\n        /* \"RPSLS.sol\":2382:2407  player_choice[players[0]] */\n      0x00\n        /* \"RPSLS.sol\":2396:2403  players */\n      0x06\n        /* \"RPSLS.sol\":2404:2405  0 */\n      0x00\n        /* \"RPSLS.sol\":2396:2406  players[0] */\n      dup2\n      sload\n      dup2\n      lt\n      tag_241\n      jumpi\n      tag_242\n      tag_94\n      jump\t// in\n    tag_242:\n    tag_241:\n      swap1\n      0x00\n      mstore\n      keccak256(0x00, 0x20)\n      add\n      0x00\n      swap1\n      sload\n      swap1\n      0x0100\n      exp\n      swap1\n      div\n      0xffffffffffffffffffffffffffffffffffffffff\n      and\n        /* \"RPSLS.sol\":2382:2407  player_choice[players[0]] */\n      0xffffffffffffffffffffffffffffffffffffffff\n      and\n      0xffffffffffffffffffffffffffffffffffffffff\n      and\n      dup2\n      mstore\n      0x20\n      add\n      swap1\n      dup2\n      mstore\n      0x20\n      add\n      0x00\n      keccak256\n      sload\n        /* \"RPSLS.sol\":2366:2407  uint p0Choice = player_choice[players[0]] */\n      swap1\n      pop\n        /* \"RPSLS.sol\":2418:2431  uint p1Choice */\n      0x00\n        /* \"RPSLS.sol\":2434:2447  player_choice */\n      0x04\n        /* \"RPSLS.sol\":2434:2459  player_choice[players[1]] */\n      0x00\n        /* \"RPSLS.sol\":2448:2455  players */\n      0x06\n        /* \"RPSLS.sol\":2456:2457  1 */\n      0x01\n        /* \"RPSLS.sol\":2448:2458  players[1] */\n      dup2\n      sload\n      dup2\n      lt\n      tag_244\n      jumpi\n      tag_245\n      tag_94\n      jump\t// in\n    tag_245:\n    tag_244:\n      swap1\n      0x00\n      mstore\n      keccak256(0x00, 0x20)\n      add\n      0x00\n      swap1\n      sload\n      swap1\n      0x0100\n      exp\n      swap1\n      div\n      0xffffffffffffffffffffffffffffffffffffffff\n      and\n        /* \"RPSLS.sol\":2434:2459  player_choice[players[1]] */\n      0xffffffffffffffffffffffffffffffffffffffff\n      and\n      0xffffffffffffffffffffffffffffffffffffffff\n      and\n      dup2\n      mstore\n      0x20\n      add\n      swap1\n      dup2\n      mstore\n      0x20\n      add\n      0x00\n      keccak256\n      sload\n        /* \"RPSLS.sol\":2418:2459  uint p1Choice = player_choice[players[1]] */\n      swap1\n      pop\n        /* \"RPSLS.sol\":2470:2494  address payable account0 */\n      0x00\n        /* \"RPSLS.sol\":2505:2512  players */\n      0x06\n        /* \"RPSLS.sol\":2513:2514  0 */\n      0x00\n        /* \"RPSLS.sol\":2505:2515  players[0] */\n      dup2\n      sload\n      dup2\n      lt\n      tag_247\n      jumpi\n      tag_248\n      tag_94\n      jump\t// in\n    tag_248:\n    tag_247:\n      swap1\n      0x00\n      mstore\n      keccak256(0x00, 0x20)\n      add\n      0x00\n      swap1\n      sload\n      swap1\n      0x0100\n      exp\n      swap1\n      div\n      0xffffffffffffffffffffffffffffffffffffffff\n      and\n        /* \"RPSLS.sol\":2470:2516  address payable account0 = payable(players[0]) */\n      swap1\n      pop\n        /* \"RPSLS.sol\":2527:2551  address payable account1 */\n      0x00\n        /* \"RPSLS.sol\":2562:2569  players */\n      0x06\n        /* \"RPSLS.sol\":2570:2571  1 */\n      0x01\n        /* \"RPSLS.sol\":2562:2572  players[1] */\n      dup2\n      sload\n      dup2\n      lt\n      tag_250\n      jumpi\n      tag_251\n      tag_94\n      jump\t// in\n    tag_251:\n    tag_250:\n      swap1\n      0x00\n      mstore\n      keccak256(0x00, 0x20)\n      add\n      0x00\n      swap1\n      sload\n      swap1\n      0x0100\n      exp\n      swap1\n      div\n      0xffffffffffffffffffffffffffffffffffffffff\n      and\n        /* \"RPSLS.sol\":2527:2573  address payable account1 = payable(players[1]) */\n      swap1\n      pop\n        /* \"RPSLS.sol\":2590:2619  _isWinner(p0Choice, p1Choice) */\n      tag_253\n        /* \"RPSLS.sol\":2600:2608  p0Choice */\n      dup5\n        /* \"RPSLS.sol\":2610:2618  p1Choice */\n      dup5\n        /* \"RPSLS.sol\":2590:2599  _isWinner */\n      tag_254\n        /* \"RPSLS.sol\":2590:2619  _isWinner(p0Choice, p1Choice) */\n      jump\t// in\n    tag_253:\n        /* \"RPSLS.sol\":2586:2872  if (_isWinner(p0Choice, p1Choice)) {... */\n      iszero\n      tag_255\n      jumpi\n        /* \"RPSLS.sol\":2636:2644  account0 */\n      dup2\n        /* \"RPSLS.sol\":2636:2653  account0.transfer */\n      0xffffffffffffffffffffffffffffffffffffffff\n      and\n        /* \"RPSLS.sol\":2636:2661  account0.transfer(reward) */\n      0x08fc\n        /* \"RPSLS.sol\":2654:2660  reward */\n      sload(0x03)\n        /* \"RPSLS.sol\":2636:2661  account0.transfer(reward) */\n      swap1\n      dup2\n      iszero\n      mul\n      swap1\n      mload(0x40)\n      0x00\n      mload(0x40)\n      dup1\n      dup4\n      sub\n      dup2\n      dup6\n      dup9\n      dup9\n      call\n      swap4\n      pop\n      pop\n      pop\n      pop\n      iszero\n      dup1\n      iszero\n      tag_257\n      jumpi\n      returndatasize\n      0x00\n      dup1\n      returndatacopy\n      revert(0x00, returndatasize)\n    tag_257:\n      pop\n        /* \"RPSLS.sol\":2586:2872  if (_isWinner(p0Choice, p1Choice)) {... */\n      jump(tag_258)\n    tag_255:\n        /* \"RPSLS.sol\":2683:2712  _isWinner(p1Choice, p0Choice) */\n      tag_259\n        /* \"RPSLS.sol\":2693:2701  p1Choice */\n      dup4\n        /* \"RPSLS.sol\":2703:2711  p0Choice */\n      dup6\n        /* \"RPSLS.sol\":2683:2692  _isWinner */\n      tag_254\n        /* \"RPSLS.sol\":2683:2712  _isWinner(p1Choice, p0Choice) */\n      jump\t// in\n    tag_259:\n        /* \"RPSLS.sol\":2679:2872  if (_isWinner(p1Choice, p0Choice)) {... */\n      iszero\n      tag_260\n      jumpi\n        /* \"RPSLS.sol\":2729:2737  account1 */\n      dup1\n        /* \"RPSLS.sol\":2729:2746  account1.transfer */\n      0xffffffffffffffffffffffffffffffffffffffff\n      and\n        /* \"RPSLS.sol\":2729:2754  account1.transfer(reward) */\n      0x08fc\n        /* \"RPSLS.sol\":2747:2753  reward */\n      sload(0x03)\n        /* \"RPSLS.sol\":2729:2754  account1.transfer(reward) */\n      swap1\n      dup2\n      iszero\n      mul\n      swap1\n      mload(0x40)\n      0x00\n      mload(0x40)\n      dup1\n      dup4\n      sub\n      dup2\n      dup6\n      dup9\n      dup9\n      call\n      swap4\n      pop\n      pop\n      pop\n      pop\n      iszero\n      dup1\n      iszero\n      tag_262\n      jumpi\n      returndatasize\n      0x00\n      dup1\n      returndatacopy\n      revert(0x00, returndatasize)\n    tag_262:\n      pop\n        /* \"RPSLS.sol\":2679:2872  if (_isWinner(p1Choice, p0Choice)) {... */\n      jump(tag_263)\n    tag_260:\n        /* \"RPSLS.sol\":2787:2795  account0 */\n      dup2\n        /* \"RPSLS.sol\":2787:2804  account0.transfer */\n      0xffffffffffffffffffffffffffffffffffffffff\n      and\n        /* \"RPSLS.sol\":2787:2816  account0.transfer(reward / 2) */\n      0x08fc\n        /* \"RPSLS.sol\":2814:2815  2 */\n      0x02\n        /* \"RPSLS.sol\":2805:2811  reward */\n      sload(0x03)\n        /* \"RPSLS.sol\":2805:2815  reward / 2 */\n      tag_264\n      swap2\n      swap1\n      tag_167\n      jump\t// in\n    tag_264:\n        /* \"RPSLS.sol\":2787:2816  account0.transfer(reward / 2) */\n      swap1\n      dup2\n      iszero\n      mul\n      swap1\n      mload(0x40)\n      0x00\n      mload(0x40)\n      dup1\n      dup4\n      sub\n      dup2\n      dup6\n      dup9\n      dup9\n      call\n      swap4\n      pop\n      pop\n      pop\n      pop\n      iszero\n      dup1\n      iszero\n      tag_266\n      jumpi\n      returndatasize\n      0x00\n      dup1\n      returndatacopy\n      revert(0x00, returndatasize)\n    tag_266:\n      pop\n        /* \"RPSLS.sol\":2831:2839  account1 */\n      dup1\n        /* \"RPSLS.sol\":2831:2848  account1.transfer */\n      0xffffffffffffffffffffffffffffffffffffffff\n      and\n        /* \"RPSLS.sol\":2831:2860  account1.transfer(reward / 2) */\n      0x08fc\n        /* \"RPSLS.sol\":2858:2859  2 */\n      0x02\n        /* \"RPSLS.sol\":2849:2855  reward */\n      sload(0x03)\n        /* \"RPSLS.sol\":2849:2859  reward / 2 */\n      tag_267\n      swap2\n      swap1\n      tag_167\n      jump\t// in\n    tag_267:\n        /* \"RPSLS.sol\":2831:2860  account1.transfer(reward / 2) */\n      swap1\n      dup2\n      iszero\n      mul\n      swap1\n      mload(0x40)\n      0x00\n      mload(0x40)\n      dup1\n      dup4\n      sub\n      dup2\n      dup6\n      dup9\n      dup9\n      call\n      swap4\n      pop\n      pop\n      pop\n      pop\n      iszero\n      dup1\n      iszero\n      tag_269\n      jumpi\n      returndatasize\n      0x00\n      dup1\n      returndatacopy\n      revert(0x00, returndatasize)\n    tag_269:\n      pop\n        /* \"RPSLS.sol\":2679:2872  if (_isWinner(p1Choice, p0Choice)) {... */\n    tag_263:\n        /* \"RPSLS.sol\":2586:2872  if (_isWinner(p0Choice, p1Choice)) {... */\n    tag_258:\n        /* \"RPSLS.sol\":2355:2879  {... */\n      pop\n      pop\n      pop\n      pop\n        /* \"RPSLS.sol\":2317:2879  function _checkWinnerAndPay() private {... */\n      jump\t// out\n        /* \"RPSLS.sol\":2887:3322  function _isWinner(uint choice1, uint choice2) private pure returns (bool) {... */\n    tag_254:\n        /* \"RPSLS.sol\":2956:2960  bool */\n      0x00\n        /* \"RPSLS.sol\":3007:3008  0 */\n      dup1\n        /* \"RPSLS.sol\":2996:3003  choice1 */\n      dup4\n        /* \"RPSLS.sol\":2996:3008  choice1 == 0 */\n      eq\n        /* \"RPSLS.sol\":2996:3042  choice1 == 0 && (choice2 == 2 || choice2 == 3) */\n      dup1\n      iszero\n      tag_271\n      jumpi\n      pop\n        /* \"RPSLS.sol\":3024:3025  2 */\n      0x02\n        /* \"RPSLS.sol\":3013:3020  choice2 */\n      dup3\n        /* \"RPSLS.sol\":3013:3025  choice2 == 2 */\n      eq\n        /* \"RPSLS.sol\":3013:3041  choice2 == 2 || choice2 == 3 */\n      dup1\n      tag_272\n      jumpi\n      pop\n        /* \"RPSLS.sol\":3040:3041  3 */\n      0x03\n        /* \"RPSLS.sol\":3029:3036  choice2 */\n      dup3\n        /* \"RPSLS.sol\":3029:3041  choice2 == 3 */\n      eq\n        /* \"RPSLS.sol\":3013:3041  choice2 == 2 || choice2 == 3 */\n    tag_272:\n        /* \"RPSLS.sol\":2996:3042  choice1 == 0 && (choice2 == 2 || choice2 == 3) */\n    tag_271:\n        /* \"RPSLS.sol\":2995:3108  (choice1 == 0 && (choice2 == 2 || choice2 == 3)) ||... */\n      dup1\n      tag_273\n      jumpi\n      pop\n        /* \"RPSLS.sol\":3072:3073  1 */\n      0x01\n        /* \"RPSLS.sol\":3061:3068  choice1 */\n      dup4\n        /* \"RPSLS.sol\":3061:3073  choice1 == 1 */\n      eq\n        /* \"RPSLS.sol\":3061:3107  choice1 == 1 && (choice2 == 0 || choice2 == 4) */\n      dup1\n      iszero\n      tag_274\n      jumpi\n      pop\n        /* \"RPSLS.sol\":3089:3090  0 */\n      0x00\n        /* \"RPSLS.sol\":3078:3085  choice2 */\n      dup3\n        /* \"RPSLS.sol\":3078:3090  choice2 == 0 */\n      eq\n        /* \"RPSLS.sol\":3078:3106  choice2 == 0 || choice2 == 4 */\n      dup1\n      tag_275\n      jumpi\n      pop\n        /* \"RPSLS.sol\":3105:3106  4 */\n      0x04\n        /* \"RPSLS.sol\":3094:3101  choice2 */\n      dup3\n        /* \"RPSLS.sol\":3094:3106  choice2 == 4 */\n      eq\n        /* \"RPSLS.sol\":3078:3106  choice2 == 0 || choice2 == 4 */\n    tag_275:\n        /* \"RPSLS.sol\":3061:3107  choice1 == 1 && (choice2 == 0 || choice2 == 4) */\n    tag_274:\n        /* \"RPSLS.sol\":2995:3108  (choice1 == 0 && (choice2 == 2 || choice2 == 3)) ||... */\n    tag_273:\n        /* \"RPSLS.sol\":2995:3173  (choice1 == 0 && (choice2 == 2 || choice2 == 3)) ||... */\n      dup1\n      tag_276\n      jumpi\n      pop\n        /* \"RPSLS.sol\":3137:3138  2 */\n      0x02\n        /* \"RPSLS.sol\":3126:3133  choice1 */\n      dup4\n        /* \"RPSLS.sol\":3126:3138  choice1 == 2 */\n      eq\n        /* \"RPSLS.sol\":3126:3172  choice1 == 2 && (choice2 == 1 || choice2 == 3) */\n      dup1\n      iszero\n      tag_277\n      jumpi\n      pop\n        /* \"RPSLS.sol\":3154:3155  1 */\n      0x01\n        /* \"RPSLS.sol\":3143:3150  choice2 */\n      dup3\n        /* \"RPSLS.sol\":3143:3155  choice2 == 1 */\n      eq\n        /* \"RPSLS.sol\":3143:3171  choice2 == 1 || choice2 == 3 */\n      dup1\n      tag_278\n      jumpi\n      pop\n        /* \"RPSLS.sol\":3170:3171  3 */\n      0x03\n        /* \"RPSLS.sol\":3159:3166  choice2 */\n      dup3\n        /* \"RPSLS.sol\":3159:3171  choice2 == 3 */\n      eq\n        /* \"RPSLS.sol\":3143:3171  choice2 == 1 || choice2 == 3 */\n    tag_278:\n        /* \"RPSLS.sol\":3126:3172  choice1 == 2 && (choice2 == 1 || choice2 == 3) */\n    tag_277:\n        /* \"RPSLS.sol\":2995:3173  (choice1 == 0 && (choice2 == 2 || choice2 == 3)) ||... */\n    tag_276:\n        /* \"RPSLS.sol\":2995:3238  (choice1 == 0 && (choice2 == 2 || choice2 == 3)) ||... */\n      dup1\n      tag_279\n      jumpi\n      pop\n        /* \"RPSLS.sol\":3202:3203  3 */\n      0x03\n        /* \"RPSLS.sol\":3191:3198  choice1 */\n      dup4\n        /* \"RPSLS.sol\":3191:3203  choice1 == 3 */\n      eq\n        /* \"RPSLS.sol\":3191:3237  choice1 == 3 && (choice2 == 1 || choice2 == 4) */\n      dup1\n      iszero\n      tag_280\n      jumpi\n      pop\n        /* \"RPSLS.sol\":3219:3220  1 */\n      0x01\n        /* \"RPSLS.sol\":3208:3215  choice2 */\n      dup3\n        /* \"RPSLS.sol\":3208:3220  choice2 == 1 */\n      eq\n        /* \"RPSLS.sol\":3208:3236  choice2 == 1 || choice2 == 4 */\n      dup1\n      tag_281\n      jumpi\n      pop\n        /* \"RPSLS.sol\":3235:3236  4 */\n      0x04\n        /* \"RPSLS.sol\":3224:3231  choice2 */\n      dup3\n        /* \"RPSLS.sol\":3224:3236  choice2 == 4 */\n      eq\n        /* \"RPSLS.sol\":3208:3236  choice2 == 1 || choice2 == 4 */\n    tag_281:\n        /* \"RPSLS.sol\":3191:3237  choice1 == 3 && (choice2 == 1 || choice2 == 4) */\n    tag_280:\n        /* \"RPSLS.sol\":2995:3238  (choice1 == 0 && (choice2 == 2 || choice2 == 3)) ||... */\n    tag_279:\n        /* \"RPSLS.sol\":2995:3303  (choice1 == 0 && (choice2 == 2 || choice2 == 3)) ||... */\n      dup1\n      tag_282\n      jumpi\n      pop\n        /* \"RPSLS.sol\":3267:3268  4 */\n      0x04\n        /* \"RPSLS.sol\":3256:3263  choice1 */\n      dup4\n        /* \"RPSLS.sol\":3256:3268  choice1 == 4 */\n      eq\n        /* \"RPSLS.sol\":3256:3302  choice1 == 4 && (choice2 == 0 || choice2 == 2) */\n      dup1\n      iszero\n      tag_283\n      jumpi\n      pop\n        /* \"RPSLS.sol\":3284:3285  0 */\n      0x00\n        /* \"RPSLS.sol\":3273:3280  choice2 */\n      dup3\n        /* \"RPSLS.sol\":3273:3285  choice2 == 0 */\n      eq\n        /* \"RPSLS.sol\":3273:3301  choice2 == 0 || choice2 == 2 */\n      dup1\n      tag_284\n      jumpi\n      pop\n        /* \"RPSLS.sol\":3300:3301  2 */\n      0x02\n        /* \"RPSLS.sol\":3289:3296  choice2 */\n      dup3\n        /* \"RPSLS.sol\":3289:3301  choice2 == 2 */\n      eq\n        /* \"RPSLS.sol\":3273:3301  choice2 == 0 || choice2 == 2 */\n    tag_284:\n        /* \"RPSLS.sol\":3256:3302  choice1 == 4 && (choice2 == 0 || choice2 == 2) */\n    tag_283:\n        /* \"RPSLS.sol\":2995:3303  (choice1 == 0 && (choice2 == 2 || choice2 == 3)) ||... */\n    tag_282:\n        /* \"RPSLS.sol\":2973:3314  return (... */\n      swap1\n      pop\n        /* \"RPSLS.sol\":2887:3322  function _isWinner(uint choice1, uint choice2) private pure returns (bool) {... */\n      swap3\n      swap2\n      pop\n      pop\n      jump\t// out\n    tag_238:\n      pop\n      dup1\n      sload\n      0x00\n      dup3\n      sstore\n      swap1\n      0x00\n      mstore\n      keccak256(0x00, 0x20)\n      swap1\n      dup2\n      add\n      swap1\n      tag_286\n      swap2\n      swap1\n      tag_287\n      jump\t// in\n    tag_286:\n      pop\n      jump\t// out\n    tag_287:\n    tag_288:\n      dup1\n      dup3\n      gt\n      iszero\n      tag_289\n      jumpi\n      0x00\n      dup2\n      0x00\n      swap1\n      sstore\n      pop\n      0x01\n      add\n      jump(tag_288)\n    tag_289:\n      pop\n      swap1\n      jump\t// out\n        /* \"#utility.yul\":7:84   */\n    tag_290:\n        /* \"#utility.yul\":44:51   */\n      0x00\n        /* \"#utility.yul\":73:78   */\n      dup2\n        /* \"#utility.yul\":62:78   */\n      swap1\n      pop\n        /* \"#utility.yul\":7:84   */\n      swap2\n      swap1\n      pop\n      jump\t// out\n        /* \"#utility.yul\":90:208   */\n    tag_291:\n        /* \"#utility.yul\":177:201   */\n      tag_354\n        /* \"#utility.yul\":195:200   */\n      dup2\n        /* \"#utility.yul\":177:201   */\n      tag_290\n      jump\t// in\n    tag_354:\n        /* \"#utility.yul\":172:175   */\n      dup3\n        /* \"#utility.yul\":165:202   */\n      mstore\n        /* \"#utility.yul\":90:208   */\n      pop\n      pop\n      jump\t// out\n        /* \"#utility.yul\":214:436   */\n    tag_24:\n        /* \"#utility.yul\":307:311   */\n      0x00\n        /* \"#utility.yul\":345:347   */\n      0x20\n        /* \"#utility.yul\":334:343   */\n      dup3\n        /* \"#utility.yul\":330:348   */\n      add\n        /* \"#utility.yul\":322:348   */\n      swap1\n      pop\n        /* \"#utility.yul\":358:429   */\n      tag_356\n        /* \"#utility.yul\":426:427   */\n      0x00\n        /* \"#utility.yul\":415:424   */\n      dup4\n        /* \"#utility.yul\":411:428   */\n      add\n        /* \"#utility.yul\":402:408   */\n      dup5\n        /* \"#utility.yul\":358:429   */\n      tag_291\n      jump\t// in\n    tag_356:\n        /* \"#utility.yul\":214:436   */\n      swap3\n      swap2\n      pop\n      pop\n      jump\t// out\n        /* \"#utility.yul\":442:517   */\n    tag_292:\n        /* \"#utility.yul\":475:481   */\n      0x00\n        /* \"#utility.yul\":508:510   */\n      0x40\n        /* \"#utility.yul\":502:511   */\n      mload\n        /* \"#utility.yul\":492:511   */\n      swap1\n      pop\n        /* \"#utility.yul\":442:517   */\n      swap1\n      jump\t// out\n        /* \"#utility.yul\":523:640   */\n    tag_293:\n        /* \"#utility.yul\":632:633   */\n      0x00\n        /* \"#utility.yul\":629:630   */\n      dup1\n        /* \"#utility.yul\":622:634   */\n      revert\n        /* \"#utility.yul\":646:763   */\n    tag_294:\n        /* \"#utility.yul\":755:756   */\n      0x00\n        /* \"#utility.yul\":752:753   */\n      dup1\n        /* \"#utility.yul\":745:757   */\n      revert\n        /* \"#utility.yul\":769:895   */\n    tag_295:\n        /* \"#utility.yul\":806:813   */\n      0x00\n        /* \"#utility.yul\":846:888   */\n      0xffffffffffffffffffffffffffffffffffffffff\n        /* \"#utility.yul\":839:844   */\n      dup3\n        /* \"#utility.yul\":835:889   */\n      and\n        /* \"#utility.yul\":824:889   */\n      swap1\n      pop\n        /* \"#utility.yul\":769:895   */\n      swap2\n      swap1\n      pop\n      jump\t// out\n        /* \"#utility.yul\":901:997   */\n    tag_296:\n        /* \"#utility.yul\":938:945   */\n      0x00\n        /* \"#utility.yul\":967:991   */\n      tag_362\n        /* \"#utility.yul\":985:990   */\n      dup3\n        /* \"#utility.yul\":967:991   */\n      tag_295\n      jump\t// in\n    tag_362:\n        /* \"#utility.yul\":956:991   */\n      swap1\n      pop\n        /* \"#utility.yul\":901:997   */\n      swap2\n      swap1\n      pop\n      jump\t// out\n        /* \"#utility.yul\":1003:1125   */\n    tag_297:\n        /* \"#utility.yul\":1076:1100   */\n      tag_364\n        /* \"#utility.yul\":1094:1099   */\n      dup2\n        /* \"#utility.yul\":1076:1100   */\n      tag_296\n      jump\t// in\n    tag_364:\n        /* \"#utility.yul\":1069:1074   */\n      dup2\n        /* \"#utility.yul\":1066:1101   */\n      eq\n        /* \"#utility.yul\":1056:1119   */\n      tag_365\n      jumpi\n        /* \"#utility.yul\":1115:1116   */\n      0x00\n        /* \"#utility.yul\":1112:1113   */\n      dup1\n        /* \"#utility.yul\":1105:1117   */\n      revert\n        /* \"#utility.yul\":1056:1119   */\n    tag_365:\n        /* \"#utility.yul\":1003:1125   */\n      pop\n      jump\t// out\n        /* \"#utility.yul\":1131:1270   */\n    tag_298:\n        /* \"#utility.yul\":1177:1182   */\n      0x00\n        /* \"#utility.yul\":1215:1221   */\n      dup2\n        /* \"#utility.yul\":1202:1222   */\n      calldataload\n        /* \"#utility.yul\":1193:1222   */\n      swap1\n      pop\n        /* \"#utility.yul\":1231:1264   */\n      tag_367\n        /* \"#utility.yul\":1258:1263   */\n      dup2\n        /* \"#utility.yul\":1231:1264   */\n      tag_297\n      jump\t// in\n    tag_367:\n        /* \"#utility.yul\":1131:1270   */\n      swap3\n      swap2\n      pop\n      pop\n      jump\t// out\n        /* \"#utility.yul\":1276:1605   */\n    tag_28:\n        /* \"#utility.yul\":1335:1341   */\n      0x00\n        /* \"#utility.yul\":1384:1386   */\n      0x20\n        /* \"#utility.yul\":1372:1381   */\n      dup3\n        /* \"#utility.yul\":1363:1370   */\n      dup5\n        /* \"#utility.yul\":1359:1382   */\n      sub\n        /* \"#utility.yul\":1355:1387   */\n      slt\n        /* \"#utility.yul\":1352:1471   */\n      iszero\n      tag_369\n      jumpi\n        /* \"#utility.yul\":1390:1469   */\n      tag_370\n      tag_293\n      jump\t// in\n    tag_370:\n        /* \"#utility.yul\":1352:1471   */\n    tag_369:\n        /* \"#utility.yul\":1510:1511   */\n      0x00\n        /* \"#utility.yul\":1535:1588   */\n      tag_371\n        /* \"#utility.yul\":1580:1587   */\n      dup5\n        /* \"#utility.yul\":1571:1577   */\n      dup3\n        /* \"#utility.yul\":1560:1569   */\n      dup6\n        /* \"#utility.yul\":1556:1578   */\n      add\n        /* \"#utility.yul\":1535:1588   */\n      tag_298\n      jump\t// in\n    tag_371:\n        /* \"#utility.yul\":1525:1588   */\n      swap2\n      pop\n        /* \"#utility.yul\":1481:1598   */\n      pop\n        /* \"#utility.yul\":1276:1605   */\n      swap3\n      swap2\n      pop\n      pop\n      jump\t// out\n        /* \"#utility.yul\":1611:1701   */\n    tag_299:\n        /* \"#utility.yul\":1645:1652   */\n      0x00\n        /* \"#utility.yul\":1688:1693   */\n      dup2\n        /* \"#utility.yul\":1681:1694   */\n      iszero\n        /* \"#utility.yul\":1674:1695   */\n      iszero\n        /* \"#utility.yul\":1663:1695   */\n      swap1\n      pop\n        /* \"#utility.yul\":1611:1701   */\n      swap2\n      swap1\n      pop\n      jump\t// out\n        /* \"#utility.yul\":1707:1816   */\n    tag_300:\n        /* \"#utility.yul\":1788:1809   */\n      tag_374\n        /* \"#utility.yul\":1803:1808   */\n      dup2\n        /* \"#utility.yul\":1788:1809   */\n      tag_299\n      jump\t// in\n    tag_374:\n        /* \"#utility.yul\":1783:1786   */\n      dup3\n        /* \"#utility.yul\":1776:1810   */\n      mstore\n        /* \"#utility.yul\":1707:1816   */\n      pop\n      pop\n      jump\t// out\n        /* \"#utility.yul\":1822:2032   */\n    tag_31:\n        /* \"#utility.yul\":1909:1913   */\n      0x00\n        /* \"#utility.yul\":1947:1949   */\n      0x20\n        /* \"#utility.yul\":1936:1945   */\n      dup3\n        /* \"#utility.yul\":1932:1950   */\n      add\n        /* \"#utility.yul\":1924:1950   */\n      swap1\n      pop\n        /* \"#utility.yul\":1960:2025   */\n      tag_376\n        /* \"#utility.yul\":2022:2023   */\n      0x00\n        /* \"#utility.yul\":2011:2020   */\n      dup4\n        /* \"#utility.yul\":2007:2024   */\n      add\n        /* \"#utility.yul\":1998:2004   */\n      dup5\n        /* \"#utility.yul\":1960:2025   */\n      tag_300\n      jump\t// in\n    tag_376:\n        /* \"#utility.yul\":1822:2032   */\n      swap3\n      swap2\n      pop\n      pop\n      jump\t// out\n        /* \"#utility.yul\":2038:2155   */\n    tag_301:\n        /* \"#utility.yul\":2147:2148   */\n      0x00\n        /* \"#utility.yul\":2144:2145   */\n      dup1\n        /* \"#utility.yul\":2137:2149   */\n      revert\n        /* \"#utility.yul\":2161:2278   */\n    tag_302:\n        /* \"#utility.yul\":2270:2271   */\n      0x00\n        /* \"#utility.yul\":2267:2268   */\n      dup1\n        /* \"#utility.yul\":2260:2272   */\n      revert\n        /* \"#utility.yul\":2284:2386   */\n    tag_303:\n        /* \"#utility.yul\":2325:2331   */\n      0x00\n        /* \"#utility.yul\":2376:2378   */\n      0x1f\n        /* \"#utility.yul\":2372:2379   */\n      not\n        /* \"#utility.yul\":2367:2369   */\n      0x1f\n        /* \"#utility.yul\":2360:2365   */\n      dup4\n        /* \"#utility.yul\":2356:2370   */\n      add\n        /* \"#utility.yul\":2352:2380   */\n      and\n        /* \"#utility.yul\":2342:2380   */\n      swap1\n      pop\n        /* \"#utility.yul\":2284:2386   */\n      swap2\n      swap1\n      pop\n      jump\t// out\n        /* \"#utility.yul\":2392:2572   */\n    tag_304:\n        /* \"#utility.yul\":2440:2517   */\n      0x4e487b7100000000000000000000000000000000000000000000000000000000\n        /* \"#utility.yul\":2437:2438   */\n      0x00\n        /* \"#utility.yul\":2430:2518   */\n      mstore\n        /* \"#utility.yul\":2537:2541   */\n      0x41\n        /* \"#utility.yul\":2534:2535   */\n      0x04\n        /* \"#utility.yul\":2527:2542   */\n      mstore\n        /* \"#utility.yul\":2561:2565   */\n      0x24\n        /* \"#utility.yul\":2558:2559   */\n      0x00\n        /* \"#utility.yul\":2551:2566   */\n      revert\n        /* \"#utility.yul\":2578:2859   */\n    tag_305:\n        /* \"#utility.yul\":2661:2688   */\n      tag_382\n        /* \"#utility.yul\":2683:2687   */\n      dup3\n        /* \"#utility.yul\":2661:2688   */\n      tag_303\n      jump\t// in\n    tag_382:\n        /* \"#utility.yul\":2653:2659   */\n      dup2\n        /* \"#utility.yul\":2649:2689   */\n      add\n        /* \"#utility.yul\":2791:2797   */\n      dup2\n        /* \"#utility.yul\":2779:2789   */\n      dup2\n        /* \"#utility.yul\":2776:2798   */\n      lt\n        /* \"#utility.yul\":2755:2773   */\n      0xffffffffffffffff\n        /* \"#utility.yul\":2743:2753   */\n      dup3\n        /* \"#utility.yul\":2740:2774   */\n      gt\n        /* \"#utility.yul\":2737:2799   */\n      or\n        /* \"#utility.yul\":2734:2822   */\n      iszero\n      tag_383\n      jumpi\n        /* \"#utility.yul\":2802:2820   */\n      tag_384\n      tag_304\n      jump\t// in\n    tag_384:\n        /* \"#utility.yul\":2734:2822   */\n    tag_383:\n        /* \"#utility.yul\":2842:2852   */\n      dup1\n        /* \"#utility.yul\":2838:2840   */\n      0x40\n        /* \"#utility.yul\":2831:2853   */\n      mstore\n        /* \"#utility.yul\":2621:2859   */\n      pop\n        /* \"#utility.yul\":2578:2859   */\n      pop\n      pop\n      jump\t// out\n        /* \"#utility.yul\":2865:2994   */\n    tag_306:\n        /* \"#utility.yul\":2899:2905   */\n      0x00\n        /* \"#utility.yul\":2926:2946   */\n      tag_386\n      tag_292\n      jump\t// in\n    tag_386:\n        /* \"#utility.yul\":2916:2946   */\n      swap1\n      pop\n        /* \"#utility.yul\":2955:2988   */\n      tag_387\n        /* \"#utility.yul\":2983:2987   */\n      dup3\n        /* \"#utility.yul\":2975:2981   */\n      dup3\n        /* \"#utility.yul\":2955:2988   */\n      tag_305\n      jump\t// in\n    tag_387:\n        /* \"#utility.yul\":2865:2994   */\n      swap2\n      swap1\n      pop\n      jump\t// out\n        /* \"#utility.yul\":3000:3308   */\n    tag_307:\n        /* \"#utility.yul\":3062:3066   */\n      0x00\n        /* \"#utility.yul\":3152:3170   */\n      0xffffffffffffffff\n        /* \"#utility.yul\":3144:3150   */\n      dup3\n        /* \"#utility.yul\":3141:3171   */\n      gt\n        /* \"#utility.yul\":3138:3194   */\n      iszero\n      tag_389\n      jumpi\n        /* \"#utility.yul\":3174:3192   */\n      tag_390\n      tag_304\n      jump\t// in\n    tag_390:\n        /* \"#utility.yul\":3138:3194   */\n    tag_389:\n        /* \"#utility.yul\":3212:3241   */\n      tag_391\n        /* \"#utility.yul\":3234:3240   */\n      dup3\n        /* \"#utility.yul\":3212:3241   */\n      tag_303\n      jump\t// in\n    tag_391:\n        /* \"#utility.yul\":3204:3241   */\n      swap1\n      pop\n        /* \"#utility.yul\":3296:3300   */\n      0x20\n        /* \"#utility.yul\":3290:3294   */\n      dup2\n        /* \"#utility.yul\":3286:3301   */\n      add\n        /* \"#utility.yul\":3278:3301   */\n      swap1\n      pop\n        /* \"#utility.yul\":3000:3308   */\n      swap2\n      swap1\n      pop\n      jump\t// out\n        /* \"#utility.yul\":3314:3462   */\n    tag_308:\n        /* \"#utility.yul\":3412:3418   */\n      dup3\n        /* \"#utility.yul\":3407:3410   */\n      dup2\n        /* \"#utility.yul\":3402:3405   */\n      dup4\n        /* \"#utility.yul\":3389:3419   */\n      calldatacopy\n        /* \"#utility.yul\":3453:3454   */\n      0x00\n        /* \"#utility.yul\":3444:3450   */\n      dup4\n        /* \"#utility.yul\":3439:3442   */\n      dup4\n        /* \"#utility.yul\":3435:3451   */\n      add\n        /* \"#utility.yul\":3428:3455   */\n      mstore\n        /* \"#utility.yul\":3314:3462   */\n      pop\n      pop\n      pop\n      jump\t// out\n        /* \"#utility.yul\":3468:3893   */\n    tag_309:\n        /* \"#utility.yul\":3546:3551   */\n      0x00\n        /* \"#utility.yul\":3571:3637   */\n      tag_394\n        /* \"#utility.yul\":3587:3636   */\n      tag_395\n        /* \"#utility.yul\":3629:3635   */\n      dup5\n        /* \"#utility.yul\":3587:3636   */\n      tag_307\n      jump\t// in\n    tag_395:\n        /* \"#utility.yul\":3571:3637   */\n      tag_306\n      jump\t// in\n    tag_394:\n        /* \"#utility.yul\":3562:3637   */\n      swap1\n      pop\n        /* \"#utility.yul\":3660:3666   */\n      dup3\n        /* \"#utility.yul\":3653:3658   */\n      dup2\n        /* \"#utility.yul\":3646:3667   */\n      mstore\n        /* \"#utility.yul\":3698:3702   */\n      0x20\n        /* \"#utility.yul\":3691:3696   */\n      dup2\n        /* \"#utility.yul\":3687:3703   */\n      add\n        /* \"#utility.yul\":3736:3739   */\n      dup5\n        /* \"#utility.yul\":3727:3733   */\n      dup5\n        /* \"#utility.yul\":3722:3725   */\n      dup5\n        /* \"#utility.yul\":3718:3734   */\n      add\n        /* \"#utility.yul\":3715:3740   */\n      gt\n        /* \"#utility.yul\":3712:3824   */\n      iszero\n      tag_396\n      jumpi\n        /* \"#utility.yul\":3743:3822   */\n      tag_397\n      tag_302\n      jump\t// in\n    tag_397:\n        /* \"#utility.yul\":3712:3824   */\n    tag_396:\n        /* \"#utility.yul\":3833:3887   */\n      tag_398\n        /* \"#utility.yul\":3880:3886   */\n      dup5\n        /* \"#utility.yul\":3875:3878   */\n      dup3\n        /* \"#utility.yul\":3870:3873   */\n      dup6\n        /* \"#utility.yul\":3833:3887   */\n      tag_308\n      jump\t// in\n    tag_398:\n        /* \"#utility.yul\":3552:3893   */\n      pop\n        /* \"#utility.yul\":3468:3893   */\n      swap4\n      swap3\n      pop\n      pop\n      pop\n      jump\t// out\n        /* \"#utility.yul\":3913:4253   */\n    tag_310:\n        /* \"#utility.yul\":3969:3974   */\n      0x00\n        /* \"#utility.yul\":4018:4021   */\n      dup3\n        /* \"#utility.yul\":4011:4015   */\n      0x1f\n        /* \"#utility.yul\":4003:4009   */\n      dup4\n        /* \"#utility.yul\":3999:4016   */\n      add\n        /* \"#utility.yul\":3995:4022   */\n      slt\n        /* \"#utility.yul\":3985:4107   */\n      tag_400\n      jumpi\n        /* \"#utility.yul\":4026:4105   */\n      tag_401\n      tag_301\n      jump\t// in\n    tag_401:\n        /* \"#utility.yul\":3985:4107   */\n    tag_400:\n        /* \"#utility.yul\":4143:4149   */\n      dup2\n        /* \"#utility.yul\":4130:4150   */\n      calldataload\n        /* \"#utility.yul\":4168:4247   */\n      tag_402\n        /* \"#utility.yul\":4243:4246   */\n      dup5\n        /* \"#utility.yul\":4235:4241   */\n      dup3\n        /* \"#utility.yul\":4228:4232   */\n      0x20\n        /* \"#utility.yul\":4220:4226   */\n      dup7\n        /* \"#utility.yul\":4216:4233   */\n      add\n        /* \"#utility.yul\":4168:4247   */\n      tag_309\n      jump\t// in\n    tag_402:\n        /* \"#utility.yul\":4159:4247   */\n      swap2\n      pop\n        /* \"#utility.yul\":3975:4253   */\n      pop\n        /* \"#utility.yul\":3913:4253   */\n      swap3\n      swap2\n      pop\n      pop\n      jump\t// out\n        /* \"#utility.yul\":4259:4381   */\n    tag_311:\n        /* \"#utility.yul\":4332:4356   */\n      tag_404\n        /* \"#utility.yul\":4350:4355   */\n      dup2\n        /* \"#utility.yul\":4332:4356   */\n      tag_290\n      jump\t// in\n    tag_404:\n        /* \"#utility.yul\":4325:4330   */\n      dup2\n        /* \"#utility.yul\":4322:4357   */\n      eq\n        /* \"#utility.yul\":4312:4375   */\n      tag_405\n      jumpi\n        /* \"#utility.yul\":4371:4372   */\n      0x00\n        /* \"#utility.yul\":4368:4369   */\n      dup1\n        /* \"#utility.yul\":4361:4373   */\n      revert\n        /* \"#utility.yul\":4312:4375   */\n    tag_405:\n        /* \"#utility.yul\":4259:4381   */\n      pop\n      jump\t// out\n        /* \"#utility.yul\":4387:4526   */\n    tag_312:\n        /* \"#utility.yul\":4433:4438   */\n      0x00\n        /* \"#utility.yul\":4471:4477   */\n      dup2\n        /* \"#utility.yul\":4458:4478   */\n      calldataload\n        /* \"#utility.yul\":4449:4478   */\n      swap1\n      pop\n        /* \"#utility.yul\":4487:4520   */\n      tag_407\n        /* \"#utility.yul\":4514:4519   */\n      dup2\n        /* \"#utility.yul\":4487:4520   */\n      tag_311\n      jump\t// in\n    tag_407:\n        /* \"#utility.yul\":4387:4526   */\n      swap3\n      swap2\n      pop\n      pop\n      jump\t// out\n        /* \"#utility.yul\":4532:5186   */\n    tag_48:\n        /* \"#utility.yul\":4610:4616   */\n      0x00\n        /* \"#utility.yul\":4618:4624   */\n      dup1\n        /* \"#utility.yul\":4667:4669   */\n      0x40\n        /* \"#utility.yul\":4655:4664   */\n      dup4\n        /* \"#utility.yul\":4646:4653   */\n      dup6\n        /* \"#utility.yul\":4642:4665   */\n      sub\n        /* \"#utility.yul\":4638:4670   */\n      slt\n        /* \"#utility.yul\":4635:4754   */\n      iszero\n      tag_409\n      jumpi\n        /* \"#utility.yul\":4673:4752   */\n      tag_410\n      tag_293\n      jump\t// in\n    tag_410:\n        /* \"#utility.yul\":4635:4754   */\n    tag_409:\n        /* \"#utility.yul\":4821:4822   */\n      0x00\n        /* \"#utility.yul\":4810:4819   */\n      dup4\n        /* \"#utility.yul\":4806:4823   */\n      add\n        /* \"#utility.yul\":4793:4824   */\n      calldataload\n        /* \"#utility.yul\":4851:4869   */\n      0xffffffffffffffff\n        /* \"#utility.yul\":4843:4849   */\n      dup2\n        /* \"#utility.yul\":4840:4870   */\n      gt\n        /* \"#utility.yul\":4837:4954   */\n      iszero\n      tag_411\n      jumpi\n        /* \"#utility.yul\":4873:4952   */\n      tag_412\n      tag_294\n      jump\t// in\n    tag_412:\n        /* \"#utility.yul\":4837:4954   */\n    tag_411:\n        /* \"#utility.yul\":4978:5041   */\n      tag_413\n        /* \"#utility.yul\":5033:5040   */\n      dup6\n        /* \"#utility.yul\":5024:5030   */\n      dup3\n        /* \"#utility.yul\":5013:5022   */\n      dup7\n        /* \"#utility.yul\":5009:5031   */\n      add\n        /* \"#utility.yul\":4978:5041   */\n      tag_310\n      jump\t// in\n    tag_413:\n        /* \"#utility.yul\":4968:5041   */\n      swap3\n      pop\n        /* \"#utility.yul\":4764:5051   */\n      pop\n        /* \"#utility.yul\":5090:5092   */\n      0x20\n        /* \"#utility.yul\":5116:5169   */\n      tag_414\n        /* \"#utility.yul\":5161:5168   */\n      dup6\n        /* \"#utility.yul\":5152:5158   */\n      dup3\n        /* \"#utility.yul\":5141:5150   */\n      dup7\n        /* \"#utility.yul\":5137:5159   */\n      add\n        /* \"#utility.yul\":5116:5169   */\n      tag_312\n      jump\t// in\n    tag_414:\n        /* \"#utility.yul\":5106:5169   */\n      swap2\n      pop\n        /* \"#utility.yul\":5061:5179   */\n      pop\n        /* \"#utility.yul\":4532:5186   */\n      swap3\n      pop\n      swap3\n      swap1\n      pop\n      jump\t// out\n        /* \"#utility.yul\":5192:5252   */\n    tag_313:\n        /* \"#utility.yul\":5220:5223   */\n      0x00\n        /* \"#utility.yul\":5241:5246   */\n      dup2\n        /* \"#utility.yul\":5234:5246   */\n      swap1\n      pop\n        /* \"#utility.yul\":5192:5252   */\n      swap2\n      swap1\n      pop\n      jump\t// out\n        /* \"#utility.yul\":5258:5400   */\n    tag_314:\n        /* \"#utility.yul\":5308:5317   */\n      0x00\n        /* \"#utility.yul\":5341:5394   */\n      tag_417\n        /* \"#utility.yul\":5359:5393   */\n      tag_418\n        /* \"#utility.yul\":5368:5392   */\n      tag_419\n        /* \"#utility.yul\":5386:5391   */\n      dup5\n        /* \"#utility.yul\":5368:5392   */\n      tag_295\n      jump\t// in\n    tag_419:\n        /* \"#utility.yul\":5359:5393   */\n      tag_313\n      jump\t// in\n    tag_418:\n        /* \"#utility.yul\":5341:5394   */\n      tag_295\n      jump\t// in\n    tag_417:\n        /* \"#utility.yul\":5328:5394   */\n      swap1\n      pop\n        /* \"#utility.yul\":5258:5400   */\n      swap2\n      swap1\n      pop\n      jump\t// out\n        /* \"#utility.yul\":5406:5532   */\n    tag_315:\n        /* \"#utility.yul\":5456:5465   */\n      0x00\n        /* \"#utility.yul\":5489:5526   */\n      tag_421\n        /* \"#utility.yul\":5520:5525   */\n      dup3\n        /* \"#utility.yul\":5489:5526   */\n      tag_314\n      jump\t// in\n    tag_421:\n        /* \"#utility.yul\":5476:5526   */\n      swap1\n      pop\n        /* \"#utility.yul\":5406:5532   */\n      swap2\n      swap1\n      pop\n      jump\t// out\n        /* \"#utility.yul\":5538:5684   */\n    tag_316:\n        /* \"#utility.yul\":5608:5617   */\n      0x00\n        /* \"#utility.yul\":5641:5678   */\n      tag_423\n        /* \"#utility.yul\":5672:5677   */\n      dup3\n        /* \"#utility.yul\":5641:5678   */\n      tag_315\n      jump\t// in\n    tag_423:\n        /* \"#utility.yul\":5628:5678   */\n      swap1\n      pop\n        /* \"#utility.yul\":5538:5684   */\n      swap2\n      swap1\n      pop\n      jump\t// out\n        /* \"#utility.yul\":5690:5861   */\n    tag_317:\n        /* \"#utility.yul\":5797:5854   */\n      tag_425\n        /* \"#utility.yul\":5848:5853   */\n      dup2\n        /* \"#utility.yul\":5797:5854   */\n      tag_316\n      jump\t// in\n    tag_425:\n        /* \"#utility.yul\":5792:5795   */\n      dup3\n        /* \"#utility.yul\":5785:5855   */\n      mstore\n        /* \"#utility.yul\":5690:5861   */\n      pop\n      pop\n      jump\t// out\n        /* \"#utility.yul\":5867:6129   */\n    tag_58:\n        /* \"#utility.yul\":5980:5984   */\n      0x00\n        /* \"#utility.yul\":6018:6020   */\n      0x20\n        /* \"#utility.yul\":6007:6016   */\n      dup3\n        /* \"#utility.yul\":6003:6021   */\n      add\n        /* \"#utility.yul\":5995:6021   */\n      swap1\n      pop\n        /* \"#utility.yul\":6031:6122   */\n      tag_427\n        /* \"#utility.yul\":6119:6120   */\n      0x00\n        /* \"#utility.yul\":6108:6117   */\n      dup4\n        /* \"#utility.yul\":6104:6121   */\n      add\n        /* \"#utility.yul\":6095:6101   */\n      dup5\n        /* \"#utility.yul\":6031:6122   */\n      tag_317\n      jump\t// in\n    tag_427:\n        /* \"#utility.yul\":5867:6129   */\n      swap3\n      swap2\n      pop\n      pop\n      jump\t// out\n        /* \"#utility.yul\":6135:6212   */\n    tag_318:\n        /* \"#utility.yul\":6172:6179   */\n      0x00\n        /* \"#utility.yul\":6201:6206   */\n      dup2\n        /* \"#utility.yul\":6190:6206   */\n      swap1\n      pop\n        /* \"#utility.yul\":6135:6212   */\n      swap2\n      swap1\n      pop\n      jump\t// out\n        /* \"#utility.yul\":6218:6340   */\n    tag_319:\n        /* \"#utility.yul\":6291:6315   */\n      tag_430\n        /* \"#utility.yul\":6309:6314   */\n      dup2\n        /* \"#utility.yul\":6291:6315   */\n      tag_318\n      jump\t// in\n    tag_430:\n        /* \"#utility.yul\":6284:6289   */\n      dup2\n        /* \"#utility.yul\":6281:6316   */\n      eq\n        /* \"#utility.yul\":6271:6334   */\n      tag_431\n      jumpi\n        /* \"#utility.yul\":6330:6331   */\n      0x00\n        /* \"#utility.yul\":6327:6328   */\n      dup1\n        /* \"#utility.yul\":6320:6332   */\n      revert\n        /* \"#utility.yul\":6271:6334   */\n    tag_431:\n        /* \"#utility.yul\":6218:6340   */\n      pop\n      jump\t// out\n        /* \"#utility.yul\":6346:6485   */\n    tag_320:\n        /* \"#utility.yul\":6392:6397   */\n      0x00\n        /* \"#utility.yul\":6430:6436   */\n      dup2\n        /* \"#utility.yul\":6417:6437   */\n      calldataload\n        /* \"#utility.yul\":6408:6437   */\n      swap1\n      pop\n        /* \"#utility.yul\":6446:6479   */\n      tag_433\n        /* \"#utility.yul\":6473:6478   */\n      dup2\n        /* \"#utility.yul\":6446:6479   */\n      tag_319\n      jump\t// in\n    tag_433:\n        /* \"#utility.yul\":6346:6485   */\n      swap3\n      swap2\n      pop\n      pop\n      jump\t// out\n        /* \"#utility.yul\":6491:6820   */\n    tag_79:\n        /* \"#utility.yul\":6550:6556   */\n      0x00\n        /* \"#utility.yul\":6599:6601   */\n      0x20\n        /* \"#utility.yul\":6587:6596   */\n      dup3\n        /* \"#utility.yul\":6578:6585   */\n      dup5\n        /* \"#utility.yul\":6574:6597   */\n      sub\n        /* \"#utility.yul\":6570:6602   */\n      slt\n        /* \"#utility.yul\":6567:6686   */\n      iszero\n      tag_435\n      jumpi\n        /* \"#utility.yul\":6605:6684   */\n      tag_436\n      tag_293\n      jump\t// in\n    tag_436:\n        /* \"#utility.yul\":6567:6686   */\n    tag_435:\n        /* \"#utility.yul\":6725:6726   */\n      0x00\n        /* \"#utility.yul\":6750:6803   */\n      tag_437\n        /* \"#utility.yul\":6795:6802   */\n      dup5\n        /* \"#utility.yul\":6786:6792   */\n      dup3\n        /* \"#utility.yul\":6775:6784   */\n      dup6\n        /* \"#utility.yul\":6771:6793   */\n      add\n        /* \"#utility.yul\":6750:6803   */\n      tag_320\n      jump\t// in\n    tag_437:\n        /* \"#utility.yul\":6740:6803   */\n      swap2\n      pop\n        /* \"#utility.yul\":6696:6813   */\n      pop\n        /* \"#utility.yul\":6491:6820   */\n      swap3\n      swap2\n      pop\n      pop\n      jump\t// out\n        /* \"#utility.yul\":6826:7155   */\n    tag_84:\n        /* \"#utility.yul\":6885:6891   */\n      0x00\n        /* \"#utility.yul\":6934:6936   */\n      0x20\n        /* \"#utility.yul\":6922:6931   */\n      dup3\n        /* \"#utility.yul\":6913:6920   */\n      dup5\n        /* \"#utility.yul\":6909:6932   */\n      sub\n        /* \"#utility.yul\":6905:6937   */\n      slt\n        /* \"#utility.yul\":6902:7021   */\n      iszero\n      tag_439\n      jumpi\n        /* \"#utility.yul\":6940:7019   */\n      tag_440\n      tag_293\n      jump\t// in\n    tag_440:\n        /* \"#utility.yul\":6902:7021   */\n    tag_439:\n        /* \"#utility.yul\":7060:7061   */\n      0x00\n        /* \"#utility.yul\":7085:7138   */\n      tag_441\n        /* \"#utility.yul\":7130:7137   */\n      dup5\n        /* \"#utility.yul\":7121:7127   */\n      dup3\n        /* \"#utility.yul\":7110:7119   */\n      dup6\n        /* \"#utility.yul\":7106:7128   */\n      add\n        /* \"#utility.yul\":7085:7138   */\n      tag_312\n      jump\t// in\n    tag_441:\n        /* \"#utility.yul\":7075:7138   */\n      swap2\n      pop\n        /* \"#utility.yul\":7031:7148   */\n      pop\n        /* \"#utility.yul\":6826:7155   */\n      swap3\n      swap2\n      pop\n      pop\n      jump\t// out\n        /* \"#utility.yul\":7161:7279   */\n    tag_321:\n        /* \"#utility.yul\":7248:7272   */\n      tag_443\n        /* \"#utility.yul\":7266:7271   */\n      dup2\n        /* \"#utility.yul\":7248:7272   */\n      tag_296\n      jump\t// in\n    tag_443:\n        /* \"#utility.yul\":7243:7246   */\n      dup3\n        /* \"#utility.yul\":7236:7273   */\n      mstore\n        /* \"#utility.yul\":7161:7279   */\n      pop\n      pop\n      jump\t// out\n        /* \"#utility.yul\":7285:7507   */\n    tag_87:\n        /* \"#utility.yul\":7378:7382   */\n      0x00\n        /* \"#utility.yul\":7416:7418   */\n      0x20\n        /* \"#utility.yul\":7405:7414   */\n      dup3\n        /* \"#utility.yul\":7401:7419   */\n      add\n        /* \"#utility.yul\":7393:7419   */\n      swap1\n      pop\n        /* \"#utility.yul\":7429:7500   */\n      tag_445\n        /* \"#utility.yul\":7497:7498   */\n      0x00\n        /* \"#utility.yul\":7486:7495   */\n      dup4\n        /* \"#utility.yul\":7482:7499   */\n      add\n        /* \"#utility.yul\":7473:7479   */\n      dup5\n        /* \"#utility.yul\":7429:7500   */\n      tag_321\n      jump\t// in\n    tag_445:\n        /* \"#utility.yul\":7285:7507   */\n      swap3\n      swap2\n      pop\n      pop\n      jump\t// out\n        /* \"#utility.yul\":7513:7693   */\n    tag_94:\n        /* \"#utility.yul\":7561:7638   */\n      0x4e487b7100000000000000000000000000000000000000000000000000000000\n        /* \"#utility.yul\":7558:7559   */\n      0x00\n        /* \"#utility.yul\":7551:7639   */\n      mstore\n        /* \"#utility.yul\":7658:7662   */\n      0x32\n        /* \"#utility.yul\":7655:7656   */\n      0x04\n        /* \"#utility.yul\":7648:7663   */\n      mstore\n        /* \"#utility.yul\":7682:7686   */\n      0x24\n        /* \"#utility.yul\":7679:7680   */\n      0x00\n        /* \"#utility.yul\":7672:7687   */\n      revert\n        /* \"#utility.yul\":7699:7868   */\n    tag_322:\n        /* \"#utility.yul\":7783:7794   */\n      0x00\n        /* \"#utility.yul\":7817:7823   */\n      dup3\n        /* \"#utility.yul\":7812:7815   */\n      dup3\n        /* \"#utility.yul\":7805:7824   */\n      mstore\n        /* \"#utility.yul\":7857:7861   */\n      0x20\n        /* \"#utility.yul\":7852:7855   */\n      dup3\n        /* \"#utility.yul\":7848:7862   */\n      add\n        /* \"#utility.yul\":7833:7862   */\n      swap1\n      pop\n        /* \"#utility.yul\":7699:7868   */\n      swap3\n      swap2\n      pop\n      pop\n      jump\t// out\n        /* \"#utility.yul\":7874:8047   */\n    tag_323:\n        /* \"#utility.yul\":8014:8039   */\n      0x4e6f7420616e20616c6c6f776564206163636f756e742e000000000000000000\n        /* \"#utility.yul\":8010:8011   */\n      0x00\n        /* \"#utility.yul\":8002:8008   */\n      dup3\n        /* \"#utility.yul\":7998:8012   */\n      add\n        /* \"#utility.yul\":7991:8040   */\n      mstore\n        /* \"#utility.yul\":7874:8047   */\n      pop\n      jump\t// out\n        /* \"#utility.yul\":8053:8419   */\n    tag_324:\n        /* \"#utility.yul\":8195:8198   */\n      0x00\n        /* \"#utility.yul\":8216:8283   */\n      tag_450\n        /* \"#utility.yul\":8280:8282   */\n      0x17\n        /* \"#utility.yul\":8275:8278   */\n      dup4\n        /* \"#utility.yul\":8216:8283   */\n      tag_322\n      jump\t// in\n    tag_450:\n        /* \"#utility.yul\":8209:8283   */\n      swap2\n      pop\n        /* \"#utility.yul\":8292:8385   */\n      tag_451\n        /* \"#utility.yul\":8381:8384   */\n      dup3\n        /* \"#utility.yul\":8292:8385   */\n      tag_323\n      jump\t// in\n    tag_451:\n        /* \"#utility.yul\":8410:8412   */\n      0x20\n        /* \"#utility.yul\":8405:8408   */\n      dup3\n        /* \"#utility.yul\":8401:8413   */\n      add\n        /* \"#utility.yul\":8394:8413   */\n      swap1\n      pop\n        /* \"#utility.yul\":8053:8419   */\n      swap2\n      swap1\n      pop\n      jump\t// out\n        /* \"#utility.yul\":8425:8844   */\n    tag_99:\n        /* \"#utility.yul\":8591:8595   */\n      0x00\n        /* \"#utility.yul\":8629:8631   */\n      0x20\n        /* \"#utility.yul\":8618:8627   */\n      dup3\n        /* \"#utility.yul\":8614:8632   */\n      add\n        /* \"#utility.yul\":8606:8632   */\n      swap1\n      pop\n        /* \"#utility.yul\":8678:8687   */\n      dup2\n        /* \"#utility.yul\":8672:8676   */\n      dup2\n        /* \"#utility.yul\":8668:8688   */\n      sub\n        /* \"#utility.yul\":8664:8665   */\n      0x00\n        /* \"#utility.yul\":8653:8662   */\n      dup4\n        /* \"#utility.yul\":8649:8666   */\n      add\n        /* \"#utility.yul\":8642:8689   */\n      mstore\n        /* \"#utility.yul\":8706:8837   */\n      tag_453\n        /* \"#utility.yul\":8832:8836   */\n      dup2\n        /* \"#utility.yul\":8706:8837   */\n      tag_324\n      jump\t// in\n    tag_453:\n        /* \"#utility.yul\":8698:8837   */\n      swap1\n      pop\n        /* \"#utility.yul\":8425:8844   */\n      swap2\n      swap1\n      pop\n      jump\t// out\n        /* \"#utility.yul\":8850:9018   */\n    tag_325:\n        /* \"#utility.yul\":8990:9010   */\n      0x416c7265616479203220706c61796572732e0000000000000000000000000000\n        /* \"#utility.yul\":8986:8987   */\n      0x00\n        /* \"#utility.yul\":8978:8984   */\n      dup3\n        /* \"#utility.yul\":8974:8988   */\n      add\n        /* \"#utility.yul\":8967:9011   */\n      mstore\n        /* \"#utility.yul\":8850:9018   */\n      pop\n      jump\t// out\n        /* \"#utility.yul\":9024:9390   */\n    tag_326:\n        /* \"#utility.yul\":9166:9169   */\n      0x00\n        /* \"#utility.yul\":9187:9254   */\n      tag_456\n        /* \"#utility.yul\":9251:9253   */\n      0x12\n        /* \"#utility.yul\":9246:9249   */\n      dup4\n        /* \"#utility.yul\":9187:9254   */\n      tag_322\n      jump\t// in\n    tag_456:\n        /* \"#utility.yul\":9180:9254   */\n      swap2\n      pop\n        /* \"#utility.yul\":9263:9356   */\n      tag_457\n        /* \"#utility.yul\":9352:9355   */\n      dup3\n        /* \"#utility.yul\":9263:9356   */\n      tag_325\n      jump\t// in\n    tag_457:\n        /* \"#utility.yul\":9381:9383   */\n      0x20\n        /* \"#utility.yul\":9376:9379   */\n      dup3\n        /* \"#utility.yul\":9372:9384   */\n      add\n        /* \"#utility.yul\":9365:9384   */\n      swap1\n      pop\n        /* \"#utility.yul\":9024:9390   */\n      swap2\n      swap1\n      pop\n      jump\t// out\n        /* \"#utility.yul\":9396:9815   */\n    tag_103:\n        /* \"#utility.yul\":9562:9566   */\n      0x00\n        /* \"#utility.yul\":9600:9602   */\n      0x20\n        /* \"#utility.yul\":9589:9598   */\n      dup3\n        /* \"#utility.yul\":9585:9603   */\n      add\n        /* \"#utility.yul\":9577:9603   */\n      swap1\n      pop\n        /* \"#utility.yul\":9649:9658   */\n      dup2\n        /* \"#utility.yul\":9643:9647   */\n      dup2\n        /* \"#utility.yul\":9639:9659   */\n      sub\n        /* \"#utility.yul\":9635:9636   */\n      0x00\n        /* \"#utility.yul\":9624:9633   */\n      dup4\n        /* \"#utility.yul\":9620:9637   */\n      add\n        /* \"#utility.yul\":9613:9660   */\n      mstore\n        /* \"#utility.yul\":9677:9808   */\n      tag_459\n        /* \"#utility.yul\":9803:9807   */\n      dup2\n        /* \"#utility.yul\":9677:9808   */\n      tag_326\n      jump\t// in\n    tag_459:\n        /* \"#utility.yul\":9669:9808   */\n      swap1\n      pop\n        /* \"#utility.yul\":9396:9815   */\n      swap2\n      swap1\n      pop\n      jump\t// out\n        /* \"#utility.yul\":9821:9987   */\n    tag_327:\n        /* \"#utility.yul\":9961:9979   */\n      0x4d7573742073656e642031204554482e00000000000000000000000000000000\n        /* \"#utility.yul\":9957:9958   */\n      0x00\n        /* \"#utility.yul\":9949:9955   */\n      dup3\n        /* \"#utility.yul\":9945:9959   */\n      add\n        /* \"#utility.yul\":9938:9980   */\n      mstore\n        /* \"#utility.yul\":9821:9987   */\n      pop\n      jump\t// out\n        /* \"#utility.yul\":9993:10359   */\n    tag_328:\n        /* \"#utility.yul\":10135:10138   */\n      0x00\n        /* \"#utility.yul\":10156:10223   */\n      tag_462\n        /* \"#utility.yul\":10220:10222   */\n      0x10\n        /* \"#utility.yul\":10215:10218   */\n      dup4\n        /* \"#utility.yul\":10156:10223   */\n      tag_322\n      jump\t// in\n    tag_462:\n        /* \"#utility.yul\":10149:10223   */\n      swap2\n      pop\n        /* \"#utility.yul\":10232:10325   */\n      tag_463\n        /* \"#utility.yul\":10321:10324   */\n      dup3\n        /* \"#utility.yul\":10232:10325   */\n      tag_327\n      jump\t// in\n    tag_463:\n        /* \"#utility.yul\":10350:10352   */\n      0x20\n        /* \"#utility.yul\":10345:10348   */\n      dup3\n        /* \"#utility.yul\":10341:10353   */\n      add\n        /* \"#utility.yul\":10334:10353   */\n      swap1\n      pop\n        /* \"#utility.yul\":9993:10359   */\n      swap2\n      swap1\n      pop\n      jump\t// out\n        /* \"#utility.yul\":10365:10784   */\n    tag_106:\n        /* \"#utility.yul\":10531:10535   */\n      0x00\n        /* \"#utility.yul\":10569:10571   */\n      0x20\n        /* \"#utility.yul\":10558:10567   */\n      dup3\n        /* \"#utility.yul\":10554:10572   */\n      add\n        /* \"#utility.yul\":10546:10572   */\n      swap1\n      pop\n        /* \"#utility.yul\":10618:10627   */\n      dup2\n        /* \"#utility.yul\":10612:10616   */\n      dup2\n        /* \"#utility.yul\":10608:10628   */\n      sub\n        /* \"#utility.yul\":10604:10605   */\n      0x00\n        /* \"#utility.yul\":10593:10602   */\n      dup4\n        /* \"#utility.yul\":10589:10606   */\n      add\n        /* \"#utility.yul\":10582:10629   */\n      mstore\n        /* \"#utility.yul\":10646:10777   */\n      tag_465\n        /* \"#utility.yul\":10772:10776   */\n      dup2\n        /* \"#utility.yul\":10646:10777   */\n      tag_328\n      jump\t// in\n    tag_465:\n        /* \"#utility.yul\":10638:10777   */\n      swap1\n      pop\n        /* \"#utility.yul\":10365:10784   */\n      swap2\n      swap1\n      pop\n      jump\t// out\n        /* \"#utility.yul\":10790:10970   */\n    tag_329:\n        /* \"#utility.yul\":10838:10915   */\n      0x4e487b7100000000000000000000000000000000000000000000000000000000\n        /* \"#utility.yul\":10835:10836   */\n      0x00\n        /* \"#utility.yul\":10828:10916   */\n      mstore\n        /* \"#utility.yul\":10935:10939   */\n      0x11\n        /* \"#utility.yul\":10932:10933   */\n      0x04\n        /* \"#utility.yul\":10925:10940   */\n      mstore\n        /* \"#utility.yul\":10959:10963   */\n      0x24\n        /* \"#utility.yul\":10956:10957   */\n      0x00\n        /* \"#utility.yul\":10949:10964   */\n      revert\n        /* \"#utility.yul\":10976:11167   */\n    tag_113:\n        /* \"#utility.yul\":11016:11019   */\n      0x00\n        /* \"#utility.yul\":11035:11055   */\n      tag_468\n        /* \"#utility.yul\":11053:11054   */\n      dup3\n        /* \"#utility.yul\":11035:11055   */\n      tag_290\n      jump\t// in\n    tag_468:\n        /* \"#utility.yul\":11030:11055   */\n      swap2\n      pop\n        /* \"#utility.yul\":11069:11089   */\n      tag_469\n        /* \"#utility.yul\":11087:11088   */\n      dup4\n        /* \"#utility.yul\":11069:11089   */\n      tag_290\n      jump\t// in\n    tag_469:\n        /* \"#utility.yul\":11064:11089   */\n      swap3\n      pop\n        /* \"#utility.yul\":11112:11113   */\n      dup3\n        /* \"#utility.yul\":11109:11110   */\n      dup3\n        /* \"#utility.yul\":11105:11114   */\n      add\n        /* \"#utility.yul\":11098:11114   */\n      swap1\n      pop\n        /* \"#utility.yul\":11133:11136   */\n      dup1\n        /* \"#utility.yul\":11130:11131   */\n      dup3\n        /* \"#utility.yul\":11127:11137   */\n      gt\n        /* \"#utility.yul\":11124:11160   */\n      iszero\n      tag_470\n      jumpi\n        /* \"#utility.yul\":11140:11158   */\n      tag_471\n      tag_329\n      jump\t// in\n    tag_471:\n        /* \"#utility.yul\":11124:11160   */\n    tag_470:\n        /* \"#utility.yul\":10976:11167   */\n      swap3\n      swap2\n      pop\n      pop\n      jump\t// out\n        /* \"#utility.yul\":11173:11406   */\n    tag_116:\n        /* \"#utility.yul\":11212:11215   */\n      0x00\n        /* \"#utility.yul\":11235:11259   */\n      tag_473\n        /* \"#utility.yul\":11253:11258   */\n      dup3\n        /* \"#utility.yul\":11235:11259   */\n      tag_290\n      jump\t// in\n    tag_473:\n        /* \"#utility.yul\":11226:11259   */\n      swap2\n      pop\n        /* \"#utility.yul\":11281:11347   */\n      0xffffffffffffffffffffffffffffffffffffffffffffffffffffffffffffffff\n        /* \"#utility.yul\":11274:11279   */\n      dup3\n        /* \"#utility.yul\":11271:11348   */\n      sub\n        /* \"#utility.yul\":11268:11371   */\n      tag_474\n      jumpi\n        /* \"#utility.yul\":11351:11369   */\n      tag_475\n      tag_329\n      jump\t// in\n    tag_475:\n        /* \"#utility.yul\":11268:11371   */\n    tag_474:\n        /* \"#utility.yul\":11398:11399   */\n      0x01\n        /* \"#utility.yul\":11391:11396   */\n      dup3\n        /* \"#utility.yul\":11387:11400   */\n      add\n        /* \"#utility.yul\":11380:11400   */\n      swap1\n      pop\n        /* \"#utility.yul\":11173:11406   */\n      swap2\n      swap1\n      pop\n      jump\t// out\n        /* \"#utility.yul\":11412:11606   */\n    tag_121:\n        /* \"#utility.yul\":11452:11456   */\n      0x00\n        /* \"#utility.yul\":11472:11492   */\n      tag_477\n        /* \"#utility.yul\":11490:11491   */\n      dup3\n        /* \"#utility.yul\":11472:11492   */\n      tag_290\n      jump\t// in\n    tag_477:\n        /* \"#utility.yul\":11467:11492   */\n      swap2\n      pop\n        /* \"#utility.yul\":11506:11526   */\n      tag_478\n        /* \"#utility.yul\":11524:11525   */\n      dup4\n        /* \"#utility.yul\":11506:11526   */\n      tag_290\n      jump\t// in\n    tag_478:\n        /* \"#utility.yul\":11501:11526   */\n      swap3\n      pop\n        /* \"#utility.yul\":11550:11551   */\n      dup3\n        /* \"#utility.yul\":11547:11548   */\n      dup3\n        /* \"#utility.yul\":11543:11552   */\n      sub\n        /* \"#utility.yul\":11535:11552   */\n      swap1\n      pop\n        /* \"#utility.yul\":11574:11575   */\n      dup2\n        /* \"#utility.yul\":11568:11572   */\n      dup2\n        /* \"#utility.yul\":11565:11576   */\n      gt\n        /* \"#utility.yul\":11562:11599   */\n      iszero\n      tag_479\n      jumpi\n        /* \"#utility.yul\":11579:11597   */\n      tag_480\n      tag_329\n      jump\t// in\n    tag_480:\n        /* \"#utility.yul\":11562:11599   */\n    tag_479:\n        /* \"#utility.yul\":11412:11606   */\n      swap3\n      swap2\n      pop\n      pop\n      jump\t// out\n        /* \"#utility.yul\":11612:11777   */\n    tag_330:\n        /* \"#utility.yul\":11752:11769   */\n      0x4e6f206163746976652067616d652e0000000000000000000000000000000000\n        /* \"#utility.yul\":11748:11749   */\n      0x00\n        /* \"#utility.yul\":11740:11746   */\n      dup3\n        /* \"#utility.yul\":11736:11750   */\n      add\n        /* \"#utility.yul\":11729:11770   */\n      mstore\n        /* \"#utility.yul\":11612:11777   */\n      pop\n      jump\t// out\n        /* \"#utility.yul\":11783:12149   */\n    tag_331:\n        /* \"#utility.yul\":11925:11928   */\n      0x00\n        /* \"#utility.yul\":11946:12013   */\n      tag_483\n        /* \"#utility.yul\":12010:12012   */\n      0x0f\n        /* \"#utility.yul\":12005:12008   */\n      dup4\n        /* \"#utility.yul\":11946:12013   */\n      tag_322\n      jump\t// in\n    tag_483:\n        /* \"#utility.yul\":11939:12013   */\n      swap2\n      pop\n        /* \"#utility.yul\":12022:12115   */\n      tag_484\n        /* \"#utility.yul\":12111:12114   */\n      dup3\n        /* \"#utility.yul\":12022:12115   */\n      tag_330\n      jump\t// in\n    tag_484:\n        /* \"#utility.yul\":12140:12142   */\n      0x20\n        /* \"#utility.yul\":12135:12138   */\n      dup3\n        /* \"#utility.yul\":12131:12143   */\n      add\n        /* \"#utility.yul\":12124:12143   */\n      swap1\n      pop\n        /* \"#utility.yul\":11783:12149   */\n      swap2\n      swap1\n      pop\n      jump\t// out\n        /* \"#utility.yul\":12155:12574   */\n    tag_135:\n        /* \"#utility.yul\":12321:12325   */\n      0x00\n        /* \"#utility.yul\":12359:12361   */\n      0x20\n        /* \"#utility.yul\":12348:12357   */\n      dup3\n        /* \"#utility.yul\":12344:12362   */\n      add\n        /* \"#utility.yul\":12336:12362   */\n      swap1\n      pop\n        /* \"#utility.yul\":12408:12417   */\n      dup2\n        /* \"#utility.yul\":12402:12406   */\n      dup2\n        /* \"#utility.yul\":12398:12418   */\n      sub\n        /* \"#utility.yul\":12394:12395   */\n      0x00\n        /* \"#utility.yul\":12383:12392   */\n      dup4\n        /* \"#utility.yul\":12379:12396   */\n      add\n        /* \"#utility.yul\":12372:12419   */\n      mstore\n        /* \"#utility.yul\":12436:12567   */\n      tag_486\n        /* \"#utility.yul\":12562:12566   */\n      dup2\n        /* \"#utility.yul\":12436:12567   */\n      tag_331\n      jump\t// in\n    tag_486:\n        /* \"#utility.yul\":12428:12567   */\n      swap1\n      pop\n        /* \"#utility.yul\":12155:12574   */\n      swap2\n      swap1\n      pop\n      jump\t// out\n        /* \"#utility.yul\":12580:12750   */\n    tag_332:\n        /* \"#utility.yul\":12720:12742   */\n      0x4e6f2072657761726420617661696c61626c652e000000000000000000000000\n        /* \"#utility.yul\":12716:12717   */\n      0x00\n        /* \"#utility.yul\":12708:12714   */\n      dup3\n        /* \"#utility.yul\":12704:12718   */\n      add\n        /* \"#utility.yul\":12697:12743   */\n      mstore\n        /* \"#utility.yul\":12580:12750   */\n      pop\n      jump\t// out\n        /* \"#utility.yul\":12756:13122   */\n    tag_333:\n        /* \"#utility.yul\":12898:12901   */\n      0x00\n        /* \"#utility.yul\":12919:12986   */\n      tag_489\n        /* \"#utility.yul\":12983:12985   */\n      0x14\n        /* \"#utility.yul\":12978:12981   */\n      dup4\n        /* \"#utility.yul\":12919:12986   */\n      tag_322\n      jump\t// in\n    tag_489:\n        /* \"#utility.yul\":12912:12986   */\n      swap2\n      pop\n        /* \"#utility.yul\":12995:13088   */\n      tag_490\n        /* \"#utility.yul\":13084:13087   */\n      dup3\n        /* \"#utility.yul\":12995:13088   */\n      tag_332\n      jump\t// in\n    tag_490:\n        /* \"#utility.yul\":13113:13115   */\n      0x20\n        /* \"#utility.yul\":13108:13111   */\n      dup3\n        /* \"#utility.yul\":13104:13116   */\n      add\n        /* \"#utility.yul\":13097:13116   */\n      swap1\n      pop\n        /* \"#utility.yul\":12756:13122   */\n      swap2\n      swap1\n      pop\n      jump\t// out\n        /* \"#utility.yul\":13128:13547   */\n    tag_138:\n        /* \"#utility.yul\":13294:13298   */\n      0x00\n        /* \"#utility.yul\":13332:13334   */\n      0x20\n        /* \"#utility.yul\":13321:13330   */\n      dup3\n        /* \"#utility.yul\":13317:13335   */\n      add\n        /* \"#utility.yul\":13309:13335   */\n      swap1\n      pop\n        /* \"#utility.yul\":13381:13390   */\n      dup2\n        /* \"#utility.yul\":13375:13379   */\n      dup2\n        /* \"#utility.yul\":13371:13391   */\n      sub\n        /* \"#utility.yul\":13367:13368   */\n      0x00\n        /* \"#utility.yul\":13356:13365   */\n      dup4\n        /* \"#utility.yul\":13352:13369   */\n      add\n        /* \"#utility.yul\":13345:13392   */\n      mstore\n        /* \"#utility.yul\":13409:13540   */\n      tag_492\n        /* \"#utility.yul\":13535:13539   */\n      dup2\n        /* \"#utility.yul\":13409:13540   */\n      tag_333\n      jump\t// in\n    tag_492:\n        /* \"#utility.yul\":13401:13540   */\n      swap1\n      pop\n        /* \"#utility.yul\":13128:13547   */\n      swap2\n      swap1\n      pop\n      jump\t// out\n        /* \"#utility.yul\":13553:13726   */\n    tag_334:\n        /* \"#utility.yul\":13693:13718   */\n      0x4f6e6c7920706c617965722063616e20726566756e642e000000000000000000\n        /* \"#utility.yul\":13689:13690   */\n      0x00\n        /* \"#utility.yul\":13681:13687   */\n      dup3\n        /* \"#utility.yul\":13677:13691   */\n      add\n        /* \"#utility.yul\":13670:13719   */\n      mstore\n        /* \"#utility.yul\":13553:13726   */\n      pop\n      jump\t// out\n        /* \"#utility.yul\":13732:14098   */\n    tag_335:\n        /* \"#utility.yul\":13874:13877   */\n      0x00\n        /* \"#utility.yul\":13895:13962   */\n      tag_495\n        /* \"#utility.yul\":13959:13961   */\n      0x17\n        /* \"#utility.yul\":13954:13957   */\n      dup4\n        /* \"#utility.yul\":13895:13962   */\n      tag_322\n      jump\t// in\n    tag_495:\n        /* \"#utility.yul\":13888:13962   */\n      swap2\n      pop\n        /* \"#utility.yul\":13971:14064   */\n      tag_496\n        /* \"#utility.yul\":14060:14063   */\n      dup3\n        /* \"#utility.yul\":13971:14064   */\n      tag_334\n      jump\t// in\n    tag_496:\n        /* \"#utility.yul\":14089:14091   */\n      0x20\n        /* \"#utility.yul\":14084:14087   */\n      dup3\n        /* \"#utility.yul\":14080:14092   */\n      add\n        /* \"#utility.yul\":14073:14092   */\n      swap1\n      pop\n        /* \"#utility.yul\":13732:14098   */\n      swap2\n      swap1\n      pop\n      jump\t// out\n        /* \"#utility.yul\":14104:14523   */\n    tag_148:\n        /* \"#utility.yul\":14270:14274   */\n      0x00\n        /* \"#utility.yul\":14308:14310   */\n      0x20\n        /* \"#utility.yul\":14297:14306   */\n      dup3\n        /* \"#utility.yul\":14293:14311   */\n      add\n        /* \"#utility.yul\":14285:14311   */\n      swap1\n      pop\n        /* \"#utility.yul\":14357:14366   */\n      dup2\n        /* \"#utility.yul\":14351:14355   */\n      dup2\n        /* \"#utility.yul\":14347:14367   */\n      sub\n        /* \"#utility.yul\":14343:14344   */\n      0x00\n        /* \"#utility.yul\":14332:14341   */\n      dup4\n        /* \"#utility.yul\":14328:14345   */\n      add\n        /* \"#utility.yul\":14321:14368   */\n      mstore\n        /* \"#utility.yul\":14385:14516   */\n      tag_498\n        /* \"#utility.yul\":14511:14515   */\n      dup2\n        /* \"#utility.yul\":14385:14516   */\n      tag_335\n      jump\t// in\n    tag_498:\n        /* \"#utility.yul\":14377:14516   */\n      swap1\n      pop\n        /* \"#utility.yul\":14104:14523   */\n      swap2\n      swap1\n      pop\n      jump\t// out\n        /* \"#utility.yul\":14529:14703   */\n    tag_336:\n        /* \"#utility.yul\":14669:14695   */\n      0x4f6e6c7920706c61796572732063616e20726566756e642e0000000000000000\n        /* \"#utility.yul\":14665:14666   */\n      0x00\n        /* \"#utility.yul\":14657:14663   */\n      dup3\n        /* \"#utility.yul\":14653:14667   */\n      add\n        /* \"#utility.yul\":14646:14696   */\n      mstore\n        /* \"#utility.yul\":14529:14703   */\n      pop\n      jump\t// out\n        /* \"#utility.yul\":14709:15075   */\n    tag_337:\n        /* \"#utility.yul\":14851:14854   */\n      0x00\n        /* \"#utility.yul\":14872:14939   */\n      tag_501\n        /* \"#utility.yul\":14936:14938   */\n      0x18\n        /* \"#utility.yul\":14931:14934   */\n      dup4\n        /* \"#utility.yul\":14872:14939   */\n      tag_322\n      jump\t// in\n    tag_501:\n        /* \"#utility.yul\":14865:14939   */\n      swap2\n      pop\n        /* \"#utility.yul\":14948:15041   */\n      tag_502\n        /* \"#utility.yul\":15037:15040   */\n      dup3\n        /* \"#utility.yul\":14948:15041   */\n      tag_336\n      jump\t// in\n    tag_502:\n        /* \"#utility.yul\":15066:15068   */\n      0x20\n        /* \"#utility.yul\":15061:15064   */\n      dup3\n        /* \"#utility.yul\":15057:15069   */\n      add\n        /* \"#utility.yul\":15050:15069   */\n      swap1\n      pop\n        /* \"#utility.yul\":14709:15075   */\n      swap2\n      swap1\n      pop\n      jump\t// out\n        /* \"#utility.yul\":15081:15500   */\n    tag_162:\n        /* \"#utility.yul\":15247:15251   */\n      0x00\n        /* \"#utility.yul\":15285:15287   */\n      0x20\n        /* \"#utility.yul\":15274:15283   */\n      dup3\n        /* \"#utility.yul\":15270:15288   */\n      add\n        /* \"#utility.yul\":15262:15288   */\n      swap1\n      pop\n        /* \"#utility.yul\":15334:15343   */\n      dup2\n        /* \"#utility.yul\":15328:15332   */\n      dup2\n        /* \"#utility.yul\":15324:15344   */\n      sub\n        /* \"#utility.yul\":15320:15321   */\n      0x00\n        /* \"#utility.yul\":15309:15318   */\n      dup4\n        /* \"#utility.yul\":15305:15322   */\n      add\n        /* \"#utility.yul\":15298:15345   */\n      mstore\n        /* \"#utility.yul\":15362:15493   */\n      tag_504\n        /* \"#utility.yul\":15488:15492   */\n      dup2\n        /* \"#utility.yul\":15362:15493   */\n      tag_337\n      jump\t// in\n    tag_504:\n        /* \"#utility.yul\":15354:15493   */\n      swap1\n      pop\n        /* \"#utility.yul\":15081:15500   */\n      swap2\n      swap1\n      pop\n      jump\t// out\n        /* \"#utility.yul\":15506:15686   */\n    tag_338:\n        /* \"#utility.yul\":15554:15631   */\n      0x4e487b7100000000000000000000000000000000000000000000000000000000\n        /* \"#utility.yul\":15551:15552   */\n      0x00\n        /* \"#utility.yul\":15544:15632   */\n      mstore\n        /* \"#utility.yul\":15651:15655   */\n      0x12\n        /* \"#utility.yul\":15648:15649   */\n      0x04\n        /* \"#utility.yul\":15641:15656   */\n      mstore\n        /* \"#utility.yul\":15675:15679   */\n      0x24\n        /* \"#utility.yul\":15672:15673   */\n      0x00\n        /* \"#utility.yul\":15665:15680   */\n      revert\n        /* \"#utility.yul\":15692:15877   */\n    tag_167:\n        /* \"#utility.yul\":15732:15733   */\n      0x00\n        /* \"#utility.yul\":15749:15769   */\n      tag_507\n        /* \"#utility.yul\":15767:15768   */\n      dup3\n        /* \"#utility.yul\":15749:15769   */\n      tag_290\n      jump\t// in\n    tag_507:\n        /* \"#utility.yul\":15744:15769   */\n      swap2\n      pop\n        /* \"#utility.yul\":15783:15803   */\n      tag_508\n        /* \"#utility.yul\":15801:15802   */\n      dup4\n        /* \"#utility.yul\":15783:15803   */\n      tag_290\n      jump\t// in\n    tag_508:\n        /* \"#utility.yul\":15778:15803   */\n      swap3\n      pop\n        /* \"#utility.yul\":15822:15823   */\n      dup3\n        /* \"#utility.yul\":15812:15847   */\n      tag_509\n      jumpi\n        /* \"#utility.yul\":15827:15845   */\n      tag_510\n      tag_338\n      jump\t// in\n    tag_510:\n        /* \"#utility.yul\":15812:15847   */\n    tag_509:\n        /* \"#utility.yul\":15869:15870   */\n      dup3\n        /* \"#utility.yul\":15866:15867   */\n      dup3\n        /* \"#utility.yul\":15862:15871   */\n      div\n        /* \"#utility.yul\":15857:15871   */\n      swap1\n      pop\n        /* \"#utility.yul\":15692:15877   */\n      swap3\n      swap2\n      pop\n      pop\n      jump\t// out\n        /* \"#utility.yul\":15883:16105   */\n    tag_339:\n        /* \"#utility.yul\":16023:16057   */\n      0x4e6f742072656769737465726564206f7220616c72656164792072657665616c\n        /* \"#utility.yul\":16019:16020   */\n      0x00\n        /* \"#utility.yul\":16011:16017   */\n      dup3\n        /* \"#utility.yul\":16007:16021   */\n      add\n        /* \"#utility.yul\":16000:16058   */\n      mstore\n        /* \"#utility.yul\":16092:16097   */\n      0x65642e0000000000000000000000000000000000000000000000000000000000\n        /* \"#utility.yul\":16087:16089   */\n      0x20\n        /* \"#utility.yul\":16079:16085   */\n      dup3\n        /* \"#utility.yul\":16075:16090   */\n      add\n        /* \"#utility.yul\":16068:16098   */\n      mstore\n        /* \"#utility.yul\":15883:16105   */\n      pop\n      jump\t// out\n        /* \"#utility.yul\":16111:16477   */\n    tag_340:\n        /* \"#utility.yul\":16253:16256   */\n      0x00\n        /* \"#utility.yul\":16274:16341   */\n      tag_513\n        /* \"#utility.yul\":16338:16340   */\n      0x23\n        /* \"#utility.yul\":16333:16336   */\n      dup4\n        /* \"#utility.yul\":16274:16341   */\n      tag_322\n      jump\t// in\n    tag_513:\n        /* \"#utility.yul\":16267:16341   */\n      swap2\n      pop\n        /* \"#utility.yul\":16350:16443   */\n      tag_514\n        /* \"#utility.yul\":16439:16442   */\n      dup3\n        /* \"#utility.yul\":16350:16443   */\n      tag_339\n      jump\t// in\n    tag_514:\n        /* \"#utility.yul\":16468:16470   */\n      0x40\n        /* \"#utility.yul\":16463:16466   */\n      dup3\n        /* \"#utility.yul\":16459:16471   */\n      add\n        /* \"#utility.yul\":16452:16471   */\n      swap1\n      pop\n        /* \"#utility.yul\":16111:16477   */\n      swap2\n      swap1\n      pop\n      jump\t// out\n        /* \"#utility.yul\":16483:16902   */\n    tag_188:\n        /* \"#utility.yul\":16649:16653   */\n      0x00\n        /* \"#utility.yul\":16687:16689   */\n      0x20\n        /* \"#utility.yul\":16676:16685   */\n      dup3\n        /* \"#utility.yul\":16672:16690   */\n      add\n        /* \"#utility.yul\":16664:16690   */\n      swap1\n      pop\n        /* \"#utility.yul\":16736:16745   */\n      dup2\n        /* \"#utility.yul\":16730:16734   */\n      dup2\n        /* \"#utility.yul\":16726:16746   */\n      sub\n        /* \"#utility.yul\":16722:16723   */\n      0x00\n        /* \"#utility.yul\":16711:16720   */\n      dup4\n        /* \"#utility.yul\":16707:16724   */\n      add\n        /* \"#utility.yul\":16700:16747   */\n      mstore\n        /* \"#utility.yul\":16764:16895   */\n      tag_516\n        /* \"#utility.yul\":16890:16894   */\n      dup2\n        /* \"#utility.yul\":16764:16895   */\n      tag_340\n      jump\t// in\n    tag_516:\n        /* \"#utility.yul\":16756:16895   */\n      swap1\n      pop\n        /* \"#utility.yul\":16483:16902   */\n      swap2\n      swap1\n      pop\n      jump\t// out\n        /* \"#utility.yul\":16908:17007   */\n    tag_341:\n        /* \"#utility.yul\":16960:16966   */\n      0x00\n        /* \"#utility.yul\":16994:16999   */\n      dup2\n        /* \"#utility.yul\":16988:17000   */\n      mload\n        /* \"#utility.yul\":16978:17000   */\n      swap1\n      pop\n        /* \"#utility.yul\":16908:17007   */\n      swap2\n      swap1\n      pop\n      jump\t// out\n        /* \"#utility.yul\":17013:17152   */\n    tag_342:\n        /* \"#utility.yul\":17102:17108   */\n      dup3\n        /* \"#utility.yul\":17097:17100   */\n      dup2\n        /* \"#utility.yul\":17092:17095   */\n      dup4\n        /* \"#utility.yul\":17086:17109   */\n      mcopy\n        /* \"#utility.yul\":17143:17144   */\n      0x00\n        /* \"#utility.yul\":17134:17140   */\n      dup4\n        /* \"#utility.yul\":17129:17132   */\n      dup4\n        /* \"#utility.yul\":17125:17141   */\n      add\n        /* \"#utility.yul\":17118:17145   */\n      mstore\n        /* \"#utility.yul\":17013:17152   */\n      pop\n      pop\n      pop\n      jump\t// out\n        /* \"#utility.yul\":17158:17535   */\n    tag_343:\n        /* \"#utility.yul\":17246:17249   */\n      0x00\n        /* \"#utility.yul\":17274:17313   */\n      tag_520\n        /* \"#utility.yul\":17307:17312   */\n      dup3\n        /* \"#utility.yul\":17274:17313   */\n      tag_341\n      jump\t// in\n    tag_520:\n        /* \"#utility.yul\":17329:17400   */\n      tag_521\n        /* \"#utility.yul\":17393:17399   */\n      dup2\n        /* \"#utility.yul\":17388:17391   */\n      dup6\n        /* \"#utility.yul\":17329:17400   */\n      tag_322\n      jump\t// in\n    tag_521:\n        /* \"#utility.yul\":17322:17400   */\n      swap4\n      pop\n        /* \"#utility.yul\":17409:17474   */\n      tag_522\n        /* \"#utility.yul\":17467:17473   */\n      dup2\n        /* \"#utility.yul\":17462:17465   */\n      dup6\n        /* \"#utility.yul\":17455:17459   */\n      0x20\n        /* \"#utility.yul\":17448:17453   */\n      dup7\n        /* \"#utility.yul\":17444:17460   */\n      add\n        /* \"#utility.yul\":17409:17474   */\n      tag_342\n      jump\t// in\n    tag_522:\n        /* \"#utility.yul\":17499:17528   */\n      tag_523\n        /* \"#utility.yul\":17521:17527   */\n      dup2\n        /* \"#utility.yul\":17499:17528   */\n      tag_303\n      jump\t// in\n    tag_523:\n        /* \"#utility.yul\":17494:17497   */\n      dup5\n        /* \"#utility.yul\":17490:17529   */\n      add\n        /* \"#utility.yul\":17483:17529   */\n      swap2\n      pop\n        /* \"#utility.yul\":17250:17535   */\n      pop\n        /* \"#utility.yul\":17158:17535   */\n      swap3\n      swap2\n      pop\n      pop\n      jump\t// out\n        /* \"#utility.yul\":17541:17964   */\n    tag_190:\n        /* \"#utility.yul\":17682:17686   */\n      0x00\n        /* \"#utility.yul\":17720:17722   */\n      0x40\n        /* \"#utility.yul\":17709:17718   */\n      dup3\n        /* \"#utility.yul\":17705:17723   */\n      add\n        /* \"#utility.yul\":17697:17723   */\n      swap1\n      pop\n        /* \"#utility.yul\":17769:17778   */\n      dup2\n        /* \"#utility.yul\":17763:17767   */\n      dup2\n        /* \"#utility.yul\":17759:17779   */\n      sub\n        /* \"#utility.yul\":17755:17756   */\n      0x00\n        /* \"#utility.yul\":17744:17753   */\n      dup4\n        /* \"#utility.yul\":17740:17757   */\n      add\n        /* \"#utility.yul\":17733:17780   */\n      mstore\n        /* \"#utility.yul\":17797:17875   */\n      tag_525\n        /* \"#utility.yul\":17870:17874   */\n      dup2\n        /* \"#utility.yul\":17861:17867   */\n      dup6\n        /* \"#utility.yul\":17797:17875   */\n      tag_343\n      jump\t// in\n    tag_525:\n        /* \"#utility.yul\":17789:17875   */\n      swap1\n      pop\n        /* \"#utility.yul\":17885:17957   */\n      tag_526\n        /* \"#utility.yul\":17953:17955   */\n      0x20\n        /* \"#utility.yul\":17942:17951   */\n      dup4\n        /* \"#utility.yul\":17938:17956   */\n      add\n        /* \"#utility.yul\":17929:17935   */\n      dup5\n        /* \"#utility.yul\":17885:17957   */\n      tag_291\n      jump\t// in\n    tag_526:\n        /* \"#utility.yul\":17541:17964   */\n      swap4\n      swap3\n      pop\n      pop\n      pop\n      jump\t// out\n        /* \"#utility.yul\":17970:18086   */\n    tag_344:\n        /* \"#utility.yul\":18040:18061   */\n      tag_528\n        /* \"#utility.yul\":18055:18060   */\n      dup2\n        /* \"#utility.yul\":18040:18061   */\n      tag_299\n      jump\t// in\n    tag_528:\n        /* \"#utility.yul\":18033:18038   */\n      dup2\n        /* \"#utility.yul\":18030:18062   */\n      eq\n        /* \"#utility.yul\":18020:18080   */\n      tag_529\n      jumpi\n        /* \"#utility.yul\":18076:18077   */\n      0x00\n        /* \"#utility.yul\":18073:18074   */\n      dup1\n        /* \"#utility.yul\":18066:18078   */\n      revert\n        /* \"#utility.yul\":18020:18080   */\n    tag_529:\n        /* \"#utility.yul\":17970:18086   */\n      pop\n      jump\t// out\n        /* \"#utility.yul\":18092:18229   */\n    tag_345:\n        /* \"#utility.yul\":18146:18151   */\n      0x00\n        /* \"#utility.yul\":18177:18183   */\n      dup2\n        /* \"#utility.yul\":18171:18184   */\n      mload\n        /* \"#utility.yul\":18162:18184   */\n      swap1\n      pop\n        /* \"#utility.yul\":18193:18223   */\n      tag_531\n        /* \"#utility.yul\":18217:18222   */\n      dup2\n        /* \"#utility.yul\":18193:18223   */\n      tag_344\n      jump\t// in\n    tag_531:\n        /* \"#utility.yul\":18092:18229   */\n      swap3\n      swap2\n      pop\n      pop\n      jump\t// out\n        /* \"#utility.yul\":18235:18580   */\n    tag_194:\n        /* \"#utility.yul\":18302:18308   */\n      0x00\n        /* \"#utility.yul\":18351:18353   */\n      0x20\n        /* \"#utility.yul\":18339:18348   */\n      dup3\n        /* \"#utility.yul\":18330:18337   */\n      dup5\n        /* \"#utility.yul\":18326:18349   */\n      sub\n        /* \"#utility.yul\":18322:18354   */\n      slt\n        /* \"#utility.yul\":18319:18438   */\n      iszero\n      tag_533\n      jumpi\n        /* \"#utility.yul\":18357:18436   */\n      tag_534\n      tag_293\n      jump\t// in\n    tag_534:\n        /* \"#utility.yul\":18319:18438   */\n    tag_533:\n        /* \"#utility.yul\":18477:18478   */\n      0x00\n        /* \"#utility.yul\":18502:18563   */\n      tag_535\n        /* \"#utility.yul\":18555:18562   */\n      dup5\n        /* \"#utility.yul\":18546:18552   */\n      dup3\n        /* \"#utility.yul\":18535:18544   */\n      dup6\n        /* \"#utility.yul\":18531:18553   */\n      add\n        /* \"#utility.yul\":18502:18563   */\n      tag_345\n      jump\t// in\n    tag_535:\n        /* \"#utility.yul\":18492:18563   */\n      swap2\n      pop\n        /* \"#utility.yul\":18448:18573   */\n      pop\n        /* \"#utility.yul\":18235:18580   */\n      swap3\n      swap2\n      pop\n      pop\n      jump\t// out\n        /* \"#utility.yul\":18586:18751   */\n    tag_346:\n        /* \"#utility.yul\":18726:18743   */\n      0x496e76616c69642072657665616c2e0000000000000000000000000000000000\n        /* \"#utility.yul\":18722:18723   */\n      0x00\n        /* \"#utility.yul\":18714:18720   */\n      dup3\n        /* \"#utility.yul\":18710:18724   */\n      add\n        /* \"#utility.yul\":18703:18744   */\n      mstore\n        /* \"#utility.yul\":18586:18751   */\n      pop\n      jump\t// out\n        /* \"#utility.yul\":18757:19123   */\n    tag_347:\n        /* \"#utility.yul\":18899:18902   */\n      0x00\n        /* \"#utility.yul\":18920:18987   */\n      tag_538\n        /* \"#utility.yul\":18984:18986   */\n      0x0f\n        /* \"#utility.yul\":18979:18982   */\n      dup4\n        /* \"#utility.yul\":18920:18987   */\n      tag_322\n      jump\t// in\n    tag_538:\n        /* \"#utility.yul\":18913:18987   */\n      swap2\n      pop\n        /* \"#utility.yul\":18996:19089   */\n      tag_539\n        /* \"#utility.yul\":19085:19088   */\n      dup3\n        /* \"#utility.yul\":18996:19089   */\n      tag_346\n      jump\t// in\n    tag_539:\n        /* \"#utility.yul\":19114:19116   */\n      0x20\n        /* \"#utility.yul\":19109:19112   */\n      dup3\n        /* \"#utility.yul\":19105:19117   */\n      add\n        /* \"#utility.yul\":19098:19117   */\n      swap1\n      pop\n        /* \"#utility.yul\":18757:19123   */\n      swap2\n      swap1\n      pop\n      jump\t// out\n        /* \"#utility.yul\":19129:19548   */\n    tag_197:\n        /* \"#utility.yul\":19295:19299   */\n      0x00\n        /* \"#utility.yul\":19333:19335   */\n      0x20\n        /* \"#utility.yul\":19322:19331   */\n      dup3\n        /* \"#utility.yul\":19318:19336   */\n      add\n        /* \"#utility.yul\":19310:19336   */\n      swap1\n      pop\n        /* \"#utility.yul\":19382:19391   */\n      dup2\n        /* \"#utility.yul\":19376:19380   */\n      dup2\n        /* \"#utility.yul\":19372:19392   */\n      sub\n        /* \"#utility.yul\":19368:19369   */\n      0x00\n        /* \"#utility.yul\":19357:19366   */\n      dup4\n        /* \"#utility.yul\":19353:19370   */\n      add\n        /* \"#utility.yul\":19346:19393   */\n      mstore\n        /* \"#utility.yul\":19410:19541   */\n      tag_541\n        /* \"#utility.yul\":19536:19540   */\n      dup2\n        /* \"#utility.yul\":19410:19541   */\n      tag_347\n      jump\t// in\n    tag_541:\n        /* \"#utility.yul\":19402:19541   */\n      swap1\n      pop\n        /* \"#utility.yul\":19129:19548   */\n      swap2\n      swap1\n      pop\n      jump\t// out\n        /* \"#utility.yul\":19554:19777   */\n    tag_348:\n        /* \"#utility.yul\":19694:19728   */\n      0x4e6f742072656769737465726564206f7220616c726561647920636f6d6d6974\n        /* \"#utility.yul\":19690:19691   */\n      0x00\n        /* \"#utility.yul\":19682:19688   */\n      dup3\n        /* \"#utility.yul\":19678:19692   */\n      add\n        /* \"#utility.yul\":19671:19729   */\n      mstore\n        /* \"#utility.yul\":19763:19769   */\n      0x7465642e00000000000000000000000000000000000000000000000000000000\n        /* \"#utility.yul\":19758:19760   */\n      0x20\n        /* \"#utility.yul\":19750:19756   */\n      dup3\n        /* \"#utility.yul\":19746:19761   */\n      add\n        /* \"#utility.yul\":19739:19770   */\n      mstore\n        /* \"#utility.yul\":19554:19777   */\n      pop\n      jump\t// out\n        /* \"#utility.yul\":19783:20149   */\n    tag_349:\n        /* \"#utility.yul\":19925:19928   */\n      0x00\n        /* \"#utility.yul\":19946:20013   */\n      tag_544\n        /* \"#utility.yul\":20010:20012   */\n      0x24\n        /* \"#utility.yul\":20005:20008   */\n      dup4\n        /* \"#utility.yul\":19946:20013   */\n      tag_322\n      jump\t// in\n    tag_544:\n        /* \"#utility.yul\":19939:20013   */\n      swap2\n      pop\n        /* \"#utility.yul\":20022:20115   */\n      tag_545\n        /* \"#utility.yul\":20111:20114   */\n      dup3\n        /* \"#utility.yul\":20022:20115   */\n      tag_348\n      jump\t// in\n    tag_545:\n        /* \"#utility.yul\":20140:20142   */\n      0x40\n        /* \"#utility.yul\":20135:20138   */\n      dup3\n        /* \"#utility.yul\":20131:20143   */\n      add\n        /* \"#utility.yul\":20124:20143   */\n      swap1\n      pop\n        /* \"#utility.yul\":19783:20149   */\n      swap2\n      swap1\n      pop\n      jump\t// out\n        /* \"#utility.yul\":20155:20574   */\n    tag_218:\n        /* \"#utility.yul\":20321:20325   */\n      0x00\n        /* \"#utility.yul\":20359:20361   */\n      0x20\n        /* \"#utility.yul\":20348:20357   */\n      dup3\n        /* \"#utility.yul\":20344:20362   */\n      add\n        /* \"#utility.yul\":20336:20362   */\n      swap1\n      pop\n        /* \"#utility.yul\":20408:20417   */\n      dup2\n        /* \"#utility.yul\":20402:20406   */\n      dup2\n        /* \"#utility.yul\":20398:20418   */\n      sub\n        /* \"#utility.yul\":20394:20395   */\n      0x00\n        /* \"#utility.yul\":20383:20392   */\n      dup4\n        /* \"#utility.yul\":20379:20396   */\n      add\n        /* \"#utility.yul\":20372:20419   */\n      mstore\n        /* \"#utility.yul\":20436:20567   */\n      tag_547\n        /* \"#utility.yul\":20562:20566   */\n      dup2\n        /* \"#utility.yul\":20436:20567   */\n      tag_349\n      jump\t// in\n    tag_547:\n        /* \"#utility.yul\":20428:20567   */\n      swap1\n      pop\n        /* \"#utility.yul\":20155:20574   */\n      swap2\n      swap1\n      pop\n      jump\t// out\n        /* \"#utility.yul\":20580:20698   */\n    tag_350:\n        /* \"#utility.yul\":20667:20691   */\n      tag_549\n        /* \"#utility.yul\":20685:20690   */\n      dup2\n        /* \"#utility.yul\":20667:20691   */\n      tag_318\n      jump\t// in\n    tag_549:\n        /* \"#utility.yul\":20662:20665   */\n      dup3\n        /* \"#utility.yul\":20655:20692   */\n      mstore\n        /* \"#utility.yul\":20580:20698   */\n      pop\n      pop\n      jump\t// out\n        /* \"#utility.yul\":20704:20926   */\n    tag_220:\n        /* \"#utility.yul\":20797:20801   */\n      0x00\n        /* \"#utility.yul\":20835:20837   */\n      0x20\n        /* \"#utility.yul\":20824:20833   */\n      dup3\n        /* \"#utility.yul\":20820:20838   */\n      add\n        /* \"#utility.yul\":20812:20838   */\n      swap1\n      pop\n        /* \"#utility.yul\":20848:20919   */\n      tag_551\n        /* \"#utility.yul\":20916:20917   */\n      0x00\n        /* \"#utility.yul\":20905:20914   */\n      dup4\n        /* \"#utility.yul\":20901:20918   */\n      add\n        /* \"#utility.yul\":20892:20898   */\n      dup5\n        /* \"#utility.yul\":20848:20919   */\n      tag_350\n      jump\t// in\n    tag_551:\n        /* \"#utility.yul\":20704:20926   */\n      swap3\n      swap2\n      pop\n      pop\n      jump\t// out\n\n    auxdata: 0xa2646970667358221220853f90522dc1f02eaadaf230861f41f351a69ff340451813926f745f7cdc842c64736f6c634300081a0033\n}\n",
				"bytecode": {
					"linkReferences": {},
					"object": "6080604052425f555f6002555f6003555f6007556040518060800160405280735b38da6a701c568545dcfcb03fcb875f56beddc473ffffffffffffffffffffffffffffffffffffffff1673ffffffffffffffffffffffffffffffffffffffff16815260200173ab8483f64d9c6d1ecf9b849ae677dd3315835cb273ffffffffffffffffffffffffffffffffffffffff1673ffffffffffffffffffffffffffffffffffffffff168152602001734b20993bc481177ec7e8f571cecae8a9e22c02db73ffffffffffffffffffffffffffffffffffffffff1673ffffffffffffffffffffffffffffffffffffffff1681526020017378731d3ca6b7e34ac0f824c42a7cc18a495cabab73ffffffffffffffffffffffffffffffffffffffff1673ffffffffffffffffffffffffffffffffffffffff1681525060089060046101449291906101b8565b50348015610150575f80fd5b50604051612382380380612382833981810160405281019061017291906102b8565b8060015f6101000a81548173ffffffffffffffffffffffffffffffffffffffff021916908373ffffffffffffffffffffffffffffffffffffffff160217905550506102e3565b828054828255905f5260205f2090810192821561022e579160200282015b8281111561022d578251825f6101000a81548173ffffffffffffffffffffffffffffffffffffffff021916908373ffffffffffffffffffffffffffffffffffffffff160217905550916020019190600101906101d6565b5b50905061023b919061023f565b5090565b5b80821115610256575f815f905550600101610240565b5090565b5f80fd5b5f73ffffffffffffffffffffffffffffffffffffffff82169050919050565b5f6102878261025e565b9050919050565b6102978161027d565b81146102a1575f80fd5b50565b5f815190506102b28161028e565b92915050565b5f602082840312156102cd576102cc61025a565b5b5f6102da848285016102a4565b91505092915050565b612092806102f05f395ff3fe6080604052600436106100e7575f3560e01c80637bab61bc11610089578063a040478d11610058578063a040478d14610295578063bc06b8cd146102d1578063f14fcbc8146102fb578063f71d96cb14610323576100e7565b80637bab61bc146101ed5780637df9aefb146102175780637e2eee531461024157806390d5d0c31461026b576100e7565b806327b5db8a116100c557806327b5db8a1461017b57806332c2695714610185578063590e1ae3146101af578063708b4730146101c5576100e7565b8063086f7815146100eb578063190cf74514610115578063228cb73314610151575b5f80fd5b3480156100f6575f80fd5b506100ff61035f565b60405161010c91906115ca565b60405180910390f35b348015610120575f80fd5b5061013b6004803603810190610136919061164e565b610365565b6040516101489190611693565b60405180910390f35b34801561015c575f80fd5b50610165610382565b60405161017291906115ca565b60405180910390f35b610183610388565b005b348015610190575f80fd5b50610199610657565b6040516101a69190611693565b60405180910390f35b3480156101ba575f80fd5b506101c361066d565b005b3480156101d0575f80fd5b506101eb60048036038101906101e69190611812565b610b1e565b005b3480156101f8575f80fd5b50610201610e24565b60405161020e91906115ca565b60405180910390f35b348015610222575f80fd5b5061022b610e29565b60405161023891906118c7565b60405180910390f35b34801561024c575f80fd5b50610255610e4e565b60405161026291906115ca565b60405180910390f35b348015610276575f80fd5b5061027f610e53565b60405161028c91906115ca565b60405180910390f35b3480156102a0575f80fd5b506102bb60048036038101906102b6919061164e565b610e59565b6040516102c891906115ca565b60405180910390f35b3480156102dc575f80fd5b506102e5610e6e565b6040516102f291906115ca565b60405180910390f35b348015610306575f80fd5b50610321600480360381019061031c9190611913565b610e81565b005b34801561032e575f80fd5b506103496004803603810190610344919061193e565b61106a565b6040516103569190611978565b60405180910390f35b60075481565b6005602052805f5260405f205f915054906101000a900460ff1681565b60035481565b5f805b60088054905081101561041c57600881815481106103ac576103ab611991565b5b905f5260205f20015f9054906101000a900473ffffffffffffffffffffffffffffffffffffffff1673ffffffffffffffffffffffffffffffffffffffff163373ffffffffffffffffffffffffffffffffffffffff160361040f576001915061041c565b808060010191505061038b565b508061045d576040517f08c379a000000000000000000000000000000000000000000000000000000000815260040161045490611a18565b60405180910390fd5b60028054106104a1576040517f08c379a000000000000000000000000000000000000000000000000000000000815260040161049890611a80565b60405180910390fd5b670de0b6b3a764000034146104eb576040517f08c379a00000000000000000000000000000000000000000000000000000000081526004016104e290611ae8565b60405180910390fd5b5f60025411156105685760065f8154811061050957610508611991565b5b905f5260205f20015f9054906101000a900473ffffffffffffffffffffffffffffffffffffffff1673ffffffffffffffffffffffffffffffffffffffff163373ffffffffffffffffffffffffffffffffffffffff1603610567575f80fd5b5b3460035f8282546105799190611b33565b92505081905550600160055f3373ffffffffffffffffffffffffffffffffffffffff1673ffffffffffffffffffffffffffffffffffffffff1681526020019081526020015f205f6101000a81548160ff021916908315150217905550600633908060018154018082558091505060019003905f5260205f20015f9091909190916101000a81548173ffffffffffffffffffffffffffffffffffffffff021916908373ffffffffffffffffffffffffffffffffffffffff16021790555060025f81548092919061064790611b66565b91905055506106546110a5565b50565b5f603c5f54426106679190611bad565b11905090565b5f805b600880549050811015610701576008818154811061069157610690611991565b5b905f5260205f20015f9054906101000a900473ffffffffffffffffffffffffffffffffffffffff1673ffffffffffffffffffffffffffffffffffffffff163373ffffffffffffffffffffffffffffffffffffffff16036106f45760019150610701565b8080600101915050610670565b5080610742576040517f08c379a000000000000000000000000000000000000000000000000000000000815260040161073990611a18565b60405180910390fd5b5f60025411610786576040517f08c379a000000000000000000000000000000000000000000000000000000000815260040161077d90611c2a565b60405180910390fd5b5f600354116107ca576040517f08c379a00000000000000000000000000000000000000000000000000000000081526004016107c190611c92565b60405180910390fd5b5f60065f815481106107df576107de611991565b5b905f5260205f20015f9054906101000a900473ffffffffffffffffffffffffffffffffffffffff1690506001600254036109075760065f8154811061082757610826611991565b5b905f5260205f20015f9054906101000a900473ffffffffffffffffffffffffffffffffffffffff1673ffffffffffffffffffffffffffffffffffffffff163373ffffffffffffffffffffffffffffffffffffffff16146108bc576040517f08c379a00000000000000000000000000000000000000000000000000000000081526004016108b390611cfa565b60405180910390fd5b8073ffffffffffffffffffffffffffffffffffffffff166108fc60035490811502906040515f60405180830381858888f19350505050158015610901573d5f803e3d5ffd5b50610b12565b6002805403610b115760065f8154811061092457610923611991565b5b905f5260205f20015f9054906101000a900473ffffffffffffffffffffffffffffffffffffffff1673ffffffffffffffffffffffffffffffffffffffff163373ffffffffffffffffffffffffffffffffffffffff1614806109ec5750600660018154811061099557610994611991565b5b905f5260205f20015f9054906101000a900473ffffffffffffffffffffffffffffffffffffffff1673ffffffffffffffffffffffffffffffffffffffff163373ffffffffffffffffffffffffffffffffffffffff16145b610a2b576040517f08c379a0000000000000000000000000000000000000000000000000000000008152600401610a2290611d62565b60405180910390fd5b5f6006600181548110610a4157610a40611991565b5b905f5260205f20015f9054906101000a900473ffffffffffffffffffffffffffffffffffffffff1690508173ffffffffffffffffffffffffffffffffffffffff166108fc6002600354610a949190611dad565b90811502906040515f60405180830381858888f19350505050158015610abc573d5f803e3d5ffd5b508073ffffffffffffffffffffffffffffffffffffffff166108fc6002600354610ae69190611dad565b90811502906040515f60405180830381858888f19350505050158015610b0e573d5f803e3d5ffd5b50505b5b610b1a6110ad565b5050565b5f805b600880549050811015610bb25760088181548110610b4257610b41611991565b5b905f5260205f20015f9054906101000a900473ffffffffffffffffffffffffffffffffffffffff1673ffffffffffffffffffffffffffffffffffffffff163373ffffffffffffffffffffffffffffffffffffffff1603610ba55760019150610bb2565b8080600101915050610b21565b5080610bf3576040517f08c379a0000000000000000000000000000000000000000000000000000000008152600401610bea90611a18565b60405180910390fd5b60055f3373ffffffffffffffffffffffffffffffffffffffff1673ffffffffffffffffffffffffffffffffffffffff1681526020019081526020015f205f9054906101000a900460ff16610c7c576040517f08c379a0000000000000000000000000000000000000000000000000000000008152600401610c7390611e4d565b60405180910390fd5b60015f9054906101000a900473ffffffffffffffffffffffffffffffffffffffff1673ffffffffffffffffffffffffffffffffffffffff1663708b473084846040518363ffffffff1660e01b8152600401610cd8929190611ebb565b6020604051808303815f875af1158015610cf4573d5f803e3d5ffd5b505050506040513d601f19601f82011682018060405250810190610d189190611f13565b610d57576040517f08c379a0000000000000000000000000000000000000000000000000000000008152600401610d4e90611f88565b60405180910390fd5b8160045f3373ffffffffffffffffffffffffffffffffffffffff1673ffffffffffffffffffffffffffffffffffffffff1681526020019081526020015f20819055505f60055f3373ffffffffffffffffffffffffffffffffffffffff1673ffffffffffffffffffffffffffffffffffffffff1681526020019081526020015f205f6101000a81548160ff02191690831515021790555060075f815480929190610dff90611b66565b9190505550600260075403610e1757610e166111f8565b5b610e1f6110a5565b505050565b5f5481565b60015f9054906101000a900473ffffffffffffffffffffffffffffffffffffffff1681565b603c81565b60025481565b6004602052805f5260405f205f915090505481565b5f805442610e7c9190611bad565b905090565b5f805b600880549050811015610f155760088181548110610ea557610ea4611991565b5b905f5260205f20015f9054906101000a900473ffffffffffffffffffffffffffffffffffffffff1673ffffffffffffffffffffffffffffffffffffffff163373ffffffffffffffffffffffffffffffffffffffff1603610f085760019150610f15565b8080600101915050610e84565b5080610f56576040517f08c379a0000000000000000000000000000000000000000000000000000000008152600401610f4d90611a18565b60405180910390fd5b60055f3373ffffffffffffffffffffffffffffffffffffffff1673ffffffffffffffffffffffffffffffffffffffff1681526020019081526020015f205f9054906101000a900460ff16610fdf576040517f08c379a0000000000000000000000000000000000000000000000000000000008152600401610fd690612016565b60405180910390fd5b60015f9054906101000a900473ffffffffffffffffffffffffffffffffffffffff1673ffffffffffffffffffffffffffffffffffffffff1663f14fcbc8836040518263ffffffff1660e01b81526004016110399190612043565b5f604051808303815f87803b158015611050575f80fd5b505af1158015611062573d5f803e3d5ffd5b505050505050565b60068181548110611079575f80fd5b905f5260205f20015f915054906101000a900473ffffffffffffffffffffffffffffffffffffffff1681565b425f81905550565b5f6002819055505f6007819055505f6003819055505f5b6006805490508110156111e05760045f600683815481106110e8576110e7611991565b5b905f5260205f20015f9054906101000a900473ffffffffffffffffffffffffffffffffffffffff1673ffffffffffffffffffffffffffffffffffffffff1673ffffffffffffffffffffffffffffffffffffffff1681526020019081526020015f205f905560055f6006838154811061116357611162611991565b5b905f5260205f20015f9054906101000a900473ffffffffffffffffffffffffffffffffffffffff1673ffffffffffffffffffffffffffffffffffffffff1673ffffffffffffffffffffffffffffffffffffffff1681526020019081526020015f205f6101000a81549060ff021916905580806001019150506110c4565b5060065f6111ee9190611579565b6111f66110a5565b565b5f60045f60065f815481106112105761120f611991565b5b905f5260205f20015f9054906101000a900473ffffffffffffffffffffffffffffffffffffffff1673ffffffffffffffffffffffffffffffffffffffff1673ffffffffffffffffffffffffffffffffffffffff1681526020019081526020015f205490505f60045f600660018154811061128d5761128c611991565b5b905f5260205f20015f9054906101000a900473ffffffffffffffffffffffffffffffffffffffff1673ffffffffffffffffffffffffffffffffffffffff1673ffffffffffffffffffffffffffffffffffffffff1681526020019081526020015f205490505f60065f8154811061130657611305611991565b5b905f5260205f20015f9054906101000a900473ffffffffffffffffffffffffffffffffffffffff1690505f600660018154811061134657611345611991565b5b905f5260205f20015f9054906101000a900473ffffffffffffffffffffffffffffffffffffffff16905061137a84846114d0565b156113ca578173ffffffffffffffffffffffffffffffffffffffff166108fc60035490811502906040515f60405180830381858888f193505050501580156113c4573d5f803e3d5ffd5b506114ca565b6113d483856114d0565b15611424578073ffffffffffffffffffffffffffffffffffffffff166108fc60035490811502906040515f60405180830381858888f1935050505015801561141e573d5f803e3d5ffd5b506114c9565b8173ffffffffffffffffffffffffffffffffffffffff166108fc600260035461144d9190611dad565b90811502906040515f60405180830381858888f19350505050158015611475573d5f803e3d5ffd5b508073ffffffffffffffffffffffffffffffffffffffff166108fc600260035461149f9190611dad565b90811502906040515f60405180830381858888f193505050501580156114c7573d5f803e3d5ffd5b505b5b50505050565b5f80831480156114eb575060028214806114ea5750600382145b5b8061150c575060018314801561150b57505f82148061150a5750600482145b5b5b8061152e575060028314801561152d5750600182148061152c5750600382145b5b5b80611550575060038314801561154f5750600182148061154e5750600482145b5b5b80611571575060048314801561157057505f82148061156f5750600282145b5b5b905092915050565b5080545f8255905f5260205f20908101906115949190611597565b50565b5b808211156115ae575f815f905550600101611598565b5090565b5f819050919050565b6115c4816115b2565b82525050565b5f6020820190506115dd5f8301846115bb565b92915050565b5f604051905090565b5f80fd5b5f80fd5b5f73ffffffffffffffffffffffffffffffffffffffff82169050919050565b5f61161d826115f4565b9050919050565b61162d81611613565b8114611637575f80fd5b50565b5f8135905061164881611624565b92915050565b5f60208284031215611663576116626115ec565b5b5f6116708482850161163a565b91505092915050565b5f8115159050919050565b61168d81611679565b82525050565b5f6020820190506116a65f830184611684565b92915050565b5f80fd5b5f80fd5b5f601f19601f8301169050919050565b7f4e487b71000000000000000000000000000000000000000000000000000000005f52604160045260245ffd5b6116fa826116b4565b810181811067ffffffffffffffff82111715611719576117186116c4565b5b80604052505050565b5f61172b6115e3565b905061173782826116f1565b919050565b5f67ffffffffffffffff821115611756576117556116c4565b5b61175f826116b4565b9050602081019050919050565b828183375f83830152505050565b5f61178c6117878461173c565b611722565b9050828152602081018484840111156117a8576117a76116b0565b5b6117b384828561176c565b509392505050565b5f82601f8301126117cf576117ce6116ac565b5b81356117df84826020860161177a565b91505092915050565b6117f1816115b2565b81146117fb575f80fd5b50565b5f8135905061180c816117e8565b92915050565b5f8060408385031215611828576118276115ec565b5b5f83013567ffffffffffffffff811115611845576118446115f0565b5b611851858286016117bb565b9250506020611862858286016117fe565b9150509250929050565b5f819050919050565b5f61188f61188a611885846115f4565b61186c565b6115f4565b9050919050565b5f6118a082611875565b9050919050565b5f6118b182611896565b9050919050565b6118c1816118a7565b82525050565b5f6020820190506118da5f8301846118b8565b92915050565b5f819050919050565b6118f2816118e0565b81146118fc575f80fd5b50565b5f8135905061190d816118e9565b92915050565b5f60208284031215611928576119276115ec565b5b5f611935848285016118ff565b91505092915050565b5f60208284031215611953576119526115ec565b5b5f611960848285016117fe565b91505092915050565b61197281611613565b82525050565b5f60208201905061198b5f830184611969565b92915050565b7f4e487b71000000000000000000000000000000000000000000000000000000005f52603260045260245ffd5b5f82825260208201905092915050565b7f4e6f7420616e20616c6c6f776564206163636f756e742e0000000000000000005f82015250565b5f611a026017836119be565b9150611a0d826119ce565b602082019050919050565b5f6020820190508181035f830152611a2f816119f6565b9050919050565b7f416c7265616479203220706c61796572732e00000000000000000000000000005f82015250565b5f611a6a6012836119be565b9150611a7582611a36565b602082019050919050565b5f6020820190508181035f830152611a9781611a5e565b9050919050565b7f4d7573742073656e642031204554482e000000000000000000000000000000005f82015250565b5f611ad26010836119be565b9150611add82611a9e565b602082019050919050565b5f6020820190508181035f830152611aff81611ac6565b9050919050565b7f4e487b71000000000000000000000000000000000000000000000000000000005f52601160045260245ffd5b5f611b3d826115b2565b9150611b48836115b2565b9250828201905080821115611b6057611b5f611b06565b5b92915050565b5f611b70826115b2565b91507fffffffffffffffffffffffffffffffffffffffffffffffffffffffffffffffff8203611ba257611ba1611b06565b5b600182019050919050565b5f611bb7826115b2565b9150611bc2836115b2565b9250828203905081811115611bda57611bd9611b06565b5b92915050565b7f4e6f206163746976652067616d652e00000000000000000000000000000000005f82015250565b5f611c14600f836119be565b9150611c1f82611be0565b602082019050919050565b5f6020820190508181035f830152611c4181611c08565b9050919050565b7f4e6f2072657761726420617661696c61626c652e0000000000000000000000005f82015250565b5f611c7c6014836119be565b9150611c8782611c48565b602082019050919050565b5f6020820190508181035f830152611ca981611c70565b9050919050565b7f4f6e6c7920706c617965722063616e20726566756e642e0000000000000000005f82015250565b5f611ce46017836119be565b9150611cef82611cb0565b602082019050919050565b5f6020820190508181035f830152611d1181611cd8565b9050919050565b7f4f6e6c7920706c61796572732063616e20726566756e642e00000000000000005f82015250565b5f611d4c6018836119be565b9150611d5782611d18565b602082019050919050565b5f6020820190508181035f830152611d7981611d40565b9050919050565b7f4e487b71000000000000000000000000000000000000000000000000000000005f52601260045260245ffd5b5f611db7826115b2565b9150611dc2836115b2565b925082611dd257611dd1611d80565b5b828204905092915050565b7f4e6f742072656769737465726564206f7220616c72656164792072657665616c5f8201527f65642e0000000000000000000000000000000000000000000000000000000000602082015250565b5f611e376023836119be565b9150611e4282611ddd565b604082019050919050565b5f6020820190508181035f830152611e6481611e2b565b9050919050565b5f81519050919050565b8281835e5f83830152505050565b5f611e8d82611e6b565b611e9781856119be565b9350611ea7818560208601611e75565b611eb0816116b4565b840191505092915050565b5f6040820190508181035f830152611ed38185611e83565b9050611ee260208301846115bb565b9392505050565b611ef281611679565b8114611efc575f80fd5b50565b5f81519050611f0d81611ee9565b92915050565b5f60208284031215611f2857611f276115ec565b5b5f611f3584828501611eff565b91505092915050565b7f496e76616c69642072657665616c2e00000000000000000000000000000000005f82015250565b5f611f72600f836119be565b9150611f7d82611f3e565b602082019050919050565b5f6020820190508181035f830152611f9f81611f66565b9050919050565b7f4e6f742072656769737465726564206f7220616c726561647920636f6d6d69745f8201527f7465642e00000000000000000000000000000000000000000000000000000000602082015250565b5f6120006024836119be565b915061200b82611fa6565b604082019050919050565b5f6020820190508181035f83015261202d81611ff4565b9050919050565b61203d816118e0565b82525050565b5f6020820190506120565f830184612034565b9291505056fea2646970667358221220853f90522dc1f02eaadaf230861f41f351a69ff340451813926f745f7cdc842c64736f6c634300081a0033",
					"opcodes": "PUSH1 0x80 PUSH1 0x40 MSTORE TIMESTAMP PUSH0 SSTORE PUSH0 PUSH1 0x2 SSTORE PUSH0 PUSH1 0x3 SSTORE PUSH0 PUSH1 0x7 SSTORE PUSH1 0x40 MLOAD DUP1 PUSH1 0x80 ADD PUSH1 0x40 MSTORE DUP1 PUSH20 0x5B38DA6A701C568545DCFCB03FCB875F56BEDDC4 PUSH20 0xFFFFFFFFFFFFFFFFFFFFFFFFFFFFFFFFFFFFFFFF AND PUSH20 0xFFFFFFFFFFFFFFFFFFFFFFFFFFFFFFFFFFFFFFFF AND DUP2 MSTORE PUSH1 0x20 ADD PUSH20 0xAB8483F64D9C6D1ECF9B849AE677DD3315835CB2 PUSH20 0xFFFFFFFFFFFFFFFFFFFFFFFFFFFFFFFFFFFFFFFF AND PUSH20 0xFFFFFFFFFFFFFFFFFFFFFFFFFFFFFFFFFFFFFFFF AND DUP2 MSTORE PUSH1 0x20 ADD PUSH20 0x4B20993BC481177EC7E8F571CECAE8A9E22C02DB PUSH20 0xFFFFFFFFFFFFFFFFFFFFFFFFFFFFFFFFFFFFFFFF AND PUSH20 0xFFFFFFFFFFFFFFFFFFFFFFFFFFFFFFFFFFFFFFFF AND DUP2 MSTORE PUSH1 0x20 ADD PUSH20 0x78731D3CA6B7E34AC0F824C42A7CC18A495CABAB PUSH20 0xFFFFFFFFFFFFFFFFFFFFFFFFFFFFFFFFFFFFFFFF AND PUSH20 0xFFFFFFFFFFFFFFFFFFFFFFFFFFFFFFFFFFFFFFFF AND DUP2 MSTORE POP PUSH1 0x8 SWAP1 PUSH1 0x4 PUSH2 0x144 SWAP3 SWAP2 SWAP1 PUSH2 0x1B8 JUMP JUMPDEST POP CALLVALUE DUP1 ISZERO PUSH2 0x150 JUMPI PUSH0 DUP1 REVERT JUMPDEST POP PUSH1 0x40 MLOAD PUSH2 0x2382 CODESIZE SUB DUP1 PUSH2 0x2382 DUP4 CODECOPY DUP2 DUP2 ADD PUSH1 0x40 MSTORE DUP2 ADD SWAP1 PUSH2 0x172 SWAP2 SWAP1 PUSH2 0x2B8 JUMP JUMPDEST DUP1 PUSH1 0x1 PUSH0 PUSH2 0x100 EXP DUP2 SLOAD DUP2 PUSH20 0xFFFFFFFFFFFFFFFFFFFFFFFFFFFFFFFFFFFFFFFF MUL NOT AND SWAP1 DUP4 PUSH20 0xFFFFFFFFFFFFFFFFFFFFFFFFFFFFFFFFFFFFFFFF AND MUL OR SWAP1 SSTORE POP POP PUSH2 0x2E3 JUMP JUMPDEST DUP3 DUP1 SLOAD DUP3 DUP3 SSTORE SWAP1 PUSH0 MSTORE PUSH1 0x20 PUSH0 KECCAK256 SWAP1 DUP2 ADD SWAP3 DUP3 ISZERO PUSH2 0x22E JUMPI SWAP2 PUSH1 0x20 MUL DUP3 ADD JUMPDEST DUP3 DUP2 GT ISZERO PUSH2 0x22D JUMPI DUP3 MLOAD DUP3 PUSH0 PUSH2 0x100 EXP DUP2 SLOAD DUP2 PUSH20 0xFFFFFFFFFFFFFFFFFFFFFFFFFFFFFFFFFFFFFFFF MUL NOT AND SWAP1 DUP4 PUSH20 0xFFFFFFFFFFFFFFFFFFFFFFFFFFFFFFFFFFFFFFFF AND MUL OR SWAP1 SSTORE POP SWAP2 PUSH1 0x20 ADD SWAP2 SWAP1 PUSH1 0x1 ADD SWAP1 PUSH2 0x1D6 JUMP JUMPDEST JUMPDEST POP SWAP1 POP PUSH2 0x23B SWAP2 SWAP1 PUSH2 0x23F JUMP JUMPDEST POP SWAP1 JUMP JUMPDEST JUMPDEST DUP1 DUP3 GT ISZERO PUSH2 0x256 JUMPI PUSH0 DUP2 PUSH0 SWAP1 SSTORE POP PUSH1 0x1 ADD PUSH2 0x240 JUMP JUMPDEST POP SWAP1 JUMP JUMPDEST PUSH0 DUP1 REVERT JUMPDEST PUSH0 PUSH20 0xFFFFFFFFFFFFFFFFFFFFFFFFFFFFFFFFFFFFFFFF DUP3 AND SWAP1 POP SWAP2 SWAP1 POP JUMP JUMPDEST PUSH0 PUSH2 0x287 DUP3 PUSH2 0x25E JUMP JUMPDEST SWAP1 POP SWAP2 SWAP1 POP JUMP JUMPDEST PUSH2 0x297 DUP2 PUSH2 0x27D JUMP JUMPDEST DUP2 EQ PUSH2 0x2A1 JUMPI PUSH0 DUP1 REVERT JUMPDEST POP JUMP JUMPDEST PUSH0 DUP2 MLOAD SWAP1 POP PUSH2 0x2B2 DUP2 PUSH2 0x28E JUMP JUMPDEST SWAP3 SWAP2 POP POP JUMP JUMPDEST PUSH0 PUSH1 0x20 DUP3 DUP5 SUB SLT ISZERO PUSH2 0x2CD JUMPI PUSH2 0x2CC PUSH2 0x25A JUMP JUMPDEST JUMPDEST PUSH0 PUSH2 0x2DA DUP5 DUP3 DUP6 ADD PUSH2 0x2A4 JUMP JUMPDEST SWAP2 POP POP SWAP3 SWAP2 POP POP JUMP JUMPDEST PUSH2 0x2092 DUP1 PUSH2 0x2F0 PUSH0 CODECOPY PUSH0 RETURN INVALID PUSH1 0x80 PUSH1 0x40 MSTORE PUSH1 0x4 CALLDATASIZE LT PUSH2 0xE7 JUMPI PUSH0 CALLDATALOAD PUSH1 0xE0 SHR DUP1 PUSH4 0x7BAB61BC GT PUSH2 0x89 JUMPI DUP1 PUSH4 0xA040478D GT PUSH2 0x58 JUMPI DUP1 PUSH4 0xA040478D EQ PUSH2 0x295 JUMPI DUP1 PUSH4 0xBC06B8CD EQ PUSH2 0x2D1 JUMPI DUP1 PUSH4 0xF14FCBC8 EQ PUSH2 0x2FB JUMPI DUP1 PUSH4 0xF71D96CB EQ PUSH2 0x323 JUMPI PUSH2 0xE7 JUMP JUMPDEST DUP1 PUSH4 0x7BAB61BC EQ PUSH2 0x1ED JUMPI DUP1 PUSH4 0x7DF9AEFB EQ PUSH2 0x217 JUMPI DUP1 PUSH4 0x7E2EEE53 EQ PUSH2 0x241 JUMPI DUP1 PUSH4 0x90D5D0C3 EQ PUSH2 0x26B JUMPI PUSH2 0xE7 JUMP JUMPDEST DUP1 PUSH4 0x27B5DB8A GT PUSH2 0xC5 JUMPI DUP1 PUSH4 0x27B5DB8A EQ PUSH2 0x17B JUMPI DUP1 PUSH4 0x32C26957 EQ PUSH2 0x185 JUMPI DUP1 PUSH4 0x590E1AE3 EQ PUSH2 0x1AF JUMPI DUP1 PUSH4 0x708B4730 EQ PUSH2 0x1C5 JUMPI PUSH2 0xE7 JUMP JUMPDEST DUP1 PUSH4 0x86F7815 EQ PUSH2 0xEB JUMPI DUP1 PUSH4 0x190CF745 EQ PUSH2 0x115 JUMPI DUP1 PUSH4 0x228CB733 EQ PUSH2 0x151 JUMPI JUMPDEST PUSH0 DUP1 REVERT JUMPDEST CALLVALUE DUP1 ISZERO PUSH2 0xF6 JUMPI PUSH0 DUP1 REVERT JUMPDEST POP PUSH2 0xFF PUSH2 0x35F JUMP JUMPDEST PUSH1 0x40 MLOAD PUSH2 0x10C SWAP2 SWAP1 PUSH2 0x15CA JUMP JUMPDEST PUSH1 0x40 MLOAD DUP1 SWAP2 SUB SWAP1 RETURN JUMPDEST CALLVALUE DUP1 ISZERO PUSH2 0x120 JUMPI PUSH0 DUP1 REVERT JUMPDEST POP PUSH2 0x13B PUSH1 0x4 DUP1 CALLDATASIZE SUB DUP2 ADD SWAP1 PUSH2 0x136 SWAP2 SWAP1 PUSH2 0x164E JUMP JUMPDEST PUSH2 0x365 JUMP JUMPDEST PUSH1 0x40 MLOAD PUSH2 0x148 SWAP2 SWAP1 PUSH2 0x1693 JUMP JUMPDEST PUSH1 0x40 MLOAD DUP1 SWAP2 SUB SWAP1 RETURN JUMPDEST CALLVALUE DUP1 ISZERO PUSH2 0x15C JUMPI PUSH0 DUP1 REVERT JUMPDEST POP PUSH2 0x165 PUSH2 0x382 JUMP JUMPDEST PUSH1 0x40 MLOAD PUSH2 0x172 SWAP2 SWAP1 PUSH2 0x15CA JUMP JUMPDEST PUSH1 0x40 MLOAD DUP1 SWAP2 SUB SWAP1 RETURN JUMPDEST PUSH2 0x183 PUSH2 0x388 JUMP JUMPDEST STOP JUMPDEST CALLVALUE DUP1 ISZERO PUSH2 0x190 JUMPI PUSH0 DUP1 REVERT JUMPDEST POP PUSH2 0x199 PUSH2 0x657 JUMP JUMPDEST PUSH1 0x40 MLOAD PUSH2 0x1A6 SWAP2 SWAP1 PUSH2 0x1693 JUMP JUMPDEST PUSH1 0x40 MLOAD DUP1 SWAP2 SUB SWAP1 RETURN JUMPDEST CALLVALUE DUP1 ISZERO PUSH2 0x1BA JUMPI PUSH0 DUP1 REVERT JUMPDEST POP PUSH2 0x1C3 PUSH2 0x66D JUMP JUMPDEST STOP JUMPDEST CALLVALUE DUP1 ISZERO PUSH2 0x1D0 JUMPI PUSH0 DUP1 REVERT JUMPDEST POP PUSH2 0x1EB PUSH1 0x4 DUP1 CALLDATASIZE SUB DUP2 ADD SWAP1 PUSH2 0x1E6 SWAP2 SWAP1 PUSH2 0x1812 JUMP JUMPDEST PUSH2 0xB1E JUMP JUMPDEST STOP JUMPDEST CALLVALUE DUP1 ISZERO PUSH2 0x1F8 JUMPI PUSH0 DUP1 REVERT JUMPDEST POP PUSH2 0x201 PUSH2 0xE24 JUMP JUMPDEST PUSH1 0x40 MLOAD PUSH2 0x20E SWAP2 SWAP1 PUSH2 0x15CA JUMP JUMPDEST PUSH1 0x40 MLOAD DUP1 SWAP2 SUB SWAP1 RETURN JUMPDEST CALLVALUE DUP1 ISZERO PUSH2 0x222 JUMPI PUSH0 DUP1 REVERT JUMPDEST POP PUSH2 0x22B PUSH2 0xE29 JUMP JUMPDEST PUSH1 0x40 MLOAD PUSH2 0x238 SWAP2 SWAP1 PUSH2 0x18C7 JUMP JUMPDEST PUSH1 0x40 MLOAD DUP1 SWAP2 SUB SWAP1 RETURN JUMPDEST CALLVALUE DUP1 ISZERO PUSH2 0x24C JUMPI PUSH0 DUP1 REVERT JUMPDEST POP PUSH2 0x255 PUSH2 0xE4E JUMP JUMPDEST PUSH1 0x40 MLOAD PUSH2 0x262 SWAP2 SWAP1 PUSH2 0x15CA JUMP JUMPDEST PUSH1 0x40 MLOAD DUP1 SWAP2 SUB SWAP1 RETURN JUMPDEST CALLVALUE DUP1 ISZERO PUSH2 0x276 JUMPI PUSH0 DUP1 REVERT JUMPDEST POP PUSH2 0x27F PUSH2 0xE53 JUMP JUMPDEST PUSH1 0x40 MLOAD PUSH2 0x28C SWAP2 SWAP1 PUSH2 0x15CA JUMP JUMPDEST PUSH1 0x40 MLOAD DUP1 SWAP2 SUB SWAP1 RETURN JUMPDEST CALLVALUE DUP1 ISZERO PUSH2 0x2A0 JUMPI PUSH0 DUP1 REVERT JUMPDEST POP PUSH2 0x2BB PUSH1 0x4 DUP1 CALLDATASIZE SUB DUP2 ADD SWAP1 PUSH2 0x2B6 SWAP2 SWAP1 PUSH2 0x164E JUMP JUMPDEST PUSH2 0xE59 JUMP JUMPDEST PUSH1 0x40 MLOAD PUSH2 0x2C8 SWAP2 SWAP1 PUSH2 0x15CA JUMP JUMPDEST PUSH1 0x40 MLOAD DUP1 SWAP2 SUB SWAP1 RETURN JUMPDEST CALLVALUE DUP1 ISZERO PUSH2 0x2DC JUMPI PUSH0 DUP1 REVERT JUMPDEST POP PUSH2 0x2E5 PUSH2 0xE6E JUMP JUMPDEST PUSH1 0x40 MLOAD PUSH2 0x2F2 SWAP2 SWAP1 PUSH2 0x15CA JUMP JUMPDEST PUSH1 0x40 MLOAD DUP1 SWAP2 SUB SWAP1 RETURN JUMPDEST CALLVALUE DUP1 ISZERO PUSH2 0x306 JUMPI PUSH0 DUP1 REVERT JUMPDEST POP PUSH2 0x321 PUSH1 0x4 DUP1 CALLDATASIZE SUB DUP2 ADD SWAP1 PUSH2 0x31C SWAP2 SWAP1 PUSH2 0x1913 JUMP JUMPDEST PUSH2 0xE81 JUMP JUMPDEST STOP JUMPDEST CALLVALUE DUP1 ISZERO PUSH2 0x32E JUMPI PUSH0 DUP1 REVERT JUMPDEST POP PUSH2 0x349 PUSH1 0x4 DUP1 CALLDATASIZE SUB DUP2 ADD SWAP1 PUSH2 0x344 SWAP2 SWAP1 PUSH2 0x193E JUMP JUMPDEST PUSH2 0x106A JUMP JUMPDEST PUSH1 0x40 MLOAD PUSH2 0x356 SWAP2 SWAP1 PUSH2 0x1978 JUMP JUMPDEST PUSH1 0x40 MLOAD DUP1 SWAP2 SUB SWAP1 RETURN JUMPDEST PUSH1 0x7 SLOAD DUP2 JUMP JUMPDEST PUSH1 0x5 PUSH1 0x20 MSTORE DUP1 PUSH0 MSTORE PUSH1 0x40 PUSH0 KECCAK256 PUSH0 SWAP2 POP SLOAD SWAP1 PUSH2 0x100 EXP SWAP1 DIV PUSH1 0xFF AND DUP2 JUMP JUMPDEST PUSH1 0x3 SLOAD DUP2 JUMP JUMPDEST PUSH0 DUP1 JUMPDEST PUSH1 0x8 DUP1 SLOAD SWAP1 POP DUP2 LT ISZERO PUSH2 0x41C JUMPI PUSH1 0x8 DUP2 DUP2 SLOAD DUP2 LT PUSH2 0x3AC JUMPI PUSH2 0x3AB PUSH2 0x1991 JUMP JUMPDEST JUMPDEST SWAP1 PUSH0 MSTORE PUSH1 0x20 PUSH0 KECCAK256 ADD PUSH0 SWAP1 SLOAD SWAP1 PUSH2 0x100 EXP SWAP1 DIV PUSH20 0xFFFFFFFFFFFFFFFFFFFFFFFFFFFFFFFFFFFFFFFF AND PUSH20 0xFFFFFFFFFFFFFFFFFFFFFFFFFFFFFFFFFFFFFFFF AND CALLER PUSH20 0xFFFFFFFFFFFFFFFFFFFFFFFFFFFFFFFFFFFFFFFF AND SUB PUSH2 0x40F JUMPI PUSH1 0x1 SWAP2 POP PUSH2 0x41C JUMP JUMPDEST DUP1 DUP1 PUSH1 0x1 ADD SWAP2 POP POP PUSH2 0x38B JUMP JUMPDEST POP DUP1 PUSH2 0x45D JUMPI PUSH1 0x40 MLOAD PUSH32 0x8C379A000000000000000000000000000000000000000000000000000000000 DUP2 MSTORE PUSH1 0x4 ADD PUSH2 0x454 SWAP1 PUSH2 0x1A18 JUMP JUMPDEST PUSH1 0x40 MLOAD DUP1 SWAP2 SUB SWAP1 REVERT JUMPDEST PUSH1 0x2 DUP1 SLOAD LT PUSH2 0x4A1 JUMPI PUSH1 0x40 MLOAD PUSH32 0x8C379A000000000000000000000000000000000000000000000000000000000 DUP2 MSTORE PUSH1 0x4 ADD PUSH2 0x498 SWAP1 PUSH2 0x1A80 JUMP JUMPDEST PUSH1 0x40 MLOAD DUP1 SWAP2 SUB SWAP1 REVERT JUMPDEST PUSH8 0xDE0B6B3A7640000 CALLVALUE EQ PUSH2 0x4EB JUMPI PUSH1 0x40 MLOAD PUSH32 0x8C379A000000000000000000000000000000000000000000000000000000000 DUP2 MSTORE PUSH1 0x4 ADD PUSH2 0x4E2 SWAP1 PUSH2 0x1AE8 JUMP JUMPDEST PUSH1 0x40 MLOAD DUP1 SWAP2 SUB SWAP1 REVERT JUMPDEST PUSH0 PUSH1 0x2 SLOAD GT ISZERO PUSH2 0x568 JUMPI PUSH1 0x6 PUSH0 DUP2 SLOAD DUP2 LT PUSH2 0x509 JUMPI PUSH2 0x508 PUSH2 0x1991 JUMP JUMPDEST JUMPDEST SWAP1 PUSH0 MSTORE PUSH1 0x20 PUSH0 KECCAK256 ADD PUSH0 SWAP1 SLOAD SWAP1 PUSH2 0x100 EXP SWAP1 DIV PUSH20 0xFFFFFFFFFFFFFFFFFFFFFFFFFFFFFFFFFFFFFFFF AND PUSH20 0xFFFFFFFFFFFFFFFFFFFFFFFFFFFFFFFFFFFFFFFF AND CALLER PUSH20 0xFFFFFFFFFFFFFFFFFFFFFFFFFFFFFFFFFFFFFFFF AND SUB PUSH2 0x567 JUMPI PUSH0 DUP1 REVERT JUMPDEST JUMPDEST CALLVALUE PUSH1 0x3 PUSH0 DUP3 DUP3 SLOAD PUSH2 0x579 SWAP2 SWAP1 PUSH2 0x1B33 JUMP JUMPDEST SWAP3 POP POP DUP2 SWAP1 SSTORE POP PUSH1 0x1 PUSH1 0x5 PUSH0 CALLER PUSH20 0xFFFFFFFFFFFFFFFFFFFFFFFFFFFFFFFFFFFFFFFF AND PUSH20 0xFFFFFFFFFFFFFFFFFFFFFFFFFFFFFFFFFFFFFFFF AND DUP2 MSTORE PUSH1 0x20 ADD SWAP1 DUP2 MSTORE PUSH1 0x20 ADD PUSH0 KECCAK256 PUSH0 PUSH2 0x100 EXP DUP2 SLOAD DUP2 PUSH1 0xFF MUL NOT AND SWAP1 DUP4 ISZERO ISZERO MUL OR SWAP1 SSTORE POP PUSH1 0x6 CALLER SWAP1 DUP1 PUSH1 0x1 DUP2 SLOAD ADD DUP1 DUP3 SSTORE DUP1 SWAP2 POP POP PUSH1 0x1 SWAP1 SUB SWAP1 PUSH0 MSTORE PUSH1 0x20 PUSH0 KECCAK256 ADD PUSH0 SWAP1 SWAP2 SWAP1 SWAP2 SWAP1 SWAP2 PUSH2 0x100 EXP DUP2 SLOAD DUP2 PUSH20 0xFFFFFFFFFFFFFFFFFFFFFFFFFFFFFFFFFFFFFFFF MUL NOT AND SWAP1 DUP4 PUSH20 0xFFFFFFFFFFFFFFFFFFFFFFFFFFFFFFFFFFFFFFFF AND MUL OR SWAP1 SSTORE POP PUSH1 0x2 PUSH0 DUP2 SLOAD DUP1 SWAP3 SWAP2 SWAP1 PUSH2 0x647 SWAP1 PUSH2 0x1B66 JUMP JUMPDEST SWAP2 SWAP1 POP SSTORE POP PUSH2 0x654 PUSH2 0x10A5 JUMP JUMPDEST POP JUMP JUMPDEST PUSH0 PUSH1 0x3C PUSH0 SLOAD TIMESTAMP PUSH2 0x667 SWAP2 SWAP1 PUSH2 0x1BAD JUMP JUMPDEST GT SWAP1 POP SWAP1 JUMP JUMPDEST PUSH0 DUP1 JUMPDEST PUSH1 0x8 DUP1 SLOAD SWAP1 POP DUP2 LT ISZERO PUSH2 0x701 JUMPI PUSH1 0x8 DUP2 DUP2 SLOAD DUP2 LT PUSH2 0x691 JUMPI PUSH2 0x690 PUSH2 0x1991 JUMP JUMPDEST JUMPDEST SWAP1 PUSH0 MSTORE PUSH1 0x20 PUSH0 KECCAK256 ADD PUSH0 SWAP1 SLOAD SWAP1 PUSH2 0x100 EXP SWAP1 DIV PUSH20 0xFFFFFFFFFFFFFFFFFFFFFFFFFFFFFFFFFFFFFFFF AND PUSH20 0xFFFFFFFFFFFFFFFFFFFFFFFFFFFFFFFFFFFFFFFF AND CALLER PUSH20 0xFFFFFFFFFFFFFFFFFFFFFFFFFFFFFFFFFFFFFFFF AND SUB PUSH2 0x6F4 JUMPI PUSH1 0x1 SWAP2 POP PUSH2 0x701 JUMP JUMPDEST DUP1 DUP1 PUSH1 0x1 ADD SWAP2 POP POP PUSH2 0x670 JUMP JUMPDEST POP DUP1 PUSH2 0x742 JUMPI PUSH1 0x40 MLOAD PUSH32 0x8C379A000000000000000000000000000000000000000000000000000000000 DUP2 MSTORE PUSH1 0x4 ADD PUSH2 0x739 SWAP1 PUSH2 0x1A18 JUMP JUMPDEST PUSH1 0x40 MLOAD DUP1 SWAP2 SUB SWAP1 REVERT JUMPDEST PUSH0 PUSH1 0x2 SLOAD GT PUSH2 0x786 JUMPI PUSH1 0x40 MLOAD PUSH32 0x8C379A000000000000000000000000000000000000000000000000000000000 DUP2 MSTORE PUSH1 0x4 ADD PUSH2 0x77D SWAP1 PUSH2 0x1C2A JUMP JUMPDEST PUSH1 0x40 MLOAD DUP1 SWAP2 SUB SWAP1 REVERT JUMPDEST PUSH0 PUSH1 0x3 SLOAD GT PUSH2 0x7CA JUMPI PUSH1 0x40 MLOAD PUSH32 0x8C379A000000000000000000000000000000000000000000000000000000000 DUP2 MSTORE PUSH1 0x4 ADD PUSH2 0x7C1 SWAP1 PUSH2 0x1C92 JUMP JUMPDEST PUSH1 0x40 MLOAD DUP1 SWAP2 SUB SWAP1 REVERT JUMPDEST PUSH0 PUSH1 0x6 PUSH0 DUP2 SLOAD DUP2 LT PUSH2 0x7DF JUMPI PUSH2 0x7DE PUSH2 0x1991 JUMP JUMPDEST JUMPDEST SWAP1 PUSH0 MSTORE PUSH1 0x20 PUSH0 KECCAK256 ADD PUSH0 SWAP1 SLOAD SWAP1 PUSH2 0x100 EXP SWAP1 DIV PUSH20 0xFFFFFFFFFFFFFFFFFFFFFFFFFFFFFFFFFFFFFFFF AND SWAP1 POP PUSH1 0x1 PUSH1 0x2 SLOAD SUB PUSH2 0x907 JUMPI PUSH1 0x6 PUSH0 DUP2 SLOAD DUP2 LT PUSH2 0x827 JUMPI PUSH2 0x826 PUSH2 0x1991 JUMP JUMPDEST JUMPDEST SWAP1 PUSH0 MSTORE PUSH1 0x20 PUSH0 KECCAK256 ADD PUSH0 SWAP1 SLOAD SWAP1 PUSH2 0x100 EXP SWAP1 DIV PUSH20 0xFFFFFFFFFFFFFFFFFFFFFFFFFFFFFFFFFFFFFFFF AND PUSH20 0xFFFFFFFFFFFFFFFFFFFFFFFFFFFFFFFFFFFFFFFF AND CALLER PUSH20 0xFFFFFFFFFFFFFFFFFFFFFFFFFFFFFFFFFFFFFFFF AND EQ PUSH2 0x8BC JUMPI PUSH1 0x40 MLOAD PUSH32 0x8C379A000000000000000000000000000000000000000000000000000000000 DUP2 MSTORE PUSH1 0x4 ADD PUSH2 0x8B3 SWAP1 PUSH2 0x1CFA JUMP JUMPDEST PUSH1 0x40 MLOAD DUP1 SWAP2 SUB SWAP1 REVERT JUMPDEST DUP1 PUSH20 0xFFFFFFFFFFFFFFFFFFFFFFFFFFFFFFFFFFFFFFFF AND PUSH2 0x8FC PUSH1 0x3 SLOAD SWAP1 DUP2 ISZERO MUL SWAP1 PUSH1 0x40 MLOAD PUSH0 PUSH1 0x40 MLOAD DUP1 DUP4 SUB DUP2 DUP6 DUP9 DUP9 CALL SWAP4 POP POP POP POP ISZERO DUP1 ISZERO PUSH2 0x901 JUMPI RETURNDATASIZE PUSH0 DUP1 RETURNDATACOPY RETURNDATASIZE PUSH0 REVERT JUMPDEST POP PUSH2 0xB12 JUMP JUMPDEST PUSH1 0x2 DUP1 SLOAD SUB PUSH2 0xB11 JUMPI PUSH1 0x6 PUSH0 DUP2 SLOAD DUP2 LT PUSH2 0x924 JUMPI PUSH2 0x923 PUSH2 0x1991 JUMP JUMPDEST JUMPDEST SWAP1 PUSH0 MSTORE PUSH1 0x20 PUSH0 KECCAK256 ADD PUSH0 SWAP1 SLOAD SWAP1 PUSH2 0x100 EXP SWAP1 DIV PUSH20 0xFFFFFFFFFFFFFFFFFFFFFFFFFFFFFFFFFFFFFFFF AND PUSH20 0xFFFFFFFFFFFFFFFFFFFFFFFFFFFFFFFFFFFFFFFF AND CALLER PUSH20 0xFFFFFFFFFFFFFFFFFFFFFFFFFFFFFFFFFFFFFFFF AND EQ DUP1 PUSH2 0x9EC JUMPI POP PUSH1 0x6 PUSH1 0x1 DUP2 SLOAD DUP2 LT PUSH2 0x995 JUMPI PUSH2 0x994 PUSH2 0x1991 JUMP JUMPDEST JUMPDEST SWAP1 PUSH0 MSTORE PUSH1 0x20 PUSH0 KECCAK256 ADD PUSH0 SWAP1 SLOAD SWAP1 PUSH2 0x100 EXP SWAP1 DIV PUSH20 0xFFFFFFFFFFFFFFFFFFFFFFFFFFFFFFFFFFFFFFFF AND PUSH20 0xFFFFFFFFFFFFFFFFFFFFFFFFFFFFFFFFFFFFFFFF AND CALLER PUSH20 0xFFFFFFFFFFFFFFFFFFFFFFFFFFFFFFFFFFFFFFFF AND EQ JUMPDEST PUSH2 0xA2B JUMPI PUSH1 0x40 MLOAD PUSH32 0x8C379A000000000000000000000000000000000000000000000000000000000 DUP2 MSTORE PUSH1 0x4 ADD PUSH2 0xA22 SWAP1 PUSH2 0x1D62 JUMP JUMPDEST PUSH1 0x40 MLOAD DUP1 SWAP2 SUB SWAP1 REVERT JUMPDEST PUSH0 PUSH1 0x6 PUSH1 0x1 DUP2 SLOAD DUP2 LT PUSH2 0xA41 JUMPI PUSH2 0xA40 PUSH2 0x1991 JUMP JUMPDEST JUMPDEST SWAP1 PUSH0 MSTORE PUSH1 0x20 PUSH0 KECCAK256 ADD PUSH0 SWAP1 SLOAD SWAP1 PUSH2 0x100 EXP SWAP1 DIV PUSH20 0xFFFFFFFFFFFFFFFFFFFFFFFFFFFFFFFFFFFFFFFF AND SWAP1 POP DUP2 PUSH20 0xFFFFFFFFFFFFFFFFFFFFFFFFFFFFFFFFFFFFFFFF AND PUSH2 0x8FC PUSH1 0x2 PUSH1 0x3 SLOAD PUSH2 0xA94 SWAP2 SWAP1 PUSH2 0x1DAD JUMP JUMPDEST SWAP1 DUP2 ISZERO MUL SWAP1 PUSH1 0x40 MLOAD PUSH0 PUSH1 0x40 MLOAD DUP1 DUP4 SUB DUP2 DUP6 DUP9 DUP9 CALL SWAP4 POP POP POP POP ISZERO DUP1 ISZERO PUSH2 0xABC JUMPI RETURNDATASIZE PUSH0 DUP1 RETURNDATACOPY RETURNDATASIZE PUSH0 REVERT JUMPDEST POP DUP1 PUSH20 0xFFFFFFFFFFFFFFFFFFFFFFFFFFFFFFFFFFFFFFFF AND PUSH2 0x8FC PUSH1 0x2 PUSH1 0x3 SLOAD PUSH2 0xAE6 SWAP2 SWAP1 PUSH2 0x1DAD JUMP JUMPDEST SWAP1 DUP2 ISZERO MUL SWAP1 PUSH1 0x40 MLOAD PUSH0 PUSH1 0x40 MLOAD DUP1 DUP4 SUB DUP2 DUP6 DUP9 DUP9 CALL SWAP4 POP POP POP POP ISZERO DUP1 ISZERO PUSH2 0xB0E JUMPI RETURNDATASIZE PUSH0 DUP1 RETURNDATACOPY RETURNDATASIZE PUSH0 REVERT JUMPDEST POP POP JUMPDEST JUMPDEST PUSH2 0xB1A PUSH2 0x10AD JUMP JUMPDEST POP POP JUMP JUMPDEST PUSH0 DUP1 JUMPDEST PUSH1 0x8 DUP1 SLOAD SWAP1 POP DUP2 LT ISZERO PUSH2 0xBB2 JUMPI PUSH1 0x8 DUP2 DUP2 SLOAD DUP2 LT PUSH2 0xB42 JUMPI PUSH2 0xB41 PUSH2 0x1991 JUMP JUMPDEST JUMPDEST SWAP1 PUSH0 MSTORE PUSH1 0x20 PUSH0 KECCAK256 ADD PUSH0 SWAP1 SLOAD SWAP1 PUSH2 0x100 EXP SWAP1 DIV PUSH20 0xFFFFFFFFFFFFFFFFFFFFFFFFFFFFFFFFFFFFFFFF AND PUSH20 0xFFFFFFFFFFFFFFFFFFFFFFFFFFFFFFFFFFFFFFFF AND CALLER PUSH20 0xFFFFFFFFFFFFFFFFFFFFFFFFFFFFFFFFFFFFFFFF AND SUB PUSH2 0xBA5 JUMPI PUSH1 0x1 SWAP2 POP PUSH2 0xBB2 JUMP JUMPDEST DUP1 DUP1 PUSH1 0x1 ADD SWAP2 POP POP PUSH2 0xB21 JUMP JUMPDEST POP DUP1 PUSH2 0xBF3 JUMPI PUSH1 0x40 MLOAD PUSH32 0x8C379A000000000000000000000000000000000000000000000000000000000 DUP2 MSTORE PUSH1 0x4 ADD PUSH2 0xBEA SWAP1 PUSH2 0x1A18 JUMP JUMPDEST PUSH1 0x40 MLOAD DUP1 SWAP2 SUB SWAP1 REVERT JUMPDEST PUSH1 0x5 PUSH0 CALLER PUSH20 0xFFFFFFFFFFFFFFFFFFFFFFFFFFFFFFFFFFFFFFFF AND PUSH20 0xFFFFFFFFFFFFFFFFFFFFFFFFFFFFFFFFFFFFFFFF AND DUP2 MSTORE PUSH1 0x20 ADD SWAP1 DUP2 MSTORE PUSH1 0x20 ADD PUSH0 KECCAK256 PUSH0 SWAP1 SLOAD SWAP1 PUSH2 0x100 EXP SWAP1 DIV PUSH1 0xFF AND PUSH2 0xC7C JUMPI PUSH1 0x40 MLOAD PUSH32 0x8C379A000000000000000000000000000000000000000000000000000000000 DUP2 MSTORE PUSH1 0x4 ADD PUSH2 0xC73 SWAP1 PUSH2 0x1E4D JUMP JUMPDEST PUSH1 0x40 MLOAD DUP1 SWAP2 SUB SWAP1 REVERT JUMPDEST PUSH1 0x1 PUSH0 SWAP1 SLOAD SWAP1 PUSH2 0x100 EXP SWAP1 DIV PUSH20 0xFFFFFFFFFFFFFFFFFFFFFFFFFFFFFFFFFFFFFFFF AND PUSH20 0xFFFFFFFFFFFFFFFFFFFFFFFFFFFFFFFFFFFFFFFF AND PUSH4 0x708B4730 DUP5 DUP5 PUSH1 0x40 MLOAD DUP4 PUSH4 0xFFFFFFFF AND PUSH1 0xE0 SHL DUP2 MSTORE PUSH1 0x4 ADD PUSH2 0xCD8 SWAP3 SWAP2 SWAP1 PUSH2 0x1EBB JUMP JUMPDEST PUSH1 0x20 PUSH1 0x40 MLOAD DUP1 DUP4 SUB DUP2 PUSH0 DUP8 GAS CALL ISZERO DUP1 ISZERO PUSH2 0xCF4 JUMPI RETURNDATASIZE PUSH0 DUP1 RETURNDATACOPY RETURNDATASIZE PUSH0 REVERT JUMPDEST POP POP POP POP PUSH1 0x40 MLOAD RETURNDATASIZE PUSH1 0x1F NOT PUSH1 0x1F DUP3 ADD AND DUP3 ADD DUP1 PUSH1 0x40 MSTORE POP DUP2 ADD SWAP1 PUSH2 0xD18 SWAP2 SWAP1 PUSH2 0x1F13 JUMP JUMPDEST PUSH2 0xD57 JUMPI PUSH1 0x40 MLOAD PUSH32 0x8C379A000000000000000000000000000000000000000000000000000000000 DUP2 MSTORE PUSH1 0x4 ADD PUSH2 0xD4E SWAP1 PUSH2 0x1F88 JUMP JUMPDEST PUSH1 0x40 MLOAD DUP1 SWAP2 SUB SWAP1 REVERT JUMPDEST DUP2 PUSH1 0x4 PUSH0 CALLER PUSH20 0xFFFFFFFFFFFFFFFFFFFFFFFFFFFFFFFFFFFFFFFF AND PUSH20 0xFFFFFFFFFFFFFFFFFFFFFFFFFFFFFFFFFFFFFFFF AND DUP2 MSTORE PUSH1 0x20 ADD SWAP1 DUP2 MSTORE PUSH1 0x20 ADD PUSH0 KECCAK256 DUP2 SWAP1 SSTORE POP PUSH0 PUSH1 0x5 PUSH0 CALLER PUSH20 0xFFFFFFFFFFFFFFFFFFFFFFFFFFFFFFFFFFFFFFFF AND PUSH20 0xFFFFFFFFFFFFFFFFFFFFFFFFFFFFFFFFFFFFFFFF AND DUP2 MSTORE PUSH1 0x20 ADD SWAP1 DUP2 MSTORE PUSH1 0x20 ADD PUSH0 KECCAK256 PUSH0 PUSH2 0x100 EXP DUP2 SLOAD DUP2 PUSH1 0xFF MUL NOT AND SWAP1 DUP4 ISZERO ISZERO MUL OR SWAP1 SSTORE POP PUSH1 0x7 PUSH0 DUP2 SLOAD DUP1 SWAP3 SWAP2 SWAP1 PUSH2 0xDFF SWAP1 PUSH2 0x1B66 JUMP JUMPDEST SWAP2 SWAP1 POP SSTORE POP PUSH1 0x2 PUSH1 0x7 SLOAD SUB PUSH2 0xE17 JUMPI PUSH2 0xE16 PUSH2 0x11F8 JUMP JUMPDEST JUMPDEST PUSH2 0xE1F PUSH2 0x10A5 JUMP JUMPDEST POP POP POP JUMP JUMPDEST PUSH0 SLOAD DUP2 JUMP JUMPDEST PUSH1 0x1 PUSH0 SWAP1 SLOAD SWAP1 PUSH2 0x100 EXP SWAP1 DIV PUSH20 0xFFFFFFFFFFFFFFFFFFFFFFFFFFFFFFFFFFFFFFFF AND DUP2 JUMP JUMPDEST PUSH1 0x3C DUP2 JUMP JUMPDEST PUSH1 0x2 SLOAD DUP2 JUMP JUMPDEST PUSH1 0x4 PUSH1 0x20 MSTORE DUP1 PUSH0 MSTORE PUSH1 0x40 PUSH0 KECCAK256 PUSH0 SWAP2 POP SWAP1 POP SLOAD DUP2 JUMP JUMPDEST PUSH0 DUP1 SLOAD TIMESTAMP PUSH2 0xE7C SWAP2 SWAP1 PUSH2 0x1BAD JUMP JUMPDEST SWAP1 POP SWAP1 JUMP JUMPDEST PUSH0 DUP1 JUMPDEST PUSH1 0x8 DUP1 SLOAD SWAP1 POP DUP2 LT ISZERO PUSH2 0xF15 JUMPI PUSH1 0x8 DUP2 DUP2 SLOAD DUP2 LT PUSH2 0xEA5 JUMPI PUSH2 0xEA4 PUSH2 0x1991 JUMP JUMPDEST JUMPDEST SWAP1 PUSH0 MSTORE PUSH1 0x20 PUSH0 KECCAK256 ADD PUSH0 SWAP1 SLOAD SWAP1 PUSH2 0x100 EXP SWAP1 DIV PUSH20 0xFFFFFFFFFFFFFFFFFFFFFFFFFFFFFFFFFFFFFFFF AND PUSH20 0xFFFFFFFFFFFFFFFFFFFFFFFFFFFFFFFFFFFFFFFF AND CALLER PUSH20 0xFFFFFFFFFFFFFFFFFFFFFFFFFFFFFFFFFFFFFFFF AND SUB PUSH2 0xF08 JUMPI PUSH1 0x1 SWAP2 POP PUSH2 0xF15 JUMP JUMPDEST DUP1 DUP1 PUSH1 0x1 ADD SWAP2 POP POP PUSH2 0xE84 JUMP JUMPDEST POP DUP1 PUSH2 0xF56 JUMPI PUSH1 0x40 MLOAD PUSH32 0x8C379A000000000000000000000000000000000000000000000000000000000 DUP2 MSTORE PUSH1 0x4 ADD PUSH2 0xF4D SWAP1 PUSH2 0x1A18 JUMP JUMPDEST PUSH1 0x40 MLOAD DUP1 SWAP2 SUB SWAP1 REVERT JUMPDEST PUSH1 0x5 PUSH0 CALLER PUSH20 0xFFFFFFFFFFFFFFFFFFFFFFFFFFFFFFFFFFFFFFFF AND PUSH20 0xFFFFFFFFFFFFFFFFFFFFFFFFFFFFFFFFFFFFFFFF AND DUP2 MSTORE PUSH1 0x20 ADD SWAP1 DUP2 MSTORE PUSH1 0x20 ADD PUSH0 KECCAK256 PUSH0 SWAP1 SLOAD SWAP1 PUSH2 0x100 EXP SWAP1 DIV PUSH1 0xFF AND PUSH2 0xFDF JUMPI PUSH1 0x40 MLOAD PUSH32 0x8C379A000000000000000000000000000000000000000000000000000000000 DUP2 MSTORE PUSH1 0x4 ADD PUSH2 0xFD6 SWAP1 PUSH2 0x2016 JUMP JUMPDEST PUSH1 0x40 MLOAD DUP1 SWAP2 SUB SWAP1 REVERT JUMPDEST PUSH1 0x1 PUSH0 SWAP1 SLOAD SWAP1 PUSH2 0x100 EXP SWAP1 DIV PUSH20 0xFFFFFFFFFFFFFFFFFFFFFFFFFFFFFFFFFFFFFFFF AND PUSH20 0xFFFFFFFFFFFFFFFFFFFFFFFFFFFFFFFFFFFFFFFF AND PUSH4 0xF14FCBC8 DUP4 PUSH1 0x40 MLOAD DUP3 PUSH4 0xFFFFFFFF AND PUSH1 0xE0 SHL DUP2 MSTORE PUSH1 0x4 ADD PUSH2 0x1039 SWAP2 SWAP1 PUSH2 0x2043 JUMP JUMPDEST PUSH0 PUSH1 0x40 MLOAD DUP1 DUP4 SUB DUP2 PUSH0 DUP8 DUP1 EXTCODESIZE ISZERO DUP1 ISZERO PUSH2 0x1050 JUMPI PUSH0 DUP1 REVERT JUMPDEST POP GAS CALL ISZERO DUP1 ISZERO PUSH2 0x1062 JUMPI RETURNDATASIZE PUSH0 DUP1 RETURNDATACOPY RETURNDATASIZE PUSH0 REVERT JUMPDEST POP POP POP POP POP POP JUMP JUMPDEST PUSH1 0x6 DUP2 DUP2 SLOAD DUP2 LT PUSH2 0x1079 JUMPI PUSH0 DUP1 REVERT JUMPDEST SWAP1 PUSH0 MSTORE PUSH1 0x20 PUSH0 KECCAK256 ADD PUSH0 SWAP2 POP SLOAD SWAP1 PUSH2 0x100 EXP SWAP1 DIV PUSH20 0xFFFFFFFFFFFFFFFFFFFFFFFFFFFFFFFFFFFFFFFF AND DUP2 JUMP JUMPDEST TIMESTAMP PUSH0 DUP2 SWAP1 SSTORE POP JUMP JUMPDEST PUSH0 PUSH1 0x2 DUP2 SWAP1 SSTORE POP PUSH0 PUSH1 0x7 DUP2 SWAP1 SSTORE POP PUSH0 PUSH1 0x3 DUP2 SWAP1 SSTORE POP PUSH0 JUMPDEST PUSH1 0x6 DUP1 SLOAD SWAP1 POP DUP2 LT ISZERO PUSH2 0x11E0 JUMPI PUSH1 0x4 PUSH0 PUSH1 0x6 DUP4 DUP2 SLOAD DUP2 LT PUSH2 0x10E8 JUMPI PUSH2 0x10E7 PUSH2 0x1991 JUMP JUMPDEST JUMPDEST SWAP1 PUSH0 MSTORE PUSH1 0x20 PUSH0 KECCAK256 ADD PUSH0 SWAP1 SLOAD SWAP1 PUSH2 0x100 EXP SWAP1 DIV PUSH20 0xFFFFFFFFFFFFFFFFFFFFFFFFFFFFFFFFFFFFFFFF AND PUSH20 0xFFFFFFFFFFFFFFFFFFFFFFFFFFFFFFFFFFFFFFFF AND PUSH20 0xFFFFFFFFFFFFFFFFFFFFFFFFFFFFFFFFFFFFFFFF AND DUP2 MSTORE PUSH1 0x20 ADD SWAP1 DUP2 MSTORE PUSH1 0x20 ADD PUSH0 KECCAK256 PUSH0 SWAP1 SSTORE PUSH1 0x5 PUSH0 PUSH1 0x6 DUP4 DUP2 SLOAD DUP2 LT PUSH2 0x1163 JUMPI PUSH2 0x1162 PUSH2 0x1991 JUMP JUMPDEST JUMPDEST SWAP1 PUSH0 MSTORE PUSH1 0x20 PUSH0 KECCAK256 ADD PUSH0 SWAP1 SLOAD SWAP1 PUSH2 0x100 EXP SWAP1 DIV PUSH20 0xFFFFFFFFFFFFFFFFFFFFFFFFFFFFFFFFFFFFFFFF AND PUSH20 0xFFFFFFFFFFFFFFFFFFFFFFFFFFFFFFFFFFFFFFFF AND PUSH20 0xFFFFFFFFFFFFFFFFFFFFFFFFFFFFFFFFFFFFFFFF AND DUP2 MSTORE PUSH1 0x20 ADD SWAP1 DUP2 MSTORE PUSH1 0x20 ADD PUSH0 KECCAK256 PUSH0 PUSH2 0x100 EXP DUP2 SLOAD SWAP1 PUSH1 0xFF MUL NOT AND SWAP1 SSTORE DUP1 DUP1 PUSH1 0x1 ADD SWAP2 POP POP PUSH2 0x10C4 JUMP JUMPDEST POP PUSH1 0x6 PUSH0 PUSH2 0x11EE SWAP2 SWAP1 PUSH2 0x1579 JUMP JUMPDEST PUSH2 0x11F6 PUSH2 0x10A5 JUMP JUMPDEST JUMP JUMPDEST PUSH0 PUSH1 0x4 PUSH0 PUSH1 0x6 PUSH0 DUP2 SLOAD DUP2 LT PUSH2 0x1210 JUMPI PUSH2 0x120F PUSH2 0x1991 JUMP JUMPDEST JUMPDEST SWAP1 PUSH0 MSTORE PUSH1 0x20 PUSH0 KECCAK256 ADD PUSH0 SWAP1 SLOAD SWAP1 PUSH2 0x100 EXP SWAP1 DIV PUSH20 0xFFFFFFFFFFFFFFFFFFFFFFFFFFFFFFFFFFFFFFFF AND PUSH20 0xFFFFFFFFFFFFFFFFFFFFFFFFFFFFFFFFFFFFFFFF AND PUSH20 0xFFFFFFFFFFFFFFFFFFFFFFFFFFFFFFFFFFFFFFFF AND DUP2 MSTORE PUSH1 0x20 ADD SWAP1 DUP2 MSTORE PUSH1 0x20 ADD PUSH0 KECCAK256 SLOAD SWAP1 POP PUSH0 PUSH1 0x4 PUSH0 PUSH1 0x6 PUSH1 0x1 DUP2 SLOAD DUP2 LT PUSH2 0x128D JUMPI PUSH2 0x128C PUSH2 0x1991 JUMP JUMPDEST JUMPDEST SWAP1 PUSH0 MSTORE PUSH1 0x20 PUSH0 KECCAK256 ADD PUSH0 SWAP1 SLOAD SWAP1 PUSH2 0x100 EXP SWAP1 DIV PUSH20 0xFFFFFFFFFFFFFFFFFFFFFFFFFFFFFFFFFFFFFFFF AND PUSH20 0xFFFFFFFFFFFFFFFFFFFFFFFFFFFFFFFFFFFFFFFF AND PUSH20 0xFFFFFFFFFFFFFFFFFFFFFFFFFFFFFFFFFFFFFFFF AND DUP2 MSTORE PUSH1 0x20 ADD SWAP1 DUP2 MSTORE PUSH1 0x20 ADD PUSH0 KECCAK256 SLOAD SWAP1 POP PUSH0 PUSH1 0x6 PUSH0 DUP2 SLOAD DUP2 LT PUSH2 0x1306 JUMPI PUSH2 0x1305 PUSH2 0x1991 JUMP JUMPDEST JUMPDEST SWAP1 PUSH0 MSTORE PUSH1 0x20 PUSH0 KECCAK256 ADD PUSH0 SWAP1 SLOAD SWAP1 PUSH2 0x100 EXP SWAP1 DIV PUSH20 0xFFFFFFFFFFFFFFFFFFFFFFFFFFFFFFFFFFFFFFFF AND SWAP1 POP PUSH0 PUSH1 0x6 PUSH1 0x1 DUP2 SLOAD DUP2 LT PUSH2 0x1346 JUMPI PUSH2 0x1345 PUSH2 0x1991 JUMP JUMPDEST JUMPDEST SWAP1 PUSH0 MSTORE PUSH1 0x20 PUSH0 KECCAK256 ADD PUSH0 SWAP1 SLOAD SWAP1 PUSH2 0x100 EXP SWAP1 DIV PUSH20 0xFFFFFFFFFFFFFFFFFFFFFFFFFFFFFFFFFFFFFFFF AND SWAP1 POP PUSH2 0x137A DUP5 DUP5 PUSH2 0x14D0 JUMP JUMPDEST ISZERO PUSH2 0x13CA JUMPI DUP2 PUSH20 0xFFFFFFFFFFFFFFFFFFFFFFFFFFFFFFFFFFFFFFFF AND PUSH2 0x8FC PUSH1 0x3 SLOAD SWAP1 DUP2 ISZERO MUL SWAP1 PUSH1 0x40 MLOAD PUSH0 PUSH1 0x40 MLOAD DUP1 DUP4 SUB DUP2 DUP6 DUP9 DUP9 CALL SWAP4 POP POP POP POP ISZERO DUP1 ISZERO PUSH2 0x13C4 JUMPI RETURNDATASIZE PUSH0 DUP1 RETURNDATACOPY RETURNDATASIZE PUSH0 REVERT JUMPDEST POP PUSH2 0x14CA JUMP JUMPDEST PUSH2 0x13D4 DUP4 DUP6 PUSH2 0x14D0 JUMP JUMPDEST ISZERO PUSH2 0x1424 JUMPI DUP1 PUSH20 0xFFFFFFFFFFFFFFFFFFFFFFFFFFFFFFFFFFFFFFFF AND PUSH2 0x8FC PUSH1 0x3 SLOAD SWAP1 DUP2 ISZERO MUL SWAP1 PUSH1 0x40 MLOAD PUSH0 PUSH1 0x40 MLOAD DUP1 DUP4 SUB DUP2 DUP6 DUP9 DUP9 CALL SWAP4 POP POP POP POP ISZERO DUP1 ISZERO PUSH2 0x141E JUMPI RETURNDATASIZE PUSH0 DUP1 RETURNDATACOPY RETURNDATASIZE PUSH0 REVERT JUMPDEST POP PUSH2 0x14C9 JUMP JUMPDEST DUP2 PUSH20 0xFFFFFFFFFFFFFFFFFFFFFFFFFFFFFFFFFFFFFFFF AND PUSH2 0x8FC PUSH1 0x2 PUSH1 0x3 SLOAD PUSH2 0x144D SWAP2 SWAP1 PUSH2 0x1DAD JUMP JUMPDEST SWAP1 DUP2 ISZERO MUL SWAP1 PUSH1 0x40 MLOAD PUSH0 PUSH1 0x40 MLOAD DUP1 DUP4 SUB DUP2 DUP6 DUP9 DUP9 CALL SWAP4 POP POP POP POP ISZERO DUP1 ISZERO PUSH2 0x1475 JUMPI RETURNDATASIZE PUSH0 DUP1 RETURNDATACOPY RETURNDATASIZE PUSH0 REVERT JUMPDEST POP DUP1 PUSH20 0xFFFFFFFFFFFFFFFFFFFFFFFFFFFFFFFFFFFFFFFF AND PUSH2 0x8FC PUSH1 0x2 PUSH1 0x3 SLOAD PUSH2 0x149F SWAP2 SWAP1 PUSH2 0x1DAD JUMP JUMPDEST SWAP1 DUP2 ISZERO MUL SWAP1 PUSH1 0x40 MLOAD PUSH0 PUSH1 0x40 MLOAD DUP1 DUP4 SUB DUP2 DUP6 DUP9 DUP9 CALL SWAP4 POP POP POP POP ISZERO DUP1 ISZERO PUSH2 0x14C7 JUMPI RETURNDATASIZE PUSH0 DUP1 RETURNDATACOPY RETURNDATASIZE PUSH0 REVERT JUMPDEST POP JUMPDEST JUMPDEST POP POP POP POP JUMP JUMPDEST PUSH0 DUP1 DUP4 EQ DUP1 ISZERO PUSH2 0x14EB JUMPI POP PUSH1 0x2 DUP3 EQ DUP1 PUSH2 0x14EA JUMPI POP PUSH1 0x3 DUP3 EQ JUMPDEST JUMPDEST DUP1 PUSH2 0x150C JUMPI POP PUSH1 0x1 DUP4 EQ DUP1 ISZERO PUSH2 0x150B JUMPI POP PUSH0 DUP3 EQ DUP1 PUSH2 0x150A JUMPI POP PUSH1 0x4 DUP3 EQ JUMPDEST JUMPDEST JUMPDEST DUP1 PUSH2 0x152E JUMPI POP PUSH1 0x2 DUP4 EQ DUP1 ISZERO PUSH2 0x152D JUMPI POP PUSH1 0x1 DUP3 EQ DUP1 PUSH2 0x152C JUMPI POP PUSH1 0x3 DUP3 EQ JUMPDEST JUMPDEST JUMPDEST DUP1 PUSH2 0x1550 JUMPI POP PUSH1 0x3 DUP4 EQ DUP1 ISZERO PUSH2 0x154F JUMPI POP PUSH1 0x1 DUP3 EQ DUP1 PUSH2 0x154E JUMPI POP PUSH1 0x4 DUP3 EQ JUMPDEST JUMPDEST JUMPDEST DUP1 PUSH2 0x1571 JUMPI POP PUSH1 0x4 DUP4 EQ DUP1 ISZERO PUSH2 0x1570 JUMPI POP PUSH0 DUP3 EQ DUP1 PUSH2 0x156F JUMPI POP PUSH1 0x2 DUP3 EQ JUMPDEST JUMPDEST JUMPDEST SWAP1 POP SWAP3 SWAP2 POP POP JUMP JUMPDEST POP DUP1 SLOAD PUSH0 DUP3 SSTORE SWAP1 PUSH0 MSTORE PUSH1 0x20 PUSH0 KECCAK256 SWAP1 DUP2 ADD SWAP1 PUSH2 0x1594 SWAP2 SWAP1 PUSH2 0x1597 JUMP JUMPDEST POP JUMP JUMPDEST JUMPDEST DUP1 DUP3 GT ISZERO PUSH2 0x15AE JUMPI PUSH0 DUP2 PUSH0 SWAP1 SSTORE POP PUSH1 0x1 ADD PUSH2 0x1598 JUMP JUMPDEST POP SWAP1 JUMP JUMPDEST PUSH0 DUP2 SWAP1 POP SWAP2 SWAP1 POP JUMP JUMPDEST PUSH2 0x15C4 DUP2 PUSH2 0x15B2 JUMP JUMPDEST DUP3 MSTORE POP POP JUMP JUMPDEST PUSH0 PUSH1 0x20 DUP3 ADD SWAP1 POP PUSH2 0x15DD PUSH0 DUP4 ADD DUP5 PUSH2 0x15BB JUMP JUMPDEST SWAP3 SWAP2 POP POP JUMP JUMPDEST PUSH0 PUSH1 0x40 MLOAD SWAP1 POP SWAP1 JUMP JUMPDEST PUSH0 DUP1 REVERT JUMPDEST PUSH0 DUP1 REVERT JUMPDEST PUSH0 PUSH20 0xFFFFFFFFFFFFFFFFFFFFFFFFFFFFFFFFFFFFFFFF DUP3 AND SWAP1 POP SWAP2 SWAP1 POP JUMP JUMPDEST PUSH0 PUSH2 0x161D DUP3 PUSH2 0x15F4 JUMP JUMPDEST SWAP1 POP SWAP2 SWAP1 POP JUMP JUMPDEST PUSH2 0x162D DUP2 PUSH2 0x1613 JUMP JUMPDEST DUP2 EQ PUSH2 0x1637 JUMPI PUSH0 DUP1 REVERT JUMPDEST POP JUMP JUMPDEST PUSH0 DUP2 CALLDATALOAD SWAP1 POP PUSH2 0x1648 DUP2 PUSH2 0x1624 JUMP JUMPDEST SWAP3 SWAP2 POP POP JUMP JUMPDEST PUSH0 PUSH1 0x20 DUP3 DUP5 SUB SLT ISZERO PUSH2 0x1663 JUMPI PUSH2 0x1662 PUSH2 0x15EC JUMP JUMPDEST JUMPDEST PUSH0 PUSH2 0x1670 DUP5 DUP3 DUP6 ADD PUSH2 0x163A JUMP JUMPDEST SWAP2 POP POP SWAP3 SWAP2 POP POP JUMP JUMPDEST PUSH0 DUP2 ISZERO ISZERO SWAP1 POP SWAP2 SWAP1 POP JUMP JUMPDEST PUSH2 0x168D DUP2 PUSH2 0x1679 JUMP JUMPDEST DUP3 MSTORE POP POP JUMP JUMPDEST PUSH0 PUSH1 0x20 DUP3 ADD SWAP1 POP PUSH2 0x16A6 PUSH0 DUP4 ADD DUP5 PUSH2 0x1684 JUMP JUMPDEST SWAP3 SWAP2 POP POP JUMP JUMPDEST PUSH0 DUP1 REVERT JUMPDEST PUSH0 DUP1 REVERT JUMPDEST PUSH0 PUSH1 0x1F NOT PUSH1 0x1F DUP4 ADD AND SWAP1 POP SWAP2 SWAP1 POP JUMP JUMPDEST PUSH32 0x4E487B7100000000000000000000000000000000000000000000000000000000 PUSH0 MSTORE PUSH1 0x41 PUSH1 0x4 MSTORE PUSH1 0x24 PUSH0 REVERT JUMPDEST PUSH2 0x16FA DUP3 PUSH2 0x16B4 JUMP JUMPDEST DUP2 ADD DUP2 DUP2 LT PUSH8 0xFFFFFFFFFFFFFFFF DUP3 GT OR ISZERO PUSH2 0x1719 JUMPI PUSH2 0x1718 PUSH2 0x16C4 JUMP JUMPDEST JUMPDEST DUP1 PUSH1 0x40 MSTORE POP POP POP JUMP JUMPDEST PUSH0 PUSH2 0x172B PUSH2 0x15E3 JUMP JUMPDEST SWAP1 POP PUSH2 0x1737 DUP3 DUP3 PUSH2 0x16F1 JUMP JUMPDEST SWAP2 SWAP1 POP JUMP JUMPDEST PUSH0 PUSH8 0xFFFFFFFFFFFFFFFF DUP3 GT ISZERO PUSH2 0x1756 JUMPI PUSH2 0x1755 PUSH2 0x16C4 JUMP JUMPDEST JUMPDEST PUSH2 0x175F DUP3 PUSH2 0x16B4 JUMP JUMPDEST SWAP1 POP PUSH1 0x20 DUP2 ADD SWAP1 POP SWAP2 SWAP1 POP JUMP JUMPDEST DUP3 DUP2 DUP4 CALLDATACOPY PUSH0 DUP4 DUP4 ADD MSTORE POP POP POP JUMP JUMPDEST PUSH0 PUSH2 0x178C PUSH2 0x1787 DUP5 PUSH2 0x173C JUMP JUMPDEST PUSH2 0x1722 JUMP JUMPDEST SWAP1 POP DUP3 DUP2 MSTORE PUSH1 0x20 DUP2 ADD DUP5 DUP5 DUP5 ADD GT ISZERO PUSH2 0x17A8 JUMPI PUSH2 0x17A7 PUSH2 0x16B0 JUMP JUMPDEST JUMPDEST PUSH2 0x17B3 DUP5 DUP3 DUP6 PUSH2 0x176C JUMP JUMPDEST POP SWAP4 SWAP3 POP POP POP JUMP JUMPDEST PUSH0 DUP3 PUSH1 0x1F DUP4 ADD SLT PUSH2 0x17CF JUMPI PUSH2 0x17CE PUSH2 0x16AC JUMP JUMPDEST JUMPDEST DUP2 CALLDATALOAD PUSH2 0x17DF DUP5 DUP3 PUSH1 0x20 DUP7 ADD PUSH2 0x177A JUMP JUMPDEST SWAP2 POP POP SWAP3 SWAP2 POP POP JUMP JUMPDEST PUSH2 0x17F1 DUP2 PUSH2 0x15B2 JUMP JUMPDEST DUP2 EQ PUSH2 0x17FB JUMPI PUSH0 DUP1 REVERT JUMPDEST POP JUMP JUMPDEST PUSH0 DUP2 CALLDATALOAD SWAP1 POP PUSH2 0x180C DUP2 PUSH2 0x17E8 JUMP JUMPDEST SWAP3 SWAP2 POP POP JUMP JUMPDEST PUSH0 DUP1 PUSH1 0x40 DUP4 DUP6 SUB SLT ISZERO PUSH2 0x1828 JUMPI PUSH2 0x1827 PUSH2 0x15EC JUMP JUMPDEST JUMPDEST PUSH0 DUP4 ADD CALLDATALOAD PUSH8 0xFFFFFFFFFFFFFFFF DUP2 GT ISZERO PUSH2 0x1845 JUMPI PUSH2 0x1844 PUSH2 0x15F0 JUMP JUMPDEST JUMPDEST PUSH2 0x1851 DUP6 DUP3 DUP7 ADD PUSH2 0x17BB JUMP JUMPDEST SWAP3 POP POP PUSH1 0x20 PUSH2 0x1862 DUP6 DUP3 DUP7 ADD PUSH2 0x17FE JUMP JUMPDEST SWAP2 POP POP SWAP3 POP SWAP3 SWAP1 POP JUMP JUMPDEST PUSH0 DUP2 SWAP1 POP SWAP2 SWAP1 POP JUMP JUMPDEST PUSH0 PUSH2 0x188F PUSH2 0x188A PUSH2 0x1885 DUP5 PUSH2 0x15F4 JUMP JUMPDEST PUSH2 0x186C JUMP JUMPDEST PUSH2 0x15F4 JUMP JUMPDEST SWAP1 POP SWAP2 SWAP1 POP JUMP JUMPDEST PUSH0 PUSH2 0x18A0 DUP3 PUSH2 0x1875 JUMP JUMPDEST SWAP1 POP SWAP2 SWAP1 POP JUMP JUMPDEST PUSH0 PUSH2 0x18B1 DUP3 PUSH2 0x1896 JUMP JUMPDEST SWAP1 POP SWAP2 SWAP1 POP JUMP JUMPDEST PUSH2 0x18C1 DUP2 PUSH2 0x18A7 JUMP JUMPDEST DUP3 MSTORE POP POP JUMP JUMPDEST PUSH0 PUSH1 0x20 DUP3 ADD SWAP1 POP PUSH2 0x18DA PUSH0 DUP4 ADD DUP5 PUSH2 0x18B8 JUMP JUMPDEST SWAP3 SWAP2 POP POP JUMP JUMPDEST PUSH0 DUP2 SWAP1 POP SWAP2 SWAP1 POP JUMP JUMPDEST PUSH2 0x18F2 DUP2 PUSH2 0x18E0 JUMP JUMPDEST DUP2 EQ PUSH2 0x18FC JUMPI PUSH0 DUP1 REVERT JUMPDEST POP JUMP JUMPDEST PUSH0 DUP2 CALLDATALOAD SWAP1 POP PUSH2 0x190D DUP2 PUSH2 0x18E9 JUMP JUMPDEST SWAP3 SWAP2 POP POP JUMP JUMPDEST PUSH0 PUSH1 0x20 DUP3 DUP5 SUB SLT ISZERO PUSH2 0x1928 JUMPI PUSH2 0x1927 PUSH2 0x15EC JUMP JUMPDEST JUMPDEST PUSH0 PUSH2 0x1935 DUP5 DUP3 DUP6 ADD PUSH2 0x18FF JUMP JUMPDEST SWAP2 POP POP SWAP3 SWAP2 POP POP JUMP JUMPDEST PUSH0 PUSH1 0x20 DUP3 DUP5 SUB SLT ISZERO PUSH2 0x1953 JUMPI PUSH2 0x1952 PUSH2 0x15EC JUMP JUMPDEST JUMPDEST PUSH0 PUSH2 0x1960 DUP5 DUP3 DUP6 ADD PUSH2 0x17FE JUMP JUMPDEST SWAP2 POP POP SWAP3 SWAP2 POP POP JUMP JUMPDEST PUSH2 0x1972 DUP2 PUSH2 0x1613 JUMP JUMPDEST DUP3 MSTORE POP POP JUMP JUMPDEST PUSH0 PUSH1 0x20 DUP3 ADD SWAP1 POP PUSH2 0x198B PUSH0 DUP4 ADD DUP5 PUSH2 0x1969 JUMP JUMPDEST SWAP3 SWAP2 POP POP JUMP JUMPDEST PUSH32 0x4E487B7100000000000000000000000000000000000000000000000000000000 PUSH0 MSTORE PUSH1 0x32 PUSH1 0x4 MSTORE PUSH1 0x24 PUSH0 REVERT JUMPDEST PUSH0 DUP3 DUP3 MSTORE PUSH1 0x20 DUP3 ADD SWAP1 POP SWAP3 SWAP2 POP POP JUMP JUMPDEST PUSH32 0x4E6F7420616E20616C6C6F776564206163636F756E742E000000000000000000 PUSH0 DUP3 ADD MSTORE POP JUMP JUMPDEST PUSH0 PUSH2 0x1A02 PUSH1 0x17 DUP4 PUSH2 0x19BE JUMP JUMPDEST SWAP2 POP PUSH2 0x1A0D DUP3 PUSH2 0x19CE JUMP JUMPDEST PUSH1 0x20 DUP3 ADD SWAP1 POP SWAP2 SWAP1 POP JUMP JUMPDEST PUSH0 PUSH1 0x20 DUP3 ADD SWAP1 POP DUP2 DUP2 SUB PUSH0 DUP4 ADD MSTORE PUSH2 0x1A2F DUP2 PUSH2 0x19F6 JUMP JUMPDEST SWAP1 POP SWAP2 SWAP1 POP JUMP JUMPDEST PUSH32 0x416C7265616479203220706C61796572732E0000000000000000000000000000 PUSH0 DUP3 ADD MSTORE POP JUMP JUMPDEST PUSH0 PUSH2 0x1A6A PUSH1 0x12 DUP4 PUSH2 0x19BE JUMP JUMPDEST SWAP2 POP PUSH2 0x1A75 DUP3 PUSH2 0x1A36 JUMP JUMPDEST PUSH1 0x20 DUP3 ADD SWAP1 POP SWAP2 SWAP1 POP JUMP JUMPDEST PUSH0 PUSH1 0x20 DUP3 ADD SWAP1 POP DUP2 DUP2 SUB PUSH0 DUP4 ADD MSTORE PUSH2 0x1A97 DUP2 PUSH2 0x1A5E JUMP JUMPDEST SWAP1 POP SWAP2 SWAP1 POP JUMP JUMPDEST PUSH32 0x4D7573742073656E642031204554482E00000000000000000000000000000000 PUSH0 DUP3 ADD MSTORE POP JUMP JUMPDEST PUSH0 PUSH2 0x1AD2 PUSH1 0x10 DUP4 PUSH2 0x19BE JUMP JUMPDEST SWAP2 POP PUSH2 0x1ADD DUP3 PUSH2 0x1A9E JUMP JUMPDEST PUSH1 0x20 DUP3 ADD SWAP1 POP SWAP2 SWAP1 POP JUMP JUMPDEST PUSH0 PUSH1 0x20 DUP3 ADD SWAP1 POP DUP2 DUP2 SUB PUSH0 DUP4 ADD MSTORE PUSH2 0x1AFF DUP2 PUSH2 0x1AC6 JUMP JUMPDEST SWAP1 POP SWAP2 SWAP1 POP JUMP JUMPDEST PUSH32 0x4E487B7100000000000000000000000000000000000000000000000000000000 PUSH0 MSTORE PUSH1 0x11 PUSH1 0x4 MSTORE PUSH1 0x24 PUSH0 REVERT JUMPDEST PUSH0 PUSH2 0x1B3D DUP3 PUSH2 0x15B2 JUMP JUMPDEST SWAP2 POP PUSH2 0x1B48 DUP4 PUSH2 0x15B2 JUMP JUMPDEST SWAP3 POP DUP3 DUP3 ADD SWAP1 POP DUP1 DUP3 GT ISZERO PUSH2 0x1B60 JUMPI PUSH2 0x1B5F PUSH2 0x1B06 JUMP JUMPDEST JUMPDEST SWAP3 SWAP2 POP POP JUMP JUMPDEST PUSH0 PUSH2 0x1B70 DUP3 PUSH2 0x15B2 JUMP JUMPDEST SWAP2 POP PUSH32 0xFFFFFFFFFFFFFFFFFFFFFFFFFFFFFFFFFFFFFFFFFFFFFFFFFFFFFFFFFFFFFFFF DUP3 SUB PUSH2 0x1BA2 JUMPI PUSH2 0x1BA1 PUSH2 0x1B06 JUMP JUMPDEST JUMPDEST PUSH1 0x1 DUP3 ADD SWAP1 POP SWAP2 SWAP1 POP JUMP JUMPDEST PUSH0 PUSH2 0x1BB7 DUP3 PUSH2 0x15B2 JUMP JUMPDEST SWAP2 POP PUSH2 0x1BC2 DUP4 PUSH2 0x15B2 JUMP JUMPDEST SWAP3 POP DUP3 DUP3 SUB SWAP1 POP DUP2 DUP2 GT ISZERO PUSH2 0x1BDA JUMPI PUSH2 0x1BD9 PUSH2 0x1B06 JUMP JUMPDEST JUMPDEST SWAP3 SWAP2 POP POP JUMP JUMPDEST PUSH32 0x4E6F206163746976652067616D652E0000000000000000000000000000000000 PUSH0 DUP3 ADD MSTORE POP JUMP JUMPDEST PUSH0 PUSH2 0x1C14 PUSH1 0xF DUP4 PUSH2 0x19BE JUMP JUMPDEST SWAP2 POP PUSH2 0x1C1F DUP3 PUSH2 0x1BE0 JUMP JUMPDEST PUSH1 0x20 DUP3 ADD SWAP1 POP SWAP2 SWAP1 POP JUMP JUMPDEST PUSH0 PUSH1 0x20 DUP3 ADD SWAP1 POP DUP2 DUP2 SUB PUSH0 DUP4 ADD MSTORE PUSH2 0x1C41 DUP2 PUSH2 0x1C08 JUMP JUMPDEST SWAP1 POP SWAP2 SWAP1 POP JUMP JUMPDEST PUSH32 0x4E6F2072657761726420617661696C61626C652E000000000000000000000000 PUSH0 DUP3 ADD MSTORE POP JUMP JUMPDEST PUSH0 PUSH2 0x1C7C PUSH1 0x14 DUP4 PUSH2 0x19BE JUMP JUMPDEST SWAP2 POP PUSH2 0x1C87 DUP3 PUSH2 0x1C48 JUMP JUMPDEST PUSH1 0x20 DUP3 ADD SWAP1 POP SWAP2 SWAP1 POP JUMP JUMPDEST PUSH0 PUSH1 0x20 DUP3 ADD SWAP1 POP DUP2 DUP2 SUB PUSH0 DUP4 ADD MSTORE PUSH2 0x1CA9 DUP2 PUSH2 0x1C70 JUMP JUMPDEST SWAP1 POP SWAP2 SWAP1 POP JUMP JUMPDEST PUSH32 0x4F6E6C7920706C617965722063616E20726566756E642E000000000000000000 PUSH0 DUP3 ADD MSTORE POP JUMP JUMPDEST PUSH0 PUSH2 0x1CE4 PUSH1 0x17 DUP4 PUSH2 0x19BE JUMP JUMPDEST SWAP2 POP PUSH2 0x1CEF DUP3 PUSH2 0x1CB0 JUMP JUMPDEST PUSH1 0x20 DUP3 ADD SWAP1 POP SWAP2 SWAP1 POP JUMP JUMPDEST PUSH0 PUSH1 0x20 DUP3 ADD SWAP1 POP DUP2 DUP2 SUB PUSH0 DUP4 ADD MSTORE PUSH2 0x1D11 DUP2 PUSH2 0x1CD8 JUMP JUMPDEST SWAP1 POP SWAP2 SWAP1 POP JUMP JUMPDEST PUSH32 0x4F6E6C7920706C61796572732063616E20726566756E642E0000000000000000 PUSH0 DUP3 ADD MSTORE POP JUMP JUMPDEST PUSH0 PUSH2 0x1D4C PUSH1 0x18 DUP4 PUSH2 0x19BE JUMP JUMPDEST SWAP2 POP PUSH2 0x1D57 DUP3 PUSH2 0x1D18 JUMP JUMPDEST PUSH1 0x20 DUP3 ADD SWAP1 POP SWAP2 SWAP1 POP JUMP JUMPDEST PUSH0 PUSH1 0x20 DUP3 ADD SWAP1 POP DUP2 DUP2 SUB PUSH0 DUP4 ADD MSTORE PUSH2 0x1D79 DUP2 PUSH2 0x1D40 JUMP JUMPDEST SWAP1 POP SWAP2 SWAP1 POP JUMP JUMPDEST PUSH32 0x4E487B7100000000000000000000000000000000000000000000000000000000 PUSH0 MSTORE PUSH1 0x12 PUSH1 0x4 MSTORE PUSH1 0x24 PUSH0 REVERT JUMPDEST PUSH0 PUSH2 0x1DB7 DUP3 PUSH2 0x15B2 JUMP JUMPDEST SWAP2 POP PUSH2 0x1DC2 DUP4 PUSH2 0x15B2 JUMP JUMPDEST SWAP3 POP DUP3 PUSH2 0x1DD2 JUMPI PUSH2 0x1DD1 PUSH2 0x1D80 JUMP JUMPDEST JUMPDEST DUP3 DUP3 DIV SWAP1 POP SWAP3 SWAP2 POP POP JUMP JUMPDEST PUSH32 0x4E6F742072656769737465726564206F7220616C72656164792072657665616C PUSH0 DUP3 ADD MSTORE PUSH32 0x65642E0000000000000000000000000000000000000000000000000000000000 PUSH1 0x20 DUP3 ADD MSTORE POP JUMP JUMPDEST PUSH0 PUSH2 0x1E37 PUSH1 0x23 DUP4 PUSH2 0x19BE JUMP JUMPDEST SWAP2 POP PUSH2 0x1E42 DUP3 PUSH2 0x1DDD JUMP JUMPDEST PUSH1 0x40 DUP3 ADD SWAP1 POP SWAP2 SWAP1 POP JUMP JUMPDEST PUSH0 PUSH1 0x20 DUP3 ADD SWAP1 POP DUP2 DUP2 SUB PUSH0 DUP4 ADD MSTORE PUSH2 0x1E64 DUP2 PUSH2 0x1E2B JUMP JUMPDEST SWAP1 POP SWAP2 SWAP1 POP JUMP JUMPDEST PUSH0 DUP2 MLOAD SWAP1 POP SWAP2 SWAP1 POP JUMP JUMPDEST DUP3 DUP2 DUP4 MCOPY PUSH0 DUP4 DUP4 ADD MSTORE POP POP POP JUMP JUMPDEST PUSH0 PUSH2 0x1E8D DUP3 PUSH2 0x1E6B JUMP JUMPDEST PUSH2 0x1E97 DUP2 DUP6 PUSH2 0x19BE JUMP JUMPDEST SWAP4 POP PUSH2 0x1EA7 DUP2 DUP6 PUSH1 0x20 DUP7 ADD PUSH2 0x1E75 JUMP JUMPDEST PUSH2 0x1EB0 DUP2 PUSH2 0x16B4 JUMP JUMPDEST DUP5 ADD SWAP2 POP POP SWAP3 SWAP2 POP POP JUMP JUMPDEST PUSH0 PUSH1 0x40 DUP3 ADD SWAP1 POP DUP2 DUP2 SUB PUSH0 DUP4 ADD MSTORE PUSH2 0x1ED3 DUP2 DUP6 PUSH2 0x1E83 JUMP JUMPDEST SWAP1 POP PUSH2 0x1EE2 PUSH1 0x20 DUP4 ADD DUP5 PUSH2 0x15BB JUMP JUMPDEST SWAP4 SWAP3 POP POP POP JUMP JUMPDEST PUSH2 0x1EF2 DUP2 PUSH2 0x1679 JUMP JUMPDEST DUP2 EQ PUSH2 0x1EFC JUMPI PUSH0 DUP1 REVERT JUMPDEST POP JUMP JUMPDEST PUSH0 DUP2 MLOAD SWAP1 POP PUSH2 0x1F0D DUP2 PUSH2 0x1EE9 JUMP JUMPDEST SWAP3 SWAP2 POP POP JUMP JUMPDEST PUSH0 PUSH1 0x20 DUP3 DUP5 SUB SLT ISZERO PUSH2 0x1F28 JUMPI PUSH2 0x1F27 PUSH2 0x15EC JUMP JUMPDEST JUMPDEST PUSH0 PUSH2 0x1F35 DUP5 DUP3 DUP6 ADD PUSH2 0x1EFF JUMP JUMPDEST SWAP2 POP POP SWAP3 SWAP2 POP POP JUMP JUMPDEST PUSH32 0x496E76616C69642072657665616C2E0000000000000000000000000000000000 PUSH0 DUP3 ADD MSTORE POP JUMP JUMPDEST PUSH0 PUSH2 0x1F72 PUSH1 0xF DUP4 PUSH2 0x19BE JUMP JUMPDEST SWAP2 POP PUSH2 0x1F7D DUP3 PUSH2 0x1F3E JUMP JUMPDEST PUSH1 0x20 DUP3 ADD SWAP1 POP SWAP2 SWAP1 POP JUMP JUMPDEST PUSH0 PUSH1 0x20 DUP3 ADD SWAP1 POP DUP2 DUP2 SUB PUSH0 DUP4 ADD MSTORE PUSH2 0x1F9F DUP2 PUSH2 0x1F66 JUMP JUMPDEST SWAP1 POP SWAP2 SWAP1 POP JUMP JUMPDEST PUSH32 0x4E6F742072656769737465726564206F7220616C726561647920636F6D6D6974 PUSH0 DUP3 ADD MSTORE PUSH32 0x7465642E00000000000000000000000000000000000000000000000000000000 PUSH1 0x20 DUP3 ADD MSTORE POP JUMP JUMPDEST PUSH0 PUSH2 0x2000 PUSH1 0x24 DUP4 PUSH2 0x19BE JUMP JUMPDEST SWAP2 POP PUSH2 0x200B DUP3 PUSH2 0x1FA6 JUMP JUMPDEST PUSH1 0x40 DUP3 ADD SWAP1 POP SWAP2 SWAP1 POP JUMP JUMPDEST PUSH0 PUSH1 0x20 DUP3 ADD SWAP1 POP DUP2 DUP2 SUB PUSH0 DUP4 ADD MSTORE PUSH2 0x202D DUP2 PUSH2 0x1FF4 JUMP JUMPDEST SWAP1 POP SWAP2 SWAP1 POP JUMP JUMPDEST PUSH2 0x203D DUP2 PUSH2 0x18E0 JUMP JUMPDEST DUP3 MSTORE POP POP JUMP JUMPDEST PUSH0 PUSH1 0x20 DUP3 ADD SWAP1 POP PUSH2 0x2056 PUSH0 DUP4 ADD DUP5 PUSH2 0x2034 JUMP JUMPDEST SWAP3 SWAP2 POP POP JUMP INVALID LOG2 PUSH5 0x6970667358 0x22 SLT KECCAK256 DUP6 EXTCODEHASH SWAP1 MSTORE 0x2D 0xC1 CREATE 0x2E 0xAA 0xDA CALLCODE ADDRESS DUP7 0x1F COINBASE RETURN MLOAD 0xA6 SWAP16 RETURN BLOCKHASH GASLIMIT XOR SGT SWAP3 PUSH16 0x745F7CDC842C64736F6C634300081A00 CALLER "
				},
				"gasEstimates": {
					"creation": {
						"codeDepositCost": "1667600",
						"executionCost": "infinite",
						"totalCost": "infinite"
					},
					"external": {
						"addPlayer()": "infinite",
						"commit(bytes32)": "infinite",
						"commitContract()": "infinite",
						"delayTime()": "392",
						"elapsedSeconds()": "infinite",
						"isTimeout()": "infinite",
						"latestActionTime()": "2447",
						"numInput()": "2449",
						"numPlayer()": "2514",
						"player_choice(address)": "2824",
						"player_not_played(address)": "2879",
						"players(uint256)": "5032",
						"refund()": "infinite",
						"reveal(string,uint256)": "infinite",
						"reward()": "2493"
					},
					"internal": {
						"_checkWinnerAndPay()": "infinite",
						"_isWinner(uint256,uint256)": "440",
						"_resetGame()": "infinite"
					}
				},
				"methodIdentifiers": {
					"addPlayer()": "27b5db8a",
					"commit(bytes32)": "f14fcbc8",
					"commitContract()": "7df9aefb",
					"delayTime()": "7e2eee53",
					"elapsedSeconds()": "bc06b8cd",
					"isTimeout()": "32c26957",
					"latestActionTime()": "7bab61bc",
					"numInput()": "086f7815",
					"numPlayer()": "90d5d0c3",
					"player_choice(address)": "a040478d",
					"player_not_played(address)": "190cf745",
					"players(uint256)": "f71d96cb",
					"refund()": "590e1ae3",
					"reveal(string,uint256)": "708b4730",
					"reward()": "228cb733"
				}
			},
			"storageLayout": {
				"storage": [
					{
						"astId": 651,
						"contract": "RPSLS.sol:RPSLS",
						"label": "latestActionTime",
						"offset": 0,
						"slot": "0",
						"type": "t_uint256"
					},
					{
						"astId": 119,
						"contract": "RPSLS.sol:RPSLS",
						"label": "commitContract",
						"offset": 0,
						"slot": "1",
						"type": "t_contract(CommitReveal)110"
					},
					{
						"astId": 122,
						"contract": "RPSLS.sol:RPSLS",
						"label": "numPlayer",
						"offset": 0,
						"slot": "2",
						"type": "t_uint256"
					},
					{
						"astId": 125,
						"contract": "RPSLS.sol:RPSLS",
						"label": "reward",
						"offset": 0,
						"slot": "3",
						"type": "t_uint256"
					},
					{
						"astId": 129,
						"contract": "RPSLS.sol:RPSLS",
						"label": "player_choice",
						"offset": 0,
						"slot": "4",
						"type": "t_mapping(t_address,t_uint256)"
					},
					{
						"astId": 133,
						"contract": "RPSLS.sol:RPSLS",
						"label": "player_not_played",
						"offset": 0,
						"slot": "5",
						"type": "t_mapping(t_address,t_bool)"
					},
					{
						"astId": 136,
						"contract": "RPSLS.sol:RPSLS",
						"label": "players",
						"offset": 0,
						"slot": "6",
						"type": "t_array(t_address)dyn_storage"
					},
					{
						"astId": 139,
						"contract": "RPSLS.sol:RPSLS",
						"label": "numInput",
						"offset": 0,
						"slot": "7",
						"type": "t_uint256"
					},
					{
						"astId": 147,
						"contract": "RPSLS.sol:RPSLS",
						"label": "allowedAccounts",
						"offset": 0,
						"slot": "8",
						"type": "t_array(t_address)dyn_storage"
					}
				],
				"types": {
					"t_address": {
						"encoding": "inplace",
						"label": "address",
						"numberOfBytes": "20"
					},
					"t_array(t_address)dyn_storage": {
						"base": "t_address",
						"encoding": "dynamic_array",
						"label": "address[]",
						"numberOfBytes": "32"
					},
					"t_bool": {
						"encoding": "inplace",
						"label": "bool",
						"numberOfBytes": "1"
					},
					"t_contract(CommitReveal)110": {
						"encoding": "inplace",
						"label": "contract CommitReveal",
						"numberOfBytes": "20"
					},
					"t_mapping(t_address,t_bool)": {
						"encoding": "mapping",
						"key": "t_address",
						"label": "mapping(address => bool)",
						"numberOfBytes": "32",
						"value": "t_bool"
					},
					"t_mapping(t_address,t_uint256)": {
						"encoding": "mapping",
						"key": "t_address",
						"label": "mapping(address => uint256)",
						"numberOfBytes": "32",
						"value": "t_uint256"
					},
					"t_uint256": {
						"encoding": "inplace",
						"label": "uint256",
						"numberOfBytes": "32"
					}
				}
			},
			"userdoc": {
				"kind": "user",
				"methods": {},
				"version": 1
			}
		}
	}
}