{
	"TimeUnit.sol": {
		"TimeUnit": {
			"abi": [
				{
					"inputs": [],
					"name": "delayTime",
					"outputs": [
						{
							"internalType": "uint256",
							"name": "",
							"type": "uint256"
						}
					],
					"stateMutability": "view",
					"type": "function"
				},
				{
					"inputs": [],
					"name": "elapsedSeconds",
					"outputs": [
						{
							"internalType": "uint256",
							"name": "",
							"type": "uint256"
						}
					],
					"stateMutability": "view",
					"type": "function"
				},
				{
					"inputs": [],
					"name": "isTimeout",
					"outputs": [
						{
							"internalType": "bool",
							"name": "",
							"type": "bool"
						}
					],
					"stateMutability": "view",
					"type": "function"
				},
				{
					"inputs": [],
					"name": "latestActionTime",
					"outputs": [
						{
							"internalType": "uint256",
							"name": "",
							"type": "uint256"
						}
					],
					"stateMutability": "view",
					"type": "function"
				}
			],
			"devdoc": {
				"kind": "dev",
				"methods": {},
				"version": 1
			},
			"evm": {
				"assembly": "    /* \"TimeUnit.sol\":72:1015  contract TimeUnit {... */\n  mstore(0x40, 0x80)\n    /* \"TimeUnit.sol\":128:143  block.timestamp */\n  timestamp\n    /* \"TimeUnit.sol\":97:143  uint public latestActionTime = block.timestamp */\n  0x00\n  sstore\n    /* \"TimeUnit.sol\":72:1015  contract TimeUnit {... */\n  callvalue\n  dup1\n  iszero\n  tag_1\n  jumpi\n  0x00\n  dup1\n  revert\ntag_1:\n  pop\n  dataSize(sub_0)\n  dup1\n  dataOffset(sub_0)\n  0x00\n  codecopy\n  0x00\n  return\nstop\n\nsub_0: assembly {\n        /* \"TimeUnit.sol\":72:1015  contract TimeUnit {... */\n      mstore(0x40, 0x80)\n      callvalue\n      dup1\n      iszero\n      tag_1\n      jumpi\n      0x00\n      dup1\n      revert\n    tag_1:\n      pop\n      jumpi(tag_2, lt(calldatasize, 0x04))\n      shr(0xe0, calldataload(0x00))\n      dup1\n      0x32c26957\n      eq\n      tag_3\n      jumpi\n      dup1\n      0x7bab61bc\n      eq\n      tag_4\n      jumpi\n      dup1\n      0x7e2eee53\n      eq\n      tag_5\n      jumpi\n      dup1\n      0xbc06b8cd\n      eq\n      tag_6\n      jumpi\n    tag_2:\n      0x00\n      dup1\n      revert\n        /* \"TimeUnit.sol\":890:1012  function isTimeout() public view returns (bool) {... */\n    tag_3:\n      tag_7\n      tag_8\n      jump\t// in\n    tag_7:\n      mload(0x40)\n      tag_9\n      swap2\n      swap1\n      tag_10\n      jump\t// in\n    tag_9:\n      mload(0x40)\n      dup1\n      swap2\n      sub\n      swap1\n      return\n        /* \"TimeUnit.sol\":97:143  uint public latestActionTime = block.timestamp */\n    tag_4:\n      tag_11\n      tag_12\n      jump\t// in\n    tag_11:\n      mload(0x40)\n      tag_13\n      swap2\n      swap1\n      tag_14\n      jump\t// in\n    tag_13:\n      mload(0x40)\n      dup1\n      swap2\n      sub\n      swap1\n      return\n        /* \"TimeUnit.sol\":150:192  uint public constant delayTime = 1 minutes */\n    tag_5:\n      tag_15\n      tag_16\n      jump\t// in\n    tag_15:\n      mload(0x40)\n      tag_17\n      swap2\n      swap1\n      tag_14\n      jump\t// in\n    tag_17:\n      mload(0x40)\n      dup1\n      swap2\n      sub\n      swap1\n      return\n        /* \"TimeUnit.sol\":646:762  function elapsedSeconds() public view returns (uint256) {... */\n    tag_6:\n      tag_18\n      tag_19\n      jump\t// in\n    tag_18:\n      mload(0x40)\n      tag_20\n      swap2\n      swap1\n      tag_14\n      jump\t// in\n    tag_20:\n      mload(0x40)\n      dup1\n      swap2\n      sub\n      swap1\n      return\n        /* \"TimeUnit.sol\":890:1012  function isTimeout() public view returns (bool) {... */\n    tag_8:\n        /* \"TimeUnit.sol\":932:936  bool */\n      0x00\n        /* \"TimeUnit.sol\":183:192  1 minutes */\n      0x3c\n        /* \"TimeUnit.sol\":975:991  latestActionTime */\n      sload(0x00)\n        /* \"TimeUnit.sol\":957:972  block.timestamp */\n      timestamp\n        /* \"TimeUnit.sol\":957:991  block.timestamp - latestActionTime */\n      tag_22\n      swap2\n      swap1\n      tag_23\n      jump\t// in\n    tag_22:\n        /* \"TimeUnit.sol\":956:1004  (block.timestamp - latestActionTime) > delayTime */\n      gt\n        /* \"TimeUnit.sol\":949:1004  return (block.timestamp - latestActionTime) > delayTime */\n      swap1\n      pop\n        /* \"TimeUnit.sol\":890:1012  function isTimeout() public view returns (bool) {... */\n      swap1\n      jump\t// out\n        /* \"TimeUnit.sol\":97:143  uint public latestActionTime = block.timestamp */\n    tag_12:\n      sload(0x00)\n      dup2\n      jump\t// out\n        /* \"TimeUnit.sol\":150:192  uint public constant delayTime = 1 minutes */\n    tag_16:\n        /* \"TimeUnit.sol\":183:192  1 minutes */\n      0x3c\n        /* \"TimeUnit.sol\":150:192  uint public constant delayTime = 1 minutes */\n      dup2\n      jump\t// out\n        /* \"TimeUnit.sol\":646:762  function elapsedSeconds() public view returns (uint256) {... */\n    tag_19:\n        /* \"TimeUnit.sol\":693:700  uint256 */\n      0x00\n        /* \"TimeUnit.sol\":738:754  latestActionTime */\n      dup1\n      sload\n        /* \"TimeUnit.sol\":720:735  block.timestamp */\n      timestamp\n        /* \"TimeUnit.sol\":720:754  block.timestamp - latestActionTime */\n      tag_25\n      swap2\n      swap1\n      tag_23\n      jump\t// in\n    tag_25:\n        /* \"TimeUnit.sol\":713:754  return block.timestamp - latestActionTime */\n      swap1\n      pop\n        /* \"TimeUnit.sol\":646:762  function elapsedSeconds() public view returns (uint256) {... */\n      swap1\n      jump\t// out\n        /* \"#utility.yul\":7:97   */\n    tag_26:\n        /* \"#utility.yul\":41:48   */\n      0x00\n        /* \"#utility.yul\":84:89   */\n      dup2\n        /* \"#utility.yul\":77:90   */\n      iszero\n        /* \"#utility.yul\":70:91   */\n      iszero\n        /* \"#utility.yul\":59:91   */\n      swap1\n      pop\n        /* \"#utility.yul\":7:97   */\n      swap2\n      swap1\n      pop\n      jump\t// out\n        /* \"#utility.yul\":103:212   */\n    tag_27:\n        /* \"#utility.yul\":184:205   */\n      tag_34\n        /* \"#utility.yul\":199:204   */\n      dup2\n        /* \"#utility.yul\":184:205   */\n      tag_26\n      jump\t// in\n    tag_34:\n        /* \"#utility.yul\":179:182   */\n      dup3\n        /* \"#utility.yul\":172:206   */\n      mstore\n        /* \"#utility.yul\":103:212   */\n      pop\n      pop\n      jump\t// out\n        /* \"#utility.yul\":218:428   */\n    tag_10:\n        /* \"#utility.yul\":305:309   */\n      0x00\n        /* \"#utility.yul\":343:345   */\n      0x20\n        /* \"#utility.yul\":332:341   */\n      dup3\n        /* \"#utility.yul\":328:346   */\n      add\n        /* \"#utility.yul\":320:346   */\n      swap1\n      pop\n        /* \"#utility.yul\":356:421   */\n      tag_36\n        /* \"#utility.yul\":418:419   */\n      0x00\n        /* \"#utility.yul\":407:416   */\n      dup4\n        /* \"#utility.yul\":403:420   */\n      add\n        /* \"#utility.yul\":394:400   */\n      dup5\n        /* \"#utility.yul\":356:421   */\n      tag_27\n      jump\t// in\n    tag_36:\n        /* \"#utility.yul\":218:428   */\n      swap3\n      swap2\n      pop\n      pop\n      jump\t// out\n        /* \"#utility.yul\":434:511   */\n    tag_28:\n        /* \"#utility.yul\":471:478   */\n      0x00\n        /* \"#utility.yul\":500:505   */\n      dup2\n        /* \"#utility.yul\":489:505   */\n      swap1\n      pop\n        /* \"#utility.yul\":434:511   */\n      swap2\n      swap1\n      pop\n      jump\t// out\n        /* \"#utility.yul\":517:635   */\n    tag_29:\n        /* \"#utility.yul\":604:628   */\n      tag_39\n        /* \"#utility.yul\":622:627   */\n      dup2\n        /* \"#utility.yul\":604:628   */\n      tag_28\n      jump\t// in\n    tag_39:\n        /* \"#utility.yul\":599:602   */\n      dup3\n        /* \"#utility.yul\":592:629   */\n      mstore\n        /* \"#utility.yul\":517:635   */\n      pop\n      pop\n      jump\t// out\n        /* \"#utility.yul\":641:863   */\n    tag_14:\n        /* \"#utility.yul\":734:738   */\n      0x00\n        /* \"#utility.yul\":772:774   */\n      0x20\n        /* \"#utility.yul\":761:770   */\n      dup3\n        /* \"#utility.yul\":757:775   */\n      add\n        /* \"#utility.yul\":749:775   */\n      swap1\n      pop\n        /* \"#utility.yul\":785:856   */\n      tag_41\n        /* \"#utility.yul\":853:854   */\n      0x00\n        /* \"#utility.yul\":842:851   */\n      dup4\n        /* \"#utility.yul\":838:855   */\n      add\n        /* \"#utility.yul\":829:835   */\n      dup5\n        /* \"#utility.yul\":785:856   */\n      tag_29\n      jump\t// in\n    tag_41:\n        /* \"#utility.yul\":641:863   */\n      swap3\n      swap2\n      pop\n      pop\n      jump\t// out\n        /* \"#utility.yul\":869:1049   */\n    tag_30:\n        /* \"#utility.yul\":917:994   */\n      0x4e487b7100000000000000000000000000000000000000000000000000000000\n        /* \"#utility.yul\":914:915   */\n      0x00\n        /* \"#utility.yul\":907:995   */\n      mstore\n        /* \"#utility.yul\":1014:1018   */\n      0x11\n        /* \"#utility.yul\":1011:1012   */\n      0x04\n        /* \"#utility.yul\":1004:1019   */\n      mstore\n        /* \"#utility.yul\":1038:1042   */\n      0x24\n        /* \"#utility.yul\":1035:1036   */\n      0x00\n        /* \"#utility.yul\":1028:1043   */\n      revert\n        /* \"#utility.yul\":1055:1249   */\n    tag_23:\n        /* \"#utility.yul\":1095:1099   */\n      0x00\n        /* \"#utility.yul\":1115:1135   */\n      tag_44\n        /* \"#utility.yul\":1133:1134   */\n      dup3\n        /* \"#utility.yul\":1115:1135   */\n      tag_28\n      jump\t// in\n    tag_44:\n        /* \"#utility.yul\":1110:1135   */\n      swap2\n      pop\n        /* \"#utility.yul\":1149:1169   */\n      tag_45\n        /* \"#utility.yul\":1167:1168   */\n      dup4\n        /* \"#utility.yul\":1149:1169   */\n      tag_28\n      jump\t// in\n    tag_45:\n        /* \"#utility.yul\":1144:1169   */\n      swap3\n      pop\n        /* \"#utility.yul\":1193:1194   */\n      dup3\n        /* \"#utility.yul\":1190:1191   */\n      dup3\n        /* \"#utility.yul\":1186:1195   */\n      sub\n        /* \"#utility.yul\":1178:1195   */\n      swap1\n      pop\n        /* \"#utility.yul\":1217:1218   */\n      dup2\n        /* \"#utility.yul\":1211:1215   */\n      dup2\n        /* \"#utility.yul\":1208:1219   */\n      gt\n        /* \"#utility.yul\":1205:1242   */\n      iszero\n      tag_46\n      jumpi\n        /* \"#utility.yul\":1222:1240   */\n      tag_47\n      tag_30\n      jump\t// in\n    tag_47:\n        /* \"#utility.yul\":1205:1242   */\n    tag_46:\n        /* \"#utility.yul\":1055:1249   */\n      swap3\n      swap2\n      pop\n      pop\n      jump\t// out\n\n    auxdata: 0xa264697066735822122019fb60ef5ef5112e25bceffc69d5ad876c6c38af0015c7dd0c3f9910564c5e4e64736f6c634300081a0033\n}\n",
				"bytecode": {
					"linkReferences": {},
					"object": "6080604052425f553480156011575f80fd5b506101f38061001f5f395ff3fe608060405234801561000f575f80fd5b506004361061004a575f3560e01c806332c269571461004e5780637bab61bc1461006c5780637e2eee531461008a578063bc06b8cd146100a8575b5f80fd5b6100566100c6565b6040516100639190610113565b60405180910390f35b6100746100dc565b6040516100819190610144565b60405180910390f35b6100926100e1565b60405161009f9190610144565b60405180910390f35b6100b06100e6565b6040516100bd9190610144565b60405180910390f35b5f603c5f54426100d6919061018a565b11905090565b5f5481565b603c81565b5f8054426100f4919061018a565b905090565b5f8115159050919050565b61010d816100f9565b82525050565b5f6020820190506101265f830184610104565b92915050565b5f819050919050565b61013e8161012c565b82525050565b5f6020820190506101575f830184610135565b92915050565b7f4e487b71000000000000000000000000000000000000000000000000000000005f52601160045260245ffd5b5f6101948261012c565b915061019f8361012c565b92508282039050818111156101b7576101b661015d565b5b9291505056fea264697066735822122019fb60ef5ef5112e25bceffc69d5ad876c6c38af0015c7dd0c3f9910564c5e4e64736f6c634300081a0033",
					"opcodes": "PUSH1 0x80 PUSH1 0x40 MSTORE TIMESTAMP PUSH0 SSTORE CALLVALUE DUP1 ISZERO PUSH1 0x11 JUMPI PUSH0 DUP1 REVERT JUMPDEST POP PUSH2 0x1F3 DUP1 PUSH2 0x1F PUSH0 CODECOPY PUSH0 RETURN INVALID PUSH1 0x80 PUSH1 0x40 MSTORE CALLVALUE DUP1 ISZERO PUSH2 0xF JUMPI PUSH0 DUP1 REVERT JUMPDEST POP PUSH1 0x4 CALLDATASIZE LT PUSH2 0x4A JUMPI PUSH0 CALLDATALOAD PUSH1 0xE0 SHR DUP1 PUSH4 0x32C26957 EQ PUSH2 0x4E JUMPI DUP1 PUSH4 0x7BAB61BC EQ PUSH2 0x6C JUMPI DUP1 PUSH4 0x7E2EEE53 EQ PUSH2 0x8A JUMPI DUP1 PUSH4 0xBC06B8CD EQ PUSH2 0xA8 JUMPI JUMPDEST PUSH0 DUP1 REVERT JUMPDEST PUSH2 0x56 PUSH2 0xC6 JUMP JUMPDEST PUSH1 0x40 MLOAD PUSH2 0x63 SWAP2 SWAP1 PUSH2 0x113 JUMP JUMPDEST PUSH1 0x40 MLOAD DUP1 SWAP2 SUB SWAP1 RETURN JUMPDEST PUSH2 0x74 PUSH2 0xDC JUMP JUMPDEST PUSH1 0x40 MLOAD PUSH2 0x81 SWAP2 SWAP1 PUSH2 0x144 JUMP JUMPDEST PUSH1 0x40 MLOAD DUP1 SWAP2 SUB SWAP1 RETURN JUMPDEST PUSH2 0x92 PUSH2 0xE1 JUMP JUMPDEST PUSH1 0x40 MLOAD PUSH2 0x9F SWAP2 SWAP1 PUSH2 0x144 JUMP JUMPDEST PUSH1 0x40 MLOAD DUP1 SWAP2 SUB SWAP1 RETURN JUMPDEST PUSH2 0xB0 PUSH2 0xE6 JUMP JUMPDEST PUSH1 0x40 MLOAD PUSH2 0xBD SWAP2 SWAP1 PUSH2 0x144 JUMP JUMPDEST PUSH1 0x40 MLOAD DUP1 SWAP2 SUB SWAP1 RETURN JUMPDEST PUSH0 PUSH1 0x3C PUSH0 SLOAD TIMESTAMP PUSH2 0xD6 SWAP2 SWAP1 PUSH2 0x18A JUMP JUMPDEST GT SWAP1 POP SWAP1 JUMP JUMPDEST PUSH0 SLOAD DUP2 JUMP JUMPDEST PUSH1 0x3C DUP2 JUMP JUMPDEST PUSH0 DUP1 SLOAD TIMESTAMP PUSH2 0xF4 SWAP2 SWAP1 PUSH2 0x18A JUMP JUMPDEST SWAP1 POP SWAP1 JUMP JUMPDEST PUSH0 DUP2 ISZERO ISZERO SWAP1 POP SWAP2 SWAP1 POP JUMP JUMPDEST PUSH2 0x10D DUP2 PUSH2 0xF9 JUMP JUMPDEST DUP3 MSTORE POP POP JUMP JUMPDEST PUSH0 PUSH1 0x20 DUP3 ADD SWAP1 POP PUSH2 0x126 PUSH0 DUP4 ADD DUP5 PUSH2 0x104 JUMP JUMPDEST SWAP3 SWAP2 POP POP JUMP JUMPDEST PUSH0 DUP2 SWAP1 POP SWAP2 SWAP1 POP JUMP JUMPDEST PUSH2 0x13E DUP2 PUSH2 0x12C JUMP JUMPDEST DUP3 MSTORE POP POP JUMP JUMPDEST PUSH0 PUSH1 0x20 DUP3 ADD SWAP1 POP PUSH2 0x157 PUSH0 DUP4 ADD DUP5 PUSH2 0x135 JUMP JUMPDEST SWAP3 SWAP2 POP POP JUMP JUMPDEST PUSH32 0x4E487B7100000000000000000000000000000000000000000000000000000000 PUSH0 MSTORE PUSH1 0x11 PUSH1 0x4 MSTORE PUSH1 0x24 PUSH0 REVERT JUMPDEST PUSH0 PUSH2 0x194 DUP3 PUSH2 0x12C JUMP JUMPDEST SWAP2 POP PUSH2 0x19F DUP4 PUSH2 0x12C JUMP JUMPDEST SWAP3 POP DUP3 DUP3 SUB SWAP1 POP DUP2 DUP2 GT ISZERO PUSH2 0x1B7 JUMPI PUSH2 0x1B6 PUSH2 0x15D JUMP JUMPDEST JUMPDEST SWAP3 SWAP2 POP POP JUMP INVALID LOG2 PUSH5 0x6970667358 0x22 SLT KECCAK256 NOT 0xFB PUSH1 0xEF MCOPY CREATE2 GT 0x2E 0x25 0xBC 0xEF 0xFC PUSH10 0xD5AD876C6C38AF0015C7 0xDD 0xC EXTCODEHASH SWAP10 LT JUMP 0x4C MCOPY 0x4E PUSH5 0x736F6C6343 STOP ADDMOD BYTE STOP CALLER "
				},
				"gasEstimates": {
					"creation": {
						"codeDepositCost": "99800",
						"executionCost": "22249",
						"totalCost": "122049"
					},
					"external": {
						"delayTime()": "347",
						"elapsedSeconds()": "infinite",
						"isTimeout()": "infinite",
						"latestActionTime()": "2424"
					},
					"internal": {
						"updateActionTime()": "infinite"
					}
				},
				"methodIdentifiers": {
					"delayTime()": "7e2eee53",
					"elapsedSeconds()": "bc06b8cd",
					"isTimeout()": "32c26957",
					"latestActionTime()": "7bab61bc"
				}
			},
			"storageLayout": {
				"storage": [
					{
						"astId": 5,
						"contract": "TimeUnit.sol:TimeUnit",
						"label": "latestActionTime",
						"offset": 0,
						"slot": "0",
						"type": "t_uint256"
					}
				],
				"types": {
					"t_uint256": {
						"encoding": "inplace",
						"label": "uint256",
						"numberOfBytes": "32"
					}
				}
			},
			"userdoc": {
				"kind": "user",
				"methods": {},
				"version": 1
			}
		}
	}
}