{
	"RPSLS.sol": {
		"RPSLP": {
			"abi": [
				{
					"inputs": [],
					"name": "addPlayer",
					"outputs": [],
					"stateMutability": "payable",
					"type": "function"
				},
				{
					"inputs": [
						{
							"internalType": "uint256",
							"name": "choice",
							"type": "uint256"
						}
					],
					"name": "input",
					"outputs": [],
					"stateMutability": "nonpayable",
					"type": "function"
				},
				{
					"inputs": [],
					"name": "numInput",
					"outputs": [
						{
							"internalType": "uint256",
							"name": "",
							"type": "uint256"
						}
					],
					"stateMutability": "view",
					"type": "function"
				},
				{
					"inputs": [],
					"name": "numPlayer",
					"outputs": [
						{
							"internalType": "uint256",
							"name": "",
							"type": "uint256"
						}
					],
					"stateMutability": "view",
					"type": "function"
				},
				{
					"inputs": [
						{
							"internalType": "address",
							"name": "",
							"type": "address"
						}
					],
					"name": "player_choice",
					"outputs": [
						{
							"internalType": "uint256",
							"name": "",
							"type": "uint256"
						}
					],
					"stateMutability": "view",
					"type": "function"
				},
				{
					"inputs": [
						{
							"internalType": "address",
							"name": "",
							"type": "address"
						}
					],
					"name": "player_not_played",
					"outputs": [
						{
							"internalType": "bool",
							"name": "",
							"type": "bool"
						}
					],
					"stateMutability": "view",
					"type": "function"
				},
				{
					"inputs": [
						{
							"internalType": "uint256",
							"name": "",
							"type": "uint256"
						}
					],
					"name": "players",
					"outputs": [
						{
							"internalType": "address",
							"name": "",
							"type": "address"
						}
					],
					"stateMutability": "view",
					"type": "function"
				},
				{
					"inputs": [],
					"name": "reward",
					"outputs": [
						{
							"internalType": "uint256",
							"name": "",
							"type": "uint256"
						}
					],
					"stateMutability": "view",
					"type": "function"
				}
			],
			"devdoc": {
				"kind": "dev",
				"methods": {},
				"version": 1
			},
			"evm": {
				"assembly": "    /* \"RPSLS.sol\":76:2227  contract RPSLP {... */\n  mstore(0x40, 0x80)\n    /* \"RPSLS.sol\":122:123  0 */\n  0x00\n    /* \"RPSLS.sol\":98:123  uint public numPlayer = 0 */\n  dup1\n  sstore\n    /* \"RPSLS.sol\":151:152  0 */\n  0x00\n    /* \"RPSLS.sol\":130:152  uint public reward = 0 */\n  0x01\n  sstore\n    /* \"RPSLS.sol\":385:386  0 */\n  0x00\n    /* \"RPSLS.sol\":362:386  uint public numInput = 0 */\n  0x05\n  sstore\n    /* \"RPSLS.sol\":76:2227  contract RPSLP {... */\n  callvalue\n  dup1\n  iszero\n  tag_1\n  jumpi\n  0x00\n  dup1\n  revert\ntag_1:\n  pop\n  dataSize(sub_0)\n  dup1\n  dataOffset(sub_0)\n  0x00\n  codecopy\n  0x00\n  return\nstop\n\nsub_0: assembly {\n        /* \"RPSLS.sol\":76:2227  contract RPSLP {... */\n      mstore(0x40, 0x80)\n      jumpi(tag_1, lt(calldatasize, 0x04))\n      shr(0xe0, calldataload(0x00))\n      dup1\n      0x90d5d0c3\n      gt\n      tag_10\n      jumpi\n      dup1\n      0x90d5d0c3\n      eq\n      tag_6\n      jumpi\n      dup1\n      0xa040478d\n      eq\n      tag_7\n      jumpi\n      dup1\n      0xce6e1c4e\n      eq\n      tag_8\n      jumpi\n      dup1\n      0xf71d96cb\n      eq\n      tag_9\n      jumpi\n      jump(tag_1)\n    tag_10:\n      dup1\n      0x086f7815\n      eq\n      tag_2\n      jumpi\n      dup1\n      0x190cf745\n      eq\n      tag_3\n      jumpi\n      dup1\n      0x228cb733\n      eq\n      tag_4\n      jumpi\n      dup1\n      0x27b5db8a\n      eq\n      tag_5\n      jumpi\n    tag_1:\n      0x00\n      dup1\n      revert\n        /* \"RPSLS.sol\":362:386  uint public numInput = 0 */\n    tag_2:\n      callvalue\n      dup1\n      iszero\n      tag_11\n      jumpi\n      0x00\n      dup1\n      revert\n    tag_11:\n      pop\n      tag_12\n      tag_13\n      jump\t// in\n    tag_12:\n      mload(0x40)\n      tag_14\n      swap2\n      swap1\n      tag_15\n      jump\t// in\n    tag_14:\n      mload(0x40)\n      dup1\n      swap2\n      sub\n      swap1\n      return\n        /* \"RPSLS.sol\":273:322  mapping(address => bool) public player_not_played */\n    tag_3:\n      callvalue\n      dup1\n      iszero\n      tag_16\n      jumpi\n      0x00\n      dup1\n      revert\n    tag_16:\n      pop\n      tag_17\n      0x04\n      dup1\n      calldatasize\n      sub\n      dup2\n      add\n      swap1\n      tag_18\n      swap2\n      swap1\n      tag_19\n      jump\t// in\n    tag_18:\n      tag_20\n      jump\t// in\n    tag_17:\n      mload(0x40)\n      tag_21\n      swap2\n      swap1\n      tag_22\n      jump\t// in\n    tag_21:\n      mload(0x40)\n      dup1\n      swap2\n      sub\n      swap1\n      return\n        /* \"RPSLS.sol\":130:152  uint public reward = 0 */\n    tag_4:\n      callvalue\n      dup1\n      iszero\n      tag_23\n      jumpi\n      0x00\n      dup1\n      revert\n    tag_23:\n      pop\n      tag_24\n      tag_25\n      jump\t// in\n    tag_24:\n      mload(0x40)\n      tag_26\n      swap2\n      swap1\n      tag_15\n      jump\t// in\n    tag_26:\n      mload(0x40)\n      dup1\n      swap2\n      sub\n      swap1\n      return\n        /* \"RPSLS.sol\":395:735  function addPlayer() public payable {... */\n    tag_5:\n      tag_27\n      tag_28\n      jump\t// in\n    tag_27:\n      stop\n        /* \"RPSLS.sol\":98:123  uint public numPlayer = 0 */\n    tag_6:\n      callvalue\n      dup1\n      iszero\n      tag_29\n      jumpi\n      0x00\n      dup1\n      revert\n    tag_29:\n      pop\n      tag_30\n      tag_31\n      jump\t// in\n    tag_30:\n      mload(0x40)\n      tag_32\n      swap2\n      swap1\n      tag_15\n      jump\t// in\n    tag_32:\n      mload(0x40)\n      dup1\n      swap2\n      sub\n      swap1\n      return\n        /* \"RPSLS.sol\":159:205  mapping (address => uint) public player_choice */\n    tag_7:\n      callvalue\n      dup1\n      iszero\n      tag_33\n      jumpi\n      0x00\n      dup1\n      revert\n    tag_33:\n      pop\n      tag_34\n      0x04\n      dup1\n      calldatasize\n      sub\n      dup2\n      add\n      swap1\n      tag_35\n      swap2\n      swap1\n      tag_19\n      jump\t// in\n    tag_35:\n      tag_36\n      jump\t// in\n    tag_34:\n      mload(0x40)\n      tag_37\n      swap2\n      swap1\n      tag_15\n      jump\t// in\n    tag_37:\n      mload(0x40)\n      dup1\n      swap2\n      sub\n      swap1\n      return\n        /* \"RPSLS.sol\":743:1151  function input(uint choice) public  {... */\n    tag_8:\n      callvalue\n      dup1\n      iszero\n      tag_38\n      jumpi\n      0x00\n      dup1\n      revert\n    tag_38:\n      pop\n      tag_39\n      0x04\n      dup1\n      calldatasize\n      sub\n      dup2\n      add\n      swap1\n      tag_40\n      swap2\n      swap1\n      tag_41\n      jump\t// in\n    tag_40:\n      tag_42\n      jump\t// in\n    tag_39:\n      stop\n        /* \"RPSLS.sol\":329:353  address[] public players */\n    tag_9:\n      callvalue\n      dup1\n      iszero\n      tag_43\n      jumpi\n      0x00\n      dup1\n      revert\n    tag_43:\n      pop\n      tag_44\n      0x04\n      dup1\n      calldatasize\n      sub\n      dup2\n      add\n      swap1\n      tag_45\n      swap2\n      swap1\n      tag_41\n      jump\t// in\n    tag_45:\n      tag_46\n      jump\t// in\n    tag_44:\n      mload(0x40)\n      tag_47\n      swap2\n      swap1\n      tag_48\n      jump\t// in\n    tag_47:\n      mload(0x40)\n      dup1\n      swap2\n      sub\n      swap1\n      return\n        /* \"RPSLS.sol\":362:386  uint public numInput = 0 */\n    tag_13:\n      sload(0x05)\n      dup2\n      jump\t// out\n        /* \"RPSLS.sol\":273:322  mapping(address => bool) public player_not_played */\n    tag_20:\n      mstore(0x20, 0x03)\n      dup1\n      0x00\n      mstore\n      keccak256(0x00, 0x40)\n      0x00\n      swap2\n      pop\n      sload\n      swap1\n      0x0100\n      exp\n      swap1\n      div\n      0xff\n      and\n      dup2\n      jump\t// out\n        /* \"RPSLS.sol\":130:152  uint public reward = 0 */\n    tag_25:\n      sload(0x01)\n      dup2\n      jump\t// out\n        /* \"RPSLS.sol\":395:735  function addPlayer() public payable {... */\n    tag_28:\n        /* \"RPSLS.sol\":462:463  2 */\n      0x02\n        /* \"RPSLS.sol\":450:459  numPlayer */\n      sload(0x00)\n        /* \"RPSLS.sol\":450:463  numPlayer < 2 */\n      lt\n        /* \"RPSLS.sol\":442:464  require(numPlayer < 2) */\n      tag_50\n      jumpi\n      0x00\n      dup1\n      revert\n    tag_50:\n        /* \"RPSLS.sol\":491:492  0 */\n      0x00\n        /* \"RPSLS.sol\":479:488  numPlayer */\n      dup1\n      sload\n        /* \"RPSLS.sol\":479:492  numPlayer > 0 */\n      gt\n        /* \"RPSLS.sol\":475:554  if (numPlayer > 0) {... */\n      iszero\n      tag_51\n      jumpi\n        /* \"RPSLS.sol\":531:538  players */\n      0x04\n        /* \"RPSLS.sol\":539:540  0 */\n      0x00\n        /* \"RPSLS.sol\":531:541  players[0] */\n      dup2\n      sload\n      dup2\n      lt\n      tag_52\n      jumpi\n      tag_53\n      tag_54\n      jump\t// in\n    tag_53:\n    tag_52:\n      swap1\n      0x00\n      mstore\n      keccak256(0x00, 0x20)\n      add\n      0x00\n      swap1\n      sload\n      swap1\n      0x0100\n      exp\n      swap1\n      div\n      0xffffffffffffffffffffffffffffffffffffffff\n      and\n        /* \"RPSLS.sol\":517:541  msg.sender != players[0] */\n      0xffffffffffffffffffffffffffffffffffffffff\n      and\n        /* \"RPSLS.sol\":517:527  msg.sender */\n      caller\n        /* \"RPSLS.sol\":517:541  msg.sender != players[0] */\n      0xffffffffffffffffffffffffffffffffffffffff\n      and\n      sub\n        /* \"RPSLS.sol\":509:542  require(msg.sender != players[0]) */\n      tag_56\n      jumpi\n      0x00\n      dup1\n      revert\n    tag_56:\n        /* \"RPSLS.sol\":475:554  if (numPlayer > 0) {... */\n    tag_51:\n        /* \"RPSLS.sol\":585:592  1 ether */\n      0x0de0b6b3a7640000\n        /* \"RPSLS.sol\":572:581  msg.value */\n      callvalue\n        /* \"RPSLS.sol\":572:592  msg.value == 1 ether */\n      eq\n        /* \"RPSLS.sol\":564:593  require(msg.value == 1 ether) */\n      tag_57\n      jumpi\n      0x00\n      dup1\n      revert\n    tag_57:\n        /* \"RPSLS.sol\":614:623  msg.value */\n      callvalue\n        /* \"RPSLS.sol\":604:610  reward */\n      0x01\n      0x00\n        /* \"RPSLS.sol\":604:623  reward += msg.value */\n      dup3\n      dup3\n      sload\n      tag_58\n      swap2\n      swap1\n      tag_59\n      jump\t// in\n    tag_58:\n      swap3\n      pop\n      pop\n      dup2\n      swap1\n      sstore\n      pop\n        /* \"RPSLS.sol\":666:670  true */\n      0x01\n        /* \"RPSLS.sol\":634:651  player_not_played */\n      0x03\n        /* \"RPSLS.sol\":634:663  player_not_played[msg.sender] */\n      0x00\n        /* \"RPSLS.sol\":652:662  msg.sender */\n      caller\n        /* \"RPSLS.sol\":634:663  player_not_played[msg.sender] */\n      0xffffffffffffffffffffffffffffffffffffffff\n      and\n      0xffffffffffffffffffffffffffffffffffffffff\n      and\n      dup2\n      mstore\n      0x20\n      add\n      swap1\n      dup2\n      mstore\n      0x20\n      add\n      0x00\n      keccak256\n      0x00\n        /* \"RPSLS.sol\":634:670  player_not_played[msg.sender] = true */\n      0x0100\n      exp\n      dup2\n      sload\n      dup2\n      0xff\n      mul\n      not\n      and\n      swap1\n      dup4\n      iszero\n      iszero\n      mul\n      or\n      swap1\n      sstore\n      pop\n        /* \"RPSLS.sol\":681:688  players */\n      0x04\n        /* \"RPSLS.sol\":694:704  msg.sender */\n      caller\n        /* \"RPSLS.sol\":681:705  players.push(msg.sender) */\n      swap1\n      dup1\n      0x01\n      dup2\n      sload\n      add\n      dup1\n      dup3\n      sstore\n      dup1\n      swap2\n      pop\n      pop\n      0x01\n      swap1\n      sub\n      swap1\n      0x00\n      mstore\n      keccak256(0x00, 0x20)\n      add\n      0x00\n      swap1\n      swap2\n      swap1\n      swap2\n      swap1\n      swap2\n      0x0100\n      exp\n      dup2\n      sload\n      dup2\n      0xffffffffffffffffffffffffffffffffffffffff\n      mul\n      not\n      and\n      swap1\n      dup4\n      0xffffffffffffffffffffffffffffffffffffffff\n      and\n      mul\n      or\n      swap1\n      sstore\n      pop\n        /* \"RPSLS.sol\":716:725  numPlayer */\n      0x00\n      dup1\n        /* \"RPSLS.sol\":716:727  numPlayer++ */\n      dup2\n      sload\n      dup1\n      swap3\n      swap2\n      swap1\n      tag_61\n      swap1\n      tag_62\n      jump\t// in\n    tag_61:\n      swap2\n      swap1\n      pop\n      sstore\n      pop\n        /* \"RPSLS.sol\":395:735  function addPlayer() public payable {... */\n      jump\t// out\n        /* \"RPSLS.sol\":98:123  uint public numPlayer = 0 */\n    tag_31:\n      sload(0x00)\n      dup2\n      jump\t// out\n        /* \"RPSLS.sol\":159:205  mapping (address => uint) public player_choice */\n    tag_36:\n      mstore(0x20, 0x02)\n      dup1\n      0x00\n      mstore\n      keccak256(0x00, 0x40)\n      0x00\n      swap2\n      pop\n      swap1\n      pop\n      sload\n      dup2\n      jump\t// out\n        /* \"RPSLS.sol\":743:1151  function input(uint choice) public  {... */\n    tag_42:\n        /* \"RPSLS.sol\":811:812  2 */\n      0x02\n        /* \"RPSLS.sol\":798:807  numPlayer */\n      sload(0x00)\n        /* \"RPSLS.sol\":798:812  numPlayer == 2 */\n      eq\n        /* \"RPSLS.sol\":790:813  require(numPlayer == 2) */\n      tag_64\n      jumpi\n      0x00\n      dup1\n      revert\n    tag_64:\n        /* \"RPSLS.sol\":832:849  player_not_played */\n      0x03\n        /* \"RPSLS.sol\":832:861  player_not_played[msg.sender] */\n      0x00\n        /* \"RPSLS.sol\":850:860  msg.sender */\n      caller\n        /* \"RPSLS.sol\":832:861  player_not_played[msg.sender] */\n      0xffffffffffffffffffffffffffffffffffffffff\n      and\n      0xffffffffffffffffffffffffffffffffffffffff\n      and\n      dup2\n      mstore\n      0x20\n      add\n      swap1\n      dup2\n      mstore\n      0x20\n      add\n      0x00\n      keccak256\n      0x00\n      swap1\n      sload\n      swap1\n      0x0100\n      exp\n      swap1\n      div\n      0xff\n      and\n        /* \"RPSLS.sol\":824:862  require(player_not_played[msg.sender]) */\n      tag_65\n      jumpi\n      0x00\n      dup1\n      revert\n    tag_65:\n        /* \"RPSLS.sol\":891:892  0 */\n      0x00\n        /* \"RPSLS.sol\":881:887  choice */\n      dup2\n        /* \"RPSLS.sol\":881:892  choice == 0 */\n      eq\n        /* \"RPSLS.sol\":881:907  choice == 0 || choice == 1 */\n      dup1\n      tag_66\n      jumpi\n      pop\n        /* \"RPSLS.sol\":906:907  1 */\n      0x01\n        /* \"RPSLS.sol\":896:902  choice */\n      dup2\n        /* \"RPSLS.sol\":896:907  choice == 1 */\n      eq\n        /* \"RPSLS.sol\":881:907  choice == 0 || choice == 1 */\n    tag_66:\n        /* \"RPSLS.sol\":881:922  choice == 0 || choice == 1 || choice == 2 */\n      dup1\n      tag_67\n      jumpi\n      pop\n        /* \"RPSLS.sol\":921:922  2 */\n      0x02\n        /* \"RPSLS.sol\":911:917  choice */\n      dup2\n        /* \"RPSLS.sol\":911:922  choice == 2 */\n      eq\n        /* \"RPSLS.sol\":881:922  choice == 0 || choice == 1 || choice == 2 */\n    tag_67:\n        /* \"RPSLS.sol\":881:937  choice == 0 || choice == 1 || choice == 2 || choice == 3 */\n      dup1\n      tag_68\n      jumpi\n      pop\n        /* \"RPSLS.sol\":936:937  3 */\n      0x03\n        /* \"RPSLS.sol\":926:932  choice */\n      dup2\n        /* \"RPSLS.sol\":926:937  choice == 3 */\n      eq\n        /* \"RPSLS.sol\":881:937  choice == 0 || choice == 1 || choice == 2 || choice == 3 */\n    tag_68:\n        /* \"RPSLS.sol\":881:952  choice == 0 || choice == 1 || choice == 2 || choice == 3 || choice == 4 */\n      dup1\n      tag_69\n      jumpi\n      pop\n        /* \"RPSLS.sol\":951:952  4 */\n      0x04\n        /* \"RPSLS.sol\":941:947  choice */\n      dup2\n        /* \"RPSLS.sol\":941:952  choice == 4 */\n      eq\n        /* \"RPSLS.sol\":881:952  choice == 0 || choice == 1 || choice == 2 || choice == 3 || choice == 4 */\n    tag_69:\n        /* \"RPSLS.sol\":873:953  require(choice == 0 || choice == 1 || choice == 2 || choice == 3 || choice == 4) */\n      tag_70\n      jumpi\n      0x00\n      dup1\n      revert\n    tag_70:\n        /* \"RPSLS.sol\":992:998  choice */\n      dup1\n        /* \"RPSLS.sol\":964:977  player_choice */\n      0x02\n        /* \"RPSLS.sol\":964:989  player_choice[msg.sender] */\n      0x00\n        /* \"RPSLS.sol\":978:988  msg.sender */\n      caller\n        /* \"RPSLS.sol\":964:989  player_choice[msg.sender] */\n      0xffffffffffffffffffffffffffffffffffffffff\n      and\n      0xffffffffffffffffffffffffffffffffffffffff\n      and\n      dup2\n      mstore\n      0x20\n      add\n      swap1\n      dup2\n      mstore\n      0x20\n      add\n      0x00\n      keccak256\n        /* \"RPSLS.sol\":964:998  player_choice[msg.sender] = choice */\n      dup2\n      swap1\n      sstore\n      pop\n        /* \"RPSLS.sol\":1041:1046  false */\n      0x00\n        /* \"RPSLS.sol\":1009:1026  player_not_played */\n      0x03\n        /* \"RPSLS.sol\":1009:1038  player_not_played[msg.sender] */\n      0x00\n        /* \"RPSLS.sol\":1027:1037  msg.sender */\n      caller\n        /* \"RPSLS.sol\":1009:1038  player_not_played[msg.sender] */\n      0xffffffffffffffffffffffffffffffffffffffff\n      and\n      0xffffffffffffffffffffffffffffffffffffffff\n      and\n      dup2\n      mstore\n      0x20\n      add\n      swap1\n      dup2\n      mstore\n      0x20\n      add\n      0x00\n      keccak256\n      0x00\n        /* \"RPSLS.sol\":1009:1046  player_not_played[msg.sender] = false */\n      0x0100\n      exp\n      dup2\n      sload\n      dup2\n      0xff\n      mul\n      not\n      and\n      swap1\n      dup4\n      iszero\n      iszero\n      mul\n      or\n      swap1\n      sstore\n      pop\n        /* \"RPSLS.sol\":1057:1065  numInput */\n      0x05\n      0x00\n        /* \"RPSLS.sol\":1057:1067  numInput++ */\n      dup2\n      sload\n      dup1\n      swap3\n      swap2\n      swap1\n      tag_71\n      swap1\n      tag_62\n      jump\t// in\n    tag_71:\n      swap2\n      swap1\n      pop\n      sstore\n      pop\n        /* \"RPSLS.sol\":1094:1095  2 */\n      0x02\n        /* \"RPSLS.sol\":1082:1090  numInput */\n      sload(0x05)\n        /* \"RPSLS.sol\":1082:1095  numInput == 2 */\n      sub\n        /* \"RPSLS.sol\":1078:1144  if (numInput == 2) {... */\n      tag_72\n      jumpi\n        /* \"RPSLS.sol\":1112:1132  _checkWinnerAndPay() */\n      tag_73\n        /* \"RPSLS.sol\":1112:1130  _checkWinnerAndPay */\n      tag_74\n        /* \"RPSLS.sol\":1112:1132  _checkWinnerAndPay() */\n      jump\t// in\n    tag_73:\n        /* \"RPSLS.sol\":1078:1144  if (numInput == 2) {... */\n    tag_72:\n        /* \"RPSLS.sol\":743:1151  function input(uint choice) public  {... */\n      pop\n      jump\t// out\n        /* \"RPSLS.sol\":329:353  address[] public players */\n    tag_46:\n      0x04\n      dup2\n      dup2\n      sload\n      dup2\n      lt\n      tag_75\n      jumpi\n      0x00\n      dup1\n      revert\n    tag_75:\n      swap1\n      0x00\n      mstore\n      keccak256(0x00, 0x20)\n      add\n      0x00\n      swap2\n      pop\n      sload\n      swap1\n      0x0100\n      exp\n      swap1\n      div\n      0xffffffffffffffffffffffffffffffffffffffff\n      and\n      dup2\n      jump\t// out\n        /* \"RPSLS.sol\":1159:1780  function _checkWinnerAndPay() private {... */\n    tag_74:\n        /* \"RPSLS.sol\":1208:1221  uint p0Choice */\n      0x00\n        /* \"RPSLS.sol\":1224:1237  player_choice */\n      0x02\n        /* \"RPSLS.sol\":1224:1249  player_choice[players[0]] */\n      0x00\n        /* \"RPSLS.sol\":1238:1245  players */\n      0x04\n        /* \"RPSLS.sol\":1246:1247  0 */\n      0x00\n        /* \"RPSLS.sol\":1238:1248  players[0] */\n      dup2\n      sload\n      dup2\n      lt\n      tag_78\n      jumpi\n      tag_79\n      tag_54\n      jump\t// in\n    tag_79:\n    tag_78:\n      swap1\n      0x00\n      mstore\n      keccak256(0x00, 0x20)\n      add\n      0x00\n      swap1\n      sload\n      swap1\n      0x0100\n      exp\n      swap1\n      div\n      0xffffffffffffffffffffffffffffffffffffffff\n      and\n        /* \"RPSLS.sol\":1224:1249  player_choice[players[0]] */\n      0xffffffffffffffffffffffffffffffffffffffff\n      and\n      0xffffffffffffffffffffffffffffffffffffffff\n      and\n      dup2\n      mstore\n      0x20\n      add\n      swap1\n      dup2\n      mstore\n      0x20\n      add\n      0x00\n      keccak256\n      sload\n        /* \"RPSLS.sol\":1208:1249  uint p0Choice = player_choice[players[0]] */\n      swap1\n      pop\n        /* \"RPSLS.sol\":1260:1273  uint p1Choice */\n      0x00\n        /* \"RPSLS.sol\":1276:1289  player_choice */\n      0x02\n        /* \"RPSLS.sol\":1276:1301  player_choice[players[1]] */\n      0x00\n        /* \"RPSLS.sol\":1290:1297  players */\n      0x04\n        /* \"RPSLS.sol\":1298:1299  1 */\n      0x01\n        /* \"RPSLS.sol\":1290:1300  players[1] */\n      dup2\n      sload\n      dup2\n      lt\n      tag_81\n      jumpi\n      tag_82\n      tag_54\n      jump\t// in\n    tag_82:\n    tag_81:\n      swap1\n      0x00\n      mstore\n      keccak256(0x00, 0x20)\n      add\n      0x00\n      swap1\n      sload\n      swap1\n      0x0100\n      exp\n      swap1\n      div\n      0xffffffffffffffffffffffffffffffffffffffff\n      and\n        /* \"RPSLS.sol\":1276:1301  player_choice[players[1]] */\n      0xffffffffffffffffffffffffffffffffffffffff\n      and\n      0xffffffffffffffffffffffffffffffffffffffff\n      and\n      dup2\n      mstore\n      0x20\n      add\n      swap1\n      dup2\n      mstore\n      0x20\n      add\n      0x00\n      keccak256\n      sload\n        /* \"RPSLS.sol\":1260:1301  uint p1Choice = player_choice[players[1]] */\n      swap1\n      pop\n        /* \"RPSLS.sol\":1312:1336  address payable account0 */\n      0x00\n        /* \"RPSLS.sol\":1347:1354  players */\n      0x04\n        /* \"RPSLS.sol\":1355:1356  0 */\n      0x00\n        /* \"RPSLS.sol\":1347:1357  players[0] */\n      dup2\n      sload\n      dup2\n      lt\n      tag_84\n      jumpi\n      tag_85\n      tag_54\n      jump\t// in\n    tag_85:\n    tag_84:\n      swap1\n      0x00\n      mstore\n      keccak256(0x00, 0x20)\n      add\n      0x00\n      swap1\n      sload\n      swap1\n      0x0100\n      exp\n      swap1\n      div\n      0xffffffffffffffffffffffffffffffffffffffff\n      and\n        /* \"RPSLS.sol\":1312:1358  address payable account0 = payable(players[0]) */\n      swap1\n      pop\n        /* \"RPSLS.sol\":1369:1393  address payable account1 */\n      0x00\n        /* \"RPSLS.sol\":1404:1411  players */\n      0x04\n        /* \"RPSLS.sol\":1412:1413  1 */\n      0x01\n        /* \"RPSLS.sol\":1404:1414  players[1] */\n      dup2\n      sload\n      dup2\n      lt\n      tag_87\n      jumpi\n      tag_88\n      tag_54\n      jump\t// in\n    tag_88:\n    tag_87:\n      swap1\n      0x00\n      mstore\n      keccak256(0x00, 0x20)\n      add\n      0x00\n      swap1\n      sload\n      swap1\n      0x0100\n      exp\n      swap1\n      div\n      0xffffffffffffffffffffffffffffffffffffffff\n      and\n        /* \"RPSLS.sol\":1369:1415  address payable account1 = payable(players[1]) */\n      swap1\n      pop\n        /* \"RPSLS.sol\":1432:1461  _isWinner(p0Choice, p1Choice) */\n      tag_90\n        /* \"RPSLS.sol\":1442:1450  p0Choice */\n      dup5\n        /* \"RPSLS.sol\":1452:1460  p1Choice */\n      dup5\n        /* \"RPSLS.sol\":1432:1441  _isWinner */\n      tag_91\n        /* \"RPSLS.sol\":1432:1461  _isWinner(p0Choice, p1Choice) */\n      jump\t// in\n    tag_90:\n        /* \"RPSLS.sol\":1428:1773  if (_isWinner(p0Choice, p1Choice)) {... */\n      iszero\n      tag_92\n      jumpi\n        /* \"RPSLS.sol\":1478:1486  account0 */\n      dup2\n        /* \"RPSLS.sol\":1478:1495  account0.transfer */\n      0xffffffffffffffffffffffffffffffffffffffff\n      and\n        /* \"RPSLS.sol\":1478:1503  account0.transfer(reward) */\n      0x08fc\n        /* \"RPSLS.sol\":1496:1502  reward */\n      sload(0x01)\n        /* \"RPSLS.sol\":1478:1503  account0.transfer(reward) */\n      swap1\n      dup2\n      iszero\n      mul\n      swap1\n      mload(0x40)\n      0x00\n      mload(0x40)\n      dup1\n      dup4\n      sub\n      dup2\n      dup6\n      dup9\n      dup9\n      call\n      swap4\n      pop\n      pop\n      pop\n      pop\n      iszero\n      dup1\n      iszero\n      tag_94\n      jumpi\n      returndatasize\n      0x00\n      dup1\n      returndatacopy\n      revert(0x00, returndatasize)\n    tag_94:\n      pop\n        /* \"RPSLS.sol\":1428:1773  if (_isWinner(p0Choice, p1Choice)) {... */\n      jump(tag_95)\n    tag_92:\n        /* \"RPSLS.sol\":1535:1564  _isWinner(p1Choice, p0Choice) */\n      tag_96\n        /* \"RPSLS.sol\":1545:1553  p1Choice */\n      dup4\n        /* \"RPSLS.sol\":1555:1563  p0Choice */\n      dup6\n        /* \"RPSLS.sol\":1535:1544  _isWinner */\n      tag_91\n        /* \"RPSLS.sol\":1535:1564  _isWinner(p1Choice, p0Choice) */\n      jump\t// in\n    tag_96:\n        /* \"RPSLS.sol\":1531:1773  if (_isWinner(p1Choice, p0Choice)) {... */\n      iszero\n      tag_97\n      jumpi\n        /* \"RPSLS.sol\":1581:1589  account1 */\n      dup1\n        /* \"RPSLS.sol\":1581:1598  account1.transfer */\n      0xffffffffffffffffffffffffffffffffffffffff\n      and\n        /* \"RPSLS.sol\":1581:1606  account1.transfer(reward) */\n      0x08fc\n        /* \"RPSLS.sol\":1599:1605  reward */\n      sload(0x01)\n        /* \"RPSLS.sol\":1581:1606  account1.transfer(reward) */\n      swap1\n      dup2\n      iszero\n      mul\n      swap1\n      mload(0x40)\n      0x00\n      mload(0x40)\n      dup1\n      dup4\n      sub\n      dup2\n      dup6\n      dup9\n      dup9\n      call\n      swap4\n      pop\n      pop\n      pop\n      pop\n      iszero\n      dup1\n      iszero\n      tag_99\n      jumpi\n      returndatasize\n      0x00\n      dup1\n      returndatacopy\n      revert(0x00, returndatasize)\n    tag_99:\n      pop\n        /* \"RPSLS.sol\":1531:1773  if (_isWinner(p1Choice, p0Choice)) {... */\n      jump(tag_100)\n    tag_97:\n        /* \"RPSLS.sol\":1688:1696  account0 */\n      dup2\n        /* \"RPSLS.sol\":1688:1705  account0.transfer */\n      0xffffffffffffffffffffffffffffffffffffffff\n      and\n        /* \"RPSLS.sol\":1688:1717  account0.transfer(reward / 2) */\n      0x08fc\n        /* \"RPSLS.sol\":1715:1716  2 */\n      0x02\n        /* \"RPSLS.sol\":1706:1712  reward */\n      sload(0x01)\n        /* \"RPSLS.sol\":1706:1716  reward / 2 */\n      tag_101\n      swap2\n      swap1\n      tag_102\n      jump\t// in\n    tag_101:\n        /* \"RPSLS.sol\":1688:1717  account0.transfer(reward / 2) */\n      swap1\n      dup2\n      iszero\n      mul\n      swap1\n      mload(0x40)\n      0x00\n      mload(0x40)\n      dup1\n      dup4\n      sub\n      dup2\n      dup6\n      dup9\n      dup9\n      call\n      swap4\n      pop\n      pop\n      pop\n      pop\n      iszero\n      dup1\n      iszero\n      tag_104\n      jumpi\n      returndatasize\n      0x00\n      dup1\n      returndatacopy\n      revert(0x00, returndatasize)\n    tag_104:\n      pop\n        /* \"RPSLS.sol\":1732:1740  account1 */\n      dup1\n        /* \"RPSLS.sol\":1732:1749  account1.transfer */\n      0xffffffffffffffffffffffffffffffffffffffff\n      and\n        /* \"RPSLS.sol\":1732:1761  account1.transfer(reward / 2) */\n      0x08fc\n        /* \"RPSLS.sol\":1759:1760  2 */\n      0x02\n        /* \"RPSLS.sol\":1750:1756  reward */\n      sload(0x01)\n        /* \"RPSLS.sol\":1750:1760  reward / 2 */\n      tag_105\n      swap2\n      swap1\n      tag_102\n      jump\t// in\n    tag_105:\n        /* \"RPSLS.sol\":1732:1761  account1.transfer(reward / 2) */\n      swap1\n      dup2\n      iszero\n      mul\n      swap1\n      mload(0x40)\n      0x00\n      mload(0x40)\n      dup1\n      dup4\n      sub\n      dup2\n      dup6\n      dup9\n      dup9\n      call\n      swap4\n      pop\n      pop\n      pop\n      pop\n      iszero\n      dup1\n      iszero\n      tag_107\n      jumpi\n      returndatasize\n      0x00\n      dup1\n      returndatacopy\n      revert(0x00, returndatasize)\n    tag_107:\n      pop\n        /* \"RPSLS.sol\":1531:1773  if (_isWinner(p1Choice, p0Choice)) {... */\n    tag_100:\n        /* \"RPSLS.sol\":1428:1773  if (_isWinner(p0Choice, p1Choice)) {... */\n    tag_95:\n        /* \"RPSLS.sol\":1197:1780  {... */\n      pop\n      pop\n      pop\n      pop\n        /* \"RPSLS.sol\":1159:1780  function _checkWinnerAndPay() private {... */\n      jump\t// out\n        /* \"RPSLS.sol\":1788:2224  function _isWinner(uint choice1, uint choice2) private pure returns (bool) {... */\n    tag_91:\n        /* \"RPSLS.sol\":1857:1861  bool */\n      0x00\n        /* \"RPSLS.sol\":1908:1909  0 */\n      dup1\n        /* \"RPSLS.sol\":1897:1904  choice1 */\n      dup4\n        /* \"RPSLS.sol\":1897:1909  choice1 == 0 */\n      eq\n        /* \"RPSLS.sol\":1897:1943  choice1 == 0 && (choice2 == 2 || choice2 == 3) */\n      dup1\n      iszero\n      tag_109\n      jumpi\n      pop\n        /* \"RPSLS.sol\":1925:1926  2 */\n      0x02\n        /* \"RPSLS.sol\":1914:1921  choice2 */\n      dup3\n        /* \"RPSLS.sol\":1914:1926  choice2 == 2 */\n      eq\n        /* \"RPSLS.sol\":1914:1942  choice2 == 2 || choice2 == 3 */\n      dup1\n      tag_110\n      jumpi\n      pop\n        /* \"RPSLS.sol\":1941:1942  3 */\n      0x03\n        /* \"RPSLS.sol\":1930:1937  choice2 */\n      dup3\n        /* \"RPSLS.sol\":1930:1942  choice2 == 3 */\n      eq\n        /* \"RPSLS.sol\":1914:1942  choice2 == 2 || choice2 == 3 */\n    tag_110:\n        /* \"RPSLS.sol\":1897:1943  choice1 == 0 && (choice2 == 2 || choice2 == 3) */\n    tag_109:\n        /* \"RPSLS.sol\":1896:2010  (choice1 == 0 && (choice2 == 2 || choice2 == 3)) || ... */\n      dup1\n      tag_111\n      jumpi\n      pop\n        /* \"RPSLS.sol\":1974:1975  1 */\n      0x01\n        /* \"RPSLS.sol\":1963:1970  choice1 */\n      dup4\n        /* \"RPSLS.sol\":1963:1975  choice1 == 1 */\n      eq\n        /* \"RPSLS.sol\":1963:2009  choice1 == 1 && (choice2 == 0 || choice2 == 4) */\n      dup1\n      iszero\n      tag_112\n      jumpi\n      pop\n        /* \"RPSLS.sol\":1991:1992  0 */\n      0x00\n        /* \"RPSLS.sol\":1980:1987  choice2 */\n      dup3\n        /* \"RPSLS.sol\":1980:1992  choice2 == 0 */\n      eq\n        /* \"RPSLS.sol\":1980:2008  choice2 == 0 || choice2 == 4 */\n      dup1\n      tag_113\n      jumpi\n      pop\n        /* \"RPSLS.sol\":2007:2008  4 */\n      0x04\n        /* \"RPSLS.sol\":1996:2003  choice2 */\n      dup3\n        /* \"RPSLS.sol\":1996:2008  choice2 == 4 */\n      eq\n        /* \"RPSLS.sol\":1980:2008  choice2 == 0 || choice2 == 4 */\n    tag_113:\n        /* \"RPSLS.sol\":1963:2009  choice1 == 1 && (choice2 == 0 || choice2 == 4) */\n    tag_112:\n        /* \"RPSLS.sol\":1896:2010  (choice1 == 0 && (choice2 == 2 || choice2 == 3)) || ... */\n    tag_111:\n        /* \"RPSLS.sol\":1896:2075  (choice1 == 0 && (choice2 == 2 || choice2 == 3)) || ... */\n      dup1\n      tag_114\n      jumpi\n      pop\n        /* \"RPSLS.sol\":2039:2040  2 */\n      0x02\n        /* \"RPSLS.sol\":2028:2035  choice1 */\n      dup4\n        /* \"RPSLS.sol\":2028:2040  choice1 == 2 */\n      eq\n        /* \"RPSLS.sol\":2028:2074  choice1 == 2 && (choice2 == 1 || choice2 == 3) */\n      dup1\n      iszero\n      tag_115\n      jumpi\n      pop\n        /* \"RPSLS.sol\":2056:2057  1 */\n      0x01\n        /* \"RPSLS.sol\":2045:2052  choice2 */\n      dup3\n        /* \"RPSLS.sol\":2045:2057  choice2 == 1 */\n      eq\n        /* \"RPSLS.sol\":2045:2073  choice2 == 1 || choice2 == 3 */\n      dup1\n      tag_116\n      jumpi\n      pop\n        /* \"RPSLS.sol\":2072:2073  3 */\n      0x03\n        /* \"RPSLS.sol\":2061:2068  choice2 */\n      dup3\n        /* \"RPSLS.sol\":2061:2073  choice2 == 3 */\n      eq\n        /* \"RPSLS.sol\":2045:2073  choice2 == 1 || choice2 == 3 */\n    tag_116:\n        /* \"RPSLS.sol\":2028:2074  choice1 == 2 && (choice2 == 1 || choice2 == 3) */\n    tag_115:\n        /* \"RPSLS.sol\":1896:2075  (choice1 == 0 && (choice2 == 2 || choice2 == 3)) || ... */\n    tag_114:\n        /* \"RPSLS.sol\":1896:2140  (choice1 == 0 && (choice2 == 2 || choice2 == 3)) || ... */\n      dup1\n      tag_117\n      jumpi\n      pop\n        /* \"RPSLS.sol\":2104:2105  3 */\n      0x03\n        /* \"RPSLS.sol\":2093:2100  choice1 */\n      dup4\n        /* \"RPSLS.sol\":2093:2105  choice1 == 3 */\n      eq\n        /* \"RPSLS.sol\":2093:2139  choice1 == 3 && (choice2 == 1 || choice2 == 4) */\n      dup1\n      iszero\n      tag_118\n      jumpi\n      pop\n        /* \"RPSLS.sol\":2121:2122  1 */\n      0x01\n        /* \"RPSLS.sol\":2110:2117  choice2 */\n      dup3\n        /* \"RPSLS.sol\":2110:2122  choice2 == 1 */\n      eq\n        /* \"RPSLS.sol\":2110:2138  choice2 == 1 || choice2 == 4 */\n      dup1\n      tag_119\n      jumpi\n      pop\n        /* \"RPSLS.sol\":2137:2138  4 */\n      0x04\n        /* \"RPSLS.sol\":2126:2133  choice2 */\n      dup3\n        /* \"RPSLS.sol\":2126:2138  choice2 == 4 */\n      eq\n        /* \"RPSLS.sol\":2110:2138  choice2 == 1 || choice2 == 4 */\n    tag_119:\n        /* \"RPSLS.sol\":2093:2139  choice1 == 3 && (choice2 == 1 || choice2 == 4) */\n    tag_118:\n        /* \"RPSLS.sol\":1896:2140  (choice1 == 0 && (choice2 == 2 || choice2 == 3)) || ... */\n    tag_117:\n        /* \"RPSLS.sol\":1896:2205  (choice1 == 0 && (choice2 == 2 || choice2 == 3)) || ... */\n      dup1\n      tag_120\n      jumpi\n      pop\n        /* \"RPSLS.sol\":2169:2170  4 */\n      0x04\n        /* \"RPSLS.sol\":2158:2165  choice1 */\n      dup4\n        /* \"RPSLS.sol\":2158:2170  choice1 == 4 */\n      eq\n        /* \"RPSLS.sol\":2158:2204  choice1 == 4 && (choice2 == 0 || choice2 == 2) */\n      dup1\n      iszero\n      tag_121\n      jumpi\n      pop\n        /* \"RPSLS.sol\":2186:2187  0 */\n      0x00\n        /* \"RPSLS.sol\":2175:2182  choice2 */\n      dup3\n        /* \"RPSLS.sol\":2175:2187  choice2 == 0 */\n      eq\n        /* \"RPSLS.sol\":2175:2203  choice2 == 0 || choice2 == 2 */\n      dup1\n      tag_122\n      jumpi\n      pop\n        /* \"RPSLS.sol\":2202:2203  2 */\n      0x02\n        /* \"RPSLS.sol\":2191:2198  choice2 */\n      dup3\n        /* \"RPSLS.sol\":2191:2203  choice2 == 2 */\n      eq\n        /* \"RPSLS.sol\":2175:2203  choice2 == 0 || choice2 == 2 */\n    tag_122:\n        /* \"RPSLS.sol\":2158:2204  choice1 == 4 && (choice2 == 0 || choice2 == 2) */\n    tag_121:\n        /* \"RPSLS.sol\":1896:2205  (choice1 == 0 && (choice2 == 2 || choice2 == 3)) || ... */\n    tag_120:\n        /* \"RPSLS.sol\":1874:2216  return (... */\n      swap1\n      pop\n        /* \"RPSLS.sol\":1788:2224  function _isWinner(uint choice1, uint choice2) private pure returns (bool) {... */\n      swap3\n      swap2\n      pop\n      pop\n      jump\t// out\n        /* \"#utility.yul\":7:84   */\n    tag_123:\n        /* \"#utility.yul\":44:51   */\n      0x00\n        /* \"#utility.yul\":73:78   */\n      dup2\n        /* \"#utility.yul\":62:78   */\n      swap1\n      pop\n        /* \"#utility.yul\":7:84   */\n      swap2\n      swap1\n      pop\n      jump\t// out\n        /* \"#utility.yul\":90:208   */\n    tag_124:\n        /* \"#utility.yul\":177:201   */\n      tag_142\n        /* \"#utility.yul\":195:200   */\n      dup2\n        /* \"#utility.yul\":177:201   */\n      tag_123\n      jump\t// in\n    tag_142:\n        /* \"#utility.yul\":172:175   */\n      dup3\n        /* \"#utility.yul\":165:202   */\n      mstore\n        /* \"#utility.yul\":90:208   */\n      pop\n      pop\n      jump\t// out\n        /* \"#utility.yul\":214:436   */\n    tag_15:\n        /* \"#utility.yul\":307:311   */\n      0x00\n        /* \"#utility.yul\":345:347   */\n      0x20\n        /* \"#utility.yul\":334:343   */\n      dup3\n        /* \"#utility.yul\":330:348   */\n      add\n        /* \"#utility.yul\":322:348   */\n      swap1\n      pop\n        /* \"#utility.yul\":358:429   */\n      tag_144\n        /* \"#utility.yul\":426:427   */\n      0x00\n        /* \"#utility.yul\":415:424   */\n      dup4\n        /* \"#utility.yul\":411:428   */\n      add\n        /* \"#utility.yul\":402:408   */\n      dup5\n        /* \"#utility.yul\":358:429   */\n      tag_124\n      jump\t// in\n    tag_144:\n        /* \"#utility.yul\":214:436   */\n      swap3\n      swap2\n      pop\n      pop\n      jump\t// out\n        /* \"#utility.yul\":523:640   */\n    tag_126:\n        /* \"#utility.yul\":632:633   */\n      0x00\n        /* \"#utility.yul\":629:630   */\n      dup1\n        /* \"#utility.yul\":622:634   */\n      revert\n        /* \"#utility.yul\":769:895   */\n    tag_128:\n        /* \"#utility.yul\":806:813   */\n      0x00\n        /* \"#utility.yul\":846:888   */\n      0xffffffffffffffffffffffffffffffffffffffff\n        /* \"#utility.yul\":839:844   */\n      dup3\n        /* \"#utility.yul\":835:889   */\n      and\n        /* \"#utility.yul\":824:889   */\n      swap1\n      pop\n        /* \"#utility.yul\":769:895   */\n      swap2\n      swap1\n      pop\n      jump\t// out\n        /* \"#utility.yul\":901:997   */\n    tag_129:\n        /* \"#utility.yul\":938:945   */\n      0x00\n        /* \"#utility.yul\":967:991   */\n      tag_150\n        /* \"#utility.yul\":985:990   */\n      dup3\n        /* \"#utility.yul\":967:991   */\n      tag_128\n      jump\t// in\n    tag_150:\n        /* \"#utility.yul\":956:991   */\n      swap1\n      pop\n        /* \"#utility.yul\":901:997   */\n      swap2\n      swap1\n      pop\n      jump\t// out\n        /* \"#utility.yul\":1003:1125   */\n    tag_130:\n        /* \"#utility.yul\":1076:1100   */\n      tag_152\n        /* \"#utility.yul\":1094:1099   */\n      dup2\n        /* \"#utility.yul\":1076:1100   */\n      tag_129\n      jump\t// in\n    tag_152:\n        /* \"#utility.yul\":1069:1074   */\n      dup2\n        /* \"#utility.yul\":1066:1101   */\n      eq\n        /* \"#utility.yul\":1056:1119   */\n      tag_153\n      jumpi\n        /* \"#utility.yul\":1115:1116   */\n      0x00\n        /* \"#utility.yul\":1112:1113   */\n      dup1\n        /* \"#utility.yul\":1105:1117   */\n      revert\n        /* \"#utility.yul\":1056:1119   */\n    tag_153:\n        /* \"#utility.yul\":1003:1125   */\n      pop\n      jump\t// out\n        /* \"#utility.yul\":1131:1270   */\n    tag_131:\n        /* \"#utility.yul\":1177:1182   */\n      0x00\n        /* \"#utility.yul\":1215:1221   */\n      dup2\n        /* \"#utility.yul\":1202:1222   */\n      calldataload\n        /* \"#utility.yul\":1193:1222   */\n      swap1\n      pop\n        /* \"#utility.yul\":1231:1264   */\n      tag_155\n        /* \"#utility.yul\":1258:1263   */\n      dup2\n        /* \"#utility.yul\":1231:1264   */\n      tag_130\n      jump\t// in\n    tag_155:\n        /* \"#utility.yul\":1131:1270   */\n      swap3\n      swap2\n      pop\n      pop\n      jump\t// out\n        /* \"#utility.yul\":1276:1605   */\n    tag_19:\n        /* \"#utility.yul\":1335:1341   */\n      0x00\n        /* \"#utility.yul\":1384:1386   */\n      0x20\n        /* \"#utility.yul\":1372:1381   */\n      dup3\n        /* \"#utility.yul\":1363:1370   */\n      dup5\n        /* \"#utility.yul\":1359:1382   */\n      sub\n        /* \"#utility.yul\":1355:1387   */\n      slt\n        /* \"#utility.yul\":1352:1471   */\n      iszero\n      tag_157\n      jumpi\n        /* \"#utility.yul\":1390:1469   */\n      tag_158\n      tag_126\n      jump\t// in\n    tag_158:\n        /* \"#utility.yul\":1352:1471   */\n    tag_157:\n        /* \"#utility.yul\":1510:1511   */\n      0x00\n        /* \"#utility.yul\":1535:1588   */\n      tag_159\n        /* \"#utility.yul\":1580:1587   */\n      dup5\n        /* \"#utility.yul\":1571:1577   */\n      dup3\n        /* \"#utility.yul\":1560:1569   */\n      dup6\n        /* \"#utility.yul\":1556:1578   */\n      add\n        /* \"#utility.yul\":1535:1588   */\n      tag_131\n      jump\t// in\n    tag_159:\n        /* \"#utility.yul\":1525:1588   */\n      swap2\n      pop\n        /* \"#utility.yul\":1481:1598   */\n      pop\n        /* \"#utility.yul\":1276:1605   */\n      swap3\n      swap2\n      pop\n      pop\n      jump\t// out\n        /* \"#utility.yul\":1611:1701   */\n    tag_132:\n        /* \"#utility.yul\":1645:1652   */\n      0x00\n        /* \"#utility.yul\":1688:1693   */\n      dup2\n        /* \"#utility.yul\":1681:1694   */\n      iszero\n        /* \"#utility.yul\":1674:1695   */\n      iszero\n        /* \"#utility.yul\":1663:1695   */\n      swap1\n      pop\n        /* \"#utility.yul\":1611:1701   */\n      swap2\n      swap1\n      pop\n      jump\t// out\n        /* \"#utility.yul\":1707:1816   */\n    tag_133:\n        /* \"#utility.yul\":1788:1809   */\n      tag_162\n        /* \"#utility.yul\":1803:1808   */\n      dup2\n        /* \"#utility.yul\":1788:1809   */\n      tag_132\n      jump\t// in\n    tag_162:\n        /* \"#utility.yul\":1783:1786   */\n      dup3\n        /* \"#utility.yul\":1776:1810   */\n      mstore\n        /* \"#utility.yul\":1707:1816   */\n      pop\n      pop\n      jump\t// out\n        /* \"#utility.yul\":1822:2032   */\n    tag_22:\n        /* \"#utility.yul\":1909:1913   */\n      0x00\n        /* \"#utility.yul\":1947:1949   */\n      0x20\n        /* \"#utility.yul\":1936:1945   */\n      dup3\n        /* \"#utility.yul\":1932:1950   */\n      add\n        /* \"#utility.yul\":1924:1950   */\n      swap1\n      pop\n        /* \"#utility.yul\":1960:2025   */\n      tag_164\n        /* \"#utility.yul\":2022:2023   */\n      0x00\n        /* \"#utility.yul\":2011:2020   */\n      dup4\n        /* \"#utility.yul\":2007:2024   */\n      add\n        /* \"#utility.yul\":1998:2004   */\n      dup5\n        /* \"#utility.yul\":1960:2025   */\n      tag_133\n      jump\t// in\n    tag_164:\n        /* \"#utility.yul\":1822:2032   */\n      swap3\n      swap2\n      pop\n      pop\n      jump\t// out\n        /* \"#utility.yul\":2038:2160   */\n    tag_134:\n        /* \"#utility.yul\":2111:2135   */\n      tag_166\n        /* \"#utility.yul\":2129:2134   */\n      dup2\n        /* \"#utility.yul\":2111:2135   */\n      tag_123\n      jump\t// in\n    tag_166:\n        /* \"#utility.yul\":2104:2109   */\n      dup2\n        /* \"#utility.yul\":2101:2136   */\n      eq\n        /* \"#utility.yul\":2091:2154   */\n      tag_167\n      jumpi\n        /* \"#utility.yul\":2150:2151   */\n      0x00\n        /* \"#utility.yul\":2147:2148   */\n      dup1\n        /* \"#utility.yul\":2140:2152   */\n      revert\n        /* \"#utility.yul\":2091:2154   */\n    tag_167:\n        /* \"#utility.yul\":2038:2160   */\n      pop\n      jump\t// out\n        /* \"#utility.yul\":2166:2305   */\n    tag_135:\n        /* \"#utility.yul\":2212:2217   */\n      0x00\n        /* \"#utility.yul\":2250:2256   */\n      dup2\n        /* \"#utility.yul\":2237:2257   */\n      calldataload\n        /* \"#utility.yul\":2228:2257   */\n      swap1\n      pop\n        /* \"#utility.yul\":2266:2299   */\n      tag_169\n        /* \"#utility.yul\":2293:2298   */\n      dup2\n        /* \"#utility.yul\":2266:2299   */\n      tag_134\n      jump\t// in\n    tag_169:\n        /* \"#utility.yul\":2166:2305   */\n      swap3\n      swap2\n      pop\n      pop\n      jump\t// out\n        /* \"#utility.yul\":2311:2640   */\n    tag_41:\n        /* \"#utility.yul\":2370:2376   */\n      0x00\n        /* \"#utility.yul\":2419:2421   */\n      0x20\n        /* \"#utility.yul\":2407:2416   */\n      dup3\n        /* \"#utility.yul\":2398:2405   */\n      dup5\n        /* \"#utility.yul\":2394:2417   */\n      sub\n        /* \"#utility.yul\":2390:2422   */\n      slt\n        /* \"#utility.yul\":2387:2506   */\n      iszero\n      tag_171\n      jumpi\n        /* \"#utility.yul\":2425:2504   */\n      tag_172\n      tag_126\n      jump\t// in\n    tag_172:\n        /* \"#utility.yul\":2387:2506   */\n    tag_171:\n        /* \"#utility.yul\":2545:2546   */\n      0x00\n        /* \"#utility.yul\":2570:2623   */\n      tag_173\n        /* \"#utility.yul\":2615:2622   */\n      dup5\n        /* \"#utility.yul\":2606:2612   */\n      dup3\n        /* \"#utility.yul\":2595:2604   */\n      dup6\n        /* \"#utility.yul\":2591:2613   */\n      add\n        /* \"#utility.yul\":2570:2623   */\n      tag_135\n      jump\t// in\n    tag_173:\n        /* \"#utility.yul\":2560:2623   */\n      swap2\n      pop\n        /* \"#utility.yul\":2516:2633   */\n      pop\n        /* \"#utility.yul\":2311:2640   */\n      swap3\n      swap2\n      pop\n      pop\n      jump\t// out\n        /* \"#utility.yul\":2646:2764   */\n    tag_136:\n        /* \"#utility.yul\":2733:2757   */\n      tag_175\n        /* \"#utility.yul\":2751:2756   */\n      dup2\n        /* \"#utility.yul\":2733:2757   */\n      tag_129\n      jump\t// in\n    tag_175:\n        /* \"#utility.yul\":2728:2731   */\n      dup3\n        /* \"#utility.yul\":2721:2758   */\n      mstore\n        /* \"#utility.yul\":2646:2764   */\n      pop\n      pop\n      jump\t// out\n        /* \"#utility.yul\":2770:2992   */\n    tag_48:\n        /* \"#utility.yul\":2863:2867   */\n      0x00\n        /* \"#utility.yul\":2901:2903   */\n      0x20\n        /* \"#utility.yul\":2890:2899   */\n      dup3\n        /* \"#utility.yul\":2886:2904   */\n      add\n        /* \"#utility.yul\":2878:2904   */\n      swap1\n      pop\n        /* \"#utility.yul\":2914:2985   */\n      tag_177\n        /* \"#utility.yul\":2982:2983   */\n      0x00\n        /* \"#utility.yul\":2971:2980   */\n      dup4\n        /* \"#utility.yul\":2967:2984   */\n      add\n        /* \"#utility.yul\":2958:2964   */\n      dup5\n        /* \"#utility.yul\":2914:2985   */\n      tag_136\n      jump\t// in\n    tag_177:\n        /* \"#utility.yul\":2770:2992   */\n      swap3\n      swap2\n      pop\n      pop\n      jump\t// out\n        /* \"#utility.yul\":2998:3178   */\n    tag_54:\n        /* \"#utility.yul\":3046:3123   */\n      0x4e487b7100000000000000000000000000000000000000000000000000000000\n        /* \"#utility.yul\":3043:3044   */\n      0x00\n        /* \"#utility.yul\":3036:3124   */\n      mstore\n        /* \"#utility.yul\":3143:3147   */\n      0x32\n        /* \"#utility.yul\":3140:3141   */\n      0x04\n        /* \"#utility.yul\":3133:3148   */\n      mstore\n        /* \"#utility.yul\":3167:3171   */\n      0x24\n        /* \"#utility.yul\":3164:3165   */\n      0x00\n        /* \"#utility.yul\":3157:3172   */\n      revert\n        /* \"#utility.yul\":3184:3364   */\n    tag_137:\n        /* \"#utility.yul\":3232:3309   */\n      0x4e487b7100000000000000000000000000000000000000000000000000000000\n        /* \"#utility.yul\":3229:3230   */\n      0x00\n        /* \"#utility.yul\":3222:3310   */\n      mstore\n        /* \"#utility.yul\":3329:3333   */\n      0x11\n        /* \"#utility.yul\":3326:3327   */\n      0x04\n        /* \"#utility.yul\":3319:3334   */\n      mstore\n        /* \"#utility.yul\":3353:3357   */\n      0x24\n        /* \"#utility.yul\":3350:3351   */\n      0x00\n        /* \"#utility.yul\":3343:3358   */\n      revert\n        /* \"#utility.yul\":3370:3561   */\n    tag_59:\n        /* \"#utility.yul\":3410:3413   */\n      0x00\n        /* \"#utility.yul\":3429:3449   */\n      tag_181\n        /* \"#utility.yul\":3447:3448   */\n      dup3\n        /* \"#utility.yul\":3429:3449   */\n      tag_123\n      jump\t// in\n    tag_181:\n        /* \"#utility.yul\":3424:3449   */\n      swap2\n      pop\n        /* \"#utility.yul\":3463:3483   */\n      tag_182\n        /* \"#utility.yul\":3481:3482   */\n      dup4\n        /* \"#utility.yul\":3463:3483   */\n      tag_123\n      jump\t// in\n    tag_182:\n        /* \"#utility.yul\":3458:3483   */\n      swap3\n      pop\n        /* \"#utility.yul\":3506:3507   */\n      dup3\n        /* \"#utility.yul\":3503:3504   */\n      dup3\n        /* \"#utility.yul\":3499:3508   */\n      add\n        /* \"#utility.yul\":3492:3508   */\n      swap1\n      pop\n        /* \"#utility.yul\":3527:3530   */\n      dup1\n        /* \"#utility.yul\":3524:3525   */\n      dup3\n        /* \"#utility.yul\":3521:3531   */\n      gt\n        /* \"#utility.yul\":3518:3554   */\n      iszero\n      tag_183\n      jumpi\n        /* \"#utility.yul\":3534:3552   */\n      tag_184\n      tag_137\n      jump\t// in\n    tag_184:\n        /* \"#utility.yul\":3518:3554   */\n    tag_183:\n        /* \"#utility.yul\":3370:3561   */\n      swap3\n      swap2\n      pop\n      pop\n      jump\t// out\n        /* \"#utility.yul\":3567:3800   */\n    tag_62:\n        /* \"#utility.yul\":3606:3609   */\n      0x00\n        /* \"#utility.yul\":3629:3653   */\n      tag_186\n        /* \"#utility.yul\":3647:3652   */\n      dup3\n        /* \"#utility.yul\":3629:3653   */\n      tag_123\n      jump\t// in\n    tag_186:\n        /* \"#utility.yul\":3620:3653   */\n      swap2\n      pop\n        /* \"#utility.yul\":3675:3741   */\n      0xffffffffffffffffffffffffffffffffffffffffffffffffffffffffffffffff\n        /* \"#utility.yul\":3668:3673   */\n      dup3\n        /* \"#utility.yul\":3665:3742   */\n      sub\n        /* \"#utility.yul\":3662:3765   */\n      tag_187\n      jumpi\n        /* \"#utility.yul\":3745:3763   */\n      tag_188\n      tag_137\n      jump\t// in\n    tag_188:\n        /* \"#utility.yul\":3662:3765   */\n    tag_187:\n        /* \"#utility.yul\":3792:3793   */\n      0x01\n        /* \"#utility.yul\":3785:3790   */\n      dup3\n        /* \"#utility.yul\":3781:3794   */\n      add\n        /* \"#utility.yul\":3774:3794   */\n      swap1\n      pop\n        /* \"#utility.yul\":3567:3800   */\n      swap2\n      swap1\n      pop\n      jump\t// out\n        /* \"#utility.yul\":3806:3986   */\n    tag_138:\n        /* \"#utility.yul\":3854:3931   */\n      0x4e487b7100000000000000000000000000000000000000000000000000000000\n        /* \"#utility.yul\":3851:3852   */\n      0x00\n        /* \"#utility.yul\":3844:3932   */\n      mstore\n        /* \"#utility.yul\":3951:3955   */\n      0x12\n        /* \"#utility.yul\":3948:3949   */\n      0x04\n        /* \"#utility.yul\":3941:3956   */\n      mstore\n        /* \"#utility.yul\":3975:3979   */\n      0x24\n        /* \"#utility.yul\":3972:3973   */\n      0x00\n        /* \"#utility.yul\":3965:3980   */\n      revert\n        /* \"#utility.yul\":3992:4177   */\n    tag_102:\n        /* \"#utility.yul\":4032:4033   */\n      0x00\n        /* \"#utility.yul\":4049:4069   */\n      tag_191\n        /* \"#utility.yul\":4067:4068   */\n      dup3\n        /* \"#utility.yul\":4049:4069   */\n      tag_123\n      jump\t// in\n    tag_191:\n        /* \"#utility.yul\":4044:4069   */\n      swap2\n      pop\n        /* \"#utility.yul\":4083:4103   */\n      tag_192\n        /* \"#utility.yul\":4101:4102   */\n      dup4\n        /* \"#utility.yul\":4083:4103   */\n      tag_123\n      jump\t// in\n    tag_192:\n        /* \"#utility.yul\":4078:4103   */\n      swap3\n      pop\n        /* \"#utility.yul\":4122:4123   */\n      dup3\n        /* \"#utility.yul\":4112:4147   */\n      tag_193\n      jumpi\n        /* \"#utility.yul\":4127:4145   */\n      tag_194\n      tag_138\n      jump\t// in\n    tag_194:\n        /* \"#utility.yul\":4112:4147   */\n    tag_193:\n        /* \"#utility.yul\":4169:4170   */\n      dup3\n        /* \"#utility.yul\":4166:4167   */\n      dup3\n        /* \"#utility.yul\":4162:4171   */\n      div\n        /* \"#utility.yul\":4157:4171   */\n      swap1\n      pop\n        /* \"#utility.yul\":3992:4177   */\n      swap3\n      swap2\n      pop\n      pop\n      jump\t// out\n\n    auxdata: 0xa26469706673582212206ad217634f2b3c31eec0f1f04c05dd8a18139fe95706917def42721086e9487764736f6c634300081a0033\n}\n",
				"bytecode": {
					"linkReferences": {},
					"object": "60806040525f80555f6001555f6005553480156019575f80fd5b50610b8c806100275f395ff3fe60806040526004361061007a575f3560e01c806390d5d0c31161004d57806390d5d0c314610118578063a040478d14610142578063ce6e1c4e1461017e578063f71d96cb146101a65761007a565b8063086f78151461007e578063190cf745146100a8578063228cb733146100e457806327b5db8a1461010e575b5f80fd5b348015610089575f80fd5b506100926101e2565b60405161009f91906108d3565b60405180910390f35b3480156100b3575f80fd5b506100ce60048036038101906100c9919061094a565b6101e8565b6040516100db919061098f565b60405180910390f35b3480156100ef575f80fd5b506100f8610205565b60405161010591906108d3565b60405180910390f35b61011661020b565b005b348015610123575f80fd5b5061012c61038c565b60405161013991906108d3565b60405180910390f35b34801561014d575f80fd5b506101686004803603810190610163919061094a565b610391565b60405161017591906108d3565b60405180910390f35b348015610189575f80fd5b506101a4600480360381019061019f91906109d2565b6103a6565b005b3480156101b1575f80fd5b506101cc60048036038101906101c791906109d2565b6104ff565b6040516101d99190610a0c565b60405180910390f35b60055481565b6003602052805f5260405f205f915054906101000a900460ff1681565b60015481565b60025f5410610218575f80fd5b5f805411156102945760045f8154811061023557610234610a25565b5b905f5260205f20015f9054906101000a900473ffffffffffffffffffffffffffffffffffffffff1673ffffffffffffffffffffffffffffffffffffffff163373ffffffffffffffffffffffffffffffffffffffff1603610293575f80fd5b5b670de0b6b3a764000034146102a7575f80fd5b3460015f8282546102b89190610a7f565b92505081905550600160035f3373ffffffffffffffffffffffffffffffffffffffff1673ffffffffffffffffffffffffffffffffffffffff1681526020019081526020015f205f6101000a81548160ff021916908315150217905550600433908060018154018082558091505060019003905f5260205f20015f9091909190916101000a81548173ffffffffffffffffffffffffffffffffffffffff021916908373ffffffffffffffffffffffffffffffffffffffff1602179055505f8081548092919061038590610ab2565b9190505550565b5f5481565b6002602052805f5260405f205f915090505481565b60025f54146103b3575f80fd5b60035f3373ffffffffffffffffffffffffffffffffffffffff1673ffffffffffffffffffffffffffffffffffffffff1681526020019081526020015f205f9054906101000a900460ff16610405575f80fd5b5f8114806104135750600181145b8061041e5750600281145b806104295750600381145b806104345750600481145b61043c575f80fd5b8060025f3373ffffffffffffffffffffffffffffffffffffffff1673ffffffffffffffffffffffffffffffffffffffff1681526020019081526020015f20819055505f60035f3373ffffffffffffffffffffffffffffffffffffffff1673ffffffffffffffffffffffffffffffffffffffff1681526020019081526020015f205f6101000a81548160ff02191690831515021790555060055f8154809291906104e490610ab2565b91905055506002600554036104fc576104fb61053a565b5b50565b6004818154811061050e575f80fd5b905f5260205f20015f915054906101000a900473ffffffffffffffffffffffffffffffffffffffff1681565b5f60025f60045f8154811061055257610551610a25565b5b905f5260205f20015f9054906101000a900473ffffffffffffffffffffffffffffffffffffffff1673ffffffffffffffffffffffffffffffffffffffff1673ffffffffffffffffffffffffffffffffffffffff1681526020019081526020015f205490505f60025f60046001815481106105cf576105ce610a25565b5b905f5260205f20015f9054906101000a900473ffffffffffffffffffffffffffffffffffffffff1673ffffffffffffffffffffffffffffffffffffffff1673ffffffffffffffffffffffffffffffffffffffff1681526020019081526020015f205490505f60045f8154811061064857610647610a25565b5b905f5260205f20015f9054906101000a900473ffffffffffffffffffffffffffffffffffffffff1690505f600460018154811061068857610687610a25565b5b905f5260205f20015f9054906101000a900473ffffffffffffffffffffffffffffffffffffffff1690506106bc8484610812565b1561070c578173ffffffffffffffffffffffffffffffffffffffff166108fc60015490811502906040515f60405180830381858888f19350505050158015610706573d5f803e3d5ffd5b5061080c565b6107168385610812565b15610766578073ffffffffffffffffffffffffffffffffffffffff166108fc60015490811502906040515f60405180830381858888f19350505050158015610760573d5f803e3d5ffd5b5061080b565b8173ffffffffffffffffffffffffffffffffffffffff166108fc600260015461078f9190610b26565b90811502906040515f60405180830381858888f193505050501580156107b7573d5f803e3d5ffd5b508073ffffffffffffffffffffffffffffffffffffffff166108fc60026001546107e19190610b26565b90811502906040515f60405180830381858888f19350505050158015610809573d5f803e3d5ffd5b505b5b50505050565b5f808314801561082d5750600282148061082c5750600382145b5b8061084e575060018314801561084d57505f82148061084c5750600482145b5b5b80610870575060028314801561086f5750600182148061086e5750600382145b5b5b806108925750600383148015610891575060018214806108905750600482145b5b5b806108b357506004831480156108b257505f8214806108b15750600282145b5b5b905092915050565b5f819050919050565b6108cd816108bb565b82525050565b5f6020820190506108e65f8301846108c4565b92915050565b5f80fd5b5f73ffffffffffffffffffffffffffffffffffffffff82169050919050565b5f610919826108f0565b9050919050565b6109298161090f565b8114610933575f80fd5b50565b5f8135905061094481610920565b92915050565b5f6020828403121561095f5761095e6108ec565b5b5f61096c84828501610936565b91505092915050565b5f8115159050919050565b61098981610975565b82525050565b5f6020820190506109a25f830184610980565b92915050565b6109b1816108bb565b81146109bb575f80fd5b50565b5f813590506109cc816109a8565b92915050565b5f602082840312156109e7576109e66108ec565b5b5f6109f4848285016109be565b91505092915050565b610a068161090f565b82525050565b5f602082019050610a1f5f8301846109fd565b92915050565b7f4e487b71000000000000000000000000000000000000000000000000000000005f52603260045260245ffd5b7f4e487b71000000000000000000000000000000000000000000000000000000005f52601160045260245ffd5b5f610a89826108bb565b9150610a94836108bb565b9250828201905080821115610aac57610aab610a52565b5b92915050565b5f610abc826108bb565b91507fffffffffffffffffffffffffffffffffffffffffffffffffffffffffffffffff8203610aee57610aed610a52565b5b600182019050919050565b7f4e487b71000000000000000000000000000000000000000000000000000000005f52601260045260245ffd5b5f610b30826108bb565b9150610b3b836108bb565b925082610b4b57610b4a610af9565b5b82820490509291505056fea26469706673582212206ad217634f2b3c31eec0f1f04c05dd8a18139fe95706917def42721086e9487764736f6c634300081a0033",
					"opcodes": "PUSH1 0x80 PUSH1 0x40 MSTORE PUSH0 DUP1 SSTORE PUSH0 PUSH1 0x1 SSTORE PUSH0 PUSH1 0x5 SSTORE CALLVALUE DUP1 ISZERO PUSH1 0x19 JUMPI PUSH0 DUP1 REVERT JUMPDEST POP PUSH2 0xB8C DUP1 PUSH2 0x27 PUSH0 CODECOPY PUSH0 RETURN INVALID PUSH1 0x80 PUSH1 0x40 MSTORE PUSH1 0x4 CALLDATASIZE LT PUSH2 0x7A JUMPI PUSH0 CALLDATALOAD PUSH1 0xE0 SHR DUP1 PUSH4 0x90D5D0C3 GT PUSH2 0x4D JUMPI DUP1 PUSH4 0x90D5D0C3 EQ PUSH2 0x118 JUMPI DUP1 PUSH4 0xA040478D EQ PUSH2 0x142 JUMPI DUP1 PUSH4 0xCE6E1C4E EQ PUSH2 0x17E JUMPI DUP1 PUSH4 0xF71D96CB EQ PUSH2 0x1A6 JUMPI PUSH2 0x7A JUMP JUMPDEST DUP1 PUSH4 0x86F7815 EQ PUSH2 0x7E JUMPI DUP1 PUSH4 0x190CF745 EQ PUSH2 0xA8 JUMPI DUP1 PUSH4 0x228CB733 EQ PUSH2 0xE4 JUMPI DUP1 PUSH4 0x27B5DB8A EQ PUSH2 0x10E JUMPI JUMPDEST PUSH0 DUP1 REVERT JUMPDEST CALLVALUE DUP1 ISZERO PUSH2 0x89 JUMPI PUSH0 DUP1 REVERT JUMPDEST POP PUSH2 0x92 PUSH2 0x1E2 JUMP JUMPDEST PUSH1 0x40 MLOAD PUSH2 0x9F SWAP2 SWAP1 PUSH2 0x8D3 JUMP JUMPDEST PUSH1 0x40 MLOAD DUP1 SWAP2 SUB SWAP1 RETURN JUMPDEST CALLVALUE DUP1 ISZERO PUSH2 0xB3 JUMPI PUSH0 DUP1 REVERT JUMPDEST POP PUSH2 0xCE PUSH1 0x4 DUP1 CALLDATASIZE SUB DUP2 ADD SWAP1 PUSH2 0xC9 SWAP2 SWAP1 PUSH2 0x94A JUMP JUMPDEST PUSH2 0x1E8 JUMP JUMPDEST PUSH1 0x40 MLOAD PUSH2 0xDB SWAP2 SWAP1 PUSH2 0x98F JUMP JUMPDEST PUSH1 0x40 MLOAD DUP1 SWAP2 SUB SWAP1 RETURN JUMPDEST CALLVALUE DUP1 ISZERO PUSH2 0xEF JUMPI PUSH0 DUP1 REVERT JUMPDEST POP PUSH2 0xF8 PUSH2 0x205 JUMP JUMPDEST PUSH1 0x40 MLOAD PUSH2 0x105 SWAP2 SWAP1 PUSH2 0x8D3 JUMP JUMPDEST PUSH1 0x40 MLOAD DUP1 SWAP2 SUB SWAP1 RETURN JUMPDEST PUSH2 0x116 PUSH2 0x20B JUMP JUMPDEST STOP JUMPDEST CALLVALUE DUP1 ISZERO PUSH2 0x123 JUMPI PUSH0 DUP1 REVERT JUMPDEST POP PUSH2 0x12C PUSH2 0x38C JUMP JUMPDEST PUSH1 0x40 MLOAD PUSH2 0x139 SWAP2 SWAP1 PUSH2 0x8D3 JUMP JUMPDEST PUSH1 0x40 MLOAD DUP1 SWAP2 SUB SWAP1 RETURN JUMPDEST CALLVALUE DUP1 ISZERO PUSH2 0x14D JUMPI PUSH0 DUP1 REVERT JUMPDEST POP PUSH2 0x168 PUSH1 0x4 DUP1 CALLDATASIZE SUB DUP2 ADD SWAP1 PUSH2 0x163 SWAP2 SWAP1 PUSH2 0x94A JUMP JUMPDEST PUSH2 0x391 JUMP JUMPDEST PUSH1 0x40 MLOAD PUSH2 0x175 SWAP2 SWAP1 PUSH2 0x8D3 JUMP JUMPDEST PUSH1 0x40 MLOAD DUP1 SWAP2 SUB SWAP1 RETURN JUMPDEST CALLVALUE DUP1 ISZERO PUSH2 0x189 JUMPI PUSH0 DUP1 REVERT JUMPDEST POP PUSH2 0x1A4 PUSH1 0x4 DUP1 CALLDATASIZE SUB DUP2 ADD SWAP1 PUSH2 0x19F SWAP2 SWAP1 PUSH2 0x9D2 JUMP JUMPDEST PUSH2 0x3A6 JUMP JUMPDEST STOP JUMPDEST CALLVALUE DUP1 ISZERO PUSH2 0x1B1 JUMPI PUSH0 DUP1 REVERT JUMPDEST POP PUSH2 0x1CC PUSH1 0x4 DUP1 CALLDATASIZE SUB DUP2 ADD SWAP1 PUSH2 0x1C7 SWAP2 SWAP1 PUSH2 0x9D2 JUMP JUMPDEST PUSH2 0x4FF JUMP JUMPDEST PUSH1 0x40 MLOAD PUSH2 0x1D9 SWAP2 SWAP1 PUSH2 0xA0C JUMP JUMPDEST PUSH1 0x40 MLOAD DUP1 SWAP2 SUB SWAP1 RETURN JUMPDEST PUSH1 0x5 SLOAD DUP2 JUMP JUMPDEST PUSH1 0x3 PUSH1 0x20 MSTORE DUP1 PUSH0 MSTORE PUSH1 0x40 PUSH0 KECCAK256 PUSH0 SWAP2 POP SLOAD SWAP1 PUSH2 0x100 EXP SWAP1 DIV PUSH1 0xFF AND DUP2 JUMP JUMPDEST PUSH1 0x1 SLOAD DUP2 JUMP JUMPDEST PUSH1 0x2 PUSH0 SLOAD LT PUSH2 0x218 JUMPI PUSH0 DUP1 REVERT JUMPDEST PUSH0 DUP1 SLOAD GT ISZERO PUSH2 0x294 JUMPI PUSH1 0x4 PUSH0 DUP2 SLOAD DUP2 LT PUSH2 0x235 JUMPI PUSH2 0x234 PUSH2 0xA25 JUMP JUMPDEST JUMPDEST SWAP1 PUSH0 MSTORE PUSH1 0x20 PUSH0 KECCAK256 ADD PUSH0 SWAP1 SLOAD SWAP1 PUSH2 0x100 EXP SWAP1 DIV PUSH20 0xFFFFFFFFFFFFFFFFFFFFFFFFFFFFFFFFFFFFFFFF AND PUSH20 0xFFFFFFFFFFFFFFFFFFFFFFFFFFFFFFFFFFFFFFFF AND CALLER PUSH20 0xFFFFFFFFFFFFFFFFFFFFFFFFFFFFFFFFFFFFFFFF AND SUB PUSH2 0x293 JUMPI PUSH0 DUP1 REVERT JUMPDEST JUMPDEST PUSH8 0xDE0B6B3A7640000 CALLVALUE EQ PUSH2 0x2A7 JUMPI PUSH0 DUP1 REVERT JUMPDEST CALLVALUE PUSH1 0x1 PUSH0 DUP3 DUP3 SLOAD PUSH2 0x2B8 SWAP2 SWAP1 PUSH2 0xA7F JUMP JUMPDEST SWAP3 POP POP DUP2 SWAP1 SSTORE POP PUSH1 0x1 PUSH1 0x3 PUSH0 CALLER PUSH20 0xFFFFFFFFFFFFFFFFFFFFFFFFFFFFFFFFFFFFFFFF AND PUSH20 0xFFFFFFFFFFFFFFFFFFFFFFFFFFFFFFFFFFFFFFFF AND DUP2 MSTORE PUSH1 0x20 ADD SWAP1 DUP2 MSTORE PUSH1 0x20 ADD PUSH0 KECCAK256 PUSH0 PUSH2 0x100 EXP DUP2 SLOAD DUP2 PUSH1 0xFF MUL NOT AND SWAP1 DUP4 ISZERO ISZERO MUL OR SWAP1 SSTORE POP PUSH1 0x4 CALLER SWAP1 DUP1 PUSH1 0x1 DUP2 SLOAD ADD DUP1 DUP3 SSTORE DUP1 SWAP2 POP POP PUSH1 0x1 SWAP1 SUB SWAP1 PUSH0 MSTORE PUSH1 0x20 PUSH0 KECCAK256 ADD PUSH0 SWAP1 SWAP2 SWAP1 SWAP2 SWAP1 SWAP2 PUSH2 0x100 EXP DUP2 SLOAD DUP2 PUSH20 0xFFFFFFFFFFFFFFFFFFFFFFFFFFFFFFFFFFFFFFFF MUL NOT AND SWAP1 DUP4 PUSH20 0xFFFFFFFFFFFFFFFFFFFFFFFFFFFFFFFFFFFFFFFF AND MUL OR SWAP1 SSTORE POP PUSH0 DUP1 DUP2 SLOAD DUP1 SWAP3 SWAP2 SWAP1 PUSH2 0x385 SWAP1 PUSH2 0xAB2 JUMP JUMPDEST SWAP2 SWAP1 POP SSTORE POP JUMP JUMPDEST PUSH0 SLOAD DUP2 JUMP JUMPDEST PUSH1 0x2 PUSH1 0x20 MSTORE DUP1 PUSH0 MSTORE PUSH1 0x40 PUSH0 KECCAK256 PUSH0 SWAP2 POP SWAP1 POP SLOAD DUP2 JUMP JUMPDEST PUSH1 0x2 PUSH0 SLOAD EQ PUSH2 0x3B3 JUMPI PUSH0 DUP1 REVERT JUMPDEST PUSH1 0x3 PUSH0 CALLER PUSH20 0xFFFFFFFFFFFFFFFFFFFFFFFFFFFFFFFFFFFFFFFF AND PUSH20 0xFFFFFFFFFFFFFFFFFFFFFFFFFFFFFFFFFFFFFFFF AND DUP2 MSTORE PUSH1 0x20 ADD SWAP1 DUP2 MSTORE PUSH1 0x20 ADD PUSH0 KECCAK256 PUSH0 SWAP1 SLOAD SWAP1 PUSH2 0x100 EXP SWAP1 DIV PUSH1 0xFF AND PUSH2 0x405 JUMPI PUSH0 DUP1 REVERT JUMPDEST PUSH0 DUP2 EQ DUP1 PUSH2 0x413 JUMPI POP PUSH1 0x1 DUP2 EQ JUMPDEST DUP1 PUSH2 0x41E JUMPI POP PUSH1 0x2 DUP2 EQ JUMPDEST DUP1 PUSH2 0x429 JUMPI POP PUSH1 0x3 DUP2 EQ JUMPDEST DUP1 PUSH2 0x434 JUMPI POP PUSH1 0x4 DUP2 EQ JUMPDEST PUSH2 0x43C JUMPI PUSH0 DUP1 REVERT JUMPDEST DUP1 PUSH1 0x2 PUSH0 CALLER PUSH20 0xFFFFFFFFFFFFFFFFFFFFFFFFFFFFFFFFFFFFFFFF AND PUSH20 0xFFFFFFFFFFFFFFFFFFFFFFFFFFFFFFFFFFFFFFFF AND DUP2 MSTORE PUSH1 0x20 ADD SWAP1 DUP2 MSTORE PUSH1 0x20 ADD PUSH0 KECCAK256 DUP2 SWAP1 SSTORE POP PUSH0 PUSH1 0x3 PUSH0 CALLER PUSH20 0xFFFFFFFFFFFFFFFFFFFFFFFFFFFFFFFFFFFFFFFF AND PUSH20 0xFFFFFFFFFFFFFFFFFFFFFFFFFFFFFFFFFFFFFFFF AND DUP2 MSTORE PUSH1 0x20 ADD SWAP1 DUP2 MSTORE PUSH1 0x20 ADD PUSH0 KECCAK256 PUSH0 PUSH2 0x100 EXP DUP2 SLOAD DUP2 PUSH1 0xFF MUL NOT AND SWAP1 DUP4 ISZERO ISZERO MUL OR SWAP1 SSTORE POP PUSH1 0x5 PUSH0 DUP2 SLOAD DUP1 SWAP3 SWAP2 SWAP1 PUSH2 0x4E4 SWAP1 PUSH2 0xAB2 JUMP JUMPDEST SWAP2 SWAP1 POP SSTORE POP PUSH1 0x2 PUSH1 0x5 SLOAD SUB PUSH2 0x4FC JUMPI PUSH2 0x4FB PUSH2 0x53A JUMP JUMPDEST JUMPDEST POP JUMP JUMPDEST PUSH1 0x4 DUP2 DUP2 SLOAD DUP2 LT PUSH2 0x50E JUMPI PUSH0 DUP1 REVERT JUMPDEST SWAP1 PUSH0 MSTORE PUSH1 0x20 PUSH0 KECCAK256 ADD PUSH0 SWAP2 POP SLOAD SWAP1 PUSH2 0x100 EXP SWAP1 DIV PUSH20 0xFFFFFFFFFFFFFFFFFFFFFFFFFFFFFFFFFFFFFFFF AND DUP2 JUMP JUMPDEST PUSH0 PUSH1 0x2 PUSH0 PUSH1 0x4 PUSH0 DUP2 SLOAD DUP2 LT PUSH2 0x552 JUMPI PUSH2 0x551 PUSH2 0xA25 JUMP JUMPDEST JUMPDEST SWAP1 PUSH0 MSTORE PUSH1 0x20 PUSH0 KECCAK256 ADD PUSH0 SWAP1 SLOAD SWAP1 PUSH2 0x100 EXP SWAP1 DIV PUSH20 0xFFFFFFFFFFFFFFFFFFFFFFFFFFFFFFFFFFFFFFFF AND PUSH20 0xFFFFFFFFFFFFFFFFFFFFFFFFFFFFFFFFFFFFFFFF AND PUSH20 0xFFFFFFFFFFFFFFFFFFFFFFFFFFFFFFFFFFFFFFFF AND DUP2 MSTORE PUSH1 0x20 ADD SWAP1 DUP2 MSTORE PUSH1 0x20 ADD PUSH0 KECCAK256 SLOAD SWAP1 POP PUSH0 PUSH1 0x2 PUSH0 PUSH1 0x4 PUSH1 0x1 DUP2 SLOAD DUP2 LT PUSH2 0x5CF JUMPI PUSH2 0x5CE PUSH2 0xA25 JUMP JUMPDEST JUMPDEST SWAP1 PUSH0 MSTORE PUSH1 0x20 PUSH0 KECCAK256 ADD PUSH0 SWAP1 SLOAD SWAP1 PUSH2 0x100 EXP SWAP1 DIV PUSH20 0xFFFFFFFFFFFFFFFFFFFFFFFFFFFFFFFFFFFFFFFF AND PUSH20 0xFFFFFFFFFFFFFFFFFFFFFFFFFFFFFFFFFFFFFFFF AND PUSH20 0xFFFFFFFFFFFFFFFFFFFFFFFFFFFFFFFFFFFFFFFF AND DUP2 MSTORE PUSH1 0x20 ADD SWAP1 DUP2 MSTORE PUSH1 0x20 ADD PUSH0 KECCAK256 SLOAD SWAP1 POP PUSH0 PUSH1 0x4 PUSH0 DUP2 SLOAD DUP2 LT PUSH2 0x648 JUMPI PUSH2 0x647 PUSH2 0xA25 JUMP JUMPDEST JUMPDEST SWAP1 PUSH0 MSTORE PUSH1 0x20 PUSH0 KECCAK256 ADD PUSH0 SWAP1 SLOAD SWAP1 PUSH2 0x100 EXP SWAP1 DIV PUSH20 0xFFFFFFFFFFFFFFFFFFFFFFFFFFFFFFFFFFFFFFFF AND SWAP1 POP PUSH0 PUSH1 0x4 PUSH1 0x1 DUP2 SLOAD DUP2 LT PUSH2 0x688 JUMPI PUSH2 0x687 PUSH2 0xA25 JUMP JUMPDEST JUMPDEST SWAP1 PUSH0 MSTORE PUSH1 0x20 PUSH0 KECCAK256 ADD PUSH0 SWAP1 SLOAD SWAP1 PUSH2 0x100 EXP SWAP1 DIV PUSH20 0xFFFFFFFFFFFFFFFFFFFFFFFFFFFFFFFFFFFFFFFF AND SWAP1 POP PUSH2 0x6BC DUP5 DUP5 PUSH2 0x812 JUMP JUMPDEST ISZERO PUSH2 0x70C JUMPI DUP2 PUSH20 0xFFFFFFFFFFFFFFFFFFFFFFFFFFFFFFFFFFFFFFFF AND PUSH2 0x8FC PUSH1 0x1 SLOAD SWAP1 DUP2 ISZERO MUL SWAP1 PUSH1 0x40 MLOAD PUSH0 PUSH1 0x40 MLOAD DUP1 DUP4 SUB DUP2 DUP6 DUP9 DUP9 CALL SWAP4 POP POP POP POP ISZERO DUP1 ISZERO PUSH2 0x706 JUMPI RETURNDATASIZE PUSH0 DUP1 RETURNDATACOPY RETURNDATASIZE PUSH0 REVERT JUMPDEST POP PUSH2 0x80C JUMP JUMPDEST PUSH2 0x716 DUP4 DUP6 PUSH2 0x812 JUMP JUMPDEST ISZERO PUSH2 0x766 JUMPI DUP1 PUSH20 0xFFFFFFFFFFFFFFFFFFFFFFFFFFFFFFFFFFFFFFFF AND PUSH2 0x8FC PUSH1 0x1 SLOAD SWAP1 DUP2 ISZERO MUL SWAP1 PUSH1 0x40 MLOAD PUSH0 PUSH1 0x40 MLOAD DUP1 DUP4 SUB DUP2 DUP6 DUP9 DUP9 CALL SWAP4 POP POP POP POP ISZERO DUP1 ISZERO PUSH2 0x760 JUMPI RETURNDATASIZE PUSH0 DUP1 RETURNDATACOPY RETURNDATASIZE PUSH0 REVERT JUMPDEST POP PUSH2 0x80B JUMP JUMPDEST DUP2 PUSH20 0xFFFFFFFFFFFFFFFFFFFFFFFFFFFFFFFFFFFFFFFF AND PUSH2 0x8FC PUSH1 0x2 PUSH1 0x1 SLOAD PUSH2 0x78F SWAP2 SWAP1 PUSH2 0xB26 JUMP JUMPDEST SWAP1 DUP2 ISZERO MUL SWAP1 PUSH1 0x40 MLOAD PUSH0 PUSH1 0x40 MLOAD DUP1 DUP4 SUB DUP2 DUP6 DUP9 DUP9 CALL SWAP4 POP POP POP POP ISZERO DUP1 ISZERO PUSH2 0x7B7 JUMPI RETURNDATASIZE PUSH0 DUP1 RETURNDATACOPY RETURNDATASIZE PUSH0 REVERT JUMPDEST POP DUP1 PUSH20 0xFFFFFFFFFFFFFFFFFFFFFFFFFFFFFFFFFFFFFFFF AND PUSH2 0x8FC PUSH1 0x2 PUSH1 0x1 SLOAD PUSH2 0x7E1 SWAP2 SWAP1 PUSH2 0xB26 JUMP JUMPDEST SWAP1 DUP2 ISZERO MUL SWAP1 PUSH1 0x40 MLOAD PUSH0 PUSH1 0x40 MLOAD DUP1 DUP4 SUB DUP2 DUP6 DUP9 DUP9 CALL SWAP4 POP POP POP POP ISZERO DUP1 ISZERO PUSH2 0x809 JUMPI RETURNDATASIZE PUSH0 DUP1 RETURNDATACOPY RETURNDATASIZE PUSH0 REVERT JUMPDEST POP JUMPDEST JUMPDEST POP POP POP POP JUMP JUMPDEST PUSH0 DUP1 DUP4 EQ DUP1 ISZERO PUSH2 0x82D JUMPI POP PUSH1 0x2 DUP3 EQ DUP1 PUSH2 0x82C JUMPI POP PUSH1 0x3 DUP3 EQ JUMPDEST JUMPDEST DUP1 PUSH2 0x84E JUMPI POP PUSH1 0x1 DUP4 EQ DUP1 ISZERO PUSH2 0x84D JUMPI POP PUSH0 DUP3 EQ DUP1 PUSH2 0x84C JUMPI POP PUSH1 0x4 DUP3 EQ JUMPDEST JUMPDEST JUMPDEST DUP1 PUSH2 0x870 JUMPI POP PUSH1 0x2 DUP4 EQ DUP1 ISZERO PUSH2 0x86F JUMPI POP PUSH1 0x1 DUP3 EQ DUP1 PUSH2 0x86E JUMPI POP PUSH1 0x3 DUP3 EQ JUMPDEST JUMPDEST JUMPDEST DUP1 PUSH2 0x892 JUMPI POP PUSH1 0x3 DUP4 EQ DUP1 ISZERO PUSH2 0x891 JUMPI POP PUSH1 0x1 DUP3 EQ DUP1 PUSH2 0x890 JUMPI POP PUSH1 0x4 DUP3 EQ JUMPDEST JUMPDEST JUMPDEST DUP1 PUSH2 0x8B3 JUMPI POP PUSH1 0x4 DUP4 EQ DUP1 ISZERO PUSH2 0x8B2 JUMPI POP PUSH0 DUP3 EQ DUP1 PUSH2 0x8B1 JUMPI POP PUSH1 0x2 DUP3 EQ JUMPDEST JUMPDEST JUMPDEST SWAP1 POP SWAP3 SWAP2 POP POP JUMP JUMPDEST PUSH0 DUP2 SWAP1 POP SWAP2 SWAP1 POP JUMP JUMPDEST PUSH2 0x8CD DUP2 PUSH2 0x8BB JUMP JUMPDEST DUP3 MSTORE POP POP JUMP JUMPDEST PUSH0 PUSH1 0x20 DUP3 ADD SWAP1 POP PUSH2 0x8E6 PUSH0 DUP4 ADD DUP5 PUSH2 0x8C4 JUMP JUMPDEST SWAP3 SWAP2 POP POP JUMP JUMPDEST PUSH0 DUP1 REVERT JUMPDEST PUSH0 PUSH20 0xFFFFFFFFFFFFFFFFFFFFFFFFFFFFFFFFFFFFFFFF DUP3 AND SWAP1 POP SWAP2 SWAP1 POP JUMP JUMPDEST PUSH0 PUSH2 0x919 DUP3 PUSH2 0x8F0 JUMP JUMPDEST SWAP1 POP SWAP2 SWAP1 POP JUMP JUMPDEST PUSH2 0x929 DUP2 PUSH2 0x90F JUMP JUMPDEST DUP2 EQ PUSH2 0x933 JUMPI PUSH0 DUP1 REVERT JUMPDEST POP JUMP JUMPDEST PUSH0 DUP2 CALLDATALOAD SWAP1 POP PUSH2 0x944 DUP2 PUSH2 0x920 JUMP JUMPDEST SWAP3 SWAP2 POP POP JUMP JUMPDEST PUSH0 PUSH1 0x20 DUP3 DUP5 SUB SLT ISZERO PUSH2 0x95F JUMPI PUSH2 0x95E PUSH2 0x8EC JUMP JUMPDEST JUMPDEST PUSH0 PUSH2 0x96C DUP5 DUP3 DUP6 ADD PUSH2 0x936 JUMP JUMPDEST SWAP2 POP POP SWAP3 SWAP2 POP POP JUMP JUMPDEST PUSH0 DUP2 ISZERO ISZERO SWAP1 POP SWAP2 SWAP1 POP JUMP JUMPDEST PUSH2 0x989 DUP2 PUSH2 0x975 JUMP JUMPDEST DUP3 MSTORE POP POP JUMP JUMPDEST PUSH0 PUSH1 0x20 DUP3 ADD SWAP1 POP PUSH2 0x9A2 PUSH0 DUP4 ADD DUP5 PUSH2 0x980 JUMP JUMPDEST SWAP3 SWAP2 POP POP JUMP JUMPDEST PUSH2 0x9B1 DUP2 PUSH2 0x8BB JUMP JUMPDEST DUP2 EQ PUSH2 0x9BB JUMPI PUSH0 DUP1 REVERT JUMPDEST POP JUMP JUMPDEST PUSH0 DUP2 CALLDATALOAD SWAP1 POP PUSH2 0x9CC DUP2 PUSH2 0x9A8 JUMP JUMPDEST SWAP3 SWAP2 POP POP JUMP JUMPDEST PUSH0 PUSH1 0x20 DUP3 DUP5 SUB SLT ISZERO PUSH2 0x9E7 JUMPI PUSH2 0x9E6 PUSH2 0x8EC JUMP JUMPDEST JUMPDEST PUSH0 PUSH2 0x9F4 DUP5 DUP3 DUP6 ADD PUSH2 0x9BE JUMP JUMPDEST SWAP2 POP POP SWAP3 SWAP2 POP POP JUMP JUMPDEST PUSH2 0xA06 DUP2 PUSH2 0x90F JUMP JUMPDEST DUP3 MSTORE POP POP JUMP JUMPDEST PUSH0 PUSH1 0x20 DUP3 ADD SWAP1 POP PUSH2 0xA1F PUSH0 DUP4 ADD DUP5 PUSH2 0x9FD JUMP JUMPDEST SWAP3 SWAP2 POP POP JUMP JUMPDEST PUSH32 0x4E487B7100000000000000000000000000000000000000000000000000000000 PUSH0 MSTORE PUSH1 0x32 PUSH1 0x4 MSTORE PUSH1 0x24 PUSH0 REVERT JUMPDEST PUSH32 0x4E487B7100000000000000000000000000000000000000000000000000000000 PUSH0 MSTORE PUSH1 0x11 PUSH1 0x4 MSTORE PUSH1 0x24 PUSH0 REVERT JUMPDEST PUSH0 PUSH2 0xA89 DUP3 PUSH2 0x8BB JUMP JUMPDEST SWAP2 POP PUSH2 0xA94 DUP4 PUSH2 0x8BB JUMP JUMPDEST SWAP3 POP DUP3 DUP3 ADD SWAP1 POP DUP1 DUP3 GT ISZERO PUSH2 0xAAC JUMPI PUSH2 0xAAB PUSH2 0xA52 JUMP JUMPDEST JUMPDEST SWAP3 SWAP2 POP POP JUMP JUMPDEST PUSH0 PUSH2 0xABC DUP3 PUSH2 0x8BB JUMP JUMPDEST SWAP2 POP PUSH32 0xFFFFFFFFFFFFFFFFFFFFFFFFFFFFFFFFFFFFFFFFFFFFFFFFFFFFFFFFFFFFFFFF DUP3 SUB PUSH2 0xAEE JUMPI PUSH2 0xAED PUSH2 0xA52 JUMP JUMPDEST JUMPDEST PUSH1 0x1 DUP3 ADD SWAP1 POP SWAP2 SWAP1 POP JUMP JUMPDEST PUSH32 0x4E487B7100000000000000000000000000000000000000000000000000000000 PUSH0 MSTORE PUSH1 0x12 PUSH1 0x4 MSTORE PUSH1 0x24 PUSH0 REVERT JUMPDEST PUSH0 PUSH2 0xB30 DUP3 PUSH2 0x8BB JUMP JUMPDEST SWAP2 POP PUSH2 0xB3B DUP4 PUSH2 0x8BB JUMP JUMPDEST SWAP3 POP DUP3 PUSH2 0xB4B JUMPI PUSH2 0xB4A PUSH2 0xAF9 JUMP JUMPDEST JUMPDEST DUP3 DUP3 DIV SWAP1 POP SWAP3 SWAP2 POP POP JUMP INVALID LOG2 PUSH5 0x6970667358 0x22 SLT KECCAK256 PUSH11 0xD217634F2B3C31EEC0F1F0 0x4C SDIV 0xDD DUP11 XOR SGT SWAP16 0xE9 JUMPI MOD SWAP2 PUSH30 0xEF42721086E9487764736F6C634300081A00330000000000000000000000 "
				},
				"gasEstimates": {
					"creation": {
						"codeDepositCost": "591200",
						"executionCost": "15638",
						"totalCost": "606838"
					},
					"external": {
						"addPlayer()": "infinite",
						"input(uint256)": "infinite",
						"numInput()": "2426",
						"numPlayer()": "2424",
						"player_choice(address)": "2824",
						"player_not_played(address)": "2856",
						"players(uint256)": "5010",
						"reward()": "2470"
					},
					"internal": {
						"_checkWinnerAndPay()": "infinite",
						"_isWinner(uint256,uint256)": "440"
					}
				},
				"methodIdentifiers": {
					"addPlayer()": "27b5db8a",
					"input(uint256)": "ce6e1c4e",
					"numInput()": "086f7815",
					"numPlayer()": "90d5d0c3",
					"player_choice(address)": "a040478d",
					"player_not_played(address)": "190cf745",
					"players(uint256)": "f71d96cb",
					"reward()": "228cb733"
				}
			},
			"storageLayout": {
				"storage": [
					{
						"astId": 4,
						"contract": "RPSLS.sol:RPSLP",
						"label": "numPlayer",
						"offset": 0,
						"slot": "0",
						"type": "t_uint256"
					},
					{
						"astId": 7,
						"contract": "RPSLS.sol:RPSLP",
						"label": "reward",
						"offset": 0,
						"slot": "1",
						"type": "t_uint256"
					},
					{
						"astId": 11,
						"contract": "RPSLS.sol:RPSLP",
						"label": "player_choice",
						"offset": 0,
						"slot": "2",
						"type": "t_mapping(t_address,t_uint256)"
					},
					{
						"astId": 15,
						"contract": "RPSLS.sol:RPSLP",
						"label": "player_not_played",
						"offset": 0,
						"slot": "3",
						"type": "t_mapping(t_address,t_bool)"
					},
					{
						"astId": 18,
						"contract": "RPSLS.sol:RPSLP",
						"label": "players",
						"offset": 0,
						"slot": "4",
						"type": "t_array(t_address)dyn_storage"
					},
					{
						"astId": 21,
						"contract": "RPSLS.sol:RPSLP",
						"label": "numInput",
						"offset": 0,
						"slot": "5",
						"type": "t_uint256"
					}
				],
				"types": {
					"t_address": {
						"encoding": "inplace",
						"label": "address",
						"numberOfBytes": "20"
					},
					"t_array(t_address)dyn_storage": {
						"base": "t_address",
						"encoding": "dynamic_array",
						"label": "address[]",
						"numberOfBytes": "32"
					},
					"t_bool": {
						"encoding": "inplace",
						"label": "bool",
						"numberOfBytes": "1"
					},
					"t_mapping(t_address,t_bool)": {
						"encoding": "mapping",
						"key": "t_address",
						"label": "mapping(address => bool)",
						"numberOfBytes": "32",
						"value": "t_bool"
					},
					"t_mapping(t_address,t_uint256)": {
						"encoding": "mapping",
						"key": "t_address",
						"label": "mapping(address => uint256)",
						"numberOfBytes": "32",
						"value": "t_uint256"
					},
					"t_uint256": {
						"encoding": "inplace",
						"label": "uint256",
						"numberOfBytes": "32"
					}
				}
			},
			"userdoc": {
				"kind": "user",
				"methods": {},
				"version": 1
			}
		}
	}
}