{
	"RPSLS.sol": {
		"RPSLS": {
			"abi": [
				{
					"inputs": [
						{
							"internalType": "address",
							"name": "_wavax",
							"type": "address"
						}
					],
					"stateMutability": "nonpayable",
					"type": "constructor"
				},
				{
					"anonymous": false,
					"inputs": [],
					"name": "GameReset",
					"type": "event"
				},
				{
					"anonymous": false,
					"inputs": [
						{
							"indexed": true,
							"internalType": "address",
							"name": "player",
							"type": "address"
						}
					],
					"name": "PlayerAdded",
					"type": "event"
				},
				{
					"anonymous": false,
					"inputs": [
						{
							"indexed": true,
							"internalType": "address",
							"name": "winner",
							"type": "address"
						},
						{
							"indexed": false,
							"internalType": "uint256",
							"name": "amount",
							"type": "uint256"
						}
					],
					"name": "Winner",
					"type": "event"
				},
				{
					"inputs": [],
					"name": "WAVAX",
					"outputs": [
						{
							"internalType": "contract IERC20",
							"name": "",
							"type": "address"
						}
					],
					"stateMutability": "view",
					"type": "function"
				},
				{
					"inputs": [],
					"name": "addPlayer",
					"outputs": [],
					"stateMutability": "nonpayable",
					"type": "function"
				},
				{
					"inputs": [],
					"name": "commitReveal",
					"outputs": [
						{
							"internalType": "contract CommitReveal",
							"name": "",
							"type": "address"
						}
					],
					"stateMutability": "view",
					"type": "function"
				},
				{
					"inputs": [
						{
							"internalType": "bytes32",
							"name": "revealHash",
							"type": "bytes32"
						}
					],
					"name": "getChoiceFromHash",
					"outputs": [
						{
							"internalType": "uint8",
							"name": "",
							"type": "uint8"
						}
					],
					"stateMutability": "pure",
					"type": "function"
				},
				{
					"inputs": [
						{
							"internalType": "bytes32",
							"name": "commitHash",
							"type": "bytes32"
						}
					],
					"name": "inputCommit",
					"outputs": [],
					"stateMutability": "nonpayable",
					"type": "function"
				},
				{
					"inputs": [],
					"name": "numCommits",
					"outputs": [
						{
							"internalType": "uint256",
							"name": "",
							"type": "uint256"
						}
					],
					"stateMutability": "view",
					"type": "function"
				},
				{
					"inputs": [],
					"name": "numPlayer",
					"outputs": [
						{
							"internalType": "uint256",
							"name": "",
							"type": "uint256"
						}
					],
					"stateMutability": "view",
					"type": "function"
				},
				{
					"inputs": [],
					"name": "numReveals",
					"outputs": [
						{
							"internalType": "uint256",
							"name": "",
							"type": "uint256"
						}
					],
					"stateMutability": "view",
					"type": "function"
				},
				{
					"inputs": [
						{
							"internalType": "address",
							"name": "",
							"type": "address"
						}
					],
					"name": "player_choice",
					"outputs": [
						{
							"internalType": "uint256",
							"name": "",
							"type": "uint256"
						}
					],
					"stateMutability": "view",
					"type": "function"
				},
				{
					"inputs": [
						{
							"internalType": "uint256",
							"name": "",
							"type": "uint256"
						}
					],
					"name": "players",
					"outputs": [
						{
							"internalType": "address",
							"name": "",
							"type": "address"
						}
					],
					"stateMutability": "view",
					"type": "function"
				},
				{
					"inputs": [],
					"name": "refund",
					"outputs": [],
					"stateMutability": "nonpayable",
					"type": "function"
				},
				{
					"inputs": [
						{
							"internalType": "bytes32",
							"name": "revealHash",
							"type": "bytes32"
						}
					],
					"name": "revealChoice",
					"outputs": [],
					"stateMutability": "nonpayable",
					"type": "function"
				},
				{
					"inputs": [],
					"name": "reward",
					"outputs": [
						{
							"internalType": "uint256",
							"name": "",
							"type": "uint256"
						}
					],
					"stateMutability": "view",
					"type": "function"
				},
				{
					"inputs": [],
					"name": "timeUnit",
					"outputs": [
						{
							"internalType": "contract TimeUnit",
							"name": "",
							"type": "address"
						}
					],
					"stateMutability": "view",
					"type": "function"
				}
			],
			"devdoc": {
				"kind": "dev",
				"methods": {},
				"version": 1
			},
			"evm": {
				"assembly": "    /* \"RPSLS.sol\":188:3905  contract RPSLS {... */\n  mstore(0x40, 0x80)\n    /* \"RPSLS.sol\":366:367  0 */\n  0x00\n    /* \"RPSLS.sol\":342:367  uint public numPlayer = 0 */\n  0x03\n  sstore\n    /* \"RPSLS.sol\":395:396  0 */\n  0x00\n    /* \"RPSLS.sol\":374:396  uint public reward = 0 */\n  0x04\n  sstore\n    /* \"RPSLS.sol\":513:514  0 */\n  0x00\n    /* \"RPSLS.sol\":488:514  uint public numCommits = 0 */\n  0x07\n  sstore\n    /* \"RPSLS.sol\":546:547  0 */\n  0x00\n    /* \"RPSLS.sol\":521:547  uint public numReveals = 0 */\n  0x08\n  sstore\n    /* \"RPSLS.sol\":686:891  constructor(address _wavax) {... */\n  callvalue\n  dup1\n  iszero\n  tag_1\n  jumpi\n  0x00\n  dup1\n  revert\ntag_1:\n  pop\n  mload(0x40)\n  sub(codesize, bytecodeSize)\n  dup1\n  bytecodeSize\n  dup4\n  codecopy\n  dup2\n  dup2\n  add\n  0x40\n  mstore\n  dup2\n  add\n  swap1\n  tag_2\n  swap2\n  swap1\n  tag_3\n  jump\t// in\ntag_2:\n    /* \"RPSLS.sol\":740:758  new CommitReveal() */\n  mload(0x40)\n  tag_6\n  swap1\n  tag_7\n  jump\t// in\ntag_6:\n  mload(0x40)\n  dup1\n  swap2\n  sub\n  swap1\n  0x00\n  create\n  dup1\n  iszero\n  dup1\n  iszero\n  tag_8\n  jumpi\n  returndatasize\n  0x00\n  dup1\n  returndatacopy\n  revert(0x00, returndatasize)\ntag_8:\n  pop\n    /* \"RPSLS.sol\":725:737  commitReveal */\n  0x00\n  dup1\n    /* \"RPSLS.sol\":725:758  commitReveal = new CommitReveal() */\n  0x0100\n  exp\n  dup2\n  sload\n  dup2\n  0xffffffffffffffffffffffffffffffffffffffff\n  mul\n  not\n  and\n  swap1\n  dup4\n  0xffffffffffffffffffffffffffffffffffffffff\n  and\n  mul\n  or\n  swap1\n  sstore\n  pop\n    /* \"RPSLS.sol\":780:794  new TimeUnit() */\n  mload(0x40)\n  tag_9\n  swap1\n  tag_10\n  jump\t// in\ntag_9:\n  mload(0x40)\n  dup1\n  swap2\n  sub\n  swap1\n  0x00\n  create\n  dup1\n  iszero\n  dup1\n  iszero\n  tag_11\n  jumpi\n  returndatasize\n  0x00\n  dup1\n  returndatacopy\n  revert(0x00, returndatasize)\ntag_11:\n  pop\n    /* \"RPSLS.sol\":769:777  timeUnit */\n  0x01\n  0x00\n    /* \"RPSLS.sol\":769:794  timeUnit = new TimeUnit() */\n  0x0100\n  exp\n  dup2\n  sload\n  dup2\n  0xffffffffffffffffffffffffffffffffffffffff\n  mul\n  not\n  and\n  swap1\n  dup4\n  0xffffffffffffffffffffffffffffffffffffffff\n  and\n  mul\n  or\n  swap1\n  sstore\n  pop\n    /* \"RPSLS.sol\":820:826  _wavax */\n  dup1\n    /* \"RPSLS.sol\":805:810  WAVAX */\n  0x02\n  0x00\n    /* \"RPSLS.sol\":805:827  WAVAX = IERC20(_wavax) */\n  0x0100\n  exp\n  dup2\n  sload\n  dup2\n  0xffffffffffffffffffffffffffffffffffffffff\n  mul\n  not\n  and\n  swap1\n  dup4\n  0xffffffffffffffffffffffffffffffffffffffff\n  and\n  mul\n  or\n  swap1\n  sstore\n  pop\n    /* \"RPSLS.sol\":686:891  constructor(address _wavax) {... */\n  pop\n    /* \"RPSLS.sol\":188:3905  contract RPSLS {... */\n  jump(tag_12)\ntag_7:\n  dataSize(sub_1)\n  dup1\n  dataOffset(sub_1)\n  dup4\n  codecopy\n  add\n  swap1\n  jump\t// out\ntag_10:\n  dataSize(sub_2)\n  dup1\n  dataOffset(sub_2)\n  dup4\n  codecopy\n  add\n  swap1\n  jump\t// out\n    /* \"#utility.yul\":88:205   */\ntag_14:\n    /* \"#utility.yul\":197:198   */\n  0x00\n    /* \"#utility.yul\":194:195   */\n  dup1\n    /* \"#utility.yul\":187:199   */\n  revert\n    /* \"#utility.yul\":334:460   */\ntag_16:\n    /* \"#utility.yul\":371:378   */\n  0x00\n    /* \"#utility.yul\":411:453   */\n  0xffffffffffffffffffffffffffffffffffffffff\n    /* \"#utility.yul\":404:409   */\n  dup3\n    /* \"#utility.yul\":400:454   */\n  and\n    /* \"#utility.yul\":389:454   */\n  swap1\n  pop\n    /* \"#utility.yul\":334:460   */\n  swap2\n  swap1\n  pop\n  jump\t// out\n    /* \"#utility.yul\":466:562   */\ntag_17:\n    /* \"#utility.yul\":503:510   */\n  0x00\n    /* \"#utility.yul\":532:556   */\n  tag_26\n    /* \"#utility.yul\":550:555   */\n  dup3\n    /* \"#utility.yul\":532:556   */\n  tag_16\n  jump\t// in\ntag_26:\n    /* \"#utility.yul\":521:556   */\n  swap1\n  pop\n    /* \"#utility.yul\":466:562   */\n  swap2\n  swap1\n  pop\n  jump\t// out\n    /* \"#utility.yul\":568:690   */\ntag_18:\n    /* \"#utility.yul\":641:665   */\n  tag_28\n    /* \"#utility.yul\":659:664   */\n  dup2\n    /* \"#utility.yul\":641:665   */\n  tag_17\n  jump\t// in\ntag_28:\n    /* \"#utility.yul\":634:639   */\n  dup2\n    /* \"#utility.yul\":631:666   */\n  eq\n    /* \"#utility.yul\":621:684   */\n  tag_29\n  jumpi\n    /* \"#utility.yul\":680:681   */\n  0x00\n    /* \"#utility.yul\":677:678   */\n  dup1\n    /* \"#utility.yul\":670:682   */\n  revert\n    /* \"#utility.yul\":621:684   */\ntag_29:\n    /* \"#utility.yul\":568:690   */\n  pop\n  jump\t// out\n    /* \"#utility.yul\":696:839   */\ntag_19:\n    /* \"#utility.yul\":753:758   */\n  0x00\n    /* \"#utility.yul\":784:790   */\n  dup2\n    /* \"#utility.yul\":778:791   */\n  mload\n    /* \"#utility.yul\":769:791   */\n  swap1\n  pop\n    /* \"#utility.yul\":800:833   */\n  tag_31\n    /* \"#utility.yul\":827:832   */\n  dup2\n    /* \"#utility.yul\":800:833   */\n  tag_18\n  jump\t// in\ntag_31:\n    /* \"#utility.yul\":696:839   */\n  swap3\n  swap2\n  pop\n  pop\n  jump\t// out\n    /* \"#utility.yul\":845:1196   */\ntag_3:\n    /* \"#utility.yul\":915:921   */\n  0x00\n    /* \"#utility.yul\":964:966   */\n  0x20\n    /* \"#utility.yul\":952:961   */\n  dup3\n    /* \"#utility.yul\":943:950   */\n  dup5\n    /* \"#utility.yul\":939:962   */\n  sub\n    /* \"#utility.yul\":935:967   */\n  slt\n    /* \"#utility.yul\":932:1051   */\n  iszero\n  tag_33\n  jumpi\n    /* \"#utility.yul\":970:1049   */\n  tag_34\n  tag_14\n  jump\t// in\ntag_34:\n    /* \"#utility.yul\":932:1051   */\ntag_33:\n    /* \"#utility.yul\":1090:1091   */\n  0x00\n    /* \"#utility.yul\":1115:1179   */\n  tag_35\n    /* \"#utility.yul\":1171:1178   */\n  dup5\n    /* \"#utility.yul\":1162:1168   */\n  dup3\n    /* \"#utility.yul\":1151:1160   */\n  dup6\n    /* \"#utility.yul\":1147:1169   */\n  add\n    /* \"#utility.yul\":1115:1179   */\n  tag_19\n  jump\t// in\ntag_35:\n    /* \"#utility.yul\":1105:1179   */\n  swap2\n  pop\n    /* \"#utility.yul\":1061:1189   */\n  pop\n    /* \"#utility.yul\":845:1196   */\n  swap3\n  swap2\n  pop\n  pop\n  jump\t// out\n    /* \"RPSLS.sol\":188:3905  contract RPSLS {... */\ntag_12:\n  dataSize(sub_0)\n  dup1\n  dataOffset(sub_0)\n  0x00\n  codecopy\n  0x00\n  return\nstop\n\nsub_0: assembly {\n        /* \"RPSLS.sol\":188:3905  contract RPSLS {... */\n      mstore(0x40, 0x80)\n      callvalue\n      dup1\n      iszero\n      tag_1\n      jumpi\n      0x00\n      dup1\n      revert\n    tag_1:\n      pop\n      jumpi(tag_2, lt(calldatasize, 0x04))\n      shr(0xe0, calldataload(0x00))\n      dup1\n      0x90d5d0c3\n      gt\n      tag_17\n      jumpi\n      dup1\n      0xa040478d\n      gt\n      tag_18\n      jumpi\n      dup1\n      0xa040478d\n      eq\n      tag_13\n      jumpi\n      dup1\n      0xa9c6921a\n      eq\n      tag_14\n      jumpi\n      dup1\n      0xd5b30714\n      eq\n      tag_15\n      jumpi\n      dup1\n      0xf71d96cb\n      eq\n      tag_16\n      jumpi\n      jump(tag_2)\n    tag_18:\n      dup1\n      0x90d5d0c3\n      eq\n      tag_10\n      jumpi\n      dup1\n      0x9b2c1d40\n      eq\n      tag_11\n      jumpi\n      dup1\n      0x9d7b3f2d\n      eq\n      tag_12\n      jumpi\n      jump(tag_2)\n    tag_17:\n      dup1\n      0x3c6a7f9b\n      gt\n      tag_19\n      jumpi\n      dup1\n      0x3c6a7f9b\n      eq\n      tag_6\n      jumpi\n      dup1\n      0x590e1ae3\n      eq\n      tag_7\n      jumpi\n      dup1\n      0x65ce0ac6\n      eq\n      tag_8\n      jumpi\n      dup1\n      0x73b295c2\n      eq\n      tag_9\n      jumpi\n      jump(tag_2)\n    tag_19:\n      dup1\n      0x228cb733\n      eq\n      tag_3\n      jumpi\n      dup1\n      0x27b5db8a\n      eq\n      tag_4\n      jumpi\n      dup1\n      0x2f231163\n      eq\n      tag_5\n      jumpi\n    tag_2:\n      0x00\n      dup1\n      revert\n        /* \"RPSLS.sol\":374:396  uint public reward = 0 */\n    tag_3:\n      tag_20\n      tag_21\n      jump\t// in\n    tag_20:\n      mload(0x40)\n      tag_22\n      swap2\n      swap1\n      tag_23\n      jump\t// in\n    tag_22:\n      mload(0x40)\n      dup1\n      swap2\n      sub\n      swap1\n      return\n        /* \"RPSLS.sol\":899:1362  function addPlayer() public {... */\n    tag_4:\n      tag_24\n      tag_25\n      jump\t// in\n    tag_24:\n      stop\n        /* \"RPSLS.sol\":488:514  uint public numCommits = 0 */\n    tag_5:\n      tag_26\n      tag_27\n      jump\t// in\n    tag_26:\n      mload(0x40)\n      tag_28\n      swap2\n      swap1\n      tag_23\n      jump\t// in\n    tag_28:\n      mload(0x40)\n      dup1\n      swap2\n      sub\n      swap1\n      return\n        /* \"RPSLS.sol\":249:273  TimeUnit public timeUnit */\n    tag_6:\n      tag_29\n      tag_30\n      jump\t// in\n    tag_29:\n      mload(0x40)\n      tag_31\n      swap2\n      swap1\n      tag_32\n      jump\t// in\n    tag_31:\n      mload(0x40)\n      dup1\n      swap2\n      sub\n      swap1\n      return\n        /* \"RPSLS.sol\":3309:3709  function refund() public {... */\n    tag_7:\n      tag_33\n      tag_34\n      jump\t// in\n    tag_33:\n      stop\n        /* \"RPSLS.sol\":1605:2056  function revealChoice(bytes32 revealHash) public {... */\n    tag_8:\n      tag_35\n      0x04\n      dup1\n      calldatasize\n      sub\n      dup2\n      add\n      swap1\n      tag_36\n      swap2\n      swap1\n      tag_37\n      jump\t// in\n    tag_36:\n      tag_38\n      jump\t// in\n    tag_35:\n      stop\n        /* \"RPSLS.sol\":280:299  IERC20 public WAVAX */\n    tag_9:\n      tag_39\n      tag_40\n      jump\t// in\n    tag_39:\n      mload(0x40)\n      tag_41\n      swap2\n      swap1\n      tag_42\n      jump\t// in\n    tag_41:\n      mload(0x40)\n      dup1\n      swap2\n      sub\n      swap1\n      return\n        /* \"RPSLS.sol\":342:367  uint public numPlayer = 0 */\n    tag_10:\n      tag_43\n      tag_44\n      jump\t// in\n    tag_43:\n      mload(0x40)\n      tag_45\n      swap2\n      swap1\n      tag_23\n      jump\t// in\n    tag_45:\n      mload(0x40)\n      dup1\n      swap2\n      sub\n      swap1\n      return\n        /* \"RPSLS.sol\":521:547  uint public numReveals = 0 */\n    tag_11:\n      tag_46\n      tag_47\n      jump\t// in\n    tag_46:\n      mload(0x40)\n      tag_48\n      swap2\n      swap1\n      tag_23\n      jump\t// in\n    tag_48:\n      mload(0x40)\n      dup1\n      swap2\n      sub\n      swap1\n      return\n        /* \"RPSLS.sol\":210:242  CommitReveal public commitReveal */\n    tag_12:\n      tag_49\n      tag_50\n      jump\t// in\n    tag_49:\n      mload(0x40)\n      tag_51\n      swap2\n      swap1\n      tag_52\n      jump\t// in\n    tag_51:\n      mload(0x40)\n      dup1\n      swap2\n      sub\n      swap1\n      return\n        /* \"RPSLS.sol\":403:448  mapping(address => uint) public player_choice */\n    tag_13:\n      tag_53\n      0x04\n      dup1\n      calldatasize\n      sub\n      dup2\n      add\n      swap1\n      tag_54\n      swap2\n      swap1\n      tag_55\n      jump\t// in\n    tag_54:\n      tag_56\n      jump\t// in\n    tag_53:\n      mload(0x40)\n      tag_57\n      swap2\n      swap1\n      tag_23\n      jump\t// in\n    tag_57:\n      mload(0x40)\n      dup1\n      swap2\n      sub\n      swap1\n      return\n        /* \"RPSLS.sol\":1370:1597  function inputCommit(bytes32 commitHash) public {... */\n    tag_14:\n      tag_58\n      0x04\n      dup1\n      calldatasize\n      sub\n      dup2\n      add\n      swap1\n      tag_59\n      swap2\n      swap1\n      tag_37\n      jump\t// in\n    tag_59:\n      tag_60\n      jump\t// in\n    tag_58:\n      stop\n        /* \"RPSLS.sol\":2064:2209  function getChoiceFromHash(bytes32 revealHash) public pure returns (uint8) {... */\n    tag_15:\n      tag_61\n      0x04\n      dup1\n      calldatasize\n      sub\n      dup2\n      add\n      swap1\n      tag_62\n      swap2\n      swap1\n      tag_37\n      jump\t// in\n    tag_62:\n      tag_63\n      jump\t// in\n    tag_61:\n      mload(0x40)\n      tag_64\n      swap2\n      swap1\n      tag_65\n      jump\t// in\n    tag_64:\n      mload(0x40)\n      dup1\n      swap2\n      sub\n      swap1\n      return\n        /* \"RPSLS.sol\":455:479  address[] public players */\n    tag_16:\n      tag_66\n      0x04\n      dup1\n      calldatasize\n      sub\n      dup2\n      add\n      swap1\n      tag_67\n      swap2\n      swap1\n      tag_68\n      jump\t// in\n    tag_67:\n      tag_69\n      jump\t// in\n    tag_66:\n      mload(0x40)\n      tag_70\n      swap2\n      swap1\n      tag_71\n      jump\t// in\n    tag_70:\n      mload(0x40)\n      dup1\n      swap2\n      sub\n      swap1\n      return\n        /* \"RPSLS.sol\":374:396  uint public reward = 0 */\n    tag_21:\n      sload(0x04)\n      dup2\n      jump\t// out\n        /* \"RPSLS.sol\":899:1362  function addPlayer() public {... */\n    tag_25:\n        /* \"RPSLS.sol\":958:959  2 */\n      0x02\n        /* \"RPSLS.sol\":946:955  numPlayer */\n      sload(0x03)\n        /* \"RPSLS.sol\":946:959  numPlayer < 2 */\n      lt\n        /* \"RPSLS.sol\":938:982  require(numPlayer < 2, \"Already 2 players.\") */\n      tag_73\n      jumpi\n      mload(0x40)\n      0x08c379a000000000000000000000000000000000000000000000000000000000\n      dup2\n      mstore\n      0x04\n      add\n      tag_74\n      swap1\n      tag_75\n      jump\t// in\n    tag_74:\n      mload(0x40)\n      dup1\n      swap2\n      sub\n      swap1\n      revert\n    tag_73:\n        /* \"RPSLS.sol\":995:1009  uint256 amount */\n      0x00\n        /* \"RPSLS.sol\":1012:1026  0.000001 ether */\n      0xe8d4a51000\n        /* \"RPSLS.sol\":995:1026  uint256 amount = 0.000001 ether */\n      swap1\n      pop\n        /* \"RPSLS.sol\":1091:1097  amount */\n      dup1\n        /* \"RPSLS.sol\":1045:1050  WAVAX */\n      0x02\n      0x00\n      swap1\n      sload\n      swap1\n      0x0100\n      exp\n      swap1\n      div\n      0xffffffffffffffffffffffffffffffffffffffff\n      and\n        /* \"RPSLS.sol\":1045:1060  WAVAX.allowance */\n      0xffffffffffffffffffffffffffffffffffffffff\n      and\n      0xdd62ed3e\n        /* \"RPSLS.sol\":1061:1071  msg.sender */\n      caller\n        /* \"RPSLS.sol\":1081:1085  this */\n      address\n        /* \"RPSLS.sol\":1045:1087  WAVAX.allowance(msg.sender, address(this)) */\n      mload(0x40)\n      dup4\n      0xffffffff\n      and\n      0xe0\n      shl\n      dup2\n      mstore\n      0x04\n      add\n      tag_76\n      swap3\n      swap2\n      swap1\n      tag_77\n      jump\t// in\n    tag_76:\n      0x20\n      mload(0x40)\n      dup1\n      dup4\n      sub\n      dup2\n      dup7\n      gas\n      staticcall\n      iszero\n      dup1\n      iszero\n      tag_79\n      jumpi\n      returndatasize\n      0x00\n      dup1\n      returndatacopy\n      revert(0x00, returndatasize)\n    tag_79:\n      pop\n      pop\n      pop\n      pop\n      mload(0x40)\n      returndatasize\n      not(0x1f)\n      0x1f\n      dup3\n      add\n      and\n      dup3\n      add\n      dup1\n      0x40\n      mstore\n      pop\n      dup2\n      add\n      swap1\n      tag_80\n      swap2\n      swap1\n      tag_81\n      jump\t// in\n    tag_80:\n        /* \"RPSLS.sol\":1045:1097  WAVAX.allowance(msg.sender, address(this)) >= amount */\n      lt\n      iszero\n        /* \"RPSLS.sol\":1037:1125  require(WAVAX.allowance(msg.sender, address(this)) >= amount, \"WAVAX allowance too low\") */\n      tag_82\n      jumpi\n      mload(0x40)\n      0x08c379a000000000000000000000000000000000000000000000000000000000\n      dup2\n      mstore\n      0x04\n      add\n      tag_83\n      swap1\n      tag_84\n      jump\t// in\n    tag_83:\n      mload(0x40)\n      dup1\n      swap2\n      sub\n      swap1\n      revert\n    tag_82:\n        /* \"RPSLS.sol\":1138:1143  WAVAX */\n      0x02\n      0x00\n      swap1\n      sload\n      swap1\n      0x0100\n      exp\n      swap1\n      div\n      0xffffffffffffffffffffffffffffffffffffffff\n      and\n        /* \"RPSLS.sol\":1138:1156  WAVAX.transferFrom */\n      0xffffffffffffffffffffffffffffffffffffffff\n      and\n      0x23b872dd\n        /* \"RPSLS.sol\":1157:1167  msg.sender */\n      caller\n        /* \"RPSLS.sol\":1177:1181  this */\n      address\n        /* \"RPSLS.sol\":1184:1190  amount */\n      dup5\n        /* \"RPSLS.sol\":1138:1191  WAVAX.transferFrom(msg.sender, address(this), amount) */\n      mload(0x40)\n      dup5\n      0xffffffff\n      and\n      0xe0\n      shl\n      dup2\n      mstore\n      0x04\n      add\n      tag_85\n      swap4\n      swap3\n      swap2\n      swap1\n      tag_86\n      jump\t// in\n    tag_85:\n      0x20\n      mload(0x40)\n      dup1\n      dup4\n      sub\n      dup2\n      0x00\n      dup8\n      gas\n      call\n      iszero\n      dup1\n      iszero\n      tag_88\n      jumpi\n      returndatasize\n      0x00\n      dup1\n      returndatacopy\n      revert(0x00, returndatasize)\n    tag_88:\n      pop\n      pop\n      pop\n      pop\n      mload(0x40)\n      returndatasize\n      not(0x1f)\n      0x1f\n      dup3\n      add\n      and\n      dup3\n      add\n      dup1\n      0x40\n      mstore\n      pop\n      dup2\n      add\n      swap1\n      tag_89\n      swap2\n      swap1\n      tag_90\n      jump\t// in\n    tag_89:\n      pop\n        /* \"RPSLS.sol\":1212:1218  amount */\n      dup1\n        /* \"RPSLS.sol\":1202:1208  reward */\n      0x04\n      0x00\n        /* \"RPSLS.sol\":1202:1218  reward += amount */\n      dup3\n      dup3\n      sload\n      tag_91\n      swap2\n      swap1\n      tag_92\n      jump\t// in\n    tag_91:\n      swap3\n      pop\n      pop\n      dup2\n      swap1\n      sstore\n      pop\n        /* \"RPSLS.sol\":1229:1236  players */\n      0x06\n        /* \"RPSLS.sol\":1242:1252  msg.sender */\n      caller\n        /* \"RPSLS.sol\":1229:1253  players.push(msg.sender) */\n      swap1\n      dup1\n      0x01\n      dup2\n      sload\n      add\n      dup1\n      dup3\n      sstore\n      dup1\n      swap2\n      pop\n      pop\n      0x01\n      swap1\n      sub\n      swap1\n      0x00\n      mstore\n      keccak256(0x00, 0x20)\n      add\n      0x00\n      swap1\n      swap2\n      swap1\n      swap2\n      swap1\n      swap2\n      0x0100\n      exp\n      dup2\n      sload\n      dup2\n      0xffffffffffffffffffffffffffffffffffffffff\n      mul\n      not\n      and\n      swap1\n      dup4\n      0xffffffffffffffffffffffffffffffffffffffff\n      and\n      mul\n      or\n      swap1\n      sstore\n      pop\n        /* \"RPSLS.sol\":1264:1273  numPlayer */\n      0x03\n      0x00\n        /* \"RPSLS.sol\":1264:1275  numPlayer++ */\n      dup2\n      sload\n      dup1\n      swap3\n      swap2\n      swap1\n      tag_94\n      swap1\n      tag_95\n      jump\t// in\n    tag_94:\n      swap2\n      swap1\n      pop\n      sstore\n      pop\n        /* \"RPSLS.sol\":1288:1296  timeUnit */\n      0x01\n      0x00\n      swap1\n      sload\n      swap1\n      0x0100\n      exp\n      swap1\n      div\n      0xffffffffffffffffffffffffffffffffffffffff\n      and\n        /* \"RPSLS.sol\":1288:1313  timeUnit.updateActionTime */\n      0xffffffffffffffffffffffffffffffffffffffff\n      and\n      0xf4176b22\n        /* \"RPSLS.sol\":1288:1315  timeUnit.updateActionTime() */\n      mload(0x40)\n      dup2\n      0xffffffff\n      and\n      0xe0\n      shl\n      dup2\n      mstore\n      0x04\n      add\n      0x00\n      mload(0x40)\n      dup1\n      dup4\n      sub\n      dup2\n      0x00\n      dup8\n      dup1\n      extcodesize\n      iszero\n      dup1\n      iszero\n      tag_96\n      jumpi\n      0x00\n      dup1\n      revert\n    tag_96:\n      pop\n      gas\n      call\n      iszero\n      dup1\n      iszero\n      tag_98\n      jumpi\n      returndatasize\n      0x00\n      dup1\n      returndatacopy\n      revert(0x00, returndatasize)\n    tag_98:\n      pop\n      pop\n      pop\n      pop\n        /* \"RPSLS.sol\":1343:1353  msg.sender */\n      caller\n        /* \"RPSLS.sol\":1331:1354  PlayerAdded(msg.sender) */\n      0xffffffffffffffffffffffffffffffffffffffff\n      and\n      0xf2ae205522024c14e5a7a26ba6d1fb1252dc8e161b5abc79ed5795fd3c5b9261\n      mload(0x40)\n      mload(0x40)\n      dup1\n      swap2\n      sub\n      swap1\n      log2\n        /* \"RPSLS.sol\":927:1362  {... */\n      pop\n        /* \"RPSLS.sol\":899:1362  function addPlayer() public {... */\n      jump\t// out\n        /* \"RPSLS.sol\":488:514  uint public numCommits = 0 */\n    tag_27:\n      sload(0x07)\n      dup2\n      jump\t// out\n        /* \"RPSLS.sol\":249:273  TimeUnit public timeUnit */\n    tag_30:\n      0x01\n      0x00\n      swap1\n      sload\n      swap1\n      0x0100\n      exp\n      swap1\n      div\n      0xffffffffffffffffffffffffffffffffffffffff\n      and\n      dup2\n      jump\t// out\n        /* \"RPSLS.sol\":3309:3709  function refund() public {... */\n    tag_34:\n        /* \"RPSLS.sol\":3353:3361  timeUnit */\n      0x01\n      0x00\n      swap1\n      sload\n      swap1\n      0x0100\n      exp\n      swap1\n      div\n      0xffffffffffffffffffffffffffffffffffffffff\n      and\n        /* \"RPSLS.sol\":3353:3376  timeUnit.isTimeExceeded */\n      0xffffffffffffffffffffffffffffffffffffffff\n      and\n      0x4f61fd68\n        /* \"RPSLS.sol\":3353:3378  timeUnit.isTimeExceeded() */\n      mload(0x40)\n      dup2\n      0xffffffff\n      and\n      0xe0\n      shl\n      dup2\n      mstore\n      0x04\n      add\n      0x20\n      mload(0x40)\n      dup1\n      dup4\n      sub\n      dup2\n      dup7\n      gas\n      staticcall\n      iszero\n      dup1\n      iszero\n      tag_101\n      jumpi\n      returndatasize\n      0x00\n      dup1\n      returndatacopy\n      revert(0x00, returndatasize)\n    tag_101:\n      pop\n      pop\n      pop\n      pop\n      mload(0x40)\n      returndatasize\n      not(0x1f)\n      0x1f\n      dup3\n      add\n      and\n      dup3\n      add\n      dup1\n      0x40\n      mstore\n      pop\n      dup2\n      add\n      swap1\n      tag_102\n      swap2\n      swap1\n      tag_90\n      jump\t// in\n    tag_102:\n        /* \"RPSLS.sol\":3345:3408  require(timeUnit.isTimeExceeded(), \"Refund period not elapsed\") */\n      tag_103\n      jumpi\n      mload(0x40)\n      0x08c379a000000000000000000000000000000000000000000000000000000000\n      dup2\n      mstore\n      0x04\n      add\n      tag_104\n      swap1\n      tag_105\n      jump\t// in\n    tag_104:\n      mload(0x40)\n      dup1\n      swap2\n      sub\n      swap1\n      revert\n    tag_103:\n        /* \"RPSLS.sol\":3439:3440  0 */\n      0x00\n        /* \"RPSLS.sol\":3427:3436  numPlayer */\n      sload(0x03)\n        /* \"RPSLS.sol\":3427:3440  numPlayer > 0 */\n      gt\n        /* \"RPSLS.sol\":3419:3459  require(numPlayer > 0, \"No active game\") */\n      tag_106\n      jumpi\n      mload(0x40)\n      0x08c379a000000000000000000000000000000000000000000000000000000000\n      dup2\n      mstore\n      0x04\n      add\n      tag_107\n      swap1\n      tag_108\n      jump\t// in\n    tag_107:\n      mload(0x40)\n      dup1\n      swap2\n      sub\n      swap1\n      revert\n    tag_106:\n        /* \"RPSLS.sol\":3489:3490  1 */\n      0x01\n        /* \"RPSLS.sol\":3476:3485  numPlayer */\n      sload(0x03)\n        /* \"RPSLS.sol\":3476:3490  numPlayer == 1 */\n      sub\n        /* \"RPSLS.sol\":3472:3677  if (numPlayer == 1) {... */\n      tag_109\n      jumpi\n        /* \"RPSLS.sol\":3507:3512  WAVAX */\n      0x02\n      0x00\n      swap1\n      sload\n      swap1\n      0x0100\n      exp\n      swap1\n      div\n      0xffffffffffffffffffffffffffffffffffffffff\n      and\n        /* \"RPSLS.sol\":3507:3521  WAVAX.transfer */\n      0xffffffffffffffffffffffffffffffffffffffff\n      and\n      0xa9059cbb\n        /* \"RPSLS.sol\":3522:3529  players */\n      0x06\n        /* \"RPSLS.sol\":3530:3531  0 */\n      0x00\n        /* \"RPSLS.sol\":3522:3532  players[0] */\n      dup2\n      sload\n      dup2\n      lt\n      tag_110\n      jumpi\n      tag_111\n      tag_112\n      jump\t// in\n    tag_111:\n    tag_110:\n      swap1\n      0x00\n      mstore\n      keccak256(0x00, 0x20)\n      add\n      0x00\n      swap1\n      sload\n      swap1\n      0x0100\n      exp\n      swap1\n      div\n      0xffffffffffffffffffffffffffffffffffffffff\n      and\n        /* \"RPSLS.sol\":3534:3540  reward */\n      sload(0x04)\n        /* \"RPSLS.sol\":3507:3541  WAVAX.transfer(players[0], reward) */\n      mload(0x40)\n      dup4\n      0xffffffff\n      and\n      0xe0\n      shl\n      dup2\n      mstore\n      0x04\n      add\n      tag_114\n      swap3\n      swap2\n      swap1\n      tag_115\n      jump\t// in\n    tag_114:\n      0x20\n      mload(0x40)\n      dup1\n      dup4\n      sub\n      dup2\n      0x00\n      dup8\n      gas\n      call\n      iszero\n      dup1\n      iszero\n      tag_117\n      jumpi\n      returndatasize\n      0x00\n      dup1\n      returndatacopy\n      revert(0x00, returndatasize)\n    tag_117:\n      pop\n      pop\n      pop\n      pop\n      mload(0x40)\n      returndatasize\n      not(0x1f)\n      0x1f\n      dup3\n      add\n      and\n      dup3\n      add\n      dup1\n      0x40\n      mstore\n      pop\n      dup2\n      add\n      swap1\n      tag_118\n      swap2\n      swap1\n      tag_90\n      jump\t// in\n    tag_118:\n      pop\n        /* \"RPSLS.sol\":3472:3677  if (numPlayer == 1) {... */\n      jump(tag_119)\n    tag_109:\n        /* \"RPSLS.sol\":3574:3579  WAVAX */\n      0x02\n      0x00\n      swap1\n      sload\n      swap1\n      0x0100\n      exp\n      swap1\n      div\n      0xffffffffffffffffffffffffffffffffffffffff\n      and\n        /* \"RPSLS.sol\":3574:3588  WAVAX.transfer */\n      0xffffffffffffffffffffffffffffffffffffffff\n      and\n      0xa9059cbb\n        /* \"RPSLS.sol\":3589:3596  players */\n      0x06\n        /* \"RPSLS.sol\":3597:3598  0 */\n      0x00\n        /* \"RPSLS.sol\":3589:3599  players[0] */\n      dup2\n      sload\n      dup2\n      lt\n      tag_120\n      jumpi\n      tag_121\n      tag_112\n      jump\t// in\n    tag_121:\n    tag_120:\n      swap1\n      0x00\n      mstore\n      keccak256(0x00, 0x20)\n      add\n      0x00\n      swap1\n      sload\n      swap1\n      0x0100\n      exp\n      swap1\n      div\n      0xffffffffffffffffffffffffffffffffffffffff\n      and\n        /* \"RPSLS.sol\":3610:3611  2 */\n      0x02\n        /* \"RPSLS.sol\":3601:3607  reward */\n      sload(0x04)\n        /* \"RPSLS.sol\":3601:3611  reward / 2 */\n      tag_123\n      swap2\n      swap1\n      tag_124\n      jump\t// in\n    tag_123:\n        /* \"RPSLS.sol\":3574:3612  WAVAX.transfer(players[0], reward / 2) */\n      mload(0x40)\n      dup4\n      0xffffffff\n      and\n      0xe0\n      shl\n      dup2\n      mstore\n      0x04\n      add\n      tag_125\n      swap3\n      swap2\n      swap1\n      tag_115\n      jump\t// in\n    tag_125:\n      0x20\n      mload(0x40)\n      dup1\n      dup4\n      sub\n      dup2\n      0x00\n      dup8\n      gas\n      call\n      iszero\n      dup1\n      iszero\n      tag_127\n      jumpi\n      returndatasize\n      0x00\n      dup1\n      returndatacopy\n      revert(0x00, returndatasize)\n    tag_127:\n      pop\n      pop\n      pop\n      pop\n      mload(0x40)\n      returndatasize\n      not(0x1f)\n      0x1f\n      dup3\n      add\n      and\n      dup3\n      add\n      dup1\n      0x40\n      mstore\n      pop\n      dup2\n      add\n      swap1\n      tag_128\n      swap2\n      swap1\n      tag_90\n      jump\t// in\n    tag_128:\n      pop\n        /* \"RPSLS.sol\":3627:3632  WAVAX */\n      0x02\n      0x00\n      swap1\n      sload\n      swap1\n      0x0100\n      exp\n      swap1\n      div\n      0xffffffffffffffffffffffffffffffffffffffff\n      and\n        /* \"RPSLS.sol\":3627:3641  WAVAX.transfer */\n      0xffffffffffffffffffffffffffffffffffffffff\n      and\n      0xa9059cbb\n        /* \"RPSLS.sol\":3642:3649  players */\n      0x06\n        /* \"RPSLS.sol\":3650:3651  1 */\n      0x01\n        /* \"RPSLS.sol\":3642:3652  players[1] */\n      dup2\n      sload\n      dup2\n      lt\n      tag_129\n      jumpi\n      tag_130\n      tag_112\n      jump\t// in\n    tag_130:\n    tag_129:\n      swap1\n      0x00\n      mstore\n      keccak256(0x00, 0x20)\n      add\n      0x00\n      swap1\n      sload\n      swap1\n      0x0100\n      exp\n      swap1\n      div\n      0xffffffffffffffffffffffffffffffffffffffff\n      and\n        /* \"RPSLS.sol\":3663:3664  2 */\n      0x02\n        /* \"RPSLS.sol\":3654:3660  reward */\n      sload(0x04)\n        /* \"RPSLS.sol\":3654:3664  reward / 2 */\n      tag_132\n      swap2\n      swap1\n      tag_124\n      jump\t// in\n    tag_132:\n        /* \"RPSLS.sol\":3627:3665  WAVAX.transfer(players[1], reward / 2) */\n      mload(0x40)\n      dup4\n      0xffffffff\n      and\n      0xe0\n      shl\n      dup2\n      mstore\n      0x04\n      add\n      tag_133\n      swap3\n      swap2\n      swap1\n      tag_115\n      jump\t// in\n    tag_133:\n      0x20\n      mload(0x40)\n      dup1\n      dup4\n      sub\n      dup2\n      0x00\n      dup8\n      gas\n      call\n      iszero\n      dup1\n      iszero\n      tag_135\n      jumpi\n      returndatasize\n      0x00\n      dup1\n      returndatacopy\n      revert(0x00, returndatasize)\n    tag_135:\n      pop\n      pop\n      pop\n      pop\n      mload(0x40)\n      returndatasize\n      not(0x1f)\n      0x1f\n      dup3\n      add\n      and\n      dup3\n      add\n      dup1\n      0x40\n      mstore\n      pop\n      dup2\n      add\n      swap1\n      tag_136\n      swap2\n      swap1\n      tag_90\n      jump\t// in\n    tag_136:\n      pop\n        /* \"RPSLS.sol\":3472:3677  if (numPlayer == 1) {... */\n    tag_119:\n        /* \"RPSLS.sol\":3689:3701  _resetGame() */\n      tag_137\n        /* \"RPSLS.sol\":3689:3699  _resetGame */\n      tag_138\n        /* \"RPSLS.sol\":3689:3701  _resetGame() */\n      jump\t// in\n    tag_137:\n        /* \"RPSLS.sol\":3309:3709  function refund() public {... */\n      jump\t// out\n        /* \"RPSLS.sol\":1605:2056  function revealChoice(bytes32 revealHash) public {... */\n    tag_38:\n        /* \"RPSLS.sol\":1687:1688  2 */\n      0x02\n        /* \"RPSLS.sol\":1673:1683  numCommits */\n      sload(0x07)\n        /* \"RPSLS.sol\":1673:1688  numCommits == 2 */\n      eq\n        /* \"RPSLS.sol\":1665:1735  require(numCommits == 2, \"Both players must commit before revealing.\") */\n      tag_140\n      jumpi\n      mload(0x40)\n      0x08c379a000000000000000000000000000000000000000000000000000000000\n      dup2\n      mstore\n      0x04\n      add\n      tag_141\n      swap1\n      tag_142\n      jump\t// in\n    tag_141:\n      mload(0x40)\n      dup1\n      swap2\n      sub\n      swap1\n      revert\n    tag_140:\n        /* \"RPSLS.sol\":1746:1758  commitReveal */\n      0x00\n      dup1\n      sload\n      swap1\n      0x0100\n      exp\n      swap1\n      div\n      0xffffffffffffffffffffffffffffffffffffffff\n      and\n        /* \"RPSLS.sol\":1746:1765  commitReveal.reveal */\n      0xffffffffffffffffffffffffffffffffffffffff\n      and\n      0xad487790\n        /* \"RPSLS.sol\":1766:1776  revealHash */\n      dup3\n        /* \"RPSLS.sol\":1778:1788  msg.sender */\n      caller\n        /* \"RPSLS.sol\":1746:1789  commitReveal.reveal(revealHash, msg.sender) */\n      mload(0x40)\n      dup4\n      0xffffffff\n      and\n      0xe0\n      shl\n      dup2\n      mstore\n      0x04\n      add\n      tag_143\n      swap3\n      swap2\n      swap1\n      tag_144\n      jump\t// in\n    tag_143:\n      0x00\n      mload(0x40)\n      dup1\n      dup4\n      sub\n      dup2\n      0x00\n      dup8\n      dup1\n      extcodesize\n      iszero\n      dup1\n      iszero\n      tag_145\n      jumpi\n      0x00\n      dup1\n      revert\n    tag_145:\n      pop\n      gas\n      call\n      iszero\n      dup1\n      iszero\n      tag_147\n      jumpi\n      returndatasize\n      0x00\n      dup1\n      returndatacopy\n      revert(0x00, returndatasize)\n    tag_147:\n      pop\n      pop\n      pop\n      pop\n        /* \"RPSLS.sol\":1800:1820  uint8 choiceFromHash */\n      0x00\n        /* \"RPSLS.sol\":1823:1852  getChoiceFromHash(revealHash) */\n      tag_148\n        /* \"RPSLS.sol\":1841:1851  revealHash */\n      dup3\n        /* \"RPSLS.sol\":1823:1840  getChoiceFromHash */\n      tag_63\n        /* \"RPSLS.sol\":1823:1852  getChoiceFromHash(revealHash) */\n      jump\t// in\n    tag_148:\n        /* \"RPSLS.sol\":1800:1852  uint8 choiceFromHash = getChoiceFromHash(revealHash) */\n      swap1\n      pop\n        /* \"RPSLS.sol\":1891:1905  choiceFromHash */\n      dup1\n        /* \"RPSLS.sol\":1863:1905  player_choice[msg.sender] = choiceFromHash */\n      0xff\n      and\n        /* \"RPSLS.sol\":1863:1876  player_choice */\n      0x05\n        /* \"RPSLS.sol\":1863:1888  player_choice[msg.sender] */\n      0x00\n        /* \"RPSLS.sol\":1877:1887  msg.sender */\n      caller\n        /* \"RPSLS.sol\":1863:1888  player_choice[msg.sender] */\n      0xffffffffffffffffffffffffffffffffffffffff\n      and\n      0xffffffffffffffffffffffffffffffffffffffff\n      and\n      dup2\n      mstore\n      0x20\n      add\n      swap1\n      dup2\n      mstore\n      0x20\n      add\n      0x00\n      keccak256\n        /* \"RPSLS.sol\":1863:1905  player_choice[msg.sender] = choiceFromHash */\n      dup2\n      swap1\n      sstore\n      pop\n        /* \"RPSLS.sol\":1916:1926  numReveals */\n      0x08\n      0x00\n        /* \"RPSLS.sol\":1916:1928  numReveals++ */\n      dup2\n      sload\n      dup1\n      swap3\n      swap2\n      swap1\n      tag_149\n      swap1\n      tag_95\n      jump\t// in\n    tag_149:\n      swap2\n      swap1\n      pop\n      sstore\n      pop\n        /* \"RPSLS.sol\":1959:1960  2 */\n      0x02\n        /* \"RPSLS.sol\":1945:1955  numReveals */\n      sload(0x08)\n        /* \"RPSLS.sol\":1945:1960  numReveals == 2 */\n      sub\n        /* \"RPSLS.sol\":1941:2009  if (numReveals == 2) {... */\n      tag_150\n      jumpi\n        /* \"RPSLS.sol\":1977:1997  _checkWinnerAndPay() */\n      tag_151\n        /* \"RPSLS.sol\":1977:1995  _checkWinnerAndPay */\n      tag_152\n        /* \"RPSLS.sol\":1977:1997  _checkWinnerAndPay() */\n      jump\t// in\n    tag_151:\n        /* \"RPSLS.sol\":1941:2009  if (numReveals == 2) {... */\n    tag_150:\n        /* \"RPSLS.sol\":2021:2029  timeUnit */\n      0x01\n      0x00\n      swap1\n      sload\n      swap1\n      0x0100\n      exp\n      swap1\n      div\n      0xffffffffffffffffffffffffffffffffffffffff\n      and\n        /* \"RPSLS.sol\":2021:2046  timeUnit.updateActionTime */\n      0xffffffffffffffffffffffffffffffffffffffff\n      and\n      0xf4176b22\n        /* \"RPSLS.sol\":2021:2048  timeUnit.updateActionTime() */\n      mload(0x40)\n      dup2\n      0xffffffff\n      and\n      0xe0\n      shl\n      dup2\n      mstore\n      0x04\n      add\n      0x00\n      mload(0x40)\n      dup1\n      dup4\n      sub\n      dup2\n      0x00\n      dup8\n      dup1\n      extcodesize\n      iszero\n      dup1\n      iszero\n      tag_153\n      jumpi\n      0x00\n      dup1\n      revert\n    tag_153:\n      pop\n      gas\n      call\n      iszero\n      dup1\n      iszero\n      tag_155\n      jumpi\n      returndatasize\n      0x00\n      dup1\n      returndatacopy\n      revert(0x00, returndatasize)\n    tag_155:\n      pop\n      pop\n      pop\n      pop\n        /* \"RPSLS.sol\":1654:2056  {... */\n      pop\n        /* \"RPSLS.sol\":1605:2056  function revealChoice(bytes32 revealHash) public {... */\n      pop\n      jump\t// out\n        /* \"RPSLS.sol\":280:299  IERC20 public WAVAX */\n    tag_40:\n      0x02\n      0x00\n      swap1\n      sload\n      swap1\n      0x0100\n      exp\n      swap1\n      div\n      0xffffffffffffffffffffffffffffffffffffffff\n      and\n      dup2\n      jump\t// out\n        /* \"RPSLS.sol\":342:367  uint public numPlayer = 0 */\n    tag_44:\n      sload(0x03)\n      dup2\n      jump\t// out\n        /* \"RPSLS.sol\":521:547  uint public numReveals = 0 */\n    tag_47:\n      sload(0x08)\n      dup2\n      jump\t// out\n        /* \"RPSLS.sol\":210:242  CommitReveal public commitReveal */\n    tag_50:\n      0x00\n      dup1\n      sload\n      swap1\n      0x0100\n      exp\n      swap1\n      div\n      0xffffffffffffffffffffffffffffffffffffffff\n      and\n      dup2\n      jump\t// out\n        /* \"RPSLS.sol\":403:448  mapping(address => uint) public player_choice */\n    tag_56:\n      mstore(0x20, 0x05)\n      dup1\n      0x00\n      mstore\n      keccak256(0x00, 0x40)\n      0x00\n      swap2\n      pop\n      swap1\n      pop\n      sload\n      dup2\n      jump\t// out\n        /* \"RPSLS.sol\":1370:1597  function inputCommit(bytes32 commitHash) public {... */\n    tag_60:\n        /* \"RPSLS.sol\":1450:1451  2 */\n      0x02\n        /* \"RPSLS.sol\":1437:1446  numPlayer */\n      sload(0x03)\n        /* \"RPSLS.sol\":1437:1451  numPlayer == 2 */\n      eq\n        /* \"RPSLS.sol\":1429:1474  require(numPlayer == 2, \"Game is not ready.\") */\n      tag_157\n      jumpi\n      mload(0x40)\n      0x08c379a000000000000000000000000000000000000000000000000000000000\n      dup2\n      mstore\n      0x04\n      add\n      tag_158\n      swap1\n      tag_159\n      jump\t// in\n    tag_158:\n      mload(0x40)\n      dup1\n      swap2\n      sub\n      swap1\n      revert\n    tag_157:\n        /* \"RPSLS.sol\":1485:1497  commitReveal */\n      0x00\n      dup1\n      sload\n      swap1\n      0x0100\n      exp\n      swap1\n      div\n      0xffffffffffffffffffffffffffffffffffffffff\n      and\n        /* \"RPSLS.sol\":1485:1504  commitReveal.commit */\n      0xffffffffffffffffffffffffffffffffffffffff\n      and\n      0x5a746101\n        /* \"RPSLS.sol\":1505:1515  commitHash */\n      dup3\n        /* \"RPSLS.sol\":1517:1527  msg.sender */\n      caller\n        /* \"RPSLS.sol\":1485:1528  commitReveal.commit(commitHash, msg.sender) */\n      mload(0x40)\n      dup4\n      0xffffffff\n      and\n      0xe0\n      shl\n      dup2\n      mstore\n      0x04\n      add\n      tag_160\n      swap3\n      swap2\n      swap1\n      tag_144\n      jump\t// in\n    tag_160:\n      0x00\n      mload(0x40)\n      dup1\n      dup4\n      sub\n      dup2\n      0x00\n      dup8\n      dup1\n      extcodesize\n      iszero\n      dup1\n      iszero\n      tag_161\n      jumpi\n      0x00\n      dup1\n      revert\n    tag_161:\n      pop\n      gas\n      call\n      iszero\n      dup1\n      iszero\n      tag_163\n      jumpi\n      returndatasize\n      0x00\n      dup1\n      returndatacopy\n      revert(0x00, returndatasize)\n    tag_163:\n      pop\n      pop\n      pop\n      pop\n        /* \"RPSLS.sol\":1539:1549  numCommits */\n      0x07\n      0x00\n        /* \"RPSLS.sol\":1539:1551  numCommits++ */\n      dup2\n      sload\n      dup1\n      swap3\n      swap2\n      swap1\n      tag_164\n      swap1\n      tag_95\n      jump\t// in\n    tag_164:\n      swap2\n      swap1\n      pop\n      sstore\n      pop\n        /* \"RPSLS.sol\":1562:1570  timeUnit */\n      0x01\n      0x00\n      swap1\n      sload\n      swap1\n      0x0100\n      exp\n      swap1\n      div\n      0xffffffffffffffffffffffffffffffffffffffff\n      and\n        /* \"RPSLS.sol\":1562:1587  timeUnit.updateActionTime */\n      0xffffffffffffffffffffffffffffffffffffffff\n      and\n      0xf4176b22\n        /* \"RPSLS.sol\":1562:1589  timeUnit.updateActionTime() */\n      mload(0x40)\n      dup2\n      0xffffffff\n      and\n      0xe0\n      shl\n      dup2\n      mstore\n      0x04\n      add\n      0x00\n      mload(0x40)\n      dup1\n      dup4\n      sub\n      dup2\n      0x00\n      dup8\n      dup1\n      extcodesize\n      iszero\n      dup1\n      iszero\n      tag_165\n      jumpi\n      0x00\n      dup1\n      revert\n    tag_165:\n      pop\n      gas\n      call\n      iszero\n      dup1\n      iszero\n      tag_167\n      jumpi\n      returndatasize\n      0x00\n      dup1\n      returndatacopy\n      revert(0x00, returndatasize)\n    tag_167:\n      pop\n      pop\n      pop\n      pop\n        /* \"RPSLS.sol\":1370:1597  function inputCommit(bytes32 commitHash) public {... */\n      pop\n      jump\t// out\n        /* \"RPSLS.sol\":2064:2209  function getChoiceFromHash(bytes32 revealHash) public pure returns (uint8) {... */\n    tag_63:\n        /* \"RPSLS.sol\":2132:2137  uint8 */\n      0x00\n        /* \"RPSLS.sol\":2200:2201  5 */\n      0x05\n        /* \"RPSLS.sol\":2163:2173  revealHash */\n      dup3\n        /* \"RPSLS.sol\":2194:2195  1 */\n      0x01\n        /* \"RPSLS.sol\":2174:2191  revealHash.length */\n      0x20\n        /* \"RPSLS.sol\":2174:2195  revealHash.length - 1 */\n      tag_169\n      swap2\n      swap1\n      tag_170\n      jump\t// in\n    tag_169:\n        /* \"RPSLS.sol\":2163:2196  revealHash[revealHash.length - 1] */\n      0xff\n      and\n      0x20\n      dup2\n      lt\n      tag_171\n      jumpi\n      tag_172\n      tag_112\n      jump\t// in\n    tag_172:\n    tag_171:\n      byte\n      0xf8\n      shl\n        /* \"RPSLS.sol\":2157:2197  uint8(revealHash[revealHash.length - 1]) */\n      0xf8\n      shr\n        /* \"RPSLS.sol\":2157:2201  uint8(revealHash[revealHash.length - 1]) % 5 */\n      tag_173\n      swap2\n      swap1\n      tag_174\n      jump\t// in\n    tag_173:\n        /* \"RPSLS.sol\":2150:2201  return uint8(revealHash[revealHash.length - 1]) % 5 */\n      swap1\n      pop\n        /* \"RPSLS.sol\":2064:2209  function getChoiceFromHash(bytes32 revealHash) public pure returns (uint8) {... */\n      swap2\n      swap1\n      pop\n      jump\t// out\n        /* \"RPSLS.sol\":455:479  address[] public players */\n    tag_69:\n      0x06\n      dup2\n      dup2\n      sload\n      dup2\n      lt\n      tag_175\n      jumpi\n      0x00\n      dup1\n      revert\n    tag_175:\n      swap1\n      0x00\n      mstore\n      keccak256(0x00, 0x20)\n      add\n      0x00\n      swap2\n      pop\n      sload\n      swap1\n      0x0100\n      exp\n      swap1\n      div\n      0xffffffffffffffffffffffffffffffffffffffff\n      and\n      dup2\n      jump\t// out\n        /* \"RPSLS.sol\":3717:3902  function _resetGame() private {... */\n    tag_138:\n        /* \"RPSLS.sol\":3770:3771  0 */\n      0x00\n        /* \"RPSLS.sol\":3758:3767  numPlayer */\n      0x03\n        /* \"RPSLS.sol\":3758:3771  numPlayer = 0 */\n      dup2\n      swap1\n      sstore\n      pop\n        /* \"RPSLS.sol\":3791:3792  0 */\n      0x00\n        /* \"RPSLS.sol\":3782:3788  reward */\n      0x04\n        /* \"RPSLS.sol\":3782:3792  reward = 0 */\n      dup2\n      swap1\n      sstore\n      pop\n        /* \"RPSLS.sol\":3816:3817  0 */\n      0x00\n        /* \"RPSLS.sol\":3803:3813  numCommits */\n      0x07\n        /* \"RPSLS.sol\":3803:3817  numCommits = 0 */\n      dup2\n      swap1\n      sstore\n      pop\n        /* \"RPSLS.sol\":3841:3842  0 */\n      0x00\n        /* \"RPSLS.sol\":3828:3838  numReveals */\n      0x08\n        /* \"RPSLS.sol\":3828:3842  numReveals = 0 */\n      dup2\n      swap1\n      sstore\n      pop\n        /* \"RPSLS.sol\":3858:3869  GameReset() */\n      0xc6976b6410888b44c765590c8368eb4a60e0431d4ad683c8a53ea85a8479f22e\n      mload(0x40)\n      mload(0x40)\n      dup1\n      swap2\n      sub\n      swap1\n      log1\n        /* \"RPSLS.sol\":3887:3894  players */\n      0x06\n      0x00\n        /* \"RPSLS.sol\":3880:3894  delete players */\n      tag_178\n      swap2\n      swap1\n      tag_179\n      jump\t// in\n    tag_178:\n        /* \"RPSLS.sol\":3717:3902  function _resetGame() private {... */\n      jump\t// out\n        /* \"RPSLS.sol\":2217:2858  function _checkWinnerAndPay() private {... */\n    tag_152:\n        /* \"RPSLS.sol\":2266:2279  uint p0Choice */\n      0x00\n        /* \"RPSLS.sol\":2282:2295  player_choice */\n      0x05\n        /* \"RPSLS.sol\":2282:2307  player_choice[players[0]] */\n      0x00\n        /* \"RPSLS.sol\":2296:2303  players */\n      0x06\n        /* \"RPSLS.sol\":2304:2305  0 */\n      0x00\n        /* \"RPSLS.sol\":2296:2306  players[0] */\n      dup2\n      sload\n      dup2\n      lt\n      tag_181\n      jumpi\n      tag_182\n      tag_112\n      jump\t// in\n    tag_182:\n    tag_181:\n      swap1\n      0x00\n      mstore\n      keccak256(0x00, 0x20)\n      add\n      0x00\n      swap1\n      sload\n      swap1\n      0x0100\n      exp\n      swap1\n      div\n      0xffffffffffffffffffffffffffffffffffffffff\n      and\n        /* \"RPSLS.sol\":2282:2307  player_choice[players[0]] */\n      0xffffffffffffffffffffffffffffffffffffffff\n      and\n      0xffffffffffffffffffffffffffffffffffffffff\n      and\n      dup2\n      mstore\n      0x20\n      add\n      swap1\n      dup2\n      mstore\n      0x20\n      add\n      0x00\n      keccak256\n      sload\n        /* \"RPSLS.sol\":2266:2307  uint p0Choice = player_choice[players[0]] */\n      swap1\n      pop\n        /* \"RPSLS.sol\":2318:2331  uint p1Choice */\n      0x00\n        /* \"RPSLS.sol\":2334:2347  player_choice */\n      0x05\n        /* \"RPSLS.sol\":2334:2359  player_choice[players[1]] */\n      0x00\n        /* \"RPSLS.sol\":2348:2355  players */\n      0x06\n        /* \"RPSLS.sol\":2356:2357  1 */\n      0x01\n        /* \"RPSLS.sol\":2348:2358  players[1] */\n      dup2\n      sload\n      dup2\n      lt\n      tag_184\n      jumpi\n      tag_185\n      tag_112\n      jump\t// in\n    tag_185:\n    tag_184:\n      swap1\n      0x00\n      mstore\n      keccak256(0x00, 0x20)\n      add\n      0x00\n      swap1\n      sload\n      swap1\n      0x0100\n      exp\n      swap1\n      div\n      0xffffffffffffffffffffffffffffffffffffffff\n      and\n        /* \"RPSLS.sol\":2334:2359  player_choice[players[1]] */\n      0xffffffffffffffffffffffffffffffffffffffff\n      and\n      0xffffffffffffffffffffffffffffffffffffffff\n      and\n      dup2\n      mstore\n      0x20\n      add\n      swap1\n      dup2\n      mstore\n      0x20\n      add\n      0x00\n      keccak256\n      sload\n        /* \"RPSLS.sol\":2318:2359  uint p1Choice = player_choice[players[1]] */\n      swap1\n      pop\n        /* \"RPSLS.sol\":2370:2384  address winner */\n      0x00\n        /* \"RPSLS.sol\":2401:2430  _isWinner(p0Choice, p1Choice) */\n      tag_187\n        /* \"RPSLS.sol\":2411:2419  p0Choice */\n      dup4\n        /* \"RPSLS.sol\":2421:2429  p1Choice */\n      dup4\n        /* \"RPSLS.sol\":2401:2410  _isWinner */\n      tag_188\n        /* \"RPSLS.sol\":2401:2430  _isWinner(p0Choice, p1Choice) */\n      jump\t// in\n    tag_187:\n        /* \"RPSLS.sol\":2397:2565  if (_isWinner(p0Choice, p1Choice)) {... */\n      iszero\n      tag_189\n      jumpi\n        /* \"RPSLS.sol\":2456:2463  players */\n      0x06\n        /* \"RPSLS.sol\":2464:2465  0 */\n      0x00\n        /* \"RPSLS.sol\":2456:2466  players[0] */\n      dup2\n      sload\n      dup2\n      lt\n      tag_190\n      jumpi\n      tag_191\n      tag_112\n      jump\t// in\n    tag_191:\n    tag_190:\n      swap1\n      0x00\n      mstore\n      keccak256(0x00, 0x20)\n      add\n      0x00\n      swap1\n      sload\n      swap1\n      0x0100\n      exp\n      swap1\n      div\n      0xffffffffffffffffffffffffffffffffffffffff\n      and\n        /* \"RPSLS.sol\":2447:2466  winner = players[0] */\n      swap1\n      pop\n        /* \"RPSLS.sol\":2397:2565  if (_isWinner(p0Choice, p1Choice)) {... */\n      jump(tag_193)\n    tag_189:\n        /* \"RPSLS.sol\":2488:2517  _isWinner(p1Choice, p0Choice) */\n      tag_194\n        /* \"RPSLS.sol\":2498:2506  p1Choice */\n      dup3\n        /* \"RPSLS.sol\":2508:2516  p0Choice */\n      dup5\n        /* \"RPSLS.sol\":2488:2497  _isWinner */\n      tag_188\n        /* \"RPSLS.sol\":2488:2517  _isWinner(p1Choice, p0Choice) */\n      jump\t// in\n    tag_194:\n        /* \"RPSLS.sol\":2484:2565  if (_isWinner(p1Choice, p0Choice)) {... */\n      iszero\n      tag_195\n      jumpi\n        /* \"RPSLS.sol\":2543:2550  players */\n      0x06\n        /* \"RPSLS.sol\":2551:2552  1 */\n      0x01\n        /* \"RPSLS.sol\":2543:2553  players[1] */\n      dup2\n      sload\n      dup2\n      lt\n      tag_196\n      jumpi\n      tag_197\n      tag_112\n      jump\t// in\n    tag_197:\n    tag_196:\n      swap1\n      0x00\n      mstore\n      keccak256(0x00, 0x20)\n      add\n      0x00\n      swap1\n      sload\n      swap1\n      0x0100\n      exp\n      swap1\n      div\n      0xffffffffffffffffffffffffffffffffffffffff\n      and\n        /* \"RPSLS.sol\":2534:2553  winner = players[1] */\n      swap1\n      pop\n        /* \"RPSLS.sol\":2484:2565  if (_isWinner(p1Choice, p0Choice)) {... */\n    tag_195:\n        /* \"RPSLS.sol\":2397:2565  if (_isWinner(p0Choice, p1Choice)) {... */\n    tag_193:\n        /* \"RPSLS.sol\":2599:2600  0 */\n      0x00\n        /* \"RPSLS.sol\":2581:2601  winner != address(0) */\n      0xffffffffffffffffffffffffffffffffffffffff\n      and\n        /* \"RPSLS.sol\":2581:2587  winner */\n      dup2\n        /* \"RPSLS.sol\":2581:2601  winner != address(0) */\n      0xffffffffffffffffffffffffffffffffffffffff\n      and\n      eq\n        /* \"RPSLS.sol\":2577:2826  if (winner != address(0)) {... */\n      tag_199\n      jumpi\n        /* \"RPSLS.sol\":2618:2623  WAVAX */\n      0x02\n      0x00\n      swap1\n      sload\n      swap1\n      0x0100\n      exp\n      swap1\n      div\n      0xffffffffffffffffffffffffffffffffffffffff\n      and\n        /* \"RPSLS.sol\":2618:2632  WAVAX.transfer */\n      0xffffffffffffffffffffffffffffffffffffffff\n      and\n      0xa9059cbb\n        /* \"RPSLS.sol\":2633:2639  winner */\n      dup3\n        /* \"RPSLS.sol\":2641:2647  reward */\n      sload(0x04)\n        /* \"RPSLS.sol\":2618:2648  WAVAX.transfer(winner, reward) */\n      mload(0x40)\n      dup4\n      0xffffffff\n      and\n      0xe0\n      shl\n      dup2\n      mstore\n      0x04\n      add\n      tag_200\n      swap3\n      swap2\n      swap1\n      tag_115\n      jump\t// in\n    tag_200:\n      0x20\n      mload(0x40)\n      dup1\n      dup4\n      sub\n      dup2\n      0x00\n      dup8\n      gas\n      call\n      iszero\n      dup1\n      iszero\n      tag_202\n      jumpi\n      returndatasize\n      0x00\n      dup1\n      returndatacopy\n      revert(0x00, returndatasize)\n    tag_202:\n      pop\n      pop\n      pop\n      pop\n      mload(0x40)\n      returndatasize\n      not(0x1f)\n      0x1f\n      dup3\n      add\n      and\n      dup3\n      add\n      dup1\n      0x40\n      mstore\n      pop\n      dup2\n      add\n      swap1\n      tag_203\n      swap2\n      swap1\n      tag_90\n      jump\t// in\n    tag_203:\n      pop\n        /* \"RPSLS.sol\":2675:2681  winner */\n      dup1\n        /* \"RPSLS.sol\":2668:2690  Winner(winner, reward) */\n      0xffffffffffffffffffffffffffffffffffffffff\n      and\n      0x9c2270628a9b29d30ae96b6c4c14ed646ee134febdce38a5b77f2bde9cea2e20\n        /* \"RPSLS.sol\":2683:2689  reward */\n      sload(0x04)\n        /* \"RPSLS.sol\":2668:2690  Winner(winner, reward) */\n      mload(0x40)\n      tag_204\n      swap2\n      swap1\n      tag_23\n      jump\t// in\n    tag_204:\n      mload(0x40)\n      dup1\n      swap2\n      sub\n      swap1\n      log2\n        /* \"RPSLS.sol\":2577:2826  if (winner != address(0)) {... */\n      jump(tag_205)\n    tag_199:\n        /* \"RPSLS.sol\":2723:2728  WAVAX */\n      0x02\n      0x00\n      swap1\n      sload\n      swap1\n      0x0100\n      exp\n      swap1\n      div\n      0xffffffffffffffffffffffffffffffffffffffff\n      and\n        /* \"RPSLS.sol\":2723:2737  WAVAX.transfer */\n      0xffffffffffffffffffffffffffffffffffffffff\n      and\n      0xa9059cbb\n        /* \"RPSLS.sol\":2738:2745  players */\n      0x06\n        /* \"RPSLS.sol\":2746:2747  0 */\n      0x00\n        /* \"RPSLS.sol\":2738:2748  players[0] */\n      dup2\n      sload\n      dup2\n      lt\n      tag_206\n      jumpi\n      tag_207\n      tag_112\n      jump\t// in\n    tag_207:\n    tag_206:\n      swap1\n      0x00\n      mstore\n      keccak256(0x00, 0x20)\n      add\n      0x00\n      swap1\n      sload\n      swap1\n      0x0100\n      exp\n      swap1\n      div\n      0xffffffffffffffffffffffffffffffffffffffff\n      and\n        /* \"RPSLS.sol\":2759:2760  2 */\n      0x02\n        /* \"RPSLS.sol\":2750:2756  reward */\n      sload(0x04)\n        /* \"RPSLS.sol\":2750:2760  reward / 2 */\n      tag_209\n      swap2\n      swap1\n      tag_124\n      jump\t// in\n    tag_209:\n        /* \"RPSLS.sol\":2723:2761  WAVAX.transfer(players[0], reward / 2) */\n      mload(0x40)\n      dup4\n      0xffffffff\n      and\n      0xe0\n      shl\n      dup2\n      mstore\n      0x04\n      add\n      tag_210\n      swap3\n      swap2\n      swap1\n      tag_115\n      jump\t// in\n    tag_210:\n      0x20\n      mload(0x40)\n      dup1\n      dup4\n      sub\n      dup2\n      0x00\n      dup8\n      gas\n      call\n      iszero\n      dup1\n      iszero\n      tag_212\n      jumpi\n      returndatasize\n      0x00\n      dup1\n      returndatacopy\n      revert(0x00, returndatasize)\n    tag_212:\n      pop\n      pop\n      pop\n      pop\n      mload(0x40)\n      returndatasize\n      not(0x1f)\n      0x1f\n      dup3\n      add\n      and\n      dup3\n      add\n      dup1\n      0x40\n      mstore\n      pop\n      dup2\n      add\n      swap1\n      tag_213\n      swap2\n      swap1\n      tag_90\n      jump\t// in\n    tag_213:\n      pop\n        /* \"RPSLS.sol\":2776:2781  WAVAX */\n      0x02\n      0x00\n      swap1\n      sload\n      swap1\n      0x0100\n      exp\n      swap1\n      div\n      0xffffffffffffffffffffffffffffffffffffffff\n      and\n        /* \"RPSLS.sol\":2776:2790  WAVAX.transfer */\n      0xffffffffffffffffffffffffffffffffffffffff\n      and\n      0xa9059cbb\n        /* \"RPSLS.sol\":2791:2798  players */\n      0x06\n        /* \"RPSLS.sol\":2799:2800  1 */\n      0x01\n        /* \"RPSLS.sol\":2791:2801  players[1] */\n      dup2\n      sload\n      dup2\n      lt\n      tag_214\n      jumpi\n      tag_215\n      tag_112\n      jump\t// in\n    tag_215:\n    tag_214:\n      swap1\n      0x00\n      mstore\n      keccak256(0x00, 0x20)\n      add\n      0x00\n      swap1\n      sload\n      swap1\n      0x0100\n      exp\n      swap1\n      div\n      0xffffffffffffffffffffffffffffffffffffffff\n      and\n        /* \"RPSLS.sol\":2812:2813  2 */\n      0x02\n        /* \"RPSLS.sol\":2803:2809  reward */\n      sload(0x04)\n        /* \"RPSLS.sol\":2803:2813  reward / 2 */\n      tag_217\n      swap2\n      swap1\n      tag_124\n      jump\t// in\n    tag_217:\n        /* \"RPSLS.sol\":2776:2814  WAVAX.transfer(players[1], reward / 2) */\n      mload(0x40)\n      dup4\n      0xffffffff\n      and\n      0xe0\n      shl\n      dup2\n      mstore\n      0x04\n      add\n      tag_218\n      swap3\n      swap2\n      swap1\n      tag_115\n      jump\t// in\n    tag_218:\n      0x20\n      mload(0x40)\n      dup1\n      dup4\n      sub\n      dup2\n      0x00\n      dup8\n      gas\n      call\n      iszero\n      dup1\n      iszero\n      tag_220\n      jumpi\n      returndatasize\n      0x00\n      dup1\n      returndatacopy\n      revert(0x00, returndatasize)\n    tag_220:\n      pop\n      pop\n      pop\n      pop\n      mload(0x40)\n      returndatasize\n      not(0x1f)\n      0x1f\n      dup3\n      add\n      and\n      dup3\n      add\n      dup1\n      0x40\n      mstore\n      pop\n      dup2\n      add\n      swap1\n      tag_221\n      swap2\n      swap1\n      tag_90\n      jump\t// in\n    tag_221:\n      pop\n        /* \"RPSLS.sol\":2577:2826  if (winner != address(0)) {... */\n    tag_205:\n        /* \"RPSLS.sol\":2838:2850  _resetGame() */\n      tag_222\n        /* \"RPSLS.sol\":2838:2848  _resetGame */\n      tag_138\n        /* \"RPSLS.sol\":2838:2850  _resetGame() */\n      jump\t// in\n    tag_222:\n        /* \"RPSLS.sol\":2255:2858  {... */\n      pop\n      pop\n      pop\n        /* \"RPSLS.sol\":2217:2858  function _checkWinnerAndPay() private {... */\n      jump\t// out\n        /* \"RPSLS.sol\":2866:3301  function _isWinner(uint choice1, uint choice2) private pure returns (bool) {... */\n    tag_188:\n        /* \"RPSLS.sol\":2935:2939  bool */\n      0x00\n        /* \"RPSLS.sol\":2986:2987  0 */\n      dup1\n        /* \"RPSLS.sol\":2975:2982  choice1 */\n      dup4\n        /* \"RPSLS.sol\":2975:2987  choice1 == 0 */\n      eq\n        /* \"RPSLS.sol\":2975:3021  choice1 == 0 && (choice2 == 2 || choice2 == 3) */\n      dup1\n      iszero\n      tag_224\n      jumpi\n      pop\n        /* \"RPSLS.sol\":3003:3004  2 */\n      0x02\n        /* \"RPSLS.sol\":2992:2999  choice2 */\n      dup3\n        /* \"RPSLS.sol\":2992:3004  choice2 == 2 */\n      eq\n        /* \"RPSLS.sol\":2992:3020  choice2 == 2 || choice2 == 3 */\n      dup1\n      tag_225\n      jumpi\n      pop\n        /* \"RPSLS.sol\":3019:3020  3 */\n      0x03\n        /* \"RPSLS.sol\":3008:3015  choice2 */\n      dup3\n        /* \"RPSLS.sol\":3008:3020  choice2 == 3 */\n      eq\n        /* \"RPSLS.sol\":2992:3020  choice2 == 2 || choice2 == 3 */\n    tag_225:\n        /* \"RPSLS.sol\":2975:3021  choice1 == 0 && (choice2 == 2 || choice2 == 3) */\n    tag_224:\n        /* \"RPSLS.sol\":2974:3087  (choice1 == 0 && (choice2 == 2 || choice2 == 3)) ||... */\n      dup1\n      tag_226\n      jumpi\n      pop\n        /* \"RPSLS.sol\":3051:3052  1 */\n      0x01\n        /* \"RPSLS.sol\":3040:3047  choice1 */\n      dup4\n        /* \"RPSLS.sol\":3040:3052  choice1 == 1 */\n      eq\n        /* \"RPSLS.sol\":3040:3086  choice1 == 1 && (choice2 == 0 || choice2 == 4) */\n      dup1\n      iszero\n      tag_227\n      jumpi\n      pop\n        /* \"RPSLS.sol\":3068:3069  0 */\n      0x00\n        /* \"RPSLS.sol\":3057:3064  choice2 */\n      dup3\n        /* \"RPSLS.sol\":3057:3069  choice2 == 0 */\n      eq\n        /* \"RPSLS.sol\":3057:3085  choice2 == 0 || choice2 == 4 */\n      dup1\n      tag_228\n      jumpi\n      pop\n        /* \"RPSLS.sol\":3084:3085  4 */\n      0x04\n        /* \"RPSLS.sol\":3073:3080  choice2 */\n      dup3\n        /* \"RPSLS.sol\":3073:3085  choice2 == 4 */\n      eq\n        /* \"RPSLS.sol\":3057:3085  choice2 == 0 || choice2 == 4 */\n    tag_228:\n        /* \"RPSLS.sol\":3040:3086  choice1 == 1 && (choice2 == 0 || choice2 == 4) */\n    tag_227:\n        /* \"RPSLS.sol\":2974:3087  (choice1 == 0 && (choice2 == 2 || choice2 == 3)) ||... */\n    tag_226:\n        /* \"RPSLS.sol\":2974:3152  (choice1 == 0 && (choice2 == 2 || choice2 == 3)) ||... */\n      dup1\n      tag_229\n      jumpi\n      pop\n        /* \"RPSLS.sol\":3116:3117  2 */\n      0x02\n        /* \"RPSLS.sol\":3105:3112  choice1 */\n      dup4\n        /* \"RPSLS.sol\":3105:3117  choice1 == 2 */\n      eq\n        /* \"RPSLS.sol\":3105:3151  choice1 == 2 && (choice2 == 1 || choice2 == 3) */\n      dup1\n      iszero\n      tag_230\n      jumpi\n      pop\n        /* \"RPSLS.sol\":3133:3134  1 */\n      0x01\n        /* \"RPSLS.sol\":3122:3129  choice2 */\n      dup3\n        /* \"RPSLS.sol\":3122:3134  choice2 == 1 */\n      eq\n        /* \"RPSLS.sol\":3122:3150  choice2 == 1 || choice2 == 3 */\n      dup1\n      tag_231\n      jumpi\n      pop\n        /* \"RPSLS.sol\":3149:3150  3 */\n      0x03\n        /* \"RPSLS.sol\":3138:3145  choice2 */\n      dup3\n        /* \"RPSLS.sol\":3138:3150  choice2 == 3 */\n      eq\n        /* \"RPSLS.sol\":3122:3150  choice2 == 1 || choice2 == 3 */\n    tag_231:\n        /* \"RPSLS.sol\":3105:3151  choice1 == 2 && (choice2 == 1 || choice2 == 3) */\n    tag_230:\n        /* \"RPSLS.sol\":2974:3152  (choice1 == 0 && (choice2 == 2 || choice2 == 3)) ||... */\n    tag_229:\n        /* \"RPSLS.sol\":2974:3217  (choice1 == 0 && (choice2 == 2 || choice2 == 3)) ||... */\n      dup1\n      tag_232\n      jumpi\n      pop\n        /* \"RPSLS.sol\":3181:3182  3 */\n      0x03\n        /* \"RPSLS.sol\":3170:3177  choice1 */\n      dup4\n        /* \"RPSLS.sol\":3170:3182  choice1 == 3 */\n      eq\n        /* \"RPSLS.sol\":3170:3216  choice1 == 3 && (choice2 == 1 || choice2 == 4) */\n      dup1\n      iszero\n      tag_233\n      jumpi\n      pop\n        /* \"RPSLS.sol\":3198:3199  1 */\n      0x01\n        /* \"RPSLS.sol\":3187:3194  choice2 */\n      dup3\n        /* \"RPSLS.sol\":3187:3199  choice2 == 1 */\n      eq\n        /* \"RPSLS.sol\":3187:3215  choice2 == 1 || choice2 == 4 */\n      dup1\n      tag_234\n      jumpi\n      pop\n        /* \"RPSLS.sol\":3214:3215  4 */\n      0x04\n        /* \"RPSLS.sol\":3203:3210  choice2 */\n      dup3\n        /* \"RPSLS.sol\":3203:3215  choice2 == 4 */\n      eq\n        /* \"RPSLS.sol\":3187:3215  choice2 == 1 || choice2 == 4 */\n    tag_234:\n        /* \"RPSLS.sol\":3170:3216  choice1 == 3 && (choice2 == 1 || choice2 == 4) */\n    tag_233:\n        /* \"RPSLS.sol\":2974:3217  (choice1 == 0 && (choice2 == 2 || choice2 == 3)) ||... */\n    tag_232:\n        /* \"RPSLS.sol\":2974:3282  (choice1 == 0 && (choice2 == 2 || choice2 == 3)) ||... */\n      dup1\n      tag_235\n      jumpi\n      pop\n        /* \"RPSLS.sol\":3246:3247  4 */\n      0x04\n        /* \"RPSLS.sol\":3235:3242  choice1 */\n      dup4\n        /* \"RPSLS.sol\":3235:3247  choice1 == 4 */\n      eq\n        /* \"RPSLS.sol\":3235:3281  choice1 == 4 && (choice2 == 0 || choice2 == 2) */\n      dup1\n      iszero\n      tag_236\n      jumpi\n      pop\n        /* \"RPSLS.sol\":3263:3264  0 */\n      0x00\n        /* \"RPSLS.sol\":3252:3259  choice2 */\n      dup3\n        /* \"RPSLS.sol\":3252:3264  choice2 == 0 */\n      eq\n        /* \"RPSLS.sol\":3252:3280  choice2 == 0 || choice2 == 2 */\n      dup1\n      tag_237\n      jumpi\n      pop\n        /* \"RPSLS.sol\":3279:3280  2 */\n      0x02\n        /* \"RPSLS.sol\":3268:3275  choice2 */\n      dup3\n        /* \"RPSLS.sol\":3268:3280  choice2 == 2 */\n      eq\n        /* \"RPSLS.sol\":3252:3280  choice2 == 0 || choice2 == 2 */\n    tag_237:\n        /* \"RPSLS.sol\":3235:3281  choice1 == 4 && (choice2 == 0 || choice2 == 2) */\n    tag_236:\n        /* \"RPSLS.sol\":2974:3282  (choice1 == 0 && (choice2 == 2 || choice2 == 3)) ||... */\n    tag_235:\n        /* \"RPSLS.sol\":2952:3293  return (... */\n      swap1\n      pop\n        /* \"RPSLS.sol\":2866:3301  function _isWinner(uint choice1, uint choice2) private pure returns (bool) {... */\n      swap3\n      swap2\n      pop\n      pop\n      jump\t// out\n    tag_179:\n      pop\n      dup1\n      sload\n      0x00\n      dup3\n      sstore\n      swap1\n      0x00\n      mstore\n      keccak256(0x00, 0x20)\n      swap1\n      dup2\n      add\n      swap1\n      tag_239\n      swap2\n      swap1\n      tag_240\n      jump\t// in\n    tag_239:\n      pop\n      jump\t// out\n    tag_240:\n    tag_241:\n      dup1\n      dup3\n      gt\n      iszero\n      tag_242\n      jumpi\n      0x00\n      dup2\n      0x00\n      swap1\n      sstore\n      pop\n      0x01\n      add\n      jump(tag_241)\n    tag_242:\n      pop\n      swap1\n      jump\t// out\n        /* \"#utility.yul\":7:84   */\n    tag_243:\n        /* \"#utility.yul\":44:51   */\n      0x00\n        /* \"#utility.yul\":73:78   */\n      dup2\n        /* \"#utility.yul\":62:78   */\n      swap1\n      pop\n        /* \"#utility.yul\":7:84   */\n      swap2\n      swap1\n      pop\n      jump\t// out\n        /* \"#utility.yul\":90:208   */\n    tag_244:\n        /* \"#utility.yul\":177:201   */\n      tag_292\n        /* \"#utility.yul\":195:200   */\n      dup2\n        /* \"#utility.yul\":177:201   */\n      tag_243\n      jump\t// in\n    tag_292:\n        /* \"#utility.yul\":172:175   */\n      dup3\n        /* \"#utility.yul\":165:202   */\n      mstore\n        /* \"#utility.yul\":90:208   */\n      pop\n      pop\n      jump\t// out\n        /* \"#utility.yul\":214:436   */\n    tag_23:\n        /* \"#utility.yul\":307:311   */\n      0x00\n        /* \"#utility.yul\":345:347   */\n      0x20\n        /* \"#utility.yul\":334:343   */\n      dup3\n        /* \"#utility.yul\":330:348   */\n      add\n        /* \"#utility.yul\":322:348   */\n      swap1\n      pop\n        /* \"#utility.yul\":358:429   */\n      tag_294\n        /* \"#utility.yul\":426:427   */\n      0x00\n        /* \"#utility.yul\":415:424   */\n      dup4\n        /* \"#utility.yul\":411:428   */\n      add\n        /* \"#utility.yul\":402:408   */\n      dup5\n        /* \"#utility.yul\":358:429   */\n      tag_244\n      jump\t// in\n    tag_294:\n        /* \"#utility.yul\":214:436   */\n      swap3\n      swap2\n      pop\n      pop\n      jump\t// out\n        /* \"#utility.yul\":442:568   */\n    tag_245:\n        /* \"#utility.yul\":479:486   */\n      0x00\n        /* \"#utility.yul\":519:561   */\n      0xffffffffffffffffffffffffffffffffffffffff\n        /* \"#utility.yul\":512:517   */\n      dup3\n        /* \"#utility.yul\":508:562   */\n      and\n        /* \"#utility.yul\":497:562   */\n      swap1\n      pop\n        /* \"#utility.yul\":442:568   */\n      swap2\n      swap1\n      pop\n      jump\t// out\n        /* \"#utility.yul\":574:634   */\n    tag_246:\n        /* \"#utility.yul\":602:605   */\n      0x00\n        /* \"#utility.yul\":623:628   */\n      dup2\n        /* \"#utility.yul\":616:628   */\n      swap1\n      pop\n        /* \"#utility.yul\":574:634   */\n      swap2\n      swap1\n      pop\n      jump\t// out\n        /* \"#utility.yul\":640:782   */\n    tag_247:\n        /* \"#utility.yul\":690:699   */\n      0x00\n        /* \"#utility.yul\":723:776   */\n      tag_298\n        /* \"#utility.yul\":741:775   */\n      tag_299\n        /* \"#utility.yul\":750:774   */\n      tag_300\n        /* \"#utility.yul\":768:773   */\n      dup5\n        /* \"#utility.yul\":750:774   */\n      tag_245\n      jump\t// in\n    tag_300:\n        /* \"#utility.yul\":741:775   */\n      tag_246\n      jump\t// in\n    tag_299:\n        /* \"#utility.yul\":723:776   */\n      tag_245\n      jump\t// in\n    tag_298:\n        /* \"#utility.yul\":710:776   */\n      swap1\n      pop\n        /* \"#utility.yul\":640:782   */\n      swap2\n      swap1\n      pop\n      jump\t// out\n        /* \"#utility.yul\":788:914   */\n    tag_248:\n        /* \"#utility.yul\":838:847   */\n      0x00\n        /* \"#utility.yul\":871:908   */\n      tag_302\n        /* \"#utility.yul\":902:907   */\n      dup3\n        /* \"#utility.yul\":871:908   */\n      tag_247\n      jump\t// in\n    tag_302:\n        /* \"#utility.yul\":858:908   */\n      swap1\n      pop\n        /* \"#utility.yul\":788:914   */\n      swap2\n      swap1\n      pop\n      jump\t// out\n        /* \"#utility.yul\":920:1062   */\n    tag_249:\n        /* \"#utility.yul\":986:995   */\n      0x00\n        /* \"#utility.yul\":1019:1056   */\n      tag_304\n        /* \"#utility.yul\":1050:1055   */\n      dup3\n        /* \"#utility.yul\":1019:1056   */\n      tag_248\n      jump\t// in\n    tag_304:\n        /* \"#utility.yul\":1006:1056   */\n      swap1\n      pop\n        /* \"#utility.yul\":920:1062   */\n      swap2\n      swap1\n      pop\n      jump\t// out\n        /* \"#utility.yul\":1068:1231   */\n    tag_250:\n        /* \"#utility.yul\":1171:1224   */\n      tag_306\n        /* \"#utility.yul\":1218:1223   */\n      dup2\n        /* \"#utility.yul\":1171:1224   */\n      tag_249\n      jump\t// in\n    tag_306:\n        /* \"#utility.yul\":1166:1169   */\n      dup3\n        /* \"#utility.yul\":1159:1225   */\n      mstore\n        /* \"#utility.yul\":1068:1231   */\n      pop\n      pop\n      jump\t// out\n        /* \"#utility.yul\":1237:1491   */\n    tag_32:\n        /* \"#utility.yul\":1346:1350   */\n      0x00\n        /* \"#utility.yul\":1384:1386   */\n      0x20\n        /* \"#utility.yul\":1373:1382   */\n      dup3\n        /* \"#utility.yul\":1369:1387   */\n      add\n        /* \"#utility.yul\":1361:1387   */\n      swap1\n      pop\n        /* \"#utility.yul\":1397:1484   */\n      tag_308\n        /* \"#utility.yul\":1481:1482   */\n      0x00\n        /* \"#utility.yul\":1470:1479   */\n      dup4\n        /* \"#utility.yul\":1466:1483   */\n      add\n        /* \"#utility.yul\":1457:1463   */\n      dup5\n        /* \"#utility.yul\":1397:1484   */\n      tag_250\n      jump\t// in\n    tag_308:\n        /* \"#utility.yul\":1237:1491   */\n      swap3\n      swap2\n      pop\n      pop\n      jump\t// out\n        /* \"#utility.yul\":1578:1695   */\n    tag_252:\n        /* \"#utility.yul\":1687:1688   */\n      0x00\n        /* \"#utility.yul\":1684:1685   */\n      dup1\n        /* \"#utility.yul\":1677:1689   */\n      revert\n        /* \"#utility.yul\":1824:1901   */\n    tag_254:\n        /* \"#utility.yul\":1861:1868   */\n      0x00\n        /* \"#utility.yul\":1890:1895   */\n      dup2\n        /* \"#utility.yul\":1879:1895   */\n      swap1\n      pop\n        /* \"#utility.yul\":1824:1901   */\n      swap2\n      swap1\n      pop\n      jump\t// out\n        /* \"#utility.yul\":1907:2029   */\n    tag_255:\n        /* \"#utility.yul\":1980:2004   */\n      tag_314\n        /* \"#utility.yul\":1998:2003   */\n      dup2\n        /* \"#utility.yul\":1980:2004   */\n      tag_254\n      jump\t// in\n    tag_314:\n        /* \"#utility.yul\":1973:1978   */\n      dup2\n        /* \"#utility.yul\":1970:2005   */\n      eq\n        /* \"#utility.yul\":1960:2023   */\n      tag_315\n      jumpi\n        /* \"#utility.yul\":2019:2020   */\n      0x00\n        /* \"#utility.yul\":2016:2017   */\n      dup1\n        /* \"#utility.yul\":2009:2021   */\n      revert\n        /* \"#utility.yul\":1960:2023   */\n    tag_315:\n        /* \"#utility.yul\":1907:2029   */\n      pop\n      jump\t// out\n        /* \"#utility.yul\":2035:2174   */\n    tag_256:\n        /* \"#utility.yul\":2081:2086   */\n      0x00\n        /* \"#utility.yul\":2119:2125   */\n      dup2\n        /* \"#utility.yul\":2106:2126   */\n      calldataload\n        /* \"#utility.yul\":2097:2126   */\n      swap1\n      pop\n        /* \"#utility.yul\":2135:2168   */\n      tag_317\n        /* \"#utility.yul\":2162:2167   */\n      dup2\n        /* \"#utility.yul\":2135:2168   */\n      tag_255\n      jump\t// in\n    tag_317:\n        /* \"#utility.yul\":2035:2174   */\n      swap3\n      swap2\n      pop\n      pop\n      jump\t// out\n        /* \"#utility.yul\":2180:2509   */\n    tag_37:\n        /* \"#utility.yul\":2239:2245   */\n      0x00\n        /* \"#utility.yul\":2288:2290   */\n      0x20\n        /* \"#utility.yul\":2276:2285   */\n      dup3\n        /* \"#utility.yul\":2267:2274   */\n      dup5\n        /* \"#utility.yul\":2263:2286   */\n      sub\n        /* \"#utility.yul\":2259:2291   */\n      slt\n        /* \"#utility.yul\":2256:2375   */\n      iszero\n      tag_319\n      jumpi\n        /* \"#utility.yul\":2294:2373   */\n      tag_320\n      tag_252\n      jump\t// in\n    tag_320:\n        /* \"#utility.yul\":2256:2375   */\n    tag_319:\n        /* \"#utility.yul\":2414:2415   */\n      0x00\n        /* \"#utility.yul\":2439:2492   */\n      tag_321\n        /* \"#utility.yul\":2484:2491   */\n      dup5\n        /* \"#utility.yul\":2475:2481   */\n      dup3\n        /* \"#utility.yul\":2464:2473   */\n      dup6\n        /* \"#utility.yul\":2460:2482   */\n      add\n        /* \"#utility.yul\":2439:2492   */\n      tag_256\n      jump\t// in\n    tag_321:\n        /* \"#utility.yul\":2429:2492   */\n      swap2\n      pop\n        /* \"#utility.yul\":2385:2502   */\n      pop\n        /* \"#utility.yul\":2180:2509   */\n      swap3\n      swap2\n      pop\n      pop\n      jump\t// out\n        /* \"#utility.yul\":2515:2654   */\n    tag_257:\n        /* \"#utility.yul\":2578:2587   */\n      0x00\n        /* \"#utility.yul\":2611:2648   */\n      tag_323\n        /* \"#utility.yul\":2642:2647   */\n      dup3\n        /* \"#utility.yul\":2611:2648   */\n      tag_248\n      jump\t// in\n    tag_323:\n        /* \"#utility.yul\":2598:2648   */\n      swap1\n      pop\n        /* \"#utility.yul\":2515:2654   */\n      swap2\n      swap1\n      pop\n      jump\t// out\n        /* \"#utility.yul\":2660:2817   */\n    tag_258:\n        /* \"#utility.yul\":2760:2810   */\n      tag_325\n        /* \"#utility.yul\":2804:2809   */\n      dup2\n        /* \"#utility.yul\":2760:2810   */\n      tag_257\n      jump\t// in\n    tag_325:\n        /* \"#utility.yul\":2755:2758   */\n      dup3\n        /* \"#utility.yul\":2748:2811   */\n      mstore\n        /* \"#utility.yul\":2660:2817   */\n      pop\n      pop\n      jump\t// out\n        /* \"#utility.yul\":2823:3071   */\n    tag_42:\n        /* \"#utility.yul\":2929:2933   */\n      0x00\n        /* \"#utility.yul\":2967:2969   */\n      0x20\n        /* \"#utility.yul\":2956:2965   */\n      dup3\n        /* \"#utility.yul\":2952:2970   */\n      add\n        /* \"#utility.yul\":2944:2970   */\n      swap1\n      pop\n        /* \"#utility.yul\":2980:3064   */\n      tag_327\n        /* \"#utility.yul\":3061:3062   */\n      0x00\n        /* \"#utility.yul\":3050:3059   */\n      dup4\n        /* \"#utility.yul\":3046:3063   */\n      add\n        /* \"#utility.yul\":3037:3043   */\n      dup5\n        /* \"#utility.yul\":2980:3064   */\n      tag_258\n      jump\t// in\n    tag_327:\n        /* \"#utility.yul\":2823:3071   */\n      swap3\n      swap2\n      pop\n      pop\n      jump\t// out\n        /* \"#utility.yul\":3077:3223   */\n    tag_259:\n        /* \"#utility.yul\":3147:3156   */\n      0x00\n        /* \"#utility.yul\":3180:3217   */\n      tag_329\n        /* \"#utility.yul\":3211:3216   */\n      dup3\n        /* \"#utility.yul\":3180:3217   */\n      tag_248\n      jump\t// in\n    tag_329:\n        /* \"#utility.yul\":3167:3217   */\n      swap1\n      pop\n        /* \"#utility.yul\":3077:3223   */\n      swap2\n      swap1\n      pop\n      jump\t// out\n        /* \"#utility.yul\":3229:3400   */\n    tag_260:\n        /* \"#utility.yul\":3336:3393   */\n      tag_331\n        /* \"#utility.yul\":3387:3392   */\n      dup2\n        /* \"#utility.yul\":3336:3393   */\n      tag_259\n      jump\t// in\n    tag_331:\n        /* \"#utility.yul\":3331:3334   */\n      dup3\n        /* \"#utility.yul\":3324:3394   */\n      mstore\n        /* \"#utility.yul\":3229:3400   */\n      pop\n      pop\n      jump\t// out\n        /* \"#utility.yul\":3406:3668   */\n    tag_52:\n        /* \"#utility.yul\":3519:3523   */\n      0x00\n        /* \"#utility.yul\":3557:3559   */\n      0x20\n        /* \"#utility.yul\":3546:3555   */\n      dup3\n        /* \"#utility.yul\":3542:3560   */\n      add\n        /* \"#utility.yul\":3534:3560   */\n      swap1\n      pop\n        /* \"#utility.yul\":3570:3661   */\n      tag_333\n        /* \"#utility.yul\":3658:3659   */\n      0x00\n        /* \"#utility.yul\":3647:3656   */\n      dup4\n        /* \"#utility.yul\":3643:3660   */\n      add\n        /* \"#utility.yul\":3634:3640   */\n      dup5\n        /* \"#utility.yul\":3570:3661   */\n      tag_260\n      jump\t// in\n    tag_333:\n        /* \"#utility.yul\":3406:3668   */\n      swap3\n      swap2\n      pop\n      pop\n      jump\t// out\n        /* \"#utility.yul\":3674:3770   */\n    tag_261:\n        /* \"#utility.yul\":3711:3718   */\n      0x00\n        /* \"#utility.yul\":3740:3764   */\n      tag_335\n        /* \"#utility.yul\":3758:3763   */\n      dup3\n        /* \"#utility.yul\":3740:3764   */\n      tag_245\n      jump\t// in\n    tag_335:\n        /* \"#utility.yul\":3729:3764   */\n      swap1\n      pop\n        /* \"#utility.yul\":3674:3770   */\n      swap2\n      swap1\n      pop\n      jump\t// out\n        /* \"#utility.yul\":3776:3898   */\n    tag_262:\n        /* \"#utility.yul\":3849:3873   */\n      tag_337\n        /* \"#utility.yul\":3867:3872   */\n      dup2\n        /* \"#utility.yul\":3849:3873   */\n      tag_261\n      jump\t// in\n    tag_337:\n        /* \"#utility.yul\":3842:3847   */\n      dup2\n        /* \"#utility.yul\":3839:3874   */\n      eq\n        /* \"#utility.yul\":3829:3892   */\n      tag_338\n      jumpi\n        /* \"#utility.yul\":3888:3889   */\n      0x00\n        /* \"#utility.yul\":3885:3886   */\n      dup1\n        /* \"#utility.yul\":3878:3890   */\n      revert\n        /* \"#utility.yul\":3829:3892   */\n    tag_338:\n        /* \"#utility.yul\":3776:3898   */\n      pop\n      jump\t// out\n        /* \"#utility.yul\":3904:4043   */\n    tag_263:\n        /* \"#utility.yul\":3950:3955   */\n      0x00\n        /* \"#utility.yul\":3988:3994   */\n      dup2\n        /* \"#utility.yul\":3975:3995   */\n      calldataload\n        /* \"#utility.yul\":3966:3995   */\n      swap1\n      pop\n        /* \"#utility.yul\":4004:4037   */\n      tag_340\n        /* \"#utility.yul\":4031:4036   */\n      dup2\n        /* \"#utility.yul\":4004:4037   */\n      tag_262\n      jump\t// in\n    tag_340:\n        /* \"#utility.yul\":3904:4043   */\n      swap3\n      swap2\n      pop\n      pop\n      jump\t// out\n        /* \"#utility.yul\":4049:4378   */\n    tag_55:\n        /* \"#utility.yul\":4108:4114   */\n      0x00\n        /* \"#utility.yul\":4157:4159   */\n      0x20\n        /* \"#utility.yul\":4145:4154   */\n      dup3\n        /* \"#utility.yul\":4136:4143   */\n      dup5\n        /* \"#utility.yul\":4132:4155   */\n      sub\n        /* \"#utility.yul\":4128:4160   */\n      slt\n        /* \"#utility.yul\":4125:4244   */\n      iszero\n      tag_342\n      jumpi\n        /* \"#utility.yul\":4163:4242   */\n      tag_343\n      tag_252\n      jump\t// in\n    tag_343:\n        /* \"#utility.yul\":4125:4244   */\n    tag_342:\n        /* \"#utility.yul\":4283:4284   */\n      0x00\n        /* \"#utility.yul\":4308:4361   */\n      tag_344\n        /* \"#utility.yul\":4353:4360   */\n      dup5\n        /* \"#utility.yul\":4344:4350   */\n      dup3\n        /* \"#utility.yul\":4333:4342   */\n      dup6\n        /* \"#utility.yul\":4329:4351   */\n      add\n        /* \"#utility.yul\":4308:4361   */\n      tag_263\n      jump\t// in\n    tag_344:\n        /* \"#utility.yul\":4298:4361   */\n      swap2\n      pop\n        /* \"#utility.yul\":4254:4371   */\n      pop\n        /* \"#utility.yul\":4049:4378   */\n      swap3\n      swap2\n      pop\n      pop\n      jump\t// out\n        /* \"#utility.yul\":4384:4470   */\n    tag_264:\n        /* \"#utility.yul\":4419:4426   */\n      0x00\n        /* \"#utility.yul\":4459:4463   */\n      0xff\n        /* \"#utility.yul\":4452:4457   */\n      dup3\n        /* \"#utility.yul\":4448:4464   */\n      and\n        /* \"#utility.yul\":4437:4464   */\n      swap1\n      pop\n        /* \"#utility.yul\":4384:4470   */\n      swap2\n      swap1\n      pop\n      jump\t// out\n        /* \"#utility.yul\":4476:4588   */\n    tag_265:\n        /* \"#utility.yul\":4559:4581   */\n      tag_347\n        /* \"#utility.yul\":4575:4580   */\n      dup2\n        /* \"#utility.yul\":4559:4581   */\n      tag_264\n      jump\t// in\n    tag_347:\n        /* \"#utility.yul\":4554:4557   */\n      dup3\n        /* \"#utility.yul\":4547:4582   */\n      mstore\n        /* \"#utility.yul\":4476:4588   */\n      pop\n      pop\n      jump\t// out\n        /* \"#utility.yul\":4594:4808   */\n    tag_65:\n        /* \"#utility.yul\":4683:4687   */\n      0x00\n        /* \"#utility.yul\":4721:4723   */\n      0x20\n        /* \"#utility.yul\":4710:4719   */\n      dup3\n        /* \"#utility.yul\":4706:4724   */\n      add\n        /* \"#utility.yul\":4698:4724   */\n      swap1\n      pop\n        /* \"#utility.yul\":4734:4801   */\n      tag_349\n        /* \"#utility.yul\":4798:4799   */\n      0x00\n        /* \"#utility.yul\":4787:4796   */\n      dup4\n        /* \"#utility.yul\":4783:4800   */\n      add\n        /* \"#utility.yul\":4774:4780   */\n      dup5\n        /* \"#utility.yul\":4734:4801   */\n      tag_265\n      jump\t// in\n    tag_349:\n        /* \"#utility.yul\":4594:4808   */\n      swap3\n      swap2\n      pop\n      pop\n      jump\t// out\n        /* \"#utility.yul\":4814:4936   */\n    tag_266:\n        /* \"#utility.yul\":4887:4911   */\n      tag_351\n        /* \"#utility.yul\":4905:4910   */\n      dup2\n        /* \"#utility.yul\":4887:4911   */\n      tag_243\n      jump\t// in\n    tag_351:\n        /* \"#utility.yul\":4880:4885   */\n      dup2\n        /* \"#utility.yul\":4877:4912   */\n      eq\n        /* \"#utility.yul\":4867:4930   */\n      tag_352\n      jumpi\n        /* \"#utility.yul\":4926:4927   */\n      0x00\n        /* \"#utility.yul\":4923:4924   */\n      dup1\n        /* \"#utility.yul\":4916:4928   */\n      revert\n        /* \"#utility.yul\":4867:4930   */\n    tag_352:\n        /* \"#utility.yul\":4814:4936   */\n      pop\n      jump\t// out\n        /* \"#utility.yul\":4942:5081   */\n    tag_267:\n        /* \"#utility.yul\":4988:4993   */\n      0x00\n        /* \"#utility.yul\":5026:5032   */\n      dup2\n        /* \"#utility.yul\":5013:5033   */\n      calldataload\n        /* \"#utility.yul\":5004:5033   */\n      swap1\n      pop\n        /* \"#utility.yul\":5042:5075   */\n      tag_354\n        /* \"#utility.yul\":5069:5074   */\n      dup2\n        /* \"#utility.yul\":5042:5075   */\n      tag_266\n      jump\t// in\n    tag_354:\n        /* \"#utility.yul\":4942:5081   */\n      swap3\n      swap2\n      pop\n      pop\n      jump\t// out\n        /* \"#utility.yul\":5087:5416   */\n    tag_68:\n        /* \"#utility.yul\":5146:5152   */\n      0x00\n        /* \"#utility.yul\":5195:5197   */\n      0x20\n        /* \"#utility.yul\":5183:5192   */\n      dup3\n        /* \"#utility.yul\":5174:5181   */\n      dup5\n        /* \"#utility.yul\":5170:5193   */\n      sub\n        /* \"#utility.yul\":5166:5198   */\n      slt\n        /* \"#utility.yul\":5163:5282   */\n      iszero\n      tag_356\n      jumpi\n        /* \"#utility.yul\":5201:5280   */\n      tag_357\n      tag_252\n      jump\t// in\n    tag_357:\n        /* \"#utility.yul\":5163:5282   */\n    tag_356:\n        /* \"#utility.yul\":5321:5322   */\n      0x00\n        /* \"#utility.yul\":5346:5399   */\n      tag_358\n        /* \"#utility.yul\":5391:5398   */\n      dup5\n        /* \"#utility.yul\":5382:5388   */\n      dup3\n        /* \"#utility.yul\":5371:5380   */\n      dup6\n        /* \"#utility.yul\":5367:5389   */\n      add\n        /* \"#utility.yul\":5346:5399   */\n      tag_267\n      jump\t// in\n    tag_358:\n        /* \"#utility.yul\":5336:5399   */\n      swap2\n      pop\n        /* \"#utility.yul\":5292:5409   */\n      pop\n        /* \"#utility.yul\":5087:5416   */\n      swap3\n      swap2\n      pop\n      pop\n      jump\t// out\n        /* \"#utility.yul\":5422:5540   */\n    tag_268:\n        /* \"#utility.yul\":5509:5533   */\n      tag_360\n        /* \"#utility.yul\":5527:5532   */\n      dup2\n        /* \"#utility.yul\":5509:5533   */\n      tag_261\n      jump\t// in\n    tag_360:\n        /* \"#utility.yul\":5504:5507   */\n      dup3\n        /* \"#utility.yul\":5497:5534   */\n      mstore\n        /* \"#utility.yul\":5422:5540   */\n      pop\n      pop\n      jump\t// out\n        /* \"#utility.yul\":5546:5768   */\n    tag_71:\n        /* \"#utility.yul\":5639:5643   */\n      0x00\n        /* \"#utility.yul\":5677:5679   */\n      0x20\n        /* \"#utility.yul\":5666:5675   */\n      dup3\n        /* \"#utility.yul\":5662:5680   */\n      add\n        /* \"#utility.yul\":5654:5680   */\n      swap1\n      pop\n        /* \"#utility.yul\":5690:5761   */\n      tag_362\n        /* \"#utility.yul\":5758:5759   */\n      0x00\n        /* \"#utility.yul\":5747:5756   */\n      dup4\n        /* \"#utility.yul\":5743:5760   */\n      add\n        /* \"#utility.yul\":5734:5740   */\n      dup5\n        /* \"#utility.yul\":5690:5761   */\n      tag_268\n      jump\t// in\n    tag_362:\n        /* \"#utility.yul\":5546:5768   */\n      swap3\n      swap2\n      pop\n      pop\n      jump\t// out\n        /* \"#utility.yul\":5774:5943   */\n    tag_269:\n        /* \"#utility.yul\":5858:5869   */\n      0x00\n        /* \"#utility.yul\":5892:5898   */\n      dup3\n        /* \"#utility.yul\":5887:5890   */\n      dup3\n        /* \"#utility.yul\":5880:5899   */\n      mstore\n        /* \"#utility.yul\":5932:5936   */\n      0x20\n        /* \"#utility.yul\":5927:5930   */\n      dup3\n        /* \"#utility.yul\":5923:5937   */\n      add\n        /* \"#utility.yul\":5908:5937   */\n      swap1\n      pop\n        /* \"#utility.yul\":5774:5943   */\n      swap3\n      swap2\n      pop\n      pop\n      jump\t// out\n        /* \"#utility.yul\":5949:6117   */\n    tag_270:\n        /* \"#utility.yul\":6089:6109   */\n      0x416c7265616479203220706c61796572732e0000000000000000000000000000\n        /* \"#utility.yul\":6085:6086   */\n      0x00\n        /* \"#utility.yul\":6077:6083   */\n      dup3\n        /* \"#utility.yul\":6073:6087   */\n      add\n        /* \"#utility.yul\":6066:6110   */\n      mstore\n        /* \"#utility.yul\":5949:6117   */\n      pop\n      jump\t// out\n        /* \"#utility.yul\":6123:6489   */\n    tag_271:\n        /* \"#utility.yul\":6265:6268   */\n      0x00\n        /* \"#utility.yul\":6286:6353   */\n      tag_366\n        /* \"#utility.yul\":6350:6352   */\n      0x12\n        /* \"#utility.yul\":6345:6348   */\n      dup4\n        /* \"#utility.yul\":6286:6353   */\n      tag_269\n      jump\t// in\n    tag_366:\n        /* \"#utility.yul\":6279:6353   */\n      swap2\n      pop\n        /* \"#utility.yul\":6362:6455   */\n      tag_367\n        /* \"#utility.yul\":6451:6454   */\n      dup3\n        /* \"#utility.yul\":6362:6455   */\n      tag_270\n      jump\t// in\n    tag_367:\n        /* \"#utility.yul\":6480:6482   */\n      0x20\n        /* \"#utility.yul\":6475:6478   */\n      dup3\n        /* \"#utility.yul\":6471:6483   */\n      add\n        /* \"#utility.yul\":6464:6483   */\n      swap1\n      pop\n        /* \"#utility.yul\":6123:6489   */\n      swap2\n      swap1\n      pop\n      jump\t// out\n        /* \"#utility.yul\":6495:6914   */\n    tag_75:\n        /* \"#utility.yul\":6661:6665   */\n      0x00\n        /* \"#utility.yul\":6699:6701   */\n      0x20\n        /* \"#utility.yul\":6688:6697   */\n      dup3\n        /* \"#utility.yul\":6684:6702   */\n      add\n        /* \"#utility.yul\":6676:6702   */\n      swap1\n      pop\n        /* \"#utility.yul\":6748:6757   */\n      dup2\n        /* \"#utility.yul\":6742:6746   */\n      dup2\n        /* \"#utility.yul\":6738:6758   */\n      sub\n        /* \"#utility.yul\":6734:6735   */\n      0x00\n        /* \"#utility.yul\":6723:6732   */\n      dup4\n        /* \"#utility.yul\":6719:6736   */\n      add\n        /* \"#utility.yul\":6712:6759   */\n      mstore\n        /* \"#utility.yul\":6776:6907   */\n      tag_369\n        /* \"#utility.yul\":6902:6906   */\n      dup2\n        /* \"#utility.yul\":6776:6907   */\n      tag_271\n      jump\t// in\n    tag_369:\n        /* \"#utility.yul\":6768:6907   */\n      swap1\n      pop\n        /* \"#utility.yul\":6495:6914   */\n      swap2\n      swap1\n      pop\n      jump\t// out\n        /* \"#utility.yul\":6920:7252   */\n    tag_77:\n        /* \"#utility.yul\":7041:7045   */\n      0x00\n        /* \"#utility.yul\":7079:7081   */\n      0x40\n        /* \"#utility.yul\":7068:7077   */\n      dup3\n        /* \"#utility.yul\":7064:7082   */\n      add\n        /* \"#utility.yul\":7056:7082   */\n      swap1\n      pop\n        /* \"#utility.yul\":7092:7163   */\n      tag_371\n        /* \"#utility.yul\":7160:7161   */\n      0x00\n        /* \"#utility.yul\":7149:7158   */\n      dup4\n        /* \"#utility.yul\":7145:7162   */\n      add\n        /* \"#utility.yul\":7136:7142   */\n      dup6\n        /* \"#utility.yul\":7092:7163   */\n      tag_268\n      jump\t// in\n    tag_371:\n        /* \"#utility.yul\":7173:7245   */\n      tag_372\n        /* \"#utility.yul\":7241:7243   */\n      0x20\n        /* \"#utility.yul\":7230:7239   */\n      dup4\n        /* \"#utility.yul\":7226:7244   */\n      add\n        /* \"#utility.yul\":7217:7223   */\n      dup5\n        /* \"#utility.yul\":7173:7245   */\n      tag_268\n      jump\t// in\n    tag_372:\n        /* \"#utility.yul\":6920:7252   */\n      swap4\n      swap3\n      pop\n      pop\n      pop\n      jump\t// out\n        /* \"#utility.yul\":7258:7401   */\n    tag_272:\n        /* \"#utility.yul\":7315:7320   */\n      0x00\n        /* \"#utility.yul\":7346:7352   */\n      dup2\n        /* \"#utility.yul\":7340:7353   */\n      mload\n        /* \"#utility.yul\":7331:7353   */\n      swap1\n      pop\n        /* \"#utility.yul\":7362:7395   */\n      tag_374\n        /* \"#utility.yul\":7389:7394   */\n      dup2\n        /* \"#utility.yul\":7362:7395   */\n      tag_266\n      jump\t// in\n    tag_374:\n        /* \"#utility.yul\":7258:7401   */\n      swap3\n      swap2\n      pop\n      pop\n      jump\t// out\n        /* \"#utility.yul\":7407:7758   */\n    tag_81:\n        /* \"#utility.yul\":7477:7483   */\n      0x00\n        /* \"#utility.yul\":7526:7528   */\n      0x20\n        /* \"#utility.yul\":7514:7523   */\n      dup3\n        /* \"#utility.yul\":7505:7512   */\n      dup5\n        /* \"#utility.yul\":7501:7524   */\n      sub\n        /* \"#utility.yul\":7497:7529   */\n      slt\n        /* \"#utility.yul\":7494:7613   */\n      iszero\n      tag_376\n      jumpi\n        /* \"#utility.yul\":7532:7611   */\n      tag_377\n      tag_252\n      jump\t// in\n    tag_377:\n        /* \"#utility.yul\":7494:7613   */\n    tag_376:\n        /* \"#utility.yul\":7652:7653   */\n      0x00\n        /* \"#utility.yul\":7677:7741   */\n      tag_378\n        /* \"#utility.yul\":7733:7740   */\n      dup5\n        /* \"#utility.yul\":7724:7730   */\n      dup3\n        /* \"#utility.yul\":7713:7722   */\n      dup6\n        /* \"#utility.yul\":7709:7731   */\n      add\n        /* \"#utility.yul\":7677:7741   */\n      tag_272\n      jump\t// in\n    tag_378:\n        /* \"#utility.yul\":7667:7741   */\n      swap2\n      pop\n        /* \"#utility.yul\":7623:7751   */\n      pop\n        /* \"#utility.yul\":7407:7758   */\n      swap3\n      swap2\n      pop\n      pop\n      jump\t// out\n        /* \"#utility.yul\":7764:7937   */\n    tag_273:\n        /* \"#utility.yul\":7904:7929   */\n      0x574156415820616c6c6f77616e636520746f6f206c6f77000000000000000000\n        /* \"#utility.yul\":7900:7901   */\n      0x00\n        /* \"#utility.yul\":7892:7898   */\n      dup3\n        /* \"#utility.yul\":7888:7902   */\n      add\n        /* \"#utility.yul\":7881:7930   */\n      mstore\n        /* \"#utility.yul\":7764:7937   */\n      pop\n      jump\t// out\n        /* \"#utility.yul\":7943:8309   */\n    tag_274:\n        /* \"#utility.yul\":8085:8088   */\n      0x00\n        /* \"#utility.yul\":8106:8173   */\n      tag_381\n        /* \"#utility.yul\":8170:8172   */\n      0x17\n        /* \"#utility.yul\":8165:8168   */\n      dup4\n        /* \"#utility.yul\":8106:8173   */\n      tag_269\n      jump\t// in\n    tag_381:\n        /* \"#utility.yul\":8099:8173   */\n      swap2\n      pop\n        /* \"#utility.yul\":8182:8275   */\n      tag_382\n        /* \"#utility.yul\":8271:8274   */\n      dup3\n        /* \"#utility.yul\":8182:8275   */\n      tag_273\n      jump\t// in\n    tag_382:\n        /* \"#utility.yul\":8300:8302   */\n      0x20\n        /* \"#utility.yul\":8295:8298   */\n      dup3\n        /* \"#utility.yul\":8291:8303   */\n      add\n        /* \"#utility.yul\":8284:8303   */\n      swap1\n      pop\n        /* \"#utility.yul\":7943:8309   */\n      swap2\n      swap1\n      pop\n      jump\t// out\n        /* \"#utility.yul\":8315:8734   */\n    tag_84:\n        /* \"#utility.yul\":8481:8485   */\n      0x00\n        /* \"#utility.yul\":8519:8521   */\n      0x20\n        /* \"#utility.yul\":8508:8517   */\n      dup3\n        /* \"#utility.yul\":8504:8522   */\n      add\n        /* \"#utility.yul\":8496:8522   */\n      swap1\n      pop\n        /* \"#utility.yul\":8568:8577   */\n      dup2\n        /* \"#utility.yul\":8562:8566   */\n      dup2\n        /* \"#utility.yul\":8558:8578   */\n      sub\n        /* \"#utility.yul\":8554:8555   */\n      0x00\n        /* \"#utility.yul\":8543:8552   */\n      dup4\n        /* \"#utility.yul\":8539:8556   */\n      add\n        /* \"#utility.yul\":8532:8579   */\n      mstore\n        /* \"#utility.yul\":8596:8727   */\n      tag_384\n        /* \"#utility.yul\":8722:8726   */\n      dup2\n        /* \"#utility.yul\":8596:8727   */\n      tag_274\n      jump\t// in\n    tag_384:\n        /* \"#utility.yul\":8588:8727   */\n      swap1\n      pop\n        /* \"#utility.yul\":8315:8734   */\n      swap2\n      swap1\n      pop\n      jump\t// out\n        /* \"#utility.yul\":8740:9182   */\n    tag_86:\n        /* \"#utility.yul\":8889:8893   */\n      0x00\n        /* \"#utility.yul\":8927:8929   */\n      0x60\n        /* \"#utility.yul\":8916:8925   */\n      dup3\n        /* \"#utility.yul\":8912:8930   */\n      add\n        /* \"#utility.yul\":8904:8930   */\n      swap1\n      pop\n        /* \"#utility.yul\":8940:9011   */\n      tag_386\n        /* \"#utility.yul\":9008:9009   */\n      0x00\n        /* \"#utility.yul\":8997:9006   */\n      dup4\n        /* \"#utility.yul\":8993:9010   */\n      add\n        /* \"#utility.yul\":8984:8990   */\n      dup7\n        /* \"#utility.yul\":8940:9011   */\n      tag_268\n      jump\t// in\n    tag_386:\n        /* \"#utility.yul\":9021:9093   */\n      tag_387\n        /* \"#utility.yul\":9089:9091   */\n      0x20\n        /* \"#utility.yul\":9078:9087   */\n      dup4\n        /* \"#utility.yul\":9074:9092   */\n      add\n        /* \"#utility.yul\":9065:9071   */\n      dup6\n        /* \"#utility.yul\":9021:9093   */\n      tag_268\n      jump\t// in\n    tag_387:\n        /* \"#utility.yul\":9103:9175   */\n      tag_388\n        /* \"#utility.yul\":9171:9173   */\n      0x40\n        /* \"#utility.yul\":9160:9169   */\n      dup4\n        /* \"#utility.yul\":9156:9174   */\n      add\n        /* \"#utility.yul\":9147:9153   */\n      dup5\n        /* \"#utility.yul\":9103:9175   */\n      tag_244\n      jump\t// in\n    tag_388:\n        /* \"#utility.yul\":8740:9182   */\n      swap5\n      swap4\n      pop\n      pop\n      pop\n      pop\n      jump\t// out\n        /* \"#utility.yul\":9188:9278   */\n    tag_275:\n        /* \"#utility.yul\":9222:9229   */\n      0x00\n        /* \"#utility.yul\":9265:9270   */\n      dup2\n        /* \"#utility.yul\":9258:9271   */\n      iszero\n        /* \"#utility.yul\":9251:9272   */\n      iszero\n        /* \"#utility.yul\":9240:9272   */\n      swap1\n      pop\n        /* \"#utility.yul\":9188:9278   */\n      swap2\n      swap1\n      pop\n      jump\t// out\n        /* \"#utility.yul\":9284:9400   */\n    tag_276:\n        /* \"#utility.yul\":9354:9375   */\n      tag_391\n        /* \"#utility.yul\":9369:9374   */\n      dup2\n        /* \"#utility.yul\":9354:9375   */\n      tag_275\n      jump\t// in\n    tag_391:\n        /* \"#utility.yul\":9347:9352   */\n      dup2\n        /* \"#utility.yul\":9344:9376   */\n      eq\n        /* \"#utility.yul\":9334:9394   */\n      tag_392\n      jumpi\n        /* \"#utility.yul\":9390:9391   */\n      0x00\n        /* \"#utility.yul\":9387:9388   */\n      dup1\n        /* \"#utility.yul\":9380:9392   */\n      revert\n        /* \"#utility.yul\":9334:9394   */\n    tag_392:\n        /* \"#utility.yul\":9284:9400   */\n      pop\n      jump\t// out\n        /* \"#utility.yul\":9406:9543   */\n    tag_277:\n        /* \"#utility.yul\":9460:9465   */\n      0x00\n        /* \"#utility.yul\":9491:9497   */\n      dup2\n        /* \"#utility.yul\":9485:9498   */\n      mload\n        /* \"#utility.yul\":9476:9498   */\n      swap1\n      pop\n        /* \"#utility.yul\":9507:9537   */\n      tag_394\n        /* \"#utility.yul\":9531:9536   */\n      dup2\n        /* \"#utility.yul\":9507:9537   */\n      tag_276\n      jump\t// in\n    tag_394:\n        /* \"#utility.yul\":9406:9543   */\n      swap3\n      swap2\n      pop\n      pop\n      jump\t// out\n        /* \"#utility.yul\":9549:9894   */\n    tag_90:\n        /* \"#utility.yul\":9616:9622   */\n      0x00\n        /* \"#utility.yul\":9665:9667   */\n      0x20\n        /* \"#utility.yul\":9653:9662   */\n      dup3\n        /* \"#utility.yul\":9644:9651   */\n      dup5\n        /* \"#utility.yul\":9640:9663   */\n      sub\n        /* \"#utility.yul\":9636:9668   */\n      slt\n        /* \"#utility.yul\":9633:9752   */\n      iszero\n      tag_396\n      jumpi\n        /* \"#utility.yul\":9671:9750   */\n      tag_397\n      tag_252\n      jump\t// in\n    tag_397:\n        /* \"#utility.yul\":9633:9752   */\n    tag_396:\n        /* \"#utility.yul\":9791:9792   */\n      0x00\n        /* \"#utility.yul\":9816:9877   */\n      tag_398\n        /* \"#utility.yul\":9869:9876   */\n      dup5\n        /* \"#utility.yul\":9860:9866   */\n      dup3\n        /* \"#utility.yul\":9849:9858   */\n      dup6\n        /* \"#utility.yul\":9845:9867   */\n      add\n        /* \"#utility.yul\":9816:9877   */\n      tag_277\n      jump\t// in\n    tag_398:\n        /* \"#utility.yul\":9806:9877   */\n      swap2\n      pop\n        /* \"#utility.yul\":9762:9887   */\n      pop\n        /* \"#utility.yul\":9549:9894   */\n      swap3\n      swap2\n      pop\n      pop\n      jump\t// out\n        /* \"#utility.yul\":9900:10080   */\n    tag_278:\n        /* \"#utility.yul\":9948:10025   */\n      0x4e487b7100000000000000000000000000000000000000000000000000000000\n        /* \"#utility.yul\":9945:9946   */\n      0x00\n        /* \"#utility.yul\":9938:10026   */\n      mstore\n        /* \"#utility.yul\":10045:10049   */\n      0x11\n        /* \"#utility.yul\":10042:10043   */\n      0x04\n        /* \"#utility.yul\":10035:10050   */\n      mstore\n        /* \"#utility.yul\":10069:10073   */\n      0x24\n        /* \"#utility.yul\":10066:10067   */\n      0x00\n        /* \"#utility.yul\":10059:10074   */\n      revert\n        /* \"#utility.yul\":10086:10277   */\n    tag_92:\n        /* \"#utility.yul\":10126:10129   */\n      0x00\n        /* \"#utility.yul\":10145:10165   */\n      tag_401\n        /* \"#utility.yul\":10163:10164   */\n      dup3\n        /* \"#utility.yul\":10145:10165   */\n      tag_243\n      jump\t// in\n    tag_401:\n        /* \"#utility.yul\":10140:10165   */\n      swap2\n      pop\n        /* \"#utility.yul\":10179:10199   */\n      tag_402\n        /* \"#utility.yul\":10197:10198   */\n      dup4\n        /* \"#utility.yul\":10179:10199   */\n      tag_243\n      jump\t// in\n    tag_402:\n        /* \"#utility.yul\":10174:10199   */\n      swap3\n      pop\n        /* \"#utility.yul\":10222:10223   */\n      dup3\n        /* \"#utility.yul\":10219:10220   */\n      dup3\n        /* \"#utility.yul\":10215:10224   */\n      add\n        /* \"#utility.yul\":10208:10224   */\n      swap1\n      pop\n        /* \"#utility.yul\":10243:10246   */\n      dup1\n        /* \"#utility.yul\":10240:10241   */\n      dup3\n        /* \"#utility.yul\":10237:10247   */\n      gt\n        /* \"#utility.yul\":10234:10270   */\n      iszero\n      tag_403\n      jumpi\n        /* \"#utility.yul\":10250:10268   */\n      tag_404\n      tag_278\n      jump\t// in\n    tag_404:\n        /* \"#utility.yul\":10234:10270   */\n    tag_403:\n        /* \"#utility.yul\":10086:10277   */\n      swap3\n      swap2\n      pop\n      pop\n      jump\t// out\n        /* \"#utility.yul\":10283:10516   */\n    tag_95:\n        /* \"#utility.yul\":10322:10325   */\n      0x00\n        /* \"#utility.yul\":10345:10369   */\n      tag_406\n        /* \"#utility.yul\":10363:10368   */\n      dup3\n        /* \"#utility.yul\":10345:10369   */\n      tag_243\n      jump\t// in\n    tag_406:\n        /* \"#utility.yul\":10336:10369   */\n      swap2\n      pop\n        /* \"#utility.yul\":10391:10457   */\n      0xffffffffffffffffffffffffffffffffffffffffffffffffffffffffffffffff\n        /* \"#utility.yul\":10384:10389   */\n      dup3\n        /* \"#utility.yul\":10381:10458   */\n      sub\n        /* \"#utility.yul\":10378:10481   */\n      tag_407\n      jumpi\n        /* \"#utility.yul\":10461:10479   */\n      tag_408\n      tag_278\n      jump\t// in\n    tag_408:\n        /* \"#utility.yul\":10378:10481   */\n    tag_407:\n        /* \"#utility.yul\":10508:10509   */\n      0x01\n        /* \"#utility.yul\":10501:10506   */\n      dup3\n        /* \"#utility.yul\":10497:10510   */\n      add\n        /* \"#utility.yul\":10490:10510   */\n      swap1\n      pop\n        /* \"#utility.yul\":10283:10516   */\n      swap2\n      swap1\n      pop\n      jump\t// out\n        /* \"#utility.yul\":10522:10697   */\n    tag_279:\n        /* \"#utility.yul\":10662:10689   */\n      0x526566756e6420706572696f64206e6f7420656c617073656400000000000000\n        /* \"#utility.yul\":10658:10659   */\n      0x00\n        /* \"#utility.yul\":10650:10656   */\n      dup3\n        /* \"#utility.yul\":10646:10660   */\n      add\n        /* \"#utility.yul\":10639:10690   */\n      mstore\n        /* \"#utility.yul\":10522:10697   */\n      pop\n      jump\t// out\n        /* \"#utility.yul\":10703:11069   */\n    tag_280:\n        /* \"#utility.yul\":10845:10848   */\n      0x00\n        /* \"#utility.yul\":10866:10933   */\n      tag_411\n        /* \"#utility.yul\":10930:10932   */\n      0x19\n        /* \"#utility.yul\":10925:10928   */\n      dup4\n        /* \"#utility.yul\":10866:10933   */\n      tag_269\n      jump\t// in\n    tag_411:\n        /* \"#utility.yul\":10859:10933   */\n      swap2\n      pop\n        /* \"#utility.yul\":10942:11035   */\n      tag_412\n        /* \"#utility.yul\":11031:11034   */\n      dup3\n        /* \"#utility.yul\":10942:11035   */\n      tag_279\n      jump\t// in\n    tag_412:\n        /* \"#utility.yul\":11060:11062   */\n      0x20\n        /* \"#utility.yul\":11055:11058   */\n      dup3\n        /* \"#utility.yul\":11051:11063   */\n      add\n        /* \"#utility.yul\":11044:11063   */\n      swap1\n      pop\n        /* \"#utility.yul\":10703:11069   */\n      swap2\n      swap1\n      pop\n      jump\t// out\n        /* \"#utility.yul\":11075:11494   */\n    tag_105:\n        /* \"#utility.yul\":11241:11245   */\n      0x00\n        /* \"#utility.yul\":11279:11281   */\n      0x20\n        /* \"#utility.yul\":11268:11277   */\n      dup3\n        /* \"#utility.yul\":11264:11282   */\n      add\n        /* \"#utility.yul\":11256:11282   */\n      swap1\n      pop\n        /* \"#utility.yul\":11328:11337   */\n      dup2\n        /* \"#utility.yul\":11322:11326   */\n      dup2\n        /* \"#utility.yul\":11318:11338   */\n      sub\n        /* \"#utility.yul\":11314:11315   */\n      0x00\n        /* \"#utility.yul\":11303:11312   */\n      dup4\n        /* \"#utility.yul\":11299:11316   */\n      add\n        /* \"#utility.yul\":11292:11339   */\n      mstore\n        /* \"#utility.yul\":11356:11487   */\n      tag_414\n        /* \"#utility.yul\":11482:11486   */\n      dup2\n        /* \"#utility.yul\":11356:11487   */\n      tag_280\n      jump\t// in\n    tag_414:\n        /* \"#utility.yul\":11348:11487   */\n      swap1\n      pop\n        /* \"#utility.yul\":11075:11494   */\n      swap2\n      swap1\n      pop\n      jump\t// out\n        /* \"#utility.yul\":11500:11664   */\n    tag_281:\n        /* \"#utility.yul\":11640:11656   */\n      0x4e6f206163746976652067616d65000000000000000000000000000000000000\n        /* \"#utility.yul\":11636:11637   */\n      0x00\n        /* \"#utility.yul\":11628:11634   */\n      dup3\n        /* \"#utility.yul\":11624:11638   */\n      add\n        /* \"#utility.yul\":11617:11657   */\n      mstore\n        /* \"#utility.yul\":11500:11664   */\n      pop\n      jump\t// out\n        /* \"#utility.yul\":11670:12036   */\n    tag_282:\n        /* \"#utility.yul\":11812:11815   */\n      0x00\n        /* \"#utility.yul\":11833:11900   */\n      tag_417\n        /* \"#utility.yul\":11897:11899   */\n      0x0e\n        /* \"#utility.yul\":11892:11895   */\n      dup4\n        /* \"#utility.yul\":11833:11900   */\n      tag_269\n      jump\t// in\n    tag_417:\n        /* \"#utility.yul\":11826:11900   */\n      swap2\n      pop\n        /* \"#utility.yul\":11909:12002   */\n      tag_418\n        /* \"#utility.yul\":11998:12001   */\n      dup3\n        /* \"#utility.yul\":11909:12002   */\n      tag_281\n      jump\t// in\n    tag_418:\n        /* \"#utility.yul\":12027:12029   */\n      0x20\n        /* \"#utility.yul\":12022:12025   */\n      dup3\n        /* \"#utility.yul\":12018:12030   */\n      add\n        /* \"#utility.yul\":12011:12030   */\n      swap1\n      pop\n        /* \"#utility.yul\":11670:12036   */\n      swap2\n      swap1\n      pop\n      jump\t// out\n        /* \"#utility.yul\":12042:12461   */\n    tag_108:\n        /* \"#utility.yul\":12208:12212   */\n      0x00\n        /* \"#utility.yul\":12246:12248   */\n      0x20\n        /* \"#utility.yul\":12235:12244   */\n      dup3\n        /* \"#utility.yul\":12231:12249   */\n      add\n        /* \"#utility.yul\":12223:12249   */\n      swap1\n      pop\n        /* \"#utility.yul\":12295:12304   */\n      dup2\n        /* \"#utility.yul\":12289:12293   */\n      dup2\n        /* \"#utility.yul\":12285:12305   */\n      sub\n        /* \"#utility.yul\":12281:12282   */\n      0x00\n        /* \"#utility.yul\":12270:12279   */\n      dup4\n        /* \"#utility.yul\":12266:12283   */\n      add\n        /* \"#utility.yul\":12259:12306   */\n      mstore\n        /* \"#utility.yul\":12323:12454   */\n      tag_420\n        /* \"#utility.yul\":12449:12453   */\n      dup2\n        /* \"#utility.yul\":12323:12454   */\n      tag_282\n      jump\t// in\n    tag_420:\n        /* \"#utility.yul\":12315:12454   */\n      swap1\n      pop\n        /* \"#utility.yul\":12042:12461   */\n      swap2\n      swap1\n      pop\n      jump\t// out\n        /* \"#utility.yul\":12467:12647   */\n    tag_112:\n        /* \"#utility.yul\":12515:12592   */\n      0x4e487b7100000000000000000000000000000000000000000000000000000000\n        /* \"#utility.yul\":12512:12513   */\n      0x00\n        /* \"#utility.yul\":12505:12593   */\n      mstore\n        /* \"#utility.yul\":12612:12616   */\n      0x32\n        /* \"#utility.yul\":12609:12610   */\n      0x04\n        /* \"#utility.yul\":12602:12617   */\n      mstore\n        /* \"#utility.yul\":12636:12640   */\n      0x24\n        /* \"#utility.yul\":12633:12634   */\n      0x00\n        /* \"#utility.yul\":12626:12641   */\n      revert\n        /* \"#utility.yul\":12653:12985   */\n    tag_115:\n        /* \"#utility.yul\":12774:12778   */\n      0x00\n        /* \"#utility.yul\":12812:12814   */\n      0x40\n        /* \"#utility.yul\":12801:12810   */\n      dup3\n        /* \"#utility.yul\":12797:12815   */\n      add\n        /* \"#utility.yul\":12789:12815   */\n      swap1\n      pop\n        /* \"#utility.yul\":12825:12896   */\n      tag_423\n        /* \"#utility.yul\":12893:12894   */\n      0x00\n        /* \"#utility.yul\":12882:12891   */\n      dup4\n        /* \"#utility.yul\":12878:12895   */\n      add\n        /* \"#utility.yul\":12869:12875   */\n      dup6\n        /* \"#utility.yul\":12825:12896   */\n      tag_268\n      jump\t// in\n    tag_423:\n        /* \"#utility.yul\":12906:12978   */\n      tag_424\n        /* \"#utility.yul\":12974:12976   */\n      0x20\n        /* \"#utility.yul\":12963:12972   */\n      dup4\n        /* \"#utility.yul\":12959:12977   */\n      add\n        /* \"#utility.yul\":12950:12956   */\n      dup5\n        /* \"#utility.yul\":12906:12978   */\n      tag_244\n      jump\t// in\n    tag_424:\n        /* \"#utility.yul\":12653:12985   */\n      swap4\n      swap3\n      pop\n      pop\n      pop\n      jump\t// out\n        /* \"#utility.yul\":12991:13171   */\n    tag_283:\n        /* \"#utility.yul\":13039:13116   */\n      0x4e487b7100000000000000000000000000000000000000000000000000000000\n        /* \"#utility.yul\":13036:13037   */\n      0x00\n        /* \"#utility.yul\":13029:13117   */\n      mstore\n        /* \"#utility.yul\":13136:13140   */\n      0x12\n        /* \"#utility.yul\":13133:13134   */\n      0x04\n        /* \"#utility.yul\":13126:13141   */\n      mstore\n        /* \"#utility.yul\":13160:13164   */\n      0x24\n        /* \"#utility.yul\":13157:13158   */\n      0x00\n        /* \"#utility.yul\":13150:13165   */\n      revert\n        /* \"#utility.yul\":13177:13362   */\n    tag_124:\n        /* \"#utility.yul\":13217:13218   */\n      0x00\n        /* \"#utility.yul\":13234:13254   */\n      tag_427\n        /* \"#utility.yul\":13252:13253   */\n      dup3\n        /* \"#utility.yul\":13234:13254   */\n      tag_243\n      jump\t// in\n    tag_427:\n        /* \"#utility.yul\":13229:13254   */\n      swap2\n      pop\n        /* \"#utility.yul\":13268:13288   */\n      tag_428\n        /* \"#utility.yul\":13286:13287   */\n      dup4\n        /* \"#utility.yul\":13268:13288   */\n      tag_243\n      jump\t// in\n    tag_428:\n        /* \"#utility.yul\":13263:13288   */\n      swap3\n      pop\n        /* \"#utility.yul\":13307:13308   */\n      dup3\n        /* \"#utility.yul\":13297:13332   */\n      tag_429\n      jumpi\n        /* \"#utility.yul\":13312:13330   */\n      tag_430\n      tag_283\n      jump\t// in\n    tag_430:\n        /* \"#utility.yul\":13297:13332   */\n    tag_429:\n        /* \"#utility.yul\":13354:13355   */\n      dup3\n        /* \"#utility.yul\":13351:13352   */\n      dup3\n        /* \"#utility.yul\":13347:13356   */\n      div\n        /* \"#utility.yul\":13342:13356   */\n      swap1\n      pop\n        /* \"#utility.yul\":13177:13362   */\n      swap3\n      swap2\n      pop\n      pop\n      jump\t// out\n        /* \"#utility.yul\":13368:13597   */\n    tag_284:\n        /* \"#utility.yul\":13508:13542   */\n      0x426f746820706c6179657273206d75737420636f6d6d6974206265666f726520\n        /* \"#utility.yul\":13504:13505   */\n      0x00\n        /* \"#utility.yul\":13496:13502   */\n      dup3\n        /* \"#utility.yul\":13492:13506   */\n      add\n        /* \"#utility.yul\":13485:13543   */\n      mstore\n        /* \"#utility.yul\":13577:13589   */\n      0x72657665616c696e672e00000000000000000000000000000000000000000000\n        /* \"#utility.yul\":13572:13574   */\n      0x20\n        /* \"#utility.yul\":13564:13570   */\n      dup3\n        /* \"#utility.yul\":13560:13575   */\n      add\n        /* \"#utility.yul\":13553:13590   */\n      mstore\n        /* \"#utility.yul\":13368:13597   */\n      pop\n      jump\t// out\n        /* \"#utility.yul\":13603:13969   */\n    tag_285:\n        /* \"#utility.yul\":13745:13748   */\n      0x00\n        /* \"#utility.yul\":13766:13833   */\n      tag_433\n        /* \"#utility.yul\":13830:13832   */\n      0x2a\n        /* \"#utility.yul\":13825:13828   */\n      dup4\n        /* \"#utility.yul\":13766:13833   */\n      tag_269\n      jump\t// in\n    tag_433:\n        /* \"#utility.yul\":13759:13833   */\n      swap2\n      pop\n        /* \"#utility.yul\":13842:13935   */\n      tag_434\n        /* \"#utility.yul\":13931:13934   */\n      dup3\n        /* \"#utility.yul\":13842:13935   */\n      tag_284\n      jump\t// in\n    tag_434:\n        /* \"#utility.yul\":13960:13962   */\n      0x40\n        /* \"#utility.yul\":13955:13958   */\n      dup3\n        /* \"#utility.yul\":13951:13963   */\n      add\n        /* \"#utility.yul\":13944:13963   */\n      swap1\n      pop\n        /* \"#utility.yul\":13603:13969   */\n      swap2\n      swap1\n      pop\n      jump\t// out\n        /* \"#utility.yul\":13975:14394   */\n    tag_142:\n        /* \"#utility.yul\":14141:14145   */\n      0x00\n        /* \"#utility.yul\":14179:14181   */\n      0x20\n        /* \"#utility.yul\":14168:14177   */\n      dup3\n        /* \"#utility.yul\":14164:14182   */\n      add\n        /* \"#utility.yul\":14156:14182   */\n      swap1\n      pop\n        /* \"#utility.yul\":14228:14237   */\n      dup2\n        /* \"#utility.yul\":14222:14226   */\n      dup2\n        /* \"#utility.yul\":14218:14238   */\n      sub\n        /* \"#utility.yul\":14214:14215   */\n      0x00\n        /* \"#utility.yul\":14203:14212   */\n      dup4\n        /* \"#utility.yul\":14199:14216   */\n      add\n        /* \"#utility.yul\":14192:14239   */\n      mstore\n        /* \"#utility.yul\":14256:14387   */\n      tag_436\n        /* \"#utility.yul\":14382:14386   */\n      dup2\n        /* \"#utility.yul\":14256:14387   */\n      tag_285\n      jump\t// in\n    tag_436:\n        /* \"#utility.yul\":14248:14387   */\n      swap1\n      pop\n        /* \"#utility.yul\":13975:14394   */\n      swap2\n      swap1\n      pop\n      jump\t// out\n        /* \"#utility.yul\":14400:14518   */\n    tag_286:\n        /* \"#utility.yul\":14487:14511   */\n      tag_438\n        /* \"#utility.yul\":14505:14510   */\n      dup2\n        /* \"#utility.yul\":14487:14511   */\n      tag_254\n      jump\t// in\n    tag_438:\n        /* \"#utility.yul\":14482:14485   */\n      dup3\n        /* \"#utility.yul\":14475:14512   */\n      mstore\n        /* \"#utility.yul\":14400:14518   */\n      pop\n      pop\n      jump\t// out\n        /* \"#utility.yul\":14524:14856   */\n    tag_144:\n        /* \"#utility.yul\":14645:14649   */\n      0x00\n        /* \"#utility.yul\":14683:14685   */\n      0x40\n        /* \"#utility.yul\":14672:14681   */\n      dup3\n        /* \"#utility.yul\":14668:14686   */\n      add\n        /* \"#utility.yul\":14660:14686   */\n      swap1\n      pop\n        /* \"#utility.yul\":14696:14767   */\n      tag_440\n        /* \"#utility.yul\":14764:14765   */\n      0x00\n        /* \"#utility.yul\":14753:14762   */\n      dup4\n        /* \"#utility.yul\":14749:14766   */\n      add\n        /* \"#utility.yul\":14740:14746   */\n      dup6\n        /* \"#utility.yul\":14696:14767   */\n      tag_286\n      jump\t// in\n    tag_440:\n        /* \"#utility.yul\":14777:14849   */\n      tag_441\n        /* \"#utility.yul\":14845:14847   */\n      0x20\n        /* \"#utility.yul\":14834:14843   */\n      dup4\n        /* \"#utility.yul\":14830:14848   */\n      add\n        /* \"#utility.yul\":14821:14827   */\n      dup5\n        /* \"#utility.yul\":14777:14849   */\n      tag_268\n      jump\t// in\n    tag_441:\n        /* \"#utility.yul\":14524:14856   */\n      swap4\n      swap3\n      pop\n      pop\n      pop\n      jump\t// out\n        /* \"#utility.yul\":14862:15030   */\n    tag_287:\n        /* \"#utility.yul\":15002:15022   */\n      0x47616d65206973206e6f742072656164792e0000000000000000000000000000\n        /* \"#utility.yul\":14998:14999   */\n      0x00\n        /* \"#utility.yul\":14990:14996   */\n      dup3\n        /* \"#utility.yul\":14986:15000   */\n      add\n        /* \"#utility.yul\":14979:15023   */\n      mstore\n        /* \"#utility.yul\":14862:15030   */\n      pop\n      jump\t// out\n        /* \"#utility.yul\":15036:15402   */\n    tag_288:\n        /* \"#utility.yul\":15178:15181   */\n      0x00\n        /* \"#utility.yul\":15199:15266   */\n      tag_444\n        /* \"#utility.yul\":15263:15265   */\n      0x12\n        /* \"#utility.yul\":15258:15261   */\n      dup4\n        /* \"#utility.yul\":15199:15266   */\n      tag_269\n      jump\t// in\n    tag_444:\n        /* \"#utility.yul\":15192:15266   */\n      swap2\n      pop\n        /* \"#utility.yul\":15275:15368   */\n      tag_445\n        /* \"#utility.yul\":15364:15367   */\n      dup3\n        /* \"#utility.yul\":15275:15368   */\n      tag_287\n      jump\t// in\n    tag_445:\n        /* \"#utility.yul\":15393:15395   */\n      0x20\n        /* \"#utility.yul\":15388:15391   */\n      dup3\n        /* \"#utility.yul\":15384:15396   */\n      add\n        /* \"#utility.yul\":15377:15396   */\n      swap1\n      pop\n        /* \"#utility.yul\":15036:15402   */\n      swap2\n      swap1\n      pop\n      jump\t// out\n        /* \"#utility.yul\":15408:15827   */\n    tag_159:\n        /* \"#utility.yul\":15574:15578   */\n      0x00\n        /* \"#utility.yul\":15612:15614   */\n      0x20\n        /* \"#utility.yul\":15601:15610   */\n      dup3\n        /* \"#utility.yul\":15597:15615   */\n      add\n        /* \"#utility.yul\":15589:15615   */\n      swap1\n      pop\n        /* \"#utility.yul\":15661:15670   */\n      dup2\n        /* \"#utility.yul\":15655:15659   */\n      dup2\n        /* \"#utility.yul\":15651:15671   */\n      sub\n        /* \"#utility.yul\":15647:15648   */\n      0x00\n        /* \"#utility.yul\":15636:15645   */\n      dup4\n        /* \"#utility.yul\":15632:15649   */\n      add\n        /* \"#utility.yul\":15625:15672   */\n      mstore\n        /* \"#utility.yul\":15689:15820   */\n      tag_447\n        /* \"#utility.yul\":15815:15819   */\n      dup2\n        /* \"#utility.yul\":15689:15820   */\n      tag_288\n      jump\t// in\n    tag_447:\n        /* \"#utility.yul\":15681:15820   */\n      swap1\n      pop\n        /* \"#utility.yul\":15408:15827   */\n      swap2\n      swap1\n      pop\n      jump\t// out\n        /* \"#utility.yul\":15833:16024   */\n    tag_170:\n        /* \"#utility.yul\":15871:15875   */\n      0x00\n        /* \"#utility.yul\":15891:15909   */\n      tag_449\n        /* \"#utility.yul\":15907:15908   */\n      dup3\n        /* \"#utility.yul\":15891:15909   */\n      tag_264\n      jump\t// in\n    tag_449:\n        /* \"#utility.yul\":15886:15909   */\n      swap2\n      pop\n        /* \"#utility.yul\":15923:15941   */\n      tag_450\n        /* \"#utility.yul\":15939:15940   */\n      dup4\n        /* \"#utility.yul\":15923:15941   */\n      tag_264\n      jump\t// in\n    tag_450:\n        /* \"#utility.yul\":15918:15941   */\n      swap3\n      pop\n        /* \"#utility.yul\":15965:15966   */\n      dup3\n        /* \"#utility.yul\":15962:15963   */\n      dup3\n        /* \"#utility.yul\":15958:15967   */\n      sub\n        /* \"#utility.yul\":15950:15967   */\n      swap1\n      pop\n        /* \"#utility.yul\":15989:15993   */\n      0xff\n        /* \"#utility.yul\":15983:15987   */\n      dup2\n        /* \"#utility.yul\":15980:15994   */\n      gt\n        /* \"#utility.yul\":15977:16017   */\n      iszero\n      tag_451\n      jumpi\n        /* \"#utility.yul\":15997:16015   */\n      tag_452\n      tag_278\n      jump\t// in\n    tag_452:\n        /* \"#utility.yul\":15977:16017   */\n    tag_451:\n        /* \"#utility.yul\":15833:16024   */\n      swap3\n      swap2\n      pop\n      pop\n      jump\t// out\n        /* \"#utility.yul\":16030:16200   */\n    tag_174:\n        /* \"#utility.yul\":16060:16061   */\n      0x00\n        /* \"#utility.yul\":16077:16095   */\n      tag_454\n        /* \"#utility.yul\":16093:16094   */\n      dup3\n        /* \"#utility.yul\":16077:16095   */\n      tag_264\n      jump\t// in\n    tag_454:\n        /* \"#utility.yul\":16072:16095   */\n      swap2\n      pop\n        /* \"#utility.yul\":16109:16127   */\n      tag_455\n        /* \"#utility.yul\":16125:16126   */\n      dup4\n        /* \"#utility.yul\":16109:16127   */\n      tag_264\n      jump\t// in\n    tag_455:\n        /* \"#utility.yul\":16104:16127   */\n      swap3\n      pop\n        /* \"#utility.yul\":16146:16147   */\n      dup3\n        /* \"#utility.yul\":16136:16171   */\n      tag_456\n      jumpi\n        /* \"#utility.yul\":16151:16169   */\n      tag_457\n      tag_283\n      jump\t// in\n    tag_457:\n        /* \"#utility.yul\":16136:16171   */\n    tag_456:\n        /* \"#utility.yul\":16192:16193   */\n      dup3\n        /* \"#utility.yul\":16189:16190   */\n      dup3\n        /* \"#utility.yul\":16185:16194   */\n      mod\n        /* \"#utility.yul\":16180:16194   */\n      swap1\n      pop\n        /* \"#utility.yul\":16030:16200   */\n      swap3\n      swap2\n      pop\n      pop\n      jump\t// out\n\n    auxdata: 0xa2646970667358221220daf15c0432e2aee418e03d8380c0c1778c80ad29b2d7a1b03663d2b8145783c064736f6c634300081a0033\n}\n\nsub_1: assembly {\n        /* \"CommitReveal.sol\":74:2247  contract CommitReveal {... */\n      mstore(0x40, 0x80)\n        /* \"CommitReveal.sol\":122:125  100 */\n      0x64\n        /* \"CommitReveal.sol\":103:125  uint8 public max = 100 */\n      0x00\n      dup1\n      0x0100\n      exp\n      dup2\n      sload\n      dup2\n      0xff\n      mul\n      not\n      and\n      swap1\n      dup4\n      0xff\n      and\n      mul\n      or\n      swap1\n      sstore\n      pop\n        /* \"CommitReveal.sol\":74:2247  contract CommitReveal {... */\n      callvalue\n      dup1\n      iszero\n      tag_1\n      jumpi\n      0x00\n      dup1\n      revert\n    tag_1:\n      pop\n      dataSize(sub_0)\n      dup1\n      dataOffset(sub_0)\n      0x00\n      codecopy\n      0x00\n      return\n    stop\n\n    sub_0: assembly {\n            /* \"CommitReveal.sol\":74:2247  contract CommitReveal {... */\n          mstore(0x40, 0x80)\n          callvalue\n          dup1\n          iszero\n          tag_1\n          jumpi\n          0x00\n          dup1\n          revert\n        tag_1:\n          pop\n          jumpi(tag_2, lt(calldatasize, 0x04))\n          shr(0xe0, calldataload(0x00))\n          dup1\n          0x3cf5040a\n          eq\n          tag_3\n          jumpi\n          dup1\n          0x5a746101\n          eq\n          tag_4\n          jumpi\n          dup1\n          0x6ac5db19\n          eq\n          tag_5\n          jumpi\n          dup1\n          0x7b43a8e6\n          eq\n          tag_6\n          jumpi\n          dup1\n          0x8696b887\n          eq\n          tag_7\n          jumpi\n          dup1\n          0xad487790\n          eq\n          tag_8\n          jumpi\n        tag_2:\n          0x00\n          dup1\n          revert\n            /* \"CommitReveal.sol\":1986:2098  function getHash(bytes32 data) public pure returns(bytes32){... */\n        tag_3:\n          tag_9\n          0x04\n          dup1\n          calldatasize\n          sub\n          dup2\n          add\n          swap1\n          tag_10\n          swap2\n          swap1\n          tag_11\n          jump\t// in\n        tag_10:\n          tag_12\n          jump\t// in\n        tag_9:\n          mload(0x40)\n          tag_13\n          swap2\n          swap1\n          tag_14\n          jump\t// in\n        tag_13:\n          mload(0x40)\n          dup1\n          swap2\n          sub\n          swap1\n          return\n            /* \"CommitReveal.sol\":287:683  function commit(bytes32 dataHash, address sender) public {... */\n        tag_4:\n          tag_15\n          0x04\n          dup1\n          calldatasize\n          sub\n          dup2\n          add\n          swap1\n          tag_16\n          swap2\n          swap1\n          tag_17\n          jump\t// in\n        tag_16:\n          tag_18\n          jump\t// in\n        tag_15:\n          stop\n            /* \"CommitReveal.sol\":103:125  uint8 public max = 100 */\n        tag_5:\n          tag_19\n          tag_20\n          jump\t// in\n        tag_19:\n          mload(0x40)\n          tag_21\n          swap2\n          swap1\n          tag_22\n          jump\t// in\n        tag_21:\n          mload(0x40)\n          dup1\n          swap2\n          sub\n          swap1\n          return\n            /* \"CommitReveal.sol\":238:280  mapping (address => Commit) public commits */\n        tag_6:\n          tag_23\n          0x04\n          dup1\n          calldatasize\n          sub\n          dup2\n          add\n          swap1\n          tag_24\n          swap2\n          swap1\n          tag_25\n          jump\t// in\n        tag_24:\n          tag_26\n          jump\t// in\n        tag_23:\n          mload(0x40)\n          tag_27\n          swap5\n          swap4\n          swap3\n          swap2\n          swap1\n          tag_28\n          jump\t// in\n        tag_27:\n          mload(0x40)\n          dup1\n          swap2\n          sub\n          swap1\n          return\n            /* \"CommitReveal.sol\":2104:2244  function getCommit(address sender) public view returns (bytes32, bool) {... */\n        tag_7:\n          tag_29\n          0x04\n          dup1\n          calldatasize\n          sub\n          dup2\n          add\n          swap1\n          tag_30\n          swap2\n          swap1\n          tag_25\n          jump\t// in\n        tag_30:\n          tag_31\n          jump\t// in\n        tag_29:\n          mload(0x40)\n          tag_32\n          swap3\n          swap2\n          swap1\n          tag_33\n          jump\t// in\n        tag_32:\n          mload(0x40)\n          dup1\n          swap2\n          sub\n          swap1\n          return\n            /* \"CommitReveal.sol\":758:1910  function reveal(bytes32 revealHash, address sender) public {... */\n        tag_8:\n          tag_34\n          0x04\n          dup1\n          calldatasize\n          sub\n          dup2\n          add\n          swap1\n          tag_35\n          swap2\n          swap1\n          tag_17\n          jump\t// in\n        tag_35:\n          tag_36\n          jump\t// in\n        tag_34:\n          stop\n            /* \"CommitReveal.sol\":1986:2098  function getHash(bytes32 data) public pure returns(bytes32){... */\n        tag_12:\n            /* \"CommitReveal.sol\":2037:2044  bytes32 */\n          0x00\n            /* \"CommitReveal.sol\":2086:2090  data */\n          dup2\n            /* \"CommitReveal.sol\":2069:2091  abi.encodePacked(data) */\n          add(0x20, mload(0x40))\n          tag_38\n          swap2\n          swap1\n          tag_39\n          jump\t// in\n        tag_38:\n          mload(0x40)\n          0x20\n          dup2\n          dup4\n          sub\n          sub\n          dup2\n          mstore\n          swap1\n          0x40\n          mstore\n            /* \"CommitReveal.sol\":2059:2092  keccak256(abi.encodePacked(data)) */\n          dup1\n          mload\n          swap1\n          0x20\n          add\n          keccak256\n            /* \"CommitReveal.sol\":2052:2092  return keccak256(abi.encodePacked(data)) */\n          swap1\n          pop\n            /* \"CommitReveal.sol\":1986:2098  function getHash(bytes32 data) public pure returns(bytes32){... */\n          swap2\n          swap1\n          pop\n          jump\t// out\n            /* \"CommitReveal.sol\":287:683  function commit(bytes32 dataHash, address sender) public {... */\n        tag_18:\n            /* \"CommitReveal.sol\":385:390  false */\n          0x00\n            /* \"CommitReveal.sol\":359:390  commits[sender].commited==false */\n          iszero\n          iszero\n            /* \"CommitReveal.sol\":359:366  commits */\n          0x01\n            /* \"CommitReveal.sol\":359:374  commits[sender] */\n          0x00\n            /* \"CommitReveal.sol\":367:373  sender */\n          dup4\n            /* \"CommitReveal.sol\":359:374  commits[sender] */\n          0xffffffffffffffffffffffffffffffffffffffff\n          and\n          0xffffffffffffffffffffffffffffffffffffffff\n          and\n          dup2\n          mstore\n          0x20\n          add\n          swap1\n          dup2\n          mstore\n          0x20\n          add\n          0x00\n          keccak256\n            /* \"CommitReveal.sol\":359:383  commits[sender].commited */\n          0x01\n          add\n          0x09\n          swap1\n          sload\n          swap1\n          0x0100\n          exp\n          swap1\n          div\n          0xff\n          and\n            /* \"CommitReveal.sol\":359:390  commits[sender].commited==false */\n          iszero\n          iszero\n          eq\n            /* \"CommitReveal.sol\":351:432  require(commits[sender].commited==false,\"CommitReveal::commit: Already commited\") */\n          tag_41\n          jumpi\n          mload(0x40)\n          0x08c379a000000000000000000000000000000000000000000000000000000000\n          dup2\n          mstore\n          0x04\n          add\n          tag_42\n          swap1\n          tag_43\n          jump\t// in\n        tag_42:\n          mload(0x40)\n          dup1\n          swap2\n          sub\n          swap1\n          revert\n        tag_41:\n            /* \"CommitReveal.sol\":466:474  dataHash */\n          dup2\n            /* \"CommitReveal.sol\":441:448  commits */\n          0x01\n            /* \"CommitReveal.sol\":441:456  commits[sender] */\n          0x00\n            /* \"CommitReveal.sol\":449:455  sender */\n          dup4\n            /* \"CommitReveal.sol\":441:456  commits[sender] */\n          0xffffffffffffffffffffffffffffffffffffffff\n          and\n          0xffffffffffffffffffffffffffffffffffffffff\n          and\n          dup2\n          mstore\n          0x20\n          add\n          swap1\n          dup2\n          mstore\n          0x20\n          add\n          0x00\n          keccak256\n            /* \"CommitReveal.sol\":441:463  commits[sender].commit */\n          0x00\n          add\n            /* \"CommitReveal.sol\":441:474  commits[sender].commit = dataHash */\n          dup2\n          swap1\n          sstore\n          pop\n            /* \"CommitReveal.sol\":508:512  true */\n          0x01\n            /* \"CommitReveal.sol\":481:488  commits */\n          dup1\n            /* \"CommitReveal.sol\":481:496  commits[sender] */\n          0x00\n            /* \"CommitReveal.sol\":489:495  sender */\n          dup4\n            /* \"CommitReveal.sol\":481:496  commits[sender] */\n          0xffffffffffffffffffffffffffffffffffffffff\n          and\n          0xffffffffffffffffffffffffffffffffffffffff\n          and\n          dup2\n          mstore\n          0x20\n          add\n          swap1\n          dup2\n          mstore\n          0x20\n          add\n          0x00\n          keccak256\n            /* \"CommitReveal.sol\":481:505  commits[sender].commited */\n          0x01\n          add\n          0x09\n            /* \"CommitReveal.sol\":481:512  commits[sender].commited = true */\n          0x0100\n          exp\n          dup2\n          sload\n          dup2\n          0xff\n          mul\n          not\n          and\n          swap1\n          dup4\n          iszero\n          iszero\n          mul\n          or\n          swap1\n          sstore\n          pop\n            /* \"CommitReveal.sol\":550:562  block.number */\n          number\n            /* \"CommitReveal.sol\":519:526  commits */\n          0x01\n            /* \"CommitReveal.sol\":519:534  commits[sender] */\n          0x00\n            /* \"CommitReveal.sol\":527:533  sender */\n          dup4\n            /* \"CommitReveal.sol\":519:534  commits[sender] */\n          0xffffffffffffffffffffffffffffffffffffffff\n          and\n          0xffffffffffffffffffffffffffffffffffffffff\n          and\n          dup2\n          mstore\n          0x20\n          add\n          swap1\n          dup2\n          mstore\n          0x20\n          add\n          0x00\n          keccak256\n            /* \"CommitReveal.sol\":519:540  commits[sender].block */\n          0x01\n          add\n          0x00\n            /* \"CommitReveal.sol\":519:563  commits[sender].block = uint64(block.number) */\n          0x0100\n          exp\n          dup2\n          sload\n          dup2\n          0xffffffffffffffff\n          mul\n          not\n          and\n          swap1\n          dup4\n          0xffffffffffffffff\n          and\n          mul\n          or\n          swap1\n          sstore\n          pop\n            /* \"CommitReveal.sol\":597:602  false */\n          0x00\n            /* \"CommitReveal.sol\":570:577  commits */\n          0x01\n            /* \"CommitReveal.sol\":570:585  commits[sender] */\n          0x00\n            /* \"CommitReveal.sol\":578:584  sender */\n          dup4\n            /* \"CommitReveal.sol\":570:585  commits[sender] */\n          0xffffffffffffffffffffffffffffffffffffffff\n          and\n          0xffffffffffffffffffffffffffffffffffffffff\n          and\n          dup2\n          mstore\n          0x20\n          add\n          swap1\n          dup2\n          mstore\n          0x20\n          add\n          0x00\n          keccak256\n            /* \"CommitReveal.sol\":570:594  commits[sender].revealed */\n          0x01\n          add\n          0x08\n            /* \"CommitReveal.sol\":570:602  commits[sender].revealed = false */\n          0x0100\n          exp\n          dup2\n          sload\n          dup2\n          0xff\n          mul\n          not\n          and\n          swap1\n          dup4\n          iszero\n          iszero\n          mul\n          or\n          swap1\n          sstore\n          pop\n            /* \"CommitReveal.sol\":614:677  CommitHash(sender,commits[sender].commit,commits[sender].block) */\n          0x3c1a1f8f38335b17f751c6da4ba7d1865f26b3997535176f5080de9fad891603\n            /* \"CommitReveal.sol\":625:631  sender */\n          dup2\n            /* \"CommitReveal.sol\":632:639  commits */\n          0x01\n            /* \"CommitReveal.sol\":632:647  commits[sender] */\n          0x00\n            /* \"CommitReveal.sol\":640:646  sender */\n          dup5\n            /* \"CommitReveal.sol\":632:647  commits[sender] */\n          0xffffffffffffffffffffffffffffffffffffffff\n          and\n          0xffffffffffffffffffffffffffffffffffffffff\n          and\n          dup2\n          mstore\n          0x20\n          add\n          swap1\n          dup2\n          mstore\n          0x20\n          add\n          0x00\n          keccak256\n            /* \"CommitReveal.sol\":632:654  commits[sender].commit */\n          0x00\n          add\n          sload\n            /* \"CommitReveal.sol\":655:662  commits */\n          0x01\n            /* \"CommitReveal.sol\":655:670  commits[sender] */\n          0x00\n            /* \"CommitReveal.sol\":663:669  sender */\n          dup6\n            /* \"CommitReveal.sol\":655:670  commits[sender] */\n          0xffffffffffffffffffffffffffffffffffffffff\n          and\n          0xffffffffffffffffffffffffffffffffffffffff\n          and\n          dup2\n          mstore\n          0x20\n          add\n          swap1\n          dup2\n          mstore\n          0x20\n          add\n          0x00\n          keccak256\n            /* \"CommitReveal.sol\":655:676  commits[sender].block */\n          0x01\n          add\n          0x00\n          swap1\n          sload\n          swap1\n          0x0100\n          exp\n          swap1\n          div\n          0xffffffffffffffff\n          and\n            /* \"CommitReveal.sol\":614:677  CommitHash(sender,commits[sender].commit,commits[sender].block) */\n          mload(0x40)\n          tag_44\n          swap4\n          swap3\n          swap2\n          swap1\n          tag_45\n          jump\t// in\n        tag_44:\n          mload(0x40)\n          dup1\n          swap2\n          sub\n          swap1\n          log1\n            /* \"CommitReveal.sol\":287:683  function commit(bytes32 dataHash, address sender) public {... */\n          pop\n          pop\n          jump\t// out\n            /* \"CommitReveal.sol\":103:125  uint8 public max = 100 */\n        tag_20:\n          0x00\n          dup1\n          sload\n          swap1\n          0x0100\n          exp\n          swap1\n          div\n          0xff\n          and\n          dup2\n          jump\t// out\n            /* \"CommitReveal.sol\":238:280  mapping (address => Commit) public commits */\n        tag_26:\n          mstore(0x20, 0x01)\n          dup1\n          0x00\n          mstore\n          keccak256(0x00, 0x40)\n          0x00\n          swap2\n          pop\n          swap1\n          pop\n          dup1\n          0x00\n          add\n          sload\n          swap1\n          dup1\n          0x01\n          add\n          0x00\n          swap1\n          sload\n          swap1\n          0x0100\n          exp\n          swap1\n          div\n          0xffffffffffffffff\n          and\n          swap1\n          dup1\n          0x01\n          add\n          0x08\n          swap1\n          sload\n          swap1\n          0x0100\n          exp\n          swap1\n          div\n          0xff\n          and\n          swap1\n          dup1\n          0x01\n          add\n          0x09\n          swap1\n          sload\n          swap1\n          0x0100\n          exp\n          swap1\n          div\n          0xff\n          and\n          swap1\n          pop\n          dup5\n          jump\t// out\n            /* \"CommitReveal.sol\":2104:2244  function getCommit(address sender) public view returns (bytes32, bool) {... */\n        tag_31:\n            /* \"CommitReveal.sol\":2160:2167  bytes32 */\n          0x00\n            /* \"CommitReveal.sol\":2169:2173  bool */\n          dup1\n            /* \"CommitReveal.sol\":2190:2197  commits */\n          0x01\n            /* \"CommitReveal.sol\":2190:2205  commits[sender] */\n          0x00\n            /* \"CommitReveal.sol\":2198:2204  sender */\n          dup5\n            /* \"CommitReveal.sol\":2190:2205  commits[sender] */\n          0xffffffffffffffffffffffffffffffffffffffff\n          and\n          0xffffffffffffffffffffffffffffffffffffffff\n          and\n          dup2\n          mstore\n          0x20\n          add\n          swap1\n          dup2\n          mstore\n          0x20\n          add\n          0x00\n          keccak256\n            /* \"CommitReveal.sol\":2190:2212  commits[sender].commit */\n          0x00\n          add\n          sload\n            /* \"CommitReveal.sol\":2213:2220  commits */\n          0x01\n            /* \"CommitReveal.sol\":2213:2228  commits[sender] */\n          0x00\n            /* \"CommitReveal.sol\":2221:2227  sender */\n          dup6\n            /* \"CommitReveal.sol\":2213:2228  commits[sender] */\n          0xffffffffffffffffffffffffffffffffffffffff\n          and\n          0xffffffffffffffffffffffffffffffffffffffff\n          and\n          dup2\n          mstore\n          0x20\n          add\n          swap1\n          dup2\n          mstore\n          0x20\n          add\n          0x00\n          keccak256\n            /* \"CommitReveal.sol\":2213:2237  commits[sender].revealed */\n          0x01\n          add\n          0x08\n          swap1\n          sload\n          swap1\n          0x0100\n          exp\n          swap1\n          div\n          0xff\n          and\n            /* \"CommitReveal.sol\":2182:2238  return (commits[sender].commit,commits[sender].revealed) */\n          swap2\n          pop\n          swap2\n          pop\n            /* \"CommitReveal.sol\":2104:2244  function getCommit(address sender) public view returns (bytes32, bool) {... */\n          swap2\n          pop\n          swap2\n          jump\t// out\n            /* \"CommitReveal.sol\":758:1910  function reveal(bytes32 revealHash, address sender) public {... */\n        tag_36:\n            /* \"CommitReveal.sol\":926:931  false */\n          0x00\n            /* \"CommitReveal.sol\":900:931  commits[sender].revealed==false */\n          iszero\n          iszero\n            /* \"CommitReveal.sol\":900:907  commits */\n          0x01\n            /* \"CommitReveal.sol\":900:915  commits[sender] */\n          0x00\n            /* \"CommitReveal.sol\":908:914  sender */\n          dup4\n            /* \"CommitReveal.sol\":900:915  commits[sender] */\n          0xffffffffffffffffffffffffffffffffffffffff\n          and\n          0xffffffffffffffffffffffffffffffffffffffff\n          and\n          dup2\n          mstore\n          0x20\n          add\n          swap1\n          dup2\n          mstore\n          0x20\n          add\n          0x00\n          keccak256\n            /* \"CommitReveal.sol\":900:924  commits[sender].revealed */\n          0x01\n          add\n          0x08\n          swap1\n          sload\n          swap1\n          0x0100\n          exp\n          swap1\n          div\n          0xff\n          and\n            /* \"CommitReveal.sol\":900:931  commits[sender].revealed==false */\n          iszero\n          iszero\n          eq\n            /* \"CommitReveal.sol\":892:973  require(commits[sender].revealed==false,\"CommitReveal::reveal: Already revealed\") */\n          tag_48\n          jumpi\n          mload(0x40)\n          0x08c379a000000000000000000000000000000000000000000000000000000000\n          dup2\n          mstore\n          0x04\n          add\n          tag_49\n          swap1\n          tag_50\n          jump\t// in\n        tag_49:\n          mload(0x40)\n          dup1\n          swap2\n          sub\n          swap1\n          revert\n        tag_48:\n            /* \"CommitReveal.sol\":1005:1009  true */\n          0x01\n            /* \"CommitReveal.sol\":980:987  commits */\n          dup1\n            /* \"CommitReveal.sol\":980:995  commits[sender] */\n          0x00\n            /* \"CommitReveal.sol\":988:994  sender */\n          dup4\n            /* \"CommitReveal.sol\":980:995  commits[sender] */\n          0xffffffffffffffffffffffffffffffffffffffff\n          and\n          0xffffffffffffffffffffffffffffffffffffffff\n          and\n          dup2\n          mstore\n          0x20\n          add\n          swap1\n          dup2\n          mstore\n          0x20\n          add\n          0x00\n          keccak256\n            /* \"CommitReveal.sol\":980:1004  commits[sender].revealed */\n          0x01\n          add\n          0x08\n            /* \"CommitReveal.sol\":980:1009  commits[sender].revealed=true */\n          0x0100\n          exp\n          dup2\n          sload\n          dup2\n          0xff\n          mul\n          not\n          and\n          swap1\n          dup4\n          iszero\n          iszero\n          mul\n          or\n          swap1\n          sstore\n          pop\n            /* \"CommitReveal.sol\":1101:1108  commits */\n          0x01\n            /* \"CommitReveal.sol\":1101:1116  commits[sender] */\n          0x00\n            /* \"CommitReveal.sol\":1109:1115  sender */\n          dup3\n            /* \"CommitReveal.sol\":1101:1116  commits[sender] */\n          0xffffffffffffffffffffffffffffffffffffffff\n          and\n          0xffffffffffffffffffffffffffffffffffffffff\n          and\n          dup2\n          mstore\n          0x20\n          add\n          swap1\n          dup2\n          mstore\n          0x20\n          add\n          0x00\n          keccak256\n            /* \"CommitReveal.sol\":1101:1123  commits[sender].commit */\n          0x00\n          add\n          sload\n            /* \"CommitReveal.sol\":1080:1099  getHash(revealHash) */\n          tag_51\n            /* \"CommitReveal.sol\":1088:1098  revealHash */\n          dup4\n            /* \"CommitReveal.sol\":1080:1087  getHash */\n          tag_12\n            /* \"CommitReveal.sol\":1080:1099  getHash(revealHash) */\n          jump\t// in\n        tag_51:\n            /* \"CommitReveal.sol\":1080:1123  getHash(revealHash)==commits[sender].commit */\n          eq\n            /* \"CommitReveal.sol\":1072:1184  require(getHash(revealHash)==commits[sender].commit,\"CommitReveal::reveal: Revealed hash does not match commit\") */\n          tag_52\n          jumpi\n          mload(0x40)\n          0x08c379a000000000000000000000000000000000000000000000000000000000\n          dup2\n          mstore\n          0x04\n          add\n          tag_53\n          swap1\n          tag_54\n          jump\t// in\n        tag_53:\n          mload(0x40)\n          dup1\n          swap2\n          sub\n          swap1\n          revert\n        tag_52:\n            /* \"CommitReveal.sol\":1292:1299  commits */\n          0x01\n            /* \"CommitReveal.sol\":1292:1307  commits[sender] */\n          0x00\n            /* \"CommitReveal.sol\":1300:1306  sender */\n          dup3\n            /* \"CommitReveal.sol\":1292:1307  commits[sender] */\n          0xffffffffffffffffffffffffffffffffffffffff\n          and\n          0xffffffffffffffffffffffffffffffffffffffff\n          and\n          dup2\n          mstore\n          0x20\n          add\n          swap1\n          dup2\n          mstore\n          0x20\n          add\n          0x00\n          keccak256\n            /* \"CommitReveal.sol\":1292:1313  commits[sender].block */\n          0x01\n          add\n          0x00\n          swap1\n          sload\n          swap1\n          0x0100\n          exp\n          swap1\n          div\n          0xffffffffffffffff\n          and\n            /* \"CommitReveal.sol\":1271:1313  uint64(block.number)>commits[sender].block */\n          0xffffffffffffffff\n          and\n            /* \"CommitReveal.sol\":1278:1290  block.number */\n          number\n            /* \"CommitReveal.sol\":1271:1313  uint64(block.number)>commits[sender].block */\n          0xffffffffffffffff\n          and\n          gt\n            /* \"CommitReveal.sol\":1263:1383  require(uint64(block.number)>commits[sender].block,\"CommitReveal::reveal: Reveal and commit happened on the same block\") */\n          tag_55\n          jumpi\n          mload(0x40)\n          0x08c379a000000000000000000000000000000000000000000000000000000000\n          dup2\n          mstore\n          0x04\n          add\n          tag_56\n          swap1\n          tag_57\n          jump\t// in\n        tag_56:\n          mload(0x40)\n          dup1\n          swap2\n          sub\n          swap1\n          revert\n        tag_55:\n            /* \"CommitReveal.sol\":1498:1501  250 */\n          0xfa\n            /* \"CommitReveal.sol\":1476:1483  commits */\n          0x01\n            /* \"CommitReveal.sol\":1476:1491  commits[sender] */\n          0x00\n            /* \"CommitReveal.sol\":1484:1490  sender */\n          dup4\n            /* \"CommitReveal.sol\":1476:1491  commits[sender] */\n          0xffffffffffffffffffffffffffffffffffffffff\n          and\n          0xffffffffffffffffffffffffffffffffffffffff\n          and\n          dup2\n          mstore\n          0x20\n          add\n          swap1\n          dup2\n          mstore\n          0x20\n          add\n          0x00\n          keccak256\n            /* \"CommitReveal.sol\":1476:1497  commits[sender].block */\n          0x01\n          add\n          0x00\n          swap1\n          sload\n          swap1\n          0x0100\n          exp\n          swap1\n          div\n          0xffffffffffffffff\n          and\n            /* \"CommitReveal.sol\":1476:1501  commits[sender].block+250 */\n          tag_58\n          swap2\n          swap1\n          tag_59\n          jump\t// in\n        tag_58:\n            /* \"CommitReveal.sol\":1454:1501  uint64(block.number)<=commits[sender].block+250 */\n          0xffffffffffffffff\n          and\n            /* \"CommitReveal.sol\":1461:1473  block.number */\n          number\n            /* \"CommitReveal.sol\":1454:1501  uint64(block.number)<=commits[sender].block+250 */\n          0xffffffffffffffff\n          and\n          gt\n          iszero\n            /* \"CommitReveal.sol\":1446:1544  require(uint64(block.number)<=commits[sender].block+250,\"CommitReveal::reveal: Revealed too late\") */\n          tag_60\n          jumpi\n          mload(0x40)\n          0x08c379a000000000000000000000000000000000000000000000000000000000\n          dup2\n          mstore\n          0x04\n          add\n          tag_61\n          swap1\n          tag_62\n          jump\t// in\n        tag_61:\n          mload(0x40)\n          dup1\n          swap2\n          sub\n          swap1\n          revert\n        tag_60:\n            /* \"CommitReveal.sol\":1619:1636  bytes32 blockHash */\n          0x00\n            /* \"CommitReveal.sol\":1649:1656  commits */\n          0x01\n            /* \"CommitReveal.sol\":1649:1664  commits[sender] */\n          0x00\n            /* \"CommitReveal.sol\":1657:1663  sender */\n          dup4\n            /* \"CommitReveal.sol\":1649:1664  commits[sender] */\n          0xffffffffffffffffffffffffffffffffffffffff\n          and\n          0xffffffffffffffffffffffffffffffffffffffff\n          and\n          dup2\n          mstore\n          0x20\n          add\n          swap1\n          dup2\n          mstore\n          0x20\n          add\n          0x00\n          keccak256\n            /* \"CommitReveal.sol\":1649:1670  commits[sender].block */\n          0x01\n          add\n          0x00\n          swap1\n          sload\n          swap1\n          0x0100\n          exp\n          swap1\n          div\n          0xffffffffffffffff\n          and\n            /* \"CommitReveal.sol\":1639:1671  blockhash(commits[sender].block) */\n          0xffffffffffffffff\n          and\n          blockhash\n            /* \"CommitReveal.sol\":1619:1671  bytes32 blockHash = blockhash(commits[sender].block) */\n          swap1\n          pop\n            /* \"CommitReveal.sol\":1783:1794  uint random */\n          0x00\n            /* \"CommitReveal.sol\":1853:1856  max */\n          dup1\n          0x00\n          swap1\n          sload\n          swap1\n          0x0100\n          exp\n          swap1\n          div\n          0xff\n          and\n            /* \"CommitReveal.sol\":1797:1856  uint(keccak256(abi.encodePacked(blockHash,revealHash)))%max */\n          0xff\n          and\n            /* \"CommitReveal.sol\":1829:1838  blockHash */\n          dup3\n            /* \"CommitReveal.sol\":1839:1849  revealHash */\n          dup6\n            /* \"CommitReveal.sol\":1812:1850  abi.encodePacked(blockHash,revealHash) */\n          add(0x20, mload(0x40))\n          tag_63\n          swap3\n          swap2\n          swap1\n          tag_64\n          jump\t// in\n        tag_63:\n          mload(0x40)\n          0x20\n          dup2\n          dup4\n          sub\n          sub\n          dup2\n          mstore\n          swap1\n          0x40\n          mstore\n            /* \"CommitReveal.sol\":1802:1851  keccak256(abi.encodePacked(blockHash,revealHash)) */\n          dup1\n          mload\n          swap1\n          0x20\n          add\n          keccak256\n            /* \"CommitReveal.sol\":1797:1852  uint(keccak256(abi.encodePacked(blockHash,revealHash))) */\n          0x00\n          shr\n            /* \"CommitReveal.sol\":1797:1856  uint(keccak256(abi.encodePacked(blockHash,revealHash)))%max */\n          tag_65\n          swap2\n          swap1\n          tag_66\n          jump\t// in\n        tag_65:\n            /* \"CommitReveal.sol\":1783:1856  uint random = uint(keccak256(abi.encodePacked(blockHash,revealHash)))%max */\n          swap1\n          pop\n            /* \"CommitReveal.sol\":1868:1904  RevealHash(sender,revealHash,random) */\n          0xbc016dd1cadeaefcb851af7a0a93532e0023d536894b730801f7bcfe7065bcc2\n            /* \"CommitReveal.sol\":1879:1885  sender */\n          dup4\n            /* \"CommitReveal.sol\":1886:1896  revealHash */\n          dup6\n            /* \"CommitReveal.sol\":1897:1903  random */\n          dup4\n            /* \"CommitReveal.sol\":1868:1904  RevealHash(sender,revealHash,random) */\n          mload(0x40)\n          tag_67\n          swap4\n          swap3\n          swap2\n          swap1\n          tag_68\n          jump\t// in\n        tag_67:\n          mload(0x40)\n          dup1\n          swap2\n          sub\n          swap1\n          log1\n            /* \"CommitReveal.sol\":817:1910  {... */\n          pop\n          pop\n            /* \"CommitReveal.sol\":758:1910  function reveal(bytes32 revealHash, address sender) public {... */\n          pop\n          pop\n          jump\t// out\n            /* \"#utility.yul\":88:205   */\n        tag_70:\n            /* \"#utility.yul\":197:198   */\n          0x00\n            /* \"#utility.yul\":194:195   */\n          dup1\n            /* \"#utility.yul\":187:199   */\n          revert\n            /* \"#utility.yul\":334:411   */\n        tag_72:\n            /* \"#utility.yul\":371:378   */\n          0x00\n            /* \"#utility.yul\":400:405   */\n          dup2\n            /* \"#utility.yul\":389:405   */\n          swap1\n          pop\n            /* \"#utility.yul\":334:411   */\n          swap2\n          swap1\n          pop\n          jump\t// out\n            /* \"#utility.yul\":417:539   */\n        tag_73:\n            /* \"#utility.yul\":490:514   */\n          tag_110\n            /* \"#utility.yul\":508:513   */\n          dup2\n            /* \"#utility.yul\":490:514   */\n          tag_72\n          jump\t// in\n        tag_110:\n            /* \"#utility.yul\":483:488   */\n          dup2\n            /* \"#utility.yul\":480:515   */\n          eq\n            /* \"#utility.yul\":470:533   */\n          tag_111\n          jumpi\n            /* \"#utility.yul\":529:530   */\n          0x00\n            /* \"#utility.yul\":526:527   */\n          dup1\n            /* \"#utility.yul\":519:531   */\n          revert\n            /* \"#utility.yul\":470:533   */\n        tag_111:\n            /* \"#utility.yul\":417:539   */\n          pop\n          jump\t// out\n            /* \"#utility.yul\":545:684   */\n        tag_74:\n            /* \"#utility.yul\":591:596   */\n          0x00\n            /* \"#utility.yul\":629:635   */\n          dup2\n            /* \"#utility.yul\":616:636   */\n          calldataload\n            /* \"#utility.yul\":607:636   */\n          swap1\n          pop\n            /* \"#utility.yul\":645:678   */\n          tag_113\n            /* \"#utility.yul\":672:677   */\n          dup2\n            /* \"#utility.yul\":645:678   */\n          tag_73\n          jump\t// in\n        tag_113:\n            /* \"#utility.yul\":545:684   */\n          swap3\n          swap2\n          pop\n          pop\n          jump\t// out\n            /* \"#utility.yul\":690:1019   */\n        tag_11:\n            /* \"#utility.yul\":749:755   */\n          0x00\n            /* \"#utility.yul\":798:800   */\n          0x20\n            /* \"#utility.yul\":786:795   */\n          dup3\n            /* \"#utility.yul\":777:784   */\n          dup5\n            /* \"#utility.yul\":773:796   */\n          sub\n            /* \"#utility.yul\":769:801   */\n          slt\n            /* \"#utility.yul\":766:885   */\n          iszero\n          tag_115\n          jumpi\n            /* \"#utility.yul\":804:883   */\n          tag_116\n          tag_70\n          jump\t// in\n        tag_116:\n            /* \"#utility.yul\":766:885   */\n        tag_115:\n            /* \"#utility.yul\":924:925   */\n          0x00\n            /* \"#utility.yul\":949:1002   */\n          tag_117\n            /* \"#utility.yul\":994:1001   */\n          dup5\n            /* \"#utility.yul\":985:991   */\n          dup3\n            /* \"#utility.yul\":974:983   */\n          dup6\n            /* \"#utility.yul\":970:992   */\n          add\n            /* \"#utility.yul\":949:1002   */\n          tag_74\n          jump\t// in\n        tag_117:\n            /* \"#utility.yul\":939:1002   */\n          swap2\n          pop\n            /* \"#utility.yul\":895:1012   */\n          pop\n            /* \"#utility.yul\":690:1019   */\n          swap3\n          swap2\n          pop\n          pop\n          jump\t// out\n            /* \"#utility.yul\":1025:1143   */\n        tag_75:\n            /* \"#utility.yul\":1112:1136   */\n          tag_119\n            /* \"#utility.yul\":1130:1135   */\n          dup2\n            /* \"#utility.yul\":1112:1136   */\n          tag_72\n          jump\t// in\n        tag_119:\n            /* \"#utility.yul\":1107:1110   */\n          dup3\n            /* \"#utility.yul\":1100:1137   */\n          mstore\n            /* \"#utility.yul\":1025:1143   */\n          pop\n          pop\n          jump\t// out\n            /* \"#utility.yul\":1149:1371   */\n        tag_14:\n            /* \"#utility.yul\":1242:1246   */\n          0x00\n            /* \"#utility.yul\":1280:1282   */\n          0x20\n            /* \"#utility.yul\":1269:1278   */\n          dup3\n            /* \"#utility.yul\":1265:1283   */\n          add\n            /* \"#utility.yul\":1257:1283   */\n          swap1\n          pop\n            /* \"#utility.yul\":1293:1364   */\n          tag_121\n            /* \"#utility.yul\":1361:1362   */\n          0x00\n            /* \"#utility.yul\":1350:1359   */\n          dup4\n            /* \"#utility.yul\":1346:1363   */\n          add\n            /* \"#utility.yul\":1337:1343   */\n          dup5\n            /* \"#utility.yul\":1293:1364   */\n          tag_75\n          jump\t// in\n        tag_121:\n            /* \"#utility.yul\":1149:1371   */\n          swap3\n          swap2\n          pop\n          pop\n          jump\t// out\n            /* \"#utility.yul\":1377:1503   */\n        tag_76:\n            /* \"#utility.yul\":1414:1421   */\n          0x00\n            /* \"#utility.yul\":1454:1496   */\n          0xffffffffffffffffffffffffffffffffffffffff\n            /* \"#utility.yul\":1447:1452   */\n          dup3\n            /* \"#utility.yul\":1443:1497   */\n          and\n            /* \"#utility.yul\":1432:1497   */\n          swap1\n          pop\n            /* \"#utility.yul\":1377:1503   */\n          swap2\n          swap1\n          pop\n          jump\t// out\n            /* \"#utility.yul\":1509:1605   */\n        tag_77:\n            /* \"#utility.yul\":1546:1553   */\n          0x00\n            /* \"#utility.yul\":1575:1599   */\n          tag_124\n            /* \"#utility.yul\":1593:1598   */\n          dup3\n            /* \"#utility.yul\":1575:1599   */\n          tag_76\n          jump\t// in\n        tag_124:\n            /* \"#utility.yul\":1564:1599   */\n          swap1\n          pop\n            /* \"#utility.yul\":1509:1605   */\n          swap2\n          swap1\n          pop\n          jump\t// out\n            /* \"#utility.yul\":1611:1733   */\n        tag_78:\n            /* \"#utility.yul\":1684:1708   */\n          tag_126\n            /* \"#utility.yul\":1702:1707   */\n          dup2\n            /* \"#utility.yul\":1684:1708   */\n          tag_77\n          jump\t// in\n        tag_126:\n            /* \"#utility.yul\":1677:1682   */\n          dup2\n            /* \"#utility.yul\":1674:1709   */\n          eq\n            /* \"#utility.yul\":1664:1727   */\n          tag_127\n          jumpi\n            /* \"#utility.yul\":1723:1724   */\n          0x00\n            /* \"#utility.yul\":1720:1721   */\n          dup1\n            /* \"#utility.yul\":1713:1725   */\n          revert\n            /* \"#utility.yul\":1664:1727   */\n        tag_127:\n            /* \"#utility.yul\":1611:1733   */\n          pop\n          jump\t// out\n            /* \"#utility.yul\":1739:1878   */\n        tag_79:\n            /* \"#utility.yul\":1785:1790   */\n          0x00\n            /* \"#utility.yul\":1823:1829   */\n          dup2\n            /* \"#utility.yul\":1810:1830   */\n          calldataload\n            /* \"#utility.yul\":1801:1830   */\n          swap1\n          pop\n            /* \"#utility.yul\":1839:1872   */\n          tag_129\n            /* \"#utility.yul\":1866:1871   */\n          dup2\n            /* \"#utility.yul\":1839:1872   */\n          tag_78\n          jump\t// in\n        tag_129:\n            /* \"#utility.yul\":1739:1878   */\n          swap3\n          swap2\n          pop\n          pop\n          jump\t// out\n            /* \"#utility.yul\":1884:2358   */\n        tag_17:\n            /* \"#utility.yul\":1952:1958   */\n          0x00\n            /* \"#utility.yul\":1960:1966   */\n          dup1\n            /* \"#utility.yul\":2009:2011   */\n          0x40\n            /* \"#utility.yul\":1997:2006   */\n          dup4\n            /* \"#utility.yul\":1988:1995   */\n          dup6\n            /* \"#utility.yul\":1984:2007   */\n          sub\n            /* \"#utility.yul\":1980:2012   */\n          slt\n            /* \"#utility.yul\":1977:2096   */\n          iszero\n          tag_131\n          jumpi\n            /* \"#utility.yul\":2015:2094   */\n          tag_132\n          tag_70\n          jump\t// in\n        tag_132:\n            /* \"#utility.yul\":1977:2096   */\n        tag_131:\n            /* \"#utility.yul\":2135:2136   */\n          0x00\n            /* \"#utility.yul\":2160:2213   */\n          tag_133\n            /* \"#utility.yul\":2205:2212   */\n          dup6\n            /* \"#utility.yul\":2196:2202   */\n          dup3\n            /* \"#utility.yul\":2185:2194   */\n          dup7\n            /* \"#utility.yul\":2181:2203   */\n          add\n            /* \"#utility.yul\":2160:2213   */\n          tag_74\n          jump\t// in\n        tag_133:\n            /* \"#utility.yul\":2150:2213   */\n          swap3\n          pop\n            /* \"#utility.yul\":2106:2223   */\n          pop\n            /* \"#utility.yul\":2262:2264   */\n          0x20\n            /* \"#utility.yul\":2288:2341   */\n          tag_134\n            /* \"#utility.yul\":2333:2340   */\n          dup6\n            /* \"#utility.yul\":2324:2330   */\n          dup3\n            /* \"#utility.yul\":2313:2322   */\n          dup7\n            /* \"#utility.yul\":2309:2331   */\n          add\n            /* \"#utility.yul\":2288:2341   */\n          tag_79\n          jump\t// in\n        tag_134:\n            /* \"#utility.yul\":2278:2341   */\n          swap2\n          pop\n            /* \"#utility.yul\":2233:2351   */\n          pop\n            /* \"#utility.yul\":1884:2358   */\n          swap3\n          pop\n          swap3\n          swap1\n          pop\n          jump\t// out\n            /* \"#utility.yul\":2364:2450   */\n        tag_80:\n            /* \"#utility.yul\":2399:2406   */\n          0x00\n            /* \"#utility.yul\":2439:2443   */\n          0xff\n            /* \"#utility.yul\":2432:2437   */\n          dup3\n            /* \"#utility.yul\":2428:2444   */\n          and\n            /* \"#utility.yul\":2417:2444   */\n          swap1\n          pop\n            /* \"#utility.yul\":2364:2450   */\n          swap2\n          swap1\n          pop\n          jump\t// out\n            /* \"#utility.yul\":2456:2568   */\n        tag_81:\n            /* \"#utility.yul\":2539:2561   */\n          tag_137\n            /* \"#utility.yul\":2555:2560   */\n          dup2\n            /* \"#utility.yul\":2539:2561   */\n          tag_80\n          jump\t// in\n        tag_137:\n            /* \"#utility.yul\":2534:2537   */\n          dup3\n            /* \"#utility.yul\":2527:2562   */\n          mstore\n            /* \"#utility.yul\":2456:2568   */\n          pop\n          pop\n          jump\t// out\n            /* \"#utility.yul\":2574:2788   */\n        tag_22:\n            /* \"#utility.yul\":2663:2667   */\n          0x00\n            /* \"#utility.yul\":2701:2703   */\n          0x20\n            /* \"#utility.yul\":2690:2699   */\n          dup3\n            /* \"#utility.yul\":2686:2704   */\n          add\n            /* \"#utility.yul\":2678:2704   */\n          swap1\n          pop\n            /* \"#utility.yul\":2714:2781   */\n          tag_139\n            /* \"#utility.yul\":2778:2779   */\n          0x00\n            /* \"#utility.yul\":2767:2776   */\n          dup4\n            /* \"#utility.yul\":2763:2780   */\n          add\n            /* \"#utility.yul\":2754:2760   */\n          dup5\n            /* \"#utility.yul\":2714:2781   */\n          tag_81\n          jump\t// in\n        tag_139:\n            /* \"#utility.yul\":2574:2788   */\n          swap3\n          swap2\n          pop\n          pop\n          jump\t// out\n            /* \"#utility.yul\":2794:3123   */\n        tag_25:\n            /* \"#utility.yul\":2853:2859   */\n          0x00\n            /* \"#utility.yul\":2902:2904   */\n          0x20\n            /* \"#utility.yul\":2890:2899   */\n          dup3\n            /* \"#utility.yul\":2881:2888   */\n          dup5\n            /* \"#utility.yul\":2877:2900   */\n          sub\n            /* \"#utility.yul\":2873:2905   */\n          slt\n            /* \"#utility.yul\":2870:2989   */\n          iszero\n          tag_141\n          jumpi\n            /* \"#utility.yul\":2908:2987   */\n          tag_142\n          tag_70\n          jump\t// in\n        tag_142:\n            /* \"#utility.yul\":2870:2989   */\n        tag_141:\n            /* \"#utility.yul\":3028:3029   */\n          0x00\n            /* \"#utility.yul\":3053:3106   */\n          tag_143\n            /* \"#utility.yul\":3098:3105   */\n          dup5\n            /* \"#utility.yul\":3089:3095   */\n          dup3\n            /* \"#utility.yul\":3078:3087   */\n          dup6\n            /* \"#utility.yul\":3074:3096   */\n          add\n            /* \"#utility.yul\":3053:3106   */\n          tag_79\n          jump\t// in\n        tag_143:\n            /* \"#utility.yul\":3043:3106   */\n          swap2\n          pop\n            /* \"#utility.yul\":2999:3116   */\n          pop\n            /* \"#utility.yul\":2794:3123   */\n          swap3\n          swap2\n          pop\n          pop\n          jump\t// out\n            /* \"#utility.yul\":3129:3230   */\n        tag_82:\n            /* \"#utility.yul\":3165:3172   */\n          0x00\n            /* \"#utility.yul\":3205:3223   */\n          0xffffffffffffffff\n            /* \"#utility.yul\":3198:3203   */\n          dup3\n            /* \"#utility.yul\":3194:3224   */\n          and\n            /* \"#utility.yul\":3183:3224   */\n          swap1\n          pop\n            /* \"#utility.yul\":3129:3230   */\n          swap2\n          swap1\n          pop\n          jump\t// out\n            /* \"#utility.yul\":3236:3351   */\n        tag_83:\n            /* \"#utility.yul\":3321:3344   */\n          tag_146\n            /* \"#utility.yul\":3338:3343   */\n          dup2\n            /* \"#utility.yul\":3321:3344   */\n          tag_82\n          jump\t// in\n        tag_146:\n            /* \"#utility.yul\":3316:3319   */\n          dup3\n            /* \"#utility.yul\":3309:3345   */\n          mstore\n            /* \"#utility.yul\":3236:3351   */\n          pop\n          pop\n          jump\t// out\n            /* \"#utility.yul\":3357:3447   */\n        tag_84:\n            /* \"#utility.yul\":3391:3398   */\n          0x00\n            /* \"#utility.yul\":3434:3439   */\n          dup2\n            /* \"#utility.yul\":3427:3440   */\n          iszero\n            /* \"#utility.yul\":3420:3441   */\n          iszero\n            /* \"#utility.yul\":3409:3441   */\n          swap1\n          pop\n            /* \"#utility.yul\":3357:3447   */\n          swap2\n          swap1\n          pop\n          jump\t// out\n            /* \"#utility.yul\":3453:3562   */\n        tag_85:\n            /* \"#utility.yul\":3534:3555   */\n          tag_149\n            /* \"#utility.yul\":3549:3554   */\n          dup2\n            /* \"#utility.yul\":3534:3555   */\n          tag_84\n          jump\t// in\n        tag_149:\n            /* \"#utility.yul\":3529:3532   */\n          dup3\n            /* \"#utility.yul\":3522:3556   */\n          mstore\n            /* \"#utility.yul\":3453:3562   */\n          pop\n          pop\n          jump\t// out\n            /* \"#utility.yul\":3568:4093   */\n        tag_28:\n            /* \"#utility.yul\":3731:3735   */\n          0x00\n            /* \"#utility.yul\":3769:3772   */\n          0x80\n            /* \"#utility.yul\":3758:3767   */\n          dup3\n            /* \"#utility.yul\":3754:3773   */\n          add\n            /* \"#utility.yul\":3746:3773   */\n          swap1\n          pop\n            /* \"#utility.yul\":3783:3854   */\n          tag_151\n            /* \"#utility.yul\":3851:3852   */\n          0x00\n            /* \"#utility.yul\":3840:3849   */\n          dup4\n            /* \"#utility.yul\":3836:3853   */\n          add\n            /* \"#utility.yul\":3827:3833   */\n          dup8\n            /* \"#utility.yul\":3783:3854   */\n          tag_75\n          jump\t// in\n        tag_151:\n            /* \"#utility.yul\":3864:3934   */\n          tag_152\n            /* \"#utility.yul\":3930:3932   */\n          0x20\n            /* \"#utility.yul\":3919:3928   */\n          dup4\n            /* \"#utility.yul\":3915:3933   */\n          add\n            /* \"#utility.yul\":3906:3912   */\n          dup7\n            /* \"#utility.yul\":3864:3934   */\n          tag_83\n          jump\t// in\n        tag_152:\n            /* \"#utility.yul\":3944:4010   */\n          tag_153\n            /* \"#utility.yul\":4006:4008   */\n          0x40\n            /* \"#utility.yul\":3995:4004   */\n          dup4\n            /* \"#utility.yul\":3991:4009   */\n          add\n            /* \"#utility.yul\":3982:3988   */\n          dup6\n            /* \"#utility.yul\":3944:4010   */\n          tag_85\n          jump\t// in\n        tag_153:\n            /* \"#utility.yul\":4020:4086   */\n          tag_154\n            /* \"#utility.yul\":4082:4084   */\n          0x60\n            /* \"#utility.yul\":4071:4080   */\n          dup4\n            /* \"#utility.yul\":4067:4085   */\n          add\n            /* \"#utility.yul\":4058:4064   */\n          dup5\n            /* \"#utility.yul\":4020:4086   */\n          tag_85\n          jump\t// in\n        tag_154:\n            /* \"#utility.yul\":3568:4093   */\n          swap6\n          swap5\n          pop\n          pop\n          pop\n          pop\n          pop\n          jump\t// out\n            /* \"#utility.yul\":4099:4419   */\n        tag_33:\n            /* \"#utility.yul\":4214:4218   */\n          0x00\n            /* \"#utility.yul\":4252:4254   */\n          0x40\n            /* \"#utility.yul\":4241:4250   */\n          dup3\n            /* \"#utility.yul\":4237:4255   */\n          add\n            /* \"#utility.yul\":4229:4255   */\n          swap1\n          pop\n            /* \"#utility.yul\":4265:4336   */\n          tag_156\n            /* \"#utility.yul\":4333:4334   */\n          0x00\n            /* \"#utility.yul\":4322:4331   */\n          dup4\n            /* \"#utility.yul\":4318:4335   */\n          add\n            /* \"#utility.yul\":4309:4315   */\n          dup6\n            /* \"#utility.yul\":4265:4336   */\n          tag_75\n          jump\t// in\n        tag_156:\n            /* \"#utility.yul\":4346:4412   */\n          tag_157\n            /* \"#utility.yul\":4408:4410   */\n          0x20\n            /* \"#utility.yul\":4397:4406   */\n          dup4\n            /* \"#utility.yul\":4393:4411   */\n          add\n            /* \"#utility.yul\":4384:4390   */\n          dup5\n            /* \"#utility.yul\":4346:4412   */\n          tag_85\n          jump\t// in\n        tag_157:\n            /* \"#utility.yul\":4099:4419   */\n          swap4\n          swap3\n          pop\n          pop\n          pop\n          jump\t// out\n            /* \"#utility.yul\":4425:4504   */\n        tag_86:\n            /* \"#utility.yul\":4464:4471   */\n          0x00\n            /* \"#utility.yul\":4493:4498   */\n          dup2\n            /* \"#utility.yul\":4482:4498   */\n          swap1\n          pop\n            /* \"#utility.yul\":4425:4504   */\n          swap2\n          swap1\n          pop\n          jump\t// out\n            /* \"#utility.yul\":4510:4667   */\n        tag_87:\n            /* \"#utility.yul\":4615:4660   */\n          tag_160\n            /* \"#utility.yul\":4635:4659   */\n          tag_161\n            /* \"#utility.yul\":4653:4658   */\n          dup3\n            /* \"#utility.yul\":4635:4659   */\n          tag_72\n          jump\t// in\n        tag_161:\n            /* \"#utility.yul\":4615:4660   */\n          tag_86\n          jump\t// in\n        tag_160:\n            /* \"#utility.yul\":4610:4613   */\n          dup3\n            /* \"#utility.yul\":4603:4661   */\n          mstore\n            /* \"#utility.yul\":4510:4667   */\n          pop\n          pop\n          jump\t// out\n            /* \"#utility.yul\":4673:4929   */\n        tag_39:\n            /* \"#utility.yul\":4785:4788   */\n          0x00\n            /* \"#utility.yul\":4800:4875   */\n          tag_163\n            /* \"#utility.yul\":4871:4874   */\n          dup3\n            /* \"#utility.yul\":4862:4868   */\n          dup5\n            /* \"#utility.yul\":4800:4875   */\n          tag_87\n          jump\t// in\n        tag_163:\n            /* \"#utility.yul\":4900:4902   */\n          0x20\n            /* \"#utility.yul\":4895:4898   */\n          dup3\n            /* \"#utility.yul\":4891:4903   */\n          add\n            /* \"#utility.yul\":4884:4903   */\n          swap2\n          pop\n            /* \"#utility.yul\":4920:4923   */\n          dup2\n            /* \"#utility.yul\":4913:4923   */\n          swap1\n          pop\n            /* \"#utility.yul\":4673:4929   */\n          swap3\n          swap2\n          pop\n          pop\n          jump\t// out\n            /* \"#utility.yul\":4935:5104   */\n        tag_88:\n            /* \"#utility.yul\":5019:5030   */\n          0x00\n            /* \"#utility.yul\":5053:5059   */\n          dup3\n            /* \"#utility.yul\":5048:5051   */\n          dup3\n            /* \"#utility.yul\":5041:5060   */\n          mstore\n            /* \"#utility.yul\":5093:5097   */\n          0x20\n            /* \"#utility.yul\":5088:5091   */\n          dup3\n            /* \"#utility.yul\":5084:5098   */\n          add\n            /* \"#utility.yul\":5069:5098   */\n          swap1\n          pop\n            /* \"#utility.yul\":4935:5104   */\n          swap3\n          swap2\n          pop\n          pop\n          jump\t// out\n            /* \"#utility.yul\":5110:5335   */\n        tag_89:\n            /* \"#utility.yul\":5250:5284   */\n          0x436f6d6d697452657665616c3a3a636f6d6d69743a20416c726561647920636f\n            /* \"#utility.yul\":5246:5247   */\n          0x00\n            /* \"#utility.yul\":5238:5244   */\n          dup3\n            /* \"#utility.yul\":5234:5248   */\n          add\n            /* \"#utility.yul\":5227:5285   */\n          mstore\n            /* \"#utility.yul\":5319:5327   */\n          0x6d6d697465640000000000000000000000000000000000000000000000000000\n            /* \"#utility.yul\":5314:5316   */\n          0x20\n            /* \"#utility.yul\":5306:5312   */\n          dup3\n            /* \"#utility.yul\":5302:5317   */\n          add\n            /* \"#utility.yul\":5295:5328   */\n          mstore\n            /* \"#utility.yul\":5110:5335   */\n          pop\n          jump\t// out\n            /* \"#utility.yul\":5341:5707   */\n        tag_90:\n            /* \"#utility.yul\":5483:5486   */\n          0x00\n            /* \"#utility.yul\":5504:5571   */\n          tag_167\n            /* \"#utility.yul\":5568:5570   */\n          0x26\n            /* \"#utility.yul\":5563:5566   */\n          dup4\n            /* \"#utility.yul\":5504:5571   */\n          tag_88\n          jump\t// in\n        tag_167:\n            /* \"#utility.yul\":5497:5571   */\n          swap2\n          pop\n            /* \"#utility.yul\":5580:5673   */\n          tag_168\n            /* \"#utility.yul\":5669:5672   */\n          dup3\n            /* \"#utility.yul\":5580:5673   */\n          tag_89\n          jump\t// in\n        tag_168:\n            /* \"#utility.yul\":5698:5700   */\n          0x40\n            /* \"#utility.yul\":5693:5696   */\n          dup3\n            /* \"#utility.yul\":5689:5701   */\n          add\n            /* \"#utility.yul\":5682:5701   */\n          swap1\n          pop\n            /* \"#utility.yul\":5341:5707   */\n          swap2\n          swap1\n          pop\n          jump\t// out\n            /* \"#utility.yul\":5713:6132   */\n        tag_43:\n            /* \"#utility.yul\":5879:5883   */\n          0x00\n            /* \"#utility.yul\":5917:5919   */\n          0x20\n            /* \"#utility.yul\":5906:5915   */\n          dup3\n            /* \"#utility.yul\":5902:5920   */\n          add\n            /* \"#utility.yul\":5894:5920   */\n          swap1\n          pop\n            /* \"#utility.yul\":5966:5975   */\n          dup2\n            /* \"#utility.yul\":5960:5964   */\n          dup2\n            /* \"#utility.yul\":5956:5976   */\n          sub\n            /* \"#utility.yul\":5952:5953   */\n          0x00\n            /* \"#utility.yul\":5941:5950   */\n          dup4\n            /* \"#utility.yul\":5937:5954   */\n          add\n            /* \"#utility.yul\":5930:5977   */\n          mstore\n            /* \"#utility.yul\":5994:6125   */\n          tag_170\n            /* \"#utility.yul\":6120:6124   */\n          dup2\n            /* \"#utility.yul\":5994:6125   */\n          tag_90\n          jump\t// in\n        tag_170:\n            /* \"#utility.yul\":5986:6125   */\n          swap1\n          pop\n            /* \"#utility.yul\":5713:6132   */\n          swap2\n          swap1\n          pop\n          jump\t// out\n            /* \"#utility.yul\":6138:6256   */\n        tag_91:\n            /* \"#utility.yul\":6225:6249   */\n          tag_172\n            /* \"#utility.yul\":6243:6248   */\n          dup2\n            /* \"#utility.yul\":6225:6249   */\n          tag_77\n          jump\t// in\n        tag_172:\n            /* \"#utility.yul\":6220:6223   */\n          dup3\n            /* \"#utility.yul\":6213:6250   */\n          mstore\n            /* \"#utility.yul\":6138:6256   */\n          pop\n          pop\n          jump\t// out\n            /* \"#utility.yul\":6262:6700   */\n        tag_45:\n            /* \"#utility.yul\":6409:6413   */\n          0x00\n            /* \"#utility.yul\":6447:6449   */\n          0x60\n            /* \"#utility.yul\":6436:6445   */\n          dup3\n            /* \"#utility.yul\":6432:6450   */\n          add\n            /* \"#utility.yul\":6424:6450   */\n          swap1\n          pop\n            /* \"#utility.yul\":6460:6531   */\n          tag_174\n            /* \"#utility.yul\":6528:6529   */\n          0x00\n            /* \"#utility.yul\":6517:6526   */\n          dup4\n            /* \"#utility.yul\":6513:6530   */\n          add\n            /* \"#utility.yul\":6504:6510   */\n          dup7\n            /* \"#utility.yul\":6460:6531   */\n          tag_91\n          jump\t// in\n        tag_174:\n            /* \"#utility.yul\":6541:6613   */\n          tag_175\n            /* \"#utility.yul\":6609:6611   */\n          0x20\n            /* \"#utility.yul\":6598:6607   */\n          dup4\n            /* \"#utility.yul\":6594:6612   */\n          add\n            /* \"#utility.yul\":6585:6591   */\n          dup6\n            /* \"#utility.yul\":6541:6613   */\n          tag_75\n          jump\t// in\n        tag_175:\n            /* \"#utility.yul\":6623:6693   */\n          tag_176\n            /* \"#utility.yul\":6689:6691   */\n          0x40\n            /* \"#utility.yul\":6678:6687   */\n          dup4\n            /* \"#utility.yul\":6674:6692   */\n          add\n            /* \"#utility.yul\":6665:6671   */\n          dup5\n            /* \"#utility.yul\":6623:6693   */\n          tag_83\n          jump\t// in\n        tag_176:\n            /* \"#utility.yul\":6262:6700   */\n          swap5\n          swap4\n          pop\n          pop\n          pop\n          pop\n          jump\t// out\n            /* \"#utility.yul\":6706:6931   */\n        tag_92:\n            /* \"#utility.yul\":6846:6880   */\n          0x436f6d6d697452657665616c3a3a72657665616c3a20416c7265616479207265\n            /* \"#utility.yul\":6842:6843   */\n          0x00\n            /* \"#utility.yul\":6834:6840   */\n          dup3\n            /* \"#utility.yul\":6830:6844   */\n          add\n            /* \"#utility.yul\":6823:6881   */\n          mstore\n            /* \"#utility.yul\":6915:6923   */\n          0x7665616c65640000000000000000000000000000000000000000000000000000\n            /* \"#utility.yul\":6910:6912   */\n          0x20\n            /* \"#utility.yul\":6902:6908   */\n          dup3\n            /* \"#utility.yul\":6898:6913   */\n          add\n            /* \"#utility.yul\":6891:6924   */\n          mstore\n            /* \"#utility.yul\":6706:6931   */\n          pop\n          jump\t// out\n            /* \"#utility.yul\":6937:7303   */\n        tag_93:\n            /* \"#utility.yul\":7079:7082   */\n          0x00\n            /* \"#utility.yul\":7100:7167   */\n          tag_179\n            /* \"#utility.yul\":7164:7166   */\n          0x26\n            /* \"#utility.yul\":7159:7162   */\n          dup4\n            /* \"#utility.yul\":7100:7167   */\n          tag_88\n          jump\t// in\n        tag_179:\n            /* \"#utility.yul\":7093:7167   */\n          swap2\n          pop\n            /* \"#utility.yul\":7176:7269   */\n          tag_180\n            /* \"#utility.yul\":7265:7268   */\n          dup3\n            /* \"#utility.yul\":7176:7269   */\n          tag_92\n          jump\t// in\n        tag_180:\n            /* \"#utility.yul\":7294:7296   */\n          0x40\n            /* \"#utility.yul\":7289:7292   */\n          dup3\n            /* \"#utility.yul\":7285:7297   */\n          add\n            /* \"#utility.yul\":7278:7297   */\n          swap1\n          pop\n            /* \"#utility.yul\":6937:7303   */\n          swap2\n          swap1\n          pop\n          jump\t// out\n            /* \"#utility.yul\":7309:7728   */\n        tag_50:\n            /* \"#utility.yul\":7475:7479   */\n          0x00\n            /* \"#utility.yul\":7513:7515   */\n          0x20\n            /* \"#utility.yul\":7502:7511   */\n          dup3\n            /* \"#utility.yul\":7498:7516   */\n          add\n            /* \"#utility.yul\":7490:7516   */\n          swap1\n          pop\n            /* \"#utility.yul\":7562:7571   */\n          dup2\n            /* \"#utility.yul\":7556:7560   */\n          dup2\n            /* \"#utility.yul\":7552:7572   */\n          sub\n            /* \"#utility.yul\":7548:7549   */\n          0x00\n            /* \"#utility.yul\":7537:7546   */\n          dup4\n            /* \"#utility.yul\":7533:7550   */\n          add\n            /* \"#utility.yul\":7526:7573   */\n          mstore\n            /* \"#utility.yul\":7590:7721   */\n          tag_182\n            /* \"#utility.yul\":7716:7720   */\n          dup2\n            /* \"#utility.yul\":7590:7721   */\n          tag_93\n          jump\t// in\n        tag_182:\n            /* \"#utility.yul\":7582:7721   */\n          swap1\n          pop\n            /* \"#utility.yul\":7309:7728   */\n          swap2\n          swap1\n          pop\n          jump\t// out\n            /* \"#utility.yul\":7734:7978   */\n        tag_94:\n            /* \"#utility.yul\":7874:7908   */\n          0x436f6d6d697452657665616c3a3a72657665616c3a2052657665616c65642068\n            /* \"#utility.yul\":7870:7871   */\n          0x00\n            /* \"#utility.yul\":7862:7868   */\n          dup3\n            /* \"#utility.yul\":7858:7872   */\n          add\n            /* \"#utility.yul\":7851:7909   */\n          mstore\n            /* \"#utility.yul\":7943:7970   */\n          0x61736820646f6573206e6f74206d6174636820636f6d6d697400000000000000\n            /* \"#utility.yul\":7938:7940   */\n          0x20\n            /* \"#utility.yul\":7930:7936   */\n          dup3\n            /* \"#utility.yul\":7926:7941   */\n          add\n            /* \"#utility.yul\":7919:7971   */\n          mstore\n            /* \"#utility.yul\":7734:7978   */\n          pop\n          jump\t// out\n            /* \"#utility.yul\":7984:8350   */\n        tag_95:\n            /* \"#utility.yul\":8126:8129   */\n          0x00\n            /* \"#utility.yul\":8147:8214   */\n          tag_185\n            /* \"#utility.yul\":8211:8213   */\n          0x39\n            /* \"#utility.yul\":8206:8209   */\n          dup4\n            /* \"#utility.yul\":8147:8214   */\n          tag_88\n          jump\t// in\n        tag_185:\n            /* \"#utility.yul\":8140:8214   */\n          swap2\n          pop\n            /* \"#utility.yul\":8223:8316   */\n          tag_186\n            /* \"#utility.yul\":8312:8315   */\n          dup3\n            /* \"#utility.yul\":8223:8316   */\n          tag_94\n          jump\t// in\n        tag_186:\n            /* \"#utility.yul\":8341:8343   */\n          0x40\n            /* \"#utility.yul\":8336:8339   */\n          dup3\n            /* \"#utility.yul\":8332:8344   */\n          add\n            /* \"#utility.yul\":8325:8344   */\n          swap1\n          pop\n            /* \"#utility.yul\":7984:8350   */\n          swap2\n          swap1\n          pop\n          jump\t// out\n            /* \"#utility.yul\":8356:8775   */\n        tag_54:\n            /* \"#utility.yul\":8522:8526   */\n          0x00\n            /* \"#utility.yul\":8560:8562   */\n          0x20\n            /* \"#utility.yul\":8549:8558   */\n          dup3\n            /* \"#utility.yul\":8545:8563   */\n          add\n            /* \"#utility.yul\":8537:8563   */\n          swap1\n          pop\n            /* \"#utility.yul\":8609:8618   */\n          dup2\n            /* \"#utility.yul\":8603:8607   */\n          dup2\n            /* \"#utility.yul\":8599:8619   */\n          sub\n            /* \"#utility.yul\":8595:8596   */\n          0x00\n            /* \"#utility.yul\":8584:8593   */\n          dup4\n            /* \"#utility.yul\":8580:8597   */\n          add\n            /* \"#utility.yul\":8573:8620   */\n          mstore\n            /* \"#utility.yul\":8637:8768   */\n          tag_188\n            /* \"#utility.yul\":8763:8767   */\n          dup2\n            /* \"#utility.yul\":8637:8768   */\n          tag_95\n          jump\t// in\n        tag_188:\n            /* \"#utility.yul\":8629:8768   */\n          swap1\n          pop\n            /* \"#utility.yul\":8356:8775   */\n          swap2\n          swap1\n          pop\n          jump\t// out\n            /* \"#utility.yul\":8781:9071   */\n        tag_96:\n            /* \"#utility.yul\":8921:8955   */\n          0x436f6d6d697452657665616c3a3a72657665616c3a2052657665616c20616e64\n            /* \"#utility.yul\":8917:8918   */\n          0x00\n            /* \"#utility.yul\":8909:8915   */\n          dup3\n            /* \"#utility.yul\":8905:8919   */\n          add\n            /* \"#utility.yul\":8898:8956   */\n          mstore\n            /* \"#utility.yul\":8990:9024   */\n          0x20636f6d6d69742068617070656e6564206f6e207468652073616d6520626c6f\n            /* \"#utility.yul\":8985:8987   */\n          0x20\n            /* \"#utility.yul\":8977:8983   */\n          dup3\n            /* \"#utility.yul\":8973:8988   */\n          add\n            /* \"#utility.yul\":8966:9025   */\n          mstore\n            /* \"#utility.yul\":9059:9063   */\n          0x636b000000000000000000000000000000000000000000000000000000000000\n            /* \"#utility.yul\":9054:9056   */\n          0x40\n            /* \"#utility.yul\":9046:9052   */\n          dup3\n            /* \"#utility.yul\":9042:9057   */\n          add\n            /* \"#utility.yul\":9035:9064   */\n          mstore\n            /* \"#utility.yul\":8781:9071   */\n          pop\n          jump\t// out\n            /* \"#utility.yul\":9077:9443   */\n        tag_97:\n            /* \"#utility.yul\":9219:9222   */\n          0x00\n            /* \"#utility.yul\":9240:9307   */\n          tag_191\n            /* \"#utility.yul\":9304:9306   */\n          0x42\n            /* \"#utility.yul\":9299:9302   */\n          dup4\n            /* \"#utility.yul\":9240:9307   */\n          tag_88\n          jump\t// in\n        tag_191:\n            /* \"#utility.yul\":9233:9307   */\n          swap2\n          pop\n            /* \"#utility.yul\":9316:9409   */\n          tag_192\n            /* \"#utility.yul\":9405:9408   */\n          dup3\n            /* \"#utility.yul\":9316:9409   */\n          tag_96\n          jump\t// in\n        tag_192:\n            /* \"#utility.yul\":9434:9436   */\n          0x60\n            /* \"#utility.yul\":9429:9432   */\n          dup3\n            /* \"#utility.yul\":9425:9437   */\n          add\n            /* \"#utility.yul\":9418:9437   */\n          swap1\n          pop\n            /* \"#utility.yul\":9077:9443   */\n          swap2\n          swap1\n          pop\n          jump\t// out\n            /* \"#utility.yul\":9449:9868   */\n        tag_57:\n            /* \"#utility.yul\":9615:9619   */\n          0x00\n            /* \"#utility.yul\":9653:9655   */\n          0x20\n            /* \"#utility.yul\":9642:9651   */\n          dup3\n            /* \"#utility.yul\":9638:9656   */\n          add\n            /* \"#utility.yul\":9630:9656   */\n          swap1\n          pop\n            /* \"#utility.yul\":9702:9711   */\n          dup2\n            /* \"#utility.yul\":9696:9700   */\n          dup2\n            /* \"#utility.yul\":9692:9712   */\n          sub\n            /* \"#utility.yul\":9688:9689   */\n          0x00\n            /* \"#utility.yul\":9677:9686   */\n          dup4\n            /* \"#utility.yul\":9673:9690   */\n          add\n            /* \"#utility.yul\":9666:9713   */\n          mstore\n            /* \"#utility.yul\":9730:9861   */\n          tag_194\n            /* \"#utility.yul\":9856:9860   */\n          dup2\n            /* \"#utility.yul\":9730:9861   */\n          tag_97\n          jump\t// in\n        tag_194:\n            /* \"#utility.yul\":9722:9861   */\n          swap1\n          pop\n            /* \"#utility.yul\":9449:9868   */\n          swap2\n          swap1\n          pop\n          jump\t// out\n            /* \"#utility.yul\":9874:10054   */\n        tag_98:\n            /* \"#utility.yul\":9922:9999   */\n          0x4e487b7100000000000000000000000000000000000000000000000000000000\n            /* \"#utility.yul\":9919:9920   */\n          0x00\n            /* \"#utility.yul\":9912:10000   */\n          mstore\n            /* \"#utility.yul\":10019:10023   */\n          0x11\n            /* \"#utility.yul\":10016:10017   */\n          0x04\n            /* \"#utility.yul\":10009:10024   */\n          mstore\n            /* \"#utility.yul\":10043:10047   */\n          0x24\n            /* \"#utility.yul\":10040:10041   */\n          0x00\n            /* \"#utility.yul\":10033:10048   */\n          revert\n            /* \"#utility.yul\":10060:10265   */\n        tag_59:\n            /* \"#utility.yul\":10099:10102   */\n          0x00\n            /* \"#utility.yul\":10118:10137   */\n          tag_197\n            /* \"#utility.yul\":10135:10136   */\n          dup3\n            /* \"#utility.yul\":10118:10137   */\n          tag_82\n          jump\t// in\n        tag_197:\n            /* \"#utility.yul\":10113:10137   */\n          swap2\n          pop\n            /* \"#utility.yul\":10151:10170   */\n          tag_198\n            /* \"#utility.yul\":10168:10169   */\n          dup4\n            /* \"#utility.yul\":10151:10170   */\n          tag_82\n          jump\t// in\n        tag_198:\n            /* \"#utility.yul\":10146:10170   */\n          swap3\n          pop\n            /* \"#utility.yul\":10193:10194   */\n          dup3\n            /* \"#utility.yul\":10190:10191   */\n          dup3\n            /* \"#utility.yul\":10186:10195   */\n          add\n            /* \"#utility.yul\":10179:10195   */\n          swap1\n          pop\n            /* \"#utility.yul\":10216:10234   */\n          0xffffffffffffffff\n            /* \"#utility.yul\":10211:10214   */\n          dup2\n            /* \"#utility.yul\":10208:10235   */\n          gt\n            /* \"#utility.yul\":10205:10258   */\n          iszero\n          tag_199\n          jumpi\n            /* \"#utility.yul\":10238:10256   */\n          tag_200\n          tag_98\n          jump\t// in\n        tag_200:\n            /* \"#utility.yul\":10205:10258   */\n        tag_199:\n            /* \"#utility.yul\":10060:10265   */\n          swap3\n          swap2\n          pop\n          pop\n          jump\t// out\n            /* \"#utility.yul\":10271:10497   */\n        tag_99:\n            /* \"#utility.yul\":10411:10445   */\n          0x436f6d6d697452657665616c3a3a72657665616c3a2052657665616c65642074\n            /* \"#utility.yul\":10407:10408   */\n          0x00\n            /* \"#utility.yul\":10399:10405   */\n          dup3\n            /* \"#utility.yul\":10395:10409   */\n          add\n            /* \"#utility.yul\":10388:10446   */\n          mstore\n            /* \"#utility.yul\":10480:10489   */\n          0x6f6f206c61746500000000000000000000000000000000000000000000000000\n            /* \"#utility.yul\":10475:10477   */\n          0x20\n            /* \"#utility.yul\":10467:10473   */\n          dup3\n            /* \"#utility.yul\":10463:10478   */\n          add\n            /* \"#utility.yul\":10456:10490   */\n          mstore\n            /* \"#utility.yul\":10271:10497   */\n          pop\n          jump\t// out\n            /* \"#utility.yul\":10503:10869   */\n        tag_100:\n            /* \"#utility.yul\":10645:10648   */\n          0x00\n            /* \"#utility.yul\":10666:10733   */\n          tag_203\n            /* \"#utility.yul\":10730:10732   */\n          0x27\n            /* \"#utility.yul\":10725:10728   */\n          dup4\n            /* \"#utility.yul\":10666:10733   */\n          tag_88\n          jump\t// in\n        tag_203:\n            /* \"#utility.yul\":10659:10733   */\n          swap2\n          pop\n            /* \"#utility.yul\":10742:10835   */\n          tag_204\n            /* \"#utility.yul\":10831:10834   */\n          dup3\n            /* \"#utility.yul\":10742:10835   */\n          tag_99\n          jump\t// in\n        tag_204:\n            /* \"#utility.yul\":10860:10862   */\n          0x40\n            /* \"#utility.yul\":10855:10858   */\n          dup3\n            /* \"#utility.yul\":10851:10863   */\n          add\n            /* \"#utility.yul\":10844:10863   */\n          swap1\n          pop\n            /* \"#utility.yul\":10503:10869   */\n          swap2\n          swap1\n          pop\n          jump\t// out\n            /* \"#utility.yul\":10875:11294   */\n        tag_62:\n            /* \"#utility.yul\":11041:11045   */\n          0x00\n            /* \"#utility.yul\":11079:11081   */\n          0x20\n            /* \"#utility.yul\":11068:11077   */\n          dup3\n            /* \"#utility.yul\":11064:11082   */\n          add\n            /* \"#utility.yul\":11056:11082   */\n          swap1\n          pop\n            /* \"#utility.yul\":11128:11137   */\n          dup2\n            /* \"#utility.yul\":11122:11126   */\n          dup2\n            /* \"#utility.yul\":11118:11138   */\n          sub\n            /* \"#utility.yul\":11114:11115   */\n          0x00\n            /* \"#utility.yul\":11103:11112   */\n          dup4\n            /* \"#utility.yul\":11099:11116   */\n          add\n            /* \"#utility.yul\":11092:11139   */\n          mstore\n            /* \"#utility.yul\":11156:11287   */\n          tag_206\n            /* \"#utility.yul\":11282:11286   */\n          dup2\n            /* \"#utility.yul\":11156:11287   */\n          tag_100\n          jump\t// in\n        tag_206:\n            /* \"#utility.yul\":11148:11287   */\n          swap1\n          pop\n            /* \"#utility.yul\":10875:11294   */\n          swap2\n          swap1\n          pop\n          jump\t// out\n            /* \"#utility.yul\":11300:11697   */\n        tag_64:\n            /* \"#utility.yul\":11440:11443   */\n          0x00\n            /* \"#utility.yul\":11455:11530   */\n          tag_208\n            /* \"#utility.yul\":11526:11529   */\n          dup3\n            /* \"#utility.yul\":11517:11523   */\n          dup6\n            /* \"#utility.yul\":11455:11530   */\n          tag_87\n          jump\t// in\n        tag_208:\n            /* \"#utility.yul\":11555:11557   */\n          0x20\n            /* \"#utility.yul\":11550:11553   */\n          dup3\n            /* \"#utility.yul\":11546:11558   */\n          add\n            /* \"#utility.yul\":11539:11558   */\n          swap2\n          pop\n            /* \"#utility.yul\":11568:11643   */\n          tag_209\n            /* \"#utility.yul\":11639:11642   */\n          dup3\n            /* \"#utility.yul\":11630:11636   */\n          dup5\n            /* \"#utility.yul\":11568:11643   */\n          tag_87\n          jump\t// in\n        tag_209:\n            /* \"#utility.yul\":11668:11670   */\n          0x20\n            /* \"#utility.yul\":11663:11666   */\n          dup3\n            /* \"#utility.yul\":11659:11671   */\n          add\n            /* \"#utility.yul\":11652:11671   */\n          swap2\n          pop\n            /* \"#utility.yul\":11688:11691   */\n          dup2\n            /* \"#utility.yul\":11681:11691   */\n          swap1\n          pop\n            /* \"#utility.yul\":11300:11697   */\n          swap4\n          swap3\n          pop\n          pop\n          pop\n          jump\t// out\n            /* \"#utility.yul\":11703:11780   */\n        tag_101:\n            /* \"#utility.yul\":11740:11747   */\n          0x00\n            /* \"#utility.yul\":11769:11774   */\n          dup2\n            /* \"#utility.yul\":11758:11774   */\n          swap1\n          pop\n            /* \"#utility.yul\":11703:11780   */\n          swap2\n          swap1\n          pop\n          jump\t// out\n            /* \"#utility.yul\":11786:11966   */\n        tag_102:\n            /* \"#utility.yul\":11834:11911   */\n          0x4e487b7100000000000000000000000000000000000000000000000000000000\n            /* \"#utility.yul\":11831:11832   */\n          0x00\n            /* \"#utility.yul\":11824:11912   */\n          mstore\n            /* \"#utility.yul\":11931:11935   */\n          0x12\n            /* \"#utility.yul\":11928:11929   */\n          0x04\n            /* \"#utility.yul\":11921:11936   */\n          mstore\n            /* \"#utility.yul\":11955:11959   */\n          0x24\n            /* \"#utility.yul\":11952:11953   */\n          0x00\n            /* \"#utility.yul\":11945:11960   */\n          revert\n            /* \"#utility.yul\":11972:12148   */\n        tag_66:\n            /* \"#utility.yul\":12004:12005   */\n          0x00\n            /* \"#utility.yul\":12021:12041   */\n          tag_213\n            /* \"#utility.yul\":12039:12040   */\n          dup3\n            /* \"#utility.yul\":12021:12041   */\n          tag_101\n          jump\t// in\n        tag_213:\n            /* \"#utility.yul\":12016:12041   */\n          swap2\n          pop\n            /* \"#utility.yul\":12055:12075   */\n          tag_214\n            /* \"#utility.yul\":12073:12074   */\n          dup4\n            /* \"#utility.yul\":12055:12075   */\n          tag_101\n          jump\t// in\n        tag_214:\n            /* \"#utility.yul\":12050:12075   */\n          swap3\n          pop\n            /* \"#utility.yul\":12094:12095   */\n          dup3\n            /* \"#utility.yul\":12084:12119   */\n          tag_215\n          jumpi\n            /* \"#utility.yul\":12099:12117   */\n          tag_216\n          tag_102\n          jump\t// in\n        tag_216:\n            /* \"#utility.yul\":12084:12119   */\n        tag_215:\n            /* \"#utility.yul\":12140:12141   */\n          dup3\n            /* \"#utility.yul\":12137:12138   */\n          dup3\n            /* \"#utility.yul\":12133:12142   */\n          mod\n            /* \"#utility.yul\":12128:12142   */\n          swap1\n          pop\n            /* \"#utility.yul\":11972:12148   */\n          swap3\n          swap2\n          pop\n          pop\n          jump\t// out\n            /* \"#utility.yul\":12154:12272   */\n        tag_103:\n            /* \"#utility.yul\":12241:12265   */\n          tag_218\n            /* \"#utility.yul\":12259:12264   */\n          dup2\n            /* \"#utility.yul\":12241:12265   */\n          tag_101\n          jump\t// in\n        tag_218:\n            /* \"#utility.yul\":12236:12239   */\n          dup3\n            /* \"#utility.yul\":12229:12266   */\n          mstore\n            /* \"#utility.yul\":12154:12272   */\n          pop\n          pop\n          jump\t// out\n            /* \"#utility.yul\":12278:12720   */\n        tag_68:\n            /* \"#utility.yul\":12427:12431   */\n          0x00\n            /* \"#utility.yul\":12465:12467   */\n          0x60\n            /* \"#utility.yul\":12454:12463   */\n          dup3\n            /* \"#utility.yul\":12450:12468   */\n          add\n            /* \"#utility.yul\":12442:12468   */\n          swap1\n          pop\n            /* \"#utility.yul\":12478:12549   */\n          tag_220\n            /* \"#utility.yul\":12546:12547   */\n          0x00\n            /* \"#utility.yul\":12535:12544   */\n          dup4\n            /* \"#utility.yul\":12531:12548   */\n          add\n            /* \"#utility.yul\":12522:12528   */\n          dup7\n            /* \"#utility.yul\":12478:12549   */\n          tag_91\n          jump\t// in\n        tag_220:\n            /* \"#utility.yul\":12559:12631   */\n          tag_221\n            /* \"#utility.yul\":12627:12629   */\n          0x20\n            /* \"#utility.yul\":12616:12625   */\n          dup4\n            /* \"#utility.yul\":12612:12630   */\n          add\n            /* \"#utility.yul\":12603:12609   */\n          dup6\n            /* \"#utility.yul\":12559:12631   */\n          tag_75\n          jump\t// in\n        tag_221:\n            /* \"#utility.yul\":12641:12713   */\n          tag_222\n            /* \"#utility.yul\":12709:12711   */\n          0x40\n            /* \"#utility.yul\":12698:12707   */\n          dup4\n            /* \"#utility.yul\":12694:12712   */\n          add\n            /* \"#utility.yul\":12685:12691   */\n          dup5\n            /* \"#utility.yul\":12641:12713   */\n          tag_103\n          jump\t// in\n        tag_222:\n            /* \"#utility.yul\":12278:12720   */\n          swap5\n          swap4\n          pop\n          pop\n          pop\n          pop\n          jump\t// out\n\n        auxdata: 0xa264697066735822122057289f3cec45271086ee4352eed660db3724ba7e36b81da6806840bddad6df8964736f6c634300081a0033\n    }\n}\n\nsub_2: assembly {\n        /* \"TimeUnit.sol\":72:409  contract TimeUnit {... */\n      mstore(0x40, 0x80)\n      callvalue\n      dup1\n      iszero\n      tag_1\n      jumpi\n      0x00\n      dup1\n      revert\n    tag_1:\n      pop\n      dataSize(sub_0)\n      dup1\n      dataOffset(sub_0)\n      0x00\n      codecopy\n      0x00\n      return\n    stop\n\n    sub_0: assembly {\n            /* \"TimeUnit.sol\":72:409  contract TimeUnit {... */\n          mstore(0x40, 0x80)\n          callvalue\n          dup1\n          iszero\n          tag_1\n          jumpi\n          0x00\n          dup1\n          revert\n        tag_1:\n          pop\n          jumpi(tag_2, lt(calldatasize, 0x04))\n          shr(0xe0, calldataload(0x00))\n          dup1\n          0x4f61fd68\n          eq\n          tag_3\n          jumpi\n          dup1\n          0x7bab61bc\n          eq\n          tag_4\n          jumpi\n          dup1\n          0x7e2eee53\n          eq\n          tag_5\n          jumpi\n          dup1\n          0xf4176b22\n          eq\n          tag_6\n          jumpi\n        tag_2:\n          0x00\n          dup1\n          revert\n            /* \"TimeUnit.sol\":279:406  function isTimeExceeded() public view returns (bool) {... */\n        tag_3:\n          tag_7\n          tag_8\n          jump\t// in\n        tag_7:\n          mload(0x40)\n          tag_9\n          swap2\n          swap1\n          tag_10\n          jump\t// in\n        tag_9:\n          mload(0x40)\n          dup1\n          swap2\n          sub\n          swap1\n          return\n            /* \"TimeUnit.sol\":97:125  uint public latestActionTime */\n        tag_4:\n          tag_11\n          tag_12\n          jump\t// in\n        tag_11:\n          mload(0x40)\n          tag_13\n          swap2\n          swap1\n          tag_14\n          jump\t// in\n        tag_13:\n          mload(0x40)\n          dup1\n          swap2\n          sub\n          swap1\n          return\n            /* \"TimeUnit.sol\":132:174  uint public constant delayTime = 1 minutes */\n        tag_5:\n          tag_15\n          tag_16\n          jump\t// in\n        tag_15:\n          mload(0x40)\n          tag_17\n          swap2\n          swap1\n          tag_14\n          jump\t// in\n        tag_17:\n          mload(0x40)\n          dup1\n          swap2\n          sub\n          swap1\n          return\n            /* \"TimeUnit.sol\":183:271  function updateActionTime() public {... */\n        tag_6:\n          tag_18\n          tag_19\n          jump\t// in\n        tag_18:\n          stop\n            /* \"TimeUnit.sol\":279:406  function isTimeExceeded() public view returns (bool) {... */\n        tag_8:\n            /* \"TimeUnit.sol\":326:330  bool */\n          0x00\n            /* \"TimeUnit.sol\":165:174  1 minutes */\n          0x3c\n            /* \"TimeUnit.sol\":369:385  latestActionTime */\n          sload(0x00)\n            /* \"TimeUnit.sol\":351:366  block.timestamp */\n          timestamp\n            /* \"TimeUnit.sol\":351:385  block.timestamp - latestActionTime */\n          tag_21\n          swap2\n          swap1\n          tag_22\n          jump\t// in\n        tag_21:\n            /* \"TimeUnit.sol\":350:398  (block.timestamp - latestActionTime) > delayTime */\n          gt\n            /* \"TimeUnit.sol\":343:398  return (block.timestamp - latestActionTime) > delayTime */\n          swap1\n          pop\n            /* \"TimeUnit.sol\":279:406  function isTimeExceeded() public view returns (bool) {... */\n          swap1\n          jump\t// out\n            /* \"TimeUnit.sol\":97:125  uint public latestActionTime */\n        tag_12:\n          sload(0x00)\n          dup2\n          jump\t// out\n            /* \"TimeUnit.sol\":132:174  uint public constant delayTime = 1 minutes */\n        tag_16:\n            /* \"TimeUnit.sol\":165:174  1 minutes */\n          0x3c\n            /* \"TimeUnit.sol\":132:174  uint public constant delayTime = 1 minutes */\n          dup2\n          jump\t// out\n            /* \"TimeUnit.sol\":183:271  function updateActionTime() public {... */\n        tag_19:\n            /* \"TimeUnit.sol\":248:263  block.timestamp */\n          timestamp\n            /* \"TimeUnit.sol\":229:245  latestActionTime */\n          0x00\n            /* \"TimeUnit.sol\":229:263  latestActionTime = block.timestamp */\n          dup2\n          swap1\n          sstore\n          pop\n            /* \"TimeUnit.sol\":183:271  function updateActionTime() public {... */\n          jump\t// out\n            /* \"#utility.yul\":7:97   */\n        tag_24:\n            /* \"#utility.yul\":41:48   */\n          0x00\n            /* \"#utility.yul\":84:89   */\n          dup2\n            /* \"#utility.yul\":77:90   */\n          iszero\n            /* \"#utility.yul\":70:91   */\n          iszero\n            /* \"#utility.yul\":59:91   */\n          swap1\n          pop\n            /* \"#utility.yul\":7:97   */\n          swap2\n          swap1\n          pop\n          jump\t// out\n            /* \"#utility.yul\":103:212   */\n        tag_25:\n            /* \"#utility.yul\":184:205   */\n          tag_32\n            /* \"#utility.yul\":199:204   */\n          dup2\n            /* \"#utility.yul\":184:205   */\n          tag_24\n          jump\t// in\n        tag_32:\n            /* \"#utility.yul\":179:182   */\n          dup3\n            /* \"#utility.yul\":172:206   */\n          mstore\n            /* \"#utility.yul\":103:212   */\n          pop\n          pop\n          jump\t// out\n            /* \"#utility.yul\":218:428   */\n        tag_10:\n            /* \"#utility.yul\":305:309   */\n          0x00\n            /* \"#utility.yul\":343:345   */\n          0x20\n            /* \"#utility.yul\":332:341   */\n          dup3\n            /* \"#utility.yul\":328:346   */\n          add\n            /* \"#utility.yul\":320:346   */\n          swap1\n          pop\n            /* \"#utility.yul\":356:421   */\n          tag_34\n            /* \"#utility.yul\":418:419   */\n          0x00\n            /* \"#utility.yul\":407:416   */\n          dup4\n            /* \"#utility.yul\":403:420   */\n          add\n            /* \"#utility.yul\":394:400   */\n          dup5\n            /* \"#utility.yul\":356:421   */\n          tag_25\n          jump\t// in\n        tag_34:\n            /* \"#utility.yul\":218:428   */\n          swap3\n          swap2\n          pop\n          pop\n          jump\t// out\n            /* \"#utility.yul\":434:511   */\n        tag_26:\n            /* \"#utility.yul\":471:478   */\n          0x00\n            /* \"#utility.yul\":500:505   */\n          dup2\n            /* \"#utility.yul\":489:505   */\n          swap1\n          pop\n            /* \"#utility.yul\":434:511   */\n          swap2\n          swap1\n          pop\n          jump\t// out\n            /* \"#utility.yul\":517:635   */\n        tag_27:\n            /* \"#utility.yul\":604:628   */\n          tag_37\n            /* \"#utility.yul\":622:627   */\n          dup2\n            /* \"#utility.yul\":604:628   */\n          tag_26\n          jump\t// in\n        tag_37:\n            /* \"#utility.yul\":599:602   */\n          dup3\n            /* \"#utility.yul\":592:629   */\n          mstore\n            /* \"#utility.yul\":517:635   */\n          pop\n          pop\n          jump\t// out\n            /* \"#utility.yul\":641:863   */\n        tag_14:\n            /* \"#utility.yul\":734:738   */\n          0x00\n            /* \"#utility.yul\":772:774   */\n          0x20\n            /* \"#utility.yul\":761:770   */\n          dup3\n            /* \"#utility.yul\":757:775   */\n          add\n            /* \"#utility.yul\":749:775   */\n          swap1\n          pop\n            /* \"#utility.yul\":785:856   */\n          tag_39\n            /* \"#utility.yul\":853:854   */\n          0x00\n            /* \"#utility.yul\":842:851   */\n          dup4\n            /* \"#utility.yul\":838:855   */\n          add\n            /* \"#utility.yul\":829:835   */\n          dup5\n            /* \"#utility.yul\":785:856   */\n          tag_27\n          jump\t// in\n        tag_39:\n            /* \"#utility.yul\":641:863   */\n          swap3\n          swap2\n          pop\n          pop\n          jump\t// out\n            /* \"#utility.yul\":869:1049   */\n        tag_28:\n            /* \"#utility.yul\":917:994   */\n          0x4e487b7100000000000000000000000000000000000000000000000000000000\n            /* \"#utility.yul\":914:915   */\n          0x00\n            /* \"#utility.yul\":907:995   */\n          mstore\n            /* \"#utility.yul\":1014:1018   */\n          0x11\n            /* \"#utility.yul\":1011:1012   */\n          0x04\n            /* \"#utility.yul\":1004:1019   */\n          mstore\n            /* \"#utility.yul\":1038:1042   */\n          0x24\n            /* \"#utility.yul\":1035:1036   */\n          0x00\n            /* \"#utility.yul\":1028:1043   */\n          revert\n            /* \"#utility.yul\":1055:1249   */\n        tag_22:\n            /* \"#utility.yul\":1095:1099   */\n          0x00\n            /* \"#utility.yul\":1115:1135   */\n          tag_42\n            /* \"#utility.yul\":1133:1134   */\n          dup3\n            /* \"#utility.yul\":1115:1135   */\n          tag_26\n          jump\t// in\n        tag_42:\n            /* \"#utility.yul\":1110:1135   */\n          swap2\n          pop\n            /* \"#utility.yul\":1149:1169   */\n          tag_43\n            /* \"#utility.yul\":1167:1168   */\n          dup4\n            /* \"#utility.yul\":1149:1169   */\n          tag_26\n          jump\t// in\n        tag_43:\n            /* \"#utility.yul\":1144:1169   */\n          swap3\n          pop\n            /* \"#utility.yul\":1193:1194   */\n          dup3\n            /* \"#utility.yul\":1190:1191   */\n          dup3\n            /* \"#utility.yul\":1186:1195   */\n          sub\n            /* \"#utility.yul\":1178:1195   */\n          swap1\n          pop\n            /* \"#utility.yul\":1217:1218   */\n          dup2\n            /* \"#utility.yul\":1211:1215   */\n          dup2\n            /* \"#utility.yul\":1208:1219   */\n          gt\n            /* \"#utility.yul\":1205:1242   */\n          iszero\n          tag_44\n          jumpi\n            /* \"#utility.yul\":1222:1240   */\n          tag_45\n          tag_28\n          jump\t// in\n        tag_45:\n            /* \"#utility.yul\":1205:1242   */\n        tag_44:\n            /* \"#utility.yul\":1055:1249   */\n          swap3\n          swap2\n          pop\n          pop\n          jump\t// out\n\n        auxdata: 0xa264697066735822122030103acd46643b40175aa0d0961d3e43945a67172480956cc1eb08b0362eb33964736f6c634300081a0033\n    }\n}\n",
				"bytecode": {
					"linkReferences": {},
					"object": "60806040525f6003555f6004555f6007555f60085534801561001f575f80fd5b50604051613048380380613048833981810160405281019061004191906101c8565b60405161004d90610150565b604051809103905ff080158015610066573d5f803e3d5ffd5b505f806101000a81548173ffffffffffffffffffffffffffffffffffffffff021916908373ffffffffffffffffffffffffffffffffffffffff1602179055506040516100b19061015d565b604051809103905ff0801580156100ca573d5f803e3d5ffd5b5060015f6101000a81548173ffffffffffffffffffffffffffffffffffffffff021916908373ffffffffffffffffffffffffffffffffffffffff1602179055508060025f6101000a81548173ffffffffffffffffffffffffffffffffffffffff021916908373ffffffffffffffffffffffffffffffffffffffff160217905550506101f3565b61104680611e1283390190565b6101f080612e5883390190565b5f80fd5b5f73ffffffffffffffffffffffffffffffffffffffff82169050919050565b5f6101978261016e565b9050919050565b6101a78161018d565b81146101b1575f80fd5b50565b5f815190506101c28161019e565b92915050565b5f602082840312156101dd576101dc61016a565b5b5f6101ea848285016101b4565b91505092915050565b611c12806102005f395ff3fe608060405234801561000f575f80fd5b50600436106100e8575f3560e01c806390d5d0c31161008a578063a040478d11610064578063a040478d146101ee578063a9c6921a1461021e578063d5b307141461023a578063f71d96cb1461026a576100e8565b806390d5d0c3146101945780639b2c1d40146101b25780639d7b3f2d146101d0576100e8565b80633c6a7f9b116100c65780633c6a7f9b14610132578063590e1ae31461015057806365ce0ac61461015a57806373b295c214610176576100e8565b8063228cb733146100ec57806327b5db8a1461010a5780632f23116314610114575b5f80fd5b6100f461029a565b60405161010191906113b2565b60405180910390f35b6101126102a0565b005b61011c6105bb565b60405161012991906113b2565b60405180910390f35b61013a6105c1565b6040516101479190611445565b60405180910390f35b6101586105e6565b005b610174600480360381019061016f9190611495565b6109b8565b005b61017e610b7f565b60405161018b91906114e0565b60405180910390f35b61019c610ba4565b6040516101a991906113b2565b60405180910390f35b6101ba610baa565b6040516101c791906113b2565b60405180910390f35b6101d8610bb0565b6040516101e59190611519565b60405180910390f35b6102086004803603810190610203919061156d565b610bd3565b60405161021591906113b2565b60405180910390f35b61023860048036038101906102339190611495565b610be8565b005b610254600480360381019061024f9190611495565b610d4a565b60405161026191906115b3565b60405180910390f35b610284600480360381019061027f91906115f6565b610d88565b6040516102919190611630565b60405180910390f35b60045481565b6002600354106102e5576040517f08c379a00000000000000000000000000000000000000000000000000000000081526004016102dc906116a3565b60405180910390fd5b5f64e8d4a5100090508060025f9054906101000a900473ffffffffffffffffffffffffffffffffffffffff1673ffffffffffffffffffffffffffffffffffffffff1663dd62ed3e33306040518363ffffffff1660e01b815260040161034b9291906116c1565b602060405180830381865afa158015610366573d5f803e3d5ffd5b505050506040513d601f19601f8201168201806040525081019061038a91906116fc565b10156103cb576040517f08c379a00000000000000000000000000000000000000000000000000000000081526004016103c290611771565b60405180910390fd5b60025f9054906101000a900473ffffffffffffffffffffffffffffffffffffffff1673ffffffffffffffffffffffffffffffffffffffff166323b872dd3330846040518463ffffffff1660e01b81526004016104299392919061178f565b6020604051808303815f875af1158015610445573d5f803e3d5ffd5b505050506040513d601f19601f8201168201806040525081019061046991906117f9565b508060045f82825461047b9190611851565b92505081905550600633908060018154018082558091505060019003905f5260205f20015f9091909190916101000a81548173ffffffffffffffffffffffffffffffffffffffff021916908373ffffffffffffffffffffffffffffffffffffffff16021790555060035f8154809291906104f490611884565b919050555060015f9054906101000a900473ffffffffffffffffffffffffffffffffffffffff1673ffffffffffffffffffffffffffffffffffffffff1663f4176b226040518163ffffffff1660e01b81526004015f604051808303815f87803b15801561055f575f80fd5b505af1158015610571573d5f803e3d5ffd5b505050503373ffffffffffffffffffffffffffffffffffffffff167ff2ae205522024c14e5a7a26ba6d1fb1252dc8e161b5abc79ed5795fd3c5b926160405160405180910390a250565b60075481565b60015f9054906101000a900473ffffffffffffffffffffffffffffffffffffffff1681565b60015f9054906101000a900473ffffffffffffffffffffffffffffffffffffffff1673ffffffffffffffffffffffffffffffffffffffff16634f61fd686040518163ffffffff1660e01b8152600401602060405180830381865afa158015610650573d5f803e3d5ffd5b505050506040513d601f19601f8201168201806040525081019061067491906117f9565b6106b3576040517f08c379a00000000000000000000000000000000000000000000000000000000081526004016106aa90611915565b60405180910390fd5b5f600354116106f7576040517f08c379a00000000000000000000000000000000000000000000000000000000081526004016106ee9061197d565b60405180910390fd5b6001600354036107e05760025f9054906101000a900473ffffffffffffffffffffffffffffffffffffffff1673ffffffffffffffffffffffffffffffffffffffff1663a9059cbb60065f815481106107525761075161199b565b5b905f5260205f20015f9054906101000a900473ffffffffffffffffffffffffffffffffffffffff166004546040518363ffffffff1660e01b815260040161079a9291906119c8565b6020604051808303815f875af11580156107b6573d5f803e3d5ffd5b505050506040513d601f19601f820116820180604052508101906107da91906117f9565b506109ae565b60025f9054906101000a900473ffffffffffffffffffffffffffffffffffffffff1673ffffffffffffffffffffffffffffffffffffffff1663a9059cbb60065f815481106108315761083061199b565b5b905f5260205f20015f9054906101000a900473ffffffffffffffffffffffffffffffffffffffff1660026004546108689190611a1c565b6040518363ffffffff1660e01b81526004016108859291906119c8565b6020604051808303815f875af11580156108a1573d5f803e3d5ffd5b505050506040513d601f19601f820116820180604052508101906108c591906117f9565b5060025f9054906101000a900473ffffffffffffffffffffffffffffffffffffffff1673ffffffffffffffffffffffffffffffffffffffff1663a9059cbb60066001815481106109185761091761199b565b5b905f5260205f20015f9054906101000a900473ffffffffffffffffffffffffffffffffffffffff16600260045461094f9190611a1c565b6040518363ffffffff1660e01b815260040161096c9291906119c8565b6020604051808303815f875af1158015610988573d5f803e3d5ffd5b505050506040513d601f19601f820116820180604052508101906109ac91906117f9565b505b6109b6610dc3565b565b6002600754146109fd576040517f08c379a00000000000000000000000000000000000000000000000000000000081526004016109f490611abc565b60405180910390fd5b5f8054906101000a900473ffffffffffffffffffffffffffffffffffffffff1673ffffffffffffffffffffffffffffffffffffffff1663ad48779082336040518363ffffffff1660e01b8152600401610a57929190611ae9565b5f604051808303815f87803b158015610a6e575f80fd5b505af1158015610a80573d5f803e3d5ffd5b505050505f610a8e82610d4a565b90508060ff1660055f3373ffffffffffffffffffffffffffffffffffffffff1673ffffffffffffffffffffffffffffffffffffffff1681526020019081526020015f208190555060085f815480929190610ae790611884565b9190505550600260085403610aff57610afe610e1a565b5b60015f9054906101000a900473ffffffffffffffffffffffffffffffffffffffff1673ffffffffffffffffffffffffffffffffffffffff1663f4176b226040518163ffffffff1660e01b81526004015f604051808303815f87803b158015610b65575f80fd5b505af1158015610b77573d5f803e3d5ffd5b505050505050565b60025f9054906101000a900473ffffffffffffffffffffffffffffffffffffffff1681565b60035481565b60085481565b5f8054906101000a900473ffffffffffffffffffffffffffffffffffffffff1681565b6005602052805f5260405f205f915090505481565b600260035414610c2d576040517f08c379a0000000000000000000000000000000000000000000000000000000008152600401610c2490611b5a565b60405180910390fd5b5f8054906101000a900473ffffffffffffffffffffffffffffffffffffffff1673ffffffffffffffffffffffffffffffffffffffff16635a74610182336040518363ffffffff1660e01b8152600401610c87929190611ae9565b5f604051808303815f87803b158015610c9e575f80fd5b505af1158015610cb0573d5f803e3d5ffd5b5050505060075f815480929190610cc690611884565b919050555060015f9054906101000a900473ffffffffffffffffffffffffffffffffffffffff1673ffffffffffffffffffffffffffffffffffffffff1663f4176b226040518163ffffffff1660e01b81526004015f604051808303815f87803b158015610d31575f80fd5b505af1158015610d43573d5f803e3d5ffd5b5050505050565b5f60058260016020610d5c9190611b78565b60ff1660208110610d7057610d6f61199b565b5b1a60f81b60f81c610d819190611bac565b9050919050565b60068181548110610d97575f80fd5b905f5260205f20015f915054906101000a900473ffffffffffffffffffffffffffffffffffffffff1681565b5f6003819055505f6004819055505f6007819055505f6008819055507fc6976b6410888b44c765590c8368eb4a60e0431d4ad683c8a53ea85a8479f22e60405160405180910390a160065f610e189190611361565b565b5f60055f60065f81548110610e3257610e3161199b565b5b905f5260205f20015f9054906101000a900473ffffffffffffffffffffffffffffffffffffffff1673ffffffffffffffffffffffffffffffffffffffff1673ffffffffffffffffffffffffffffffffffffffff1681526020019081526020015f205490505f60055f6006600181548110610eaf57610eae61199b565b5b905f5260205f20015f9054906101000a900473ffffffffffffffffffffffffffffffffffffffff1673ffffffffffffffffffffffffffffffffffffffff1673ffffffffffffffffffffffffffffffffffffffff1681526020019081526020015f205490505f610f1e83836112b8565b15610f665760065f81548110610f3757610f3661199b565b5b905f5260205f20015f9054906101000a900473ffffffffffffffffffffffffffffffffffffffff169050610fb6565b610f7082846112b8565b15610fb5576006600181548110610f8a57610f8961199b565b5b905f5260205f20015f9054906101000a900473ffffffffffffffffffffffffffffffffffffffff1690505b5b5f73ffffffffffffffffffffffffffffffffffffffff168173ffffffffffffffffffffffffffffffffffffffff16146110dd5760025f9054906101000a900473ffffffffffffffffffffffffffffffffffffffff1673ffffffffffffffffffffffffffffffffffffffff1663a9059cbb826004546040518363ffffffff1660e01b81526004016110479291906119c8565b6020604051808303815f875af1158015611063573d5f803e3d5ffd5b505050506040513d601f19601f8201168201806040525081019061108791906117f9565b508073ffffffffffffffffffffffffffffffffffffffff167f9c2270628a9b29d30ae96b6c4c14ed646ee134febdce38a5b77f2bde9cea2e206004546040516110d091906113b2565b60405180910390a26112ab565b60025f9054906101000a900473ffffffffffffffffffffffffffffffffffffffff1673ffffffffffffffffffffffffffffffffffffffff1663a9059cbb60065f8154811061112e5761112d61199b565b5b905f5260205f20015f9054906101000a900473ffffffffffffffffffffffffffffffffffffffff1660026004546111659190611a1c565b6040518363ffffffff1660e01b81526004016111829291906119c8565b6020604051808303815f875af115801561119e573d5f803e3d5ffd5b505050506040513d601f19601f820116820180604052508101906111c291906117f9565b5060025f9054906101000a900473ffffffffffffffffffffffffffffffffffffffff1673ffffffffffffffffffffffffffffffffffffffff1663a9059cbb60066001815481106112155761121461199b565b5b905f5260205f20015f9054906101000a900473ffffffffffffffffffffffffffffffffffffffff16600260045461124c9190611a1c565b6040518363ffffffff1660e01b81526004016112699291906119c8565b6020604051808303815f875af1158015611285573d5f803e3d5ffd5b505050506040513d601f19601f820116820180604052508101906112a991906117f9565b505b6112b3610dc3565b505050565b5f80831480156112d3575060028214806112d25750600382145b5b806112f457506001831480156112f357505f8214806112f25750600482145b5b5b806113165750600283148015611315575060018214806113145750600382145b5b5b806113385750600383148015611337575060018214806113365750600482145b5b5b80611359575060048314801561135857505f8214806113575750600282145b5b5b905092915050565b5080545f8255905f5260205f209081019061137c919061137f565b50565b5b80821115611396575f815f905550600101611380565b5090565b5f819050919050565b6113ac8161139a565b82525050565b5f6020820190506113c55f8301846113a3565b92915050565b5f73ffffffffffffffffffffffffffffffffffffffff82169050919050565b5f819050919050565b5f61140d611408611403846113cb565b6113ea565b6113cb565b9050919050565b5f61141e826113f3565b9050919050565b5f61142f82611414565b9050919050565b61143f81611425565b82525050565b5f6020820190506114585f830184611436565b92915050565b5f80fd5b5f819050919050565b61147481611462565b811461147e575f80fd5b50565b5f8135905061148f8161146b565b92915050565b5f602082840312156114aa576114a961145e565b5b5f6114b784828501611481565b91505092915050565b5f6114ca82611414565b9050919050565b6114da816114c0565b82525050565b5f6020820190506114f35f8301846114d1565b92915050565b5f61150382611414565b9050919050565b611513816114f9565b82525050565b5f60208201905061152c5f83018461150a565b92915050565b5f61153c826113cb565b9050919050565b61154c81611532565b8114611556575f80fd5b50565b5f8135905061156781611543565b92915050565b5f602082840312156115825761158161145e565b5b5f61158f84828501611559565b91505092915050565b5f60ff82169050919050565b6115ad81611598565b82525050565b5f6020820190506115c65f8301846115a4565b92915050565b6115d58161139a565b81146115df575f80fd5b50565b5f813590506115f0816115cc565b92915050565b5f6020828403121561160b5761160a61145e565b5b5f611618848285016115e2565b91505092915050565b61162a81611532565b82525050565b5f6020820190506116435f830184611621565b92915050565b5f82825260208201905092915050565b7f416c7265616479203220706c61796572732e00000000000000000000000000005f82015250565b5f61168d601283611649565b915061169882611659565b602082019050919050565b5f6020820190508181035f8301526116ba81611681565b9050919050565b5f6040820190506116d45f830185611621565b6116e16020830184611621565b9392505050565b5f815190506116f6816115cc565b92915050565b5f602082840312156117115761171061145e565b5b5f61171e848285016116e8565b91505092915050565b7f574156415820616c6c6f77616e636520746f6f206c6f770000000000000000005f82015250565b5f61175b601783611649565b915061176682611727565b602082019050919050565b5f6020820190508181035f8301526117888161174f565b9050919050565b5f6060820190506117a25f830186611621565b6117af6020830185611621565b6117bc60408301846113a3565b949350505050565b5f8115159050919050565b6117d8816117c4565b81146117e2575f80fd5b50565b5f815190506117f3816117cf565b92915050565b5f6020828403121561180e5761180d61145e565b5b5f61181b848285016117e5565b91505092915050565b7f4e487b71000000000000000000000000000000000000000000000000000000005f52601160045260245ffd5b5f61185b8261139a565b91506118668361139a565b925082820190508082111561187e5761187d611824565b5b92915050565b5f61188e8261139a565b91507fffffffffffffffffffffffffffffffffffffffffffffffffffffffffffffffff82036118c0576118bf611824565b5b600182019050919050565b7f526566756e6420706572696f64206e6f7420656c6170736564000000000000005f82015250565b5f6118ff601983611649565b915061190a826118cb565b602082019050919050565b5f6020820190508181035f83015261192c816118f3565b9050919050565b7f4e6f206163746976652067616d650000000000000000000000000000000000005f82015250565b5f611967600e83611649565b915061197282611933565b602082019050919050565b5f6020820190508181035f8301526119948161195b565b9050919050565b7f4e487b71000000000000000000000000000000000000000000000000000000005f52603260045260245ffd5b5f6040820190506119db5f830185611621565b6119e860208301846113a3565b9392505050565b7f4e487b71000000000000000000000000000000000000000000000000000000005f52601260045260245ffd5b5f611a268261139a565b9150611a318361139a565b925082611a4157611a406119ef565b5b828204905092915050565b7f426f746820706c6179657273206d75737420636f6d6d6974206265666f7265205f8201527f72657665616c696e672e00000000000000000000000000000000000000000000602082015250565b5f611aa6602a83611649565b9150611ab182611a4c565b604082019050919050565b5f6020820190508181035f830152611ad381611a9a565b9050919050565b611ae381611462565b82525050565b5f604082019050611afc5f830185611ada565b611b096020830184611621565b9392505050565b7f47616d65206973206e6f742072656164792e00000000000000000000000000005f82015250565b5f611b44601283611649565b9150611b4f82611b10565b602082019050919050565b5f6020820190508181035f830152611b7181611b38565b9050919050565b5f611b8282611598565b9150611b8d83611598565b9250828203905060ff811115611ba657611ba5611824565b5b92915050565b5f611bb682611598565b9150611bc183611598565b925082611bd157611bd06119ef565b5b82820690509291505056fea2646970667358221220daf15c0432e2aee418e03d8380c0c1778c80ad29b2d7a1b03663d2b8145783c064736f6c634300081a0033608060405260645f806101000a81548160ff021916908360ff1602179055503480156028575f80fd5b50611010806100365f395ff3fe608060405234801561000f575f80fd5b5060043610610060575f3560e01c80633cf5040a146100645780635a746101146100945780636ac5db19146100b05780637b43a8e6146100ce5780638696b88714610101578063ad48779014610132575b5f80fd5b61007e60048036038101906100799190610933565b61014e565b60405161008b919061096d565b60405180910390f35b6100ae60048036038101906100a991906109e0565b61017d565b005b6100b861043b565b6040516100c59190610a39565b60405180910390f35b6100e860048036038101906100e39190610a52565b61044b565b6040516100f89493929190610ab9565b60405180910390f35b61011b60048036038101906101169190610a52565b6104a4565b604051610129929190610afc565b60405180910390f35b61014c600480360381019061014791906109e0565b61053d565b005b5f816040516020016101609190610b43565b604051602081830303815290604052805190602001209050919050565b5f151560015f8373ffffffffffffffffffffffffffffffffffffffff1673ffffffffffffffffffffffffffffffffffffffff1681526020019081526020015f2060010160099054906101000a900460ff16151514610210576040517f08c379a000000000000000000000000000000000000000000000000000000000815260040161020790610bdd565b60405180910390fd5b8160015f8373ffffffffffffffffffffffffffffffffffffffff1673ffffffffffffffffffffffffffffffffffffffff1681526020019081526020015f205f01819055506001805f8373ffffffffffffffffffffffffffffffffffffffff1673ffffffffffffffffffffffffffffffffffffffff1681526020019081526020015f2060010160096101000a81548160ff0219169083151502179055504360015f8373ffffffffffffffffffffffffffffffffffffffff1673ffffffffffffffffffffffffffffffffffffffff1681526020019081526020015f206001015f6101000a81548167ffffffffffffffff021916908367ffffffffffffffff1602179055505f60015f8373ffffffffffffffffffffffffffffffffffffffff1673ffffffffffffffffffffffffffffffffffffffff1681526020019081526020015f2060010160086101000a81548160ff0219169083151502179055507f3c1a1f8f38335b17f751c6da4ba7d1865f26b3997535176f5080de9fad8916038160015f8473ffffffffffffffffffffffffffffffffffffffff1673ffffffffffffffffffffffffffffffffffffffff1681526020019081526020015f205f015460015f8573ffffffffffffffffffffffffffffffffffffffff1673ffffffffffffffffffffffffffffffffffffffff1681526020019081526020015f206001015f9054906101000a900467ffffffffffffffff1660405161042f93929190610c0a565b60405180910390a15050565b5f8054906101000a900460ff1681565b6001602052805f5260405f205f91509050805f015490806001015f9054906101000a900467ffffffffffffffff16908060010160089054906101000a900460ff16908060010160099054906101000a900460ff16905084565b5f8060015f8473ffffffffffffffffffffffffffffffffffffffff1673ffffffffffffffffffffffffffffffffffffffff1681526020019081526020015f205f015460015f8573ffffffffffffffffffffffffffffffffffffffff1673ffffffffffffffffffffffffffffffffffffffff1681526020019081526020015f2060010160089054906101000a900460ff1691509150915091565b5f151560015f8373ffffffffffffffffffffffffffffffffffffffff1673ffffffffffffffffffffffffffffffffffffffff1681526020019081526020015f2060010160089054906101000a900460ff161515146105d0576040517f08c379a00000000000000000000000000000000000000000000000000000000081526004016105c790610caf565b60405180910390fd5b6001805f8373ffffffffffffffffffffffffffffffffffffffff1673ffffffffffffffffffffffffffffffffffffffff1681526020019081526020015f2060010160086101000a81548160ff02191690831515021790555060015f8273ffffffffffffffffffffffffffffffffffffffff1673ffffffffffffffffffffffffffffffffffffffff1681526020019081526020015f205f01546106718361014e565b146106b1576040517f08c379a00000000000000000000000000000000000000000000000000000000081526004016106a890610d3d565b60405180910390fd5b60015f8273ffffffffffffffffffffffffffffffffffffffff1673ffffffffffffffffffffffffffffffffffffffff1681526020019081526020015f206001015f9054906101000a900467ffffffffffffffff1667ffffffffffffffff164367ffffffffffffffff161161075a576040517f08c379a000000000000000000000000000000000000000000000000000000000815260040161075190610df1565b60405180910390fd5b60fa60015f8373ffffffffffffffffffffffffffffffffffffffff1673ffffffffffffffffffffffffffffffffffffffff1681526020019081526020015f206001015f9054906101000a900467ffffffffffffffff166107ba9190610e3c565b67ffffffffffffffff164367ffffffffffffffff161115610810576040517f08c379a000000000000000000000000000000000000000000000000000000000815260040161080790610ee7565b60405180910390fd5b5f60015f8373ffffffffffffffffffffffffffffffffffffffff1673ffffffffffffffffffffffffffffffffffffffff1681526020019081526020015f206001015f9054906101000a900467ffffffffffffffff1667ffffffffffffffff164090505f805f9054906101000a900460ff1660ff168285604051602001610897929190610f05565b604051602081830303815290604052805190602001205f1c6108b99190610f66565b90507fbc016dd1cadeaefcb851af7a0a93532e0023d536894b730801f7bcfe7065bcc28385836040516108ee93929190610fa5565b60405180910390a150505050565b5f80fd5b5f819050919050565b61091281610900565b811461091c575f80fd5b50565b5f8135905061092d81610909565b92915050565b5f60208284031215610948576109476108fc565b5b5f6109558482850161091f565b91505092915050565b61096781610900565b82525050565b5f6020820190506109805f83018461095e565b92915050565b5f73ffffffffffffffffffffffffffffffffffffffff82169050919050565b5f6109af82610986565b9050919050565b6109bf816109a5565b81146109c9575f80fd5b50565b5f813590506109da816109b6565b92915050565b5f80604083850312156109f6576109f56108fc565b5b5f610a038582860161091f565b9250506020610a14858286016109cc565b9150509250929050565b5f60ff82169050919050565b610a3381610a1e565b82525050565b5f602082019050610a4c5f830184610a2a565b92915050565b5f60208284031215610a6757610a666108fc565b5b5f610a74848285016109cc565b91505092915050565b5f67ffffffffffffffff82169050919050565b610a9981610a7d565b82525050565b5f8115159050919050565b610ab381610a9f565b82525050565b5f608082019050610acc5f83018761095e565b610ad96020830186610a90565b610ae66040830185610aaa565b610af36060830184610aaa565b95945050505050565b5f604082019050610b0f5f83018561095e565b610b1c6020830184610aaa565b9392505050565b5f819050919050565b610b3d610b3882610900565b610b23565b82525050565b5f610b4e8284610b2c565b60208201915081905092915050565b5f82825260208201905092915050565b7f436f6d6d697452657665616c3a3a636f6d6d69743a20416c726561647920636f5f8201527f6d6d697465640000000000000000000000000000000000000000000000000000602082015250565b5f610bc7602683610b5d565b9150610bd282610b6d565b604082019050919050565b5f6020820190508181035f830152610bf481610bbb565b9050919050565b610c04816109a5565b82525050565b5f606082019050610c1d5f830186610bfb565b610c2a602083018561095e565b610c376040830184610a90565b949350505050565b7f436f6d6d697452657665616c3a3a72657665616c3a20416c72656164792072655f8201527f7665616c65640000000000000000000000000000000000000000000000000000602082015250565b5f610c99602683610b5d565b9150610ca482610c3f565b604082019050919050565b5f6020820190508181035f830152610cc681610c8d565b9050919050565b7f436f6d6d697452657665616c3a3a72657665616c3a2052657665616c656420685f8201527f61736820646f6573206e6f74206d6174636820636f6d6d697400000000000000602082015250565b5f610d27603983610b5d565b9150610d3282610ccd565b604082019050919050565b5f6020820190508181035f830152610d5481610d1b565b9050919050565b7f436f6d6d697452657665616c3a3a72657665616c3a2052657665616c20616e645f8201527f20636f6d6d69742068617070656e6564206f6e207468652073616d6520626c6f60208201527f636b000000000000000000000000000000000000000000000000000000000000604082015250565b5f610ddb604283610b5d565b9150610de682610d5b565b606082019050919050565b5f6020820190508181035f830152610e0881610dcf565b9050919050565b7f4e487b71000000000000000000000000000000000000000000000000000000005f52601160045260245ffd5b5f610e4682610a7d565b9150610e5183610a7d565b9250828201905067ffffffffffffffff811115610e7157610e70610e0f565b5b92915050565b7f436f6d6d697452657665616c3a3a72657665616c3a2052657665616c656420745f8201527f6f6f206c61746500000000000000000000000000000000000000000000000000602082015250565b5f610ed1602783610b5d565b9150610edc82610e77565b604082019050919050565b5f6020820190508181035f830152610efe81610ec5565b9050919050565b5f610f108285610b2c565b602082019150610f208284610b2c565b6020820191508190509392505050565b5f819050919050565b7f4e487b71000000000000000000000000000000000000000000000000000000005f52601260045260245ffd5b5f610f7082610f30565b9150610f7b83610f30565b925082610f8b57610f8a610f39565b5b828206905092915050565b610f9f81610f30565b82525050565b5f606082019050610fb85f830186610bfb565b610fc5602083018561095e565b610fd26040830184610f96565b94935050505056fea264697066735822122057289f3cec45271086ee4352eed660db3724ba7e36b81da6806840bddad6df8964736f6c634300081a00336080604052348015600e575f80fd5b506101d48061001c5f395ff3fe608060405234801561000f575f80fd5b506004361061004a575f3560e01c80634f61fd681461004e5780637bab61bc1461006c5780637e2eee531461008a578063f4176b22146100a8575b5f80fd5b6100566100b2565b60405161006391906100f4565b60405180910390f35b6100746100c8565b6040516100819190610125565b60405180910390f35b6100926100cd565b60405161009f9190610125565b60405180910390f35b6100b06100d2565b005b5f603c5f54426100c2919061016b565b11905090565b5f5481565b603c81565b425f81905550565b5f8115159050919050565b6100ee816100da565b82525050565b5f6020820190506101075f8301846100e5565b92915050565b5f819050919050565b61011f8161010d565b82525050565b5f6020820190506101385f830184610116565b92915050565b7f4e487b71000000000000000000000000000000000000000000000000000000005f52601160045260245ffd5b5f6101758261010d565b91506101808361010d565b92508282039050818111156101985761019761013e565b5b9291505056fea264697066735822122030103acd46643b40175aa0d0961d3e43945a67172480956cc1eb08b0362eb33964736f6c634300081a0033",
					"opcodes": "PUSH1 0x80 PUSH1 0x40 MSTORE PUSH0 PUSH1 0x3 SSTORE PUSH0 PUSH1 0x4 SSTORE PUSH0 PUSH1 0x7 SSTORE PUSH0 PUSH1 0x8 SSTORE CALLVALUE DUP1 ISZERO PUSH2 0x1F JUMPI PUSH0 DUP1 REVERT JUMPDEST POP PUSH1 0x40 MLOAD PUSH2 0x3048 CODESIZE SUB DUP1 PUSH2 0x3048 DUP4 CODECOPY DUP2 DUP2 ADD PUSH1 0x40 MSTORE DUP2 ADD SWAP1 PUSH2 0x41 SWAP2 SWAP1 PUSH2 0x1C8 JUMP JUMPDEST PUSH1 0x40 MLOAD PUSH2 0x4D SWAP1 PUSH2 0x150 JUMP JUMPDEST PUSH1 0x40 MLOAD DUP1 SWAP2 SUB SWAP1 PUSH0 CREATE DUP1 ISZERO DUP1 ISZERO PUSH2 0x66 JUMPI RETURNDATASIZE PUSH0 DUP1 RETURNDATACOPY RETURNDATASIZE PUSH0 REVERT JUMPDEST POP PUSH0 DUP1 PUSH2 0x100 EXP DUP2 SLOAD DUP2 PUSH20 0xFFFFFFFFFFFFFFFFFFFFFFFFFFFFFFFFFFFFFFFF MUL NOT AND SWAP1 DUP4 PUSH20 0xFFFFFFFFFFFFFFFFFFFFFFFFFFFFFFFFFFFFFFFF AND MUL OR SWAP1 SSTORE POP PUSH1 0x40 MLOAD PUSH2 0xB1 SWAP1 PUSH2 0x15D JUMP JUMPDEST PUSH1 0x40 MLOAD DUP1 SWAP2 SUB SWAP1 PUSH0 CREATE DUP1 ISZERO DUP1 ISZERO PUSH2 0xCA JUMPI RETURNDATASIZE PUSH0 DUP1 RETURNDATACOPY RETURNDATASIZE PUSH0 REVERT JUMPDEST POP PUSH1 0x1 PUSH0 PUSH2 0x100 EXP DUP2 SLOAD DUP2 PUSH20 0xFFFFFFFFFFFFFFFFFFFFFFFFFFFFFFFFFFFFFFFF MUL NOT AND SWAP1 DUP4 PUSH20 0xFFFFFFFFFFFFFFFFFFFFFFFFFFFFFFFFFFFFFFFF AND MUL OR SWAP1 SSTORE POP DUP1 PUSH1 0x2 PUSH0 PUSH2 0x100 EXP DUP2 SLOAD DUP2 PUSH20 0xFFFFFFFFFFFFFFFFFFFFFFFFFFFFFFFFFFFFFFFF MUL NOT AND SWAP1 DUP4 PUSH20 0xFFFFFFFFFFFFFFFFFFFFFFFFFFFFFFFFFFFFFFFF AND MUL OR SWAP1 SSTORE POP POP PUSH2 0x1F3 JUMP JUMPDEST PUSH2 0x1046 DUP1 PUSH2 0x1E12 DUP4 CODECOPY ADD SWAP1 JUMP JUMPDEST PUSH2 0x1F0 DUP1 PUSH2 0x2E58 DUP4 CODECOPY ADD SWAP1 JUMP JUMPDEST PUSH0 DUP1 REVERT JUMPDEST PUSH0 PUSH20 0xFFFFFFFFFFFFFFFFFFFFFFFFFFFFFFFFFFFFFFFF DUP3 AND SWAP1 POP SWAP2 SWAP1 POP JUMP JUMPDEST PUSH0 PUSH2 0x197 DUP3 PUSH2 0x16E JUMP JUMPDEST SWAP1 POP SWAP2 SWAP1 POP JUMP JUMPDEST PUSH2 0x1A7 DUP2 PUSH2 0x18D JUMP JUMPDEST DUP2 EQ PUSH2 0x1B1 JUMPI PUSH0 DUP1 REVERT JUMPDEST POP JUMP JUMPDEST PUSH0 DUP2 MLOAD SWAP1 POP PUSH2 0x1C2 DUP2 PUSH2 0x19E JUMP JUMPDEST SWAP3 SWAP2 POP POP JUMP JUMPDEST PUSH0 PUSH1 0x20 DUP3 DUP5 SUB SLT ISZERO PUSH2 0x1DD JUMPI PUSH2 0x1DC PUSH2 0x16A JUMP JUMPDEST JUMPDEST PUSH0 PUSH2 0x1EA DUP5 DUP3 DUP6 ADD PUSH2 0x1B4 JUMP JUMPDEST SWAP2 POP POP SWAP3 SWAP2 POP POP JUMP JUMPDEST PUSH2 0x1C12 DUP1 PUSH2 0x200 PUSH0 CODECOPY PUSH0 RETURN INVALID PUSH1 0x80 PUSH1 0x40 MSTORE CALLVALUE DUP1 ISZERO PUSH2 0xF JUMPI PUSH0 DUP1 REVERT JUMPDEST POP PUSH1 0x4 CALLDATASIZE LT PUSH2 0xE8 JUMPI PUSH0 CALLDATALOAD PUSH1 0xE0 SHR DUP1 PUSH4 0x90D5D0C3 GT PUSH2 0x8A JUMPI DUP1 PUSH4 0xA040478D GT PUSH2 0x64 JUMPI DUP1 PUSH4 0xA040478D EQ PUSH2 0x1EE JUMPI DUP1 PUSH4 0xA9C6921A EQ PUSH2 0x21E JUMPI DUP1 PUSH4 0xD5B30714 EQ PUSH2 0x23A JUMPI DUP1 PUSH4 0xF71D96CB EQ PUSH2 0x26A JUMPI PUSH2 0xE8 JUMP JUMPDEST DUP1 PUSH4 0x90D5D0C3 EQ PUSH2 0x194 JUMPI DUP1 PUSH4 0x9B2C1D40 EQ PUSH2 0x1B2 JUMPI DUP1 PUSH4 0x9D7B3F2D EQ PUSH2 0x1D0 JUMPI PUSH2 0xE8 JUMP JUMPDEST DUP1 PUSH4 0x3C6A7F9B GT PUSH2 0xC6 JUMPI DUP1 PUSH4 0x3C6A7F9B EQ PUSH2 0x132 JUMPI DUP1 PUSH4 0x590E1AE3 EQ PUSH2 0x150 JUMPI DUP1 PUSH4 0x65CE0AC6 EQ PUSH2 0x15A JUMPI DUP1 PUSH4 0x73B295C2 EQ PUSH2 0x176 JUMPI PUSH2 0xE8 JUMP JUMPDEST DUP1 PUSH4 0x228CB733 EQ PUSH2 0xEC JUMPI DUP1 PUSH4 0x27B5DB8A EQ PUSH2 0x10A JUMPI DUP1 PUSH4 0x2F231163 EQ PUSH2 0x114 JUMPI JUMPDEST PUSH0 DUP1 REVERT JUMPDEST PUSH2 0xF4 PUSH2 0x29A JUMP JUMPDEST PUSH1 0x40 MLOAD PUSH2 0x101 SWAP2 SWAP1 PUSH2 0x13B2 JUMP JUMPDEST PUSH1 0x40 MLOAD DUP1 SWAP2 SUB SWAP1 RETURN JUMPDEST PUSH2 0x112 PUSH2 0x2A0 JUMP JUMPDEST STOP JUMPDEST PUSH2 0x11C PUSH2 0x5BB JUMP JUMPDEST PUSH1 0x40 MLOAD PUSH2 0x129 SWAP2 SWAP1 PUSH2 0x13B2 JUMP JUMPDEST PUSH1 0x40 MLOAD DUP1 SWAP2 SUB SWAP1 RETURN JUMPDEST PUSH2 0x13A PUSH2 0x5C1 JUMP JUMPDEST PUSH1 0x40 MLOAD PUSH2 0x147 SWAP2 SWAP1 PUSH2 0x1445 JUMP JUMPDEST PUSH1 0x40 MLOAD DUP1 SWAP2 SUB SWAP1 RETURN JUMPDEST PUSH2 0x158 PUSH2 0x5E6 JUMP JUMPDEST STOP JUMPDEST PUSH2 0x174 PUSH1 0x4 DUP1 CALLDATASIZE SUB DUP2 ADD SWAP1 PUSH2 0x16F SWAP2 SWAP1 PUSH2 0x1495 JUMP JUMPDEST PUSH2 0x9B8 JUMP JUMPDEST STOP JUMPDEST PUSH2 0x17E PUSH2 0xB7F JUMP JUMPDEST PUSH1 0x40 MLOAD PUSH2 0x18B SWAP2 SWAP1 PUSH2 0x14E0 JUMP JUMPDEST PUSH1 0x40 MLOAD DUP1 SWAP2 SUB SWAP1 RETURN JUMPDEST PUSH2 0x19C PUSH2 0xBA4 JUMP JUMPDEST PUSH1 0x40 MLOAD PUSH2 0x1A9 SWAP2 SWAP1 PUSH2 0x13B2 JUMP JUMPDEST PUSH1 0x40 MLOAD DUP1 SWAP2 SUB SWAP1 RETURN JUMPDEST PUSH2 0x1BA PUSH2 0xBAA JUMP JUMPDEST PUSH1 0x40 MLOAD PUSH2 0x1C7 SWAP2 SWAP1 PUSH2 0x13B2 JUMP JUMPDEST PUSH1 0x40 MLOAD DUP1 SWAP2 SUB SWAP1 RETURN JUMPDEST PUSH2 0x1D8 PUSH2 0xBB0 JUMP JUMPDEST PUSH1 0x40 MLOAD PUSH2 0x1E5 SWAP2 SWAP1 PUSH2 0x1519 JUMP JUMPDEST PUSH1 0x40 MLOAD DUP1 SWAP2 SUB SWAP1 RETURN JUMPDEST PUSH2 0x208 PUSH1 0x4 DUP1 CALLDATASIZE SUB DUP2 ADD SWAP1 PUSH2 0x203 SWAP2 SWAP1 PUSH2 0x156D JUMP JUMPDEST PUSH2 0xBD3 JUMP JUMPDEST PUSH1 0x40 MLOAD PUSH2 0x215 SWAP2 SWAP1 PUSH2 0x13B2 JUMP JUMPDEST PUSH1 0x40 MLOAD DUP1 SWAP2 SUB SWAP1 RETURN JUMPDEST PUSH2 0x238 PUSH1 0x4 DUP1 CALLDATASIZE SUB DUP2 ADD SWAP1 PUSH2 0x233 SWAP2 SWAP1 PUSH2 0x1495 JUMP JUMPDEST PUSH2 0xBE8 JUMP JUMPDEST STOP JUMPDEST PUSH2 0x254 PUSH1 0x4 DUP1 CALLDATASIZE SUB DUP2 ADD SWAP1 PUSH2 0x24F SWAP2 SWAP1 PUSH2 0x1495 JUMP JUMPDEST PUSH2 0xD4A JUMP JUMPDEST PUSH1 0x40 MLOAD PUSH2 0x261 SWAP2 SWAP1 PUSH2 0x15B3 JUMP JUMPDEST PUSH1 0x40 MLOAD DUP1 SWAP2 SUB SWAP1 RETURN JUMPDEST PUSH2 0x284 PUSH1 0x4 DUP1 CALLDATASIZE SUB DUP2 ADD SWAP1 PUSH2 0x27F SWAP2 SWAP1 PUSH2 0x15F6 JUMP JUMPDEST PUSH2 0xD88 JUMP JUMPDEST PUSH1 0x40 MLOAD PUSH2 0x291 SWAP2 SWAP1 PUSH2 0x1630 JUMP JUMPDEST PUSH1 0x40 MLOAD DUP1 SWAP2 SUB SWAP1 RETURN JUMPDEST PUSH1 0x4 SLOAD DUP2 JUMP JUMPDEST PUSH1 0x2 PUSH1 0x3 SLOAD LT PUSH2 0x2E5 JUMPI PUSH1 0x40 MLOAD PUSH32 0x8C379A000000000000000000000000000000000000000000000000000000000 DUP2 MSTORE PUSH1 0x4 ADD PUSH2 0x2DC SWAP1 PUSH2 0x16A3 JUMP JUMPDEST PUSH1 0x40 MLOAD DUP1 SWAP2 SUB SWAP1 REVERT JUMPDEST PUSH0 PUSH5 0xE8D4A51000 SWAP1 POP DUP1 PUSH1 0x2 PUSH0 SWAP1 SLOAD SWAP1 PUSH2 0x100 EXP SWAP1 DIV PUSH20 0xFFFFFFFFFFFFFFFFFFFFFFFFFFFFFFFFFFFFFFFF AND PUSH20 0xFFFFFFFFFFFFFFFFFFFFFFFFFFFFFFFFFFFFFFFF AND PUSH4 0xDD62ED3E CALLER ADDRESS PUSH1 0x40 MLOAD DUP4 PUSH4 0xFFFFFFFF AND PUSH1 0xE0 SHL DUP2 MSTORE PUSH1 0x4 ADD PUSH2 0x34B SWAP3 SWAP2 SWAP1 PUSH2 0x16C1 JUMP JUMPDEST PUSH1 0x20 PUSH1 0x40 MLOAD DUP1 DUP4 SUB DUP2 DUP7 GAS STATICCALL ISZERO DUP1 ISZERO PUSH2 0x366 JUMPI RETURNDATASIZE PUSH0 DUP1 RETURNDATACOPY RETURNDATASIZE PUSH0 REVERT JUMPDEST POP POP POP POP PUSH1 0x40 MLOAD RETURNDATASIZE PUSH1 0x1F NOT PUSH1 0x1F DUP3 ADD AND DUP3 ADD DUP1 PUSH1 0x40 MSTORE POP DUP2 ADD SWAP1 PUSH2 0x38A SWAP2 SWAP1 PUSH2 0x16FC JUMP JUMPDEST LT ISZERO PUSH2 0x3CB JUMPI PUSH1 0x40 MLOAD PUSH32 0x8C379A000000000000000000000000000000000000000000000000000000000 DUP2 MSTORE PUSH1 0x4 ADD PUSH2 0x3C2 SWAP1 PUSH2 0x1771 JUMP JUMPDEST PUSH1 0x40 MLOAD DUP1 SWAP2 SUB SWAP1 REVERT JUMPDEST PUSH1 0x2 PUSH0 SWAP1 SLOAD SWAP1 PUSH2 0x100 EXP SWAP1 DIV PUSH20 0xFFFFFFFFFFFFFFFFFFFFFFFFFFFFFFFFFFFFFFFF AND PUSH20 0xFFFFFFFFFFFFFFFFFFFFFFFFFFFFFFFFFFFFFFFF AND PUSH4 0x23B872DD CALLER ADDRESS DUP5 PUSH1 0x40 MLOAD DUP5 PUSH4 0xFFFFFFFF AND PUSH1 0xE0 SHL DUP2 MSTORE PUSH1 0x4 ADD PUSH2 0x429 SWAP4 SWAP3 SWAP2 SWAP1 PUSH2 0x178F JUMP JUMPDEST PUSH1 0x20 PUSH1 0x40 MLOAD DUP1 DUP4 SUB DUP2 PUSH0 DUP8 GAS CALL ISZERO DUP1 ISZERO PUSH2 0x445 JUMPI RETURNDATASIZE PUSH0 DUP1 RETURNDATACOPY RETURNDATASIZE PUSH0 REVERT JUMPDEST POP POP POP POP PUSH1 0x40 MLOAD RETURNDATASIZE PUSH1 0x1F NOT PUSH1 0x1F DUP3 ADD AND DUP3 ADD DUP1 PUSH1 0x40 MSTORE POP DUP2 ADD SWAP1 PUSH2 0x469 SWAP2 SWAP1 PUSH2 0x17F9 JUMP JUMPDEST POP DUP1 PUSH1 0x4 PUSH0 DUP3 DUP3 SLOAD PUSH2 0x47B SWAP2 SWAP1 PUSH2 0x1851 JUMP JUMPDEST SWAP3 POP POP DUP2 SWAP1 SSTORE POP PUSH1 0x6 CALLER SWAP1 DUP1 PUSH1 0x1 DUP2 SLOAD ADD DUP1 DUP3 SSTORE DUP1 SWAP2 POP POP PUSH1 0x1 SWAP1 SUB SWAP1 PUSH0 MSTORE PUSH1 0x20 PUSH0 KECCAK256 ADD PUSH0 SWAP1 SWAP2 SWAP1 SWAP2 SWAP1 SWAP2 PUSH2 0x100 EXP DUP2 SLOAD DUP2 PUSH20 0xFFFFFFFFFFFFFFFFFFFFFFFFFFFFFFFFFFFFFFFF MUL NOT AND SWAP1 DUP4 PUSH20 0xFFFFFFFFFFFFFFFFFFFFFFFFFFFFFFFFFFFFFFFF AND MUL OR SWAP1 SSTORE POP PUSH1 0x3 PUSH0 DUP2 SLOAD DUP1 SWAP3 SWAP2 SWAP1 PUSH2 0x4F4 SWAP1 PUSH2 0x1884 JUMP JUMPDEST SWAP2 SWAP1 POP SSTORE POP PUSH1 0x1 PUSH0 SWAP1 SLOAD SWAP1 PUSH2 0x100 EXP SWAP1 DIV PUSH20 0xFFFFFFFFFFFFFFFFFFFFFFFFFFFFFFFFFFFFFFFF AND PUSH20 0xFFFFFFFFFFFFFFFFFFFFFFFFFFFFFFFFFFFFFFFF AND PUSH4 0xF4176B22 PUSH1 0x40 MLOAD DUP2 PUSH4 0xFFFFFFFF AND PUSH1 0xE0 SHL DUP2 MSTORE PUSH1 0x4 ADD PUSH0 PUSH1 0x40 MLOAD DUP1 DUP4 SUB DUP2 PUSH0 DUP8 DUP1 EXTCODESIZE ISZERO DUP1 ISZERO PUSH2 0x55F JUMPI PUSH0 DUP1 REVERT JUMPDEST POP GAS CALL ISZERO DUP1 ISZERO PUSH2 0x571 JUMPI RETURNDATASIZE PUSH0 DUP1 RETURNDATACOPY RETURNDATASIZE PUSH0 REVERT JUMPDEST POP POP POP POP CALLER PUSH20 0xFFFFFFFFFFFFFFFFFFFFFFFFFFFFFFFFFFFFFFFF AND PUSH32 0xF2AE205522024C14E5A7A26BA6D1FB1252DC8E161B5ABC79ED5795FD3C5B9261 PUSH1 0x40 MLOAD PUSH1 0x40 MLOAD DUP1 SWAP2 SUB SWAP1 LOG2 POP JUMP JUMPDEST PUSH1 0x7 SLOAD DUP2 JUMP JUMPDEST PUSH1 0x1 PUSH0 SWAP1 SLOAD SWAP1 PUSH2 0x100 EXP SWAP1 DIV PUSH20 0xFFFFFFFFFFFFFFFFFFFFFFFFFFFFFFFFFFFFFFFF AND DUP2 JUMP JUMPDEST PUSH1 0x1 PUSH0 SWAP1 SLOAD SWAP1 PUSH2 0x100 EXP SWAP1 DIV PUSH20 0xFFFFFFFFFFFFFFFFFFFFFFFFFFFFFFFFFFFFFFFF AND PUSH20 0xFFFFFFFFFFFFFFFFFFFFFFFFFFFFFFFFFFFFFFFF AND PUSH4 0x4F61FD68 PUSH1 0x40 MLOAD DUP2 PUSH4 0xFFFFFFFF AND PUSH1 0xE0 SHL DUP2 MSTORE PUSH1 0x4 ADD PUSH1 0x20 PUSH1 0x40 MLOAD DUP1 DUP4 SUB DUP2 DUP7 GAS STATICCALL ISZERO DUP1 ISZERO PUSH2 0x650 JUMPI RETURNDATASIZE PUSH0 DUP1 RETURNDATACOPY RETURNDATASIZE PUSH0 REVERT JUMPDEST POP POP POP POP PUSH1 0x40 MLOAD RETURNDATASIZE PUSH1 0x1F NOT PUSH1 0x1F DUP3 ADD AND DUP3 ADD DUP1 PUSH1 0x40 MSTORE POP DUP2 ADD SWAP1 PUSH2 0x674 SWAP2 SWAP1 PUSH2 0x17F9 JUMP JUMPDEST PUSH2 0x6B3 JUMPI PUSH1 0x40 MLOAD PUSH32 0x8C379A000000000000000000000000000000000000000000000000000000000 DUP2 MSTORE PUSH1 0x4 ADD PUSH2 0x6AA SWAP1 PUSH2 0x1915 JUMP JUMPDEST PUSH1 0x40 MLOAD DUP1 SWAP2 SUB SWAP1 REVERT JUMPDEST PUSH0 PUSH1 0x3 SLOAD GT PUSH2 0x6F7 JUMPI PUSH1 0x40 MLOAD PUSH32 0x8C379A000000000000000000000000000000000000000000000000000000000 DUP2 MSTORE PUSH1 0x4 ADD PUSH2 0x6EE SWAP1 PUSH2 0x197D JUMP JUMPDEST PUSH1 0x40 MLOAD DUP1 SWAP2 SUB SWAP1 REVERT JUMPDEST PUSH1 0x1 PUSH1 0x3 SLOAD SUB PUSH2 0x7E0 JUMPI PUSH1 0x2 PUSH0 SWAP1 SLOAD SWAP1 PUSH2 0x100 EXP SWAP1 DIV PUSH20 0xFFFFFFFFFFFFFFFFFFFFFFFFFFFFFFFFFFFFFFFF AND PUSH20 0xFFFFFFFFFFFFFFFFFFFFFFFFFFFFFFFFFFFFFFFF AND PUSH4 0xA9059CBB PUSH1 0x6 PUSH0 DUP2 SLOAD DUP2 LT PUSH2 0x752 JUMPI PUSH2 0x751 PUSH2 0x199B JUMP JUMPDEST JUMPDEST SWAP1 PUSH0 MSTORE PUSH1 0x20 PUSH0 KECCAK256 ADD PUSH0 SWAP1 SLOAD SWAP1 PUSH2 0x100 EXP SWAP1 DIV PUSH20 0xFFFFFFFFFFFFFFFFFFFFFFFFFFFFFFFFFFFFFFFF AND PUSH1 0x4 SLOAD PUSH1 0x40 MLOAD DUP4 PUSH4 0xFFFFFFFF AND PUSH1 0xE0 SHL DUP2 MSTORE PUSH1 0x4 ADD PUSH2 0x79A SWAP3 SWAP2 SWAP1 PUSH2 0x19C8 JUMP JUMPDEST PUSH1 0x20 PUSH1 0x40 MLOAD DUP1 DUP4 SUB DUP2 PUSH0 DUP8 GAS CALL ISZERO DUP1 ISZERO PUSH2 0x7B6 JUMPI RETURNDATASIZE PUSH0 DUP1 RETURNDATACOPY RETURNDATASIZE PUSH0 REVERT JUMPDEST POP POP POP POP PUSH1 0x40 MLOAD RETURNDATASIZE PUSH1 0x1F NOT PUSH1 0x1F DUP3 ADD AND DUP3 ADD DUP1 PUSH1 0x40 MSTORE POP DUP2 ADD SWAP1 PUSH2 0x7DA SWAP2 SWAP1 PUSH2 0x17F9 JUMP JUMPDEST POP PUSH2 0x9AE JUMP JUMPDEST PUSH1 0x2 PUSH0 SWAP1 SLOAD SWAP1 PUSH2 0x100 EXP SWAP1 DIV PUSH20 0xFFFFFFFFFFFFFFFFFFFFFFFFFFFFFFFFFFFFFFFF AND PUSH20 0xFFFFFFFFFFFFFFFFFFFFFFFFFFFFFFFFFFFFFFFF AND PUSH4 0xA9059CBB PUSH1 0x6 PUSH0 DUP2 SLOAD DUP2 LT PUSH2 0x831 JUMPI PUSH2 0x830 PUSH2 0x199B JUMP JUMPDEST JUMPDEST SWAP1 PUSH0 MSTORE PUSH1 0x20 PUSH0 KECCAK256 ADD PUSH0 SWAP1 SLOAD SWAP1 PUSH2 0x100 EXP SWAP1 DIV PUSH20 0xFFFFFFFFFFFFFFFFFFFFFFFFFFFFFFFFFFFFFFFF AND PUSH1 0x2 PUSH1 0x4 SLOAD PUSH2 0x868 SWAP2 SWAP1 PUSH2 0x1A1C JUMP JUMPDEST PUSH1 0x40 MLOAD DUP4 PUSH4 0xFFFFFFFF AND PUSH1 0xE0 SHL DUP2 MSTORE PUSH1 0x4 ADD PUSH2 0x885 SWAP3 SWAP2 SWAP1 PUSH2 0x19C8 JUMP JUMPDEST PUSH1 0x20 PUSH1 0x40 MLOAD DUP1 DUP4 SUB DUP2 PUSH0 DUP8 GAS CALL ISZERO DUP1 ISZERO PUSH2 0x8A1 JUMPI RETURNDATASIZE PUSH0 DUP1 RETURNDATACOPY RETURNDATASIZE PUSH0 REVERT JUMPDEST POP POP POP POP PUSH1 0x40 MLOAD RETURNDATASIZE PUSH1 0x1F NOT PUSH1 0x1F DUP3 ADD AND DUP3 ADD DUP1 PUSH1 0x40 MSTORE POP DUP2 ADD SWAP1 PUSH2 0x8C5 SWAP2 SWAP1 PUSH2 0x17F9 JUMP JUMPDEST POP PUSH1 0x2 PUSH0 SWAP1 SLOAD SWAP1 PUSH2 0x100 EXP SWAP1 DIV PUSH20 0xFFFFFFFFFFFFFFFFFFFFFFFFFFFFFFFFFFFFFFFF AND PUSH20 0xFFFFFFFFFFFFFFFFFFFFFFFFFFFFFFFFFFFFFFFF AND PUSH4 0xA9059CBB PUSH1 0x6 PUSH1 0x1 DUP2 SLOAD DUP2 LT PUSH2 0x918 JUMPI PUSH2 0x917 PUSH2 0x199B JUMP JUMPDEST JUMPDEST SWAP1 PUSH0 MSTORE PUSH1 0x20 PUSH0 KECCAK256 ADD PUSH0 SWAP1 SLOAD SWAP1 PUSH2 0x100 EXP SWAP1 DIV PUSH20 0xFFFFFFFFFFFFFFFFFFFFFFFFFFFFFFFFFFFFFFFF AND PUSH1 0x2 PUSH1 0x4 SLOAD PUSH2 0x94F SWAP2 SWAP1 PUSH2 0x1A1C JUMP JUMPDEST PUSH1 0x40 MLOAD DUP4 PUSH4 0xFFFFFFFF AND PUSH1 0xE0 SHL DUP2 MSTORE PUSH1 0x4 ADD PUSH2 0x96C SWAP3 SWAP2 SWAP1 PUSH2 0x19C8 JUMP JUMPDEST PUSH1 0x20 PUSH1 0x40 MLOAD DUP1 DUP4 SUB DUP2 PUSH0 DUP8 GAS CALL ISZERO DUP1 ISZERO PUSH2 0x988 JUMPI RETURNDATASIZE PUSH0 DUP1 RETURNDATACOPY RETURNDATASIZE PUSH0 REVERT JUMPDEST POP POP POP POP PUSH1 0x40 MLOAD RETURNDATASIZE PUSH1 0x1F NOT PUSH1 0x1F DUP3 ADD AND DUP3 ADD DUP1 PUSH1 0x40 MSTORE POP DUP2 ADD SWAP1 PUSH2 0x9AC SWAP2 SWAP1 PUSH2 0x17F9 JUMP JUMPDEST POP JUMPDEST PUSH2 0x9B6 PUSH2 0xDC3 JUMP JUMPDEST JUMP JUMPDEST PUSH1 0x2 PUSH1 0x7 SLOAD EQ PUSH2 0x9FD JUMPI PUSH1 0x40 MLOAD PUSH32 0x8C379A000000000000000000000000000000000000000000000000000000000 DUP2 MSTORE PUSH1 0x4 ADD PUSH2 0x9F4 SWAP1 PUSH2 0x1ABC JUMP JUMPDEST PUSH1 0x40 MLOAD DUP1 SWAP2 SUB SWAP1 REVERT JUMPDEST PUSH0 DUP1 SLOAD SWAP1 PUSH2 0x100 EXP SWAP1 DIV PUSH20 0xFFFFFFFFFFFFFFFFFFFFFFFFFFFFFFFFFFFFFFFF AND PUSH20 0xFFFFFFFFFFFFFFFFFFFFFFFFFFFFFFFFFFFFFFFF AND PUSH4 0xAD487790 DUP3 CALLER PUSH1 0x40 MLOAD DUP4 PUSH4 0xFFFFFFFF AND PUSH1 0xE0 SHL DUP2 MSTORE PUSH1 0x4 ADD PUSH2 0xA57 SWAP3 SWAP2 SWAP1 PUSH2 0x1AE9 JUMP JUMPDEST PUSH0 PUSH1 0x40 MLOAD DUP1 DUP4 SUB DUP2 PUSH0 DUP8 DUP1 EXTCODESIZE ISZERO DUP1 ISZERO PUSH2 0xA6E JUMPI PUSH0 DUP1 REVERT JUMPDEST POP GAS CALL ISZERO DUP1 ISZERO PUSH2 0xA80 JUMPI RETURNDATASIZE PUSH0 DUP1 RETURNDATACOPY RETURNDATASIZE PUSH0 REVERT JUMPDEST POP POP POP POP PUSH0 PUSH2 0xA8E DUP3 PUSH2 0xD4A JUMP JUMPDEST SWAP1 POP DUP1 PUSH1 0xFF AND PUSH1 0x5 PUSH0 CALLER PUSH20 0xFFFFFFFFFFFFFFFFFFFFFFFFFFFFFFFFFFFFFFFF AND PUSH20 0xFFFFFFFFFFFFFFFFFFFFFFFFFFFFFFFFFFFFFFFF AND DUP2 MSTORE PUSH1 0x20 ADD SWAP1 DUP2 MSTORE PUSH1 0x20 ADD PUSH0 KECCAK256 DUP2 SWAP1 SSTORE POP PUSH1 0x8 PUSH0 DUP2 SLOAD DUP1 SWAP3 SWAP2 SWAP1 PUSH2 0xAE7 SWAP1 PUSH2 0x1884 JUMP JUMPDEST SWAP2 SWAP1 POP SSTORE POP PUSH1 0x2 PUSH1 0x8 SLOAD SUB PUSH2 0xAFF JUMPI PUSH2 0xAFE PUSH2 0xE1A JUMP JUMPDEST JUMPDEST PUSH1 0x1 PUSH0 SWAP1 SLOAD SWAP1 PUSH2 0x100 EXP SWAP1 DIV PUSH20 0xFFFFFFFFFFFFFFFFFFFFFFFFFFFFFFFFFFFFFFFF AND PUSH20 0xFFFFFFFFFFFFFFFFFFFFFFFFFFFFFFFFFFFFFFFF AND PUSH4 0xF4176B22 PUSH1 0x40 MLOAD DUP2 PUSH4 0xFFFFFFFF AND PUSH1 0xE0 SHL DUP2 MSTORE PUSH1 0x4 ADD PUSH0 PUSH1 0x40 MLOAD DUP1 DUP4 SUB DUP2 PUSH0 DUP8 DUP1 EXTCODESIZE ISZERO DUP1 ISZERO PUSH2 0xB65 JUMPI PUSH0 DUP1 REVERT JUMPDEST POP GAS CALL ISZERO DUP1 ISZERO PUSH2 0xB77 JUMPI RETURNDATASIZE PUSH0 DUP1 RETURNDATACOPY RETURNDATASIZE PUSH0 REVERT JUMPDEST POP POP POP POP POP POP JUMP JUMPDEST PUSH1 0x2 PUSH0 SWAP1 SLOAD SWAP1 PUSH2 0x100 EXP SWAP1 DIV PUSH20 0xFFFFFFFFFFFFFFFFFFFFFFFFFFFFFFFFFFFFFFFF AND DUP2 JUMP JUMPDEST PUSH1 0x3 SLOAD DUP2 JUMP JUMPDEST PUSH1 0x8 SLOAD DUP2 JUMP JUMPDEST PUSH0 DUP1 SLOAD SWAP1 PUSH2 0x100 EXP SWAP1 DIV PUSH20 0xFFFFFFFFFFFFFFFFFFFFFFFFFFFFFFFFFFFFFFFF AND DUP2 JUMP JUMPDEST PUSH1 0x5 PUSH1 0x20 MSTORE DUP1 PUSH0 MSTORE PUSH1 0x40 PUSH0 KECCAK256 PUSH0 SWAP2 POP SWAP1 POP SLOAD DUP2 JUMP JUMPDEST PUSH1 0x2 PUSH1 0x3 SLOAD EQ PUSH2 0xC2D JUMPI PUSH1 0x40 MLOAD PUSH32 0x8C379A000000000000000000000000000000000000000000000000000000000 DUP2 MSTORE PUSH1 0x4 ADD PUSH2 0xC24 SWAP1 PUSH2 0x1B5A JUMP JUMPDEST PUSH1 0x40 MLOAD DUP1 SWAP2 SUB SWAP1 REVERT JUMPDEST PUSH0 DUP1 SLOAD SWAP1 PUSH2 0x100 EXP SWAP1 DIV PUSH20 0xFFFFFFFFFFFFFFFFFFFFFFFFFFFFFFFFFFFFFFFF AND PUSH20 0xFFFFFFFFFFFFFFFFFFFFFFFFFFFFFFFFFFFFFFFF AND PUSH4 0x5A746101 DUP3 CALLER PUSH1 0x40 MLOAD DUP4 PUSH4 0xFFFFFFFF AND PUSH1 0xE0 SHL DUP2 MSTORE PUSH1 0x4 ADD PUSH2 0xC87 SWAP3 SWAP2 SWAP1 PUSH2 0x1AE9 JUMP JUMPDEST PUSH0 PUSH1 0x40 MLOAD DUP1 DUP4 SUB DUP2 PUSH0 DUP8 DUP1 EXTCODESIZE ISZERO DUP1 ISZERO PUSH2 0xC9E JUMPI PUSH0 DUP1 REVERT JUMPDEST POP GAS CALL ISZERO DUP1 ISZERO PUSH2 0xCB0 JUMPI RETURNDATASIZE PUSH0 DUP1 RETURNDATACOPY RETURNDATASIZE PUSH0 REVERT JUMPDEST POP POP POP POP PUSH1 0x7 PUSH0 DUP2 SLOAD DUP1 SWAP3 SWAP2 SWAP1 PUSH2 0xCC6 SWAP1 PUSH2 0x1884 JUMP JUMPDEST SWAP2 SWAP1 POP SSTORE POP PUSH1 0x1 PUSH0 SWAP1 SLOAD SWAP1 PUSH2 0x100 EXP SWAP1 DIV PUSH20 0xFFFFFFFFFFFFFFFFFFFFFFFFFFFFFFFFFFFFFFFF AND PUSH20 0xFFFFFFFFFFFFFFFFFFFFFFFFFFFFFFFFFFFFFFFF AND PUSH4 0xF4176B22 PUSH1 0x40 MLOAD DUP2 PUSH4 0xFFFFFFFF AND PUSH1 0xE0 SHL DUP2 MSTORE PUSH1 0x4 ADD PUSH0 PUSH1 0x40 MLOAD DUP1 DUP4 SUB DUP2 PUSH0 DUP8 DUP1 EXTCODESIZE ISZERO DUP1 ISZERO PUSH2 0xD31 JUMPI PUSH0 DUP1 REVERT JUMPDEST POP GAS CALL ISZERO DUP1 ISZERO PUSH2 0xD43 JUMPI RETURNDATASIZE PUSH0 DUP1 RETURNDATACOPY RETURNDATASIZE PUSH0 REVERT JUMPDEST POP POP POP POP POP JUMP JUMPDEST PUSH0 PUSH1 0x5 DUP3 PUSH1 0x1 PUSH1 0x20 PUSH2 0xD5C SWAP2 SWAP1 PUSH2 0x1B78 JUMP JUMPDEST PUSH1 0xFF AND PUSH1 0x20 DUP2 LT PUSH2 0xD70 JUMPI PUSH2 0xD6F PUSH2 0x199B JUMP JUMPDEST JUMPDEST BYTE PUSH1 0xF8 SHL PUSH1 0xF8 SHR PUSH2 0xD81 SWAP2 SWAP1 PUSH2 0x1BAC JUMP JUMPDEST SWAP1 POP SWAP2 SWAP1 POP JUMP JUMPDEST PUSH1 0x6 DUP2 DUP2 SLOAD DUP2 LT PUSH2 0xD97 JUMPI PUSH0 DUP1 REVERT JUMPDEST SWAP1 PUSH0 MSTORE PUSH1 0x20 PUSH0 KECCAK256 ADD PUSH0 SWAP2 POP SLOAD SWAP1 PUSH2 0x100 EXP SWAP1 DIV PUSH20 0xFFFFFFFFFFFFFFFFFFFFFFFFFFFFFFFFFFFFFFFF AND DUP2 JUMP JUMPDEST PUSH0 PUSH1 0x3 DUP2 SWAP1 SSTORE POP PUSH0 PUSH1 0x4 DUP2 SWAP1 SSTORE POP PUSH0 PUSH1 0x7 DUP2 SWAP1 SSTORE POP PUSH0 PUSH1 0x8 DUP2 SWAP1 SSTORE POP PUSH32 0xC6976B6410888B44C765590C8368EB4A60E0431D4AD683C8A53EA85A8479F22E PUSH1 0x40 MLOAD PUSH1 0x40 MLOAD DUP1 SWAP2 SUB SWAP1 LOG1 PUSH1 0x6 PUSH0 PUSH2 0xE18 SWAP2 SWAP1 PUSH2 0x1361 JUMP JUMPDEST JUMP JUMPDEST PUSH0 PUSH1 0x5 PUSH0 PUSH1 0x6 PUSH0 DUP2 SLOAD DUP2 LT PUSH2 0xE32 JUMPI PUSH2 0xE31 PUSH2 0x199B JUMP JUMPDEST JUMPDEST SWAP1 PUSH0 MSTORE PUSH1 0x20 PUSH0 KECCAK256 ADD PUSH0 SWAP1 SLOAD SWAP1 PUSH2 0x100 EXP SWAP1 DIV PUSH20 0xFFFFFFFFFFFFFFFFFFFFFFFFFFFFFFFFFFFFFFFF AND PUSH20 0xFFFFFFFFFFFFFFFFFFFFFFFFFFFFFFFFFFFFFFFF AND PUSH20 0xFFFFFFFFFFFFFFFFFFFFFFFFFFFFFFFFFFFFFFFF AND DUP2 MSTORE PUSH1 0x20 ADD SWAP1 DUP2 MSTORE PUSH1 0x20 ADD PUSH0 KECCAK256 SLOAD SWAP1 POP PUSH0 PUSH1 0x5 PUSH0 PUSH1 0x6 PUSH1 0x1 DUP2 SLOAD DUP2 LT PUSH2 0xEAF JUMPI PUSH2 0xEAE PUSH2 0x199B JUMP JUMPDEST JUMPDEST SWAP1 PUSH0 MSTORE PUSH1 0x20 PUSH0 KECCAK256 ADD PUSH0 SWAP1 SLOAD SWAP1 PUSH2 0x100 EXP SWAP1 DIV PUSH20 0xFFFFFFFFFFFFFFFFFFFFFFFFFFFFFFFFFFFFFFFF AND PUSH20 0xFFFFFFFFFFFFFFFFFFFFFFFFFFFFFFFFFFFFFFFF AND PUSH20 0xFFFFFFFFFFFFFFFFFFFFFFFFFFFFFFFFFFFFFFFF AND DUP2 MSTORE PUSH1 0x20 ADD SWAP1 DUP2 MSTORE PUSH1 0x20 ADD PUSH0 KECCAK256 SLOAD SWAP1 POP PUSH0 PUSH2 0xF1E DUP4 DUP4 PUSH2 0x12B8 JUMP JUMPDEST ISZERO PUSH2 0xF66 JUMPI PUSH1 0x6 PUSH0 DUP2 SLOAD DUP2 LT PUSH2 0xF37 JUMPI PUSH2 0xF36 PUSH2 0x199B JUMP JUMPDEST JUMPDEST SWAP1 PUSH0 MSTORE PUSH1 0x20 PUSH0 KECCAK256 ADD PUSH0 SWAP1 SLOAD SWAP1 PUSH2 0x100 EXP SWAP1 DIV PUSH20 0xFFFFFFFFFFFFFFFFFFFFFFFFFFFFFFFFFFFFFFFF AND SWAP1 POP PUSH2 0xFB6 JUMP JUMPDEST PUSH2 0xF70 DUP3 DUP5 PUSH2 0x12B8 JUMP JUMPDEST ISZERO PUSH2 0xFB5 JUMPI PUSH1 0x6 PUSH1 0x1 DUP2 SLOAD DUP2 LT PUSH2 0xF8A JUMPI PUSH2 0xF89 PUSH2 0x199B JUMP JUMPDEST JUMPDEST SWAP1 PUSH0 MSTORE PUSH1 0x20 PUSH0 KECCAK256 ADD PUSH0 SWAP1 SLOAD SWAP1 PUSH2 0x100 EXP SWAP1 DIV PUSH20 0xFFFFFFFFFFFFFFFFFFFFFFFFFFFFFFFFFFFFFFFF AND SWAP1 POP JUMPDEST JUMPDEST PUSH0 PUSH20 0xFFFFFFFFFFFFFFFFFFFFFFFFFFFFFFFFFFFFFFFF AND DUP2 PUSH20 0xFFFFFFFFFFFFFFFFFFFFFFFFFFFFFFFFFFFFFFFF AND EQ PUSH2 0x10DD JUMPI PUSH1 0x2 PUSH0 SWAP1 SLOAD SWAP1 PUSH2 0x100 EXP SWAP1 DIV PUSH20 0xFFFFFFFFFFFFFFFFFFFFFFFFFFFFFFFFFFFFFFFF AND PUSH20 0xFFFFFFFFFFFFFFFFFFFFFFFFFFFFFFFFFFFFFFFF AND PUSH4 0xA9059CBB DUP3 PUSH1 0x4 SLOAD PUSH1 0x40 MLOAD DUP4 PUSH4 0xFFFFFFFF AND PUSH1 0xE0 SHL DUP2 MSTORE PUSH1 0x4 ADD PUSH2 0x1047 SWAP3 SWAP2 SWAP1 PUSH2 0x19C8 JUMP JUMPDEST PUSH1 0x20 PUSH1 0x40 MLOAD DUP1 DUP4 SUB DUP2 PUSH0 DUP8 GAS CALL ISZERO DUP1 ISZERO PUSH2 0x1063 JUMPI RETURNDATASIZE PUSH0 DUP1 RETURNDATACOPY RETURNDATASIZE PUSH0 REVERT JUMPDEST POP POP POP POP PUSH1 0x40 MLOAD RETURNDATASIZE PUSH1 0x1F NOT PUSH1 0x1F DUP3 ADD AND DUP3 ADD DUP1 PUSH1 0x40 MSTORE POP DUP2 ADD SWAP1 PUSH2 0x1087 SWAP2 SWAP1 PUSH2 0x17F9 JUMP JUMPDEST POP DUP1 PUSH20 0xFFFFFFFFFFFFFFFFFFFFFFFFFFFFFFFFFFFFFFFF AND PUSH32 0x9C2270628A9B29D30AE96B6C4C14ED646EE134FEBDCE38A5B77F2BDE9CEA2E20 PUSH1 0x4 SLOAD PUSH1 0x40 MLOAD PUSH2 0x10D0 SWAP2 SWAP1 PUSH2 0x13B2 JUMP JUMPDEST PUSH1 0x40 MLOAD DUP1 SWAP2 SUB SWAP1 LOG2 PUSH2 0x12AB JUMP JUMPDEST PUSH1 0x2 PUSH0 SWAP1 SLOAD SWAP1 PUSH2 0x100 EXP SWAP1 DIV PUSH20 0xFFFFFFFFFFFFFFFFFFFFFFFFFFFFFFFFFFFFFFFF AND PUSH20 0xFFFFFFFFFFFFFFFFFFFFFFFFFFFFFFFFFFFFFFFF AND PUSH4 0xA9059CBB PUSH1 0x6 PUSH0 DUP2 SLOAD DUP2 LT PUSH2 0x112E JUMPI PUSH2 0x112D PUSH2 0x199B JUMP JUMPDEST JUMPDEST SWAP1 PUSH0 MSTORE PUSH1 0x20 PUSH0 KECCAK256 ADD PUSH0 SWAP1 SLOAD SWAP1 PUSH2 0x100 EXP SWAP1 DIV PUSH20 0xFFFFFFFFFFFFFFFFFFFFFFFFFFFFFFFFFFFFFFFF AND PUSH1 0x2 PUSH1 0x4 SLOAD PUSH2 0x1165 SWAP2 SWAP1 PUSH2 0x1A1C JUMP JUMPDEST PUSH1 0x40 MLOAD DUP4 PUSH4 0xFFFFFFFF AND PUSH1 0xE0 SHL DUP2 MSTORE PUSH1 0x4 ADD PUSH2 0x1182 SWAP3 SWAP2 SWAP1 PUSH2 0x19C8 JUMP JUMPDEST PUSH1 0x20 PUSH1 0x40 MLOAD DUP1 DUP4 SUB DUP2 PUSH0 DUP8 GAS CALL ISZERO DUP1 ISZERO PUSH2 0x119E JUMPI RETURNDATASIZE PUSH0 DUP1 RETURNDATACOPY RETURNDATASIZE PUSH0 REVERT JUMPDEST POP POP POP POP PUSH1 0x40 MLOAD RETURNDATASIZE PUSH1 0x1F NOT PUSH1 0x1F DUP3 ADD AND DUP3 ADD DUP1 PUSH1 0x40 MSTORE POP DUP2 ADD SWAP1 PUSH2 0x11C2 SWAP2 SWAP1 PUSH2 0x17F9 JUMP JUMPDEST POP PUSH1 0x2 PUSH0 SWAP1 SLOAD SWAP1 PUSH2 0x100 EXP SWAP1 DIV PUSH20 0xFFFFFFFFFFFFFFFFFFFFFFFFFFFFFFFFFFFFFFFF AND PUSH20 0xFFFFFFFFFFFFFFFFFFFFFFFFFFFFFFFFFFFFFFFF AND PUSH4 0xA9059CBB PUSH1 0x6 PUSH1 0x1 DUP2 SLOAD DUP2 LT PUSH2 0x1215 JUMPI PUSH2 0x1214 PUSH2 0x199B JUMP JUMPDEST JUMPDEST SWAP1 PUSH0 MSTORE PUSH1 0x20 PUSH0 KECCAK256 ADD PUSH0 SWAP1 SLOAD SWAP1 PUSH2 0x100 EXP SWAP1 DIV PUSH20 0xFFFFFFFFFFFFFFFFFFFFFFFFFFFFFFFFFFFFFFFF AND PUSH1 0x2 PUSH1 0x4 SLOAD PUSH2 0x124C SWAP2 SWAP1 PUSH2 0x1A1C JUMP JUMPDEST PUSH1 0x40 MLOAD DUP4 PUSH4 0xFFFFFFFF AND PUSH1 0xE0 SHL DUP2 MSTORE PUSH1 0x4 ADD PUSH2 0x1269 SWAP3 SWAP2 SWAP1 PUSH2 0x19C8 JUMP JUMPDEST PUSH1 0x20 PUSH1 0x40 MLOAD DUP1 DUP4 SUB DUP2 PUSH0 DUP8 GAS CALL ISZERO DUP1 ISZERO PUSH2 0x1285 JUMPI RETURNDATASIZE PUSH0 DUP1 RETURNDATACOPY RETURNDATASIZE PUSH0 REVERT JUMPDEST POP POP POP POP PUSH1 0x40 MLOAD RETURNDATASIZE PUSH1 0x1F NOT PUSH1 0x1F DUP3 ADD AND DUP3 ADD DUP1 PUSH1 0x40 MSTORE POP DUP2 ADD SWAP1 PUSH2 0x12A9 SWAP2 SWAP1 PUSH2 0x17F9 JUMP JUMPDEST POP JUMPDEST PUSH2 0x12B3 PUSH2 0xDC3 JUMP JUMPDEST POP POP POP JUMP JUMPDEST PUSH0 DUP1 DUP4 EQ DUP1 ISZERO PUSH2 0x12D3 JUMPI POP PUSH1 0x2 DUP3 EQ DUP1 PUSH2 0x12D2 JUMPI POP PUSH1 0x3 DUP3 EQ JUMPDEST JUMPDEST DUP1 PUSH2 0x12F4 JUMPI POP PUSH1 0x1 DUP4 EQ DUP1 ISZERO PUSH2 0x12F3 JUMPI POP PUSH0 DUP3 EQ DUP1 PUSH2 0x12F2 JUMPI POP PUSH1 0x4 DUP3 EQ JUMPDEST JUMPDEST JUMPDEST DUP1 PUSH2 0x1316 JUMPI POP PUSH1 0x2 DUP4 EQ DUP1 ISZERO PUSH2 0x1315 JUMPI POP PUSH1 0x1 DUP3 EQ DUP1 PUSH2 0x1314 JUMPI POP PUSH1 0x3 DUP3 EQ JUMPDEST JUMPDEST JUMPDEST DUP1 PUSH2 0x1338 JUMPI POP PUSH1 0x3 DUP4 EQ DUP1 ISZERO PUSH2 0x1337 JUMPI POP PUSH1 0x1 DUP3 EQ DUP1 PUSH2 0x1336 JUMPI POP PUSH1 0x4 DUP3 EQ JUMPDEST JUMPDEST JUMPDEST DUP1 PUSH2 0x1359 JUMPI POP PUSH1 0x4 DUP4 EQ DUP1 ISZERO PUSH2 0x1358 JUMPI POP PUSH0 DUP3 EQ DUP1 PUSH2 0x1357 JUMPI POP PUSH1 0x2 DUP3 EQ JUMPDEST JUMPDEST JUMPDEST SWAP1 POP SWAP3 SWAP2 POP POP JUMP JUMPDEST POP DUP1 SLOAD PUSH0 DUP3 SSTORE SWAP1 PUSH0 MSTORE PUSH1 0x20 PUSH0 KECCAK256 SWAP1 DUP2 ADD SWAP1 PUSH2 0x137C SWAP2 SWAP1 PUSH2 0x137F JUMP JUMPDEST POP JUMP JUMPDEST JUMPDEST DUP1 DUP3 GT ISZERO PUSH2 0x1396 JUMPI PUSH0 DUP2 PUSH0 SWAP1 SSTORE POP PUSH1 0x1 ADD PUSH2 0x1380 JUMP JUMPDEST POP SWAP1 JUMP JUMPDEST PUSH0 DUP2 SWAP1 POP SWAP2 SWAP1 POP JUMP JUMPDEST PUSH2 0x13AC DUP2 PUSH2 0x139A JUMP JUMPDEST DUP3 MSTORE POP POP JUMP JUMPDEST PUSH0 PUSH1 0x20 DUP3 ADD SWAP1 POP PUSH2 0x13C5 PUSH0 DUP4 ADD DUP5 PUSH2 0x13A3 JUMP JUMPDEST SWAP3 SWAP2 POP POP JUMP JUMPDEST PUSH0 PUSH20 0xFFFFFFFFFFFFFFFFFFFFFFFFFFFFFFFFFFFFFFFF DUP3 AND SWAP1 POP SWAP2 SWAP1 POP JUMP JUMPDEST PUSH0 DUP2 SWAP1 POP SWAP2 SWAP1 POP JUMP JUMPDEST PUSH0 PUSH2 0x140D PUSH2 0x1408 PUSH2 0x1403 DUP5 PUSH2 0x13CB JUMP JUMPDEST PUSH2 0x13EA JUMP JUMPDEST PUSH2 0x13CB JUMP JUMPDEST SWAP1 POP SWAP2 SWAP1 POP JUMP JUMPDEST PUSH0 PUSH2 0x141E DUP3 PUSH2 0x13F3 JUMP JUMPDEST SWAP1 POP SWAP2 SWAP1 POP JUMP JUMPDEST PUSH0 PUSH2 0x142F DUP3 PUSH2 0x1414 JUMP JUMPDEST SWAP1 POP SWAP2 SWAP1 POP JUMP JUMPDEST PUSH2 0x143F DUP2 PUSH2 0x1425 JUMP JUMPDEST DUP3 MSTORE POP POP JUMP JUMPDEST PUSH0 PUSH1 0x20 DUP3 ADD SWAP1 POP PUSH2 0x1458 PUSH0 DUP4 ADD DUP5 PUSH2 0x1436 JUMP JUMPDEST SWAP3 SWAP2 POP POP JUMP JUMPDEST PUSH0 DUP1 REVERT JUMPDEST PUSH0 DUP2 SWAP1 POP SWAP2 SWAP1 POP JUMP JUMPDEST PUSH2 0x1474 DUP2 PUSH2 0x1462 JUMP JUMPDEST DUP2 EQ PUSH2 0x147E JUMPI PUSH0 DUP1 REVERT JUMPDEST POP JUMP JUMPDEST PUSH0 DUP2 CALLDATALOAD SWAP1 POP PUSH2 0x148F DUP2 PUSH2 0x146B JUMP JUMPDEST SWAP3 SWAP2 POP POP JUMP JUMPDEST PUSH0 PUSH1 0x20 DUP3 DUP5 SUB SLT ISZERO PUSH2 0x14AA JUMPI PUSH2 0x14A9 PUSH2 0x145E JUMP JUMPDEST JUMPDEST PUSH0 PUSH2 0x14B7 DUP5 DUP3 DUP6 ADD PUSH2 0x1481 JUMP JUMPDEST SWAP2 POP POP SWAP3 SWAP2 POP POP JUMP JUMPDEST PUSH0 PUSH2 0x14CA DUP3 PUSH2 0x1414 JUMP JUMPDEST SWAP1 POP SWAP2 SWAP1 POP JUMP JUMPDEST PUSH2 0x14DA DUP2 PUSH2 0x14C0 JUMP JUMPDEST DUP3 MSTORE POP POP JUMP JUMPDEST PUSH0 PUSH1 0x20 DUP3 ADD SWAP1 POP PUSH2 0x14F3 PUSH0 DUP4 ADD DUP5 PUSH2 0x14D1 JUMP JUMPDEST SWAP3 SWAP2 POP POP JUMP JUMPDEST PUSH0 PUSH2 0x1503 DUP3 PUSH2 0x1414 JUMP JUMPDEST SWAP1 POP SWAP2 SWAP1 POP JUMP JUMPDEST PUSH2 0x1513 DUP2 PUSH2 0x14F9 JUMP JUMPDEST DUP3 MSTORE POP POP JUMP JUMPDEST PUSH0 PUSH1 0x20 DUP3 ADD SWAP1 POP PUSH2 0x152C PUSH0 DUP4 ADD DUP5 PUSH2 0x150A JUMP JUMPDEST SWAP3 SWAP2 POP POP JUMP JUMPDEST PUSH0 PUSH2 0x153C DUP3 PUSH2 0x13CB JUMP JUMPDEST SWAP1 POP SWAP2 SWAP1 POP JUMP JUMPDEST PUSH2 0x154C DUP2 PUSH2 0x1532 JUMP JUMPDEST DUP2 EQ PUSH2 0x1556 JUMPI PUSH0 DUP1 REVERT JUMPDEST POP JUMP JUMPDEST PUSH0 DUP2 CALLDATALOAD SWAP1 POP PUSH2 0x1567 DUP2 PUSH2 0x1543 JUMP JUMPDEST SWAP3 SWAP2 POP POP JUMP JUMPDEST PUSH0 PUSH1 0x20 DUP3 DUP5 SUB SLT ISZERO PUSH2 0x1582 JUMPI PUSH2 0x1581 PUSH2 0x145E JUMP JUMPDEST JUMPDEST PUSH0 PUSH2 0x158F DUP5 DUP3 DUP6 ADD PUSH2 0x1559 JUMP JUMPDEST SWAP2 POP POP SWAP3 SWAP2 POP POP JUMP JUMPDEST PUSH0 PUSH1 0xFF DUP3 AND SWAP1 POP SWAP2 SWAP1 POP JUMP JUMPDEST PUSH2 0x15AD DUP2 PUSH2 0x1598 JUMP JUMPDEST DUP3 MSTORE POP POP JUMP JUMPDEST PUSH0 PUSH1 0x20 DUP3 ADD SWAP1 POP PUSH2 0x15C6 PUSH0 DUP4 ADD DUP5 PUSH2 0x15A4 JUMP JUMPDEST SWAP3 SWAP2 POP POP JUMP JUMPDEST PUSH2 0x15D5 DUP2 PUSH2 0x139A JUMP JUMPDEST DUP2 EQ PUSH2 0x15DF JUMPI PUSH0 DUP1 REVERT JUMPDEST POP JUMP JUMPDEST PUSH0 DUP2 CALLDATALOAD SWAP1 POP PUSH2 0x15F0 DUP2 PUSH2 0x15CC JUMP JUMPDEST SWAP3 SWAP2 POP POP JUMP JUMPDEST PUSH0 PUSH1 0x20 DUP3 DUP5 SUB SLT ISZERO PUSH2 0x160B JUMPI PUSH2 0x160A PUSH2 0x145E JUMP JUMPDEST JUMPDEST PUSH0 PUSH2 0x1618 DUP5 DUP3 DUP6 ADD PUSH2 0x15E2 JUMP JUMPDEST SWAP2 POP POP SWAP3 SWAP2 POP POP JUMP JUMPDEST PUSH2 0x162A DUP2 PUSH2 0x1532 JUMP JUMPDEST DUP3 MSTORE POP POP JUMP JUMPDEST PUSH0 PUSH1 0x20 DUP3 ADD SWAP1 POP PUSH2 0x1643 PUSH0 DUP4 ADD DUP5 PUSH2 0x1621 JUMP JUMPDEST SWAP3 SWAP2 POP POP JUMP JUMPDEST PUSH0 DUP3 DUP3 MSTORE PUSH1 0x20 DUP3 ADD SWAP1 POP SWAP3 SWAP2 POP POP JUMP JUMPDEST PUSH32 0x416C7265616479203220706C61796572732E0000000000000000000000000000 PUSH0 DUP3 ADD MSTORE POP JUMP JUMPDEST PUSH0 PUSH2 0x168D PUSH1 0x12 DUP4 PUSH2 0x1649 JUMP JUMPDEST SWAP2 POP PUSH2 0x1698 DUP3 PUSH2 0x1659 JUMP JUMPDEST PUSH1 0x20 DUP3 ADD SWAP1 POP SWAP2 SWAP1 POP JUMP JUMPDEST PUSH0 PUSH1 0x20 DUP3 ADD SWAP1 POP DUP2 DUP2 SUB PUSH0 DUP4 ADD MSTORE PUSH2 0x16BA DUP2 PUSH2 0x1681 JUMP JUMPDEST SWAP1 POP SWAP2 SWAP1 POP JUMP JUMPDEST PUSH0 PUSH1 0x40 DUP3 ADD SWAP1 POP PUSH2 0x16D4 PUSH0 DUP4 ADD DUP6 PUSH2 0x1621 JUMP JUMPDEST PUSH2 0x16E1 PUSH1 0x20 DUP4 ADD DUP5 PUSH2 0x1621 JUMP JUMPDEST SWAP4 SWAP3 POP POP POP JUMP JUMPDEST PUSH0 DUP2 MLOAD SWAP1 POP PUSH2 0x16F6 DUP2 PUSH2 0x15CC JUMP JUMPDEST SWAP3 SWAP2 POP POP JUMP JUMPDEST PUSH0 PUSH1 0x20 DUP3 DUP5 SUB SLT ISZERO PUSH2 0x1711 JUMPI PUSH2 0x1710 PUSH2 0x145E JUMP JUMPDEST JUMPDEST PUSH0 PUSH2 0x171E DUP5 DUP3 DUP6 ADD PUSH2 0x16E8 JUMP JUMPDEST SWAP2 POP POP SWAP3 SWAP2 POP POP JUMP JUMPDEST PUSH32 0x574156415820616C6C6F77616E636520746F6F206C6F77000000000000000000 PUSH0 DUP3 ADD MSTORE POP JUMP JUMPDEST PUSH0 PUSH2 0x175B PUSH1 0x17 DUP4 PUSH2 0x1649 JUMP JUMPDEST SWAP2 POP PUSH2 0x1766 DUP3 PUSH2 0x1727 JUMP JUMPDEST PUSH1 0x20 DUP3 ADD SWAP1 POP SWAP2 SWAP1 POP JUMP JUMPDEST PUSH0 PUSH1 0x20 DUP3 ADD SWAP1 POP DUP2 DUP2 SUB PUSH0 DUP4 ADD MSTORE PUSH2 0x1788 DUP2 PUSH2 0x174F JUMP JUMPDEST SWAP1 POP SWAP2 SWAP1 POP JUMP JUMPDEST PUSH0 PUSH1 0x60 DUP3 ADD SWAP1 POP PUSH2 0x17A2 PUSH0 DUP4 ADD DUP7 PUSH2 0x1621 JUMP JUMPDEST PUSH2 0x17AF PUSH1 0x20 DUP4 ADD DUP6 PUSH2 0x1621 JUMP JUMPDEST PUSH2 0x17BC PUSH1 0x40 DUP4 ADD DUP5 PUSH2 0x13A3 JUMP JUMPDEST SWAP5 SWAP4 POP POP POP POP JUMP JUMPDEST PUSH0 DUP2 ISZERO ISZERO SWAP1 POP SWAP2 SWAP1 POP JUMP JUMPDEST PUSH2 0x17D8 DUP2 PUSH2 0x17C4 JUMP JUMPDEST DUP2 EQ PUSH2 0x17E2 JUMPI PUSH0 DUP1 REVERT JUMPDEST POP JUMP JUMPDEST PUSH0 DUP2 MLOAD SWAP1 POP PUSH2 0x17F3 DUP2 PUSH2 0x17CF JUMP JUMPDEST SWAP3 SWAP2 POP POP JUMP JUMPDEST PUSH0 PUSH1 0x20 DUP3 DUP5 SUB SLT ISZERO PUSH2 0x180E JUMPI PUSH2 0x180D PUSH2 0x145E JUMP JUMPDEST JUMPDEST PUSH0 PUSH2 0x181B DUP5 DUP3 DUP6 ADD PUSH2 0x17E5 JUMP JUMPDEST SWAP2 POP POP SWAP3 SWAP2 POP POP JUMP JUMPDEST PUSH32 0x4E487B7100000000000000000000000000000000000000000000000000000000 PUSH0 MSTORE PUSH1 0x11 PUSH1 0x4 MSTORE PUSH1 0x24 PUSH0 REVERT JUMPDEST PUSH0 PUSH2 0x185B DUP3 PUSH2 0x139A JUMP JUMPDEST SWAP2 POP PUSH2 0x1866 DUP4 PUSH2 0x139A JUMP JUMPDEST SWAP3 POP DUP3 DUP3 ADD SWAP1 POP DUP1 DUP3 GT ISZERO PUSH2 0x187E JUMPI PUSH2 0x187D PUSH2 0x1824 JUMP JUMPDEST JUMPDEST SWAP3 SWAP2 POP POP JUMP JUMPDEST PUSH0 PUSH2 0x188E DUP3 PUSH2 0x139A JUMP JUMPDEST SWAP2 POP PUSH32 0xFFFFFFFFFFFFFFFFFFFFFFFFFFFFFFFFFFFFFFFFFFFFFFFFFFFFFFFFFFFFFFFF DUP3 SUB PUSH2 0x18C0 JUMPI PUSH2 0x18BF PUSH2 0x1824 JUMP JUMPDEST JUMPDEST PUSH1 0x1 DUP3 ADD SWAP1 POP SWAP2 SWAP1 POP JUMP JUMPDEST PUSH32 0x526566756E6420706572696F64206E6F7420656C617073656400000000000000 PUSH0 DUP3 ADD MSTORE POP JUMP JUMPDEST PUSH0 PUSH2 0x18FF PUSH1 0x19 DUP4 PUSH2 0x1649 JUMP JUMPDEST SWAP2 POP PUSH2 0x190A DUP3 PUSH2 0x18CB JUMP JUMPDEST PUSH1 0x20 DUP3 ADD SWAP1 POP SWAP2 SWAP1 POP JUMP JUMPDEST PUSH0 PUSH1 0x20 DUP3 ADD SWAP1 POP DUP2 DUP2 SUB PUSH0 DUP4 ADD MSTORE PUSH2 0x192C DUP2 PUSH2 0x18F3 JUMP JUMPDEST SWAP1 POP SWAP2 SWAP1 POP JUMP JUMPDEST PUSH32 0x4E6F206163746976652067616D65000000000000000000000000000000000000 PUSH0 DUP3 ADD MSTORE POP JUMP JUMPDEST PUSH0 PUSH2 0x1967 PUSH1 0xE DUP4 PUSH2 0x1649 JUMP JUMPDEST SWAP2 POP PUSH2 0x1972 DUP3 PUSH2 0x1933 JUMP JUMPDEST PUSH1 0x20 DUP3 ADD SWAP1 POP SWAP2 SWAP1 POP JUMP JUMPDEST PUSH0 PUSH1 0x20 DUP3 ADD SWAP1 POP DUP2 DUP2 SUB PUSH0 DUP4 ADD MSTORE PUSH2 0x1994 DUP2 PUSH2 0x195B JUMP JUMPDEST SWAP1 POP SWAP2 SWAP1 POP JUMP JUMPDEST PUSH32 0x4E487B7100000000000000000000000000000000000000000000000000000000 PUSH0 MSTORE PUSH1 0x32 PUSH1 0x4 MSTORE PUSH1 0x24 PUSH0 REVERT JUMPDEST PUSH0 PUSH1 0x40 DUP3 ADD SWAP1 POP PUSH2 0x19DB PUSH0 DUP4 ADD DUP6 PUSH2 0x1621 JUMP JUMPDEST PUSH2 0x19E8 PUSH1 0x20 DUP4 ADD DUP5 PUSH2 0x13A3 JUMP JUMPDEST SWAP4 SWAP3 POP POP POP JUMP JUMPDEST PUSH32 0x4E487B7100000000000000000000000000000000000000000000000000000000 PUSH0 MSTORE PUSH1 0x12 PUSH1 0x4 MSTORE PUSH1 0x24 PUSH0 REVERT JUMPDEST PUSH0 PUSH2 0x1A26 DUP3 PUSH2 0x139A JUMP JUMPDEST SWAP2 POP PUSH2 0x1A31 DUP4 PUSH2 0x139A JUMP JUMPDEST SWAP3 POP DUP3 PUSH2 0x1A41 JUMPI PUSH2 0x1A40 PUSH2 0x19EF JUMP JUMPDEST JUMPDEST DUP3 DUP3 DIV SWAP1 POP SWAP3 SWAP2 POP POP JUMP JUMPDEST PUSH32 0x426F746820706C6179657273206D75737420636F6D6D6974206265666F726520 PUSH0 DUP3 ADD MSTORE PUSH32 0x72657665616C696E672E00000000000000000000000000000000000000000000 PUSH1 0x20 DUP3 ADD MSTORE POP JUMP JUMPDEST PUSH0 PUSH2 0x1AA6 PUSH1 0x2A DUP4 PUSH2 0x1649 JUMP JUMPDEST SWAP2 POP PUSH2 0x1AB1 DUP3 PUSH2 0x1A4C JUMP JUMPDEST PUSH1 0x40 DUP3 ADD SWAP1 POP SWAP2 SWAP1 POP JUMP JUMPDEST PUSH0 PUSH1 0x20 DUP3 ADD SWAP1 POP DUP2 DUP2 SUB PUSH0 DUP4 ADD MSTORE PUSH2 0x1AD3 DUP2 PUSH2 0x1A9A JUMP JUMPDEST SWAP1 POP SWAP2 SWAP1 POP JUMP JUMPDEST PUSH2 0x1AE3 DUP2 PUSH2 0x1462 JUMP JUMPDEST DUP3 MSTORE POP POP JUMP JUMPDEST PUSH0 PUSH1 0x40 DUP3 ADD SWAP1 POP PUSH2 0x1AFC PUSH0 DUP4 ADD DUP6 PUSH2 0x1ADA JUMP JUMPDEST PUSH2 0x1B09 PUSH1 0x20 DUP4 ADD DUP5 PUSH2 0x1621 JUMP JUMPDEST SWAP4 SWAP3 POP POP POP JUMP JUMPDEST PUSH32 0x47616D65206973206E6F742072656164792E0000000000000000000000000000 PUSH0 DUP3 ADD MSTORE POP JUMP JUMPDEST PUSH0 PUSH2 0x1B44 PUSH1 0x12 DUP4 PUSH2 0x1649 JUMP JUMPDEST SWAP2 POP PUSH2 0x1B4F DUP3 PUSH2 0x1B10 JUMP JUMPDEST PUSH1 0x20 DUP3 ADD SWAP1 POP SWAP2 SWAP1 POP JUMP JUMPDEST PUSH0 PUSH1 0x20 DUP3 ADD SWAP1 POP DUP2 DUP2 SUB PUSH0 DUP4 ADD MSTORE PUSH2 0x1B71 DUP2 PUSH2 0x1B38 JUMP JUMPDEST SWAP1 POP SWAP2 SWAP1 POP JUMP JUMPDEST PUSH0 PUSH2 0x1B82 DUP3 PUSH2 0x1598 JUMP JUMPDEST SWAP2 POP PUSH2 0x1B8D DUP4 PUSH2 0x1598 JUMP JUMPDEST SWAP3 POP DUP3 DUP3 SUB SWAP1 POP PUSH1 0xFF DUP2 GT ISZERO PUSH2 0x1BA6 JUMPI PUSH2 0x1BA5 PUSH2 0x1824 JUMP JUMPDEST JUMPDEST SWAP3 SWAP2 POP POP JUMP JUMPDEST PUSH0 PUSH2 0x1BB6 DUP3 PUSH2 0x1598 JUMP JUMPDEST SWAP2 POP PUSH2 0x1BC1 DUP4 PUSH2 0x1598 JUMP JUMPDEST SWAP3 POP DUP3 PUSH2 0x1BD1 JUMPI PUSH2 0x1BD0 PUSH2 0x19EF JUMP JUMPDEST JUMPDEST DUP3 DUP3 MOD SWAP1 POP SWAP3 SWAP2 POP POP JUMP INVALID LOG2 PUSH5 0x6970667358 0x22 SLT KECCAK256 0xDA CALL TLOAD DIV ORIGIN 0xE2 0xAE 0xE4 XOR 0xE0 RETURNDATASIZE DUP4 DUP1 0xC0 0xC1 PUSH24 0x8C80AD29B2D7A1B03663D2B8145783C064736F6C63430008 BYTE STOP CALLER PUSH1 0x80 PUSH1 0x40 MSTORE PUSH1 0x64 PUSH0 DUP1 PUSH2 0x100 EXP DUP2 SLOAD DUP2 PUSH1 0xFF MUL NOT AND SWAP1 DUP4 PUSH1 0xFF AND MUL OR SWAP1 SSTORE POP CALLVALUE DUP1 ISZERO PUSH1 0x28 JUMPI PUSH0 DUP1 REVERT JUMPDEST POP PUSH2 0x1010 DUP1 PUSH2 0x36 PUSH0 CODECOPY PUSH0 RETURN INVALID PUSH1 0x80 PUSH1 0x40 MSTORE CALLVALUE DUP1 ISZERO PUSH2 0xF JUMPI PUSH0 DUP1 REVERT JUMPDEST POP PUSH1 0x4 CALLDATASIZE LT PUSH2 0x60 JUMPI PUSH0 CALLDATALOAD PUSH1 0xE0 SHR DUP1 PUSH4 0x3CF5040A EQ PUSH2 0x64 JUMPI DUP1 PUSH4 0x5A746101 EQ PUSH2 0x94 JUMPI DUP1 PUSH4 0x6AC5DB19 EQ PUSH2 0xB0 JUMPI DUP1 PUSH4 0x7B43A8E6 EQ PUSH2 0xCE JUMPI DUP1 PUSH4 0x8696B887 EQ PUSH2 0x101 JUMPI DUP1 PUSH4 0xAD487790 EQ PUSH2 0x132 JUMPI JUMPDEST PUSH0 DUP1 REVERT JUMPDEST PUSH2 0x7E PUSH1 0x4 DUP1 CALLDATASIZE SUB DUP2 ADD SWAP1 PUSH2 0x79 SWAP2 SWAP1 PUSH2 0x933 JUMP JUMPDEST PUSH2 0x14E JUMP JUMPDEST PUSH1 0x40 MLOAD PUSH2 0x8B SWAP2 SWAP1 PUSH2 0x96D JUMP JUMPDEST PUSH1 0x40 MLOAD DUP1 SWAP2 SUB SWAP1 RETURN JUMPDEST PUSH2 0xAE PUSH1 0x4 DUP1 CALLDATASIZE SUB DUP2 ADD SWAP1 PUSH2 0xA9 SWAP2 SWAP1 PUSH2 0x9E0 JUMP JUMPDEST PUSH2 0x17D JUMP JUMPDEST STOP JUMPDEST PUSH2 0xB8 PUSH2 0x43B JUMP JUMPDEST PUSH1 0x40 MLOAD PUSH2 0xC5 SWAP2 SWAP1 PUSH2 0xA39 JUMP JUMPDEST PUSH1 0x40 MLOAD DUP1 SWAP2 SUB SWAP1 RETURN JUMPDEST PUSH2 0xE8 PUSH1 0x4 DUP1 CALLDATASIZE SUB DUP2 ADD SWAP1 PUSH2 0xE3 SWAP2 SWAP1 PUSH2 0xA52 JUMP JUMPDEST PUSH2 0x44B JUMP JUMPDEST PUSH1 0x40 MLOAD PUSH2 0xF8 SWAP5 SWAP4 SWAP3 SWAP2 SWAP1 PUSH2 0xAB9 JUMP JUMPDEST PUSH1 0x40 MLOAD DUP1 SWAP2 SUB SWAP1 RETURN JUMPDEST PUSH2 0x11B PUSH1 0x4 DUP1 CALLDATASIZE SUB DUP2 ADD SWAP1 PUSH2 0x116 SWAP2 SWAP1 PUSH2 0xA52 JUMP JUMPDEST PUSH2 0x4A4 JUMP JUMPDEST PUSH1 0x40 MLOAD PUSH2 0x129 SWAP3 SWAP2 SWAP1 PUSH2 0xAFC JUMP JUMPDEST PUSH1 0x40 MLOAD DUP1 SWAP2 SUB SWAP1 RETURN JUMPDEST PUSH2 0x14C PUSH1 0x4 DUP1 CALLDATASIZE SUB DUP2 ADD SWAP1 PUSH2 0x147 SWAP2 SWAP1 PUSH2 0x9E0 JUMP JUMPDEST PUSH2 0x53D JUMP JUMPDEST STOP JUMPDEST PUSH0 DUP2 PUSH1 0x40 MLOAD PUSH1 0x20 ADD PUSH2 0x160 SWAP2 SWAP1 PUSH2 0xB43 JUMP JUMPDEST PUSH1 0x40 MLOAD PUSH1 0x20 DUP2 DUP4 SUB SUB DUP2 MSTORE SWAP1 PUSH1 0x40 MSTORE DUP1 MLOAD SWAP1 PUSH1 0x20 ADD KECCAK256 SWAP1 POP SWAP2 SWAP1 POP JUMP JUMPDEST PUSH0 ISZERO ISZERO PUSH1 0x1 PUSH0 DUP4 PUSH20 0xFFFFFFFFFFFFFFFFFFFFFFFFFFFFFFFFFFFFFFFF AND PUSH20 0xFFFFFFFFFFFFFFFFFFFFFFFFFFFFFFFFFFFFFFFF AND DUP2 MSTORE PUSH1 0x20 ADD SWAP1 DUP2 MSTORE PUSH1 0x20 ADD PUSH0 KECCAK256 PUSH1 0x1 ADD PUSH1 0x9 SWAP1 SLOAD SWAP1 PUSH2 0x100 EXP SWAP1 DIV PUSH1 0xFF AND ISZERO ISZERO EQ PUSH2 0x210 JUMPI PUSH1 0x40 MLOAD PUSH32 0x8C379A000000000000000000000000000000000000000000000000000000000 DUP2 MSTORE PUSH1 0x4 ADD PUSH2 0x207 SWAP1 PUSH2 0xBDD JUMP JUMPDEST PUSH1 0x40 MLOAD DUP1 SWAP2 SUB SWAP1 REVERT JUMPDEST DUP2 PUSH1 0x1 PUSH0 DUP4 PUSH20 0xFFFFFFFFFFFFFFFFFFFFFFFFFFFFFFFFFFFFFFFF AND PUSH20 0xFFFFFFFFFFFFFFFFFFFFFFFFFFFFFFFFFFFFFFFF AND DUP2 MSTORE PUSH1 0x20 ADD SWAP1 DUP2 MSTORE PUSH1 0x20 ADD PUSH0 KECCAK256 PUSH0 ADD DUP2 SWAP1 SSTORE POP PUSH1 0x1 DUP1 PUSH0 DUP4 PUSH20 0xFFFFFFFFFFFFFFFFFFFFFFFFFFFFFFFFFFFFFFFF AND PUSH20 0xFFFFFFFFFFFFFFFFFFFFFFFFFFFFFFFFFFFFFFFF AND DUP2 MSTORE PUSH1 0x20 ADD SWAP1 DUP2 MSTORE PUSH1 0x20 ADD PUSH0 KECCAK256 PUSH1 0x1 ADD PUSH1 0x9 PUSH2 0x100 EXP DUP2 SLOAD DUP2 PUSH1 0xFF MUL NOT AND SWAP1 DUP4 ISZERO ISZERO MUL OR SWAP1 SSTORE POP NUMBER PUSH1 0x1 PUSH0 DUP4 PUSH20 0xFFFFFFFFFFFFFFFFFFFFFFFFFFFFFFFFFFFFFFFF AND PUSH20 0xFFFFFFFFFFFFFFFFFFFFFFFFFFFFFFFFFFFFFFFF AND DUP2 MSTORE PUSH1 0x20 ADD SWAP1 DUP2 MSTORE PUSH1 0x20 ADD PUSH0 KECCAK256 PUSH1 0x1 ADD PUSH0 PUSH2 0x100 EXP DUP2 SLOAD DUP2 PUSH8 0xFFFFFFFFFFFFFFFF MUL NOT AND SWAP1 DUP4 PUSH8 0xFFFFFFFFFFFFFFFF AND MUL OR SWAP1 SSTORE POP PUSH0 PUSH1 0x1 PUSH0 DUP4 PUSH20 0xFFFFFFFFFFFFFFFFFFFFFFFFFFFFFFFFFFFFFFFF AND PUSH20 0xFFFFFFFFFFFFFFFFFFFFFFFFFFFFFFFFFFFFFFFF AND DUP2 MSTORE PUSH1 0x20 ADD SWAP1 DUP2 MSTORE PUSH1 0x20 ADD PUSH0 KECCAK256 PUSH1 0x1 ADD PUSH1 0x8 PUSH2 0x100 EXP DUP2 SLOAD DUP2 PUSH1 0xFF MUL NOT AND SWAP1 DUP4 ISZERO ISZERO MUL OR SWAP1 SSTORE POP PUSH32 0x3C1A1F8F38335B17F751C6DA4BA7D1865F26B3997535176F5080DE9FAD891603 DUP2 PUSH1 0x1 PUSH0 DUP5 PUSH20 0xFFFFFFFFFFFFFFFFFFFFFFFFFFFFFFFFFFFFFFFF AND PUSH20 0xFFFFFFFFFFFFFFFFFFFFFFFFFFFFFFFFFFFFFFFF AND DUP2 MSTORE PUSH1 0x20 ADD SWAP1 DUP2 MSTORE PUSH1 0x20 ADD PUSH0 KECCAK256 PUSH0 ADD SLOAD PUSH1 0x1 PUSH0 DUP6 PUSH20 0xFFFFFFFFFFFFFFFFFFFFFFFFFFFFFFFFFFFFFFFF AND PUSH20 0xFFFFFFFFFFFFFFFFFFFFFFFFFFFFFFFFFFFFFFFF AND DUP2 MSTORE PUSH1 0x20 ADD SWAP1 DUP2 MSTORE PUSH1 0x20 ADD PUSH0 KECCAK256 PUSH1 0x1 ADD PUSH0 SWAP1 SLOAD SWAP1 PUSH2 0x100 EXP SWAP1 DIV PUSH8 0xFFFFFFFFFFFFFFFF AND PUSH1 0x40 MLOAD PUSH2 0x42F SWAP4 SWAP3 SWAP2 SWAP1 PUSH2 0xC0A JUMP JUMPDEST PUSH1 0x40 MLOAD DUP1 SWAP2 SUB SWAP1 LOG1 POP POP JUMP JUMPDEST PUSH0 DUP1 SLOAD SWAP1 PUSH2 0x100 EXP SWAP1 DIV PUSH1 0xFF AND DUP2 JUMP JUMPDEST PUSH1 0x1 PUSH1 0x20 MSTORE DUP1 PUSH0 MSTORE PUSH1 0x40 PUSH0 KECCAK256 PUSH0 SWAP2 POP SWAP1 POP DUP1 PUSH0 ADD SLOAD SWAP1 DUP1 PUSH1 0x1 ADD PUSH0 SWAP1 SLOAD SWAP1 PUSH2 0x100 EXP SWAP1 DIV PUSH8 0xFFFFFFFFFFFFFFFF AND SWAP1 DUP1 PUSH1 0x1 ADD PUSH1 0x8 SWAP1 SLOAD SWAP1 PUSH2 0x100 EXP SWAP1 DIV PUSH1 0xFF AND SWAP1 DUP1 PUSH1 0x1 ADD PUSH1 0x9 SWAP1 SLOAD SWAP1 PUSH2 0x100 EXP SWAP1 DIV PUSH1 0xFF AND SWAP1 POP DUP5 JUMP JUMPDEST PUSH0 DUP1 PUSH1 0x1 PUSH0 DUP5 PUSH20 0xFFFFFFFFFFFFFFFFFFFFFFFFFFFFFFFFFFFFFFFF AND PUSH20 0xFFFFFFFFFFFFFFFFFFFFFFFFFFFFFFFFFFFFFFFF AND DUP2 MSTORE PUSH1 0x20 ADD SWAP1 DUP2 MSTORE PUSH1 0x20 ADD PUSH0 KECCAK256 PUSH0 ADD SLOAD PUSH1 0x1 PUSH0 DUP6 PUSH20 0xFFFFFFFFFFFFFFFFFFFFFFFFFFFFFFFFFFFFFFFF AND PUSH20 0xFFFFFFFFFFFFFFFFFFFFFFFFFFFFFFFFFFFFFFFF AND DUP2 MSTORE PUSH1 0x20 ADD SWAP1 DUP2 MSTORE PUSH1 0x20 ADD PUSH0 KECCAK256 PUSH1 0x1 ADD PUSH1 0x8 SWAP1 SLOAD SWAP1 PUSH2 0x100 EXP SWAP1 DIV PUSH1 0xFF AND SWAP2 POP SWAP2 POP SWAP2 POP SWAP2 JUMP JUMPDEST PUSH0 ISZERO ISZERO PUSH1 0x1 PUSH0 DUP4 PUSH20 0xFFFFFFFFFFFFFFFFFFFFFFFFFFFFFFFFFFFFFFFF AND PUSH20 0xFFFFFFFFFFFFFFFFFFFFFFFFFFFFFFFFFFFFFFFF AND DUP2 MSTORE PUSH1 0x20 ADD SWAP1 DUP2 MSTORE PUSH1 0x20 ADD PUSH0 KECCAK256 PUSH1 0x1 ADD PUSH1 0x8 SWAP1 SLOAD SWAP1 PUSH2 0x100 EXP SWAP1 DIV PUSH1 0xFF AND ISZERO ISZERO EQ PUSH2 0x5D0 JUMPI PUSH1 0x40 MLOAD PUSH32 0x8C379A000000000000000000000000000000000000000000000000000000000 DUP2 MSTORE PUSH1 0x4 ADD PUSH2 0x5C7 SWAP1 PUSH2 0xCAF JUMP JUMPDEST PUSH1 0x40 MLOAD DUP1 SWAP2 SUB SWAP1 REVERT JUMPDEST PUSH1 0x1 DUP1 PUSH0 DUP4 PUSH20 0xFFFFFFFFFFFFFFFFFFFFFFFFFFFFFFFFFFFFFFFF AND PUSH20 0xFFFFFFFFFFFFFFFFFFFFFFFFFFFFFFFFFFFFFFFF AND DUP2 MSTORE PUSH1 0x20 ADD SWAP1 DUP2 MSTORE PUSH1 0x20 ADD PUSH0 KECCAK256 PUSH1 0x1 ADD PUSH1 0x8 PUSH2 0x100 EXP DUP2 SLOAD DUP2 PUSH1 0xFF MUL NOT AND SWAP1 DUP4 ISZERO ISZERO MUL OR SWAP1 SSTORE POP PUSH1 0x1 PUSH0 DUP3 PUSH20 0xFFFFFFFFFFFFFFFFFFFFFFFFFFFFFFFFFFFFFFFF AND PUSH20 0xFFFFFFFFFFFFFFFFFFFFFFFFFFFFFFFFFFFFFFFF AND DUP2 MSTORE PUSH1 0x20 ADD SWAP1 DUP2 MSTORE PUSH1 0x20 ADD PUSH0 KECCAK256 PUSH0 ADD SLOAD PUSH2 0x671 DUP4 PUSH2 0x14E JUMP JUMPDEST EQ PUSH2 0x6B1 JUMPI PUSH1 0x40 MLOAD PUSH32 0x8C379A000000000000000000000000000000000000000000000000000000000 DUP2 MSTORE PUSH1 0x4 ADD PUSH2 0x6A8 SWAP1 PUSH2 0xD3D JUMP JUMPDEST PUSH1 0x40 MLOAD DUP1 SWAP2 SUB SWAP1 REVERT JUMPDEST PUSH1 0x1 PUSH0 DUP3 PUSH20 0xFFFFFFFFFFFFFFFFFFFFFFFFFFFFFFFFFFFFFFFF AND PUSH20 0xFFFFFFFFFFFFFFFFFFFFFFFFFFFFFFFFFFFFFFFF AND DUP2 MSTORE PUSH1 0x20 ADD SWAP1 DUP2 MSTORE PUSH1 0x20 ADD PUSH0 KECCAK256 PUSH1 0x1 ADD PUSH0 SWAP1 SLOAD SWAP1 PUSH2 0x100 EXP SWAP1 DIV PUSH8 0xFFFFFFFFFFFFFFFF AND PUSH8 0xFFFFFFFFFFFFFFFF AND NUMBER PUSH8 0xFFFFFFFFFFFFFFFF AND GT PUSH2 0x75A JUMPI PUSH1 0x40 MLOAD PUSH32 0x8C379A000000000000000000000000000000000000000000000000000000000 DUP2 MSTORE PUSH1 0x4 ADD PUSH2 0x751 SWAP1 PUSH2 0xDF1 JUMP JUMPDEST PUSH1 0x40 MLOAD DUP1 SWAP2 SUB SWAP1 REVERT JUMPDEST PUSH1 0xFA PUSH1 0x1 PUSH0 DUP4 PUSH20 0xFFFFFFFFFFFFFFFFFFFFFFFFFFFFFFFFFFFFFFFF AND PUSH20 0xFFFFFFFFFFFFFFFFFFFFFFFFFFFFFFFFFFFFFFFF AND DUP2 MSTORE PUSH1 0x20 ADD SWAP1 DUP2 MSTORE PUSH1 0x20 ADD PUSH0 KECCAK256 PUSH1 0x1 ADD PUSH0 SWAP1 SLOAD SWAP1 PUSH2 0x100 EXP SWAP1 DIV PUSH8 0xFFFFFFFFFFFFFFFF AND PUSH2 0x7BA SWAP2 SWAP1 PUSH2 0xE3C JUMP JUMPDEST PUSH8 0xFFFFFFFFFFFFFFFF AND NUMBER PUSH8 0xFFFFFFFFFFFFFFFF AND GT ISZERO PUSH2 0x810 JUMPI PUSH1 0x40 MLOAD PUSH32 0x8C379A000000000000000000000000000000000000000000000000000000000 DUP2 MSTORE PUSH1 0x4 ADD PUSH2 0x807 SWAP1 PUSH2 0xEE7 JUMP JUMPDEST PUSH1 0x40 MLOAD DUP1 SWAP2 SUB SWAP1 REVERT JUMPDEST PUSH0 PUSH1 0x1 PUSH0 DUP4 PUSH20 0xFFFFFFFFFFFFFFFFFFFFFFFFFFFFFFFFFFFFFFFF AND PUSH20 0xFFFFFFFFFFFFFFFFFFFFFFFFFFFFFFFFFFFFFFFF AND DUP2 MSTORE PUSH1 0x20 ADD SWAP1 DUP2 MSTORE PUSH1 0x20 ADD PUSH0 KECCAK256 PUSH1 0x1 ADD PUSH0 SWAP1 SLOAD SWAP1 PUSH2 0x100 EXP SWAP1 DIV PUSH8 0xFFFFFFFFFFFFFFFF AND PUSH8 0xFFFFFFFFFFFFFFFF AND BLOCKHASH SWAP1 POP PUSH0 DUP1 PUSH0 SWAP1 SLOAD SWAP1 PUSH2 0x100 EXP SWAP1 DIV PUSH1 0xFF AND PUSH1 0xFF AND DUP3 DUP6 PUSH1 0x40 MLOAD PUSH1 0x20 ADD PUSH2 0x897 SWAP3 SWAP2 SWAP1 PUSH2 0xF05 JUMP JUMPDEST PUSH1 0x40 MLOAD PUSH1 0x20 DUP2 DUP4 SUB SUB DUP2 MSTORE SWAP1 PUSH1 0x40 MSTORE DUP1 MLOAD SWAP1 PUSH1 0x20 ADD KECCAK256 PUSH0 SHR PUSH2 0x8B9 SWAP2 SWAP1 PUSH2 0xF66 JUMP JUMPDEST SWAP1 POP PUSH32 0xBC016DD1CADEAEFCB851AF7A0A93532E0023D536894B730801F7BCFE7065BCC2 DUP4 DUP6 DUP4 PUSH1 0x40 MLOAD PUSH2 0x8EE SWAP4 SWAP3 SWAP2 SWAP1 PUSH2 0xFA5 JUMP JUMPDEST PUSH1 0x40 MLOAD DUP1 SWAP2 SUB SWAP1 LOG1 POP POP POP POP JUMP JUMPDEST PUSH0 DUP1 REVERT JUMPDEST PUSH0 DUP2 SWAP1 POP SWAP2 SWAP1 POP JUMP JUMPDEST PUSH2 0x912 DUP2 PUSH2 0x900 JUMP JUMPDEST DUP2 EQ PUSH2 0x91C JUMPI PUSH0 DUP1 REVERT JUMPDEST POP JUMP JUMPDEST PUSH0 DUP2 CALLDATALOAD SWAP1 POP PUSH2 0x92D DUP2 PUSH2 0x909 JUMP JUMPDEST SWAP3 SWAP2 POP POP JUMP JUMPDEST PUSH0 PUSH1 0x20 DUP3 DUP5 SUB SLT ISZERO PUSH2 0x948 JUMPI PUSH2 0x947 PUSH2 0x8FC JUMP JUMPDEST JUMPDEST PUSH0 PUSH2 0x955 DUP5 DUP3 DUP6 ADD PUSH2 0x91F JUMP JUMPDEST SWAP2 POP POP SWAP3 SWAP2 POP POP JUMP JUMPDEST PUSH2 0x967 DUP2 PUSH2 0x900 JUMP JUMPDEST DUP3 MSTORE POP POP JUMP JUMPDEST PUSH0 PUSH1 0x20 DUP3 ADD SWAP1 POP PUSH2 0x980 PUSH0 DUP4 ADD DUP5 PUSH2 0x95E JUMP JUMPDEST SWAP3 SWAP2 POP POP JUMP JUMPDEST PUSH0 PUSH20 0xFFFFFFFFFFFFFFFFFFFFFFFFFFFFFFFFFFFFFFFF DUP3 AND SWAP1 POP SWAP2 SWAP1 POP JUMP JUMPDEST PUSH0 PUSH2 0x9AF DUP3 PUSH2 0x986 JUMP JUMPDEST SWAP1 POP SWAP2 SWAP1 POP JUMP JUMPDEST PUSH2 0x9BF DUP2 PUSH2 0x9A5 JUMP JUMPDEST DUP2 EQ PUSH2 0x9C9 JUMPI PUSH0 DUP1 REVERT JUMPDEST POP JUMP JUMPDEST PUSH0 DUP2 CALLDATALOAD SWAP1 POP PUSH2 0x9DA DUP2 PUSH2 0x9B6 JUMP JUMPDEST SWAP3 SWAP2 POP POP JUMP JUMPDEST PUSH0 DUP1 PUSH1 0x40 DUP4 DUP6 SUB SLT ISZERO PUSH2 0x9F6 JUMPI PUSH2 0x9F5 PUSH2 0x8FC JUMP JUMPDEST JUMPDEST PUSH0 PUSH2 0xA03 DUP6 DUP3 DUP7 ADD PUSH2 0x91F JUMP JUMPDEST SWAP3 POP POP PUSH1 0x20 PUSH2 0xA14 DUP6 DUP3 DUP7 ADD PUSH2 0x9CC JUMP JUMPDEST SWAP2 POP POP SWAP3 POP SWAP3 SWAP1 POP JUMP JUMPDEST PUSH0 PUSH1 0xFF DUP3 AND SWAP1 POP SWAP2 SWAP1 POP JUMP JUMPDEST PUSH2 0xA33 DUP2 PUSH2 0xA1E JUMP JUMPDEST DUP3 MSTORE POP POP JUMP JUMPDEST PUSH0 PUSH1 0x20 DUP3 ADD SWAP1 POP PUSH2 0xA4C PUSH0 DUP4 ADD DUP5 PUSH2 0xA2A JUMP JUMPDEST SWAP3 SWAP2 POP POP JUMP JUMPDEST PUSH0 PUSH1 0x20 DUP3 DUP5 SUB SLT ISZERO PUSH2 0xA67 JUMPI PUSH2 0xA66 PUSH2 0x8FC JUMP JUMPDEST JUMPDEST PUSH0 PUSH2 0xA74 DUP5 DUP3 DUP6 ADD PUSH2 0x9CC JUMP JUMPDEST SWAP2 POP POP SWAP3 SWAP2 POP POP JUMP JUMPDEST PUSH0 PUSH8 0xFFFFFFFFFFFFFFFF DUP3 AND SWAP1 POP SWAP2 SWAP1 POP JUMP JUMPDEST PUSH2 0xA99 DUP2 PUSH2 0xA7D JUMP JUMPDEST DUP3 MSTORE POP POP JUMP JUMPDEST PUSH0 DUP2 ISZERO ISZERO SWAP1 POP SWAP2 SWAP1 POP JUMP JUMPDEST PUSH2 0xAB3 DUP2 PUSH2 0xA9F JUMP JUMPDEST DUP3 MSTORE POP POP JUMP JUMPDEST PUSH0 PUSH1 0x80 DUP3 ADD SWAP1 POP PUSH2 0xACC PUSH0 DUP4 ADD DUP8 PUSH2 0x95E JUMP JUMPDEST PUSH2 0xAD9 PUSH1 0x20 DUP4 ADD DUP7 PUSH2 0xA90 JUMP JUMPDEST PUSH2 0xAE6 PUSH1 0x40 DUP4 ADD DUP6 PUSH2 0xAAA JUMP JUMPDEST PUSH2 0xAF3 PUSH1 0x60 DUP4 ADD DUP5 PUSH2 0xAAA JUMP JUMPDEST SWAP6 SWAP5 POP POP POP POP POP JUMP JUMPDEST PUSH0 PUSH1 0x40 DUP3 ADD SWAP1 POP PUSH2 0xB0F PUSH0 DUP4 ADD DUP6 PUSH2 0x95E JUMP JUMPDEST PUSH2 0xB1C PUSH1 0x20 DUP4 ADD DUP5 PUSH2 0xAAA JUMP JUMPDEST SWAP4 SWAP3 POP POP POP JUMP JUMPDEST PUSH0 DUP2 SWAP1 POP SWAP2 SWAP1 POP JUMP JUMPDEST PUSH2 0xB3D PUSH2 0xB38 DUP3 PUSH2 0x900 JUMP JUMPDEST PUSH2 0xB23 JUMP JUMPDEST DUP3 MSTORE POP POP JUMP JUMPDEST PUSH0 PUSH2 0xB4E DUP3 DUP5 PUSH2 0xB2C JUMP JUMPDEST PUSH1 0x20 DUP3 ADD SWAP2 POP DUP2 SWAP1 POP SWAP3 SWAP2 POP POP JUMP JUMPDEST PUSH0 DUP3 DUP3 MSTORE PUSH1 0x20 DUP3 ADD SWAP1 POP SWAP3 SWAP2 POP POP JUMP JUMPDEST PUSH32 0x436F6D6D697452657665616C3A3A636F6D6D69743A20416C726561647920636F PUSH0 DUP3 ADD MSTORE PUSH32 0x6D6D697465640000000000000000000000000000000000000000000000000000 PUSH1 0x20 DUP3 ADD MSTORE POP JUMP JUMPDEST PUSH0 PUSH2 0xBC7 PUSH1 0x26 DUP4 PUSH2 0xB5D JUMP JUMPDEST SWAP2 POP PUSH2 0xBD2 DUP3 PUSH2 0xB6D JUMP JUMPDEST PUSH1 0x40 DUP3 ADD SWAP1 POP SWAP2 SWAP1 POP JUMP JUMPDEST PUSH0 PUSH1 0x20 DUP3 ADD SWAP1 POP DUP2 DUP2 SUB PUSH0 DUP4 ADD MSTORE PUSH2 0xBF4 DUP2 PUSH2 0xBBB JUMP JUMPDEST SWAP1 POP SWAP2 SWAP1 POP JUMP JUMPDEST PUSH2 0xC04 DUP2 PUSH2 0x9A5 JUMP JUMPDEST DUP3 MSTORE POP POP JUMP JUMPDEST PUSH0 PUSH1 0x60 DUP3 ADD SWAP1 POP PUSH2 0xC1D PUSH0 DUP4 ADD DUP7 PUSH2 0xBFB JUMP JUMPDEST PUSH2 0xC2A PUSH1 0x20 DUP4 ADD DUP6 PUSH2 0x95E JUMP JUMPDEST PUSH2 0xC37 PUSH1 0x40 DUP4 ADD DUP5 PUSH2 0xA90 JUMP JUMPDEST SWAP5 SWAP4 POP POP POP POP JUMP JUMPDEST PUSH32 0x436F6D6D697452657665616C3A3A72657665616C3A20416C7265616479207265 PUSH0 DUP3 ADD MSTORE PUSH32 0x7665616C65640000000000000000000000000000000000000000000000000000 PUSH1 0x20 DUP3 ADD MSTORE POP JUMP JUMPDEST PUSH0 PUSH2 0xC99 PUSH1 0x26 DUP4 PUSH2 0xB5D JUMP JUMPDEST SWAP2 POP PUSH2 0xCA4 DUP3 PUSH2 0xC3F JUMP JUMPDEST PUSH1 0x40 DUP3 ADD SWAP1 POP SWAP2 SWAP1 POP JUMP JUMPDEST PUSH0 PUSH1 0x20 DUP3 ADD SWAP1 POP DUP2 DUP2 SUB PUSH0 DUP4 ADD MSTORE PUSH2 0xCC6 DUP2 PUSH2 0xC8D JUMP JUMPDEST SWAP1 POP SWAP2 SWAP1 POP JUMP JUMPDEST PUSH32 0x436F6D6D697452657665616C3A3A72657665616C3A2052657665616C65642068 PUSH0 DUP3 ADD MSTORE PUSH32 0x61736820646F6573206E6F74206D6174636820636F6D6D697400000000000000 PUSH1 0x20 DUP3 ADD MSTORE POP JUMP JUMPDEST PUSH0 PUSH2 0xD27 PUSH1 0x39 DUP4 PUSH2 0xB5D JUMP JUMPDEST SWAP2 POP PUSH2 0xD32 DUP3 PUSH2 0xCCD JUMP JUMPDEST PUSH1 0x40 DUP3 ADD SWAP1 POP SWAP2 SWAP1 POP JUMP JUMPDEST PUSH0 PUSH1 0x20 DUP3 ADD SWAP1 POP DUP2 DUP2 SUB PUSH0 DUP4 ADD MSTORE PUSH2 0xD54 DUP2 PUSH2 0xD1B JUMP JUMPDEST SWAP1 POP SWAP2 SWAP1 POP JUMP JUMPDEST PUSH32 0x436F6D6D697452657665616C3A3A72657665616C3A2052657665616C20616E64 PUSH0 DUP3 ADD MSTORE PUSH32 0x20636F6D6D69742068617070656E6564206F6E207468652073616D6520626C6F PUSH1 0x20 DUP3 ADD MSTORE PUSH32 0x636B000000000000000000000000000000000000000000000000000000000000 PUSH1 0x40 DUP3 ADD MSTORE POP JUMP JUMPDEST PUSH0 PUSH2 0xDDB PUSH1 0x42 DUP4 PUSH2 0xB5D JUMP JUMPDEST SWAP2 POP PUSH2 0xDE6 DUP3 PUSH2 0xD5B JUMP JUMPDEST PUSH1 0x60 DUP3 ADD SWAP1 POP SWAP2 SWAP1 POP JUMP JUMPDEST PUSH0 PUSH1 0x20 DUP3 ADD SWAP1 POP DUP2 DUP2 SUB PUSH0 DUP4 ADD MSTORE PUSH2 0xE08 DUP2 PUSH2 0xDCF JUMP JUMPDEST SWAP1 POP SWAP2 SWAP1 POP JUMP JUMPDEST PUSH32 0x4E487B7100000000000000000000000000000000000000000000000000000000 PUSH0 MSTORE PUSH1 0x11 PUSH1 0x4 MSTORE PUSH1 0x24 PUSH0 REVERT JUMPDEST PUSH0 PUSH2 0xE46 DUP3 PUSH2 0xA7D JUMP JUMPDEST SWAP2 POP PUSH2 0xE51 DUP4 PUSH2 0xA7D JUMP JUMPDEST SWAP3 POP DUP3 DUP3 ADD SWAP1 POP PUSH8 0xFFFFFFFFFFFFFFFF DUP2 GT ISZERO PUSH2 0xE71 JUMPI PUSH2 0xE70 PUSH2 0xE0F JUMP JUMPDEST JUMPDEST SWAP3 SWAP2 POP POP JUMP JUMPDEST PUSH32 0x436F6D6D697452657665616C3A3A72657665616C3A2052657665616C65642074 PUSH0 DUP3 ADD MSTORE PUSH32 0x6F6F206C61746500000000000000000000000000000000000000000000000000 PUSH1 0x20 DUP3 ADD MSTORE POP JUMP JUMPDEST PUSH0 PUSH2 0xED1 PUSH1 0x27 DUP4 PUSH2 0xB5D JUMP JUMPDEST SWAP2 POP PUSH2 0xEDC DUP3 PUSH2 0xE77 JUMP JUMPDEST PUSH1 0x40 DUP3 ADD SWAP1 POP SWAP2 SWAP1 POP JUMP JUMPDEST PUSH0 PUSH1 0x20 DUP3 ADD SWAP1 POP DUP2 DUP2 SUB PUSH0 DUP4 ADD MSTORE PUSH2 0xEFE DUP2 PUSH2 0xEC5 JUMP JUMPDEST SWAP1 POP SWAP2 SWAP1 POP JUMP JUMPDEST PUSH0 PUSH2 0xF10 DUP3 DUP6 PUSH2 0xB2C JUMP JUMPDEST PUSH1 0x20 DUP3 ADD SWAP2 POP PUSH2 0xF20 DUP3 DUP5 PUSH2 0xB2C JUMP JUMPDEST PUSH1 0x20 DUP3 ADD SWAP2 POP DUP2 SWAP1 POP SWAP4 SWAP3 POP POP POP JUMP JUMPDEST PUSH0 DUP2 SWAP1 POP SWAP2 SWAP1 POP JUMP JUMPDEST PUSH32 0x4E487B7100000000000000000000000000000000000000000000000000000000 PUSH0 MSTORE PUSH1 0x12 PUSH1 0x4 MSTORE PUSH1 0x24 PUSH0 REVERT JUMPDEST PUSH0 PUSH2 0xF70 DUP3 PUSH2 0xF30 JUMP JUMPDEST SWAP2 POP PUSH2 0xF7B DUP4 PUSH2 0xF30 JUMP JUMPDEST SWAP3 POP DUP3 PUSH2 0xF8B JUMPI PUSH2 0xF8A PUSH2 0xF39 JUMP JUMPDEST JUMPDEST DUP3 DUP3 MOD SWAP1 POP SWAP3 SWAP2 POP POP JUMP JUMPDEST PUSH2 0xF9F DUP2 PUSH2 0xF30 JUMP JUMPDEST DUP3 MSTORE POP POP JUMP JUMPDEST PUSH0 PUSH1 0x60 DUP3 ADD SWAP1 POP PUSH2 0xFB8 PUSH0 DUP4 ADD DUP7 PUSH2 0xBFB JUMP JUMPDEST PUSH2 0xFC5 PUSH1 0x20 DUP4 ADD DUP6 PUSH2 0x95E JUMP JUMPDEST PUSH2 0xFD2 PUSH1 0x40 DUP4 ADD DUP5 PUSH2 0xF96 JUMP JUMPDEST SWAP5 SWAP4 POP POP POP POP JUMP INVALID LOG2 PUSH5 0x6970667358 0x22 SLT KECCAK256 JUMPI 0x28 SWAP16 EXTCODECOPY 0xEC GASLIMIT 0x27 LT DUP7 0xEE NUMBER MSTORE 0xEE 0xD6 PUSH1 0xDB CALLDATACOPY 0x24 0xBA PUSH31 0x36B81DA6806840BDDAD6DF8964736F6C634300081A00336080604052348015 PUSH1 0xE JUMPI PUSH0 DUP1 REVERT JUMPDEST POP PUSH2 0x1D4 DUP1 PUSH2 0x1C PUSH0 CODECOPY PUSH0 RETURN INVALID PUSH1 0x80 PUSH1 0x40 MSTORE CALLVALUE DUP1 ISZERO PUSH2 0xF JUMPI PUSH0 DUP1 REVERT JUMPDEST POP PUSH1 0x4 CALLDATASIZE LT PUSH2 0x4A JUMPI PUSH0 CALLDATALOAD PUSH1 0xE0 SHR DUP1 PUSH4 0x4F61FD68 EQ PUSH2 0x4E JUMPI DUP1 PUSH4 0x7BAB61BC EQ PUSH2 0x6C JUMPI DUP1 PUSH4 0x7E2EEE53 EQ PUSH2 0x8A JUMPI DUP1 PUSH4 0xF4176B22 EQ PUSH2 0xA8 JUMPI JUMPDEST PUSH0 DUP1 REVERT JUMPDEST PUSH2 0x56 PUSH2 0xB2 JUMP JUMPDEST PUSH1 0x40 MLOAD PUSH2 0x63 SWAP2 SWAP1 PUSH2 0xF4 JUMP JUMPDEST PUSH1 0x40 MLOAD DUP1 SWAP2 SUB SWAP1 RETURN JUMPDEST PUSH2 0x74 PUSH2 0xC8 JUMP JUMPDEST PUSH1 0x40 MLOAD PUSH2 0x81 SWAP2 SWAP1 PUSH2 0x125 JUMP JUMPDEST PUSH1 0x40 MLOAD DUP1 SWAP2 SUB SWAP1 RETURN JUMPDEST PUSH2 0x92 PUSH2 0xCD JUMP JUMPDEST PUSH1 0x40 MLOAD PUSH2 0x9F SWAP2 SWAP1 PUSH2 0x125 JUMP JUMPDEST PUSH1 0x40 MLOAD DUP1 SWAP2 SUB SWAP1 RETURN JUMPDEST PUSH2 0xB0 PUSH2 0xD2 JUMP JUMPDEST STOP JUMPDEST PUSH0 PUSH1 0x3C PUSH0 SLOAD TIMESTAMP PUSH2 0xC2 SWAP2 SWAP1 PUSH2 0x16B JUMP JUMPDEST GT SWAP1 POP SWAP1 JUMP JUMPDEST PUSH0 SLOAD DUP2 JUMP JUMPDEST PUSH1 0x3C DUP2 JUMP JUMPDEST TIMESTAMP PUSH0 DUP2 SWAP1 SSTORE POP JUMP JUMPDEST PUSH0 DUP2 ISZERO ISZERO SWAP1 POP SWAP2 SWAP1 POP JUMP JUMPDEST PUSH2 0xEE DUP2 PUSH2 0xDA JUMP JUMPDEST DUP3 MSTORE POP POP JUMP JUMPDEST PUSH0 PUSH1 0x20 DUP3 ADD SWAP1 POP PUSH2 0x107 PUSH0 DUP4 ADD DUP5 PUSH2 0xE5 JUMP JUMPDEST SWAP3 SWAP2 POP POP JUMP JUMPDEST PUSH0 DUP2 SWAP1 POP SWAP2 SWAP1 POP JUMP JUMPDEST PUSH2 0x11F DUP2 PUSH2 0x10D JUMP JUMPDEST DUP3 MSTORE POP POP JUMP JUMPDEST PUSH0 PUSH1 0x20 DUP3 ADD SWAP1 POP PUSH2 0x138 PUSH0 DUP4 ADD DUP5 PUSH2 0x116 JUMP JUMPDEST SWAP3 SWAP2 POP POP JUMP JUMPDEST PUSH32 0x4E487B7100000000000000000000000000000000000000000000000000000000 PUSH0 MSTORE PUSH1 0x11 PUSH1 0x4 MSTORE PUSH1 0x24 PUSH0 REVERT JUMPDEST PUSH0 PUSH2 0x175 DUP3 PUSH2 0x10D JUMP JUMPDEST SWAP2 POP PUSH2 0x180 DUP4 PUSH2 0x10D JUMP JUMPDEST SWAP3 POP DUP3 DUP3 SUB SWAP1 POP DUP2 DUP2 GT ISZERO PUSH2 0x198 JUMPI PUSH2 0x197 PUSH2 0x13E JUMP JUMPDEST JUMPDEST SWAP3 SWAP2 POP POP JUMP INVALID LOG2 PUSH5 0x6970667358 0x22 SLT KECCAK256 ADDRESS LT GASPRICE 0xCD CHAINID PUSH5 0x3B40175AA0 0xD0 SWAP7 SAR RETURNDATACOPY NUMBER SWAP5 GAS PUSH8 0x172480956CC1EB08 0xB0 CALLDATASIZE 0x2E 0xB3 CODECOPY PUSH5 0x736F6C6343 STOP ADDMOD BYTE STOP CALLER "
				},
				"gasEstimates": {
					"creation": {
						"codeDepositCost": "1437200",
						"executionCost": "infinite",
						"totalCost": "infinite"
					},
					"external": {
						"WAVAX()": "infinite",
						"addPlayer()": "infinite",
						"commitReveal()": "infinite",
						"getChoiceFromHash(bytes32)": "infinite",
						"inputCommit(bytes32)": "infinite",
						"numCommits()": "2493",
						"numPlayer()": "2448",
						"numReveals()": "2470",
						"player_choice(address)": "2824",
						"players(uint256)": "5032",
						"refund()": "infinite",
						"revealChoice(bytes32)": "infinite",
						"reward()": "2449",
						"timeUnit()": "infinite"
					},
					"internal": {
						"_checkWinnerAndPay()": "infinite",
						"_isWinner(uint256,uint256)": "440",
						"_resetGame()": "infinite"
					}
				},
				"methodIdentifiers": {
					"WAVAX()": "73b295c2",
					"addPlayer()": "27b5db8a",
					"commitReveal()": "9d7b3f2d",
					"getChoiceFromHash(bytes32)": "d5b30714",
					"inputCommit(bytes32)": "a9c6921a",
					"numCommits()": "2f231163",
					"numPlayer()": "90d5d0c3",
					"numReveals()": "9b2c1d40",
					"player_choice(address)": "a040478d",
					"players(uint256)": "f71d96cb",
					"refund()": "590e1ae3",
					"revealChoice(bytes32)": "65ce0ac6",
					"reward()": "228cb733",
					"timeUnit()": "3c6a7f9b"
				}
			},
			"storageLayout": {
				"storage": [
					{
						"astId": 315,
						"contract": "RPSLS.sol:RPSLS",
						"label": "commitReveal",
						"offset": 0,
						"slot": "0",
						"type": "t_contract(CommitReveal)307"
					},
					{
						"astId": 318,
						"contract": "RPSLS.sol:RPSLS",
						"label": "timeUnit",
						"offset": 0,
						"slot": "1",
						"type": "t_contract(TimeUnit)833"
					},
					{
						"astId": 321,
						"contract": "RPSLS.sol:RPSLS",
						"label": "WAVAX",
						"offset": 0,
						"slot": "2",
						"type": "t_contract(IERC20)77"
					},
					{
						"astId": 324,
						"contract": "RPSLS.sol:RPSLS",
						"label": "numPlayer",
						"offset": 0,
						"slot": "3",
						"type": "t_uint256"
					},
					{
						"astId": 327,
						"contract": "RPSLS.sol:RPSLS",
						"label": "reward",
						"offset": 0,
						"slot": "4",
						"type": "t_uint256"
					},
					{
						"astId": 331,
						"contract": "RPSLS.sol:RPSLS",
						"label": "player_choice",
						"offset": 0,
						"slot": "5",
						"type": "t_mapping(t_address,t_uint256)"
					},
					{
						"astId": 334,
						"contract": "RPSLS.sol:RPSLS",
						"label": "players",
						"offset": 0,
						"slot": "6",
						"type": "t_array(t_address)dyn_storage"
					},
					{
						"astId": 337,
						"contract": "RPSLS.sol:RPSLS",
						"label": "numCommits",
						"offset": 0,
						"slot": "7",
						"type": "t_uint256"
					},
					{
						"astId": 340,
						"contract": "RPSLS.sol:RPSLS",
						"label": "numReveals",
						"offset": 0,
						"slot": "8",
						"type": "t_uint256"
					}
				],
				"types": {
					"t_address": {
						"encoding": "inplace",
						"label": "address",
						"numberOfBytes": "20"
					},
					"t_array(t_address)dyn_storage": {
						"base": "t_address",
						"encoding": "dynamic_array",
						"label": "address[]",
						"numberOfBytes": "32"
					},
					"t_contract(CommitReveal)307": {
						"encoding": "inplace",
						"label": "contract CommitReveal",
						"numberOfBytes": "20"
					},
					"t_contract(IERC20)77": {
						"encoding": "inplace",
						"label": "contract IERC20",
						"numberOfBytes": "20"
					},
					"t_contract(TimeUnit)833": {
						"encoding": "inplace",
						"label": "contract TimeUnit",
						"numberOfBytes": "20"
					},
					"t_mapping(t_address,t_uint256)": {
						"encoding": "mapping",
						"key": "t_address",
						"label": "mapping(address => uint256)",
						"numberOfBytes": "32",
						"value": "t_uint256"
					},
					"t_uint256": {
						"encoding": "inplace",
						"label": "uint256",
						"numberOfBytes": "32"
					}
				}
			},
			"userdoc": {
				"kind": "user",
				"methods": {},
				"version": 1
			}
		}
	}
}