{
	"RPSLS.sol": {
		"RPSLS": {
			"abi": [
				{
					"inputs": [],
					"stateMutability": "nonpayable",
					"type": "constructor"
				},
				{
					"anonymous": false,
					"inputs": [],
					"name": "GameReset",
					"type": "event"
				},
				{
					"anonymous": false,
					"inputs": [
						{
							"indexed": true,
							"internalType": "address",
							"name": "player",
							"type": "address"
						}
					],
					"name": "PlayerAdded",
					"type": "event"
				},
				{
					"anonymous": false,
					"inputs": [
						{
							"indexed": true,
							"internalType": "address",
							"name": "winner",
							"type": "address"
						},
						{
							"indexed": false,
							"internalType": "uint256",
							"name": "amount",
							"type": "uint256"
						}
					],
					"name": "Winner",
					"type": "event"
				},
				{
					"inputs": [],
					"name": "addPlayer",
					"outputs": [],
					"stateMutability": "payable",
					"type": "function"
				},
				{
					"inputs": [],
					"name": "commitReveal",
					"outputs": [
						{
							"internalType": "contract CommitReveal",
							"name": "",
							"type": "address"
						}
					],
					"stateMutability": "view",
					"type": "function"
				},
				{
					"inputs": [
						{
							"internalType": "bytes32",
							"name": "revealHash",
							"type": "bytes32"
						}
					],
					"name": "getChoiceFromHash",
					"outputs": [
						{
							"internalType": "uint8",
							"name": "",
							"type": "uint8"
						}
					],
					"stateMutability": "pure",
					"type": "function"
				},
				{
					"inputs": [
						{
							"internalType": "bytes32",
							"name": "commitHash",
							"type": "bytes32"
						}
					],
					"name": "inputCommit",
					"outputs": [],
					"stateMutability": "nonpayable",
					"type": "function"
				},
				{
					"inputs": [],
					"name": "numCommits",
					"outputs": [
						{
							"internalType": "uint256",
							"name": "",
							"type": "uint256"
						}
					],
					"stateMutability": "view",
					"type": "function"
				},
				{
					"inputs": [],
					"name": "numPlayer",
					"outputs": [
						{
							"internalType": "uint256",
							"name": "",
							"type": "uint256"
						}
					],
					"stateMutability": "view",
					"type": "function"
				},
				{
					"inputs": [],
					"name": "numReveals",
					"outputs": [
						{
							"internalType": "uint256",
							"name": "",
							"type": "uint256"
						}
					],
					"stateMutability": "view",
					"type": "function"
				},
				{
					"inputs": [
						{
							"internalType": "address",
							"name": "",
							"type": "address"
						}
					],
					"name": "player_choice",
					"outputs": [
						{
							"internalType": "uint256",
							"name": "",
							"type": "uint256"
						}
					],
					"stateMutability": "view",
					"type": "function"
				},
				{
					"inputs": [
						{
							"internalType": "uint256",
							"name": "",
							"type": "uint256"
						}
					],
					"name": "players",
					"outputs": [
						{
							"internalType": "address",
							"name": "",
							"type": "address"
						}
					],
					"stateMutability": "view",
					"type": "function"
				},
				{
					"inputs": [],
					"name": "refund",
					"outputs": [],
					"stateMutability": "nonpayable",
					"type": "function"
				},
				{
					"inputs": [
						{
							"internalType": "bytes32",
							"name": "revealHash",
							"type": "bytes32"
						}
					],
					"name": "revealChoice",
					"outputs": [],
					"stateMutability": "nonpayable",
					"type": "function"
				},
				{
					"inputs": [],
					"name": "reward",
					"outputs": [
						{
							"internalType": "uint256",
							"name": "",
							"type": "uint256"
						}
					],
					"stateMutability": "view",
					"type": "function"
				},
				{
					"inputs": [],
					"name": "timeUnit",
					"outputs": [
						{
							"internalType": "contract TimeUnit",
							"name": "",
							"type": "address"
						}
					],
					"stateMutability": "view",
					"type": "function"
				}
			],
			"devdoc": {
				"kind": "dev",
				"methods": {},
				"version": 1
			},
			"evm": {
				"assembly": "    /* \"RPSLS.sol\":130:4649  contract RPSLS{... */\n  mstore(0x40, 0x80)\n    /* \"RPSLS.sol\":249:250  0 */\n  0x00\n    /* \"RPSLS.sol\":225:250  uint public numPlayer = 0 */\n  0x02\n  sstore\n    /* \"RPSLS.sol\":278:279  0 */\n  0x00\n    /* \"RPSLS.sol\":257:279  uint public reward = 0 */\n  0x03\n  sstore\n    /* \"RPSLS.sol\":457:458  0 */\n  0x00\n    /* \"RPSLS.sol\":432:458  uint public numCommits = 0 */\n  0x06\n  sstore\n    /* \"RPSLS.sol\":490:491  0 */\n  0x00\n    /* \"RPSLS.sol\":465:491  uint public numReveals = 0 */\n  0x07\n  sstore\n    /* \"RPSLS.sol\":630:734  constructor() {... */\n  callvalue\n  dup1\n  iszero\n  tag_1\n  jumpi\n  0x00\n  dup1\n  revert\ntag_1:\n  pop\n    /* \"RPSLS.sol\":670:688  new CommitReveal() */\n  mload(0x40)\n  tag_4\n  swap1\n  tag_5\n  jump\t// in\ntag_4:\n  mload(0x40)\n  dup1\n  swap2\n  sub\n  swap1\n  0x00\n  create\n  dup1\n  iszero\n  dup1\n  iszero\n  tag_6\n  jumpi\n  returndatasize\n  0x00\n  dup1\n  returndatacopy\n  revert(0x00, returndatasize)\ntag_6:\n  pop\n    /* \"RPSLS.sol\":655:667  commitReveal */\n  0x00\n  dup1\n    /* \"RPSLS.sol\":655:688  commitReveal = new CommitReveal() */\n  0x0100\n  exp\n  dup2\n  sload\n  dup2\n  0xffffffffffffffffffffffffffffffffffffffff\n  mul\n  not\n  and\n  swap1\n  dup4\n  0xffffffffffffffffffffffffffffffffffffffff\n  and\n  mul\n  or\n  swap1\n  sstore\n  pop\n    /* \"RPSLS.sol\":710:724  new TimeUnit() */\n  mload(0x40)\n  tag_7\n  swap1\n  tag_8\n  jump\t// in\ntag_7:\n  mload(0x40)\n  dup1\n  swap2\n  sub\n  swap1\n  0x00\n  create\n  dup1\n  iszero\n  dup1\n  iszero\n  tag_9\n  jumpi\n  returndatasize\n  0x00\n  dup1\n  returndatacopy\n  revert(0x00, returndatasize)\ntag_9:\n  pop\n    /* \"RPSLS.sol\":699:707  timeUnit */\n  0x01\n  0x00\n    /* \"RPSLS.sol\":699:724  timeUnit = new TimeUnit() */\n  0x0100\n  exp\n  dup2\n  sload\n  dup2\n  0xffffffffffffffffffffffffffffffffffffffff\n  mul\n  not\n  and\n  swap1\n  dup4\n  0xffffffffffffffffffffffffffffffffffffffff\n  and\n  mul\n  or\n  swap1\n  sstore\n  pop\n    /* \"RPSLS.sol\":130:4649  contract RPSLS{... */\n  jump(tag_10)\ntag_5:\n  dataSize(sub_1)\n  dup1\n  dataOffset(sub_1)\n  dup4\n  codecopy\n  add\n  swap1\n  jump\t// out\ntag_8:\n  dataSize(sub_2)\n  dup1\n  dataOffset(sub_2)\n  dup4\n  codecopy\n  add\n  swap1\n  jump\t// out\ntag_10:\n  dataSize(sub_0)\n  dup1\n  dataOffset(sub_0)\n  0x00\n  codecopy\n  0x00\n  return\nstop\n\nsub_0: assembly {\n        /* \"RPSLS.sol\":130:4649  contract RPSLS{... */\n      mstore(0x40, 0x80)\n      jumpi(tag_1, lt(calldatasize, 0x04))\n      shr(0xe0, calldataload(0x00))\n      dup1\n      0x90d5d0c3\n      gt\n      tag_15\n      jumpi\n      dup1\n      0xa040478d\n      gt\n      tag_16\n      jumpi\n      dup1\n      0xa040478d\n      eq\n      tag_11\n      jumpi\n      dup1\n      0xa9c6921a\n      eq\n      tag_12\n      jumpi\n      dup1\n      0xd5b30714\n      eq\n      tag_13\n      jumpi\n      dup1\n      0xf71d96cb\n      eq\n      tag_14\n      jumpi\n      jump(tag_1)\n    tag_16:\n      dup1\n      0x90d5d0c3\n      eq\n      tag_8\n      jumpi\n      dup1\n      0x9b2c1d40\n      eq\n      tag_9\n      jumpi\n      dup1\n      0x9d7b3f2d\n      eq\n      tag_10\n      jumpi\n      jump(tag_1)\n    tag_15:\n      dup1\n      0x228cb733\n      eq\n      tag_2\n      jumpi\n      dup1\n      0x27b5db8a\n      eq\n      tag_3\n      jumpi\n      dup1\n      0x2f231163\n      eq\n      tag_4\n      jumpi\n      dup1\n      0x3c6a7f9b\n      eq\n      tag_5\n      jumpi\n      dup1\n      0x590e1ae3\n      eq\n      tag_6\n      jumpi\n      dup1\n      0x65ce0ac6\n      eq\n      tag_7\n      jumpi\n    tag_1:\n      0x00\n      dup1\n      revert\n        /* \"RPSLS.sol\":257:279  uint public reward = 0 */\n    tag_2:\n      callvalue\n      dup1\n      iszero\n      tag_17\n      jumpi\n      0x00\n      dup1\n      revert\n    tag_17:\n      pop\n      tag_18\n      tag_19\n      jump\t// in\n    tag_18:\n      mload(0x40)\n      tag_20\n      swap2\n      swap1\n      tag_21\n      jump\t// in\n    tag_20:\n      mload(0x40)\n      dup1\n      swap2\n      sub\n      swap1\n      return\n        /* \"RPSLS.sol\":1159:1622  function addPlayer() public payable onlyAllowedAccounts {... */\n    tag_3:\n      tag_22\n      tag_23\n      jump\t// in\n    tag_22:\n      stop\n        /* \"RPSLS.sol\":432:458  uint public numCommits = 0 */\n    tag_4:\n      callvalue\n      dup1\n      iszero\n      tag_24\n      jumpi\n      0x00\n      dup1\n      revert\n    tag_24:\n      pop\n      tag_25\n      tag_26\n      jump\t// in\n    tag_25:\n      mload(0x40)\n      tag_27\n      swap2\n      swap1\n      tag_21\n      jump\t// in\n    tag_27:\n      mload(0x40)\n      dup1\n      swap2\n      sub\n      swap1\n      return\n        /* \"RPSLS.sol\":192:216  TimeUnit public timeUnit */\n    tag_5:\n      callvalue\n      dup1\n      iszero\n      tag_28\n      jumpi\n      0x00\n      dup1\n      revert\n    tag_28:\n      pop\n      tag_29\n      tag_30\n      jump\t// in\n    tag_29:\n      mload(0x40)\n      tag_31\n      swap2\n      swap1\n      tag_32\n      jump\t// in\n    tag_31:\n      mload(0x40)\n      dup1\n      swap2\n      sub\n      swap1\n      return\n        /* \"RPSLS.sol\":3662:4328  function refund() public {... */\n    tag_6:\n      callvalue\n      dup1\n      iszero\n      tag_33\n      jumpi\n      0x00\n      dup1\n      revert\n    tag_33:\n      pop\n      tag_34\n      tag_35\n      jump\t// in\n    tag_34:\n      stop\n        /* \"RPSLS.sol\":1869:2322  function revealChoice(bytes32 revealHash) public {... */\n    tag_7:\n      callvalue\n      dup1\n      iszero\n      tag_36\n      jumpi\n      0x00\n      dup1\n      revert\n    tag_36:\n      pop\n      tag_37\n      0x04\n      dup1\n      calldatasize\n      sub\n      dup2\n      add\n      swap1\n      tag_38\n      swap2\n      swap1\n      tag_39\n      jump\t// in\n    tag_38:\n      tag_40\n      jump\t// in\n    tag_37:\n      stop\n        /* \"RPSLS.sol\":225:250  uint public numPlayer = 0 */\n    tag_8:\n      callvalue\n      dup1\n      iszero\n      tag_41\n      jumpi\n      0x00\n      dup1\n      revert\n    tag_41:\n      pop\n      tag_42\n      tag_43\n      jump\t// in\n    tag_42:\n      mload(0x40)\n      tag_44\n      swap2\n      swap1\n      tag_21\n      jump\t// in\n    tag_44:\n      mload(0x40)\n      dup1\n      swap2\n      sub\n      swap1\n      return\n        /* \"RPSLS.sol\":465:491  uint public numReveals = 0 */\n    tag_9:\n      callvalue\n      dup1\n      iszero\n      tag_45\n      jumpi\n      0x00\n      dup1\n      revert\n    tag_45:\n      pop\n      tag_46\n      tag_47\n      jump\t// in\n    tag_46:\n      mload(0x40)\n      tag_48\n      swap2\n      swap1\n      tag_21\n      jump\t// in\n    tag_48:\n      mload(0x40)\n      dup1\n      swap2\n      sub\n      swap1\n      return\n        /* \"RPSLS.sol\":153:185  CommitReveal public commitReveal */\n    tag_10:\n      callvalue\n      dup1\n      iszero\n      tag_49\n      jumpi\n      0x00\n      dup1\n      revert\n    tag_49:\n      pop\n      tag_50\n      tag_51\n      jump\t// in\n    tag_50:\n      mload(0x40)\n      tag_52\n      swap2\n      swap1\n      tag_53\n      jump\t// in\n    tag_52:\n      mload(0x40)\n      dup1\n      swap2\n      sub\n      swap1\n      return\n        /* \"RPSLS.sol\":286:331  mapping(address => uint) public player_choice */\n    tag_11:\n      callvalue\n      dup1\n      iszero\n      tag_54\n      jumpi\n      0x00\n      dup1\n      revert\n    tag_54:\n      pop\n      tag_55\n      0x04\n      dup1\n      calldatasize\n      sub\n      dup2\n      add\n      swap1\n      tag_56\n      swap2\n      swap1\n      tag_57\n      jump\t// in\n    tag_56:\n      tag_58\n      jump\t// in\n    tag_55:\n      mload(0x40)\n      tag_59\n      swap2\n      swap1\n      tag_21\n      jump\t// in\n    tag_59:\n      mload(0x40)\n      dup1\n      swap2\n      sub\n      swap1\n      return\n        /* \"RPSLS.sol\":1630:1861  function inputCommit(bytes32 commitHash) public {... */\n    tag_12:\n      callvalue\n      dup1\n      iszero\n      tag_60\n      jumpi\n      0x00\n      dup1\n      revert\n    tag_60:\n      pop\n      tag_61\n      0x04\n      dup1\n      calldatasize\n      sub\n      dup2\n      add\n      swap1\n      tag_62\n      swap2\n      swap1\n      tag_39\n      jump\t// in\n    tag_62:\n      tag_63\n      jump\t// in\n    tag_61:\n      stop\n        /* \"RPSLS.sol\":2330:2507  function getChoiceFromHash(bytes32 revealHash) public pure returns (uint8) {... */\n    tag_13:\n      callvalue\n      dup1\n      iszero\n      tag_64\n      jumpi\n      0x00\n      dup1\n      revert\n    tag_64:\n      pop\n      tag_65\n      0x04\n      dup1\n      calldatasize\n      sub\n      dup2\n      add\n      swap1\n      tag_66\n      swap2\n      swap1\n      tag_39\n      jump\t// in\n    tag_66:\n      tag_67\n      jump\t// in\n    tag_65:\n      mload(0x40)\n      tag_68\n      swap2\n      swap1\n      tag_69\n      jump\t// in\n    tag_68:\n      mload(0x40)\n      dup1\n      swap2\n      sub\n      swap1\n      return\n        /* \"RPSLS.sol\":399:423  address[] public players */\n    tag_14:\n      callvalue\n      dup1\n      iszero\n      tag_70\n      jumpi\n      0x00\n      dup1\n      revert\n    tag_70:\n      pop\n      tag_71\n      0x04\n      dup1\n      calldatasize\n      sub\n      dup2\n      add\n      swap1\n      tag_72\n      swap2\n      swap1\n      tag_73\n      jump\t// in\n    tag_72:\n      tag_74\n      jump\t// in\n    tag_71:\n      mload(0x40)\n      tag_75\n      swap2\n      swap1\n      tag_76\n      jump\t// in\n    tag_75:\n      mload(0x40)\n      dup1\n      swap2\n      sub\n      swap1\n      return\n        /* \"RPSLS.sol\":257:279  uint public reward = 0 */\n    tag_19:\n      sload(0x03)\n      dup2\n      jump\t// out\n        /* \"RPSLS.sol\":1159:1622  function addPlayer() public payable onlyAllowedAccounts {... */\n    tag_23:\n        /* \"RPSLS.sol\":822:864  0x5B38Da6a701c568545dCfcB03FcB875f56beddC4 */\n      0x5b38da6a701c568545dcfcb03fcb875f56beddc4\n        /* \"RPSLS.sol\":808:864  msg.sender == 0x5B38Da6a701c568545dCfcB03FcB875f56beddC4 */\n      0xffffffffffffffffffffffffffffffffffffffff\n      and\n        /* \"RPSLS.sol\":808:818  msg.sender */\n      caller\n        /* \"RPSLS.sol\":808:864  msg.sender == 0x5B38Da6a701c568545dCfcB03FcB875f56beddC4 */\n      0xffffffffffffffffffffffffffffffffffffffff\n      and\n      eq\n        /* \"RPSLS.sol\":808:937  msg.sender == 0x5B38Da6a701c568545dCfcB03FcB875f56beddC4 ||... */\n      dup1\n      tag_78\n      jumpi\n      pop\n        /* \"RPSLS.sol\":895:937  0xAb8483F64d9C6d1EcF9b849Ae677dD3315835cb2 */\n      0xab8483f64d9c6d1ecf9b849ae677dd3315835cb2\n        /* \"RPSLS.sol\":881:937  msg.sender == 0xAb8483F64d9C6d1EcF9b849Ae677dD3315835cb2 */\n      0xffffffffffffffffffffffffffffffffffffffff\n      and\n        /* \"RPSLS.sol\":881:891  msg.sender */\n      caller\n        /* \"RPSLS.sol\":881:937  msg.sender == 0xAb8483F64d9C6d1EcF9b849Ae677dD3315835cb2 */\n      0xffffffffffffffffffffffffffffffffffffffff\n      and\n      eq\n        /* \"RPSLS.sol\":808:937  msg.sender == 0x5B38Da6a701c568545dCfcB03FcB875f56beddC4 ||... */\n    tag_78:\n        /* \"RPSLS.sol\":808:1010  msg.sender == 0x5B38Da6a701c568545dCfcB03FcB875f56beddC4 ||... */\n      dup1\n      tag_79\n      jumpi\n      pop\n        /* \"RPSLS.sol\":968:1010  0x4B20993Bc481177ec7E8f571ceCaE8A9e22C02db */\n      0x4b20993bc481177ec7e8f571cecae8a9e22c02db\n        /* \"RPSLS.sol\":954:1010  msg.sender == 0x4B20993Bc481177ec7E8f571ceCaE8A9e22C02db */\n      0xffffffffffffffffffffffffffffffffffffffff\n      and\n        /* \"RPSLS.sol\":954:964  msg.sender */\n      caller\n        /* \"RPSLS.sol\":954:1010  msg.sender == 0x4B20993Bc481177ec7E8f571ceCaE8A9e22C02db */\n      0xffffffffffffffffffffffffffffffffffffffff\n      and\n      eq\n        /* \"RPSLS.sol\":808:1010  msg.sender == 0x5B38Da6a701c568545dCfcB03FcB875f56beddC4 ||... */\n    tag_79:\n        /* \"RPSLS.sol\":808:1083  msg.sender == 0x5B38Da6a701c568545dCfcB03FcB875f56beddC4 ||... */\n      dup1\n      tag_80\n      jumpi\n      pop\n        /* \"RPSLS.sol\":1041:1083  0x78731D3Ca6b7E34aC0F824c42a7cC18A495cabaB */\n      0x78731d3ca6b7e34ac0f824c42a7cc18a495cabab\n        /* \"RPSLS.sol\":1027:1083  msg.sender == 0x78731D3Ca6b7E34aC0F824c42a7cC18A495cabaB */\n      0xffffffffffffffffffffffffffffffffffffffff\n      and\n        /* \"RPSLS.sol\":1027:1037  msg.sender */\n      caller\n        /* \"RPSLS.sol\":1027:1083  msg.sender == 0x78731D3Ca6b7E34aC0F824c42a7cC18A495cabaB */\n      0xffffffffffffffffffffffffffffffffffffffff\n      and\n      eq\n        /* \"RPSLS.sol\":808:1083  msg.sender == 0x5B38Da6a701c568545dCfcB03FcB875f56beddC4 ||... */\n    tag_80:\n        /* \"RPSLS.sol\":786:1131  require(... */\n      tag_81\n      jumpi\n      mload(0x40)\n      0x08c379a000000000000000000000000000000000000000000000000000000000\n      dup2\n      mstore\n      0x04\n      add\n      tag_82\n      swap1\n      tag_83\n      jump\t// in\n    tag_82:\n      mload(0x40)\n      dup1\n      swap2\n      sub\n      swap1\n      revert\n    tag_81:\n        /* \"RPSLS.sol\":1246:1247  2 */\n      0x02\n        /* \"RPSLS.sol\":1234:1243  numPlayer */\n      dup1\n      sload\n        /* \"RPSLS.sol\":1234:1247  numPlayer < 2 */\n      lt\n        /* \"RPSLS.sol\":1226:1270  require(numPlayer < 2, \"Already 2 players.\") */\n      tag_85\n      jumpi\n      mload(0x40)\n      0x08c379a000000000000000000000000000000000000000000000000000000000\n      dup2\n      mstore\n      0x04\n      add\n      tag_86\n      swap1\n      tag_87\n      jump\t// in\n    tag_86:\n      mload(0x40)\n      dup1\n      swap2\n      sub\n      swap1\n      revert\n    tag_85:\n        /* \"RPSLS.sol\":1302:1309  1 ether */\n      0x0de0b6b3a7640000\n        /* \"RPSLS.sol\":1289:1298  msg.value */\n      callvalue\n        /* \"RPSLS.sol\":1289:1309  msg.value == 1 ether */\n      eq\n        /* \"RPSLS.sol\":1281:1330  require(msg.value == 1 ether, \"Must send 1 ETH.\") */\n      tag_88\n      jumpi\n      mload(0x40)\n      0x08c379a000000000000000000000000000000000000000000000000000000000\n      dup2\n      mstore\n      0x04\n      add\n      tag_89\n      swap1\n      tag_90\n      jump\t// in\n    tag_89:\n      mload(0x40)\n      dup1\n      swap2\n      sub\n      swap1\n      revert\n    tag_88:\n        /* \"RPSLS.sol\":1359:1360  0 */\n      0x00\n        /* \"RPSLS.sol\":1347:1356  numPlayer */\n      sload(0x02)\n        /* \"RPSLS.sol\":1347:1360  numPlayer > 0 */\n      gt\n        /* \"RPSLS.sol\":1343:1447  if (numPlayer > 0) {... */\n      iszero\n      tag_91\n      jumpi\n        /* \"RPSLS.sol\":1399:1406  players */\n      0x05\n        /* \"RPSLS.sol\":1407:1408  0 */\n      0x00\n        /* \"RPSLS.sol\":1399:1409  players[0] */\n      dup2\n      sload\n      dup2\n      lt\n      tag_92\n      jumpi\n      tag_93\n      tag_94\n      jump\t// in\n    tag_93:\n    tag_92:\n      swap1\n      0x00\n      mstore\n      keccak256(0x00, 0x20)\n      add\n      0x00\n      swap1\n      sload\n      swap1\n      0x0100\n      exp\n      swap1\n      div\n      0xffffffffffffffffffffffffffffffffffffffff\n      and\n        /* \"RPSLS.sol\":1385:1409  msg.sender != players[0] */\n      0xffffffffffffffffffffffffffffffffffffffff\n      and\n        /* \"RPSLS.sol\":1385:1395  msg.sender */\n      caller\n        /* \"RPSLS.sol\":1385:1409  msg.sender != players[0] */\n      0xffffffffffffffffffffffffffffffffffffffff\n      and\n      sub\n        /* \"RPSLS.sol\":1377:1435  require(msg.sender != players[0], \"Player already added.\") */\n      tag_96\n      jumpi\n      mload(0x40)\n      0x08c379a000000000000000000000000000000000000000000000000000000000\n      dup2\n      mstore\n      0x04\n      add\n      tag_97\n      swap1\n      tag_98\n      jump\t// in\n    tag_97:\n      mload(0x40)\n      dup1\n      swap2\n      sub\n      swap1\n      revert\n    tag_96:\n        /* \"RPSLS.sol\":1343:1447  if (numPlayer > 0) {... */\n    tag_91:\n        /* \"RPSLS.sol\":1469:1478  msg.value */\n      callvalue\n        /* \"RPSLS.sol\":1459:1465  reward */\n      0x03\n      0x00\n        /* \"RPSLS.sol\":1459:1478  reward += msg.value */\n      dup3\n      dup3\n      sload\n      tag_99\n      swap2\n      swap1\n      tag_100\n      jump\t// in\n    tag_99:\n      swap3\n      pop\n      pop\n      dup2\n      swap1\n      sstore\n      pop\n        /* \"RPSLS.sol\":1489:1496  players */\n      0x05\n        /* \"RPSLS.sol\":1502:1512  msg.sender */\n      caller\n        /* \"RPSLS.sol\":1489:1513  players.push(msg.sender) */\n      swap1\n      dup1\n      0x01\n      dup2\n      sload\n      add\n      dup1\n      dup3\n      sstore\n      dup1\n      swap2\n      pop\n      pop\n      0x01\n      swap1\n      sub\n      swap1\n      0x00\n      mstore\n      keccak256(0x00, 0x20)\n      add\n      0x00\n      swap1\n      swap2\n      swap1\n      swap2\n      swap1\n      swap2\n      0x0100\n      exp\n      dup2\n      sload\n      dup2\n      0xffffffffffffffffffffffffffffffffffffffff\n      mul\n      not\n      and\n      swap1\n      dup4\n      0xffffffffffffffffffffffffffffffffffffffff\n      and\n      mul\n      or\n      swap1\n      sstore\n      pop\n        /* \"RPSLS.sol\":1524:1533  numPlayer */\n      0x02\n      0x00\n        /* \"RPSLS.sol\":1524:1535  numPlayer++ */\n      dup2\n      sload\n      dup1\n      swap3\n      swap2\n      swap1\n      tag_102\n      swap1\n      tag_103\n      jump\t// in\n    tag_102:\n      swap2\n      swap1\n      pop\n      sstore\n      pop\n        /* \"RPSLS.sol\":1548:1556  timeUnit */\n      0x01\n      0x00\n      swap1\n      sload\n      swap1\n      0x0100\n      exp\n      swap1\n      div\n      0xffffffffffffffffffffffffffffffffffffffff\n      and\n        /* \"RPSLS.sol\":1548:1573  timeUnit.updateActionTime */\n      0xffffffffffffffffffffffffffffffffffffffff\n      and\n      0xf4176b22\n        /* \"RPSLS.sol\":1548:1575  timeUnit.updateActionTime() */\n      mload(0x40)\n      dup2\n      0xffffffff\n      and\n      0xe0\n      shl\n      dup2\n      mstore\n      0x04\n      add\n      0x00\n      mload(0x40)\n      dup1\n      dup4\n      sub\n      dup2\n      0x00\n      dup8\n      dup1\n      extcodesize\n      iszero\n      dup1\n      iszero\n      tag_104\n      jumpi\n      0x00\n      dup1\n      revert\n    tag_104:\n      pop\n      gas\n      call\n      iszero\n      dup1\n      iszero\n      tag_106\n      jumpi\n      returndatasize\n      0x00\n      dup1\n      returndatacopy\n      revert(0x00, returndatasize)\n    tag_106:\n      pop\n      pop\n      pop\n      pop\n        /* \"RPSLS.sol\":1603:1613  msg.sender */\n      caller\n        /* \"RPSLS.sol\":1591:1614  PlayerAdded(msg.sender) */\n      0xffffffffffffffffffffffffffffffffffffffff\n      and\n      0xf2ae205522024c14e5a7a26ba6d1fb1252dc8e161b5abc79ed5795fd3c5b9261\n      mload(0x40)\n      mload(0x40)\n      dup1\n      swap2\n      sub\n      swap1\n      log2\n        /* \"RPSLS.sol\":1159:1622  function addPlayer() public payable onlyAllowedAccounts {... */\n      jump\t// out\n        /* \"RPSLS.sol\":432:458  uint public numCommits = 0 */\n    tag_26:\n      sload(0x06)\n      dup2\n      jump\t// out\n        /* \"RPSLS.sol\":192:216  TimeUnit public timeUnit */\n    tag_30:\n      0x01\n      0x00\n      swap1\n      sload\n      swap1\n      0x0100\n      exp\n      swap1\n      div\n      0xffffffffffffffffffffffffffffffffffffffff\n      and\n      dup2\n      jump\t// out\n        /* \"RPSLS.sol\":3662:4328  function refund() public {... */\n    tag_35:\n        /* \"RPSLS.sol\":3706:3714  timeUnit */\n      0x01\n      0x00\n      swap1\n      sload\n      swap1\n      0x0100\n      exp\n      swap1\n      div\n      0xffffffffffffffffffffffffffffffffffffffff\n      and\n        /* \"RPSLS.sol\":3706:3729  timeUnit.isTimeExceeded */\n      0xffffffffffffffffffffffffffffffffffffffff\n      and\n      0x4f61fd68\n        /* \"RPSLS.sol\":3706:3731  timeUnit.isTimeExceeded() */\n      mload(0x40)\n      dup2\n      0xffffffff\n      and\n      0xe0\n      shl\n      dup2\n      mstore\n      0x04\n      add\n      0x20\n      mload(0x40)\n      dup1\n      dup4\n      sub\n      dup2\n      dup7\n      gas\n      staticcall\n      iszero\n      dup1\n      iszero\n      tag_109\n      jumpi\n      returndatasize\n      0x00\n      dup1\n      returndatacopy\n      revert(0x00, returndatasize)\n    tag_109:\n      pop\n      pop\n      pop\n      pop\n      mload(0x40)\n      returndatasize\n      not(0x1f)\n      0x1f\n      dup3\n      add\n      and\n      dup3\n      add\n      dup1\n      0x40\n      mstore\n      pop\n      dup2\n      add\n      swap1\n      tag_110\n      swap2\n      swap1\n      tag_111\n      jump\t// in\n    tag_110:\n        /* \"RPSLS.sol\":3698:3761  require(timeUnit.isTimeExceeded(), \"Refund period not elapsed\") */\n      tag_112\n      jumpi\n      mload(0x40)\n      0x08c379a000000000000000000000000000000000000000000000000000000000\n      dup2\n      mstore\n      0x04\n      add\n      tag_113\n      swap1\n      tag_114\n      jump\t// in\n    tag_113:\n      mload(0x40)\n      dup1\n      swap2\n      sub\n      swap1\n      revert\n    tag_112:\n        /* \"RPSLS.sol\":3792:3793  0 */\n      0x00\n        /* \"RPSLS.sol\":3780:3789  numPlayer */\n      sload(0x02)\n        /* \"RPSLS.sol\":3780:3793  numPlayer > 0 */\n      gt\n        /* \"RPSLS.sol\":3772:3812  require(numPlayer > 0, \"No active game\") */\n      tag_115\n      jumpi\n      mload(0x40)\n      0x08c379a000000000000000000000000000000000000000000000000000000000\n      dup2\n      mstore\n      0x04\n      add\n      tag_116\n      swap1\n      tag_117\n      jump\t// in\n    tag_116:\n      mload(0x40)\n      dup1\n      swap2\n      sub\n      swap1\n      revert\n    tag_115:\n        /* \"RPSLS.sol\":3825:3849  address payable account0 */\n      0x00\n        /* \"RPSLS.sol\":3860:3867  players */\n      0x05\n        /* \"RPSLS.sol\":3868:3869  0 */\n      0x00\n        /* \"RPSLS.sol\":3860:3870  players[0] */\n      dup2\n      sload\n      dup2\n      lt\n      tag_118\n      jumpi\n      tag_119\n      tag_94\n      jump\t// in\n    tag_119:\n    tag_118:\n      swap1\n      0x00\n      mstore\n      keccak256(0x00, 0x20)\n      add\n      0x00\n      swap1\n      sload\n      swap1\n      0x0100\n      exp\n      swap1\n      div\n      0xffffffffffffffffffffffffffffffffffffffff\n      and\n        /* \"RPSLS.sol\":3825:3871  address payable account0 = payable(players[0]) */\n      swap1\n      pop\n        /* \"RPSLS.sol\":3901:3902  1 */\n      0x01\n        /* \"RPSLS.sol\":3888:3897  numPlayer */\n      sload(0x02)\n        /* \"RPSLS.sol\":3888:3902  numPlayer == 1 */\n      sub\n        /* \"RPSLS.sol\":3884:4296  if (numPlayer == 1) {... */\n      tag_121\n      jumpi\n        /* \"RPSLS.sol\":3941:3948  players */\n      0x05\n        /* \"RPSLS.sol\":3949:3950  0 */\n      0x00\n        /* \"RPSLS.sol\":3941:3951  players[0] */\n      dup2\n      sload\n      dup2\n      lt\n      tag_122\n      jumpi\n      tag_123\n      tag_94\n      jump\t// in\n    tag_123:\n    tag_122:\n      swap1\n      0x00\n      mstore\n      keccak256(0x00, 0x20)\n      add\n      0x00\n      swap1\n      sload\n      swap1\n      0x0100\n      exp\n      swap1\n      div\n      0xffffffffffffffffffffffffffffffffffffffff\n      and\n        /* \"RPSLS.sol\":3927:3951  msg.sender == players[0] */\n      0xffffffffffffffffffffffffffffffffffffffff\n      and\n        /* \"RPSLS.sol\":3927:3937  msg.sender */\n      caller\n        /* \"RPSLS.sol\":3927:3951  msg.sender == players[0] */\n      0xffffffffffffffffffffffffffffffffffffffff\n      and\n      eq\n        /* \"RPSLS.sol\":3919:3978  require(msg.sender == players[0], \"Only player can refund\") */\n      tag_125\n      jumpi\n      mload(0x40)\n      0x08c379a000000000000000000000000000000000000000000000000000000000\n      dup2\n      mstore\n      0x04\n      add\n      tag_126\n      swap1\n      tag_127\n      jump\t// in\n    tag_126:\n      mload(0x40)\n      dup1\n      swap2\n      sub\n      swap1\n      revert\n    tag_125:\n        /* \"RPSLS.sol\":3993:4001  account0 */\n      dup1\n        /* \"RPSLS.sol\":3993:4010  account0.transfer */\n      0xffffffffffffffffffffffffffffffffffffffff\n      and\n        /* \"RPSLS.sol\":3993:4018  account0.transfer(reward) */\n      0x08fc\n        /* \"RPSLS.sol\":4011:4017  reward */\n      sload(0x03)\n        /* \"RPSLS.sol\":3993:4018  account0.transfer(reward) */\n      swap1\n      dup2\n      iszero\n      mul\n      swap1\n      mload(0x40)\n      0x00\n      mload(0x40)\n      dup1\n      dup4\n      sub\n      dup2\n      dup6\n      dup9\n      dup9\n      call\n      swap4\n      pop\n      pop\n      pop\n      pop\n      iszero\n      dup1\n      iszero\n      tag_129\n      jumpi\n      returndatasize\n      0x00\n      dup1\n      returndatacopy\n      revert(0x00, returndatasize)\n    tag_129:\n      pop\n        /* \"RPSLS.sol\":3884:4296  if (numPlayer == 1) {... */\n      jump(tag_130)\n    tag_121:\n        /* \"RPSLS.sol\":4073:4080  players */\n      0x05\n        /* \"RPSLS.sol\":4081:4082  0 */\n      0x00\n        /* \"RPSLS.sol\":4073:4083  players[0] */\n      dup2\n      sload\n      dup2\n      lt\n      tag_131\n      jumpi\n      tag_132\n      tag_94\n      jump\t// in\n    tag_132:\n    tag_131:\n      swap1\n      0x00\n      mstore\n      keccak256(0x00, 0x20)\n      add\n      0x00\n      swap1\n      sload\n      swap1\n      0x0100\n      exp\n      swap1\n      div\n      0xffffffffffffffffffffffffffffffffffffffff\n      and\n        /* \"RPSLS.sol\":4059:4083  msg.sender == players[0] */\n      0xffffffffffffffffffffffffffffffffffffffff\n      and\n        /* \"RPSLS.sol\":4059:4069  msg.sender */\n      caller\n        /* \"RPSLS.sol\":4059:4083  msg.sender == players[0] */\n      0xffffffffffffffffffffffffffffffffffffffff\n      and\n      eq\n        /* \"RPSLS.sol\":4059:4111  msg.sender == players[0] || msg.sender == players[1] */\n      dup1\n      tag_134\n      jumpi\n      pop\n        /* \"RPSLS.sol\":4101:4108  players */\n      0x05\n        /* \"RPSLS.sol\":4109:4110  1 */\n      0x01\n        /* \"RPSLS.sol\":4101:4111  players[1] */\n      dup2\n      sload\n      dup2\n      lt\n      tag_135\n      jumpi\n      tag_136\n      tag_94\n      jump\t// in\n    tag_136:\n    tag_135:\n      swap1\n      0x00\n      mstore\n      keccak256(0x00, 0x20)\n      add\n      0x00\n      swap1\n      sload\n      swap1\n      0x0100\n      exp\n      swap1\n      div\n      0xffffffffffffffffffffffffffffffffffffffff\n      and\n        /* \"RPSLS.sol\":4087:4111  msg.sender == players[1] */\n      0xffffffffffffffffffffffffffffffffffffffff\n      and\n        /* \"RPSLS.sol\":4087:4097  msg.sender */\n      caller\n        /* \"RPSLS.sol\":4087:4111  msg.sender == players[1] */\n      0xffffffffffffffffffffffffffffffffffffffff\n      and\n      eq\n        /* \"RPSLS.sol\":4059:4111  msg.sender == players[0] || msg.sender == players[1] */\n    tag_134:\n        /* \"RPSLS.sol\":4051:4135  require(msg.sender == players[0] || msg.sender == players[1], \"Unauthorized refund\") */\n      tag_138\n      jumpi\n      mload(0x40)\n      0x08c379a000000000000000000000000000000000000000000000000000000000\n      dup2\n      mstore\n      0x04\n      add\n      tag_139\n      swap1\n      tag_140\n      jump\t// in\n    tag_139:\n      mload(0x40)\n      dup1\n      swap2\n      sub\n      swap1\n      revert\n    tag_138:\n        /* \"RPSLS.sol\":4150:4174  address payable account1 */\n      0x00\n        /* \"RPSLS.sol\":4185:4192  players */\n      0x05\n        /* \"RPSLS.sol\":4193:4194  1 */\n      0x01\n        /* \"RPSLS.sol\":4185:4195  players[1] */\n      dup2\n      sload\n      dup2\n      lt\n      tag_141\n      jumpi\n      tag_142\n      tag_94\n      jump\t// in\n    tag_142:\n    tag_141:\n      swap1\n      0x00\n      mstore\n      keccak256(0x00, 0x20)\n      add\n      0x00\n      swap1\n      sload\n      swap1\n      0x0100\n      exp\n      swap1\n      div\n      0xffffffffffffffffffffffffffffffffffffffff\n      and\n        /* \"RPSLS.sol\":4150:4196  address payable account1 = payable(players[1]) */\n      swap1\n      pop\n        /* \"RPSLS.sol\":4211:4219  account0 */\n      dup2\n        /* \"RPSLS.sol\":4211:4228  account0.transfer */\n      0xffffffffffffffffffffffffffffffffffffffff\n      and\n        /* \"RPSLS.sol\":4211:4240  account0.transfer(reward / 2) */\n      0x08fc\n        /* \"RPSLS.sol\":4238:4239  2 */\n      0x02\n        /* \"RPSLS.sol\":4229:4235  reward */\n      sload(0x03)\n        /* \"RPSLS.sol\":4229:4239  reward / 2 */\n      tag_144\n      swap2\n      swap1\n      tag_145\n      jump\t// in\n    tag_144:\n        /* \"RPSLS.sol\":4211:4240  account0.transfer(reward / 2) */\n      swap1\n      dup2\n      iszero\n      mul\n      swap1\n      mload(0x40)\n      0x00\n      mload(0x40)\n      dup1\n      dup4\n      sub\n      dup2\n      dup6\n      dup9\n      dup9\n      call\n      swap4\n      pop\n      pop\n      pop\n      pop\n      iszero\n      dup1\n      iszero\n      tag_147\n      jumpi\n      returndatasize\n      0x00\n      dup1\n      returndatacopy\n      revert(0x00, returndatasize)\n    tag_147:\n      pop\n        /* \"RPSLS.sol\":4255:4263  account1 */\n      dup1\n        /* \"RPSLS.sol\":4255:4272  account1.transfer */\n      0xffffffffffffffffffffffffffffffffffffffff\n      and\n        /* \"RPSLS.sol\":4255:4284  account1.transfer(reward / 2) */\n      0x08fc\n        /* \"RPSLS.sol\":4282:4283  2 */\n      0x02\n        /* \"RPSLS.sol\":4273:4279  reward */\n      sload(0x03)\n        /* \"RPSLS.sol\":4273:4283  reward / 2 */\n      tag_148\n      swap2\n      swap1\n      tag_145\n      jump\t// in\n    tag_148:\n        /* \"RPSLS.sol\":4255:4284  account1.transfer(reward / 2) */\n      swap1\n      dup2\n      iszero\n      mul\n      swap1\n      mload(0x40)\n      0x00\n      mload(0x40)\n      dup1\n      dup4\n      sub\n      dup2\n      dup6\n      dup9\n      dup9\n      call\n      swap4\n      pop\n      pop\n      pop\n      pop\n      iszero\n      dup1\n      iszero\n      tag_150\n      jumpi\n      returndatasize\n      0x00\n      dup1\n      returndatacopy\n      revert(0x00, returndatasize)\n    tag_150:\n      pop\n        /* \"RPSLS.sol\":4036:4296  {... */\n      pop\n        /* \"RPSLS.sol\":3884:4296  if (numPlayer == 1) {... */\n    tag_130:\n        /* \"RPSLS.sol\":4308:4320  _resetGame() */\n      tag_151\n        /* \"RPSLS.sol\":4308:4318  _resetGame */\n      tag_152\n        /* \"RPSLS.sol\":4308:4320  _resetGame() */\n      jump\t// in\n    tag_151:\n        /* \"RPSLS.sol\":3687:4328  {... */\n      pop\n        /* \"RPSLS.sol\":3662:4328  function refund() public {... */\n      jump\t// out\n        /* \"RPSLS.sol\":1869:2322  function revealChoice(bytes32 revealHash) public {... */\n    tag_40:\n        /* \"RPSLS.sol\":1951:1952  2 */\n      0x02\n        /* \"RPSLS.sol\":1937:1947  numCommits */\n      sload(0x06)\n        /* \"RPSLS.sol\":1937:1952  numCommits == 2 */\n      eq\n        /* \"RPSLS.sol\":1929:1999  require(numCommits == 2, \"Both players must commit before revealing.\") */\n      tag_154\n      jumpi\n      mload(0x40)\n      0x08c379a000000000000000000000000000000000000000000000000000000000\n      dup2\n      mstore\n      0x04\n      add\n      tag_155\n      swap1\n      tag_156\n      jump\t// in\n    tag_155:\n      mload(0x40)\n      dup1\n      swap2\n      sub\n      swap1\n      revert\n    tag_154:\n        /* \"RPSLS.sol\":2012:2024  commitReveal */\n      0x00\n      dup1\n      sload\n      swap1\n      0x0100\n      exp\n      swap1\n      div\n      0xffffffffffffffffffffffffffffffffffffffff\n      and\n        /* \"RPSLS.sol\":2012:2031  commitReveal.reveal */\n      0xffffffffffffffffffffffffffffffffffffffff\n      and\n      0xad487790\n        /* \"RPSLS.sol\":2032:2042  revealHash */\n      dup3\n        /* \"RPSLS.sol\":2044:2054  msg.sender */\n      caller\n        /* \"RPSLS.sol\":2012:2055  commitReveal.reveal(revealHash, msg.sender) */\n      mload(0x40)\n      dup4\n      0xffffffff\n      and\n      0xe0\n      shl\n      dup2\n      mstore\n      0x04\n      add\n      tag_157\n      swap3\n      swap2\n      swap1\n      tag_158\n      jump\t// in\n    tag_157:\n      0x00\n      mload(0x40)\n      dup1\n      dup4\n      sub\n      dup2\n      0x00\n      dup8\n      dup1\n      extcodesize\n      iszero\n      dup1\n      iszero\n      tag_159\n      jumpi\n      0x00\n      dup1\n      revert\n    tag_159:\n      pop\n      gas\n      call\n      iszero\n      dup1\n      iszero\n      tag_161\n      jumpi\n      returndatasize\n      0x00\n      dup1\n      returndatacopy\n      revert(0x00, returndatasize)\n    tag_161:\n      pop\n      pop\n      pop\n      pop\n        /* \"RPSLS.sol\":2066:2086  uint8 choiceFromHash */\n      0x00\n        /* \"RPSLS.sol\":2089:2118  getChoiceFromHash(revealHash) */\n      tag_162\n        /* \"RPSLS.sol\":2107:2117  revealHash */\n      dup3\n        /* \"RPSLS.sol\":2089:2106  getChoiceFromHash */\n      tag_67\n        /* \"RPSLS.sol\":2089:2118  getChoiceFromHash(revealHash) */\n      jump\t// in\n    tag_162:\n        /* \"RPSLS.sol\":2066:2118  uint8 choiceFromHash = getChoiceFromHash(revealHash) */\n      swap1\n      pop\n        /* \"RPSLS.sol\":2157:2171  choiceFromHash */\n      dup1\n        /* \"RPSLS.sol\":2129:2171  player_choice[msg.sender] = choiceFromHash */\n      0xff\n      and\n        /* \"RPSLS.sol\":2129:2142  player_choice */\n      0x04\n        /* \"RPSLS.sol\":2129:2154  player_choice[msg.sender] */\n      0x00\n        /* \"RPSLS.sol\":2143:2153  msg.sender */\n      caller\n        /* \"RPSLS.sol\":2129:2154  player_choice[msg.sender] */\n      0xffffffffffffffffffffffffffffffffffffffff\n      and\n      0xffffffffffffffffffffffffffffffffffffffff\n      and\n      dup2\n      mstore\n      0x20\n      add\n      swap1\n      dup2\n      mstore\n      0x20\n      add\n      0x00\n      keccak256\n        /* \"RPSLS.sol\":2129:2171  player_choice[msg.sender] = choiceFromHash */\n      dup2\n      swap1\n      sstore\n      pop\n        /* \"RPSLS.sol\":2182:2192  numReveals */\n      0x07\n      0x00\n        /* \"RPSLS.sol\":2182:2194  numReveals++ */\n      dup2\n      sload\n      dup1\n      swap3\n      swap2\n      swap1\n      tag_163\n      swap1\n      tag_103\n      jump\t// in\n    tag_163:\n      swap2\n      swap1\n      pop\n      sstore\n      pop\n        /* \"RPSLS.sol\":2225:2226  2 */\n      0x02\n        /* \"RPSLS.sol\":2211:2221  numReveals */\n      sload(0x07)\n        /* \"RPSLS.sol\":2211:2226  numReveals == 2 */\n      sub\n        /* \"RPSLS.sol\":2207:2275  if (numReveals == 2) {... */\n      tag_164\n      jumpi\n        /* \"RPSLS.sol\":2243:2263  _checkWinnerAndPay() */\n      tag_165\n        /* \"RPSLS.sol\":2243:2261  _checkWinnerAndPay */\n      tag_166\n        /* \"RPSLS.sol\":2243:2263  _checkWinnerAndPay() */\n      jump\t// in\n    tag_165:\n        /* \"RPSLS.sol\":2207:2275  if (numReveals == 2) {... */\n    tag_164:\n        /* \"RPSLS.sol\":2287:2295  timeUnit */\n      0x01\n      0x00\n      swap1\n      sload\n      swap1\n      0x0100\n      exp\n      swap1\n      div\n      0xffffffffffffffffffffffffffffffffffffffff\n      and\n        /* \"RPSLS.sol\":2287:2312  timeUnit.updateActionTime */\n      0xffffffffffffffffffffffffffffffffffffffff\n      and\n      0xf4176b22\n        /* \"RPSLS.sol\":2287:2314  timeUnit.updateActionTime() */\n      mload(0x40)\n      dup2\n      0xffffffff\n      and\n      0xe0\n      shl\n      dup2\n      mstore\n      0x04\n      add\n      0x00\n      mload(0x40)\n      dup1\n      dup4\n      sub\n      dup2\n      0x00\n      dup8\n      dup1\n      extcodesize\n      iszero\n      dup1\n      iszero\n      tag_167\n      jumpi\n      0x00\n      dup1\n      revert\n    tag_167:\n      pop\n      gas\n      call\n      iszero\n      dup1\n      iszero\n      tag_169\n      jumpi\n      returndatasize\n      0x00\n      dup1\n      returndatacopy\n      revert(0x00, returndatasize)\n    tag_169:\n      pop\n      pop\n      pop\n      pop\n        /* \"RPSLS.sol\":1918:2322  {... */\n      pop\n        /* \"RPSLS.sol\":1869:2322  function revealChoice(bytes32 revealHash) public {... */\n      pop\n      jump\t// out\n        /* \"RPSLS.sol\":225:250  uint public numPlayer = 0 */\n    tag_43:\n      sload(0x02)\n      dup2\n      jump\t// out\n        /* \"RPSLS.sol\":465:491  uint public numReveals = 0 */\n    tag_47:\n      sload(0x07)\n      dup2\n      jump\t// out\n        /* \"RPSLS.sol\":153:185  CommitReveal public commitReveal */\n    tag_51:\n      0x00\n      dup1\n      sload\n      swap1\n      0x0100\n      exp\n      swap1\n      div\n      0xffffffffffffffffffffffffffffffffffffffff\n      and\n      dup2\n      jump\t// out\n        /* \"RPSLS.sol\":286:331  mapping(address => uint) public player_choice */\n    tag_58:\n      mstore(0x20, 0x04)\n      dup1\n      0x00\n      mstore\n      keccak256(0x00, 0x40)\n      0x00\n      swap2\n      pop\n      swap1\n      pop\n      sload\n      dup2\n      jump\t// out\n        /* \"RPSLS.sol\":1630:1861  function inputCommit(bytes32 commitHash) public {... */\n    tag_63:\n        /* \"RPSLS.sol\":1710:1711  2 */\n      0x02\n        /* \"RPSLS.sol\":1697:1706  numPlayer */\n      dup1\n      sload\n        /* \"RPSLS.sol\":1697:1711  numPlayer == 2 */\n      eq\n        /* \"RPSLS.sol\":1689:1734  require(numPlayer == 2, \"Game is not ready.\") */\n      tag_171\n      jumpi\n      mload(0x40)\n      0x08c379a000000000000000000000000000000000000000000000000000000000\n      dup2\n      mstore\n      0x04\n      add\n      tag_172\n      swap1\n      tag_173\n      jump\t// in\n    tag_172:\n      mload(0x40)\n      dup1\n      swap2\n      sub\n      swap1\n      revert\n    tag_171:\n        /* \"RPSLS.sol\":1747:1759  commitReveal */\n      0x00\n      dup1\n      sload\n      swap1\n      0x0100\n      exp\n      swap1\n      div\n      0xffffffffffffffffffffffffffffffffffffffff\n      and\n        /* \"RPSLS.sol\":1747:1766  commitReveal.commit */\n      0xffffffffffffffffffffffffffffffffffffffff\n      and\n      0x5a746101\n        /* \"RPSLS.sol\":1767:1777  commitHash */\n      dup3\n        /* \"RPSLS.sol\":1779:1789  msg.sender */\n      caller\n        /* \"RPSLS.sol\":1747:1790  commitReveal.commit(commitHash, msg.sender) */\n      mload(0x40)\n      dup4\n      0xffffffff\n      and\n      0xe0\n      shl\n      dup2\n      mstore\n      0x04\n      add\n      tag_174\n      swap3\n      swap2\n      swap1\n      tag_158\n      jump\t// in\n    tag_174:\n      0x00\n      mload(0x40)\n      dup1\n      dup4\n      sub\n      dup2\n      0x00\n      dup8\n      dup1\n      extcodesize\n      iszero\n      dup1\n      iszero\n      tag_175\n      jumpi\n      0x00\n      dup1\n      revert\n    tag_175:\n      pop\n      gas\n      call\n      iszero\n      dup1\n      iszero\n      tag_177\n      jumpi\n      returndatasize\n      0x00\n      dup1\n      returndatacopy\n      revert(0x00, returndatasize)\n    tag_177:\n      pop\n      pop\n      pop\n      pop\n        /* \"RPSLS.sol\":1801:1811  numCommits */\n      0x06\n      0x00\n        /* \"RPSLS.sol\":1801:1813  numCommits++ */\n      dup2\n      sload\n      dup1\n      swap3\n      swap2\n      swap1\n      tag_178\n      swap1\n      tag_103\n      jump\t// in\n    tag_178:\n      swap2\n      swap1\n      pop\n      sstore\n      pop\n        /* \"RPSLS.sol\":1826:1834  timeUnit */\n      0x01\n      0x00\n      swap1\n      sload\n      swap1\n      0x0100\n      exp\n      swap1\n      div\n      0xffffffffffffffffffffffffffffffffffffffff\n      and\n        /* \"RPSLS.sol\":1826:1851  timeUnit.updateActionTime */\n      0xffffffffffffffffffffffffffffffffffffffff\n      and\n      0xf4176b22\n        /* \"RPSLS.sol\":1826:1853  timeUnit.updateActionTime() */\n      mload(0x40)\n      dup2\n      0xffffffff\n      and\n      0xe0\n      shl\n      dup2\n      mstore\n      0x04\n      add\n      0x00\n      mload(0x40)\n      dup1\n      dup4\n      sub\n      dup2\n      0x00\n      dup8\n      dup1\n      extcodesize\n      iszero\n      dup1\n      iszero\n      tag_179\n      jumpi\n      0x00\n      dup1\n      revert\n    tag_179:\n      pop\n      gas\n      call\n      iszero\n      dup1\n      iszero\n      tag_181\n      jumpi\n      returndatasize\n      0x00\n      dup1\n      returndatacopy\n      revert(0x00, returndatasize)\n    tag_181:\n      pop\n      pop\n      pop\n      pop\n        /* \"RPSLS.sol\":1630:1861  function inputCommit(bytes32 commitHash) public {... */\n      pop\n      jump\t// out\n        /* \"RPSLS.sol\":2330:2507  function getChoiceFromHash(bytes32 revealHash) public pure returns (uint8) {... */\n    tag_67:\n        /* \"RPSLS.sol\":2398:2403  uint8 */\n      0x00\n        /* \"RPSLS.sol\":2416:2428  uint8 choice */\n      dup1\n        /* \"RPSLS.sol\":2474:2475  5 */\n      0x05\n        /* \"RPSLS.sol\":2437:2447  revealHash */\n      dup4\n        /* \"RPSLS.sol\":2468:2469  1 */\n      0x01\n        /* \"RPSLS.sol\":2448:2465  revealHash.length */\n      0x20\n        /* \"RPSLS.sol\":2448:2469  revealHash.length - 1 */\n      tag_183\n      swap2\n      swap1\n      tag_184\n      jump\t// in\n    tag_183:\n        /* \"RPSLS.sol\":2437:2470  revealHash[revealHash.length - 1] */\n      0xff\n      and\n      0x20\n      dup2\n      lt\n      tag_185\n      jumpi\n      tag_186\n      tag_94\n      jump\t// in\n    tag_186:\n    tag_185:\n      byte\n      0xf8\n      shl\n        /* \"RPSLS.sol\":2431:2471  uint8(revealHash[revealHash.length - 1]) */\n      0xf8\n      shr\n        /* \"RPSLS.sol\":2431:2475  uint8(revealHash[revealHash.length - 1]) % 5 */\n      tag_187\n      swap2\n      swap1\n      tag_188\n      jump\t// in\n    tag_187:\n        /* \"RPSLS.sol\":2416:2475  uint8 choice = uint8(revealHash[revealHash.length - 1]) % 5 */\n      swap1\n      pop\n        /* \"RPSLS.sol\":2493:2499  choice */\n      dup1\n        /* \"RPSLS.sol\":2486:2499  return choice */\n      swap2\n      pop\n      pop\n        /* \"RPSLS.sol\":2330:2507  function getChoiceFromHash(bytes32 revealHash) public pure returns (uint8) {... */\n      swap2\n      swap1\n      pop\n      jump\t// out\n        /* \"RPSLS.sol\":399:423  address[] public players */\n    tag_74:\n      0x05\n      dup2\n      dup2\n      sload\n      dup2\n      lt\n      tag_189\n      jumpi\n      0x00\n      dup1\n      revert\n    tag_189:\n      swap1\n      0x00\n      mstore\n      keccak256(0x00, 0x20)\n      add\n      0x00\n      swap2\n      pop\n      sload\n      swap1\n      0x0100\n      exp\n      swap1\n      div\n      0xffffffffffffffffffffffffffffffffffffffff\n      and\n      dup2\n      jump\t// out\n        /* \"RPSLS.sol\":4336:4646  function _resetGame() private {... */\n    tag_152:\n        /* \"RPSLS.sol\":4389:4390  0 */\n      0x00\n        /* \"RPSLS.sol\":4377:4386  numPlayer */\n      0x02\n        /* \"RPSLS.sol\":4377:4390  numPlayer = 0 */\n      dup2\n      swap1\n      sstore\n      pop\n        /* \"RPSLS.sol\":4410:4411  0 */\n      0x00\n        /* \"RPSLS.sol\":4401:4407  reward */\n      0x03\n        /* \"RPSLS.sol\":4401:4411  reward = 0 */\n      dup2\n      swap1\n      sstore\n      pop\n        /* \"RPSLS.sol\":4435:4436  0 */\n      0x00\n        /* \"RPSLS.sol\":4422:4432  numCommits */\n      0x06\n        /* \"RPSLS.sol\":4422:4436  numCommits = 0 */\n      dup2\n      swap1\n      sstore\n      pop\n        /* \"RPSLS.sol\":4460:4461  0 */\n      0x00\n        /* \"RPSLS.sol\":4447:4457  numReveals */\n      0x07\n        /* \"RPSLS.sol\":4447:4461  numReveals = 0 */\n      dup2\n      swap1\n      sstore\n      pop\n        /* \"RPSLS.sol\":4487:4498  GameReset() */\n      0xc6976b6410888b44c765590c8368eb4a60e0431d4ad683c8a53ea85a8479f22e\n      mload(0x40)\n      mload(0x40)\n      dup1\n      swap2\n      sub\n      swap1\n      log1\n        /* \"RPSLS.sol\":4516:4522  uint i */\n      0x00\n        /* \"RPSLS.sol\":4511:4612  for (uint i = 0; i < players.length; i++) {... */\n    tag_192:\n        /* \"RPSLS.sol\":4532:4539  players */\n      0x05\n        /* \"RPSLS.sol\":4532:4546  players.length */\n      dup1\n      sload\n      swap1\n      pop\n        /* \"RPSLS.sol\":4528:4529  i */\n      dup2\n        /* \"RPSLS.sol\":4528:4546  i < players.length */\n      lt\n        /* \"RPSLS.sol\":4511:4612  for (uint i = 0; i < players.length; i++) {... */\n      iszero\n      tag_193\n      jumpi\n        /* \"RPSLS.sol\":4575:4588  player_choice */\n      0x04\n        /* \"RPSLS.sol\":4575:4600  player_choice[players[i]] */\n      0x00\n        /* \"RPSLS.sol\":4589:4596  players */\n      0x05\n        /* \"RPSLS.sol\":4597:4598  i */\n      dup4\n        /* \"RPSLS.sol\":4589:4599  players[i] */\n      dup2\n      sload\n      dup2\n      lt\n      tag_195\n      jumpi\n      tag_196\n      tag_94\n      jump\t// in\n    tag_196:\n    tag_195:\n      swap1\n      0x00\n      mstore\n      keccak256(0x00, 0x20)\n      add\n      0x00\n      swap1\n      sload\n      swap1\n      0x0100\n      exp\n      swap1\n      div\n      0xffffffffffffffffffffffffffffffffffffffff\n      and\n        /* \"RPSLS.sol\":4575:4600  player_choice[players[i]] */\n      0xffffffffffffffffffffffffffffffffffffffff\n      and\n      0xffffffffffffffffffffffffffffffffffffffff\n      and\n      dup2\n      mstore\n      0x20\n      add\n      swap1\n      dup2\n      mstore\n      0x20\n      add\n      0x00\n      keccak256\n        /* \"RPSLS.sol\":4568:4600  delete player_choice[players[i]] */\n      0x00\n      swap1\n      sstore\n        /* \"RPSLS.sol\":4548:4551  i++ */\n      dup1\n      dup1\n      0x01\n      add\n      swap2\n      pop\n      pop\n        /* \"RPSLS.sol\":4511:4612  for (uint i = 0; i < players.length; i++) {... */\n      jump(tag_192)\n    tag_193:\n      pop\n        /* \"RPSLS.sol\":4631:4638  players */\n      0x05\n      0x00\n        /* \"RPSLS.sol\":4624:4638  delete players */\n      tag_198\n      swap2\n      swap1\n      tag_199\n      jump\t// in\n    tag_198:\n        /* \"RPSLS.sol\":4336:4646  function _resetGame() private {... */\n      jump\t// out\n        /* \"RPSLS.sol\":2515:3210  function _checkWinnerAndPay() private {... */\n    tag_166:\n        /* \"RPSLS.sol\":2564:2577  uint p0Choice */\n      0x00\n        /* \"RPSLS.sol\":2580:2593  player_choice */\n      0x04\n        /* \"RPSLS.sol\":2580:2605  player_choice[players[0]] */\n      0x00\n        /* \"RPSLS.sol\":2594:2601  players */\n      0x05\n        /* \"RPSLS.sol\":2602:2603  0 */\n      0x00\n        /* \"RPSLS.sol\":2594:2604  players[0] */\n      dup2\n      sload\n      dup2\n      lt\n      tag_201\n      jumpi\n      tag_202\n      tag_94\n      jump\t// in\n    tag_202:\n    tag_201:\n      swap1\n      0x00\n      mstore\n      keccak256(0x00, 0x20)\n      add\n      0x00\n      swap1\n      sload\n      swap1\n      0x0100\n      exp\n      swap1\n      div\n      0xffffffffffffffffffffffffffffffffffffffff\n      and\n        /* \"RPSLS.sol\":2580:2605  player_choice[players[0]] */\n      0xffffffffffffffffffffffffffffffffffffffff\n      and\n      0xffffffffffffffffffffffffffffffffffffffff\n      and\n      dup2\n      mstore\n      0x20\n      add\n      swap1\n      dup2\n      mstore\n      0x20\n      add\n      0x00\n      keccak256\n      sload\n        /* \"RPSLS.sol\":2564:2605  uint p0Choice = player_choice[players[0]] */\n      swap1\n      pop\n        /* \"RPSLS.sol\":2616:2629  uint p1Choice */\n      0x00\n        /* \"RPSLS.sol\":2632:2645  player_choice */\n      0x04\n        /* \"RPSLS.sol\":2632:2657  player_choice[players[1]] */\n      0x00\n        /* \"RPSLS.sol\":2646:2653  players */\n      0x05\n        /* \"RPSLS.sol\":2654:2655  1 */\n      0x01\n        /* \"RPSLS.sol\":2646:2656  players[1] */\n      dup2\n      sload\n      dup2\n      lt\n      tag_204\n      jumpi\n      tag_205\n      tag_94\n      jump\t// in\n    tag_205:\n    tag_204:\n      swap1\n      0x00\n      mstore\n      keccak256(0x00, 0x20)\n      add\n      0x00\n      swap1\n      sload\n      swap1\n      0x0100\n      exp\n      swap1\n      div\n      0xffffffffffffffffffffffffffffffffffffffff\n      and\n        /* \"RPSLS.sol\":2632:2657  player_choice[players[1]] */\n      0xffffffffffffffffffffffffffffffffffffffff\n      and\n      0xffffffffffffffffffffffffffffffffffffffff\n      and\n      dup2\n      mstore\n      0x20\n      add\n      swap1\n      dup2\n      mstore\n      0x20\n      add\n      0x00\n      keccak256\n      sload\n        /* \"RPSLS.sol\":2616:2657  uint p1Choice = player_choice[players[1]] */\n      swap1\n      pop\n        /* \"RPSLS.sol\":2668:2692  address payable account0 */\n      0x00\n        /* \"RPSLS.sol\":2703:2710  players */\n      0x05\n        /* \"RPSLS.sol\":2711:2712  0 */\n      0x00\n        /* \"RPSLS.sol\":2703:2713  players[0] */\n      dup2\n      sload\n      dup2\n      lt\n      tag_207\n      jumpi\n      tag_208\n      tag_94\n      jump\t// in\n    tag_208:\n    tag_207:\n      swap1\n      0x00\n      mstore\n      keccak256(0x00, 0x20)\n      add\n      0x00\n      swap1\n      sload\n      swap1\n      0x0100\n      exp\n      swap1\n      div\n      0xffffffffffffffffffffffffffffffffffffffff\n      and\n        /* \"RPSLS.sol\":2668:2714  address payable account0 = payable(players[0]) */\n      swap1\n      pop\n        /* \"RPSLS.sol\":2725:2749  address payable account1 */\n      0x00\n        /* \"RPSLS.sol\":2760:2767  players */\n      0x05\n        /* \"RPSLS.sol\":2768:2769  1 */\n      0x01\n        /* \"RPSLS.sol\":2760:2770  players[1] */\n      dup2\n      sload\n      dup2\n      lt\n      tag_210\n      jumpi\n      tag_211\n      tag_94\n      jump\t// in\n    tag_211:\n    tag_210:\n      swap1\n      0x00\n      mstore\n      keccak256(0x00, 0x20)\n      add\n      0x00\n      swap1\n      sload\n      swap1\n      0x0100\n      exp\n      swap1\n      div\n      0xffffffffffffffffffffffffffffffffffffffff\n      and\n        /* \"RPSLS.sol\":2725:2771  address payable account1 = payable(players[1]) */\n      swap1\n      pop\n        /* \"RPSLS.sol\":2788:2817  _isWinner(p0Choice, p1Choice) */\n      tag_213\n        /* \"RPSLS.sol\":2798:2806  p0Choice */\n      dup5\n        /* \"RPSLS.sol\":2808:2816  p1Choice */\n      dup5\n        /* \"RPSLS.sol\":2788:2797  _isWinner */\n      tag_214\n        /* \"RPSLS.sol\":2788:2817  _isWinner(p0Choice, p1Choice) */\n      jump\t// in\n    tag_213:\n        /* \"RPSLS.sol\":2784:3178  if (_isWinner(p0Choice, p1Choice)) {... */\n      iszero\n      tag_215\n      jumpi\n        /* \"RPSLS.sol\":2834:2842  account0 */\n      dup2\n        /* \"RPSLS.sol\":2834:2851  account0.transfer */\n      0xffffffffffffffffffffffffffffffffffffffff\n      and\n        /* \"RPSLS.sol\":2834:2859  account0.transfer(reward) */\n      0x08fc\n        /* \"RPSLS.sol\":2852:2858  reward */\n      sload(0x03)\n        /* \"RPSLS.sol\":2834:2859  account0.transfer(reward) */\n      swap1\n      dup2\n      iszero\n      mul\n      swap1\n      mload(0x40)\n      0x00\n      mload(0x40)\n      dup1\n      dup4\n      sub\n      dup2\n      dup6\n      dup9\n      dup9\n      call\n      swap4\n      pop\n      pop\n      pop\n      pop\n      iszero\n      dup1\n      iszero\n      tag_217\n      jumpi\n      returndatasize\n      0x00\n      dup1\n      returndatacopy\n      revert(0x00, returndatasize)\n    tag_217:\n      pop\n        /* \"RPSLS.sol\":2886:2894  account0 */\n      dup2\n        /* \"RPSLS.sol\":2879:2903  Winner(account0, reward) */\n      0xffffffffffffffffffffffffffffffffffffffff\n      and\n      0x9c2270628a9b29d30ae96b6c4c14ed646ee134febdce38a5b77f2bde9cea2e20\n        /* \"RPSLS.sol\":2896:2902  reward */\n      sload(0x03)\n        /* \"RPSLS.sol\":2879:2903  Winner(account0, reward) */\n      mload(0x40)\n      tag_218\n      swap2\n      swap1\n      tag_21\n      jump\t// in\n    tag_218:\n      mload(0x40)\n      dup1\n      swap2\n      sub\n      swap1\n      log2\n        /* \"RPSLS.sol\":2784:3178  if (_isWinner(p0Choice, p1Choice)) {... */\n      jump(tag_219)\n    tag_215:\n        /* \"RPSLS.sol\":2935:2964  _isWinner(p1Choice, p0Choice) */\n      tag_220\n        /* \"RPSLS.sol\":2945:2953  p1Choice */\n      dup4\n        /* \"RPSLS.sol\":2955:2963  p0Choice */\n      dup6\n        /* \"RPSLS.sol\":2935:2944  _isWinner */\n      tag_214\n        /* \"RPSLS.sol\":2935:2964  _isWinner(p1Choice, p0Choice) */\n      jump\t// in\n    tag_220:\n        /* \"RPSLS.sol\":2931:3178  if (_isWinner(p1Choice, p0Choice)) {... */\n      iszero\n      tag_221\n      jumpi\n        /* \"RPSLS.sol\":2981:2989  account1 */\n      dup1\n        /* \"RPSLS.sol\":2981:2998  account1.transfer */\n      0xffffffffffffffffffffffffffffffffffffffff\n      and\n        /* \"RPSLS.sol\":2981:3006  account1.transfer(reward) */\n      0x08fc\n        /* \"RPSLS.sol\":2999:3005  reward */\n      sload(0x03)\n        /* \"RPSLS.sol\":2981:3006  account1.transfer(reward) */\n      swap1\n      dup2\n      iszero\n      mul\n      swap1\n      mload(0x40)\n      0x00\n      mload(0x40)\n      dup1\n      dup4\n      sub\n      dup2\n      dup6\n      dup9\n      dup9\n      call\n      swap4\n      pop\n      pop\n      pop\n      pop\n      iszero\n      dup1\n      iszero\n      tag_223\n      jumpi\n      returndatasize\n      0x00\n      dup1\n      returndatacopy\n      revert(0x00, returndatasize)\n    tag_223:\n      pop\n        /* \"RPSLS.sol\":3033:3041  account1 */\n      dup1\n        /* \"RPSLS.sol\":3026:3050  Winner(account1, reward) */\n      0xffffffffffffffffffffffffffffffffffffffff\n      and\n      0x9c2270628a9b29d30ae96b6c4c14ed646ee134febdce38a5b77f2bde9cea2e20\n        /* \"RPSLS.sol\":3043:3049  reward */\n      sload(0x03)\n        /* \"RPSLS.sol\":3026:3050  Winner(account1, reward) */\n      mload(0x40)\n      tag_224\n      swap2\n      swap1\n      tag_21\n      jump\t// in\n    tag_224:\n      mload(0x40)\n      dup1\n      swap2\n      sub\n      swap1\n      log2\n        /* \"RPSLS.sol\":2931:3178  if (_isWinner(p1Choice, p0Choice)) {... */\n      jump(tag_225)\n    tag_221:\n        /* \"RPSLS.sol\":3093:3101  account0 */\n      dup2\n        /* \"RPSLS.sol\":3093:3110  account0.transfer */\n      0xffffffffffffffffffffffffffffffffffffffff\n      and\n        /* \"RPSLS.sol\":3093:3122  account0.transfer(reward / 2) */\n      0x08fc\n        /* \"RPSLS.sol\":3120:3121  2 */\n      0x02\n        /* \"RPSLS.sol\":3111:3117  reward */\n      sload(0x03)\n        /* \"RPSLS.sol\":3111:3121  reward / 2 */\n      tag_226\n      swap2\n      swap1\n      tag_145\n      jump\t// in\n    tag_226:\n        /* \"RPSLS.sol\":3093:3122  account0.transfer(reward / 2) */\n      swap1\n      dup2\n      iszero\n      mul\n      swap1\n      mload(0x40)\n      0x00\n      mload(0x40)\n      dup1\n      dup4\n      sub\n      dup2\n      dup6\n      dup9\n      dup9\n      call\n      swap4\n      pop\n      pop\n      pop\n      pop\n      iszero\n      dup1\n      iszero\n      tag_228\n      jumpi\n      returndatasize\n      0x00\n      dup1\n      returndatacopy\n      revert(0x00, returndatasize)\n    tag_228:\n      pop\n        /* \"RPSLS.sol\":3137:3145  account1 */\n      dup1\n        /* \"RPSLS.sol\":3137:3154  account1.transfer */\n      0xffffffffffffffffffffffffffffffffffffffff\n      and\n        /* \"RPSLS.sol\":3137:3166  account1.transfer(reward / 2) */\n      0x08fc\n        /* \"RPSLS.sol\":3164:3165  2 */\n      0x02\n        /* \"RPSLS.sol\":3155:3161  reward */\n      sload(0x03)\n        /* \"RPSLS.sol\":3155:3165  reward / 2 */\n      tag_229\n      swap2\n      swap1\n      tag_145\n      jump\t// in\n    tag_229:\n        /* \"RPSLS.sol\":3137:3166  account1.transfer(reward / 2) */\n      swap1\n      dup2\n      iszero\n      mul\n      swap1\n      mload(0x40)\n      0x00\n      mload(0x40)\n      dup1\n      dup4\n      sub\n      dup2\n      dup6\n      dup9\n      dup9\n      call\n      swap4\n      pop\n      pop\n      pop\n      pop\n      iszero\n      dup1\n      iszero\n      tag_231\n      jumpi\n      returndatasize\n      0x00\n      dup1\n      returndatacopy\n      revert(0x00, returndatasize)\n    tag_231:\n      pop\n        /* \"RPSLS.sol\":2931:3178  if (_isWinner(p1Choice, p0Choice)) {... */\n    tag_225:\n        /* \"RPSLS.sol\":2784:3178  if (_isWinner(p0Choice, p1Choice)) {... */\n    tag_219:\n        /* \"RPSLS.sol\":3190:3202  _resetGame() */\n      tag_232\n        /* \"RPSLS.sol\":3190:3200  _resetGame */\n      tag_152\n        /* \"RPSLS.sol\":3190:3202  _resetGame() */\n      jump\t// in\n    tag_232:\n        /* \"RPSLS.sol\":2553:3210  {... */\n      pop\n      pop\n      pop\n      pop\n        /* \"RPSLS.sol\":2515:3210  function _checkWinnerAndPay() private {... */\n      jump\t// out\n        /* \"RPSLS.sol\":3218:3654  function _isWinner(uint choice1, uint choice2) private pure returns (bool) {... */\n    tag_214:\n        /* \"RPSLS.sol\":3287:3291  bool */\n      0x00\n        /* \"RPSLS.sol\":3338:3339  0 */\n      dup1\n        /* \"RPSLS.sol\":3327:3334  choice1 */\n      dup4\n        /* \"RPSLS.sol\":3327:3339  choice1 == 0 */\n      eq\n        /* \"RPSLS.sol\":3327:3373  choice1 == 0 && (choice2 == 2 || choice2 == 3) */\n      dup1\n      iszero\n      tag_234\n      jumpi\n      pop\n        /* \"RPSLS.sol\":3355:3356  2 */\n      0x02\n        /* \"RPSLS.sol\":3344:3351  choice2 */\n      dup3\n        /* \"RPSLS.sol\":3344:3356  choice2 == 2 */\n      eq\n        /* \"RPSLS.sol\":3344:3372  choice2 == 2 || choice2 == 3 */\n      dup1\n      tag_235\n      jumpi\n      pop\n        /* \"RPSLS.sol\":3371:3372  3 */\n      0x03\n        /* \"RPSLS.sol\":3360:3367  choice2 */\n      dup3\n        /* \"RPSLS.sol\":3360:3372  choice2 == 3 */\n      eq\n        /* \"RPSLS.sol\":3344:3372  choice2 == 2 || choice2 == 3 */\n    tag_235:\n        /* \"RPSLS.sol\":3327:3373  choice1 == 0 && (choice2 == 2 || choice2 == 3) */\n    tag_234:\n        /* \"RPSLS.sol\":3326:3440  (choice1 == 0 && (choice2 == 2 || choice2 == 3)) || ... */\n      dup1\n      tag_236\n      jumpi\n      pop\n        /* \"RPSLS.sol\":3404:3405  1 */\n      0x01\n        /* \"RPSLS.sol\":3393:3400  choice1 */\n      dup4\n        /* \"RPSLS.sol\":3393:3405  choice1 == 1 */\n      eq\n        /* \"RPSLS.sol\":3393:3439  choice1 == 1 && (choice2 == 0 || choice2 == 4) */\n      dup1\n      iszero\n      tag_237\n      jumpi\n      pop\n        /* \"RPSLS.sol\":3421:3422  0 */\n      0x00\n        /* \"RPSLS.sol\":3410:3417  choice2 */\n      dup3\n        /* \"RPSLS.sol\":3410:3422  choice2 == 0 */\n      eq\n        /* \"RPSLS.sol\":3410:3438  choice2 == 0 || choice2 == 4 */\n      dup1\n      tag_238\n      jumpi\n      pop\n        /* \"RPSLS.sol\":3437:3438  4 */\n      0x04\n        /* \"RPSLS.sol\":3426:3433  choice2 */\n      dup3\n        /* \"RPSLS.sol\":3426:3438  choice2 == 4 */\n      eq\n        /* \"RPSLS.sol\":3410:3438  choice2 == 0 || choice2 == 4 */\n    tag_238:\n        /* \"RPSLS.sol\":3393:3439  choice1 == 1 && (choice2 == 0 || choice2 == 4) */\n    tag_237:\n        /* \"RPSLS.sol\":3326:3440  (choice1 == 0 && (choice2 == 2 || choice2 == 3)) || ... */\n    tag_236:\n        /* \"RPSLS.sol\":3326:3505  (choice1 == 0 && (choice2 == 2 || choice2 == 3)) || ... */\n      dup1\n      tag_239\n      jumpi\n      pop\n        /* \"RPSLS.sol\":3469:3470  2 */\n      0x02\n        /* \"RPSLS.sol\":3458:3465  choice1 */\n      dup4\n        /* \"RPSLS.sol\":3458:3470  choice1 == 2 */\n      eq\n        /* \"RPSLS.sol\":3458:3504  choice1 == 2 && (choice2 == 1 || choice2 == 3) */\n      dup1\n      iszero\n      tag_240\n      jumpi\n      pop\n        /* \"RPSLS.sol\":3486:3487  1 */\n      0x01\n        /* \"RPSLS.sol\":3475:3482  choice2 */\n      dup3\n        /* \"RPSLS.sol\":3475:3487  choice2 == 1 */\n      eq\n        /* \"RPSLS.sol\":3475:3503  choice2 == 1 || choice2 == 3 */\n      dup1\n      tag_241\n      jumpi\n      pop\n        /* \"RPSLS.sol\":3502:3503  3 */\n      0x03\n        /* \"RPSLS.sol\":3491:3498  choice2 */\n      dup3\n        /* \"RPSLS.sol\":3491:3503  choice2 == 3 */\n      eq\n        /* \"RPSLS.sol\":3475:3503  choice2 == 1 || choice2 == 3 */\n    tag_241:\n        /* \"RPSLS.sol\":3458:3504  choice1 == 2 && (choice2 == 1 || choice2 == 3) */\n    tag_240:\n        /* \"RPSLS.sol\":3326:3505  (choice1 == 0 && (choice2 == 2 || choice2 == 3)) || ... */\n    tag_239:\n        /* \"RPSLS.sol\":3326:3570  (choice1 == 0 && (choice2 == 2 || choice2 == 3)) || ... */\n      dup1\n      tag_242\n      jumpi\n      pop\n        /* \"RPSLS.sol\":3534:3535  3 */\n      0x03\n        /* \"RPSLS.sol\":3523:3530  choice1 */\n      dup4\n        /* \"RPSLS.sol\":3523:3535  choice1 == 3 */\n      eq\n        /* \"RPSLS.sol\":3523:3569  choice1 == 3 && (choice2 == 1 || choice2 == 4) */\n      dup1\n      iszero\n      tag_243\n      jumpi\n      pop\n        /* \"RPSLS.sol\":3551:3552  1 */\n      0x01\n        /* \"RPSLS.sol\":3540:3547  choice2 */\n      dup3\n        /* \"RPSLS.sol\":3540:3552  choice2 == 1 */\n      eq\n        /* \"RPSLS.sol\":3540:3568  choice2 == 1 || choice2 == 4 */\n      dup1\n      tag_244\n      jumpi\n      pop\n        /* \"RPSLS.sol\":3567:3568  4 */\n      0x04\n        /* \"RPSLS.sol\":3556:3563  choice2 */\n      dup3\n        /* \"RPSLS.sol\":3556:3568  choice2 == 4 */\n      eq\n        /* \"RPSLS.sol\":3540:3568  choice2 == 1 || choice2 == 4 */\n    tag_244:\n        /* \"RPSLS.sol\":3523:3569  choice1 == 3 && (choice2 == 1 || choice2 == 4) */\n    tag_243:\n        /* \"RPSLS.sol\":3326:3570  (choice1 == 0 && (choice2 == 2 || choice2 == 3)) || ... */\n    tag_242:\n        /* \"RPSLS.sol\":3326:3635  (choice1 == 0 && (choice2 == 2 || choice2 == 3)) || ... */\n      dup1\n      tag_245\n      jumpi\n      pop\n        /* \"RPSLS.sol\":3599:3600  4 */\n      0x04\n        /* \"RPSLS.sol\":3588:3595  choice1 */\n      dup4\n        /* \"RPSLS.sol\":3588:3600  choice1 == 4 */\n      eq\n        /* \"RPSLS.sol\":3588:3634  choice1 == 4 && (choice2 == 0 || choice2 == 2) */\n      dup1\n      iszero\n      tag_246\n      jumpi\n      pop\n        /* \"RPSLS.sol\":3616:3617  0 */\n      0x00\n        /* \"RPSLS.sol\":3605:3612  choice2 */\n      dup3\n        /* \"RPSLS.sol\":3605:3617  choice2 == 0 */\n      eq\n        /* \"RPSLS.sol\":3605:3633  choice2 == 0 || choice2 == 2 */\n      dup1\n      tag_247\n      jumpi\n      pop\n        /* \"RPSLS.sol\":3632:3633  2 */\n      0x02\n        /* \"RPSLS.sol\":3621:3628  choice2 */\n      dup3\n        /* \"RPSLS.sol\":3621:3633  choice2 == 2 */\n      eq\n        /* \"RPSLS.sol\":3605:3633  choice2 == 0 || choice2 == 2 */\n    tag_247:\n        /* \"RPSLS.sol\":3588:3634  choice1 == 4 && (choice2 == 0 || choice2 == 2) */\n    tag_246:\n        /* \"RPSLS.sol\":3326:3635  (choice1 == 0 && (choice2 == 2 || choice2 == 3)) || ... */\n    tag_245:\n        /* \"RPSLS.sol\":3304:3646  return (... */\n      swap1\n      pop\n        /* \"RPSLS.sol\":3218:3654  function _isWinner(uint choice1, uint choice2) private pure returns (bool) {... */\n      swap3\n      swap2\n      pop\n      pop\n      jump\t// out\n    tag_199:\n      pop\n      dup1\n      sload\n      0x00\n      dup3\n      sstore\n      swap1\n      0x00\n      mstore\n      keccak256(0x00, 0x20)\n      swap1\n      dup2\n      add\n      swap1\n      tag_249\n      swap2\n      swap1\n      tag_250\n      jump\t// in\n    tag_249:\n      pop\n      jump\t// out\n    tag_250:\n    tag_251:\n      dup1\n      dup3\n      gt\n      iszero\n      tag_252\n      jumpi\n      0x00\n      dup2\n      0x00\n      swap1\n      sstore\n      pop\n      0x01\n      add\n      jump(tag_251)\n    tag_252:\n      pop\n      swap1\n      jump\t// out\n        /* \"#utility.yul\":7:84   */\n    tag_253:\n        /* \"#utility.yul\":44:51   */\n      0x00\n        /* \"#utility.yul\":73:78   */\n      dup2\n        /* \"#utility.yul\":62:78   */\n      swap1\n      pop\n        /* \"#utility.yul\":7:84   */\n      swap2\n      swap1\n      pop\n      jump\t// out\n        /* \"#utility.yul\":90:208   */\n    tag_254:\n        /* \"#utility.yul\":177:201   */\n      tag_307\n        /* \"#utility.yul\":195:200   */\n      dup2\n        /* \"#utility.yul\":177:201   */\n      tag_253\n      jump\t// in\n    tag_307:\n        /* \"#utility.yul\":172:175   */\n      dup3\n        /* \"#utility.yul\":165:202   */\n      mstore\n        /* \"#utility.yul\":90:208   */\n      pop\n      pop\n      jump\t// out\n        /* \"#utility.yul\":214:436   */\n    tag_21:\n        /* \"#utility.yul\":307:311   */\n      0x00\n        /* \"#utility.yul\":345:347   */\n      0x20\n        /* \"#utility.yul\":334:343   */\n      dup3\n        /* \"#utility.yul\":330:348   */\n      add\n        /* \"#utility.yul\":322:348   */\n      swap1\n      pop\n        /* \"#utility.yul\":358:429   */\n      tag_309\n        /* \"#utility.yul\":426:427   */\n      0x00\n        /* \"#utility.yul\":415:424   */\n      dup4\n        /* \"#utility.yul\":411:428   */\n      add\n        /* \"#utility.yul\":402:408   */\n      dup5\n        /* \"#utility.yul\":358:429   */\n      tag_254\n      jump\t// in\n    tag_309:\n        /* \"#utility.yul\":214:436   */\n      swap3\n      swap2\n      pop\n      pop\n      jump\t// out\n        /* \"#utility.yul\":442:568   */\n    tag_255:\n        /* \"#utility.yul\":479:486   */\n      0x00\n        /* \"#utility.yul\":519:561   */\n      0xffffffffffffffffffffffffffffffffffffffff\n        /* \"#utility.yul\":512:517   */\n      dup3\n        /* \"#utility.yul\":508:562   */\n      and\n        /* \"#utility.yul\":497:562   */\n      swap1\n      pop\n        /* \"#utility.yul\":442:568   */\n      swap2\n      swap1\n      pop\n      jump\t// out\n        /* \"#utility.yul\":574:634   */\n    tag_256:\n        /* \"#utility.yul\":602:605   */\n      0x00\n        /* \"#utility.yul\":623:628   */\n      dup2\n        /* \"#utility.yul\":616:628   */\n      swap1\n      pop\n        /* \"#utility.yul\":574:634   */\n      swap2\n      swap1\n      pop\n      jump\t// out\n        /* \"#utility.yul\":640:782   */\n    tag_257:\n        /* \"#utility.yul\":690:699   */\n      0x00\n        /* \"#utility.yul\":723:776   */\n      tag_313\n        /* \"#utility.yul\":741:775   */\n      tag_314\n        /* \"#utility.yul\":750:774   */\n      tag_315\n        /* \"#utility.yul\":768:773   */\n      dup5\n        /* \"#utility.yul\":750:774   */\n      tag_255\n      jump\t// in\n    tag_315:\n        /* \"#utility.yul\":741:775   */\n      tag_256\n      jump\t// in\n    tag_314:\n        /* \"#utility.yul\":723:776   */\n      tag_255\n      jump\t// in\n    tag_313:\n        /* \"#utility.yul\":710:776   */\n      swap1\n      pop\n        /* \"#utility.yul\":640:782   */\n      swap2\n      swap1\n      pop\n      jump\t// out\n        /* \"#utility.yul\":788:914   */\n    tag_258:\n        /* \"#utility.yul\":838:847   */\n      0x00\n        /* \"#utility.yul\":871:908   */\n      tag_317\n        /* \"#utility.yul\":902:907   */\n      dup3\n        /* \"#utility.yul\":871:908   */\n      tag_257\n      jump\t// in\n    tag_317:\n        /* \"#utility.yul\":858:908   */\n      swap1\n      pop\n        /* \"#utility.yul\":788:914   */\n      swap2\n      swap1\n      pop\n      jump\t// out\n        /* \"#utility.yul\":920:1062   */\n    tag_259:\n        /* \"#utility.yul\":986:995   */\n      0x00\n        /* \"#utility.yul\":1019:1056   */\n      tag_319\n        /* \"#utility.yul\":1050:1055   */\n      dup3\n        /* \"#utility.yul\":1019:1056   */\n      tag_258\n      jump\t// in\n    tag_319:\n        /* \"#utility.yul\":1006:1056   */\n      swap1\n      pop\n        /* \"#utility.yul\":920:1062   */\n      swap2\n      swap1\n      pop\n      jump\t// out\n        /* \"#utility.yul\":1068:1231   */\n    tag_260:\n        /* \"#utility.yul\":1171:1224   */\n      tag_321\n        /* \"#utility.yul\":1218:1223   */\n      dup2\n        /* \"#utility.yul\":1171:1224   */\n      tag_259\n      jump\t// in\n    tag_321:\n        /* \"#utility.yul\":1166:1169   */\n      dup3\n        /* \"#utility.yul\":1159:1225   */\n      mstore\n        /* \"#utility.yul\":1068:1231   */\n      pop\n      pop\n      jump\t// out\n        /* \"#utility.yul\":1237:1491   */\n    tag_32:\n        /* \"#utility.yul\":1346:1350   */\n      0x00\n        /* \"#utility.yul\":1384:1386   */\n      0x20\n        /* \"#utility.yul\":1373:1382   */\n      dup3\n        /* \"#utility.yul\":1369:1387   */\n      add\n        /* \"#utility.yul\":1361:1387   */\n      swap1\n      pop\n        /* \"#utility.yul\":1397:1484   */\n      tag_323\n        /* \"#utility.yul\":1481:1482   */\n      0x00\n        /* \"#utility.yul\":1470:1479   */\n      dup4\n        /* \"#utility.yul\":1466:1483   */\n      add\n        /* \"#utility.yul\":1457:1463   */\n      dup5\n        /* \"#utility.yul\":1397:1484   */\n      tag_260\n      jump\t// in\n    tag_323:\n        /* \"#utility.yul\":1237:1491   */\n      swap3\n      swap2\n      pop\n      pop\n      jump\t// out\n        /* \"#utility.yul\":1578:1695   */\n    tag_262:\n        /* \"#utility.yul\":1687:1688   */\n      0x00\n        /* \"#utility.yul\":1684:1685   */\n      dup1\n        /* \"#utility.yul\":1677:1689   */\n      revert\n        /* \"#utility.yul\":1824:1901   */\n    tag_264:\n        /* \"#utility.yul\":1861:1868   */\n      0x00\n        /* \"#utility.yul\":1890:1895   */\n      dup2\n        /* \"#utility.yul\":1879:1895   */\n      swap1\n      pop\n        /* \"#utility.yul\":1824:1901   */\n      swap2\n      swap1\n      pop\n      jump\t// out\n        /* \"#utility.yul\":1907:2029   */\n    tag_265:\n        /* \"#utility.yul\":1980:2004   */\n      tag_329\n        /* \"#utility.yul\":1998:2003   */\n      dup2\n        /* \"#utility.yul\":1980:2004   */\n      tag_264\n      jump\t// in\n    tag_329:\n        /* \"#utility.yul\":1973:1978   */\n      dup2\n        /* \"#utility.yul\":1970:2005   */\n      eq\n        /* \"#utility.yul\":1960:2023   */\n      tag_330\n      jumpi\n        /* \"#utility.yul\":2019:2020   */\n      0x00\n        /* \"#utility.yul\":2016:2017   */\n      dup1\n        /* \"#utility.yul\":2009:2021   */\n      revert\n        /* \"#utility.yul\":1960:2023   */\n    tag_330:\n        /* \"#utility.yul\":1907:2029   */\n      pop\n      jump\t// out\n        /* \"#utility.yul\":2035:2174   */\n    tag_266:\n        /* \"#utility.yul\":2081:2086   */\n      0x00\n        /* \"#utility.yul\":2119:2125   */\n      dup2\n        /* \"#utility.yul\":2106:2126   */\n      calldataload\n        /* \"#utility.yul\":2097:2126   */\n      swap1\n      pop\n        /* \"#utility.yul\":2135:2168   */\n      tag_332\n        /* \"#utility.yul\":2162:2167   */\n      dup2\n        /* \"#utility.yul\":2135:2168   */\n      tag_265\n      jump\t// in\n    tag_332:\n        /* \"#utility.yul\":2035:2174   */\n      swap3\n      swap2\n      pop\n      pop\n      jump\t// out\n        /* \"#utility.yul\":2180:2509   */\n    tag_39:\n        /* \"#utility.yul\":2239:2245   */\n      0x00\n        /* \"#utility.yul\":2288:2290   */\n      0x20\n        /* \"#utility.yul\":2276:2285   */\n      dup3\n        /* \"#utility.yul\":2267:2274   */\n      dup5\n        /* \"#utility.yul\":2263:2286   */\n      sub\n        /* \"#utility.yul\":2259:2291   */\n      slt\n        /* \"#utility.yul\":2256:2375   */\n      iszero\n      tag_334\n      jumpi\n        /* \"#utility.yul\":2294:2373   */\n      tag_335\n      tag_262\n      jump\t// in\n    tag_335:\n        /* \"#utility.yul\":2256:2375   */\n    tag_334:\n        /* \"#utility.yul\":2414:2415   */\n      0x00\n        /* \"#utility.yul\":2439:2492   */\n      tag_336\n        /* \"#utility.yul\":2484:2491   */\n      dup5\n        /* \"#utility.yul\":2475:2481   */\n      dup3\n        /* \"#utility.yul\":2464:2473   */\n      dup6\n        /* \"#utility.yul\":2460:2482   */\n      add\n        /* \"#utility.yul\":2439:2492   */\n      tag_266\n      jump\t// in\n    tag_336:\n        /* \"#utility.yul\":2429:2492   */\n      swap2\n      pop\n        /* \"#utility.yul\":2385:2502   */\n      pop\n        /* \"#utility.yul\":2180:2509   */\n      swap3\n      swap2\n      pop\n      pop\n      jump\t// out\n        /* \"#utility.yul\":2515:2661   */\n    tag_267:\n        /* \"#utility.yul\":2585:2594   */\n      0x00\n        /* \"#utility.yul\":2618:2655   */\n      tag_338\n        /* \"#utility.yul\":2649:2654   */\n      dup3\n        /* \"#utility.yul\":2618:2655   */\n      tag_258\n      jump\t// in\n    tag_338:\n        /* \"#utility.yul\":2605:2655   */\n      swap1\n      pop\n        /* \"#utility.yul\":2515:2661   */\n      swap2\n      swap1\n      pop\n      jump\t// out\n        /* \"#utility.yul\":2667:2838   */\n    tag_268:\n        /* \"#utility.yul\":2774:2831   */\n      tag_340\n        /* \"#utility.yul\":2825:2830   */\n      dup2\n        /* \"#utility.yul\":2774:2831   */\n      tag_267\n      jump\t// in\n    tag_340:\n        /* \"#utility.yul\":2769:2772   */\n      dup3\n        /* \"#utility.yul\":2762:2832   */\n      mstore\n        /* \"#utility.yul\":2667:2838   */\n      pop\n      pop\n      jump\t// out\n        /* \"#utility.yul\":2844:3106   */\n    tag_53:\n        /* \"#utility.yul\":2957:2961   */\n      0x00\n        /* \"#utility.yul\":2995:2997   */\n      0x20\n        /* \"#utility.yul\":2984:2993   */\n      dup3\n        /* \"#utility.yul\":2980:2998   */\n      add\n        /* \"#utility.yul\":2972:2998   */\n      swap1\n      pop\n        /* \"#utility.yul\":3008:3099   */\n      tag_342\n        /* \"#utility.yul\":3096:3097   */\n      0x00\n        /* \"#utility.yul\":3085:3094   */\n      dup4\n        /* \"#utility.yul\":3081:3098   */\n      add\n        /* \"#utility.yul\":3072:3078   */\n      dup5\n        /* \"#utility.yul\":3008:3099   */\n      tag_268\n      jump\t// in\n    tag_342:\n        /* \"#utility.yul\":2844:3106   */\n      swap3\n      swap2\n      pop\n      pop\n      jump\t// out\n        /* \"#utility.yul\":3112:3208   */\n    tag_269:\n        /* \"#utility.yul\":3149:3156   */\n      0x00\n        /* \"#utility.yul\":3178:3202   */\n      tag_344\n        /* \"#utility.yul\":3196:3201   */\n      dup3\n        /* \"#utility.yul\":3178:3202   */\n      tag_255\n      jump\t// in\n    tag_344:\n        /* \"#utility.yul\":3167:3202   */\n      swap1\n      pop\n        /* \"#utility.yul\":3112:3208   */\n      swap2\n      swap1\n      pop\n      jump\t// out\n        /* \"#utility.yul\":3214:3336   */\n    tag_270:\n        /* \"#utility.yul\":3287:3311   */\n      tag_346\n        /* \"#utility.yul\":3305:3310   */\n      dup2\n        /* \"#utility.yul\":3287:3311   */\n      tag_269\n      jump\t// in\n    tag_346:\n        /* \"#utility.yul\":3280:3285   */\n      dup2\n        /* \"#utility.yul\":3277:3312   */\n      eq\n        /* \"#utility.yul\":3267:3330   */\n      tag_347\n      jumpi\n        /* \"#utility.yul\":3326:3327   */\n      0x00\n        /* \"#utility.yul\":3323:3324   */\n      dup1\n        /* \"#utility.yul\":3316:3328   */\n      revert\n        /* \"#utility.yul\":3267:3330   */\n    tag_347:\n        /* \"#utility.yul\":3214:3336   */\n      pop\n      jump\t// out\n        /* \"#utility.yul\":3342:3481   */\n    tag_271:\n        /* \"#utility.yul\":3388:3393   */\n      0x00\n        /* \"#utility.yul\":3426:3432   */\n      dup2\n        /* \"#utility.yul\":3413:3433   */\n      calldataload\n        /* \"#utility.yul\":3404:3433   */\n      swap1\n      pop\n        /* \"#utility.yul\":3442:3475   */\n      tag_349\n        /* \"#utility.yul\":3469:3474   */\n      dup2\n        /* \"#utility.yul\":3442:3475   */\n      tag_270\n      jump\t// in\n    tag_349:\n        /* \"#utility.yul\":3342:3481   */\n      swap3\n      swap2\n      pop\n      pop\n      jump\t// out\n        /* \"#utility.yul\":3487:3816   */\n    tag_57:\n        /* \"#utility.yul\":3546:3552   */\n      0x00\n        /* \"#utility.yul\":3595:3597   */\n      0x20\n        /* \"#utility.yul\":3583:3592   */\n      dup3\n        /* \"#utility.yul\":3574:3581   */\n      dup5\n        /* \"#utility.yul\":3570:3593   */\n      sub\n        /* \"#utility.yul\":3566:3598   */\n      slt\n        /* \"#utility.yul\":3563:3682   */\n      iszero\n      tag_351\n      jumpi\n        /* \"#utility.yul\":3601:3680   */\n      tag_352\n      tag_262\n      jump\t// in\n    tag_352:\n        /* \"#utility.yul\":3563:3682   */\n    tag_351:\n        /* \"#utility.yul\":3721:3722   */\n      0x00\n        /* \"#utility.yul\":3746:3799   */\n      tag_353\n        /* \"#utility.yul\":3791:3798   */\n      dup5\n        /* \"#utility.yul\":3782:3788   */\n      dup3\n        /* \"#utility.yul\":3771:3780   */\n      dup6\n        /* \"#utility.yul\":3767:3789   */\n      add\n        /* \"#utility.yul\":3746:3799   */\n      tag_271\n      jump\t// in\n    tag_353:\n        /* \"#utility.yul\":3736:3799   */\n      swap2\n      pop\n        /* \"#utility.yul\":3692:3809   */\n      pop\n        /* \"#utility.yul\":3487:3816   */\n      swap3\n      swap2\n      pop\n      pop\n      jump\t// out\n        /* \"#utility.yul\":3822:3908   */\n    tag_272:\n        /* \"#utility.yul\":3857:3864   */\n      0x00\n        /* \"#utility.yul\":3897:3901   */\n      0xff\n        /* \"#utility.yul\":3890:3895   */\n      dup3\n        /* \"#utility.yul\":3886:3902   */\n      and\n        /* \"#utility.yul\":3875:3902   */\n      swap1\n      pop\n        /* \"#utility.yul\":3822:3908   */\n      swap2\n      swap1\n      pop\n      jump\t// out\n        /* \"#utility.yul\":3914:4026   */\n    tag_273:\n        /* \"#utility.yul\":3997:4019   */\n      tag_356\n        /* \"#utility.yul\":4013:4018   */\n      dup2\n        /* \"#utility.yul\":3997:4019   */\n      tag_272\n      jump\t// in\n    tag_356:\n        /* \"#utility.yul\":3992:3995   */\n      dup3\n        /* \"#utility.yul\":3985:4020   */\n      mstore\n        /* \"#utility.yul\":3914:4026   */\n      pop\n      pop\n      jump\t// out\n        /* \"#utility.yul\":4032:4246   */\n    tag_69:\n        /* \"#utility.yul\":4121:4125   */\n      0x00\n        /* \"#utility.yul\":4159:4161   */\n      0x20\n        /* \"#utility.yul\":4148:4157   */\n      dup3\n        /* \"#utility.yul\":4144:4162   */\n      add\n        /* \"#utility.yul\":4136:4162   */\n      swap1\n      pop\n        /* \"#utility.yul\":4172:4239   */\n      tag_358\n        /* \"#utility.yul\":4236:4237   */\n      0x00\n        /* \"#utility.yul\":4225:4234   */\n      dup4\n        /* \"#utility.yul\":4221:4238   */\n      add\n        /* \"#utility.yul\":4212:4218   */\n      dup5\n        /* \"#utility.yul\":4172:4239   */\n      tag_273\n      jump\t// in\n    tag_358:\n        /* \"#utility.yul\":4032:4246   */\n      swap3\n      swap2\n      pop\n      pop\n      jump\t// out\n        /* \"#utility.yul\":4252:4374   */\n    tag_274:\n        /* \"#utility.yul\":4325:4349   */\n      tag_360\n        /* \"#utility.yul\":4343:4348   */\n      dup2\n        /* \"#utility.yul\":4325:4349   */\n      tag_253\n      jump\t// in\n    tag_360:\n        /* \"#utility.yul\":4318:4323   */\n      dup2\n        /* \"#utility.yul\":4315:4350   */\n      eq\n        /* \"#utility.yul\":4305:4368   */\n      tag_361\n      jumpi\n        /* \"#utility.yul\":4364:4365   */\n      0x00\n        /* \"#utility.yul\":4361:4362   */\n      dup1\n        /* \"#utility.yul\":4354:4366   */\n      revert\n        /* \"#utility.yul\":4305:4368   */\n    tag_361:\n        /* \"#utility.yul\":4252:4374   */\n      pop\n      jump\t// out\n        /* \"#utility.yul\":4380:4519   */\n    tag_275:\n        /* \"#utility.yul\":4426:4431   */\n      0x00\n        /* \"#utility.yul\":4464:4470   */\n      dup2\n        /* \"#utility.yul\":4451:4471   */\n      calldataload\n        /* \"#utility.yul\":4442:4471   */\n      swap1\n      pop\n        /* \"#utility.yul\":4480:4513   */\n      tag_363\n        /* \"#utility.yul\":4507:4512   */\n      dup2\n        /* \"#utility.yul\":4480:4513   */\n      tag_274\n      jump\t// in\n    tag_363:\n        /* \"#utility.yul\":4380:4519   */\n      swap3\n      swap2\n      pop\n      pop\n      jump\t// out\n        /* \"#utility.yul\":4525:4854   */\n    tag_73:\n        /* \"#utility.yul\":4584:4590   */\n      0x00\n        /* \"#utility.yul\":4633:4635   */\n      0x20\n        /* \"#utility.yul\":4621:4630   */\n      dup3\n        /* \"#utility.yul\":4612:4619   */\n      dup5\n        /* \"#utility.yul\":4608:4631   */\n      sub\n        /* \"#utility.yul\":4604:4636   */\n      slt\n        /* \"#utility.yul\":4601:4720   */\n      iszero\n      tag_365\n      jumpi\n        /* \"#utility.yul\":4639:4718   */\n      tag_366\n      tag_262\n      jump\t// in\n    tag_366:\n        /* \"#utility.yul\":4601:4720   */\n    tag_365:\n        /* \"#utility.yul\":4759:4760   */\n      0x00\n        /* \"#utility.yul\":4784:4837   */\n      tag_367\n        /* \"#utility.yul\":4829:4836   */\n      dup5\n        /* \"#utility.yul\":4820:4826   */\n      dup3\n        /* \"#utility.yul\":4809:4818   */\n      dup6\n        /* \"#utility.yul\":4805:4827   */\n      add\n        /* \"#utility.yul\":4784:4837   */\n      tag_275\n      jump\t// in\n    tag_367:\n        /* \"#utility.yul\":4774:4837   */\n      swap2\n      pop\n        /* \"#utility.yul\":4730:4847   */\n      pop\n        /* \"#utility.yul\":4525:4854   */\n      swap3\n      swap2\n      pop\n      pop\n      jump\t// out\n        /* \"#utility.yul\":4860:4978   */\n    tag_276:\n        /* \"#utility.yul\":4947:4971   */\n      tag_369\n        /* \"#utility.yul\":4965:4970   */\n      dup2\n        /* \"#utility.yul\":4947:4971   */\n      tag_269\n      jump\t// in\n    tag_369:\n        /* \"#utility.yul\":4942:4945   */\n      dup3\n        /* \"#utility.yul\":4935:4972   */\n      mstore\n        /* \"#utility.yul\":4860:4978   */\n      pop\n      pop\n      jump\t// out\n        /* \"#utility.yul\":4984:5206   */\n    tag_76:\n        /* \"#utility.yul\":5077:5081   */\n      0x00\n        /* \"#utility.yul\":5115:5117   */\n      0x20\n        /* \"#utility.yul\":5104:5113   */\n      dup3\n        /* \"#utility.yul\":5100:5118   */\n      add\n        /* \"#utility.yul\":5092:5118   */\n      swap1\n      pop\n        /* \"#utility.yul\":5128:5199   */\n      tag_371\n        /* \"#utility.yul\":5196:5197   */\n      0x00\n        /* \"#utility.yul\":5185:5194   */\n      dup4\n        /* \"#utility.yul\":5181:5198   */\n      add\n        /* \"#utility.yul\":5172:5178   */\n      dup5\n        /* \"#utility.yul\":5128:5199   */\n      tag_276\n      jump\t// in\n    tag_371:\n        /* \"#utility.yul\":4984:5206   */\n      swap3\n      swap2\n      pop\n      pop\n      jump\t// out\n        /* \"#utility.yul\":5212:5381   */\n    tag_277:\n        /* \"#utility.yul\":5296:5307   */\n      0x00\n        /* \"#utility.yul\":5330:5336   */\n      dup3\n        /* \"#utility.yul\":5325:5328   */\n      dup3\n        /* \"#utility.yul\":5318:5337   */\n      mstore\n        /* \"#utility.yul\":5370:5374   */\n      0x20\n        /* \"#utility.yul\":5365:5368   */\n      dup3\n        /* \"#utility.yul\":5361:5375   */\n      add\n        /* \"#utility.yul\":5346:5375   */\n      swap1\n      pop\n        /* \"#utility.yul\":5212:5381   */\n      swap3\n      swap2\n      pop\n      pop\n      jump\t// out\n        /* \"#utility.yul\":5387:5557   */\n    tag_278:\n        /* \"#utility.yul\":5527:5549   */\n      0x556e617574686f72697a6564206163636f756e74000000000000000000000000\n        /* \"#utility.yul\":5523:5524   */\n      0x00\n        /* \"#utility.yul\":5515:5521   */\n      dup3\n        /* \"#utility.yul\":5511:5525   */\n      add\n        /* \"#utility.yul\":5504:5550   */\n      mstore\n        /* \"#utility.yul\":5387:5557   */\n      pop\n      jump\t// out\n        /* \"#utility.yul\":5563:5929   */\n    tag_279:\n        /* \"#utility.yul\":5705:5708   */\n      0x00\n        /* \"#utility.yul\":5726:5793   */\n      tag_375\n        /* \"#utility.yul\":5790:5792   */\n      0x14\n        /* \"#utility.yul\":5785:5788   */\n      dup4\n        /* \"#utility.yul\":5726:5793   */\n      tag_277\n      jump\t// in\n    tag_375:\n        /* \"#utility.yul\":5719:5793   */\n      swap2\n      pop\n        /* \"#utility.yul\":5802:5895   */\n      tag_376\n        /* \"#utility.yul\":5891:5894   */\n      dup3\n        /* \"#utility.yul\":5802:5895   */\n      tag_278\n      jump\t// in\n    tag_376:\n        /* \"#utility.yul\":5920:5922   */\n      0x20\n        /* \"#utility.yul\":5915:5918   */\n      dup3\n        /* \"#utility.yul\":5911:5923   */\n      add\n        /* \"#utility.yul\":5904:5923   */\n      swap1\n      pop\n        /* \"#utility.yul\":5563:5929   */\n      swap2\n      swap1\n      pop\n      jump\t// out\n        /* \"#utility.yul\":5935:6354   */\n    tag_83:\n        /* \"#utility.yul\":6101:6105   */\n      0x00\n        /* \"#utility.yul\":6139:6141   */\n      0x20\n        /* \"#utility.yul\":6128:6137   */\n      dup3\n        /* \"#utility.yul\":6124:6142   */\n      add\n        /* \"#utility.yul\":6116:6142   */\n      swap1\n      pop\n        /* \"#utility.yul\":6188:6197   */\n      dup2\n        /* \"#utility.yul\":6182:6186   */\n      dup2\n        /* \"#utility.yul\":6178:6198   */\n      sub\n        /* \"#utility.yul\":6174:6175   */\n      0x00\n        /* \"#utility.yul\":6163:6172   */\n      dup4\n        /* \"#utility.yul\":6159:6176   */\n      add\n        /* \"#utility.yul\":6152:6199   */\n      mstore\n        /* \"#utility.yul\":6216:6347   */\n      tag_378\n        /* \"#utility.yul\":6342:6346   */\n      dup2\n        /* \"#utility.yul\":6216:6347   */\n      tag_279\n      jump\t// in\n    tag_378:\n        /* \"#utility.yul\":6208:6347   */\n      swap1\n      pop\n        /* \"#utility.yul\":5935:6354   */\n      swap2\n      swap1\n      pop\n      jump\t// out\n        /* \"#utility.yul\":6360:6528   */\n    tag_280:\n        /* \"#utility.yul\":6500:6520   */\n      0x416c7265616479203220706c61796572732e0000000000000000000000000000\n        /* \"#utility.yul\":6496:6497   */\n      0x00\n        /* \"#utility.yul\":6488:6494   */\n      dup3\n        /* \"#utility.yul\":6484:6498   */\n      add\n        /* \"#utility.yul\":6477:6521   */\n      mstore\n        /* \"#utility.yul\":6360:6528   */\n      pop\n      jump\t// out\n        /* \"#utility.yul\":6534:6900   */\n    tag_281:\n        /* \"#utility.yul\":6676:6679   */\n      0x00\n        /* \"#utility.yul\":6697:6764   */\n      tag_381\n        /* \"#utility.yul\":6761:6763   */\n      0x12\n        /* \"#utility.yul\":6756:6759   */\n      dup4\n        /* \"#utility.yul\":6697:6764   */\n      tag_277\n      jump\t// in\n    tag_381:\n        /* \"#utility.yul\":6690:6764   */\n      swap2\n      pop\n        /* \"#utility.yul\":6773:6866   */\n      tag_382\n        /* \"#utility.yul\":6862:6865   */\n      dup3\n        /* \"#utility.yul\":6773:6866   */\n      tag_280\n      jump\t// in\n    tag_382:\n        /* \"#utility.yul\":6891:6893   */\n      0x20\n        /* \"#utility.yul\":6886:6889   */\n      dup3\n        /* \"#utility.yul\":6882:6894   */\n      add\n        /* \"#utility.yul\":6875:6894   */\n      swap1\n      pop\n        /* \"#utility.yul\":6534:6900   */\n      swap2\n      swap1\n      pop\n      jump\t// out\n        /* \"#utility.yul\":6906:7325   */\n    tag_87:\n        /* \"#utility.yul\":7072:7076   */\n      0x00\n        /* \"#utility.yul\":7110:7112   */\n      0x20\n        /* \"#utility.yul\":7099:7108   */\n      dup3\n        /* \"#utility.yul\":7095:7113   */\n      add\n        /* \"#utility.yul\":7087:7113   */\n      swap1\n      pop\n        /* \"#utility.yul\":7159:7168   */\n      dup2\n        /* \"#utility.yul\":7153:7157   */\n      dup2\n        /* \"#utility.yul\":7149:7169   */\n      sub\n        /* \"#utility.yul\":7145:7146   */\n      0x00\n        /* \"#utility.yul\":7134:7143   */\n      dup4\n        /* \"#utility.yul\":7130:7147   */\n      add\n        /* \"#utility.yul\":7123:7170   */\n      mstore\n        /* \"#utility.yul\":7187:7318   */\n      tag_384\n        /* \"#utility.yul\":7313:7317   */\n      dup2\n        /* \"#utility.yul\":7187:7318   */\n      tag_281\n      jump\t// in\n    tag_384:\n        /* \"#utility.yul\":7179:7318   */\n      swap1\n      pop\n        /* \"#utility.yul\":6906:7325   */\n      swap2\n      swap1\n      pop\n      jump\t// out\n        /* \"#utility.yul\":7331:7497   */\n    tag_282:\n        /* \"#utility.yul\":7471:7489   */\n      0x4d7573742073656e642031204554482e00000000000000000000000000000000\n        /* \"#utility.yul\":7467:7468   */\n      0x00\n        /* \"#utility.yul\":7459:7465   */\n      dup3\n        /* \"#utility.yul\":7455:7469   */\n      add\n        /* \"#utility.yul\":7448:7490   */\n      mstore\n        /* \"#utility.yul\":7331:7497   */\n      pop\n      jump\t// out\n        /* \"#utility.yul\":7503:7869   */\n    tag_283:\n        /* \"#utility.yul\":7645:7648   */\n      0x00\n        /* \"#utility.yul\":7666:7733   */\n      tag_387\n        /* \"#utility.yul\":7730:7732   */\n      0x10\n        /* \"#utility.yul\":7725:7728   */\n      dup4\n        /* \"#utility.yul\":7666:7733   */\n      tag_277\n      jump\t// in\n    tag_387:\n        /* \"#utility.yul\":7659:7733   */\n      swap2\n      pop\n        /* \"#utility.yul\":7742:7835   */\n      tag_388\n        /* \"#utility.yul\":7831:7834   */\n      dup3\n        /* \"#utility.yul\":7742:7835   */\n      tag_282\n      jump\t// in\n    tag_388:\n        /* \"#utility.yul\":7860:7862   */\n      0x20\n        /* \"#utility.yul\":7855:7858   */\n      dup3\n        /* \"#utility.yul\":7851:7863   */\n      add\n        /* \"#utility.yul\":7844:7863   */\n      swap1\n      pop\n        /* \"#utility.yul\":7503:7869   */\n      swap2\n      swap1\n      pop\n      jump\t// out\n        /* \"#utility.yul\":7875:8294   */\n    tag_90:\n        /* \"#utility.yul\":8041:8045   */\n      0x00\n        /* \"#utility.yul\":8079:8081   */\n      0x20\n        /* \"#utility.yul\":8068:8077   */\n      dup3\n        /* \"#utility.yul\":8064:8082   */\n      add\n        /* \"#utility.yul\":8056:8082   */\n      swap1\n      pop\n        /* \"#utility.yul\":8128:8137   */\n      dup2\n        /* \"#utility.yul\":8122:8126   */\n      dup2\n        /* \"#utility.yul\":8118:8138   */\n      sub\n        /* \"#utility.yul\":8114:8115   */\n      0x00\n        /* \"#utility.yul\":8103:8112   */\n      dup4\n        /* \"#utility.yul\":8099:8116   */\n      add\n        /* \"#utility.yul\":8092:8139   */\n      mstore\n        /* \"#utility.yul\":8156:8287   */\n      tag_390\n        /* \"#utility.yul\":8282:8286   */\n      dup2\n        /* \"#utility.yul\":8156:8287   */\n      tag_283\n      jump\t// in\n    tag_390:\n        /* \"#utility.yul\":8148:8287   */\n      swap1\n      pop\n        /* \"#utility.yul\":7875:8294   */\n      swap2\n      swap1\n      pop\n      jump\t// out\n        /* \"#utility.yul\":8300:8480   */\n    tag_94:\n        /* \"#utility.yul\":8348:8425   */\n      0x4e487b7100000000000000000000000000000000000000000000000000000000\n        /* \"#utility.yul\":8345:8346   */\n      0x00\n        /* \"#utility.yul\":8338:8426   */\n      mstore\n        /* \"#utility.yul\":8445:8449   */\n      0x32\n        /* \"#utility.yul\":8442:8443   */\n      0x04\n        /* \"#utility.yul\":8435:8450   */\n      mstore\n        /* \"#utility.yul\":8469:8473   */\n      0x24\n        /* \"#utility.yul\":8466:8467   */\n      0x00\n        /* \"#utility.yul\":8459:8474   */\n      revert\n        /* \"#utility.yul\":8486:8657   */\n    tag_284:\n        /* \"#utility.yul\":8626:8649   */\n      0x506c6179657220616c72656164792061646465642e0000000000000000000000\n        /* \"#utility.yul\":8622:8623   */\n      0x00\n        /* \"#utility.yul\":8614:8620   */\n      dup3\n        /* \"#utility.yul\":8610:8624   */\n      add\n        /* \"#utility.yul\":8603:8650   */\n      mstore\n        /* \"#utility.yul\":8486:8657   */\n      pop\n      jump\t// out\n        /* \"#utility.yul\":8663:9029   */\n    tag_285:\n        /* \"#utility.yul\":8805:8808   */\n      0x00\n        /* \"#utility.yul\":8826:8893   */\n      tag_394\n        /* \"#utility.yul\":8890:8892   */\n      0x15\n        /* \"#utility.yul\":8885:8888   */\n      dup4\n        /* \"#utility.yul\":8826:8893   */\n      tag_277\n      jump\t// in\n    tag_394:\n        /* \"#utility.yul\":8819:8893   */\n      swap2\n      pop\n        /* \"#utility.yul\":8902:8995   */\n      tag_395\n        /* \"#utility.yul\":8991:8994   */\n      dup3\n        /* \"#utility.yul\":8902:8995   */\n      tag_284\n      jump\t// in\n    tag_395:\n        /* \"#utility.yul\":9020:9022   */\n      0x20\n        /* \"#utility.yul\":9015:9018   */\n      dup3\n        /* \"#utility.yul\":9011:9023   */\n      add\n        /* \"#utility.yul\":9004:9023   */\n      swap1\n      pop\n        /* \"#utility.yul\":8663:9029   */\n      swap2\n      swap1\n      pop\n      jump\t// out\n        /* \"#utility.yul\":9035:9454   */\n    tag_98:\n        /* \"#utility.yul\":9201:9205   */\n      0x00\n        /* \"#utility.yul\":9239:9241   */\n      0x20\n        /* \"#utility.yul\":9228:9237   */\n      dup3\n        /* \"#utility.yul\":9224:9242   */\n      add\n        /* \"#utility.yul\":9216:9242   */\n      swap1\n      pop\n        /* \"#utility.yul\":9288:9297   */\n      dup2\n        /* \"#utility.yul\":9282:9286   */\n      dup2\n        /* \"#utility.yul\":9278:9298   */\n      sub\n        /* \"#utility.yul\":9274:9275   */\n      0x00\n        /* \"#utility.yul\":9263:9272   */\n      dup4\n        /* \"#utility.yul\":9259:9276   */\n      add\n        /* \"#utility.yul\":9252:9299   */\n      mstore\n        /* \"#utility.yul\":9316:9447   */\n      tag_397\n        /* \"#utility.yul\":9442:9446   */\n      dup2\n        /* \"#utility.yul\":9316:9447   */\n      tag_285\n      jump\t// in\n    tag_397:\n        /* \"#utility.yul\":9308:9447   */\n      swap1\n      pop\n        /* \"#utility.yul\":9035:9454   */\n      swap2\n      swap1\n      pop\n      jump\t// out\n        /* \"#utility.yul\":9460:9640   */\n    tag_286:\n        /* \"#utility.yul\":9508:9585   */\n      0x4e487b7100000000000000000000000000000000000000000000000000000000\n        /* \"#utility.yul\":9505:9506   */\n      0x00\n        /* \"#utility.yul\":9498:9586   */\n      mstore\n        /* \"#utility.yul\":9605:9609   */\n      0x11\n        /* \"#utility.yul\":9602:9603   */\n      0x04\n        /* \"#utility.yul\":9595:9610   */\n      mstore\n        /* \"#utility.yul\":9629:9633   */\n      0x24\n        /* \"#utility.yul\":9626:9627   */\n      0x00\n        /* \"#utility.yul\":9619:9634   */\n      revert\n        /* \"#utility.yul\":9646:9837   */\n    tag_100:\n        /* \"#utility.yul\":9686:9689   */\n      0x00\n        /* \"#utility.yul\":9705:9725   */\n      tag_400\n        /* \"#utility.yul\":9723:9724   */\n      dup3\n        /* \"#utility.yul\":9705:9725   */\n      tag_253\n      jump\t// in\n    tag_400:\n        /* \"#utility.yul\":9700:9725   */\n      swap2\n      pop\n        /* \"#utility.yul\":9739:9759   */\n      tag_401\n        /* \"#utility.yul\":9757:9758   */\n      dup4\n        /* \"#utility.yul\":9739:9759   */\n      tag_253\n      jump\t// in\n    tag_401:\n        /* \"#utility.yul\":9734:9759   */\n      swap3\n      pop\n        /* \"#utility.yul\":9782:9783   */\n      dup3\n        /* \"#utility.yul\":9779:9780   */\n      dup3\n        /* \"#utility.yul\":9775:9784   */\n      add\n        /* \"#utility.yul\":9768:9784   */\n      swap1\n      pop\n        /* \"#utility.yul\":9803:9806   */\n      dup1\n        /* \"#utility.yul\":9800:9801   */\n      dup3\n        /* \"#utility.yul\":9797:9807   */\n      gt\n        /* \"#utility.yul\":9794:9830   */\n      iszero\n      tag_402\n      jumpi\n        /* \"#utility.yul\":9810:9828   */\n      tag_403\n      tag_286\n      jump\t// in\n    tag_403:\n        /* \"#utility.yul\":9794:9830   */\n    tag_402:\n        /* \"#utility.yul\":9646:9837   */\n      swap3\n      swap2\n      pop\n      pop\n      jump\t// out\n        /* \"#utility.yul\":9843:10076   */\n    tag_103:\n        /* \"#utility.yul\":9882:9885   */\n      0x00\n        /* \"#utility.yul\":9905:9929   */\n      tag_405\n        /* \"#utility.yul\":9923:9928   */\n      dup3\n        /* \"#utility.yul\":9905:9929   */\n      tag_253\n      jump\t// in\n    tag_405:\n        /* \"#utility.yul\":9896:9929   */\n      swap2\n      pop\n        /* \"#utility.yul\":9951:10017   */\n      0xffffffffffffffffffffffffffffffffffffffffffffffffffffffffffffffff\n        /* \"#utility.yul\":9944:9949   */\n      dup3\n        /* \"#utility.yul\":9941:10018   */\n      sub\n        /* \"#utility.yul\":9938:10041   */\n      tag_406\n      jumpi\n        /* \"#utility.yul\":10021:10039   */\n      tag_407\n      tag_286\n      jump\t// in\n    tag_407:\n        /* \"#utility.yul\":9938:10041   */\n    tag_406:\n        /* \"#utility.yul\":10068:10069   */\n      0x01\n        /* \"#utility.yul\":10061:10066   */\n      dup3\n        /* \"#utility.yul\":10057:10070   */\n      add\n        /* \"#utility.yul\":10050:10070   */\n      swap1\n      pop\n        /* \"#utility.yul\":9843:10076   */\n      swap2\n      swap1\n      pop\n      jump\t// out\n        /* \"#utility.yul\":10082:10172   */\n    tag_287:\n        /* \"#utility.yul\":10116:10123   */\n      0x00\n        /* \"#utility.yul\":10159:10164   */\n      dup2\n        /* \"#utility.yul\":10152:10165   */\n      iszero\n        /* \"#utility.yul\":10145:10166   */\n      iszero\n        /* \"#utility.yul\":10134:10166   */\n      swap1\n      pop\n        /* \"#utility.yul\":10082:10172   */\n      swap2\n      swap1\n      pop\n      jump\t// out\n        /* \"#utility.yul\":10178:10294   */\n    tag_288:\n        /* \"#utility.yul\":10248:10269   */\n      tag_410\n        /* \"#utility.yul\":10263:10268   */\n      dup2\n        /* \"#utility.yul\":10248:10269   */\n      tag_287\n      jump\t// in\n    tag_410:\n        /* \"#utility.yul\":10241:10246   */\n      dup2\n        /* \"#utility.yul\":10238:10270   */\n      eq\n        /* \"#utility.yul\":10228:10288   */\n      tag_411\n      jumpi\n        /* \"#utility.yul\":10284:10285   */\n      0x00\n        /* \"#utility.yul\":10281:10282   */\n      dup1\n        /* \"#utility.yul\":10274:10286   */\n      revert\n        /* \"#utility.yul\":10228:10288   */\n    tag_411:\n        /* \"#utility.yul\":10178:10294   */\n      pop\n      jump\t// out\n        /* \"#utility.yul\":10300:10437   */\n    tag_289:\n        /* \"#utility.yul\":10354:10359   */\n      0x00\n        /* \"#utility.yul\":10385:10391   */\n      dup2\n        /* \"#utility.yul\":10379:10392   */\n      mload\n        /* \"#utility.yul\":10370:10392   */\n      swap1\n      pop\n        /* \"#utility.yul\":10401:10431   */\n      tag_413\n        /* \"#utility.yul\":10425:10430   */\n      dup2\n        /* \"#utility.yul\":10401:10431   */\n      tag_288\n      jump\t// in\n    tag_413:\n        /* \"#utility.yul\":10300:10437   */\n      swap3\n      swap2\n      pop\n      pop\n      jump\t// out\n        /* \"#utility.yul\":10443:10788   */\n    tag_111:\n        /* \"#utility.yul\":10510:10516   */\n      0x00\n        /* \"#utility.yul\":10559:10561   */\n      0x20\n        /* \"#utility.yul\":10547:10556   */\n      dup3\n        /* \"#utility.yul\":10538:10545   */\n      dup5\n        /* \"#utility.yul\":10534:10557   */\n      sub\n        /* \"#utility.yul\":10530:10562   */\n      slt\n        /* \"#utility.yul\":10527:10646   */\n      iszero\n      tag_415\n      jumpi\n        /* \"#utility.yul\":10565:10644   */\n      tag_416\n      tag_262\n      jump\t// in\n    tag_416:\n        /* \"#utility.yul\":10527:10646   */\n    tag_415:\n        /* \"#utility.yul\":10685:10686   */\n      0x00\n        /* \"#utility.yul\":10710:10771   */\n      tag_417\n        /* \"#utility.yul\":10763:10770   */\n      dup5\n        /* \"#utility.yul\":10754:10760   */\n      dup3\n        /* \"#utility.yul\":10743:10752   */\n      dup6\n        /* \"#utility.yul\":10739:10761   */\n      add\n        /* \"#utility.yul\":10710:10771   */\n      tag_289\n      jump\t// in\n    tag_417:\n        /* \"#utility.yul\":10700:10771   */\n      swap2\n      pop\n        /* \"#utility.yul\":10656:10781   */\n      pop\n        /* \"#utility.yul\":10443:10788   */\n      swap3\n      swap2\n      pop\n      pop\n      jump\t// out\n        /* \"#utility.yul\":10794:10969   */\n    tag_290:\n        /* \"#utility.yul\":10934:10961   */\n      0x526566756e6420706572696f64206e6f7420656c617073656400000000000000\n        /* \"#utility.yul\":10930:10931   */\n      0x00\n        /* \"#utility.yul\":10922:10928   */\n      dup3\n        /* \"#utility.yul\":10918:10932   */\n      add\n        /* \"#utility.yul\":10911:10962   */\n      mstore\n        /* \"#utility.yul\":10794:10969   */\n      pop\n      jump\t// out\n        /* \"#utility.yul\":10975:11341   */\n    tag_291:\n        /* \"#utility.yul\":11117:11120   */\n      0x00\n        /* \"#utility.yul\":11138:11205   */\n      tag_420\n        /* \"#utility.yul\":11202:11204   */\n      0x19\n        /* \"#utility.yul\":11197:11200   */\n      dup4\n        /* \"#utility.yul\":11138:11205   */\n      tag_277\n      jump\t// in\n    tag_420:\n        /* \"#utility.yul\":11131:11205   */\n      swap2\n      pop\n        /* \"#utility.yul\":11214:11307   */\n      tag_421\n        /* \"#utility.yul\":11303:11306   */\n      dup3\n        /* \"#utility.yul\":11214:11307   */\n      tag_290\n      jump\t// in\n    tag_421:\n        /* \"#utility.yul\":11332:11334   */\n      0x20\n        /* \"#utility.yul\":11327:11330   */\n      dup3\n        /* \"#utility.yul\":11323:11335   */\n      add\n        /* \"#utility.yul\":11316:11335   */\n      swap1\n      pop\n        /* \"#utility.yul\":10975:11341   */\n      swap2\n      swap1\n      pop\n      jump\t// out\n        /* \"#utility.yul\":11347:11766   */\n    tag_114:\n        /* \"#utility.yul\":11513:11517   */\n      0x00\n        /* \"#utility.yul\":11551:11553   */\n      0x20\n        /* \"#utility.yul\":11540:11549   */\n      dup3\n        /* \"#utility.yul\":11536:11554   */\n      add\n        /* \"#utility.yul\":11528:11554   */\n      swap1\n      pop\n        /* \"#utility.yul\":11600:11609   */\n      dup2\n        /* \"#utility.yul\":11594:11598   */\n      dup2\n        /* \"#utility.yul\":11590:11610   */\n      sub\n        /* \"#utility.yul\":11586:11587   */\n      0x00\n        /* \"#utility.yul\":11575:11584   */\n      dup4\n        /* \"#utility.yul\":11571:11588   */\n      add\n        /* \"#utility.yul\":11564:11611   */\n      mstore\n        /* \"#utility.yul\":11628:11759   */\n      tag_423\n        /* \"#utility.yul\":11754:11758   */\n      dup2\n        /* \"#utility.yul\":11628:11759   */\n      tag_291\n      jump\t// in\n    tag_423:\n        /* \"#utility.yul\":11620:11759   */\n      swap1\n      pop\n        /* \"#utility.yul\":11347:11766   */\n      swap2\n      swap1\n      pop\n      jump\t// out\n        /* \"#utility.yul\":11772:11936   */\n    tag_292:\n        /* \"#utility.yul\":11912:11928   */\n      0x4e6f206163746976652067616d65000000000000000000000000000000000000\n        /* \"#utility.yul\":11908:11909   */\n      0x00\n        /* \"#utility.yul\":11900:11906   */\n      dup3\n        /* \"#utility.yul\":11896:11910   */\n      add\n        /* \"#utility.yul\":11889:11929   */\n      mstore\n        /* \"#utility.yul\":11772:11936   */\n      pop\n      jump\t// out\n        /* \"#utility.yul\":11942:12308   */\n    tag_293:\n        /* \"#utility.yul\":12084:12087   */\n      0x00\n        /* \"#utility.yul\":12105:12172   */\n      tag_426\n        /* \"#utility.yul\":12169:12171   */\n      0x0e\n        /* \"#utility.yul\":12164:12167   */\n      dup4\n        /* \"#utility.yul\":12105:12172   */\n      tag_277\n      jump\t// in\n    tag_426:\n        /* \"#utility.yul\":12098:12172   */\n      swap2\n      pop\n        /* \"#utility.yul\":12181:12274   */\n      tag_427\n        /* \"#utility.yul\":12270:12273   */\n      dup3\n        /* \"#utility.yul\":12181:12274   */\n      tag_292\n      jump\t// in\n    tag_427:\n        /* \"#utility.yul\":12299:12301   */\n      0x20\n        /* \"#utility.yul\":12294:12297   */\n      dup3\n        /* \"#utility.yul\":12290:12302   */\n      add\n        /* \"#utility.yul\":12283:12302   */\n      swap1\n      pop\n        /* \"#utility.yul\":11942:12308   */\n      swap2\n      swap1\n      pop\n      jump\t// out\n        /* \"#utility.yul\":12314:12733   */\n    tag_117:\n        /* \"#utility.yul\":12480:12484   */\n      0x00\n        /* \"#utility.yul\":12518:12520   */\n      0x20\n        /* \"#utility.yul\":12507:12516   */\n      dup3\n        /* \"#utility.yul\":12503:12521   */\n      add\n        /* \"#utility.yul\":12495:12521   */\n      swap1\n      pop\n        /* \"#utility.yul\":12567:12576   */\n      dup2\n        /* \"#utility.yul\":12561:12565   */\n      dup2\n        /* \"#utility.yul\":12557:12577   */\n      sub\n        /* \"#utility.yul\":12553:12554   */\n      0x00\n        /* \"#utility.yul\":12542:12551   */\n      dup4\n        /* \"#utility.yul\":12538:12555   */\n      add\n        /* \"#utility.yul\":12531:12578   */\n      mstore\n        /* \"#utility.yul\":12595:12726   */\n      tag_429\n        /* \"#utility.yul\":12721:12725   */\n      dup2\n        /* \"#utility.yul\":12595:12726   */\n      tag_293\n      jump\t// in\n    tag_429:\n        /* \"#utility.yul\":12587:12726   */\n      swap1\n      pop\n        /* \"#utility.yul\":12314:12733   */\n      swap2\n      swap1\n      pop\n      jump\t// out\n        /* \"#utility.yul\":12739:12911   */\n    tag_294:\n        /* \"#utility.yul\":12879:12903   */\n      0x4f6e6c7920706c617965722063616e20726566756e6400000000000000000000\n        /* \"#utility.yul\":12875:12876   */\n      0x00\n        /* \"#utility.yul\":12867:12873   */\n      dup3\n        /* \"#utility.yul\":12863:12877   */\n      add\n        /* \"#utility.yul\":12856:12904   */\n      mstore\n        /* \"#utility.yul\":12739:12911   */\n      pop\n      jump\t// out\n        /* \"#utility.yul\":12917:13283   */\n    tag_295:\n        /* \"#utility.yul\":13059:13062   */\n      0x00\n        /* \"#utility.yul\":13080:13147   */\n      tag_432\n        /* \"#utility.yul\":13144:13146   */\n      0x16\n        /* \"#utility.yul\":13139:13142   */\n      dup4\n        /* \"#utility.yul\":13080:13147   */\n      tag_277\n      jump\t// in\n    tag_432:\n        /* \"#utility.yul\":13073:13147   */\n      swap2\n      pop\n        /* \"#utility.yul\":13156:13249   */\n      tag_433\n        /* \"#utility.yul\":13245:13248   */\n      dup3\n        /* \"#utility.yul\":13156:13249   */\n      tag_294\n      jump\t// in\n    tag_433:\n        /* \"#utility.yul\":13274:13276   */\n      0x20\n        /* \"#utility.yul\":13269:13272   */\n      dup3\n        /* \"#utility.yul\":13265:13277   */\n      add\n        /* \"#utility.yul\":13258:13277   */\n      swap1\n      pop\n        /* \"#utility.yul\":12917:13283   */\n      swap2\n      swap1\n      pop\n      jump\t// out\n        /* \"#utility.yul\":13289:13708   */\n    tag_127:\n        /* \"#utility.yul\":13455:13459   */\n      0x00\n        /* \"#utility.yul\":13493:13495   */\n      0x20\n        /* \"#utility.yul\":13482:13491   */\n      dup3\n        /* \"#utility.yul\":13478:13496   */\n      add\n        /* \"#utility.yul\":13470:13496   */\n      swap1\n      pop\n        /* \"#utility.yul\":13542:13551   */\n      dup2\n        /* \"#utility.yul\":13536:13540   */\n      dup2\n        /* \"#utility.yul\":13532:13552   */\n      sub\n        /* \"#utility.yul\":13528:13529   */\n      0x00\n        /* \"#utility.yul\":13517:13526   */\n      dup4\n        /* \"#utility.yul\":13513:13530   */\n      add\n        /* \"#utility.yul\":13506:13553   */\n      mstore\n        /* \"#utility.yul\":13570:13701   */\n      tag_435\n        /* \"#utility.yul\":13696:13700   */\n      dup2\n        /* \"#utility.yul\":13570:13701   */\n      tag_295\n      jump\t// in\n    tag_435:\n        /* \"#utility.yul\":13562:13701   */\n      swap1\n      pop\n        /* \"#utility.yul\":13289:13708   */\n      swap2\n      swap1\n      pop\n      jump\t// out\n        /* \"#utility.yul\":13714:13883   */\n    tag_296:\n        /* \"#utility.yul\":13854:13875   */\n      0x556e617574686f72697a656420726566756e6400000000000000000000000000\n        /* \"#utility.yul\":13850:13851   */\n      0x00\n        /* \"#utility.yul\":13842:13848   */\n      dup3\n        /* \"#utility.yul\":13838:13852   */\n      add\n        /* \"#utility.yul\":13831:13876   */\n      mstore\n        /* \"#utility.yul\":13714:13883   */\n      pop\n      jump\t// out\n        /* \"#utility.yul\":13889:14255   */\n    tag_297:\n        /* \"#utility.yul\":14031:14034   */\n      0x00\n        /* \"#utility.yul\":14052:14119   */\n      tag_438\n        /* \"#utility.yul\":14116:14118   */\n      0x13\n        /* \"#utility.yul\":14111:14114   */\n      dup4\n        /* \"#utility.yul\":14052:14119   */\n      tag_277\n      jump\t// in\n    tag_438:\n        /* \"#utility.yul\":14045:14119   */\n      swap2\n      pop\n        /* \"#utility.yul\":14128:14221   */\n      tag_439\n        /* \"#utility.yul\":14217:14220   */\n      dup3\n        /* \"#utility.yul\":14128:14221   */\n      tag_296\n      jump\t// in\n    tag_439:\n        /* \"#utility.yul\":14246:14248   */\n      0x20\n        /* \"#utility.yul\":14241:14244   */\n      dup3\n        /* \"#utility.yul\":14237:14249   */\n      add\n        /* \"#utility.yul\":14230:14249   */\n      swap1\n      pop\n        /* \"#utility.yul\":13889:14255   */\n      swap2\n      swap1\n      pop\n      jump\t// out\n        /* \"#utility.yul\":14261:14680   */\n    tag_140:\n        /* \"#utility.yul\":14427:14431   */\n      0x00\n        /* \"#utility.yul\":14465:14467   */\n      0x20\n        /* \"#utility.yul\":14454:14463   */\n      dup3\n        /* \"#utility.yul\":14450:14468   */\n      add\n        /* \"#utility.yul\":14442:14468   */\n      swap1\n      pop\n        /* \"#utility.yul\":14514:14523   */\n      dup2\n        /* \"#utility.yul\":14508:14512   */\n      dup2\n        /* \"#utility.yul\":14504:14524   */\n      sub\n        /* \"#utility.yul\":14500:14501   */\n      0x00\n        /* \"#utility.yul\":14489:14498   */\n      dup4\n        /* \"#utility.yul\":14485:14502   */\n      add\n        /* \"#utility.yul\":14478:14525   */\n      mstore\n        /* \"#utility.yul\":14542:14673   */\n      tag_441\n        /* \"#utility.yul\":14668:14672   */\n      dup2\n        /* \"#utility.yul\":14542:14673   */\n      tag_297\n      jump\t// in\n    tag_441:\n        /* \"#utility.yul\":14534:14673   */\n      swap1\n      pop\n        /* \"#utility.yul\":14261:14680   */\n      swap2\n      swap1\n      pop\n      jump\t// out\n        /* \"#utility.yul\":14686:14866   */\n    tag_298:\n        /* \"#utility.yul\":14734:14811   */\n      0x4e487b7100000000000000000000000000000000000000000000000000000000\n        /* \"#utility.yul\":14731:14732   */\n      0x00\n        /* \"#utility.yul\":14724:14812   */\n      mstore\n        /* \"#utility.yul\":14831:14835   */\n      0x12\n        /* \"#utility.yul\":14828:14829   */\n      0x04\n        /* \"#utility.yul\":14821:14836   */\n      mstore\n        /* \"#utility.yul\":14855:14859   */\n      0x24\n        /* \"#utility.yul\":14852:14853   */\n      0x00\n        /* \"#utility.yul\":14845:14860   */\n      revert\n        /* \"#utility.yul\":14872:15057   */\n    tag_145:\n        /* \"#utility.yul\":14912:14913   */\n      0x00\n        /* \"#utility.yul\":14929:14949   */\n      tag_444\n        /* \"#utility.yul\":14947:14948   */\n      dup3\n        /* \"#utility.yul\":14929:14949   */\n      tag_253\n      jump\t// in\n    tag_444:\n        /* \"#utility.yul\":14924:14949   */\n      swap2\n      pop\n        /* \"#utility.yul\":14963:14983   */\n      tag_445\n        /* \"#utility.yul\":14981:14982   */\n      dup4\n        /* \"#utility.yul\":14963:14983   */\n      tag_253\n      jump\t// in\n    tag_445:\n        /* \"#utility.yul\":14958:14983   */\n      swap3\n      pop\n        /* \"#utility.yul\":15002:15003   */\n      dup3\n        /* \"#utility.yul\":14992:15027   */\n      tag_446\n      jumpi\n        /* \"#utility.yul\":15007:15025   */\n      tag_447\n      tag_298\n      jump\t// in\n    tag_447:\n        /* \"#utility.yul\":14992:15027   */\n    tag_446:\n        /* \"#utility.yul\":15049:15050   */\n      dup3\n        /* \"#utility.yul\":15046:15047   */\n      dup3\n        /* \"#utility.yul\":15042:15051   */\n      div\n        /* \"#utility.yul\":15037:15051   */\n      swap1\n      pop\n        /* \"#utility.yul\":14872:15057   */\n      swap3\n      swap2\n      pop\n      pop\n      jump\t// out\n        /* \"#utility.yul\":15063:15292   */\n    tag_299:\n        /* \"#utility.yul\":15203:15237   */\n      0x426f746820706c6179657273206d75737420636f6d6d6974206265666f726520\n        /* \"#utility.yul\":15199:15200   */\n      0x00\n        /* \"#utility.yul\":15191:15197   */\n      dup3\n        /* \"#utility.yul\":15187:15201   */\n      add\n        /* \"#utility.yul\":15180:15238   */\n      mstore\n        /* \"#utility.yul\":15272:15284   */\n      0x72657665616c696e672e00000000000000000000000000000000000000000000\n        /* \"#utility.yul\":15267:15269   */\n      0x20\n        /* \"#utility.yul\":15259:15265   */\n      dup3\n        /* \"#utility.yul\":15255:15270   */\n      add\n        /* \"#utility.yul\":15248:15285   */\n      mstore\n        /* \"#utility.yul\":15063:15292   */\n      pop\n      jump\t// out\n        /* \"#utility.yul\":15298:15664   */\n    tag_300:\n        /* \"#utility.yul\":15440:15443   */\n      0x00\n        /* \"#utility.yul\":15461:15528   */\n      tag_450\n        /* \"#utility.yul\":15525:15527   */\n      0x2a\n        /* \"#utility.yul\":15520:15523   */\n      dup4\n        /* \"#utility.yul\":15461:15528   */\n      tag_277\n      jump\t// in\n    tag_450:\n        /* \"#utility.yul\":15454:15528   */\n      swap2\n      pop\n        /* \"#utility.yul\":15537:15630   */\n      tag_451\n        /* \"#utility.yul\":15626:15629   */\n      dup3\n        /* \"#utility.yul\":15537:15630   */\n      tag_299\n      jump\t// in\n    tag_451:\n        /* \"#utility.yul\":15655:15657   */\n      0x40\n        /* \"#utility.yul\":15650:15653   */\n      dup3\n        /* \"#utility.yul\":15646:15658   */\n      add\n        /* \"#utility.yul\":15639:15658   */\n      swap1\n      pop\n        /* \"#utility.yul\":15298:15664   */\n      swap2\n      swap1\n      pop\n      jump\t// out\n        /* \"#utility.yul\":15670:16089   */\n    tag_156:\n        /* \"#utility.yul\":15836:15840   */\n      0x00\n        /* \"#utility.yul\":15874:15876   */\n      0x20\n        /* \"#utility.yul\":15863:15872   */\n      dup3\n        /* \"#utility.yul\":15859:15877   */\n      add\n        /* \"#utility.yul\":15851:15877   */\n      swap1\n      pop\n        /* \"#utility.yul\":15923:15932   */\n      dup2\n        /* \"#utility.yul\":15917:15921   */\n      dup2\n        /* \"#utility.yul\":15913:15933   */\n      sub\n        /* \"#utility.yul\":15909:15910   */\n      0x00\n        /* \"#utility.yul\":15898:15907   */\n      dup4\n        /* \"#utility.yul\":15894:15911   */\n      add\n        /* \"#utility.yul\":15887:15934   */\n      mstore\n        /* \"#utility.yul\":15951:16082   */\n      tag_453\n        /* \"#utility.yul\":16077:16081   */\n      dup2\n        /* \"#utility.yul\":15951:16082   */\n      tag_300\n      jump\t// in\n    tag_453:\n        /* \"#utility.yul\":15943:16082   */\n      swap1\n      pop\n        /* \"#utility.yul\":15670:16089   */\n      swap2\n      swap1\n      pop\n      jump\t// out\n        /* \"#utility.yul\":16095:16213   */\n    tag_301:\n        /* \"#utility.yul\":16182:16206   */\n      tag_455\n        /* \"#utility.yul\":16200:16205   */\n      dup2\n        /* \"#utility.yul\":16182:16206   */\n      tag_264\n      jump\t// in\n    tag_455:\n        /* \"#utility.yul\":16177:16180   */\n      dup3\n        /* \"#utility.yul\":16170:16207   */\n      mstore\n        /* \"#utility.yul\":16095:16213   */\n      pop\n      pop\n      jump\t// out\n        /* \"#utility.yul\":16219:16551   */\n    tag_158:\n        /* \"#utility.yul\":16340:16344   */\n      0x00\n        /* \"#utility.yul\":16378:16380   */\n      0x40\n        /* \"#utility.yul\":16367:16376   */\n      dup3\n        /* \"#utility.yul\":16363:16381   */\n      add\n        /* \"#utility.yul\":16355:16381   */\n      swap1\n      pop\n        /* \"#utility.yul\":16391:16462   */\n      tag_457\n        /* \"#utility.yul\":16459:16460   */\n      0x00\n        /* \"#utility.yul\":16448:16457   */\n      dup4\n        /* \"#utility.yul\":16444:16461   */\n      add\n        /* \"#utility.yul\":16435:16441   */\n      dup6\n        /* \"#utility.yul\":16391:16462   */\n      tag_301\n      jump\t// in\n    tag_457:\n        /* \"#utility.yul\":16472:16544   */\n      tag_458\n        /* \"#utility.yul\":16540:16542   */\n      0x20\n        /* \"#utility.yul\":16529:16538   */\n      dup4\n        /* \"#utility.yul\":16525:16543   */\n      add\n        /* \"#utility.yul\":16516:16522   */\n      dup5\n        /* \"#utility.yul\":16472:16544   */\n      tag_276\n      jump\t// in\n    tag_458:\n        /* \"#utility.yul\":16219:16551   */\n      swap4\n      swap3\n      pop\n      pop\n      pop\n      jump\t// out\n        /* \"#utility.yul\":16557:16725   */\n    tag_302:\n        /* \"#utility.yul\":16697:16717   */\n      0x47616d65206973206e6f742072656164792e0000000000000000000000000000\n        /* \"#utility.yul\":16693:16694   */\n      0x00\n        /* \"#utility.yul\":16685:16691   */\n      dup3\n        /* \"#utility.yul\":16681:16695   */\n      add\n        /* \"#utility.yul\":16674:16718   */\n      mstore\n        /* \"#utility.yul\":16557:16725   */\n      pop\n      jump\t// out\n        /* \"#utility.yul\":16731:17097   */\n    tag_303:\n        /* \"#utility.yul\":16873:16876   */\n      0x00\n        /* \"#utility.yul\":16894:16961   */\n      tag_461\n        /* \"#utility.yul\":16958:16960   */\n      0x12\n        /* \"#utility.yul\":16953:16956   */\n      dup4\n        /* \"#utility.yul\":16894:16961   */\n      tag_277\n      jump\t// in\n    tag_461:\n        /* \"#utility.yul\":16887:16961   */\n      swap2\n      pop\n        /* \"#utility.yul\":16970:17063   */\n      tag_462\n        /* \"#utility.yul\":17059:17062   */\n      dup3\n        /* \"#utility.yul\":16970:17063   */\n      tag_302\n      jump\t// in\n    tag_462:\n        /* \"#utility.yul\":17088:17090   */\n      0x20\n        /* \"#utility.yul\":17083:17086   */\n      dup3\n        /* \"#utility.yul\":17079:17091   */\n      add\n        /* \"#utility.yul\":17072:17091   */\n      swap1\n      pop\n        /* \"#utility.yul\":16731:17097   */\n      swap2\n      swap1\n      pop\n      jump\t// out\n        /* \"#utility.yul\":17103:17522   */\n    tag_173:\n        /* \"#utility.yul\":17269:17273   */\n      0x00\n        /* \"#utility.yul\":17307:17309   */\n      0x20\n        /* \"#utility.yul\":17296:17305   */\n      dup3\n        /* \"#utility.yul\":17292:17310   */\n      add\n        /* \"#utility.yul\":17284:17310   */\n      swap1\n      pop\n        /* \"#utility.yul\":17356:17365   */\n      dup2\n        /* \"#utility.yul\":17350:17354   */\n      dup2\n        /* \"#utility.yul\":17346:17366   */\n      sub\n        /* \"#utility.yul\":17342:17343   */\n      0x00\n        /* \"#utility.yul\":17331:17340   */\n      dup4\n        /* \"#utility.yul\":17327:17344   */\n      add\n        /* \"#utility.yul\":17320:17367   */\n      mstore\n        /* \"#utility.yul\":17384:17515   */\n      tag_464\n        /* \"#utility.yul\":17510:17514   */\n      dup2\n        /* \"#utility.yul\":17384:17515   */\n      tag_303\n      jump\t// in\n    tag_464:\n        /* \"#utility.yul\":17376:17515   */\n      swap1\n      pop\n        /* \"#utility.yul\":17103:17522   */\n      swap2\n      swap1\n      pop\n      jump\t// out\n        /* \"#utility.yul\":17528:17719   */\n    tag_184:\n        /* \"#utility.yul\":17566:17570   */\n      0x00\n        /* \"#utility.yul\":17586:17604   */\n      tag_466\n        /* \"#utility.yul\":17602:17603   */\n      dup3\n        /* \"#utility.yul\":17586:17604   */\n      tag_272\n      jump\t// in\n    tag_466:\n        /* \"#utility.yul\":17581:17604   */\n      swap2\n      pop\n        /* \"#utility.yul\":17618:17636   */\n      tag_467\n        /* \"#utility.yul\":17634:17635   */\n      dup4\n        /* \"#utility.yul\":17618:17636   */\n      tag_272\n      jump\t// in\n    tag_467:\n        /* \"#utility.yul\":17613:17636   */\n      swap3\n      pop\n        /* \"#utility.yul\":17660:17661   */\n      dup3\n        /* \"#utility.yul\":17657:17658   */\n      dup3\n        /* \"#utility.yul\":17653:17662   */\n      sub\n        /* \"#utility.yul\":17645:17662   */\n      swap1\n      pop\n        /* \"#utility.yul\":17684:17688   */\n      0xff\n        /* \"#utility.yul\":17678:17682   */\n      dup2\n        /* \"#utility.yul\":17675:17689   */\n      gt\n        /* \"#utility.yul\":17672:17712   */\n      iszero\n      tag_468\n      jumpi\n        /* \"#utility.yul\":17692:17710   */\n      tag_469\n      tag_286\n      jump\t// in\n    tag_469:\n        /* \"#utility.yul\":17672:17712   */\n    tag_468:\n        /* \"#utility.yul\":17528:17719   */\n      swap3\n      swap2\n      pop\n      pop\n      jump\t// out\n        /* \"#utility.yul\":17725:17895   */\n    tag_188:\n        /* \"#utility.yul\":17755:17756   */\n      0x00\n        /* \"#utility.yul\":17772:17790   */\n      tag_471\n        /* \"#utility.yul\":17788:17789   */\n      dup3\n        /* \"#utility.yul\":17772:17790   */\n      tag_272\n      jump\t// in\n    tag_471:\n        /* \"#utility.yul\":17767:17790   */\n      swap2\n      pop\n        /* \"#utility.yul\":17804:17822   */\n      tag_472\n        /* \"#utility.yul\":17820:17821   */\n      dup4\n        /* \"#utility.yul\":17804:17822   */\n      tag_272\n      jump\t// in\n    tag_472:\n        /* \"#utility.yul\":17799:17822   */\n      swap3\n      pop\n        /* \"#utility.yul\":17841:17842   */\n      dup3\n        /* \"#utility.yul\":17831:17866   */\n      tag_473\n      jumpi\n        /* \"#utility.yul\":17846:17864   */\n      tag_474\n      tag_298\n      jump\t// in\n    tag_474:\n        /* \"#utility.yul\":17831:17866   */\n    tag_473:\n        /* \"#utility.yul\":17887:17888   */\n      dup3\n        /* \"#utility.yul\":17884:17885   */\n      dup3\n        /* \"#utility.yul\":17880:17889   */\n      mod\n        /* \"#utility.yul\":17875:17889   */\n      swap1\n      pop\n        /* \"#utility.yul\":17725:17895   */\n      swap3\n      swap2\n      pop\n      pop\n      jump\t// out\n\n    auxdata: 0xa26469706673582212205ff520878c66947cb6b46caca66c6ca0fbb3aecb49a456f1886e1657d3de1b7464736f6c634300081a0033\n}\n\nsub_1: assembly {\n        /* \"CommitReveal.sol\":74:2247  contract CommitReveal {... */\n      mstore(0x40, 0x80)\n        /* \"CommitReveal.sol\":122:125  100 */\n      0x64\n        /* \"CommitReveal.sol\":103:125  uint8 public max = 100 */\n      0x00\n      dup1\n      0x0100\n      exp\n      dup2\n      sload\n      dup2\n      0xff\n      mul\n      not\n      and\n      swap1\n      dup4\n      0xff\n      and\n      mul\n      or\n      swap1\n      sstore\n      pop\n        /* \"CommitReveal.sol\":74:2247  contract CommitReveal {... */\n      callvalue\n      dup1\n      iszero\n      tag_1\n      jumpi\n      0x00\n      dup1\n      revert\n    tag_1:\n      pop\n      dataSize(sub_0)\n      dup1\n      dataOffset(sub_0)\n      0x00\n      codecopy\n      0x00\n      return\n    stop\n\n    sub_0: assembly {\n            /* \"CommitReveal.sol\":74:2247  contract CommitReveal {... */\n          mstore(0x40, 0x80)\n          callvalue\n          dup1\n          iszero\n          tag_1\n          jumpi\n          0x00\n          dup1\n          revert\n        tag_1:\n          pop\n          jumpi(tag_2, lt(calldatasize, 0x04))\n          shr(0xe0, calldataload(0x00))\n          dup1\n          0x3cf5040a\n          eq\n          tag_3\n          jumpi\n          dup1\n          0x5a746101\n          eq\n          tag_4\n          jumpi\n          dup1\n          0x6ac5db19\n          eq\n          tag_5\n          jumpi\n          dup1\n          0x7b43a8e6\n          eq\n          tag_6\n          jumpi\n          dup1\n          0x8696b887\n          eq\n          tag_7\n          jumpi\n          dup1\n          0xad487790\n          eq\n          tag_8\n          jumpi\n        tag_2:\n          0x00\n          dup1\n          revert\n            /* \"CommitReveal.sol\":1986:2098  function getHash(bytes32 data) public pure returns(bytes32){... */\n        tag_3:\n          tag_9\n          0x04\n          dup1\n          calldatasize\n          sub\n          dup2\n          add\n          swap1\n          tag_10\n          swap2\n          swap1\n          tag_11\n          jump\t// in\n        tag_10:\n          tag_12\n          jump\t// in\n        tag_9:\n          mload(0x40)\n          tag_13\n          swap2\n          swap1\n          tag_14\n          jump\t// in\n        tag_13:\n          mload(0x40)\n          dup1\n          swap2\n          sub\n          swap1\n          return\n            /* \"CommitReveal.sol\":287:683  function commit(bytes32 dataHash, address sender) public {... */\n        tag_4:\n          tag_15\n          0x04\n          dup1\n          calldatasize\n          sub\n          dup2\n          add\n          swap1\n          tag_16\n          swap2\n          swap1\n          tag_17\n          jump\t// in\n        tag_16:\n          tag_18\n          jump\t// in\n        tag_15:\n          stop\n            /* \"CommitReveal.sol\":103:125  uint8 public max = 100 */\n        tag_5:\n          tag_19\n          tag_20\n          jump\t// in\n        tag_19:\n          mload(0x40)\n          tag_21\n          swap2\n          swap1\n          tag_22\n          jump\t// in\n        tag_21:\n          mload(0x40)\n          dup1\n          swap2\n          sub\n          swap1\n          return\n            /* \"CommitReveal.sol\":238:280  mapping (address => Commit) public commits */\n        tag_6:\n          tag_23\n          0x04\n          dup1\n          calldatasize\n          sub\n          dup2\n          add\n          swap1\n          tag_24\n          swap2\n          swap1\n          tag_25\n          jump\t// in\n        tag_24:\n          tag_26\n          jump\t// in\n        tag_23:\n          mload(0x40)\n          tag_27\n          swap5\n          swap4\n          swap3\n          swap2\n          swap1\n          tag_28\n          jump\t// in\n        tag_27:\n          mload(0x40)\n          dup1\n          swap2\n          sub\n          swap1\n          return\n            /* \"CommitReveal.sol\":2104:2244  function getCommit(address sender) public view returns (bytes32, bool) {... */\n        tag_7:\n          tag_29\n          0x04\n          dup1\n          calldatasize\n          sub\n          dup2\n          add\n          swap1\n          tag_30\n          swap2\n          swap1\n          tag_25\n          jump\t// in\n        tag_30:\n          tag_31\n          jump\t// in\n        tag_29:\n          mload(0x40)\n          tag_32\n          swap3\n          swap2\n          swap1\n          tag_33\n          jump\t// in\n        tag_32:\n          mload(0x40)\n          dup1\n          swap2\n          sub\n          swap1\n          return\n            /* \"CommitReveal.sol\":758:1910  function reveal(bytes32 revealHash, address sender) public {... */\n        tag_8:\n          tag_34\n          0x04\n          dup1\n          calldatasize\n          sub\n          dup2\n          add\n          swap1\n          tag_35\n          swap2\n          swap1\n          tag_17\n          jump\t// in\n        tag_35:\n          tag_36\n          jump\t// in\n        tag_34:\n          stop\n            /* \"CommitReveal.sol\":1986:2098  function getHash(bytes32 data) public pure returns(bytes32){... */\n        tag_12:\n            /* \"CommitReveal.sol\":2037:2044  bytes32 */\n          0x00\n            /* \"CommitReveal.sol\":2086:2090  data */\n          dup2\n            /* \"CommitReveal.sol\":2069:2091  abi.encodePacked(data) */\n          add(0x20, mload(0x40))\n          tag_38\n          swap2\n          swap1\n          tag_39\n          jump\t// in\n        tag_38:\n          mload(0x40)\n          0x20\n          dup2\n          dup4\n          sub\n          sub\n          dup2\n          mstore\n          swap1\n          0x40\n          mstore\n            /* \"CommitReveal.sol\":2059:2092  keccak256(abi.encodePacked(data)) */\n          dup1\n          mload\n          swap1\n          0x20\n          add\n          keccak256\n            /* \"CommitReveal.sol\":2052:2092  return keccak256(abi.encodePacked(data)) */\n          swap1\n          pop\n            /* \"CommitReveal.sol\":1986:2098  function getHash(bytes32 data) public pure returns(bytes32){... */\n          swap2\n          swap1\n          pop\n          jump\t// out\n            /* \"CommitReveal.sol\":287:683  function commit(bytes32 dataHash, address sender) public {... */\n        tag_18:\n            /* \"CommitReveal.sol\":385:390  false */\n          0x00\n            /* \"CommitReveal.sol\":359:390  commits[sender].commited==false */\n          iszero\n          iszero\n            /* \"CommitReveal.sol\":359:366  commits */\n          0x01\n            /* \"CommitReveal.sol\":359:374  commits[sender] */\n          0x00\n            /* \"CommitReveal.sol\":367:373  sender */\n          dup4\n            /* \"CommitReveal.sol\":359:374  commits[sender] */\n          0xffffffffffffffffffffffffffffffffffffffff\n          and\n          0xffffffffffffffffffffffffffffffffffffffff\n          and\n          dup2\n          mstore\n          0x20\n          add\n          swap1\n          dup2\n          mstore\n          0x20\n          add\n          0x00\n          keccak256\n            /* \"CommitReveal.sol\":359:383  commits[sender].commited */\n          0x01\n          add\n          0x09\n          swap1\n          sload\n          swap1\n          0x0100\n          exp\n          swap1\n          div\n          0xff\n          and\n            /* \"CommitReveal.sol\":359:390  commits[sender].commited==false */\n          iszero\n          iszero\n          eq\n            /* \"CommitReveal.sol\":351:432  require(commits[sender].commited==false,\"CommitReveal::commit: Already commited\") */\n          tag_41\n          jumpi\n          mload(0x40)\n          0x08c379a000000000000000000000000000000000000000000000000000000000\n          dup2\n          mstore\n          0x04\n          add\n          tag_42\n          swap1\n          tag_43\n          jump\t// in\n        tag_42:\n          mload(0x40)\n          dup1\n          swap2\n          sub\n          swap1\n          revert\n        tag_41:\n            /* \"CommitReveal.sol\":466:474  dataHash */\n          dup2\n            /* \"CommitReveal.sol\":441:448  commits */\n          0x01\n            /* \"CommitReveal.sol\":441:456  commits[sender] */\n          0x00\n            /* \"CommitReveal.sol\":449:455  sender */\n          dup4\n            /* \"CommitReveal.sol\":441:456  commits[sender] */\n          0xffffffffffffffffffffffffffffffffffffffff\n          and\n          0xffffffffffffffffffffffffffffffffffffffff\n          and\n          dup2\n          mstore\n          0x20\n          add\n          swap1\n          dup2\n          mstore\n          0x20\n          add\n          0x00\n          keccak256\n            /* \"CommitReveal.sol\":441:463  commits[sender].commit */\n          0x00\n          add\n            /* \"CommitReveal.sol\":441:474  commits[sender].commit = dataHash */\n          dup2\n          swap1\n          sstore\n          pop\n            /* \"CommitReveal.sol\":508:512  true */\n          0x01\n            /* \"CommitReveal.sol\":481:488  commits */\n          dup1\n            /* \"CommitReveal.sol\":481:496  commits[sender] */\n          0x00\n            /* \"CommitReveal.sol\":489:495  sender */\n          dup4\n            /* \"CommitReveal.sol\":481:496  commits[sender] */\n          0xffffffffffffffffffffffffffffffffffffffff\n          and\n          0xffffffffffffffffffffffffffffffffffffffff\n          and\n          dup2\n          mstore\n          0x20\n          add\n          swap1\n          dup2\n          mstore\n          0x20\n          add\n          0x00\n          keccak256\n            /* \"CommitReveal.sol\":481:505  commits[sender].commited */\n          0x01\n          add\n          0x09\n            /* \"CommitReveal.sol\":481:512  commits[sender].commited = true */\n          0x0100\n          exp\n          dup2\n          sload\n          dup2\n          0xff\n          mul\n          not\n          and\n          swap1\n          dup4\n          iszero\n          iszero\n          mul\n          or\n          swap1\n          sstore\n          pop\n            /* \"CommitReveal.sol\":550:562  block.number */\n          number\n            /* \"CommitReveal.sol\":519:526  commits */\n          0x01\n            /* \"CommitReveal.sol\":519:534  commits[sender] */\n          0x00\n            /* \"CommitReveal.sol\":527:533  sender */\n          dup4\n            /* \"CommitReveal.sol\":519:534  commits[sender] */\n          0xffffffffffffffffffffffffffffffffffffffff\n          and\n          0xffffffffffffffffffffffffffffffffffffffff\n          and\n          dup2\n          mstore\n          0x20\n          add\n          swap1\n          dup2\n          mstore\n          0x20\n          add\n          0x00\n          keccak256\n            /* \"CommitReveal.sol\":519:540  commits[sender].block */\n          0x01\n          add\n          0x00\n            /* \"CommitReveal.sol\":519:563  commits[sender].block = uint64(block.number) */\n          0x0100\n          exp\n          dup2\n          sload\n          dup2\n          0xffffffffffffffff\n          mul\n          not\n          and\n          swap1\n          dup4\n          0xffffffffffffffff\n          and\n          mul\n          or\n          swap1\n          sstore\n          pop\n            /* \"CommitReveal.sol\":597:602  false */\n          0x00\n            /* \"CommitReveal.sol\":570:577  commits */\n          0x01\n            /* \"CommitReveal.sol\":570:585  commits[sender] */\n          0x00\n            /* \"CommitReveal.sol\":578:584  sender */\n          dup4\n            /* \"CommitReveal.sol\":570:585  commits[sender] */\n          0xffffffffffffffffffffffffffffffffffffffff\n          and\n          0xffffffffffffffffffffffffffffffffffffffff\n          and\n          dup2\n          mstore\n          0x20\n          add\n          swap1\n          dup2\n          mstore\n          0x20\n          add\n          0x00\n          keccak256\n            /* \"CommitReveal.sol\":570:594  commits[sender].revealed */\n          0x01\n          add\n          0x08\n            /* \"CommitReveal.sol\":570:602  commits[sender].revealed = false */\n          0x0100\n          exp\n          dup2\n          sload\n          dup2\n          0xff\n          mul\n          not\n          and\n          swap1\n          dup4\n          iszero\n          iszero\n          mul\n          or\n          swap1\n          sstore\n          pop\n            /* \"CommitReveal.sol\":614:677  CommitHash(sender,commits[sender].commit,commits[sender].block) */\n          0x3c1a1f8f38335b17f751c6da4ba7d1865f26b3997535176f5080de9fad891603\n            /* \"CommitReveal.sol\":625:631  sender */\n          dup2\n            /* \"CommitReveal.sol\":632:639  commits */\n          0x01\n            /* \"CommitReveal.sol\":632:647  commits[sender] */\n          0x00\n            /* \"CommitReveal.sol\":640:646  sender */\n          dup5\n            /* \"CommitReveal.sol\":632:647  commits[sender] */\n          0xffffffffffffffffffffffffffffffffffffffff\n          and\n          0xffffffffffffffffffffffffffffffffffffffff\n          and\n          dup2\n          mstore\n          0x20\n          add\n          swap1\n          dup2\n          mstore\n          0x20\n          add\n          0x00\n          keccak256\n            /* \"CommitReveal.sol\":632:654  commits[sender].commit */\n          0x00\n          add\n          sload\n            /* \"CommitReveal.sol\":655:662  commits */\n          0x01\n            /* \"CommitReveal.sol\":655:670  commits[sender] */\n          0x00\n            /* \"CommitReveal.sol\":663:669  sender */\n          dup6\n            /* \"CommitReveal.sol\":655:670  commits[sender] */\n          0xffffffffffffffffffffffffffffffffffffffff\n          and\n          0xffffffffffffffffffffffffffffffffffffffff\n          and\n          dup2\n          mstore\n          0x20\n          add\n          swap1\n          dup2\n          mstore\n          0x20\n          add\n          0x00\n          keccak256\n            /* \"CommitReveal.sol\":655:676  commits[sender].block */\n          0x01\n          add\n          0x00\n          swap1\n          sload\n          swap1\n          0x0100\n          exp\n          swap1\n          div\n          0xffffffffffffffff\n          and\n            /* \"CommitReveal.sol\":614:677  CommitHash(sender,commits[sender].commit,commits[sender].block) */\n          mload(0x40)\n          tag_44\n          swap4\n          swap3\n          swap2\n          swap1\n          tag_45\n          jump\t// in\n        tag_44:\n          mload(0x40)\n          dup1\n          swap2\n          sub\n          swap1\n          log1\n            /* \"CommitReveal.sol\":287:683  function commit(bytes32 dataHash, address sender) public {... */\n          pop\n          pop\n          jump\t// out\n            /* \"CommitReveal.sol\":103:125  uint8 public max = 100 */\n        tag_20:\n          0x00\n          dup1\n          sload\n          swap1\n          0x0100\n          exp\n          swap1\n          div\n          0xff\n          and\n          dup2\n          jump\t// out\n            /* \"CommitReveal.sol\":238:280  mapping (address => Commit) public commits */\n        tag_26:\n          mstore(0x20, 0x01)\n          dup1\n          0x00\n          mstore\n          keccak256(0x00, 0x40)\n          0x00\n          swap2\n          pop\n          swap1\n          pop\n          dup1\n          0x00\n          add\n          sload\n          swap1\n          dup1\n          0x01\n          add\n          0x00\n          swap1\n          sload\n          swap1\n          0x0100\n          exp\n          swap1\n          div\n          0xffffffffffffffff\n          and\n          swap1\n          dup1\n          0x01\n          add\n          0x08\n          swap1\n          sload\n          swap1\n          0x0100\n          exp\n          swap1\n          div\n          0xff\n          and\n          swap1\n          dup1\n          0x01\n          add\n          0x09\n          swap1\n          sload\n          swap1\n          0x0100\n          exp\n          swap1\n          div\n          0xff\n          and\n          swap1\n          pop\n          dup5\n          jump\t// out\n            /* \"CommitReveal.sol\":2104:2244  function getCommit(address sender) public view returns (bytes32, bool) {... */\n        tag_31:\n            /* \"CommitReveal.sol\":2160:2167  bytes32 */\n          0x00\n            /* \"CommitReveal.sol\":2169:2173  bool */\n          dup1\n            /* \"CommitReveal.sol\":2190:2197  commits */\n          0x01\n            /* \"CommitReveal.sol\":2190:2205  commits[sender] */\n          0x00\n            /* \"CommitReveal.sol\":2198:2204  sender */\n          dup5\n            /* \"CommitReveal.sol\":2190:2205  commits[sender] */\n          0xffffffffffffffffffffffffffffffffffffffff\n          and\n          0xffffffffffffffffffffffffffffffffffffffff\n          and\n          dup2\n          mstore\n          0x20\n          add\n          swap1\n          dup2\n          mstore\n          0x20\n          add\n          0x00\n          keccak256\n            /* \"CommitReveal.sol\":2190:2212  commits[sender].commit */\n          0x00\n          add\n          sload\n            /* \"CommitReveal.sol\":2213:2220  commits */\n          0x01\n            /* \"CommitReveal.sol\":2213:2228  commits[sender] */\n          0x00\n            /* \"CommitReveal.sol\":2221:2227  sender */\n          dup6\n            /* \"CommitReveal.sol\":2213:2228  commits[sender] */\n          0xffffffffffffffffffffffffffffffffffffffff\n          and\n          0xffffffffffffffffffffffffffffffffffffffff\n          and\n          dup2\n          mstore\n          0x20\n          add\n          swap1\n          dup2\n          mstore\n          0x20\n          add\n          0x00\n          keccak256\n            /* \"CommitReveal.sol\":2213:2237  commits[sender].revealed */\n          0x01\n          add\n          0x08\n          swap1\n          sload\n          swap1\n          0x0100\n          exp\n          swap1\n          div\n          0xff\n          and\n            /* \"CommitReveal.sol\":2182:2238  return (commits[sender].commit,commits[sender].revealed) */\n          swap2\n          pop\n          swap2\n          pop\n            /* \"CommitReveal.sol\":2104:2244  function getCommit(address sender) public view returns (bytes32, bool) {... */\n          swap2\n          pop\n          swap2\n          jump\t// out\n            /* \"CommitReveal.sol\":758:1910  function reveal(bytes32 revealHash, address sender) public {... */\n        tag_36:\n            /* \"CommitReveal.sol\":926:931  false */\n          0x00\n            /* \"CommitReveal.sol\":900:931  commits[sender].revealed==false */\n          iszero\n          iszero\n            /* \"CommitReveal.sol\":900:907  commits */\n          0x01\n            /* \"CommitReveal.sol\":900:915  commits[sender] */\n          0x00\n            /* \"CommitReveal.sol\":908:914  sender */\n          dup4\n            /* \"CommitReveal.sol\":900:915  commits[sender] */\n          0xffffffffffffffffffffffffffffffffffffffff\n          and\n          0xffffffffffffffffffffffffffffffffffffffff\n          and\n          dup2\n          mstore\n          0x20\n          add\n          swap1\n          dup2\n          mstore\n          0x20\n          add\n          0x00\n          keccak256\n            /* \"CommitReveal.sol\":900:924  commits[sender].revealed */\n          0x01\n          add\n          0x08\n          swap1\n          sload\n          swap1\n          0x0100\n          exp\n          swap1\n          div\n          0xff\n          and\n            /* \"CommitReveal.sol\":900:931  commits[sender].revealed==false */\n          iszero\n          iszero\n          eq\n            /* \"CommitReveal.sol\":892:973  require(commits[sender].revealed==false,\"CommitReveal::reveal: Already revealed\") */\n          tag_48\n          jumpi\n          mload(0x40)\n          0x08c379a000000000000000000000000000000000000000000000000000000000\n          dup2\n          mstore\n          0x04\n          add\n          tag_49\n          swap1\n          tag_50\n          jump\t// in\n        tag_49:\n          mload(0x40)\n          dup1\n          swap2\n          sub\n          swap1\n          revert\n        tag_48:\n            /* \"CommitReveal.sol\":1005:1009  true */\n          0x01\n            /* \"CommitReveal.sol\":980:987  commits */\n          dup1\n            /* \"CommitReveal.sol\":980:995  commits[sender] */\n          0x00\n            /* \"CommitReveal.sol\":988:994  sender */\n          dup4\n            /* \"CommitReveal.sol\":980:995  commits[sender] */\n          0xffffffffffffffffffffffffffffffffffffffff\n          and\n          0xffffffffffffffffffffffffffffffffffffffff\n          and\n          dup2\n          mstore\n          0x20\n          add\n          swap1\n          dup2\n          mstore\n          0x20\n          add\n          0x00\n          keccak256\n            /* \"CommitReveal.sol\":980:1004  commits[sender].revealed */\n          0x01\n          add\n          0x08\n            /* \"CommitReveal.sol\":980:1009  commits[sender].revealed=true */\n          0x0100\n          exp\n          dup2\n          sload\n          dup2\n          0xff\n          mul\n          not\n          and\n          swap1\n          dup4\n          iszero\n          iszero\n          mul\n          or\n          swap1\n          sstore\n          pop\n            /* \"CommitReveal.sol\":1101:1108  commits */\n          0x01\n            /* \"CommitReveal.sol\":1101:1116  commits[sender] */\n          0x00\n            /* \"CommitReveal.sol\":1109:1115  sender */\n          dup3\n            /* \"CommitReveal.sol\":1101:1116  commits[sender] */\n          0xffffffffffffffffffffffffffffffffffffffff\n          and\n          0xffffffffffffffffffffffffffffffffffffffff\n          and\n          dup2\n          mstore\n          0x20\n          add\n          swap1\n          dup2\n          mstore\n          0x20\n          add\n          0x00\n          keccak256\n            /* \"CommitReveal.sol\":1101:1123  commits[sender].commit */\n          0x00\n          add\n          sload\n            /* \"CommitReveal.sol\":1080:1099  getHash(revealHash) */\n          tag_51\n            /* \"CommitReveal.sol\":1088:1098  revealHash */\n          dup4\n            /* \"CommitReveal.sol\":1080:1087  getHash */\n          tag_12\n            /* \"CommitReveal.sol\":1080:1099  getHash(revealHash) */\n          jump\t// in\n        tag_51:\n            /* \"CommitReveal.sol\":1080:1123  getHash(revealHash)==commits[sender].commit */\n          eq\n            /* \"CommitReveal.sol\":1072:1184  require(getHash(revealHash)==commits[sender].commit,\"CommitReveal::reveal: Revealed hash does not match commit\") */\n          tag_52\n          jumpi\n          mload(0x40)\n          0x08c379a000000000000000000000000000000000000000000000000000000000\n          dup2\n          mstore\n          0x04\n          add\n          tag_53\n          swap1\n          tag_54\n          jump\t// in\n        tag_53:\n          mload(0x40)\n          dup1\n          swap2\n          sub\n          swap1\n          revert\n        tag_52:\n            /* \"CommitReveal.sol\":1292:1299  commits */\n          0x01\n            /* \"CommitReveal.sol\":1292:1307  commits[sender] */\n          0x00\n            /* \"CommitReveal.sol\":1300:1306  sender */\n          dup3\n            /* \"CommitReveal.sol\":1292:1307  commits[sender] */\n          0xffffffffffffffffffffffffffffffffffffffff\n          and\n          0xffffffffffffffffffffffffffffffffffffffff\n          and\n          dup2\n          mstore\n          0x20\n          add\n          swap1\n          dup2\n          mstore\n          0x20\n          add\n          0x00\n          keccak256\n            /* \"CommitReveal.sol\":1292:1313  commits[sender].block */\n          0x01\n          add\n          0x00\n          swap1\n          sload\n          swap1\n          0x0100\n          exp\n          swap1\n          div\n          0xffffffffffffffff\n          and\n            /* \"CommitReveal.sol\":1271:1313  uint64(block.number)>commits[sender].block */\n          0xffffffffffffffff\n          and\n            /* \"CommitReveal.sol\":1278:1290  block.number */\n          number\n            /* \"CommitReveal.sol\":1271:1313  uint64(block.number)>commits[sender].block */\n          0xffffffffffffffff\n          and\n          gt\n            /* \"CommitReveal.sol\":1263:1383  require(uint64(block.number)>commits[sender].block,\"CommitReveal::reveal: Reveal and commit happened on the same block\") */\n          tag_55\n          jumpi\n          mload(0x40)\n          0x08c379a000000000000000000000000000000000000000000000000000000000\n          dup2\n          mstore\n          0x04\n          add\n          tag_56\n          swap1\n          tag_57\n          jump\t// in\n        tag_56:\n          mload(0x40)\n          dup1\n          swap2\n          sub\n          swap1\n          revert\n        tag_55:\n            /* \"CommitReveal.sol\":1498:1501  250 */\n          0xfa\n            /* \"CommitReveal.sol\":1476:1483  commits */\n          0x01\n            /* \"CommitReveal.sol\":1476:1491  commits[sender] */\n          0x00\n            /* \"CommitReveal.sol\":1484:1490  sender */\n          dup4\n            /* \"CommitReveal.sol\":1476:1491  commits[sender] */\n          0xffffffffffffffffffffffffffffffffffffffff\n          and\n          0xffffffffffffffffffffffffffffffffffffffff\n          and\n          dup2\n          mstore\n          0x20\n          add\n          swap1\n          dup2\n          mstore\n          0x20\n          add\n          0x00\n          keccak256\n            /* \"CommitReveal.sol\":1476:1497  commits[sender].block */\n          0x01\n          add\n          0x00\n          swap1\n          sload\n          swap1\n          0x0100\n          exp\n          swap1\n          div\n          0xffffffffffffffff\n          and\n            /* \"CommitReveal.sol\":1476:1501  commits[sender].block+250 */\n          tag_58\n          swap2\n          swap1\n          tag_59\n          jump\t// in\n        tag_58:\n            /* \"CommitReveal.sol\":1454:1501  uint64(block.number)<=commits[sender].block+250 */\n          0xffffffffffffffff\n          and\n            /* \"CommitReveal.sol\":1461:1473  block.number */\n          number\n            /* \"CommitReveal.sol\":1454:1501  uint64(block.number)<=commits[sender].block+250 */\n          0xffffffffffffffff\n          and\n          gt\n          iszero\n            /* \"CommitReveal.sol\":1446:1544  require(uint64(block.number)<=commits[sender].block+250,\"CommitReveal::reveal: Revealed too late\") */\n          tag_60\n          jumpi\n          mload(0x40)\n          0x08c379a000000000000000000000000000000000000000000000000000000000\n          dup2\n          mstore\n          0x04\n          add\n          tag_61\n          swap1\n          tag_62\n          jump\t// in\n        tag_61:\n          mload(0x40)\n          dup1\n          swap2\n          sub\n          swap1\n          revert\n        tag_60:\n            /* \"CommitReveal.sol\":1619:1636  bytes32 blockHash */\n          0x00\n            /* \"CommitReveal.sol\":1649:1656  commits */\n          0x01\n            /* \"CommitReveal.sol\":1649:1664  commits[sender] */\n          0x00\n            /* \"CommitReveal.sol\":1657:1663  sender */\n          dup4\n            /* \"CommitReveal.sol\":1649:1664  commits[sender] */\n          0xffffffffffffffffffffffffffffffffffffffff\n          and\n          0xffffffffffffffffffffffffffffffffffffffff\n          and\n          dup2\n          mstore\n          0x20\n          add\n          swap1\n          dup2\n          mstore\n          0x20\n          add\n          0x00\n          keccak256\n            /* \"CommitReveal.sol\":1649:1670  commits[sender].block */\n          0x01\n          add\n          0x00\n          swap1\n          sload\n          swap1\n          0x0100\n          exp\n          swap1\n          div\n          0xffffffffffffffff\n          and\n            /* \"CommitReveal.sol\":1639:1671  blockhash(commits[sender].block) */\n          0xffffffffffffffff\n          and\n          blockhash\n            /* \"CommitReveal.sol\":1619:1671  bytes32 blockHash = blockhash(commits[sender].block) */\n          swap1\n          pop\n            /* \"CommitReveal.sol\":1783:1794  uint random */\n          0x00\n            /* \"CommitReveal.sol\":1853:1856  max */\n          dup1\n          0x00\n          swap1\n          sload\n          swap1\n          0x0100\n          exp\n          swap1\n          div\n          0xff\n          and\n            /* \"CommitReveal.sol\":1797:1856  uint(keccak256(abi.encodePacked(blockHash,revealHash)))%max */\n          0xff\n          and\n            /* \"CommitReveal.sol\":1829:1838  blockHash */\n          dup3\n            /* \"CommitReveal.sol\":1839:1849  revealHash */\n          dup6\n            /* \"CommitReveal.sol\":1812:1850  abi.encodePacked(blockHash,revealHash) */\n          add(0x20, mload(0x40))\n          tag_63\n          swap3\n          swap2\n          swap1\n          tag_64\n          jump\t// in\n        tag_63:\n          mload(0x40)\n          0x20\n          dup2\n          dup4\n          sub\n          sub\n          dup2\n          mstore\n          swap1\n          0x40\n          mstore\n            /* \"CommitReveal.sol\":1802:1851  keccak256(abi.encodePacked(blockHash,revealHash)) */\n          dup1\n          mload\n          swap1\n          0x20\n          add\n          keccak256\n            /* \"CommitReveal.sol\":1797:1852  uint(keccak256(abi.encodePacked(blockHash,revealHash))) */\n          0x00\n          shr\n            /* \"CommitReveal.sol\":1797:1856  uint(keccak256(abi.encodePacked(blockHash,revealHash)))%max */\n          tag_65\n          swap2\n          swap1\n          tag_66\n          jump\t// in\n        tag_65:\n            /* \"CommitReveal.sol\":1783:1856  uint random = uint(keccak256(abi.encodePacked(blockHash,revealHash)))%max */\n          swap1\n          pop\n            /* \"CommitReveal.sol\":1868:1904  RevealHash(sender,revealHash,random) */\n          0xbc016dd1cadeaefcb851af7a0a93532e0023d536894b730801f7bcfe7065bcc2\n            /* \"CommitReveal.sol\":1879:1885  sender */\n          dup4\n            /* \"CommitReveal.sol\":1886:1896  revealHash */\n          dup6\n            /* \"CommitReveal.sol\":1897:1903  random */\n          dup4\n            /* \"CommitReveal.sol\":1868:1904  RevealHash(sender,revealHash,random) */\n          mload(0x40)\n          tag_67\n          swap4\n          swap3\n          swap2\n          swap1\n          tag_68\n          jump\t// in\n        tag_67:\n          mload(0x40)\n          dup1\n          swap2\n          sub\n          swap1\n          log1\n            /* \"CommitReveal.sol\":817:1910  {... */\n          pop\n          pop\n            /* \"CommitReveal.sol\":758:1910  function reveal(bytes32 revealHash, address sender) public {... */\n          pop\n          pop\n          jump\t// out\n            /* \"#utility.yul\":88:205   */\n        tag_70:\n            /* \"#utility.yul\":197:198   */\n          0x00\n            /* \"#utility.yul\":194:195   */\n          dup1\n            /* \"#utility.yul\":187:199   */\n          revert\n            /* \"#utility.yul\":334:411   */\n        tag_72:\n            /* \"#utility.yul\":371:378   */\n          0x00\n            /* \"#utility.yul\":400:405   */\n          dup2\n            /* \"#utility.yul\":389:405   */\n          swap1\n          pop\n            /* \"#utility.yul\":334:411   */\n          swap2\n          swap1\n          pop\n          jump\t// out\n            /* \"#utility.yul\":417:539   */\n        tag_73:\n            /* \"#utility.yul\":490:514   */\n          tag_110\n            /* \"#utility.yul\":508:513   */\n          dup2\n            /* \"#utility.yul\":490:514   */\n          tag_72\n          jump\t// in\n        tag_110:\n            /* \"#utility.yul\":483:488   */\n          dup2\n            /* \"#utility.yul\":480:515   */\n          eq\n            /* \"#utility.yul\":470:533   */\n          tag_111\n          jumpi\n            /* \"#utility.yul\":529:530   */\n          0x00\n            /* \"#utility.yul\":526:527   */\n          dup1\n            /* \"#utility.yul\":519:531   */\n          revert\n            /* \"#utility.yul\":470:533   */\n        tag_111:\n            /* \"#utility.yul\":417:539   */\n          pop\n          jump\t// out\n            /* \"#utility.yul\":545:684   */\n        tag_74:\n            /* \"#utility.yul\":591:596   */\n          0x00\n            /* \"#utility.yul\":629:635   */\n          dup2\n            /* \"#utility.yul\":616:636   */\n          calldataload\n            /* \"#utility.yul\":607:636   */\n          swap1\n          pop\n            /* \"#utility.yul\":645:678   */\n          tag_113\n            /* \"#utility.yul\":672:677   */\n          dup2\n            /* \"#utility.yul\":645:678   */\n          tag_73\n          jump\t// in\n        tag_113:\n            /* \"#utility.yul\":545:684   */\n          swap3\n          swap2\n          pop\n          pop\n          jump\t// out\n            /* \"#utility.yul\":690:1019   */\n        tag_11:\n            /* \"#utility.yul\":749:755   */\n          0x00\n            /* \"#utility.yul\":798:800   */\n          0x20\n            /* \"#utility.yul\":786:795   */\n          dup3\n            /* \"#utility.yul\":777:784   */\n          dup5\n            /* \"#utility.yul\":773:796   */\n          sub\n            /* \"#utility.yul\":769:801   */\n          slt\n            /* \"#utility.yul\":766:885   */\n          iszero\n          tag_115\n          jumpi\n            /* \"#utility.yul\":804:883   */\n          tag_116\n          tag_70\n          jump\t// in\n        tag_116:\n            /* \"#utility.yul\":766:885   */\n        tag_115:\n            /* \"#utility.yul\":924:925   */\n          0x00\n            /* \"#utility.yul\":949:1002   */\n          tag_117\n            /* \"#utility.yul\":994:1001   */\n          dup5\n            /* \"#utility.yul\":985:991   */\n          dup3\n            /* \"#utility.yul\":974:983   */\n          dup6\n            /* \"#utility.yul\":970:992   */\n          add\n            /* \"#utility.yul\":949:1002   */\n          tag_74\n          jump\t// in\n        tag_117:\n            /* \"#utility.yul\":939:1002   */\n          swap2\n          pop\n            /* \"#utility.yul\":895:1012   */\n          pop\n            /* \"#utility.yul\":690:1019   */\n          swap3\n          swap2\n          pop\n          pop\n          jump\t// out\n            /* \"#utility.yul\":1025:1143   */\n        tag_75:\n            /* \"#utility.yul\":1112:1136   */\n          tag_119\n            /* \"#utility.yul\":1130:1135   */\n          dup2\n            /* \"#utility.yul\":1112:1136   */\n          tag_72\n          jump\t// in\n        tag_119:\n            /* \"#utility.yul\":1107:1110   */\n          dup3\n            /* \"#utility.yul\":1100:1137   */\n          mstore\n            /* \"#utility.yul\":1025:1143   */\n          pop\n          pop\n          jump\t// out\n            /* \"#utility.yul\":1149:1371   */\n        tag_14:\n            /* \"#utility.yul\":1242:1246   */\n          0x00\n            /* \"#utility.yul\":1280:1282   */\n          0x20\n            /* \"#utility.yul\":1269:1278   */\n          dup3\n            /* \"#utility.yul\":1265:1283   */\n          add\n            /* \"#utility.yul\":1257:1283   */\n          swap1\n          pop\n            /* \"#utility.yul\":1293:1364   */\n          tag_121\n            /* \"#utility.yul\":1361:1362   */\n          0x00\n            /* \"#utility.yul\":1350:1359   */\n          dup4\n            /* \"#utility.yul\":1346:1363   */\n          add\n            /* \"#utility.yul\":1337:1343   */\n          dup5\n            /* \"#utility.yul\":1293:1364   */\n          tag_75\n          jump\t// in\n        tag_121:\n            /* \"#utility.yul\":1149:1371   */\n          swap3\n          swap2\n          pop\n          pop\n          jump\t// out\n            /* \"#utility.yul\":1377:1503   */\n        tag_76:\n            /* \"#utility.yul\":1414:1421   */\n          0x00\n            /* \"#utility.yul\":1454:1496   */\n          0xffffffffffffffffffffffffffffffffffffffff\n            /* \"#utility.yul\":1447:1452   */\n          dup3\n            /* \"#utility.yul\":1443:1497   */\n          and\n            /* \"#utility.yul\":1432:1497   */\n          swap1\n          pop\n            /* \"#utility.yul\":1377:1503   */\n          swap2\n          swap1\n          pop\n          jump\t// out\n            /* \"#utility.yul\":1509:1605   */\n        tag_77:\n            /* \"#utility.yul\":1546:1553   */\n          0x00\n            /* \"#utility.yul\":1575:1599   */\n          tag_124\n            /* \"#utility.yul\":1593:1598   */\n          dup3\n            /* \"#utility.yul\":1575:1599   */\n          tag_76\n          jump\t// in\n        tag_124:\n            /* \"#utility.yul\":1564:1599   */\n          swap1\n          pop\n            /* \"#utility.yul\":1509:1605   */\n          swap2\n          swap1\n          pop\n          jump\t// out\n            /* \"#utility.yul\":1611:1733   */\n        tag_78:\n            /* \"#utility.yul\":1684:1708   */\n          tag_126\n            /* \"#utility.yul\":1702:1707   */\n          dup2\n            /* \"#utility.yul\":1684:1708   */\n          tag_77\n          jump\t// in\n        tag_126:\n            /* \"#utility.yul\":1677:1682   */\n          dup2\n            /* \"#utility.yul\":1674:1709   */\n          eq\n            /* \"#utility.yul\":1664:1727   */\n          tag_127\n          jumpi\n            /* \"#utility.yul\":1723:1724   */\n          0x00\n            /* \"#utility.yul\":1720:1721   */\n          dup1\n            /* \"#utility.yul\":1713:1725   */\n          revert\n            /* \"#utility.yul\":1664:1727   */\n        tag_127:\n            /* \"#utility.yul\":1611:1733   */\n          pop\n          jump\t// out\n            /* \"#utility.yul\":1739:1878   */\n        tag_79:\n            /* \"#utility.yul\":1785:1790   */\n          0x00\n            /* \"#utility.yul\":1823:1829   */\n          dup2\n            /* \"#utility.yul\":1810:1830   */\n          calldataload\n            /* \"#utility.yul\":1801:1830   */\n          swap1\n          pop\n            /* \"#utility.yul\":1839:1872   */\n          tag_129\n            /* \"#utility.yul\":1866:1871   */\n          dup2\n            /* \"#utility.yul\":1839:1872   */\n          tag_78\n          jump\t// in\n        tag_129:\n            /* \"#utility.yul\":1739:1878   */\n          swap3\n          swap2\n          pop\n          pop\n          jump\t// out\n            /* \"#utility.yul\":1884:2358   */\n        tag_17:\n            /* \"#utility.yul\":1952:1958   */\n          0x00\n            /* \"#utility.yul\":1960:1966   */\n          dup1\n            /* \"#utility.yul\":2009:2011   */\n          0x40\n            /* \"#utility.yul\":1997:2006   */\n          dup4\n            /* \"#utility.yul\":1988:1995   */\n          dup6\n            /* \"#utility.yul\":1984:2007   */\n          sub\n            /* \"#utility.yul\":1980:2012   */\n          slt\n            /* \"#utility.yul\":1977:2096   */\n          iszero\n          tag_131\n          jumpi\n            /* \"#utility.yul\":2015:2094   */\n          tag_132\n          tag_70\n          jump\t// in\n        tag_132:\n            /* \"#utility.yul\":1977:2096   */\n        tag_131:\n            /* \"#utility.yul\":2135:2136   */\n          0x00\n            /* \"#utility.yul\":2160:2213   */\n          tag_133\n            /* \"#utility.yul\":2205:2212   */\n          dup6\n            /* \"#utility.yul\":2196:2202   */\n          dup3\n            /* \"#utility.yul\":2185:2194   */\n          dup7\n            /* \"#utility.yul\":2181:2203   */\n          add\n            /* \"#utility.yul\":2160:2213   */\n          tag_74\n          jump\t// in\n        tag_133:\n            /* \"#utility.yul\":2150:2213   */\n          swap3\n          pop\n            /* \"#utility.yul\":2106:2223   */\n          pop\n            /* \"#utility.yul\":2262:2264   */\n          0x20\n            /* \"#utility.yul\":2288:2341   */\n          tag_134\n            /* \"#utility.yul\":2333:2340   */\n          dup6\n            /* \"#utility.yul\":2324:2330   */\n          dup3\n            /* \"#utility.yul\":2313:2322   */\n          dup7\n            /* \"#utility.yul\":2309:2331   */\n          add\n            /* \"#utility.yul\":2288:2341   */\n          tag_79\n          jump\t// in\n        tag_134:\n            /* \"#utility.yul\":2278:2341   */\n          swap2\n          pop\n            /* \"#utility.yul\":2233:2351   */\n          pop\n            /* \"#utility.yul\":1884:2358   */\n          swap3\n          pop\n          swap3\n          swap1\n          pop\n          jump\t// out\n            /* \"#utility.yul\":2364:2450   */\n        tag_80:\n            /* \"#utility.yul\":2399:2406   */\n          0x00\n            /* \"#utility.yul\":2439:2443   */\n          0xff\n            /* \"#utility.yul\":2432:2437   */\n          dup3\n            /* \"#utility.yul\":2428:2444   */\n          and\n            /* \"#utility.yul\":2417:2444   */\n          swap1\n          pop\n            /* \"#utility.yul\":2364:2450   */\n          swap2\n          swap1\n          pop\n          jump\t// out\n            /* \"#utility.yul\":2456:2568   */\n        tag_81:\n            /* \"#utility.yul\":2539:2561   */\n          tag_137\n            /* \"#utility.yul\":2555:2560   */\n          dup2\n            /* \"#utility.yul\":2539:2561   */\n          tag_80\n          jump\t// in\n        tag_137:\n            /* \"#utility.yul\":2534:2537   */\n          dup3\n            /* \"#utility.yul\":2527:2562   */\n          mstore\n            /* \"#utility.yul\":2456:2568   */\n          pop\n          pop\n          jump\t// out\n            /* \"#utility.yul\":2574:2788   */\n        tag_22:\n            /* \"#utility.yul\":2663:2667   */\n          0x00\n            /* \"#utility.yul\":2701:2703   */\n          0x20\n            /* \"#utility.yul\":2690:2699   */\n          dup3\n            /* \"#utility.yul\":2686:2704   */\n          add\n            /* \"#utility.yul\":2678:2704   */\n          swap1\n          pop\n            /* \"#utility.yul\":2714:2781   */\n          tag_139\n            /* \"#utility.yul\":2778:2779   */\n          0x00\n            /* \"#utility.yul\":2767:2776   */\n          dup4\n            /* \"#utility.yul\":2763:2780   */\n          add\n            /* \"#utility.yul\":2754:2760   */\n          dup5\n            /* \"#utility.yul\":2714:2781   */\n          tag_81\n          jump\t// in\n        tag_139:\n            /* \"#utility.yul\":2574:2788   */\n          swap3\n          swap2\n          pop\n          pop\n          jump\t// out\n            /* \"#utility.yul\":2794:3123   */\n        tag_25:\n            /* \"#utility.yul\":2853:2859   */\n          0x00\n            /* \"#utility.yul\":2902:2904   */\n          0x20\n            /* \"#utility.yul\":2890:2899   */\n          dup3\n            /* \"#utility.yul\":2881:2888   */\n          dup5\n            /* \"#utility.yul\":2877:2900   */\n          sub\n            /* \"#utility.yul\":2873:2905   */\n          slt\n            /* \"#utility.yul\":2870:2989   */\n          iszero\n          tag_141\n          jumpi\n            /* \"#utility.yul\":2908:2987   */\n          tag_142\n          tag_70\n          jump\t// in\n        tag_142:\n            /* \"#utility.yul\":2870:2989   */\n        tag_141:\n            /* \"#utility.yul\":3028:3029   */\n          0x00\n            /* \"#utility.yul\":3053:3106   */\n          tag_143\n            /* \"#utility.yul\":3098:3105   */\n          dup5\n            /* \"#utility.yul\":3089:3095   */\n          dup3\n            /* \"#utility.yul\":3078:3087   */\n          dup6\n            /* \"#utility.yul\":3074:3096   */\n          add\n            /* \"#utility.yul\":3053:3106   */\n          tag_79\n          jump\t// in\n        tag_143:\n            /* \"#utility.yul\":3043:3106   */\n          swap2\n          pop\n            /* \"#utility.yul\":2999:3116   */\n          pop\n            /* \"#utility.yul\":2794:3123   */\n          swap3\n          swap2\n          pop\n          pop\n          jump\t// out\n            /* \"#utility.yul\":3129:3230   */\n        tag_82:\n            /* \"#utility.yul\":3165:3172   */\n          0x00\n            /* \"#utility.yul\":3205:3223   */\n          0xffffffffffffffff\n            /* \"#utility.yul\":3198:3203   */\n          dup3\n            /* \"#utility.yul\":3194:3224   */\n          and\n            /* \"#utility.yul\":3183:3224   */\n          swap1\n          pop\n            /* \"#utility.yul\":3129:3230   */\n          swap2\n          swap1\n          pop\n          jump\t// out\n            /* \"#utility.yul\":3236:3351   */\n        tag_83:\n            /* \"#utility.yul\":3321:3344   */\n          tag_146\n            /* \"#utility.yul\":3338:3343   */\n          dup2\n            /* \"#utility.yul\":3321:3344   */\n          tag_82\n          jump\t// in\n        tag_146:\n            /* \"#utility.yul\":3316:3319   */\n          dup3\n            /* \"#utility.yul\":3309:3345   */\n          mstore\n            /* \"#utility.yul\":3236:3351   */\n          pop\n          pop\n          jump\t// out\n            /* \"#utility.yul\":3357:3447   */\n        tag_84:\n            /* \"#utility.yul\":3391:3398   */\n          0x00\n            /* \"#utility.yul\":3434:3439   */\n          dup2\n            /* \"#utility.yul\":3427:3440   */\n          iszero\n            /* \"#utility.yul\":3420:3441   */\n          iszero\n            /* \"#utility.yul\":3409:3441   */\n          swap1\n          pop\n            /* \"#utility.yul\":3357:3447   */\n          swap2\n          swap1\n          pop\n          jump\t// out\n            /* \"#utility.yul\":3453:3562   */\n        tag_85:\n            /* \"#utility.yul\":3534:3555   */\n          tag_149\n            /* \"#utility.yul\":3549:3554   */\n          dup2\n            /* \"#utility.yul\":3534:3555   */\n          tag_84\n          jump\t// in\n        tag_149:\n            /* \"#utility.yul\":3529:3532   */\n          dup3\n            /* \"#utility.yul\":3522:3556   */\n          mstore\n            /* \"#utility.yul\":3453:3562   */\n          pop\n          pop\n          jump\t// out\n            /* \"#utility.yul\":3568:4093   */\n        tag_28:\n            /* \"#utility.yul\":3731:3735   */\n          0x00\n            /* \"#utility.yul\":3769:3772   */\n          0x80\n            /* \"#utility.yul\":3758:3767   */\n          dup3\n            /* \"#utility.yul\":3754:3773   */\n          add\n            /* \"#utility.yul\":3746:3773   */\n          swap1\n          pop\n            /* \"#utility.yul\":3783:3854   */\n          tag_151\n            /* \"#utility.yul\":3851:3852   */\n          0x00\n            /* \"#utility.yul\":3840:3849   */\n          dup4\n            /* \"#utility.yul\":3836:3853   */\n          add\n            /* \"#utility.yul\":3827:3833   */\n          dup8\n            /* \"#utility.yul\":3783:3854   */\n          tag_75\n          jump\t// in\n        tag_151:\n            /* \"#utility.yul\":3864:3934   */\n          tag_152\n            /* \"#utility.yul\":3930:3932   */\n          0x20\n            /* \"#utility.yul\":3919:3928   */\n          dup4\n            /* \"#utility.yul\":3915:3933   */\n          add\n            /* \"#utility.yul\":3906:3912   */\n          dup7\n            /* \"#utility.yul\":3864:3934   */\n          tag_83\n          jump\t// in\n        tag_152:\n            /* \"#utility.yul\":3944:4010   */\n          tag_153\n            /* \"#utility.yul\":4006:4008   */\n          0x40\n            /* \"#utility.yul\":3995:4004   */\n          dup4\n            /* \"#utility.yul\":3991:4009   */\n          add\n            /* \"#utility.yul\":3982:3988   */\n          dup6\n            /* \"#utility.yul\":3944:4010   */\n          tag_85\n          jump\t// in\n        tag_153:\n            /* \"#utility.yul\":4020:4086   */\n          tag_154\n            /* \"#utility.yul\":4082:4084   */\n          0x60\n            /* \"#utility.yul\":4071:4080   */\n          dup4\n            /* \"#utility.yul\":4067:4085   */\n          add\n            /* \"#utility.yul\":4058:4064   */\n          dup5\n            /* \"#utility.yul\":4020:4086   */\n          tag_85\n          jump\t// in\n        tag_154:\n            /* \"#utility.yul\":3568:4093   */\n          swap6\n          swap5\n          pop\n          pop\n          pop\n          pop\n          pop\n          jump\t// out\n            /* \"#utility.yul\":4099:4419   */\n        tag_33:\n            /* \"#utility.yul\":4214:4218   */\n          0x00\n            /* \"#utility.yul\":4252:4254   */\n          0x40\n            /* \"#utility.yul\":4241:4250   */\n          dup3\n            /* \"#utility.yul\":4237:4255   */\n          add\n            /* \"#utility.yul\":4229:4255   */\n          swap1\n          pop\n            /* \"#utility.yul\":4265:4336   */\n          tag_156\n            /* \"#utility.yul\":4333:4334   */\n          0x00\n            /* \"#utility.yul\":4322:4331   */\n          dup4\n            /* \"#utility.yul\":4318:4335   */\n          add\n            /* \"#utility.yul\":4309:4315   */\n          dup6\n            /* \"#utility.yul\":4265:4336   */\n          tag_75\n          jump\t// in\n        tag_156:\n            /* \"#utility.yul\":4346:4412   */\n          tag_157\n            /* \"#utility.yul\":4408:4410   */\n          0x20\n            /* \"#utility.yul\":4397:4406   */\n          dup4\n            /* \"#utility.yul\":4393:4411   */\n          add\n            /* \"#utility.yul\":4384:4390   */\n          dup5\n            /* \"#utility.yul\":4346:4412   */\n          tag_85\n          jump\t// in\n        tag_157:\n            /* \"#utility.yul\":4099:4419   */\n          swap4\n          swap3\n          pop\n          pop\n          pop\n          jump\t// out\n            /* \"#utility.yul\":4425:4504   */\n        tag_86:\n            /* \"#utility.yul\":4464:4471   */\n          0x00\n            /* \"#utility.yul\":4493:4498   */\n          dup2\n            /* \"#utility.yul\":4482:4498   */\n          swap1\n          pop\n            /* \"#utility.yul\":4425:4504   */\n          swap2\n          swap1\n          pop\n          jump\t// out\n            /* \"#utility.yul\":4510:4667   */\n        tag_87:\n            /* \"#utility.yul\":4615:4660   */\n          tag_160\n            /* \"#utility.yul\":4635:4659   */\n          tag_161\n            /* \"#utility.yul\":4653:4658   */\n          dup3\n            /* \"#utility.yul\":4635:4659   */\n          tag_72\n          jump\t// in\n        tag_161:\n            /* \"#utility.yul\":4615:4660   */\n          tag_86\n          jump\t// in\n        tag_160:\n            /* \"#utility.yul\":4610:4613   */\n          dup3\n            /* \"#utility.yul\":4603:4661   */\n          mstore\n            /* \"#utility.yul\":4510:4667   */\n          pop\n          pop\n          jump\t// out\n            /* \"#utility.yul\":4673:4929   */\n        tag_39:\n            /* \"#utility.yul\":4785:4788   */\n          0x00\n            /* \"#utility.yul\":4800:4875   */\n          tag_163\n            /* \"#utility.yul\":4871:4874   */\n          dup3\n            /* \"#utility.yul\":4862:4868   */\n          dup5\n            /* \"#utility.yul\":4800:4875   */\n          tag_87\n          jump\t// in\n        tag_163:\n            /* \"#utility.yul\":4900:4902   */\n          0x20\n            /* \"#utility.yul\":4895:4898   */\n          dup3\n            /* \"#utility.yul\":4891:4903   */\n          add\n            /* \"#utility.yul\":4884:4903   */\n          swap2\n          pop\n            /* \"#utility.yul\":4920:4923   */\n          dup2\n            /* \"#utility.yul\":4913:4923   */\n          swap1\n          pop\n            /* \"#utility.yul\":4673:4929   */\n          swap3\n          swap2\n          pop\n          pop\n          jump\t// out\n            /* \"#utility.yul\":4935:5104   */\n        tag_88:\n            /* \"#utility.yul\":5019:5030   */\n          0x00\n            /* \"#utility.yul\":5053:5059   */\n          dup3\n            /* \"#utility.yul\":5048:5051   */\n          dup3\n            /* \"#utility.yul\":5041:5060   */\n          mstore\n            /* \"#utility.yul\":5093:5097   */\n          0x20\n            /* \"#utility.yul\":5088:5091   */\n          dup3\n            /* \"#utility.yul\":5084:5098   */\n          add\n            /* \"#utility.yul\":5069:5098   */\n          swap1\n          pop\n            /* \"#utility.yul\":4935:5104   */\n          swap3\n          swap2\n          pop\n          pop\n          jump\t// out\n            /* \"#utility.yul\":5110:5335   */\n        tag_89:\n            /* \"#utility.yul\":5250:5284   */\n          0x436f6d6d697452657665616c3a3a636f6d6d69743a20416c726561647920636f\n            /* \"#utility.yul\":5246:5247   */\n          0x00\n            /* \"#utility.yul\":5238:5244   */\n          dup3\n            /* \"#utility.yul\":5234:5248   */\n          add\n            /* \"#utility.yul\":5227:5285   */\n          mstore\n            /* \"#utility.yul\":5319:5327   */\n          0x6d6d697465640000000000000000000000000000000000000000000000000000\n            /* \"#utility.yul\":5314:5316   */\n          0x20\n            /* \"#utility.yul\":5306:5312   */\n          dup3\n            /* \"#utility.yul\":5302:5317   */\n          add\n            /* \"#utility.yul\":5295:5328   */\n          mstore\n            /* \"#utility.yul\":5110:5335   */\n          pop\n          jump\t// out\n            /* \"#utility.yul\":5341:5707   */\n        tag_90:\n            /* \"#utility.yul\":5483:5486   */\n          0x00\n            /* \"#utility.yul\":5504:5571   */\n          tag_167\n            /* \"#utility.yul\":5568:5570   */\n          0x26\n            /* \"#utility.yul\":5563:5566   */\n          dup4\n            /* \"#utility.yul\":5504:5571   */\n          tag_88\n          jump\t// in\n        tag_167:\n            /* \"#utility.yul\":5497:5571   */\n          swap2\n          pop\n            /* \"#utility.yul\":5580:5673   */\n          tag_168\n            /* \"#utility.yul\":5669:5672   */\n          dup3\n            /* \"#utility.yul\":5580:5673   */\n          tag_89\n          jump\t// in\n        tag_168:\n            /* \"#utility.yul\":5698:5700   */\n          0x40\n            /* \"#utility.yul\":5693:5696   */\n          dup3\n            /* \"#utility.yul\":5689:5701   */\n          add\n            /* \"#utility.yul\":5682:5701   */\n          swap1\n          pop\n            /* \"#utility.yul\":5341:5707   */\n          swap2\n          swap1\n          pop\n          jump\t// out\n            /* \"#utility.yul\":5713:6132   */\n        tag_43:\n            /* \"#utility.yul\":5879:5883   */\n          0x00\n            /* \"#utility.yul\":5917:5919   */\n          0x20\n            /* \"#utility.yul\":5906:5915   */\n          dup3\n            /* \"#utility.yul\":5902:5920   */\n          add\n            /* \"#utility.yul\":5894:5920   */\n          swap1\n          pop\n            /* \"#utility.yul\":5966:5975   */\n          dup2\n            /* \"#utility.yul\":5960:5964   */\n          dup2\n            /* \"#utility.yul\":5956:5976   */\n          sub\n            /* \"#utility.yul\":5952:5953   */\n          0x00\n            /* \"#utility.yul\":5941:5950   */\n          dup4\n            /* \"#utility.yul\":5937:5954   */\n          add\n            /* \"#utility.yul\":5930:5977   */\n          mstore\n            /* \"#utility.yul\":5994:6125   */\n          tag_170\n            /* \"#utility.yul\":6120:6124   */\n          dup2\n            /* \"#utility.yul\":5994:6125   */\n          tag_90\n          jump\t// in\n        tag_170:\n            /* \"#utility.yul\":5986:6125   */\n          swap1\n          pop\n            /* \"#utility.yul\":5713:6132   */\n          swap2\n          swap1\n          pop\n          jump\t// out\n            /* \"#utility.yul\":6138:6256   */\n        tag_91:\n            /* \"#utility.yul\":6225:6249   */\n          tag_172\n            /* \"#utility.yul\":6243:6248   */\n          dup2\n            /* \"#utility.yul\":6225:6249   */\n          tag_77\n          jump\t// in\n        tag_172:\n            /* \"#utility.yul\":6220:6223   */\n          dup3\n            /* \"#utility.yul\":6213:6250   */\n          mstore\n            /* \"#utility.yul\":6138:6256   */\n          pop\n          pop\n          jump\t// out\n            /* \"#utility.yul\":6262:6700   */\n        tag_45:\n            /* \"#utility.yul\":6409:6413   */\n          0x00\n            /* \"#utility.yul\":6447:6449   */\n          0x60\n            /* \"#utility.yul\":6436:6445   */\n          dup3\n            /* \"#utility.yul\":6432:6450   */\n          add\n            /* \"#utility.yul\":6424:6450   */\n          swap1\n          pop\n            /* \"#utility.yul\":6460:6531   */\n          tag_174\n            /* \"#utility.yul\":6528:6529   */\n          0x00\n            /* \"#utility.yul\":6517:6526   */\n          dup4\n            /* \"#utility.yul\":6513:6530   */\n          add\n            /* \"#utility.yul\":6504:6510   */\n          dup7\n            /* \"#utility.yul\":6460:6531   */\n          tag_91\n          jump\t// in\n        tag_174:\n            /* \"#utility.yul\":6541:6613   */\n          tag_175\n            /* \"#utility.yul\":6609:6611   */\n          0x20\n            /* \"#utility.yul\":6598:6607   */\n          dup4\n            /* \"#utility.yul\":6594:6612   */\n          add\n            /* \"#utility.yul\":6585:6591   */\n          dup6\n            /* \"#utility.yul\":6541:6613   */\n          tag_75\n          jump\t// in\n        tag_175:\n            /* \"#utility.yul\":6623:6693   */\n          tag_176\n            /* \"#utility.yul\":6689:6691   */\n          0x40\n            /* \"#utility.yul\":6678:6687   */\n          dup4\n            /* \"#utility.yul\":6674:6692   */\n          add\n            /* \"#utility.yul\":6665:6671   */\n          dup5\n            /* \"#utility.yul\":6623:6693   */\n          tag_83\n          jump\t// in\n        tag_176:\n            /* \"#utility.yul\":6262:6700   */\n          swap5\n          swap4\n          pop\n          pop\n          pop\n          pop\n          jump\t// out\n            /* \"#utility.yul\":6706:6931   */\n        tag_92:\n            /* \"#utility.yul\":6846:6880   */\n          0x436f6d6d697452657665616c3a3a72657665616c3a20416c7265616479207265\n            /* \"#utility.yul\":6842:6843   */\n          0x00\n            /* \"#utility.yul\":6834:6840   */\n          dup3\n            /* \"#utility.yul\":6830:6844   */\n          add\n            /* \"#utility.yul\":6823:6881   */\n          mstore\n            /* \"#utility.yul\":6915:6923   */\n          0x7665616c65640000000000000000000000000000000000000000000000000000\n            /* \"#utility.yul\":6910:6912   */\n          0x20\n            /* \"#utility.yul\":6902:6908   */\n          dup3\n            /* \"#utility.yul\":6898:6913   */\n          add\n            /* \"#utility.yul\":6891:6924   */\n          mstore\n            /* \"#utility.yul\":6706:6931   */\n          pop\n          jump\t// out\n            /* \"#utility.yul\":6937:7303   */\n        tag_93:\n            /* \"#utility.yul\":7079:7082   */\n          0x00\n            /* \"#utility.yul\":7100:7167   */\n          tag_179\n            /* \"#utility.yul\":7164:7166   */\n          0x26\n            /* \"#utility.yul\":7159:7162   */\n          dup4\n            /* \"#utility.yul\":7100:7167   */\n          tag_88\n          jump\t// in\n        tag_179:\n            /* \"#utility.yul\":7093:7167   */\n          swap2\n          pop\n            /* \"#utility.yul\":7176:7269   */\n          tag_180\n            /* \"#utility.yul\":7265:7268   */\n          dup3\n            /* \"#utility.yul\":7176:7269   */\n          tag_92\n          jump\t// in\n        tag_180:\n            /* \"#utility.yul\":7294:7296   */\n          0x40\n            /* \"#utility.yul\":7289:7292   */\n          dup3\n            /* \"#utility.yul\":7285:7297   */\n          add\n            /* \"#utility.yul\":7278:7297   */\n          swap1\n          pop\n            /* \"#utility.yul\":6937:7303   */\n          swap2\n          swap1\n          pop\n          jump\t// out\n            /* \"#utility.yul\":7309:7728   */\n        tag_50:\n            /* \"#utility.yul\":7475:7479   */\n          0x00\n            /* \"#utility.yul\":7513:7515   */\n          0x20\n            /* \"#utility.yul\":7502:7511   */\n          dup3\n            /* \"#utility.yul\":7498:7516   */\n          add\n            /* \"#utility.yul\":7490:7516   */\n          swap1\n          pop\n            /* \"#utility.yul\":7562:7571   */\n          dup2\n            /* \"#utility.yul\":7556:7560   */\n          dup2\n            /* \"#utility.yul\":7552:7572   */\n          sub\n            /* \"#utility.yul\":7548:7549   */\n          0x00\n            /* \"#utility.yul\":7537:7546   */\n          dup4\n            /* \"#utility.yul\":7533:7550   */\n          add\n            /* \"#utility.yul\":7526:7573   */\n          mstore\n            /* \"#utility.yul\":7590:7721   */\n          tag_182\n            /* \"#utility.yul\":7716:7720   */\n          dup2\n            /* \"#utility.yul\":7590:7721   */\n          tag_93\n          jump\t// in\n        tag_182:\n            /* \"#utility.yul\":7582:7721   */\n          swap1\n          pop\n            /* \"#utility.yul\":7309:7728   */\n          swap2\n          swap1\n          pop\n          jump\t// out\n            /* \"#utility.yul\":7734:7978   */\n        tag_94:\n            /* \"#utility.yul\":7874:7908   */\n          0x436f6d6d697452657665616c3a3a72657665616c3a2052657665616c65642068\n            /* \"#utility.yul\":7870:7871   */\n          0x00\n            /* \"#utility.yul\":7862:7868   */\n          dup3\n            /* \"#utility.yul\":7858:7872   */\n          add\n            /* \"#utility.yul\":7851:7909   */\n          mstore\n            /* \"#utility.yul\":7943:7970   */\n          0x61736820646f6573206e6f74206d6174636820636f6d6d697400000000000000\n            /* \"#utility.yul\":7938:7940   */\n          0x20\n            /* \"#utility.yul\":7930:7936   */\n          dup3\n            /* \"#utility.yul\":7926:7941   */\n          add\n            /* \"#utility.yul\":7919:7971   */\n          mstore\n            /* \"#utility.yul\":7734:7978   */\n          pop\n          jump\t// out\n            /* \"#utility.yul\":7984:8350   */\n        tag_95:\n            /* \"#utility.yul\":8126:8129   */\n          0x00\n            /* \"#utility.yul\":8147:8214   */\n          tag_185\n            /* \"#utility.yul\":8211:8213   */\n          0x39\n            /* \"#utility.yul\":8206:8209   */\n          dup4\n            /* \"#utility.yul\":8147:8214   */\n          tag_88\n          jump\t// in\n        tag_185:\n            /* \"#utility.yul\":8140:8214   */\n          swap2\n          pop\n            /* \"#utility.yul\":8223:8316   */\n          tag_186\n            /* \"#utility.yul\":8312:8315   */\n          dup3\n            /* \"#utility.yul\":8223:8316   */\n          tag_94\n          jump\t// in\n        tag_186:\n            /* \"#utility.yul\":8341:8343   */\n          0x40\n            /* \"#utility.yul\":8336:8339   */\n          dup3\n            /* \"#utility.yul\":8332:8344   */\n          add\n            /* \"#utility.yul\":8325:8344   */\n          swap1\n          pop\n            /* \"#utility.yul\":7984:8350   */\n          swap2\n          swap1\n          pop\n          jump\t// out\n            /* \"#utility.yul\":8356:8775   */\n        tag_54:\n            /* \"#utility.yul\":8522:8526   */\n          0x00\n            /* \"#utility.yul\":8560:8562   */\n          0x20\n            /* \"#utility.yul\":8549:8558   */\n          dup3\n            /* \"#utility.yul\":8545:8563   */\n          add\n            /* \"#utility.yul\":8537:8563   */\n          swap1\n          pop\n            /* \"#utility.yul\":8609:8618   */\n          dup2\n            /* \"#utility.yul\":8603:8607   */\n          dup2\n            /* \"#utility.yul\":8599:8619   */\n          sub\n            /* \"#utility.yul\":8595:8596   */\n          0x00\n            /* \"#utility.yul\":8584:8593   */\n          dup4\n            /* \"#utility.yul\":8580:8597   */\n          add\n            /* \"#utility.yul\":8573:8620   */\n          mstore\n            /* \"#utility.yul\":8637:8768   */\n          tag_188\n            /* \"#utility.yul\":8763:8767   */\n          dup2\n            /* \"#utility.yul\":8637:8768   */\n          tag_95\n          jump\t// in\n        tag_188:\n            /* \"#utility.yul\":8629:8768   */\n          swap1\n          pop\n            /* \"#utility.yul\":8356:8775   */\n          swap2\n          swap1\n          pop\n          jump\t// out\n            /* \"#utility.yul\":8781:9071   */\n        tag_96:\n            /* \"#utility.yul\":8921:8955   */\n          0x436f6d6d697452657665616c3a3a72657665616c3a2052657665616c20616e64\n            /* \"#utility.yul\":8917:8918   */\n          0x00\n            /* \"#utility.yul\":8909:8915   */\n          dup3\n            /* \"#utility.yul\":8905:8919   */\n          add\n            /* \"#utility.yul\":8898:8956   */\n          mstore\n            /* \"#utility.yul\":8990:9024   */\n          0x20636f6d6d69742068617070656e6564206f6e207468652073616d6520626c6f\n            /* \"#utility.yul\":8985:8987   */\n          0x20\n            /* \"#utility.yul\":8977:8983   */\n          dup3\n            /* \"#utility.yul\":8973:8988   */\n          add\n            /* \"#utility.yul\":8966:9025   */\n          mstore\n            /* \"#utility.yul\":9059:9063   */\n          0x636b000000000000000000000000000000000000000000000000000000000000\n            /* \"#utility.yul\":9054:9056   */\n          0x40\n            /* \"#utility.yul\":9046:9052   */\n          dup3\n            /* \"#utility.yul\":9042:9057   */\n          add\n            /* \"#utility.yul\":9035:9064   */\n          mstore\n            /* \"#utility.yul\":8781:9071   */\n          pop\n          jump\t// out\n            /* \"#utility.yul\":9077:9443   */\n        tag_97:\n            /* \"#utility.yul\":9219:9222   */\n          0x00\n            /* \"#utility.yul\":9240:9307   */\n          tag_191\n            /* \"#utility.yul\":9304:9306   */\n          0x42\n            /* \"#utility.yul\":9299:9302   */\n          dup4\n            /* \"#utility.yul\":9240:9307   */\n          tag_88\n          jump\t// in\n        tag_191:\n            /* \"#utility.yul\":9233:9307   */\n          swap2\n          pop\n            /* \"#utility.yul\":9316:9409   */\n          tag_192\n            /* \"#utility.yul\":9405:9408   */\n          dup3\n            /* \"#utility.yul\":9316:9409   */\n          tag_96\n          jump\t// in\n        tag_192:\n            /* \"#utility.yul\":9434:9436   */\n          0x60\n            /* \"#utility.yul\":9429:9432   */\n          dup3\n            /* \"#utility.yul\":9425:9437   */\n          add\n            /* \"#utility.yul\":9418:9437   */\n          swap1\n          pop\n            /* \"#utility.yul\":9077:9443   */\n          swap2\n          swap1\n          pop\n          jump\t// out\n            /* \"#utility.yul\":9449:9868   */\n        tag_57:\n            /* \"#utility.yul\":9615:9619   */\n          0x00\n            /* \"#utility.yul\":9653:9655   */\n          0x20\n            /* \"#utility.yul\":9642:9651   */\n          dup3\n            /* \"#utility.yul\":9638:9656   */\n          add\n            /* \"#utility.yul\":9630:9656   */\n          swap1\n          pop\n            /* \"#utility.yul\":9702:9711   */\n          dup2\n            /* \"#utility.yul\":9696:9700   */\n          dup2\n            /* \"#utility.yul\":9692:9712   */\n          sub\n            /* \"#utility.yul\":9688:9689   */\n          0x00\n            /* \"#utility.yul\":9677:9686   */\n          dup4\n            /* \"#utility.yul\":9673:9690   */\n          add\n            /* \"#utility.yul\":9666:9713   */\n          mstore\n            /* \"#utility.yul\":9730:9861   */\n          tag_194\n            /* \"#utility.yul\":9856:9860   */\n          dup2\n            /* \"#utility.yul\":9730:9861   */\n          tag_97\n          jump\t// in\n        tag_194:\n            /* \"#utility.yul\":9722:9861   */\n          swap1\n          pop\n            /* \"#utility.yul\":9449:9868   */\n          swap2\n          swap1\n          pop\n          jump\t// out\n            /* \"#utility.yul\":9874:10054   */\n        tag_98:\n            /* \"#utility.yul\":9922:9999   */\n          0x4e487b7100000000000000000000000000000000000000000000000000000000\n            /* \"#utility.yul\":9919:9920   */\n          0x00\n            /* \"#utility.yul\":9912:10000   */\n          mstore\n            /* \"#utility.yul\":10019:10023   */\n          0x11\n            /* \"#utility.yul\":10016:10017   */\n          0x04\n            /* \"#utility.yul\":10009:10024   */\n          mstore\n            /* \"#utility.yul\":10043:10047   */\n          0x24\n            /* \"#utility.yul\":10040:10041   */\n          0x00\n            /* \"#utility.yul\":10033:10048   */\n          revert\n            /* \"#utility.yul\":10060:10265   */\n        tag_59:\n            /* \"#utility.yul\":10099:10102   */\n          0x00\n            /* \"#utility.yul\":10118:10137   */\n          tag_197\n            /* \"#utility.yul\":10135:10136   */\n          dup3\n            /* \"#utility.yul\":10118:10137   */\n          tag_82\n          jump\t// in\n        tag_197:\n            /* \"#utility.yul\":10113:10137   */\n          swap2\n          pop\n            /* \"#utility.yul\":10151:10170   */\n          tag_198\n            /* \"#utility.yul\":10168:10169   */\n          dup4\n            /* \"#utility.yul\":10151:10170   */\n          tag_82\n          jump\t// in\n        tag_198:\n            /* \"#utility.yul\":10146:10170   */\n          swap3\n          pop\n            /* \"#utility.yul\":10193:10194   */\n          dup3\n            /* \"#utility.yul\":10190:10191   */\n          dup3\n            /* \"#utility.yul\":10186:10195   */\n          add\n            /* \"#utility.yul\":10179:10195   */\n          swap1\n          pop\n            /* \"#utility.yul\":10216:10234   */\n          0xffffffffffffffff\n            /* \"#utility.yul\":10211:10214   */\n          dup2\n            /* \"#utility.yul\":10208:10235   */\n          gt\n            /* \"#utility.yul\":10205:10258   */\n          iszero\n          tag_199\n          jumpi\n            /* \"#utility.yul\":10238:10256   */\n          tag_200\n          tag_98\n          jump\t// in\n        tag_200:\n            /* \"#utility.yul\":10205:10258   */\n        tag_199:\n            /* \"#utility.yul\":10060:10265   */\n          swap3\n          swap2\n          pop\n          pop\n          jump\t// out\n            /* \"#utility.yul\":10271:10497   */\n        tag_99:\n            /* \"#utility.yul\":10411:10445   */\n          0x436f6d6d697452657665616c3a3a72657665616c3a2052657665616c65642074\n            /* \"#utility.yul\":10407:10408   */\n          0x00\n            /* \"#utility.yul\":10399:10405   */\n          dup3\n            /* \"#utility.yul\":10395:10409   */\n          add\n            /* \"#utility.yul\":10388:10446   */\n          mstore\n            /* \"#utility.yul\":10480:10489   */\n          0x6f6f206c61746500000000000000000000000000000000000000000000000000\n            /* \"#utility.yul\":10475:10477   */\n          0x20\n            /* \"#utility.yul\":10467:10473   */\n          dup3\n            /* \"#utility.yul\":10463:10478   */\n          add\n            /* \"#utility.yul\":10456:10490   */\n          mstore\n            /* \"#utility.yul\":10271:10497   */\n          pop\n          jump\t// out\n            /* \"#utility.yul\":10503:10869   */\n        tag_100:\n            /* \"#utility.yul\":10645:10648   */\n          0x00\n            /* \"#utility.yul\":10666:10733   */\n          tag_203\n            /* \"#utility.yul\":10730:10732   */\n          0x27\n            /* \"#utility.yul\":10725:10728   */\n          dup4\n            /* \"#utility.yul\":10666:10733   */\n          tag_88\n          jump\t// in\n        tag_203:\n            /* \"#utility.yul\":10659:10733   */\n          swap2\n          pop\n            /* \"#utility.yul\":10742:10835   */\n          tag_204\n            /* \"#utility.yul\":10831:10834   */\n          dup3\n            /* \"#utility.yul\":10742:10835   */\n          tag_99\n          jump\t// in\n        tag_204:\n            /* \"#utility.yul\":10860:10862   */\n          0x40\n            /* \"#utility.yul\":10855:10858   */\n          dup3\n            /* \"#utility.yul\":10851:10863   */\n          add\n            /* \"#utility.yul\":10844:10863   */\n          swap1\n          pop\n            /* \"#utility.yul\":10503:10869   */\n          swap2\n          swap1\n          pop\n          jump\t// out\n            /* \"#utility.yul\":10875:11294   */\n        tag_62:\n            /* \"#utility.yul\":11041:11045   */\n          0x00\n            /* \"#utility.yul\":11079:11081   */\n          0x20\n            /* \"#utility.yul\":11068:11077   */\n          dup3\n            /* \"#utility.yul\":11064:11082   */\n          add\n            /* \"#utility.yul\":11056:11082   */\n          swap1\n          pop\n            /* \"#utility.yul\":11128:11137   */\n          dup2\n            /* \"#utility.yul\":11122:11126   */\n          dup2\n            /* \"#utility.yul\":11118:11138   */\n          sub\n            /* \"#utility.yul\":11114:11115   */\n          0x00\n            /* \"#utility.yul\":11103:11112   */\n          dup4\n            /* \"#utility.yul\":11099:11116   */\n          add\n            /* \"#utility.yul\":11092:11139   */\n          mstore\n            /* \"#utility.yul\":11156:11287   */\n          tag_206\n            /* \"#utility.yul\":11282:11286   */\n          dup2\n            /* \"#utility.yul\":11156:11287   */\n          tag_100\n          jump\t// in\n        tag_206:\n            /* \"#utility.yul\":11148:11287   */\n          swap1\n          pop\n            /* \"#utility.yul\":10875:11294   */\n          swap2\n          swap1\n          pop\n          jump\t// out\n            /* \"#utility.yul\":11300:11697   */\n        tag_64:\n            /* \"#utility.yul\":11440:11443   */\n          0x00\n            /* \"#utility.yul\":11455:11530   */\n          tag_208\n            /* \"#utility.yul\":11526:11529   */\n          dup3\n            /* \"#utility.yul\":11517:11523   */\n          dup6\n            /* \"#utility.yul\":11455:11530   */\n          tag_87\n          jump\t// in\n        tag_208:\n            /* \"#utility.yul\":11555:11557   */\n          0x20\n            /* \"#utility.yul\":11550:11553   */\n          dup3\n            /* \"#utility.yul\":11546:11558   */\n          add\n            /* \"#utility.yul\":11539:11558   */\n          swap2\n          pop\n            /* \"#utility.yul\":11568:11643   */\n          tag_209\n            /* \"#utility.yul\":11639:11642   */\n          dup3\n            /* \"#utility.yul\":11630:11636   */\n          dup5\n            /* \"#utility.yul\":11568:11643   */\n          tag_87\n          jump\t// in\n        tag_209:\n            /* \"#utility.yul\":11668:11670   */\n          0x20\n            /* \"#utility.yul\":11663:11666   */\n          dup3\n            /* \"#utility.yul\":11659:11671   */\n          add\n            /* \"#utility.yul\":11652:11671   */\n          swap2\n          pop\n            /* \"#utility.yul\":11688:11691   */\n          dup2\n            /* \"#utility.yul\":11681:11691   */\n          swap1\n          pop\n            /* \"#utility.yul\":11300:11697   */\n          swap4\n          swap3\n          pop\n          pop\n          pop\n          jump\t// out\n            /* \"#utility.yul\":11703:11780   */\n        tag_101:\n            /* \"#utility.yul\":11740:11747   */\n          0x00\n            /* \"#utility.yul\":11769:11774   */\n          dup2\n            /* \"#utility.yul\":11758:11774   */\n          swap1\n          pop\n            /* \"#utility.yul\":11703:11780   */\n          swap2\n          swap1\n          pop\n          jump\t// out\n            /* \"#utility.yul\":11786:11966   */\n        tag_102:\n            /* \"#utility.yul\":11834:11911   */\n          0x4e487b7100000000000000000000000000000000000000000000000000000000\n            /* \"#utility.yul\":11831:11832   */\n          0x00\n            /* \"#utility.yul\":11824:11912   */\n          mstore\n            /* \"#utility.yul\":11931:11935   */\n          0x12\n            /* \"#utility.yul\":11928:11929   */\n          0x04\n            /* \"#utility.yul\":11921:11936   */\n          mstore\n            /* \"#utility.yul\":11955:11959   */\n          0x24\n            /* \"#utility.yul\":11952:11953   */\n          0x00\n            /* \"#utility.yul\":11945:11960   */\n          revert\n            /* \"#utility.yul\":11972:12148   */\n        tag_66:\n            /* \"#utility.yul\":12004:12005   */\n          0x00\n            /* \"#utility.yul\":12021:12041   */\n          tag_213\n            /* \"#utility.yul\":12039:12040   */\n          dup3\n            /* \"#utility.yul\":12021:12041   */\n          tag_101\n          jump\t// in\n        tag_213:\n            /* \"#utility.yul\":12016:12041   */\n          swap2\n          pop\n            /* \"#utility.yul\":12055:12075   */\n          tag_214\n            /* \"#utility.yul\":12073:12074   */\n          dup4\n            /* \"#utility.yul\":12055:12075   */\n          tag_101\n          jump\t// in\n        tag_214:\n            /* \"#utility.yul\":12050:12075   */\n          swap3\n          pop\n            /* \"#utility.yul\":12094:12095   */\n          dup3\n            /* \"#utility.yul\":12084:12119   */\n          tag_215\n          jumpi\n            /* \"#utility.yul\":12099:12117   */\n          tag_216\n          tag_102\n          jump\t// in\n        tag_216:\n            /* \"#utility.yul\":12084:12119   */\n        tag_215:\n            /* \"#utility.yul\":12140:12141   */\n          dup3\n            /* \"#utility.yul\":12137:12138   */\n          dup3\n            /* \"#utility.yul\":12133:12142   */\n          mod\n            /* \"#utility.yul\":12128:12142   */\n          swap1\n          pop\n            /* \"#utility.yul\":11972:12148   */\n          swap3\n          swap2\n          pop\n          pop\n          jump\t// out\n            /* \"#utility.yul\":12154:12272   */\n        tag_103:\n            /* \"#utility.yul\":12241:12265   */\n          tag_218\n            /* \"#utility.yul\":12259:12264   */\n          dup2\n            /* \"#utility.yul\":12241:12265   */\n          tag_101\n          jump\t// in\n        tag_218:\n            /* \"#utility.yul\":12236:12239   */\n          dup3\n            /* \"#utility.yul\":12229:12266   */\n          mstore\n            /* \"#utility.yul\":12154:12272   */\n          pop\n          pop\n          jump\t// out\n            /* \"#utility.yul\":12278:12720   */\n        tag_68:\n            /* \"#utility.yul\":12427:12431   */\n          0x00\n            /* \"#utility.yul\":12465:12467   */\n          0x60\n            /* \"#utility.yul\":12454:12463   */\n          dup3\n            /* \"#utility.yul\":12450:12468   */\n          add\n            /* \"#utility.yul\":12442:12468   */\n          swap1\n          pop\n            /* \"#utility.yul\":12478:12549   */\n          tag_220\n            /* \"#utility.yul\":12546:12547   */\n          0x00\n            /* \"#utility.yul\":12535:12544   */\n          dup4\n            /* \"#utility.yul\":12531:12548   */\n          add\n            /* \"#utility.yul\":12522:12528   */\n          dup7\n            /* \"#utility.yul\":12478:12549   */\n          tag_91\n          jump\t// in\n        tag_220:\n            /* \"#utility.yul\":12559:12631   */\n          tag_221\n            /* \"#utility.yul\":12627:12629   */\n          0x20\n            /* \"#utility.yul\":12616:12625   */\n          dup4\n            /* \"#utility.yul\":12612:12630   */\n          add\n            /* \"#utility.yul\":12603:12609   */\n          dup6\n            /* \"#utility.yul\":12559:12631   */\n          tag_75\n          jump\t// in\n        tag_221:\n            /* \"#utility.yul\":12641:12713   */\n          tag_222\n            /* \"#utility.yul\":12709:12711   */\n          0x40\n            /* \"#utility.yul\":12698:12707   */\n          dup4\n            /* \"#utility.yul\":12694:12712   */\n          add\n            /* \"#utility.yul\":12685:12691   */\n          dup5\n            /* \"#utility.yul\":12641:12713   */\n          tag_103\n          jump\t// in\n        tag_222:\n            /* \"#utility.yul\":12278:12720   */\n          swap5\n          swap4\n          pop\n          pop\n          pop\n          pop\n          jump\t// out\n\n        auxdata: 0xa264697066735822122057289f3cec45271086ee4352eed660db3724ba7e36b81da6806840bddad6df8964736f6c634300081a0033\n    }\n}\n\nsub_2: assembly {\n        /* \"TimeUnit.sol\":72:409  contract TimeUnit {... */\n      mstore(0x40, 0x80)\n      callvalue\n      dup1\n      iszero\n      tag_1\n      jumpi\n      0x00\n      dup1\n      revert\n    tag_1:\n      pop\n      dataSize(sub_0)\n      dup1\n      dataOffset(sub_0)\n      0x00\n      codecopy\n      0x00\n      return\n    stop\n\n    sub_0: assembly {\n            /* \"TimeUnit.sol\":72:409  contract TimeUnit {... */\n          mstore(0x40, 0x80)\n          callvalue\n          dup1\n          iszero\n          tag_1\n          jumpi\n          0x00\n          dup1\n          revert\n        tag_1:\n          pop\n          jumpi(tag_2, lt(calldatasize, 0x04))\n          shr(0xe0, calldataload(0x00))\n          dup1\n          0x4f61fd68\n          eq\n          tag_3\n          jumpi\n          dup1\n          0x7bab61bc\n          eq\n          tag_4\n          jumpi\n          dup1\n          0x7e2eee53\n          eq\n          tag_5\n          jumpi\n          dup1\n          0xf4176b22\n          eq\n          tag_6\n          jumpi\n        tag_2:\n          0x00\n          dup1\n          revert\n            /* \"TimeUnit.sol\":279:406  function isTimeExceeded() public view returns (bool) {... */\n        tag_3:\n          tag_7\n          tag_8\n          jump\t// in\n        tag_7:\n          mload(0x40)\n          tag_9\n          swap2\n          swap1\n          tag_10\n          jump\t// in\n        tag_9:\n          mload(0x40)\n          dup1\n          swap2\n          sub\n          swap1\n          return\n            /* \"TimeUnit.sol\":97:125  uint public latestActionTime */\n        tag_4:\n          tag_11\n          tag_12\n          jump\t// in\n        tag_11:\n          mload(0x40)\n          tag_13\n          swap2\n          swap1\n          tag_14\n          jump\t// in\n        tag_13:\n          mload(0x40)\n          dup1\n          swap2\n          sub\n          swap1\n          return\n            /* \"TimeUnit.sol\":132:174  uint public constant delayTime = 1 minutes */\n        tag_5:\n          tag_15\n          tag_16\n          jump\t// in\n        tag_15:\n          mload(0x40)\n          tag_17\n          swap2\n          swap1\n          tag_14\n          jump\t// in\n        tag_17:\n          mload(0x40)\n          dup1\n          swap2\n          sub\n          swap1\n          return\n            /* \"TimeUnit.sol\":183:271  function updateActionTime() public {... */\n        tag_6:\n          tag_18\n          tag_19\n          jump\t// in\n        tag_18:\n          stop\n            /* \"TimeUnit.sol\":279:406  function isTimeExceeded() public view returns (bool) {... */\n        tag_8:\n            /* \"TimeUnit.sol\":326:330  bool */\n          0x00\n            /* \"TimeUnit.sol\":165:174  1 minutes */\n          0x3c\n            /* \"TimeUnit.sol\":369:385  latestActionTime */\n          sload(0x00)\n            /* \"TimeUnit.sol\":351:366  block.timestamp */\n          timestamp\n            /* \"TimeUnit.sol\":351:385  block.timestamp - latestActionTime */\n          tag_21\n          swap2\n          swap1\n          tag_22\n          jump\t// in\n        tag_21:\n            /* \"TimeUnit.sol\":350:398  (block.timestamp - latestActionTime) > delayTime */\n          gt\n            /* \"TimeUnit.sol\":343:398  return (block.timestamp - latestActionTime) > delayTime */\n          swap1\n          pop\n            /* \"TimeUnit.sol\":279:406  function isTimeExceeded() public view returns (bool) {... */\n          swap1\n          jump\t// out\n            /* \"TimeUnit.sol\":97:125  uint public latestActionTime */\n        tag_12:\n          sload(0x00)\n          dup2\n          jump\t// out\n            /* \"TimeUnit.sol\":132:174  uint public constant delayTime = 1 minutes */\n        tag_16:\n            /* \"TimeUnit.sol\":165:174  1 minutes */\n          0x3c\n            /* \"TimeUnit.sol\":132:174  uint public constant delayTime = 1 minutes */\n          dup2\n          jump\t// out\n            /* \"TimeUnit.sol\":183:271  function updateActionTime() public {... */\n        tag_19:\n            /* \"TimeUnit.sol\":248:263  block.timestamp */\n          timestamp\n            /* \"TimeUnit.sol\":229:245  latestActionTime */\n          0x00\n            /* \"TimeUnit.sol\":229:263  latestActionTime = block.timestamp */\n          dup2\n          swap1\n          sstore\n          pop\n            /* \"TimeUnit.sol\":183:271  function updateActionTime() public {... */\n          jump\t// out\n            /* \"#utility.yul\":7:97   */\n        tag_24:\n            /* \"#utility.yul\":41:48   */\n          0x00\n            /* \"#utility.yul\":84:89   */\n          dup2\n            /* \"#utility.yul\":77:90   */\n          iszero\n            /* \"#utility.yul\":70:91   */\n          iszero\n            /* \"#utility.yul\":59:91   */\n          swap1\n          pop\n            /* \"#utility.yul\":7:97   */\n          swap2\n          swap1\n          pop\n          jump\t// out\n            /* \"#utility.yul\":103:212   */\n        tag_25:\n            /* \"#utility.yul\":184:205   */\n          tag_32\n            /* \"#utility.yul\":199:204   */\n          dup2\n            /* \"#utility.yul\":184:205   */\n          tag_24\n          jump\t// in\n        tag_32:\n            /* \"#utility.yul\":179:182   */\n          dup3\n            /* \"#utility.yul\":172:206   */\n          mstore\n            /* \"#utility.yul\":103:212   */\n          pop\n          pop\n          jump\t// out\n            /* \"#utility.yul\":218:428   */\n        tag_10:\n            /* \"#utility.yul\":305:309   */\n          0x00\n            /* \"#utility.yul\":343:345   */\n          0x20\n            /* \"#utility.yul\":332:341   */\n          dup3\n            /* \"#utility.yul\":328:346   */\n          add\n            /* \"#utility.yul\":320:346   */\n          swap1\n          pop\n            /* \"#utility.yul\":356:421   */\n          tag_34\n            /* \"#utility.yul\":418:419   */\n          0x00\n            /* \"#utility.yul\":407:416   */\n          dup4\n            /* \"#utility.yul\":403:420   */\n          add\n            /* \"#utility.yul\":394:400   */\n          dup5\n            /* \"#utility.yul\":356:421   */\n          tag_25\n          jump\t// in\n        tag_34:\n            /* \"#utility.yul\":218:428   */\n          swap3\n          swap2\n          pop\n          pop\n          jump\t// out\n            /* \"#utility.yul\":434:511   */\n        tag_26:\n            /* \"#utility.yul\":471:478   */\n          0x00\n            /* \"#utility.yul\":500:505   */\n          dup2\n            /* \"#utility.yul\":489:505   */\n          swap1\n          pop\n            /* \"#utility.yul\":434:511   */\n          swap2\n          swap1\n          pop\n          jump\t// out\n            /* \"#utility.yul\":517:635   */\n        tag_27:\n            /* \"#utility.yul\":604:628   */\n          tag_37\n            /* \"#utility.yul\":622:627   */\n          dup2\n            /* \"#utility.yul\":604:628   */\n          tag_26\n          jump\t// in\n        tag_37:\n            /* \"#utility.yul\":599:602   */\n          dup3\n            /* \"#utility.yul\":592:629   */\n          mstore\n            /* \"#utility.yul\":517:635   */\n          pop\n          pop\n          jump\t// out\n            /* \"#utility.yul\":641:863   */\n        tag_14:\n            /* \"#utility.yul\":734:738   */\n          0x00\n            /* \"#utility.yul\":772:774   */\n          0x20\n            /* \"#utility.yul\":761:770   */\n          dup3\n            /* \"#utility.yul\":757:775   */\n          add\n            /* \"#utility.yul\":749:775   */\n          swap1\n          pop\n            /* \"#utility.yul\":785:856   */\n          tag_39\n            /* \"#utility.yul\":853:854   */\n          0x00\n            /* \"#utility.yul\":842:851   */\n          dup4\n            /* \"#utility.yul\":838:855   */\n          add\n            /* \"#utility.yul\":829:835   */\n          dup5\n            /* \"#utility.yul\":785:856   */\n          tag_27\n          jump\t// in\n        tag_39:\n            /* \"#utility.yul\":641:863   */\n          swap3\n          swap2\n          pop\n          pop\n          jump\t// out\n            /* \"#utility.yul\":869:1049   */\n        tag_28:\n            /* \"#utility.yul\":917:994   */\n          0x4e487b7100000000000000000000000000000000000000000000000000000000\n            /* \"#utility.yul\":914:915   */\n          0x00\n            /* \"#utility.yul\":907:995   */\n          mstore\n            /* \"#utility.yul\":1014:1018   */\n          0x11\n            /* \"#utility.yul\":1011:1012   */\n          0x04\n            /* \"#utility.yul\":1004:1019   */\n          mstore\n            /* \"#utility.yul\":1038:1042   */\n          0x24\n            /* \"#utility.yul\":1035:1036   */\n          0x00\n            /* \"#utility.yul\":1028:1043   */\n          revert\n            /* \"#utility.yul\":1055:1249   */\n        tag_22:\n            /* \"#utility.yul\":1095:1099   */\n          0x00\n            /* \"#utility.yul\":1115:1135   */\n          tag_42\n            /* \"#utility.yul\":1133:1134   */\n          dup3\n            /* \"#utility.yul\":1115:1135   */\n          tag_26\n          jump\t// in\n        tag_42:\n            /* \"#utility.yul\":1110:1135   */\n          swap2\n          pop\n            /* \"#utility.yul\":1149:1169   */\n          tag_43\n            /* \"#utility.yul\":1167:1168   */\n          dup4\n            /* \"#utility.yul\":1149:1169   */\n          tag_26\n          jump\t// in\n        tag_43:\n            /* \"#utility.yul\":1144:1169   */\n          swap3\n          pop\n            /* \"#utility.yul\":1193:1194   */\n          dup3\n            /* \"#utility.yul\":1190:1191   */\n          dup3\n            /* \"#utility.yul\":1186:1195   */\n          sub\n            /* \"#utility.yul\":1178:1195   */\n          swap1\n          pop\n            /* \"#utility.yul\":1217:1218   */\n          dup2\n            /* \"#utility.yul\":1211:1215   */\n          dup2\n            /* \"#utility.yul\":1208:1219   */\n          gt\n            /* \"#utility.yul\":1205:1242   */\n          iszero\n          tag_44\n          jumpi\n            /* \"#utility.yul\":1222:1240   */\n          tag_45\n          tag_28\n          jump\t// in\n        tag_45:\n            /* \"#utility.yul\":1205:1242   */\n        tag_44:\n            /* \"#utility.yul\":1055:1249   */\n          swap3\n          swap2\n          pop\n          pop\n          jump\t// out\n\n        auxdata: 0xa264697066735822122030103acd46643b40175aa0d0961d3e43945a67172480956cc1eb08b0362eb33964736f6c634300081a0033\n    }\n}\n",
				"bytecode": {
					"linkReferences": {},
					"object": "60806040525f6002555f6003555f6006555f60075534801561001f575f80fd5b5060405161002c906100ee565b604051809103905ff080158015610045573d5f803e3d5ffd5b505f806101000a81548173ffffffffffffffffffffffffffffffffffffffff021916908373ffffffffffffffffffffffffffffffffffffffff160217905550604051610090906100fb565b604051809103905ff0801580156100a9573d5f803e3d5ffd5b5060015f6101000a81548173ffffffffffffffffffffffffffffffffffffffff021916908373ffffffffffffffffffffffffffffffffffffffff160217905550610108565b61104680611ecf83390190565b6101f080612f1583390190565b611dba806101155f395ff3fe6080604052600436106100c1575f3560e01c806390d5d0c31161007e578063a040478d11610058578063a040478d14610209578063a9c6921a14610245578063d5b307141461026d578063f71d96cb146102a9576100c1565b806390d5d0c31461018b5780639b2c1d40146101b55780639d7b3f2d146101df576100c1565b8063228cb733146100c557806327b5db8a146100ef5780632f231163146100f95780633c6a7f9b14610123578063590e1ae31461014d57806365ce0ac614610163575b5f80fd5b3480156100d0575f80fd5b506100d96102e5565b6040516100e691906114b5565b60405180910390f35b6100f76102eb565b005b348015610104575f80fd5b5061010d6106dd565b60405161011a91906114b5565b60405180910390f35b34801561012e575f80fd5b506101376106e3565b6040516101449190611548565b60405180910390f35b348015610158575f80fd5b50610161610708565b005b34801561016e575f80fd5b5061018960048036038101906101849190611598565b610b62565b005b348015610196575f80fd5b5061019f610d29565b6040516101ac91906114b5565b60405180910390f35b3480156101c0575f80fd5b506101c9610d2f565b6040516101d691906114b5565b60405180910390f35b3480156101ea575f80fd5b506101f3610d35565b60405161020091906115e3565b60405180910390f35b348015610214575f80fd5b5061022f600480360381019061022a9190611637565b610d58565b60405161023c91906114b5565b60405180910390f35b348015610250575f80fd5b5061026b60048036038101906102669190611598565b610d6d565b005b348015610278575f80fd5b50610293600480360381019061028e9190611598565b610ece565b6040516102a0919061167d565b60405180910390f35b3480156102b4575f80fd5b506102cf60048036038101906102ca91906116c0565b610f11565b6040516102dc91906116fa565b60405180910390f35b60035481565b735b38da6a701c568545dcfcb03fcb875f56beddc473ffffffffffffffffffffffffffffffffffffffff163373ffffffffffffffffffffffffffffffffffffffff161480610378575073ab8483f64d9c6d1ecf9b849ae677dd3315835cb273ffffffffffffffffffffffffffffffffffffffff163373ffffffffffffffffffffffffffffffffffffffff16145b806103c25750734b20993bc481177ec7e8f571cecae8a9e22c02db73ffffffffffffffffffffffffffffffffffffffff163373ffffffffffffffffffffffffffffffffffffffff16145b8061040c57507378731d3ca6b7e34ac0f824c42a7cc18a495cabab73ffffffffffffffffffffffffffffffffffffffff163373ffffffffffffffffffffffffffffffffffffffff16145b61044b576040517f08c379a00000000000000000000000000000000000000000000000000000000081526004016104429061176d565b60405180910390fd5b600280541061048f576040517f08c379a0000000000000000000000000000000000000000000000000000000008152600401610486906117d5565b60405180910390fd5b670de0b6b3a764000034146104d9576040517f08c379a00000000000000000000000000000000000000000000000000000000081526004016104d09061183d565b60405180910390fd5b5f600254111561058d5760055f815481106104f7576104f661185b565b5b905f5260205f20015f9054906101000a900473ffffffffffffffffffffffffffffffffffffffff1673ffffffffffffffffffffffffffffffffffffffff163373ffffffffffffffffffffffffffffffffffffffff160361058c576040517f08c379a0000000000000000000000000000000000000000000000000000000008152600401610583906118d2565b60405180910390fd5b5b3460035f82825461059e919061191d565b92505081905550600533908060018154018082558091505060019003905f5260205f20015f9091909190916101000a81548173ffffffffffffffffffffffffffffffffffffffff021916908373ffffffffffffffffffffffffffffffffffffffff16021790555060025f81548092919061061790611950565b919050555060015f9054906101000a900473ffffffffffffffffffffffffffffffffffffffff1673ffffffffffffffffffffffffffffffffffffffff1663f4176b226040518163ffffffff1660e01b81526004015f604051808303815f87803b158015610682575f80fd5b505af1158015610694573d5f803e3d5ffd5b505050503373ffffffffffffffffffffffffffffffffffffffff167ff2ae205522024c14e5a7a26ba6d1fb1252dc8e161b5abc79ed5795fd3c5b926160405160405180910390a2565b60065481565b60015f9054906101000a900473ffffffffffffffffffffffffffffffffffffffff1681565b60015f9054906101000a900473ffffffffffffffffffffffffffffffffffffffff1673ffffffffffffffffffffffffffffffffffffffff16634f61fd686040518163ffffffff1660e01b8152600401602060405180830381865afa158015610772573d5f803e3d5ffd5b505050506040513d601f19601f8201168201806040525081019061079691906119cc565b6107d5576040517f08c379a00000000000000000000000000000000000000000000000000000000081526004016107cc90611a41565b60405180910390fd5b5f60025411610819576040517f08c379a000000000000000000000000000000000000000000000000000000000815260040161081090611aa9565b60405180910390fd5b5f60055f8154811061082e5761082d61185b565b5b905f5260205f20015f9054906101000a900473ffffffffffffffffffffffffffffffffffffffff1690506001600254036109565760055f815481106108765761087561185b565b5b905f5260205f20015f9054906101000a900473ffffffffffffffffffffffffffffffffffffffff1673ffffffffffffffffffffffffffffffffffffffff163373ffffffffffffffffffffffffffffffffffffffff161461090b576040517f08c379a000000000000000000000000000000000000000000000000000000000815260040161090290611b11565b60405180910390fd5b8073ffffffffffffffffffffffffffffffffffffffff166108fc60035490811502906040515f60405180830381858888f19350505050158015610950573d5f803e3d5ffd5b50610b57565b60055f8154811061096a5761096961185b565b5b905f5260205f20015f9054906101000a900473ffffffffffffffffffffffffffffffffffffffff1673ffffffffffffffffffffffffffffffffffffffff163373ffffffffffffffffffffffffffffffffffffffff161480610a32575060056001815481106109db576109da61185b565b5b905f5260205f20015f9054906101000a900473ffffffffffffffffffffffffffffffffffffffff1673ffffffffffffffffffffffffffffffffffffffff163373ffffffffffffffffffffffffffffffffffffffff16145b610a71576040517f08c379a0000000000000000000000000000000000000000000000000000000008152600401610a6890611b79565b60405180910390fd5b5f6005600181548110610a8757610a8661185b565b5b905f5260205f20015f9054906101000a900473ffffffffffffffffffffffffffffffffffffffff1690508173ffffffffffffffffffffffffffffffffffffffff166108fc6002600354610ada9190611bc4565b90811502906040515f60405180830381858888f19350505050158015610b02573d5f803e3d5ffd5b508073ffffffffffffffffffffffffffffffffffffffff166108fc6002600354610b2c9190611bc4565b90811502906040515f60405180830381858888f19350505050158015610b54573d5f803e3d5ffd5b50505b610b5f610f4c565b50565b600260065414610ba7576040517f08c379a0000000000000000000000000000000000000000000000000000000008152600401610b9e90611c64565b60405180910390fd5b5f8054906101000a900473ffffffffffffffffffffffffffffffffffffffff1673ffffffffffffffffffffffffffffffffffffffff1663ad48779082336040518363ffffffff1660e01b8152600401610c01929190611c91565b5f604051808303815f87803b158015610c18575f80fd5b505af1158015610c2a573d5f803e3d5ffd5b505050505f610c3882610ece565b90508060ff1660045f3373ffffffffffffffffffffffffffffffffffffffff1673ffffffffffffffffffffffffffffffffffffffff1681526020019081526020015f208190555060075f815480929190610c9190611950565b9190505550600260075403610ca957610ca861103b565b5b60015f9054906101000a900473ffffffffffffffffffffffffffffffffffffffff1673ffffffffffffffffffffffffffffffffffffffff1663f4176b226040518163ffffffff1660e01b81526004015f604051808303815f87803b158015610d0f575f80fd5b505af1158015610d21573d5f803e3d5ffd5b505050505050565b60025481565b60075481565b5f8054906101000a900473ffffffffffffffffffffffffffffffffffffffff1681565b6004602052805f5260405f205f915090505481565b6002805414610db1576040517f08c379a0000000000000000000000000000000000000000000000000000000008152600401610da890611d02565b60405180910390fd5b5f8054906101000a900473ffffffffffffffffffffffffffffffffffffffff1673ffffffffffffffffffffffffffffffffffffffff16635a74610182336040518363ffffffff1660e01b8152600401610e0b929190611c91565b5f604051808303815f87803b158015610e22575f80fd5b505af1158015610e34573d5f803e3d5ffd5b5050505060065f815480929190610e4a90611950565b919050555060015f9054906101000a900473ffffffffffffffffffffffffffffffffffffffff1673ffffffffffffffffffffffffffffffffffffffff1663f4176b226040518163ffffffff1660e01b81526004015f604051808303815f87803b158015610eb5575f80fd5b505af1158015610ec7573d5f803e3d5ffd5b5050505050565b5f8060058360016020610ee19190611d20565b60ff1660208110610ef557610ef461185b565b5b1a60f81b60f81c610f069190611d54565b905080915050919050565b60058181548110610f20575f80fd5b905f5260205f20015f915054906101000a900473ffffffffffffffffffffffffffffffffffffffff1681565b5f6002819055505f6003819055505f6006819055505f6007819055507fc6976b6410888b44c765590c8368eb4a60e0431d4ad683c8a53ea85a8479f22e60405160405180910390a15f5b60058054905081101561102b5760045f60058381548110610fba57610fb961185b565b5b905f5260205f20015f9054906101000a900473ffffffffffffffffffffffffffffffffffffffff1673ffffffffffffffffffffffffffffffffffffffff1673ffffffffffffffffffffffffffffffffffffffff1681526020019081526020015f205f90558080600101915050610f96565b5060055f6110399190611464565b565b5f60045f60055f815481106110535761105261185b565b5b905f5260205f20015f9054906101000a900473ffffffffffffffffffffffffffffffffffffffff1673ffffffffffffffffffffffffffffffffffffffff1673ffffffffffffffffffffffffffffffffffffffff1681526020019081526020015f205490505f60045f60056001815481106110d0576110cf61185b565b5b905f5260205f20015f9054906101000a900473ffffffffffffffffffffffffffffffffffffffff1673ffffffffffffffffffffffffffffffffffffffff1673ffffffffffffffffffffffffffffffffffffffff1681526020019081526020015f205490505f60055f815481106111495761114861185b565b5b905f5260205f20015f9054906101000a900473ffffffffffffffffffffffffffffffffffffffff1690505f60056001815481106111895761118861185b565b5b905f5260205f20015f9054906101000a900473ffffffffffffffffffffffffffffffffffffffff1690506111bd84846113bb565b1561125d578173ffffffffffffffffffffffffffffffffffffffff166108fc60035490811502906040515f60405180830381858888f19350505050158015611207573d5f803e3d5ffd5b508173ffffffffffffffffffffffffffffffffffffffff167f9c2270628a9b29d30ae96b6c4c14ed646ee134febdce38a5b77f2bde9cea2e2060035460405161125091906114b5565b60405180910390a26113ad565b61126783856113bb565b15611307578073ffffffffffffffffffffffffffffffffffffffff166108fc60035490811502906040515f60405180830381858888f193505050501580156112b1573d5f803e3d5ffd5b508073ffffffffffffffffffffffffffffffffffffffff167f9c2270628a9b29d30ae96b6c4c14ed646ee134febdce38a5b77f2bde9cea2e206003546040516112fa91906114b5565b60405180910390a26113ac565b8173ffffffffffffffffffffffffffffffffffffffff166108fc60026003546113309190611bc4565b90811502906040515f60405180830381858888f19350505050158015611358573d5f803e3d5ffd5b508073ffffffffffffffffffffffffffffffffffffffff166108fc60026003546113829190611bc4565b90811502906040515f60405180830381858888f193505050501580156113aa573d5f803e3d5ffd5b505b5b6113b5610f4c565b50505050565b5f80831480156113d6575060028214806113d55750600382145b5b806113f757506001831480156113f657505f8214806113f55750600482145b5b5b806114195750600283148015611418575060018214806114175750600382145b5b5b8061143b575060038314801561143a575060018214806114395750600482145b5b5b8061145c575060048314801561145b57505f82148061145a5750600282145b5b5b905092915050565b5080545f8255905f5260205f209081019061147f9190611482565b50565b5b80821115611499575f815f905550600101611483565b5090565b5f819050919050565b6114af8161149d565b82525050565b5f6020820190506114c85f8301846114a6565b92915050565b5f73ffffffffffffffffffffffffffffffffffffffff82169050919050565b5f819050919050565b5f61151061150b611506846114ce565b6114ed565b6114ce565b9050919050565b5f611521826114f6565b9050919050565b5f61153282611517565b9050919050565b61154281611528565b82525050565b5f60208201905061155b5f830184611539565b92915050565b5f80fd5b5f819050919050565b61157781611565565b8114611581575f80fd5b50565b5f813590506115928161156e565b92915050565b5f602082840312156115ad576115ac611561565b5b5f6115ba84828501611584565b91505092915050565b5f6115cd82611517565b9050919050565b6115dd816115c3565b82525050565b5f6020820190506115f65f8301846115d4565b92915050565b5f611606826114ce565b9050919050565b611616816115fc565b8114611620575f80fd5b50565b5f813590506116318161160d565b92915050565b5f6020828403121561164c5761164b611561565b5b5f61165984828501611623565b91505092915050565b5f60ff82169050919050565b61167781611662565b82525050565b5f6020820190506116905f83018461166e565b92915050565b61169f8161149d565b81146116a9575f80fd5b50565b5f813590506116ba81611696565b92915050565b5f602082840312156116d5576116d4611561565b5b5f6116e2848285016116ac565b91505092915050565b6116f4816115fc565b82525050565b5f60208201905061170d5f8301846116eb565b92915050565b5f82825260208201905092915050565b7f556e617574686f72697a6564206163636f756e740000000000000000000000005f82015250565b5f611757601483611713565b915061176282611723565b602082019050919050565b5f6020820190508181035f8301526117848161174b565b9050919050565b7f416c7265616479203220706c61796572732e00000000000000000000000000005f82015250565b5f6117bf601283611713565b91506117ca8261178b565b602082019050919050565b5f6020820190508181035f8301526117ec816117b3565b9050919050565b7f4d7573742073656e642031204554482e000000000000000000000000000000005f82015250565b5f611827601083611713565b9150611832826117f3565b602082019050919050565b5f6020820190508181035f8301526118548161181b565b9050919050565b7f4e487b71000000000000000000000000000000000000000000000000000000005f52603260045260245ffd5b7f506c6179657220616c72656164792061646465642e00000000000000000000005f82015250565b5f6118bc601583611713565b91506118c782611888565b602082019050919050565b5f6020820190508181035f8301526118e9816118b0565b9050919050565b7f4e487b71000000000000000000000000000000000000000000000000000000005f52601160045260245ffd5b5f6119278261149d565b91506119328361149d565b925082820190508082111561194a576119496118f0565b5b92915050565b5f61195a8261149d565b91507fffffffffffffffffffffffffffffffffffffffffffffffffffffffffffffffff820361198c5761198b6118f0565b5b600182019050919050565b5f8115159050919050565b6119ab81611997565b81146119b5575f80fd5b50565b5f815190506119c6816119a2565b92915050565b5f602082840312156119e1576119e0611561565b5b5f6119ee848285016119b8565b91505092915050565b7f526566756e6420706572696f64206e6f7420656c6170736564000000000000005f82015250565b5f611a2b601983611713565b9150611a36826119f7565b602082019050919050565b5f6020820190508181035f830152611a5881611a1f565b9050919050565b7f4e6f206163746976652067616d650000000000000000000000000000000000005f82015250565b5f611a93600e83611713565b9150611a9e82611a5f565b602082019050919050565b5f6020820190508181035f830152611ac081611a87565b9050919050565b7f4f6e6c7920706c617965722063616e20726566756e64000000000000000000005f82015250565b5f611afb601683611713565b9150611b0682611ac7565b602082019050919050565b5f6020820190508181035f830152611b2881611aef565b9050919050565b7f556e617574686f72697a656420726566756e64000000000000000000000000005f82015250565b5f611b63601383611713565b9150611b6e82611b2f565b602082019050919050565b5f6020820190508181035f830152611b9081611b57565b9050919050565b7f4e487b71000000000000000000000000000000000000000000000000000000005f52601260045260245ffd5b5f611bce8261149d565b9150611bd98361149d565b925082611be957611be8611b97565b5b828204905092915050565b7f426f746820706c6179657273206d75737420636f6d6d6974206265666f7265205f8201527f72657665616c696e672e00000000000000000000000000000000000000000000602082015250565b5f611c4e602a83611713565b9150611c5982611bf4565b604082019050919050565b5f6020820190508181035f830152611c7b81611c42565b9050919050565b611c8b81611565565b82525050565b5f604082019050611ca45f830185611c82565b611cb160208301846116eb565b9392505050565b7f47616d65206973206e6f742072656164792e00000000000000000000000000005f82015250565b5f611cec601283611713565b9150611cf782611cb8565b602082019050919050565b5f6020820190508181035f830152611d1981611ce0565b9050919050565b5f611d2a82611662565b9150611d3583611662565b9250828203905060ff811115611d4e57611d4d6118f0565b5b92915050565b5f611d5e82611662565b9150611d6983611662565b925082611d7957611d78611b97565b5b82820690509291505056fea26469706673582212205ff520878c66947cb6b46caca66c6ca0fbb3aecb49a456f1886e1657d3de1b7464736f6c634300081a0033608060405260645f806101000a81548160ff021916908360ff1602179055503480156028575f80fd5b50611010806100365f395ff3fe608060405234801561000f575f80fd5b5060043610610060575f3560e01c80633cf5040a146100645780635a746101146100945780636ac5db19146100b05780637b43a8e6146100ce5780638696b88714610101578063ad48779014610132575b5f80fd5b61007e60048036038101906100799190610933565b61014e565b60405161008b919061096d565b60405180910390f35b6100ae60048036038101906100a991906109e0565b61017d565b005b6100b861043b565b6040516100c59190610a39565b60405180910390f35b6100e860048036038101906100e39190610a52565b61044b565b6040516100f89493929190610ab9565b60405180910390f35b61011b60048036038101906101169190610a52565b6104a4565b604051610129929190610afc565b60405180910390f35b61014c600480360381019061014791906109e0565b61053d565b005b5f816040516020016101609190610b43565b604051602081830303815290604052805190602001209050919050565b5f151560015f8373ffffffffffffffffffffffffffffffffffffffff1673ffffffffffffffffffffffffffffffffffffffff1681526020019081526020015f2060010160099054906101000a900460ff16151514610210576040517f08c379a000000000000000000000000000000000000000000000000000000000815260040161020790610bdd565b60405180910390fd5b8160015f8373ffffffffffffffffffffffffffffffffffffffff1673ffffffffffffffffffffffffffffffffffffffff1681526020019081526020015f205f01819055506001805f8373ffffffffffffffffffffffffffffffffffffffff1673ffffffffffffffffffffffffffffffffffffffff1681526020019081526020015f2060010160096101000a81548160ff0219169083151502179055504360015f8373ffffffffffffffffffffffffffffffffffffffff1673ffffffffffffffffffffffffffffffffffffffff1681526020019081526020015f206001015f6101000a81548167ffffffffffffffff021916908367ffffffffffffffff1602179055505f60015f8373ffffffffffffffffffffffffffffffffffffffff1673ffffffffffffffffffffffffffffffffffffffff1681526020019081526020015f2060010160086101000a81548160ff0219169083151502179055507f3c1a1f8f38335b17f751c6da4ba7d1865f26b3997535176f5080de9fad8916038160015f8473ffffffffffffffffffffffffffffffffffffffff1673ffffffffffffffffffffffffffffffffffffffff1681526020019081526020015f205f015460015f8573ffffffffffffffffffffffffffffffffffffffff1673ffffffffffffffffffffffffffffffffffffffff1681526020019081526020015f206001015f9054906101000a900467ffffffffffffffff1660405161042f93929190610c0a565b60405180910390a15050565b5f8054906101000a900460ff1681565b6001602052805f5260405f205f91509050805f015490806001015f9054906101000a900467ffffffffffffffff16908060010160089054906101000a900460ff16908060010160099054906101000a900460ff16905084565b5f8060015f8473ffffffffffffffffffffffffffffffffffffffff1673ffffffffffffffffffffffffffffffffffffffff1681526020019081526020015f205f015460015f8573ffffffffffffffffffffffffffffffffffffffff1673ffffffffffffffffffffffffffffffffffffffff1681526020019081526020015f2060010160089054906101000a900460ff1691509150915091565b5f151560015f8373ffffffffffffffffffffffffffffffffffffffff1673ffffffffffffffffffffffffffffffffffffffff1681526020019081526020015f2060010160089054906101000a900460ff161515146105d0576040517f08c379a00000000000000000000000000000000000000000000000000000000081526004016105c790610caf565b60405180910390fd5b6001805f8373ffffffffffffffffffffffffffffffffffffffff1673ffffffffffffffffffffffffffffffffffffffff1681526020019081526020015f2060010160086101000a81548160ff02191690831515021790555060015f8273ffffffffffffffffffffffffffffffffffffffff1673ffffffffffffffffffffffffffffffffffffffff1681526020019081526020015f205f01546106718361014e565b146106b1576040517f08c379a00000000000000000000000000000000000000000000000000000000081526004016106a890610d3d565b60405180910390fd5b60015f8273ffffffffffffffffffffffffffffffffffffffff1673ffffffffffffffffffffffffffffffffffffffff1681526020019081526020015f206001015f9054906101000a900467ffffffffffffffff1667ffffffffffffffff164367ffffffffffffffff161161075a576040517f08c379a000000000000000000000000000000000000000000000000000000000815260040161075190610df1565b60405180910390fd5b60fa60015f8373ffffffffffffffffffffffffffffffffffffffff1673ffffffffffffffffffffffffffffffffffffffff1681526020019081526020015f206001015f9054906101000a900467ffffffffffffffff166107ba9190610e3c565b67ffffffffffffffff164367ffffffffffffffff161115610810576040517f08c379a000000000000000000000000000000000000000000000000000000000815260040161080790610ee7565b60405180910390fd5b5f60015f8373ffffffffffffffffffffffffffffffffffffffff1673ffffffffffffffffffffffffffffffffffffffff1681526020019081526020015f206001015f9054906101000a900467ffffffffffffffff1667ffffffffffffffff164090505f805f9054906101000a900460ff1660ff168285604051602001610897929190610f05565b604051602081830303815290604052805190602001205f1c6108b99190610f66565b90507fbc016dd1cadeaefcb851af7a0a93532e0023d536894b730801f7bcfe7065bcc28385836040516108ee93929190610fa5565b60405180910390a150505050565b5f80fd5b5f819050919050565b61091281610900565b811461091c575f80fd5b50565b5f8135905061092d81610909565b92915050565b5f60208284031215610948576109476108fc565b5b5f6109558482850161091f565b91505092915050565b61096781610900565b82525050565b5f6020820190506109805f83018461095e565b92915050565b5f73ffffffffffffffffffffffffffffffffffffffff82169050919050565b5f6109af82610986565b9050919050565b6109bf816109a5565b81146109c9575f80fd5b50565b5f813590506109da816109b6565b92915050565b5f80604083850312156109f6576109f56108fc565b5b5f610a038582860161091f565b9250506020610a14858286016109cc565b9150509250929050565b5f60ff82169050919050565b610a3381610a1e565b82525050565b5f602082019050610a4c5f830184610a2a565b92915050565b5f60208284031215610a6757610a666108fc565b5b5f610a74848285016109cc565b91505092915050565b5f67ffffffffffffffff82169050919050565b610a9981610a7d565b82525050565b5f8115159050919050565b610ab381610a9f565b82525050565b5f608082019050610acc5f83018761095e565b610ad96020830186610a90565b610ae66040830185610aaa565b610af36060830184610aaa565b95945050505050565b5f604082019050610b0f5f83018561095e565b610b1c6020830184610aaa565b9392505050565b5f819050919050565b610b3d610b3882610900565b610b23565b82525050565b5f610b4e8284610b2c565b60208201915081905092915050565b5f82825260208201905092915050565b7f436f6d6d697452657665616c3a3a636f6d6d69743a20416c726561647920636f5f8201527f6d6d697465640000000000000000000000000000000000000000000000000000602082015250565b5f610bc7602683610b5d565b9150610bd282610b6d565b604082019050919050565b5f6020820190508181035f830152610bf481610bbb565b9050919050565b610c04816109a5565b82525050565b5f606082019050610c1d5f830186610bfb565b610c2a602083018561095e565b610c376040830184610a90565b949350505050565b7f436f6d6d697452657665616c3a3a72657665616c3a20416c72656164792072655f8201527f7665616c65640000000000000000000000000000000000000000000000000000602082015250565b5f610c99602683610b5d565b9150610ca482610c3f565b604082019050919050565b5f6020820190508181035f830152610cc681610c8d565b9050919050565b7f436f6d6d697452657665616c3a3a72657665616c3a2052657665616c656420685f8201527f61736820646f6573206e6f74206d6174636820636f6d6d697400000000000000602082015250565b5f610d27603983610b5d565b9150610d3282610ccd565b604082019050919050565b5f6020820190508181035f830152610d5481610d1b565b9050919050565b7f436f6d6d697452657665616c3a3a72657665616c3a2052657665616c20616e645f8201527f20636f6d6d69742068617070656e6564206f6e207468652073616d6520626c6f60208201527f636b000000000000000000000000000000000000000000000000000000000000604082015250565b5f610ddb604283610b5d565b9150610de682610d5b565b606082019050919050565b5f6020820190508181035f830152610e0881610dcf565b9050919050565b7f4e487b71000000000000000000000000000000000000000000000000000000005f52601160045260245ffd5b5f610e4682610a7d565b9150610e5183610a7d565b9250828201905067ffffffffffffffff811115610e7157610e70610e0f565b5b92915050565b7f436f6d6d697452657665616c3a3a72657665616c3a2052657665616c656420745f8201527f6f6f206c61746500000000000000000000000000000000000000000000000000602082015250565b5f610ed1602783610b5d565b9150610edc82610e77565b604082019050919050565b5f6020820190508181035f830152610efe81610ec5565b9050919050565b5f610f108285610b2c565b602082019150610f208284610b2c565b6020820191508190509392505050565b5f819050919050565b7f4e487b71000000000000000000000000000000000000000000000000000000005f52601260045260245ffd5b5f610f7082610f30565b9150610f7b83610f30565b925082610f8b57610f8a610f39565b5b828206905092915050565b610f9f81610f30565b82525050565b5f606082019050610fb85f830186610bfb565b610fc5602083018561095e565b610fd26040830184610f96565b94935050505056fea264697066735822122057289f3cec45271086ee4352eed660db3724ba7e36b81da6806840bddad6df8964736f6c634300081a00336080604052348015600e575f80fd5b506101d48061001c5f395ff3fe608060405234801561000f575f80fd5b506004361061004a575f3560e01c80634f61fd681461004e5780637bab61bc1461006c5780637e2eee531461008a578063f4176b22146100a8575b5f80fd5b6100566100b2565b60405161006391906100f4565b60405180910390f35b6100746100c8565b6040516100819190610125565b60405180910390f35b6100926100cd565b60405161009f9190610125565b60405180910390f35b6100b06100d2565b005b5f603c5f54426100c2919061016b565b11905090565b5f5481565b603c81565b425f81905550565b5f8115159050919050565b6100ee816100da565b82525050565b5f6020820190506101075f8301846100e5565b92915050565b5f819050919050565b61011f8161010d565b82525050565b5f6020820190506101385f830184610116565b92915050565b7f4e487b71000000000000000000000000000000000000000000000000000000005f52601160045260245ffd5b5f6101758261010d565b91506101808361010d565b92508282039050818111156101985761019761013e565b5b9291505056fea264697066735822122030103acd46643b40175aa0d0961d3e43945a67172480956cc1eb08b0362eb33964736f6c634300081a0033",
					"opcodes": "PUSH1 0x80 PUSH1 0x40 MSTORE PUSH0 PUSH1 0x2 SSTORE PUSH0 PUSH1 0x3 SSTORE PUSH0 PUSH1 0x6 SSTORE PUSH0 PUSH1 0x7 SSTORE CALLVALUE DUP1 ISZERO PUSH2 0x1F JUMPI PUSH0 DUP1 REVERT JUMPDEST POP PUSH1 0x40 MLOAD PUSH2 0x2C SWAP1 PUSH2 0xEE JUMP JUMPDEST PUSH1 0x40 MLOAD DUP1 SWAP2 SUB SWAP1 PUSH0 CREATE DUP1 ISZERO DUP1 ISZERO PUSH2 0x45 JUMPI RETURNDATASIZE PUSH0 DUP1 RETURNDATACOPY RETURNDATASIZE PUSH0 REVERT JUMPDEST POP PUSH0 DUP1 PUSH2 0x100 EXP DUP2 SLOAD DUP2 PUSH20 0xFFFFFFFFFFFFFFFFFFFFFFFFFFFFFFFFFFFFFFFF MUL NOT AND SWAP1 DUP4 PUSH20 0xFFFFFFFFFFFFFFFFFFFFFFFFFFFFFFFFFFFFFFFF AND MUL OR SWAP1 SSTORE POP PUSH1 0x40 MLOAD PUSH2 0x90 SWAP1 PUSH2 0xFB JUMP JUMPDEST PUSH1 0x40 MLOAD DUP1 SWAP2 SUB SWAP1 PUSH0 CREATE DUP1 ISZERO DUP1 ISZERO PUSH2 0xA9 JUMPI RETURNDATASIZE PUSH0 DUP1 RETURNDATACOPY RETURNDATASIZE PUSH0 REVERT JUMPDEST POP PUSH1 0x1 PUSH0 PUSH2 0x100 EXP DUP2 SLOAD DUP2 PUSH20 0xFFFFFFFFFFFFFFFFFFFFFFFFFFFFFFFFFFFFFFFF MUL NOT AND SWAP1 DUP4 PUSH20 0xFFFFFFFFFFFFFFFFFFFFFFFFFFFFFFFFFFFFFFFF AND MUL OR SWAP1 SSTORE POP PUSH2 0x108 JUMP JUMPDEST PUSH2 0x1046 DUP1 PUSH2 0x1ECF DUP4 CODECOPY ADD SWAP1 JUMP JUMPDEST PUSH2 0x1F0 DUP1 PUSH2 0x2F15 DUP4 CODECOPY ADD SWAP1 JUMP JUMPDEST PUSH2 0x1DBA DUP1 PUSH2 0x115 PUSH0 CODECOPY PUSH0 RETURN INVALID PUSH1 0x80 PUSH1 0x40 MSTORE PUSH1 0x4 CALLDATASIZE LT PUSH2 0xC1 JUMPI PUSH0 CALLDATALOAD PUSH1 0xE0 SHR DUP1 PUSH4 0x90D5D0C3 GT PUSH2 0x7E JUMPI DUP1 PUSH4 0xA040478D GT PUSH2 0x58 JUMPI DUP1 PUSH4 0xA040478D EQ PUSH2 0x209 JUMPI DUP1 PUSH4 0xA9C6921A EQ PUSH2 0x245 JUMPI DUP1 PUSH4 0xD5B30714 EQ PUSH2 0x26D JUMPI DUP1 PUSH4 0xF71D96CB EQ PUSH2 0x2A9 JUMPI PUSH2 0xC1 JUMP JUMPDEST DUP1 PUSH4 0x90D5D0C3 EQ PUSH2 0x18B JUMPI DUP1 PUSH4 0x9B2C1D40 EQ PUSH2 0x1B5 JUMPI DUP1 PUSH4 0x9D7B3F2D EQ PUSH2 0x1DF JUMPI PUSH2 0xC1 JUMP JUMPDEST DUP1 PUSH4 0x228CB733 EQ PUSH2 0xC5 JUMPI DUP1 PUSH4 0x27B5DB8A EQ PUSH2 0xEF JUMPI DUP1 PUSH4 0x2F231163 EQ PUSH2 0xF9 JUMPI DUP1 PUSH4 0x3C6A7F9B EQ PUSH2 0x123 JUMPI DUP1 PUSH4 0x590E1AE3 EQ PUSH2 0x14D JUMPI DUP1 PUSH4 0x65CE0AC6 EQ PUSH2 0x163 JUMPI JUMPDEST PUSH0 DUP1 REVERT JUMPDEST CALLVALUE DUP1 ISZERO PUSH2 0xD0 JUMPI PUSH0 DUP1 REVERT JUMPDEST POP PUSH2 0xD9 PUSH2 0x2E5 JUMP JUMPDEST PUSH1 0x40 MLOAD PUSH2 0xE6 SWAP2 SWAP1 PUSH2 0x14B5 JUMP JUMPDEST PUSH1 0x40 MLOAD DUP1 SWAP2 SUB SWAP1 RETURN JUMPDEST PUSH2 0xF7 PUSH2 0x2EB JUMP JUMPDEST STOP JUMPDEST CALLVALUE DUP1 ISZERO PUSH2 0x104 JUMPI PUSH0 DUP1 REVERT JUMPDEST POP PUSH2 0x10D PUSH2 0x6DD JUMP JUMPDEST PUSH1 0x40 MLOAD PUSH2 0x11A SWAP2 SWAP1 PUSH2 0x14B5 JUMP JUMPDEST PUSH1 0x40 MLOAD DUP1 SWAP2 SUB SWAP1 RETURN JUMPDEST CALLVALUE DUP1 ISZERO PUSH2 0x12E JUMPI PUSH0 DUP1 REVERT JUMPDEST POP PUSH2 0x137 PUSH2 0x6E3 JUMP JUMPDEST PUSH1 0x40 MLOAD PUSH2 0x144 SWAP2 SWAP1 PUSH2 0x1548 JUMP JUMPDEST PUSH1 0x40 MLOAD DUP1 SWAP2 SUB SWAP1 RETURN JUMPDEST CALLVALUE DUP1 ISZERO PUSH2 0x158 JUMPI PUSH0 DUP1 REVERT JUMPDEST POP PUSH2 0x161 PUSH2 0x708 JUMP JUMPDEST STOP JUMPDEST CALLVALUE DUP1 ISZERO PUSH2 0x16E JUMPI PUSH0 DUP1 REVERT JUMPDEST POP PUSH2 0x189 PUSH1 0x4 DUP1 CALLDATASIZE SUB DUP2 ADD SWAP1 PUSH2 0x184 SWAP2 SWAP1 PUSH2 0x1598 JUMP JUMPDEST PUSH2 0xB62 JUMP JUMPDEST STOP JUMPDEST CALLVALUE DUP1 ISZERO PUSH2 0x196 JUMPI PUSH0 DUP1 REVERT JUMPDEST POP PUSH2 0x19F PUSH2 0xD29 JUMP JUMPDEST PUSH1 0x40 MLOAD PUSH2 0x1AC SWAP2 SWAP1 PUSH2 0x14B5 JUMP JUMPDEST PUSH1 0x40 MLOAD DUP1 SWAP2 SUB SWAP1 RETURN JUMPDEST CALLVALUE DUP1 ISZERO PUSH2 0x1C0 JUMPI PUSH0 DUP1 REVERT JUMPDEST POP PUSH2 0x1C9 PUSH2 0xD2F JUMP JUMPDEST PUSH1 0x40 MLOAD PUSH2 0x1D6 SWAP2 SWAP1 PUSH2 0x14B5 JUMP JUMPDEST PUSH1 0x40 MLOAD DUP1 SWAP2 SUB SWAP1 RETURN JUMPDEST CALLVALUE DUP1 ISZERO PUSH2 0x1EA JUMPI PUSH0 DUP1 REVERT JUMPDEST POP PUSH2 0x1F3 PUSH2 0xD35 JUMP JUMPDEST PUSH1 0x40 MLOAD PUSH2 0x200 SWAP2 SWAP1 PUSH2 0x15E3 JUMP JUMPDEST PUSH1 0x40 MLOAD DUP1 SWAP2 SUB SWAP1 RETURN JUMPDEST CALLVALUE DUP1 ISZERO PUSH2 0x214 JUMPI PUSH0 DUP1 REVERT JUMPDEST POP PUSH2 0x22F PUSH1 0x4 DUP1 CALLDATASIZE SUB DUP2 ADD SWAP1 PUSH2 0x22A SWAP2 SWAP1 PUSH2 0x1637 JUMP JUMPDEST PUSH2 0xD58 JUMP JUMPDEST PUSH1 0x40 MLOAD PUSH2 0x23C SWAP2 SWAP1 PUSH2 0x14B5 JUMP JUMPDEST PUSH1 0x40 MLOAD DUP1 SWAP2 SUB SWAP1 RETURN JUMPDEST CALLVALUE DUP1 ISZERO PUSH2 0x250 JUMPI PUSH0 DUP1 REVERT JUMPDEST POP PUSH2 0x26B PUSH1 0x4 DUP1 CALLDATASIZE SUB DUP2 ADD SWAP1 PUSH2 0x266 SWAP2 SWAP1 PUSH2 0x1598 JUMP JUMPDEST PUSH2 0xD6D JUMP JUMPDEST STOP JUMPDEST CALLVALUE DUP1 ISZERO PUSH2 0x278 JUMPI PUSH0 DUP1 REVERT JUMPDEST POP PUSH2 0x293 PUSH1 0x4 DUP1 CALLDATASIZE SUB DUP2 ADD SWAP1 PUSH2 0x28E SWAP2 SWAP1 PUSH2 0x1598 JUMP JUMPDEST PUSH2 0xECE JUMP JUMPDEST PUSH1 0x40 MLOAD PUSH2 0x2A0 SWAP2 SWAP1 PUSH2 0x167D JUMP JUMPDEST PUSH1 0x40 MLOAD DUP1 SWAP2 SUB SWAP1 RETURN JUMPDEST CALLVALUE DUP1 ISZERO PUSH2 0x2B4 JUMPI PUSH0 DUP1 REVERT JUMPDEST POP PUSH2 0x2CF PUSH1 0x4 DUP1 CALLDATASIZE SUB DUP2 ADD SWAP1 PUSH2 0x2CA SWAP2 SWAP1 PUSH2 0x16C0 JUMP JUMPDEST PUSH2 0xF11 JUMP JUMPDEST PUSH1 0x40 MLOAD PUSH2 0x2DC SWAP2 SWAP1 PUSH2 0x16FA JUMP JUMPDEST PUSH1 0x40 MLOAD DUP1 SWAP2 SUB SWAP1 RETURN JUMPDEST PUSH1 0x3 SLOAD DUP2 JUMP JUMPDEST PUSH20 0x5B38DA6A701C568545DCFCB03FCB875F56BEDDC4 PUSH20 0xFFFFFFFFFFFFFFFFFFFFFFFFFFFFFFFFFFFFFFFF AND CALLER PUSH20 0xFFFFFFFFFFFFFFFFFFFFFFFFFFFFFFFFFFFFFFFF AND EQ DUP1 PUSH2 0x378 JUMPI POP PUSH20 0xAB8483F64D9C6D1ECF9B849AE677DD3315835CB2 PUSH20 0xFFFFFFFFFFFFFFFFFFFFFFFFFFFFFFFFFFFFFFFF AND CALLER PUSH20 0xFFFFFFFFFFFFFFFFFFFFFFFFFFFFFFFFFFFFFFFF AND EQ JUMPDEST DUP1 PUSH2 0x3C2 JUMPI POP PUSH20 0x4B20993BC481177EC7E8F571CECAE8A9E22C02DB PUSH20 0xFFFFFFFFFFFFFFFFFFFFFFFFFFFFFFFFFFFFFFFF AND CALLER PUSH20 0xFFFFFFFFFFFFFFFFFFFFFFFFFFFFFFFFFFFFFFFF AND EQ JUMPDEST DUP1 PUSH2 0x40C JUMPI POP PUSH20 0x78731D3CA6B7E34AC0F824C42A7CC18A495CABAB PUSH20 0xFFFFFFFFFFFFFFFFFFFFFFFFFFFFFFFFFFFFFFFF AND CALLER PUSH20 0xFFFFFFFFFFFFFFFFFFFFFFFFFFFFFFFFFFFFFFFF AND EQ JUMPDEST PUSH2 0x44B JUMPI PUSH1 0x40 MLOAD PUSH32 0x8C379A000000000000000000000000000000000000000000000000000000000 DUP2 MSTORE PUSH1 0x4 ADD PUSH2 0x442 SWAP1 PUSH2 0x176D JUMP JUMPDEST PUSH1 0x40 MLOAD DUP1 SWAP2 SUB SWAP1 REVERT JUMPDEST PUSH1 0x2 DUP1 SLOAD LT PUSH2 0x48F JUMPI PUSH1 0x40 MLOAD PUSH32 0x8C379A000000000000000000000000000000000000000000000000000000000 DUP2 MSTORE PUSH1 0x4 ADD PUSH2 0x486 SWAP1 PUSH2 0x17D5 JUMP JUMPDEST PUSH1 0x40 MLOAD DUP1 SWAP2 SUB SWAP1 REVERT JUMPDEST PUSH8 0xDE0B6B3A7640000 CALLVALUE EQ PUSH2 0x4D9 JUMPI PUSH1 0x40 MLOAD PUSH32 0x8C379A000000000000000000000000000000000000000000000000000000000 DUP2 MSTORE PUSH1 0x4 ADD PUSH2 0x4D0 SWAP1 PUSH2 0x183D JUMP JUMPDEST PUSH1 0x40 MLOAD DUP1 SWAP2 SUB SWAP1 REVERT JUMPDEST PUSH0 PUSH1 0x2 SLOAD GT ISZERO PUSH2 0x58D JUMPI PUSH1 0x5 PUSH0 DUP2 SLOAD DUP2 LT PUSH2 0x4F7 JUMPI PUSH2 0x4F6 PUSH2 0x185B JUMP JUMPDEST JUMPDEST SWAP1 PUSH0 MSTORE PUSH1 0x20 PUSH0 KECCAK256 ADD PUSH0 SWAP1 SLOAD SWAP1 PUSH2 0x100 EXP SWAP1 DIV PUSH20 0xFFFFFFFFFFFFFFFFFFFFFFFFFFFFFFFFFFFFFFFF AND PUSH20 0xFFFFFFFFFFFFFFFFFFFFFFFFFFFFFFFFFFFFFFFF AND CALLER PUSH20 0xFFFFFFFFFFFFFFFFFFFFFFFFFFFFFFFFFFFFFFFF AND SUB PUSH2 0x58C JUMPI PUSH1 0x40 MLOAD PUSH32 0x8C379A000000000000000000000000000000000000000000000000000000000 DUP2 MSTORE PUSH1 0x4 ADD PUSH2 0x583 SWAP1 PUSH2 0x18D2 JUMP JUMPDEST PUSH1 0x40 MLOAD DUP1 SWAP2 SUB SWAP1 REVERT JUMPDEST JUMPDEST CALLVALUE PUSH1 0x3 PUSH0 DUP3 DUP3 SLOAD PUSH2 0x59E SWAP2 SWAP1 PUSH2 0x191D JUMP JUMPDEST SWAP3 POP POP DUP2 SWAP1 SSTORE POP PUSH1 0x5 CALLER SWAP1 DUP1 PUSH1 0x1 DUP2 SLOAD ADD DUP1 DUP3 SSTORE DUP1 SWAP2 POP POP PUSH1 0x1 SWAP1 SUB SWAP1 PUSH0 MSTORE PUSH1 0x20 PUSH0 KECCAK256 ADD PUSH0 SWAP1 SWAP2 SWAP1 SWAP2 SWAP1 SWAP2 PUSH2 0x100 EXP DUP2 SLOAD DUP2 PUSH20 0xFFFFFFFFFFFFFFFFFFFFFFFFFFFFFFFFFFFFFFFF MUL NOT AND SWAP1 DUP4 PUSH20 0xFFFFFFFFFFFFFFFFFFFFFFFFFFFFFFFFFFFFFFFF AND MUL OR SWAP1 SSTORE POP PUSH1 0x2 PUSH0 DUP2 SLOAD DUP1 SWAP3 SWAP2 SWAP1 PUSH2 0x617 SWAP1 PUSH2 0x1950 JUMP JUMPDEST SWAP2 SWAP1 POP SSTORE POP PUSH1 0x1 PUSH0 SWAP1 SLOAD SWAP1 PUSH2 0x100 EXP SWAP1 DIV PUSH20 0xFFFFFFFFFFFFFFFFFFFFFFFFFFFFFFFFFFFFFFFF AND PUSH20 0xFFFFFFFFFFFFFFFFFFFFFFFFFFFFFFFFFFFFFFFF AND PUSH4 0xF4176B22 PUSH1 0x40 MLOAD DUP2 PUSH4 0xFFFFFFFF AND PUSH1 0xE0 SHL DUP2 MSTORE PUSH1 0x4 ADD PUSH0 PUSH1 0x40 MLOAD DUP1 DUP4 SUB DUP2 PUSH0 DUP8 DUP1 EXTCODESIZE ISZERO DUP1 ISZERO PUSH2 0x682 JUMPI PUSH0 DUP1 REVERT JUMPDEST POP GAS CALL ISZERO DUP1 ISZERO PUSH2 0x694 JUMPI RETURNDATASIZE PUSH0 DUP1 RETURNDATACOPY RETURNDATASIZE PUSH0 REVERT JUMPDEST POP POP POP POP CALLER PUSH20 0xFFFFFFFFFFFFFFFFFFFFFFFFFFFFFFFFFFFFFFFF AND PUSH32 0xF2AE205522024C14E5A7A26BA6D1FB1252DC8E161B5ABC79ED5795FD3C5B9261 PUSH1 0x40 MLOAD PUSH1 0x40 MLOAD DUP1 SWAP2 SUB SWAP1 LOG2 JUMP JUMPDEST PUSH1 0x6 SLOAD DUP2 JUMP JUMPDEST PUSH1 0x1 PUSH0 SWAP1 SLOAD SWAP1 PUSH2 0x100 EXP SWAP1 DIV PUSH20 0xFFFFFFFFFFFFFFFFFFFFFFFFFFFFFFFFFFFFFFFF AND DUP2 JUMP JUMPDEST PUSH1 0x1 PUSH0 SWAP1 SLOAD SWAP1 PUSH2 0x100 EXP SWAP1 DIV PUSH20 0xFFFFFFFFFFFFFFFFFFFFFFFFFFFFFFFFFFFFFFFF AND PUSH20 0xFFFFFFFFFFFFFFFFFFFFFFFFFFFFFFFFFFFFFFFF AND PUSH4 0x4F61FD68 PUSH1 0x40 MLOAD DUP2 PUSH4 0xFFFFFFFF AND PUSH1 0xE0 SHL DUP2 MSTORE PUSH1 0x4 ADD PUSH1 0x20 PUSH1 0x40 MLOAD DUP1 DUP4 SUB DUP2 DUP7 GAS STATICCALL ISZERO DUP1 ISZERO PUSH2 0x772 JUMPI RETURNDATASIZE PUSH0 DUP1 RETURNDATACOPY RETURNDATASIZE PUSH0 REVERT JUMPDEST POP POP POP POP PUSH1 0x40 MLOAD RETURNDATASIZE PUSH1 0x1F NOT PUSH1 0x1F DUP3 ADD AND DUP3 ADD DUP1 PUSH1 0x40 MSTORE POP DUP2 ADD SWAP1 PUSH2 0x796 SWAP2 SWAP1 PUSH2 0x19CC JUMP JUMPDEST PUSH2 0x7D5 JUMPI PUSH1 0x40 MLOAD PUSH32 0x8C379A000000000000000000000000000000000000000000000000000000000 DUP2 MSTORE PUSH1 0x4 ADD PUSH2 0x7CC SWAP1 PUSH2 0x1A41 JUMP JUMPDEST PUSH1 0x40 MLOAD DUP1 SWAP2 SUB SWAP1 REVERT JUMPDEST PUSH0 PUSH1 0x2 SLOAD GT PUSH2 0x819 JUMPI PUSH1 0x40 MLOAD PUSH32 0x8C379A000000000000000000000000000000000000000000000000000000000 DUP2 MSTORE PUSH1 0x4 ADD PUSH2 0x810 SWAP1 PUSH2 0x1AA9 JUMP JUMPDEST PUSH1 0x40 MLOAD DUP1 SWAP2 SUB SWAP1 REVERT JUMPDEST PUSH0 PUSH1 0x5 PUSH0 DUP2 SLOAD DUP2 LT PUSH2 0x82E JUMPI PUSH2 0x82D PUSH2 0x185B JUMP JUMPDEST JUMPDEST SWAP1 PUSH0 MSTORE PUSH1 0x20 PUSH0 KECCAK256 ADD PUSH0 SWAP1 SLOAD SWAP1 PUSH2 0x100 EXP SWAP1 DIV PUSH20 0xFFFFFFFFFFFFFFFFFFFFFFFFFFFFFFFFFFFFFFFF AND SWAP1 POP PUSH1 0x1 PUSH1 0x2 SLOAD SUB PUSH2 0x956 JUMPI PUSH1 0x5 PUSH0 DUP2 SLOAD DUP2 LT PUSH2 0x876 JUMPI PUSH2 0x875 PUSH2 0x185B JUMP JUMPDEST JUMPDEST SWAP1 PUSH0 MSTORE PUSH1 0x20 PUSH0 KECCAK256 ADD PUSH0 SWAP1 SLOAD SWAP1 PUSH2 0x100 EXP SWAP1 DIV PUSH20 0xFFFFFFFFFFFFFFFFFFFFFFFFFFFFFFFFFFFFFFFF AND PUSH20 0xFFFFFFFFFFFFFFFFFFFFFFFFFFFFFFFFFFFFFFFF AND CALLER PUSH20 0xFFFFFFFFFFFFFFFFFFFFFFFFFFFFFFFFFFFFFFFF AND EQ PUSH2 0x90B JUMPI PUSH1 0x40 MLOAD PUSH32 0x8C379A000000000000000000000000000000000000000000000000000000000 DUP2 MSTORE PUSH1 0x4 ADD PUSH2 0x902 SWAP1 PUSH2 0x1B11 JUMP JUMPDEST PUSH1 0x40 MLOAD DUP1 SWAP2 SUB SWAP1 REVERT JUMPDEST DUP1 PUSH20 0xFFFFFFFFFFFFFFFFFFFFFFFFFFFFFFFFFFFFFFFF AND PUSH2 0x8FC PUSH1 0x3 SLOAD SWAP1 DUP2 ISZERO MUL SWAP1 PUSH1 0x40 MLOAD PUSH0 PUSH1 0x40 MLOAD DUP1 DUP4 SUB DUP2 DUP6 DUP9 DUP9 CALL SWAP4 POP POP POP POP ISZERO DUP1 ISZERO PUSH2 0x950 JUMPI RETURNDATASIZE PUSH0 DUP1 RETURNDATACOPY RETURNDATASIZE PUSH0 REVERT JUMPDEST POP PUSH2 0xB57 JUMP JUMPDEST PUSH1 0x5 PUSH0 DUP2 SLOAD DUP2 LT PUSH2 0x96A JUMPI PUSH2 0x969 PUSH2 0x185B JUMP JUMPDEST JUMPDEST SWAP1 PUSH0 MSTORE PUSH1 0x20 PUSH0 KECCAK256 ADD PUSH0 SWAP1 SLOAD SWAP1 PUSH2 0x100 EXP SWAP1 DIV PUSH20 0xFFFFFFFFFFFFFFFFFFFFFFFFFFFFFFFFFFFFFFFF AND PUSH20 0xFFFFFFFFFFFFFFFFFFFFFFFFFFFFFFFFFFFFFFFF AND CALLER PUSH20 0xFFFFFFFFFFFFFFFFFFFFFFFFFFFFFFFFFFFFFFFF AND EQ DUP1 PUSH2 0xA32 JUMPI POP PUSH1 0x5 PUSH1 0x1 DUP2 SLOAD DUP2 LT PUSH2 0x9DB JUMPI PUSH2 0x9DA PUSH2 0x185B JUMP JUMPDEST JUMPDEST SWAP1 PUSH0 MSTORE PUSH1 0x20 PUSH0 KECCAK256 ADD PUSH0 SWAP1 SLOAD SWAP1 PUSH2 0x100 EXP SWAP1 DIV PUSH20 0xFFFFFFFFFFFFFFFFFFFFFFFFFFFFFFFFFFFFFFFF AND PUSH20 0xFFFFFFFFFFFFFFFFFFFFFFFFFFFFFFFFFFFFFFFF AND CALLER PUSH20 0xFFFFFFFFFFFFFFFFFFFFFFFFFFFFFFFFFFFFFFFF AND EQ JUMPDEST PUSH2 0xA71 JUMPI PUSH1 0x40 MLOAD PUSH32 0x8C379A000000000000000000000000000000000000000000000000000000000 DUP2 MSTORE PUSH1 0x4 ADD PUSH2 0xA68 SWAP1 PUSH2 0x1B79 JUMP JUMPDEST PUSH1 0x40 MLOAD DUP1 SWAP2 SUB SWAP1 REVERT JUMPDEST PUSH0 PUSH1 0x5 PUSH1 0x1 DUP2 SLOAD DUP2 LT PUSH2 0xA87 JUMPI PUSH2 0xA86 PUSH2 0x185B JUMP JUMPDEST JUMPDEST SWAP1 PUSH0 MSTORE PUSH1 0x20 PUSH0 KECCAK256 ADD PUSH0 SWAP1 SLOAD SWAP1 PUSH2 0x100 EXP SWAP1 DIV PUSH20 0xFFFFFFFFFFFFFFFFFFFFFFFFFFFFFFFFFFFFFFFF AND SWAP1 POP DUP2 PUSH20 0xFFFFFFFFFFFFFFFFFFFFFFFFFFFFFFFFFFFFFFFF AND PUSH2 0x8FC PUSH1 0x2 PUSH1 0x3 SLOAD PUSH2 0xADA SWAP2 SWAP1 PUSH2 0x1BC4 JUMP JUMPDEST SWAP1 DUP2 ISZERO MUL SWAP1 PUSH1 0x40 MLOAD PUSH0 PUSH1 0x40 MLOAD DUP1 DUP4 SUB DUP2 DUP6 DUP9 DUP9 CALL SWAP4 POP POP POP POP ISZERO DUP1 ISZERO PUSH2 0xB02 JUMPI RETURNDATASIZE PUSH0 DUP1 RETURNDATACOPY RETURNDATASIZE PUSH0 REVERT JUMPDEST POP DUP1 PUSH20 0xFFFFFFFFFFFFFFFFFFFFFFFFFFFFFFFFFFFFFFFF AND PUSH2 0x8FC PUSH1 0x2 PUSH1 0x3 SLOAD PUSH2 0xB2C SWAP2 SWAP1 PUSH2 0x1BC4 JUMP JUMPDEST SWAP1 DUP2 ISZERO MUL SWAP1 PUSH1 0x40 MLOAD PUSH0 PUSH1 0x40 MLOAD DUP1 DUP4 SUB DUP2 DUP6 DUP9 DUP9 CALL SWAP4 POP POP POP POP ISZERO DUP1 ISZERO PUSH2 0xB54 JUMPI RETURNDATASIZE PUSH0 DUP1 RETURNDATACOPY RETURNDATASIZE PUSH0 REVERT JUMPDEST POP POP JUMPDEST PUSH2 0xB5F PUSH2 0xF4C JUMP JUMPDEST POP JUMP JUMPDEST PUSH1 0x2 PUSH1 0x6 SLOAD EQ PUSH2 0xBA7 JUMPI PUSH1 0x40 MLOAD PUSH32 0x8C379A000000000000000000000000000000000000000000000000000000000 DUP2 MSTORE PUSH1 0x4 ADD PUSH2 0xB9E SWAP1 PUSH2 0x1C64 JUMP JUMPDEST PUSH1 0x40 MLOAD DUP1 SWAP2 SUB SWAP1 REVERT JUMPDEST PUSH0 DUP1 SLOAD SWAP1 PUSH2 0x100 EXP SWAP1 DIV PUSH20 0xFFFFFFFFFFFFFFFFFFFFFFFFFFFFFFFFFFFFFFFF AND PUSH20 0xFFFFFFFFFFFFFFFFFFFFFFFFFFFFFFFFFFFFFFFF AND PUSH4 0xAD487790 DUP3 CALLER PUSH1 0x40 MLOAD DUP4 PUSH4 0xFFFFFFFF AND PUSH1 0xE0 SHL DUP2 MSTORE PUSH1 0x4 ADD PUSH2 0xC01 SWAP3 SWAP2 SWAP1 PUSH2 0x1C91 JUMP JUMPDEST PUSH0 PUSH1 0x40 MLOAD DUP1 DUP4 SUB DUP2 PUSH0 DUP8 DUP1 EXTCODESIZE ISZERO DUP1 ISZERO PUSH2 0xC18 JUMPI PUSH0 DUP1 REVERT JUMPDEST POP GAS CALL ISZERO DUP1 ISZERO PUSH2 0xC2A JUMPI RETURNDATASIZE PUSH0 DUP1 RETURNDATACOPY RETURNDATASIZE PUSH0 REVERT JUMPDEST POP POP POP POP PUSH0 PUSH2 0xC38 DUP3 PUSH2 0xECE JUMP JUMPDEST SWAP1 POP DUP1 PUSH1 0xFF AND PUSH1 0x4 PUSH0 CALLER PUSH20 0xFFFFFFFFFFFFFFFFFFFFFFFFFFFFFFFFFFFFFFFF AND PUSH20 0xFFFFFFFFFFFFFFFFFFFFFFFFFFFFFFFFFFFFFFFF AND DUP2 MSTORE PUSH1 0x20 ADD SWAP1 DUP2 MSTORE PUSH1 0x20 ADD PUSH0 KECCAK256 DUP2 SWAP1 SSTORE POP PUSH1 0x7 PUSH0 DUP2 SLOAD DUP1 SWAP3 SWAP2 SWAP1 PUSH2 0xC91 SWAP1 PUSH2 0x1950 JUMP JUMPDEST SWAP2 SWAP1 POP SSTORE POP PUSH1 0x2 PUSH1 0x7 SLOAD SUB PUSH2 0xCA9 JUMPI PUSH2 0xCA8 PUSH2 0x103B JUMP JUMPDEST JUMPDEST PUSH1 0x1 PUSH0 SWAP1 SLOAD SWAP1 PUSH2 0x100 EXP SWAP1 DIV PUSH20 0xFFFFFFFFFFFFFFFFFFFFFFFFFFFFFFFFFFFFFFFF AND PUSH20 0xFFFFFFFFFFFFFFFFFFFFFFFFFFFFFFFFFFFFFFFF AND PUSH4 0xF4176B22 PUSH1 0x40 MLOAD DUP2 PUSH4 0xFFFFFFFF AND PUSH1 0xE0 SHL DUP2 MSTORE PUSH1 0x4 ADD PUSH0 PUSH1 0x40 MLOAD DUP1 DUP4 SUB DUP2 PUSH0 DUP8 DUP1 EXTCODESIZE ISZERO DUP1 ISZERO PUSH2 0xD0F JUMPI PUSH0 DUP1 REVERT JUMPDEST POP GAS CALL ISZERO DUP1 ISZERO PUSH2 0xD21 JUMPI RETURNDATASIZE PUSH0 DUP1 RETURNDATACOPY RETURNDATASIZE PUSH0 REVERT JUMPDEST POP POP POP POP POP POP JUMP JUMPDEST PUSH1 0x2 SLOAD DUP2 JUMP JUMPDEST PUSH1 0x7 SLOAD DUP2 JUMP JUMPDEST PUSH0 DUP1 SLOAD SWAP1 PUSH2 0x100 EXP SWAP1 DIV PUSH20 0xFFFFFFFFFFFFFFFFFFFFFFFFFFFFFFFFFFFFFFFF AND DUP2 JUMP JUMPDEST PUSH1 0x4 PUSH1 0x20 MSTORE DUP1 PUSH0 MSTORE PUSH1 0x40 PUSH0 KECCAK256 PUSH0 SWAP2 POP SWAP1 POP SLOAD DUP2 JUMP JUMPDEST PUSH1 0x2 DUP1 SLOAD EQ PUSH2 0xDB1 JUMPI PUSH1 0x40 MLOAD PUSH32 0x8C379A000000000000000000000000000000000000000000000000000000000 DUP2 MSTORE PUSH1 0x4 ADD PUSH2 0xDA8 SWAP1 PUSH2 0x1D02 JUMP JUMPDEST PUSH1 0x40 MLOAD DUP1 SWAP2 SUB SWAP1 REVERT JUMPDEST PUSH0 DUP1 SLOAD SWAP1 PUSH2 0x100 EXP SWAP1 DIV PUSH20 0xFFFFFFFFFFFFFFFFFFFFFFFFFFFFFFFFFFFFFFFF AND PUSH20 0xFFFFFFFFFFFFFFFFFFFFFFFFFFFFFFFFFFFFFFFF AND PUSH4 0x5A746101 DUP3 CALLER PUSH1 0x40 MLOAD DUP4 PUSH4 0xFFFFFFFF AND PUSH1 0xE0 SHL DUP2 MSTORE PUSH1 0x4 ADD PUSH2 0xE0B SWAP3 SWAP2 SWAP1 PUSH2 0x1C91 JUMP JUMPDEST PUSH0 PUSH1 0x40 MLOAD DUP1 DUP4 SUB DUP2 PUSH0 DUP8 DUP1 EXTCODESIZE ISZERO DUP1 ISZERO PUSH2 0xE22 JUMPI PUSH0 DUP1 REVERT JUMPDEST POP GAS CALL ISZERO DUP1 ISZERO PUSH2 0xE34 JUMPI RETURNDATASIZE PUSH0 DUP1 RETURNDATACOPY RETURNDATASIZE PUSH0 REVERT JUMPDEST POP POP POP POP PUSH1 0x6 PUSH0 DUP2 SLOAD DUP1 SWAP3 SWAP2 SWAP1 PUSH2 0xE4A SWAP1 PUSH2 0x1950 JUMP JUMPDEST SWAP2 SWAP1 POP SSTORE POP PUSH1 0x1 PUSH0 SWAP1 SLOAD SWAP1 PUSH2 0x100 EXP SWAP1 DIV PUSH20 0xFFFFFFFFFFFFFFFFFFFFFFFFFFFFFFFFFFFFFFFF AND PUSH20 0xFFFFFFFFFFFFFFFFFFFFFFFFFFFFFFFFFFFFFFFF AND PUSH4 0xF4176B22 PUSH1 0x40 MLOAD DUP2 PUSH4 0xFFFFFFFF AND PUSH1 0xE0 SHL DUP2 MSTORE PUSH1 0x4 ADD PUSH0 PUSH1 0x40 MLOAD DUP1 DUP4 SUB DUP2 PUSH0 DUP8 DUP1 EXTCODESIZE ISZERO DUP1 ISZERO PUSH2 0xEB5 JUMPI PUSH0 DUP1 REVERT JUMPDEST POP GAS CALL ISZERO DUP1 ISZERO PUSH2 0xEC7 JUMPI RETURNDATASIZE PUSH0 DUP1 RETURNDATACOPY RETURNDATASIZE PUSH0 REVERT JUMPDEST POP POP POP POP POP JUMP JUMPDEST PUSH0 DUP1 PUSH1 0x5 DUP4 PUSH1 0x1 PUSH1 0x20 PUSH2 0xEE1 SWAP2 SWAP1 PUSH2 0x1D20 JUMP JUMPDEST PUSH1 0xFF AND PUSH1 0x20 DUP2 LT PUSH2 0xEF5 JUMPI PUSH2 0xEF4 PUSH2 0x185B JUMP JUMPDEST JUMPDEST BYTE PUSH1 0xF8 SHL PUSH1 0xF8 SHR PUSH2 0xF06 SWAP2 SWAP1 PUSH2 0x1D54 JUMP JUMPDEST SWAP1 POP DUP1 SWAP2 POP POP SWAP2 SWAP1 POP JUMP JUMPDEST PUSH1 0x5 DUP2 DUP2 SLOAD DUP2 LT PUSH2 0xF20 JUMPI PUSH0 DUP1 REVERT JUMPDEST SWAP1 PUSH0 MSTORE PUSH1 0x20 PUSH0 KECCAK256 ADD PUSH0 SWAP2 POP SLOAD SWAP1 PUSH2 0x100 EXP SWAP1 DIV PUSH20 0xFFFFFFFFFFFFFFFFFFFFFFFFFFFFFFFFFFFFFFFF AND DUP2 JUMP JUMPDEST PUSH0 PUSH1 0x2 DUP2 SWAP1 SSTORE POP PUSH0 PUSH1 0x3 DUP2 SWAP1 SSTORE POP PUSH0 PUSH1 0x6 DUP2 SWAP1 SSTORE POP PUSH0 PUSH1 0x7 DUP2 SWAP1 SSTORE POP PUSH32 0xC6976B6410888B44C765590C8368EB4A60E0431D4AD683C8A53EA85A8479F22E PUSH1 0x40 MLOAD PUSH1 0x40 MLOAD DUP1 SWAP2 SUB SWAP1 LOG1 PUSH0 JUMPDEST PUSH1 0x5 DUP1 SLOAD SWAP1 POP DUP2 LT ISZERO PUSH2 0x102B JUMPI PUSH1 0x4 PUSH0 PUSH1 0x5 DUP4 DUP2 SLOAD DUP2 LT PUSH2 0xFBA JUMPI PUSH2 0xFB9 PUSH2 0x185B JUMP JUMPDEST JUMPDEST SWAP1 PUSH0 MSTORE PUSH1 0x20 PUSH0 KECCAK256 ADD PUSH0 SWAP1 SLOAD SWAP1 PUSH2 0x100 EXP SWAP1 DIV PUSH20 0xFFFFFFFFFFFFFFFFFFFFFFFFFFFFFFFFFFFFFFFF AND PUSH20 0xFFFFFFFFFFFFFFFFFFFFFFFFFFFFFFFFFFFFFFFF AND PUSH20 0xFFFFFFFFFFFFFFFFFFFFFFFFFFFFFFFFFFFFFFFF AND DUP2 MSTORE PUSH1 0x20 ADD SWAP1 DUP2 MSTORE PUSH1 0x20 ADD PUSH0 KECCAK256 PUSH0 SWAP1 SSTORE DUP1 DUP1 PUSH1 0x1 ADD SWAP2 POP POP PUSH2 0xF96 JUMP JUMPDEST POP PUSH1 0x5 PUSH0 PUSH2 0x1039 SWAP2 SWAP1 PUSH2 0x1464 JUMP JUMPDEST JUMP JUMPDEST PUSH0 PUSH1 0x4 PUSH0 PUSH1 0x5 PUSH0 DUP2 SLOAD DUP2 LT PUSH2 0x1053 JUMPI PUSH2 0x1052 PUSH2 0x185B JUMP JUMPDEST JUMPDEST SWAP1 PUSH0 MSTORE PUSH1 0x20 PUSH0 KECCAK256 ADD PUSH0 SWAP1 SLOAD SWAP1 PUSH2 0x100 EXP SWAP1 DIV PUSH20 0xFFFFFFFFFFFFFFFFFFFFFFFFFFFFFFFFFFFFFFFF AND PUSH20 0xFFFFFFFFFFFFFFFFFFFFFFFFFFFFFFFFFFFFFFFF AND PUSH20 0xFFFFFFFFFFFFFFFFFFFFFFFFFFFFFFFFFFFFFFFF AND DUP2 MSTORE PUSH1 0x20 ADD SWAP1 DUP2 MSTORE PUSH1 0x20 ADD PUSH0 KECCAK256 SLOAD SWAP1 POP PUSH0 PUSH1 0x4 PUSH0 PUSH1 0x5 PUSH1 0x1 DUP2 SLOAD DUP2 LT PUSH2 0x10D0 JUMPI PUSH2 0x10CF PUSH2 0x185B JUMP JUMPDEST JUMPDEST SWAP1 PUSH0 MSTORE PUSH1 0x20 PUSH0 KECCAK256 ADD PUSH0 SWAP1 SLOAD SWAP1 PUSH2 0x100 EXP SWAP1 DIV PUSH20 0xFFFFFFFFFFFFFFFFFFFFFFFFFFFFFFFFFFFFFFFF AND PUSH20 0xFFFFFFFFFFFFFFFFFFFFFFFFFFFFFFFFFFFFFFFF AND PUSH20 0xFFFFFFFFFFFFFFFFFFFFFFFFFFFFFFFFFFFFFFFF AND DUP2 MSTORE PUSH1 0x20 ADD SWAP1 DUP2 MSTORE PUSH1 0x20 ADD PUSH0 KECCAK256 SLOAD SWAP1 POP PUSH0 PUSH1 0x5 PUSH0 DUP2 SLOAD DUP2 LT PUSH2 0x1149 JUMPI PUSH2 0x1148 PUSH2 0x185B JUMP JUMPDEST JUMPDEST SWAP1 PUSH0 MSTORE PUSH1 0x20 PUSH0 KECCAK256 ADD PUSH0 SWAP1 SLOAD SWAP1 PUSH2 0x100 EXP SWAP1 DIV PUSH20 0xFFFFFFFFFFFFFFFFFFFFFFFFFFFFFFFFFFFFFFFF AND SWAP1 POP PUSH0 PUSH1 0x5 PUSH1 0x1 DUP2 SLOAD DUP2 LT PUSH2 0x1189 JUMPI PUSH2 0x1188 PUSH2 0x185B JUMP JUMPDEST JUMPDEST SWAP1 PUSH0 MSTORE PUSH1 0x20 PUSH0 KECCAK256 ADD PUSH0 SWAP1 SLOAD SWAP1 PUSH2 0x100 EXP SWAP1 DIV PUSH20 0xFFFFFFFFFFFFFFFFFFFFFFFFFFFFFFFFFFFFFFFF AND SWAP1 POP PUSH2 0x11BD DUP5 DUP5 PUSH2 0x13BB JUMP JUMPDEST ISZERO PUSH2 0x125D JUMPI DUP2 PUSH20 0xFFFFFFFFFFFFFFFFFFFFFFFFFFFFFFFFFFFFFFFF AND PUSH2 0x8FC PUSH1 0x3 SLOAD SWAP1 DUP2 ISZERO MUL SWAP1 PUSH1 0x40 MLOAD PUSH0 PUSH1 0x40 MLOAD DUP1 DUP4 SUB DUP2 DUP6 DUP9 DUP9 CALL SWAP4 POP POP POP POP ISZERO DUP1 ISZERO PUSH2 0x1207 JUMPI RETURNDATASIZE PUSH0 DUP1 RETURNDATACOPY RETURNDATASIZE PUSH0 REVERT JUMPDEST POP DUP2 PUSH20 0xFFFFFFFFFFFFFFFFFFFFFFFFFFFFFFFFFFFFFFFF AND PUSH32 0x9C2270628A9B29D30AE96B6C4C14ED646EE134FEBDCE38A5B77F2BDE9CEA2E20 PUSH1 0x3 SLOAD PUSH1 0x40 MLOAD PUSH2 0x1250 SWAP2 SWAP1 PUSH2 0x14B5 JUMP JUMPDEST PUSH1 0x40 MLOAD DUP1 SWAP2 SUB SWAP1 LOG2 PUSH2 0x13AD JUMP JUMPDEST PUSH2 0x1267 DUP4 DUP6 PUSH2 0x13BB JUMP JUMPDEST ISZERO PUSH2 0x1307 JUMPI DUP1 PUSH20 0xFFFFFFFFFFFFFFFFFFFFFFFFFFFFFFFFFFFFFFFF AND PUSH2 0x8FC PUSH1 0x3 SLOAD SWAP1 DUP2 ISZERO MUL SWAP1 PUSH1 0x40 MLOAD PUSH0 PUSH1 0x40 MLOAD DUP1 DUP4 SUB DUP2 DUP6 DUP9 DUP9 CALL SWAP4 POP POP POP POP ISZERO DUP1 ISZERO PUSH2 0x12B1 JUMPI RETURNDATASIZE PUSH0 DUP1 RETURNDATACOPY RETURNDATASIZE PUSH0 REVERT JUMPDEST POP DUP1 PUSH20 0xFFFFFFFFFFFFFFFFFFFFFFFFFFFFFFFFFFFFFFFF AND PUSH32 0x9C2270628A9B29D30AE96B6C4C14ED646EE134FEBDCE38A5B77F2BDE9CEA2E20 PUSH1 0x3 SLOAD PUSH1 0x40 MLOAD PUSH2 0x12FA SWAP2 SWAP1 PUSH2 0x14B5 JUMP JUMPDEST PUSH1 0x40 MLOAD DUP1 SWAP2 SUB SWAP1 LOG2 PUSH2 0x13AC JUMP JUMPDEST DUP2 PUSH20 0xFFFFFFFFFFFFFFFFFFFFFFFFFFFFFFFFFFFFFFFF AND PUSH2 0x8FC PUSH1 0x2 PUSH1 0x3 SLOAD PUSH2 0x1330 SWAP2 SWAP1 PUSH2 0x1BC4 JUMP JUMPDEST SWAP1 DUP2 ISZERO MUL SWAP1 PUSH1 0x40 MLOAD PUSH0 PUSH1 0x40 MLOAD DUP1 DUP4 SUB DUP2 DUP6 DUP9 DUP9 CALL SWAP4 POP POP POP POP ISZERO DUP1 ISZERO PUSH2 0x1358 JUMPI RETURNDATASIZE PUSH0 DUP1 RETURNDATACOPY RETURNDATASIZE PUSH0 REVERT JUMPDEST POP DUP1 PUSH20 0xFFFFFFFFFFFFFFFFFFFFFFFFFFFFFFFFFFFFFFFF AND PUSH2 0x8FC PUSH1 0x2 PUSH1 0x3 SLOAD PUSH2 0x1382 SWAP2 SWAP1 PUSH2 0x1BC4 JUMP JUMPDEST SWAP1 DUP2 ISZERO MUL SWAP1 PUSH1 0x40 MLOAD PUSH0 PUSH1 0x40 MLOAD DUP1 DUP4 SUB DUP2 DUP6 DUP9 DUP9 CALL SWAP4 POP POP POP POP ISZERO DUP1 ISZERO PUSH2 0x13AA JUMPI RETURNDATASIZE PUSH0 DUP1 RETURNDATACOPY RETURNDATASIZE PUSH0 REVERT JUMPDEST POP JUMPDEST JUMPDEST PUSH2 0x13B5 PUSH2 0xF4C JUMP JUMPDEST POP POP POP POP JUMP JUMPDEST PUSH0 DUP1 DUP4 EQ DUP1 ISZERO PUSH2 0x13D6 JUMPI POP PUSH1 0x2 DUP3 EQ DUP1 PUSH2 0x13D5 JUMPI POP PUSH1 0x3 DUP3 EQ JUMPDEST JUMPDEST DUP1 PUSH2 0x13F7 JUMPI POP PUSH1 0x1 DUP4 EQ DUP1 ISZERO PUSH2 0x13F6 JUMPI POP PUSH0 DUP3 EQ DUP1 PUSH2 0x13F5 JUMPI POP PUSH1 0x4 DUP3 EQ JUMPDEST JUMPDEST JUMPDEST DUP1 PUSH2 0x1419 JUMPI POP PUSH1 0x2 DUP4 EQ DUP1 ISZERO PUSH2 0x1418 JUMPI POP PUSH1 0x1 DUP3 EQ DUP1 PUSH2 0x1417 JUMPI POP PUSH1 0x3 DUP3 EQ JUMPDEST JUMPDEST JUMPDEST DUP1 PUSH2 0x143B JUMPI POP PUSH1 0x3 DUP4 EQ DUP1 ISZERO PUSH2 0x143A JUMPI POP PUSH1 0x1 DUP3 EQ DUP1 PUSH2 0x1439 JUMPI POP PUSH1 0x4 DUP3 EQ JUMPDEST JUMPDEST JUMPDEST DUP1 PUSH2 0x145C JUMPI POP PUSH1 0x4 DUP4 EQ DUP1 ISZERO PUSH2 0x145B JUMPI POP PUSH0 DUP3 EQ DUP1 PUSH2 0x145A JUMPI POP PUSH1 0x2 DUP3 EQ JUMPDEST JUMPDEST JUMPDEST SWAP1 POP SWAP3 SWAP2 POP POP JUMP JUMPDEST POP DUP1 SLOAD PUSH0 DUP3 SSTORE SWAP1 PUSH0 MSTORE PUSH1 0x20 PUSH0 KECCAK256 SWAP1 DUP2 ADD SWAP1 PUSH2 0x147F SWAP2 SWAP1 PUSH2 0x1482 JUMP JUMPDEST POP JUMP JUMPDEST JUMPDEST DUP1 DUP3 GT ISZERO PUSH2 0x1499 JUMPI PUSH0 DUP2 PUSH0 SWAP1 SSTORE POP PUSH1 0x1 ADD PUSH2 0x1483 JUMP JUMPDEST POP SWAP1 JUMP JUMPDEST PUSH0 DUP2 SWAP1 POP SWAP2 SWAP1 POP JUMP JUMPDEST PUSH2 0x14AF DUP2 PUSH2 0x149D JUMP JUMPDEST DUP3 MSTORE POP POP JUMP JUMPDEST PUSH0 PUSH1 0x20 DUP3 ADD SWAP1 POP PUSH2 0x14C8 PUSH0 DUP4 ADD DUP5 PUSH2 0x14A6 JUMP JUMPDEST SWAP3 SWAP2 POP POP JUMP JUMPDEST PUSH0 PUSH20 0xFFFFFFFFFFFFFFFFFFFFFFFFFFFFFFFFFFFFFFFF DUP3 AND SWAP1 POP SWAP2 SWAP1 POP JUMP JUMPDEST PUSH0 DUP2 SWAP1 POP SWAP2 SWAP1 POP JUMP JUMPDEST PUSH0 PUSH2 0x1510 PUSH2 0x150B PUSH2 0x1506 DUP5 PUSH2 0x14CE JUMP JUMPDEST PUSH2 0x14ED JUMP JUMPDEST PUSH2 0x14CE JUMP JUMPDEST SWAP1 POP SWAP2 SWAP1 POP JUMP JUMPDEST PUSH0 PUSH2 0x1521 DUP3 PUSH2 0x14F6 JUMP JUMPDEST SWAP1 POP SWAP2 SWAP1 POP JUMP JUMPDEST PUSH0 PUSH2 0x1532 DUP3 PUSH2 0x1517 JUMP JUMPDEST SWAP1 POP SWAP2 SWAP1 POP JUMP JUMPDEST PUSH2 0x1542 DUP2 PUSH2 0x1528 JUMP JUMPDEST DUP3 MSTORE POP POP JUMP JUMPDEST PUSH0 PUSH1 0x20 DUP3 ADD SWAP1 POP PUSH2 0x155B PUSH0 DUP4 ADD DUP5 PUSH2 0x1539 JUMP JUMPDEST SWAP3 SWAP2 POP POP JUMP JUMPDEST PUSH0 DUP1 REVERT JUMPDEST PUSH0 DUP2 SWAP1 POP SWAP2 SWAP1 POP JUMP JUMPDEST PUSH2 0x1577 DUP2 PUSH2 0x1565 JUMP JUMPDEST DUP2 EQ PUSH2 0x1581 JUMPI PUSH0 DUP1 REVERT JUMPDEST POP JUMP JUMPDEST PUSH0 DUP2 CALLDATALOAD SWAP1 POP PUSH2 0x1592 DUP2 PUSH2 0x156E JUMP JUMPDEST SWAP3 SWAP2 POP POP JUMP JUMPDEST PUSH0 PUSH1 0x20 DUP3 DUP5 SUB SLT ISZERO PUSH2 0x15AD JUMPI PUSH2 0x15AC PUSH2 0x1561 JUMP JUMPDEST JUMPDEST PUSH0 PUSH2 0x15BA DUP5 DUP3 DUP6 ADD PUSH2 0x1584 JUMP JUMPDEST SWAP2 POP POP SWAP3 SWAP2 POP POP JUMP JUMPDEST PUSH0 PUSH2 0x15CD DUP3 PUSH2 0x1517 JUMP JUMPDEST SWAP1 POP SWAP2 SWAP1 POP JUMP JUMPDEST PUSH2 0x15DD DUP2 PUSH2 0x15C3 JUMP JUMPDEST DUP3 MSTORE POP POP JUMP JUMPDEST PUSH0 PUSH1 0x20 DUP3 ADD SWAP1 POP PUSH2 0x15F6 PUSH0 DUP4 ADD DUP5 PUSH2 0x15D4 JUMP JUMPDEST SWAP3 SWAP2 POP POP JUMP JUMPDEST PUSH0 PUSH2 0x1606 DUP3 PUSH2 0x14CE JUMP JUMPDEST SWAP1 POP SWAP2 SWAP1 POP JUMP JUMPDEST PUSH2 0x1616 DUP2 PUSH2 0x15FC JUMP JUMPDEST DUP2 EQ PUSH2 0x1620 JUMPI PUSH0 DUP1 REVERT JUMPDEST POP JUMP JUMPDEST PUSH0 DUP2 CALLDATALOAD SWAP1 POP PUSH2 0x1631 DUP2 PUSH2 0x160D JUMP JUMPDEST SWAP3 SWAP2 POP POP JUMP JUMPDEST PUSH0 PUSH1 0x20 DUP3 DUP5 SUB SLT ISZERO PUSH2 0x164C JUMPI PUSH2 0x164B PUSH2 0x1561 JUMP JUMPDEST JUMPDEST PUSH0 PUSH2 0x1659 DUP5 DUP3 DUP6 ADD PUSH2 0x1623 JUMP JUMPDEST SWAP2 POP POP SWAP3 SWAP2 POP POP JUMP JUMPDEST PUSH0 PUSH1 0xFF DUP3 AND SWAP1 POP SWAP2 SWAP1 POP JUMP JUMPDEST PUSH2 0x1677 DUP2 PUSH2 0x1662 JUMP JUMPDEST DUP3 MSTORE POP POP JUMP JUMPDEST PUSH0 PUSH1 0x20 DUP3 ADD SWAP1 POP PUSH2 0x1690 PUSH0 DUP4 ADD DUP5 PUSH2 0x166E JUMP JUMPDEST SWAP3 SWAP2 POP POP JUMP JUMPDEST PUSH2 0x169F DUP2 PUSH2 0x149D JUMP JUMPDEST DUP2 EQ PUSH2 0x16A9 JUMPI PUSH0 DUP1 REVERT JUMPDEST POP JUMP JUMPDEST PUSH0 DUP2 CALLDATALOAD SWAP1 POP PUSH2 0x16BA DUP2 PUSH2 0x1696 JUMP JUMPDEST SWAP3 SWAP2 POP POP JUMP JUMPDEST PUSH0 PUSH1 0x20 DUP3 DUP5 SUB SLT ISZERO PUSH2 0x16D5 JUMPI PUSH2 0x16D4 PUSH2 0x1561 JUMP JUMPDEST JUMPDEST PUSH0 PUSH2 0x16E2 DUP5 DUP3 DUP6 ADD PUSH2 0x16AC JUMP JUMPDEST SWAP2 POP POP SWAP3 SWAP2 POP POP JUMP JUMPDEST PUSH2 0x16F4 DUP2 PUSH2 0x15FC JUMP JUMPDEST DUP3 MSTORE POP POP JUMP JUMPDEST PUSH0 PUSH1 0x20 DUP3 ADD SWAP1 POP PUSH2 0x170D PUSH0 DUP4 ADD DUP5 PUSH2 0x16EB JUMP JUMPDEST SWAP3 SWAP2 POP POP JUMP JUMPDEST PUSH0 DUP3 DUP3 MSTORE PUSH1 0x20 DUP3 ADD SWAP1 POP SWAP3 SWAP2 POP POP JUMP JUMPDEST PUSH32 0x556E617574686F72697A6564206163636F756E74000000000000000000000000 PUSH0 DUP3 ADD MSTORE POP JUMP JUMPDEST PUSH0 PUSH2 0x1757 PUSH1 0x14 DUP4 PUSH2 0x1713 JUMP JUMPDEST SWAP2 POP PUSH2 0x1762 DUP3 PUSH2 0x1723 JUMP JUMPDEST PUSH1 0x20 DUP3 ADD SWAP1 POP SWAP2 SWAP1 POP JUMP JUMPDEST PUSH0 PUSH1 0x20 DUP3 ADD SWAP1 POP DUP2 DUP2 SUB PUSH0 DUP4 ADD MSTORE PUSH2 0x1784 DUP2 PUSH2 0x174B JUMP JUMPDEST SWAP1 POP SWAP2 SWAP1 POP JUMP JUMPDEST PUSH32 0x416C7265616479203220706C61796572732E0000000000000000000000000000 PUSH0 DUP3 ADD MSTORE POP JUMP JUMPDEST PUSH0 PUSH2 0x17BF PUSH1 0x12 DUP4 PUSH2 0x1713 JUMP JUMPDEST SWAP2 POP PUSH2 0x17CA DUP3 PUSH2 0x178B JUMP JUMPDEST PUSH1 0x20 DUP3 ADD SWAP1 POP SWAP2 SWAP1 POP JUMP JUMPDEST PUSH0 PUSH1 0x20 DUP3 ADD SWAP1 POP DUP2 DUP2 SUB PUSH0 DUP4 ADD MSTORE PUSH2 0x17EC DUP2 PUSH2 0x17B3 JUMP JUMPDEST SWAP1 POP SWAP2 SWAP1 POP JUMP JUMPDEST PUSH32 0x4D7573742073656E642031204554482E00000000000000000000000000000000 PUSH0 DUP3 ADD MSTORE POP JUMP JUMPDEST PUSH0 PUSH2 0x1827 PUSH1 0x10 DUP4 PUSH2 0x1713 JUMP JUMPDEST SWAP2 POP PUSH2 0x1832 DUP3 PUSH2 0x17F3 JUMP JUMPDEST PUSH1 0x20 DUP3 ADD SWAP1 POP SWAP2 SWAP1 POP JUMP JUMPDEST PUSH0 PUSH1 0x20 DUP3 ADD SWAP1 POP DUP2 DUP2 SUB PUSH0 DUP4 ADD MSTORE PUSH2 0x1854 DUP2 PUSH2 0x181B JUMP JUMPDEST SWAP1 POP SWAP2 SWAP1 POP JUMP JUMPDEST PUSH32 0x4E487B7100000000000000000000000000000000000000000000000000000000 PUSH0 MSTORE PUSH1 0x32 PUSH1 0x4 MSTORE PUSH1 0x24 PUSH0 REVERT JUMPDEST PUSH32 0x506C6179657220616C72656164792061646465642E0000000000000000000000 PUSH0 DUP3 ADD MSTORE POP JUMP JUMPDEST PUSH0 PUSH2 0x18BC PUSH1 0x15 DUP4 PUSH2 0x1713 JUMP JUMPDEST SWAP2 POP PUSH2 0x18C7 DUP3 PUSH2 0x1888 JUMP JUMPDEST PUSH1 0x20 DUP3 ADD SWAP1 POP SWAP2 SWAP1 POP JUMP JUMPDEST PUSH0 PUSH1 0x20 DUP3 ADD SWAP1 POP DUP2 DUP2 SUB PUSH0 DUP4 ADD MSTORE PUSH2 0x18E9 DUP2 PUSH2 0x18B0 JUMP JUMPDEST SWAP1 POP SWAP2 SWAP1 POP JUMP JUMPDEST PUSH32 0x4E487B7100000000000000000000000000000000000000000000000000000000 PUSH0 MSTORE PUSH1 0x11 PUSH1 0x4 MSTORE PUSH1 0x24 PUSH0 REVERT JUMPDEST PUSH0 PUSH2 0x1927 DUP3 PUSH2 0x149D JUMP JUMPDEST SWAP2 POP PUSH2 0x1932 DUP4 PUSH2 0x149D JUMP JUMPDEST SWAP3 POP DUP3 DUP3 ADD SWAP1 POP DUP1 DUP3 GT ISZERO PUSH2 0x194A JUMPI PUSH2 0x1949 PUSH2 0x18F0 JUMP JUMPDEST JUMPDEST SWAP3 SWAP2 POP POP JUMP JUMPDEST PUSH0 PUSH2 0x195A DUP3 PUSH2 0x149D JUMP JUMPDEST SWAP2 POP PUSH32 0xFFFFFFFFFFFFFFFFFFFFFFFFFFFFFFFFFFFFFFFFFFFFFFFFFFFFFFFFFFFFFFFF DUP3 SUB PUSH2 0x198C JUMPI PUSH2 0x198B PUSH2 0x18F0 JUMP JUMPDEST JUMPDEST PUSH1 0x1 DUP3 ADD SWAP1 POP SWAP2 SWAP1 POP JUMP JUMPDEST PUSH0 DUP2 ISZERO ISZERO SWAP1 POP SWAP2 SWAP1 POP JUMP JUMPDEST PUSH2 0x19AB DUP2 PUSH2 0x1997 JUMP JUMPDEST DUP2 EQ PUSH2 0x19B5 JUMPI PUSH0 DUP1 REVERT JUMPDEST POP JUMP JUMPDEST PUSH0 DUP2 MLOAD SWAP1 POP PUSH2 0x19C6 DUP2 PUSH2 0x19A2 JUMP JUMPDEST SWAP3 SWAP2 POP POP JUMP JUMPDEST PUSH0 PUSH1 0x20 DUP3 DUP5 SUB SLT ISZERO PUSH2 0x19E1 JUMPI PUSH2 0x19E0 PUSH2 0x1561 JUMP JUMPDEST JUMPDEST PUSH0 PUSH2 0x19EE DUP5 DUP3 DUP6 ADD PUSH2 0x19B8 JUMP JUMPDEST SWAP2 POP POP SWAP3 SWAP2 POP POP JUMP JUMPDEST PUSH32 0x526566756E6420706572696F64206E6F7420656C617073656400000000000000 PUSH0 DUP3 ADD MSTORE POP JUMP JUMPDEST PUSH0 PUSH2 0x1A2B PUSH1 0x19 DUP4 PUSH2 0x1713 JUMP JUMPDEST SWAP2 POP PUSH2 0x1A36 DUP3 PUSH2 0x19F7 JUMP JUMPDEST PUSH1 0x20 DUP3 ADD SWAP1 POP SWAP2 SWAP1 POP JUMP JUMPDEST PUSH0 PUSH1 0x20 DUP3 ADD SWAP1 POP DUP2 DUP2 SUB PUSH0 DUP4 ADD MSTORE PUSH2 0x1A58 DUP2 PUSH2 0x1A1F JUMP JUMPDEST SWAP1 POP SWAP2 SWAP1 POP JUMP JUMPDEST PUSH32 0x4E6F206163746976652067616D65000000000000000000000000000000000000 PUSH0 DUP3 ADD MSTORE POP JUMP JUMPDEST PUSH0 PUSH2 0x1A93 PUSH1 0xE DUP4 PUSH2 0x1713 JUMP JUMPDEST SWAP2 POP PUSH2 0x1A9E DUP3 PUSH2 0x1A5F JUMP JUMPDEST PUSH1 0x20 DUP3 ADD SWAP1 POP SWAP2 SWAP1 POP JUMP JUMPDEST PUSH0 PUSH1 0x20 DUP3 ADD SWAP1 POP DUP2 DUP2 SUB PUSH0 DUP4 ADD MSTORE PUSH2 0x1AC0 DUP2 PUSH2 0x1A87 JUMP JUMPDEST SWAP1 POP SWAP2 SWAP1 POP JUMP JUMPDEST PUSH32 0x4F6E6C7920706C617965722063616E20726566756E6400000000000000000000 PUSH0 DUP3 ADD MSTORE POP JUMP JUMPDEST PUSH0 PUSH2 0x1AFB PUSH1 0x16 DUP4 PUSH2 0x1713 JUMP JUMPDEST SWAP2 POP PUSH2 0x1B06 DUP3 PUSH2 0x1AC7 JUMP JUMPDEST PUSH1 0x20 DUP3 ADD SWAP1 POP SWAP2 SWAP1 POP JUMP JUMPDEST PUSH0 PUSH1 0x20 DUP3 ADD SWAP1 POP DUP2 DUP2 SUB PUSH0 DUP4 ADD MSTORE PUSH2 0x1B28 DUP2 PUSH2 0x1AEF JUMP JUMPDEST SWAP1 POP SWAP2 SWAP1 POP JUMP JUMPDEST PUSH32 0x556E617574686F72697A656420726566756E6400000000000000000000000000 PUSH0 DUP3 ADD MSTORE POP JUMP JUMPDEST PUSH0 PUSH2 0x1B63 PUSH1 0x13 DUP4 PUSH2 0x1713 JUMP JUMPDEST SWAP2 POP PUSH2 0x1B6E DUP3 PUSH2 0x1B2F JUMP JUMPDEST PUSH1 0x20 DUP3 ADD SWAP1 POP SWAP2 SWAP1 POP JUMP JUMPDEST PUSH0 PUSH1 0x20 DUP3 ADD SWAP1 POP DUP2 DUP2 SUB PUSH0 DUP4 ADD MSTORE PUSH2 0x1B90 DUP2 PUSH2 0x1B57 JUMP JUMPDEST SWAP1 POP SWAP2 SWAP1 POP JUMP JUMPDEST PUSH32 0x4E487B7100000000000000000000000000000000000000000000000000000000 PUSH0 MSTORE PUSH1 0x12 PUSH1 0x4 MSTORE PUSH1 0x24 PUSH0 REVERT JUMPDEST PUSH0 PUSH2 0x1BCE DUP3 PUSH2 0x149D JUMP JUMPDEST SWAP2 POP PUSH2 0x1BD9 DUP4 PUSH2 0x149D JUMP JUMPDEST SWAP3 POP DUP3 PUSH2 0x1BE9 JUMPI PUSH2 0x1BE8 PUSH2 0x1B97 JUMP JUMPDEST JUMPDEST DUP3 DUP3 DIV SWAP1 POP SWAP3 SWAP2 POP POP JUMP JUMPDEST PUSH32 0x426F746820706C6179657273206D75737420636F6D6D6974206265666F726520 PUSH0 DUP3 ADD MSTORE PUSH32 0x72657665616C696E672E00000000000000000000000000000000000000000000 PUSH1 0x20 DUP3 ADD MSTORE POP JUMP JUMPDEST PUSH0 PUSH2 0x1C4E PUSH1 0x2A DUP4 PUSH2 0x1713 JUMP JUMPDEST SWAP2 POP PUSH2 0x1C59 DUP3 PUSH2 0x1BF4 JUMP JUMPDEST PUSH1 0x40 DUP3 ADD SWAP1 POP SWAP2 SWAP1 POP JUMP JUMPDEST PUSH0 PUSH1 0x20 DUP3 ADD SWAP1 POP DUP2 DUP2 SUB PUSH0 DUP4 ADD MSTORE PUSH2 0x1C7B DUP2 PUSH2 0x1C42 JUMP JUMPDEST SWAP1 POP SWAP2 SWAP1 POP JUMP JUMPDEST PUSH2 0x1C8B DUP2 PUSH2 0x1565 JUMP JUMPDEST DUP3 MSTORE POP POP JUMP JUMPDEST PUSH0 PUSH1 0x40 DUP3 ADD SWAP1 POP PUSH2 0x1CA4 PUSH0 DUP4 ADD DUP6 PUSH2 0x1C82 JUMP JUMPDEST PUSH2 0x1CB1 PUSH1 0x20 DUP4 ADD DUP5 PUSH2 0x16EB JUMP JUMPDEST SWAP4 SWAP3 POP POP POP JUMP JUMPDEST PUSH32 0x47616D65206973206E6F742072656164792E0000000000000000000000000000 PUSH0 DUP3 ADD MSTORE POP JUMP JUMPDEST PUSH0 PUSH2 0x1CEC PUSH1 0x12 DUP4 PUSH2 0x1713 JUMP JUMPDEST SWAP2 POP PUSH2 0x1CF7 DUP3 PUSH2 0x1CB8 JUMP JUMPDEST PUSH1 0x20 DUP3 ADD SWAP1 POP SWAP2 SWAP1 POP JUMP JUMPDEST PUSH0 PUSH1 0x20 DUP3 ADD SWAP1 POP DUP2 DUP2 SUB PUSH0 DUP4 ADD MSTORE PUSH2 0x1D19 DUP2 PUSH2 0x1CE0 JUMP JUMPDEST SWAP1 POP SWAP2 SWAP1 POP JUMP JUMPDEST PUSH0 PUSH2 0x1D2A DUP3 PUSH2 0x1662 JUMP JUMPDEST SWAP2 POP PUSH2 0x1D35 DUP4 PUSH2 0x1662 JUMP JUMPDEST SWAP3 POP DUP3 DUP3 SUB SWAP1 POP PUSH1 0xFF DUP2 GT ISZERO PUSH2 0x1D4E JUMPI PUSH2 0x1D4D PUSH2 0x18F0 JUMP JUMPDEST JUMPDEST SWAP3 SWAP2 POP POP JUMP JUMPDEST PUSH0 PUSH2 0x1D5E DUP3 PUSH2 0x1662 JUMP JUMPDEST SWAP2 POP PUSH2 0x1D69 DUP4 PUSH2 0x1662 JUMP JUMPDEST SWAP3 POP DUP3 PUSH2 0x1D79 JUMPI PUSH2 0x1D78 PUSH2 0x1B97 JUMP JUMPDEST JUMPDEST DUP3 DUP3 MOD SWAP1 POP SWAP3 SWAP2 POP POP JUMP INVALID LOG2 PUSH5 0x6970667358 0x22 SLT KECCAK256 PUSH0 CREATE2 KECCAK256 DUP8 DUP13 PUSH7 0x947CB6B46CACA6 PUSH13 0x6CA0FBB3AECB49A456F1886E16 JUMPI 0xD3 0xDE SHL PUSH21 0x64736F6C634300081A0033608060405260645F8061 ADD STOP EXP DUP2 SLOAD DUP2 PUSH1 0xFF MUL NOT AND SWAP1 DUP4 PUSH1 0xFF AND MUL OR SWAP1 SSTORE POP CALLVALUE DUP1 ISZERO PUSH1 0x28 JUMPI PUSH0 DUP1 REVERT JUMPDEST POP PUSH2 0x1010 DUP1 PUSH2 0x36 PUSH0 CODECOPY PUSH0 RETURN INVALID PUSH1 0x80 PUSH1 0x40 MSTORE CALLVALUE DUP1 ISZERO PUSH2 0xF JUMPI PUSH0 DUP1 REVERT JUMPDEST POP PUSH1 0x4 CALLDATASIZE LT PUSH2 0x60 JUMPI PUSH0 CALLDATALOAD PUSH1 0xE0 SHR DUP1 PUSH4 0x3CF5040A EQ PUSH2 0x64 JUMPI DUP1 PUSH4 0x5A746101 EQ PUSH2 0x94 JUMPI DUP1 PUSH4 0x6AC5DB19 EQ PUSH2 0xB0 JUMPI DUP1 PUSH4 0x7B43A8E6 EQ PUSH2 0xCE JUMPI DUP1 PUSH4 0x8696B887 EQ PUSH2 0x101 JUMPI DUP1 PUSH4 0xAD487790 EQ PUSH2 0x132 JUMPI JUMPDEST PUSH0 DUP1 REVERT JUMPDEST PUSH2 0x7E PUSH1 0x4 DUP1 CALLDATASIZE SUB DUP2 ADD SWAP1 PUSH2 0x79 SWAP2 SWAP1 PUSH2 0x933 JUMP JUMPDEST PUSH2 0x14E JUMP JUMPDEST PUSH1 0x40 MLOAD PUSH2 0x8B SWAP2 SWAP1 PUSH2 0x96D JUMP JUMPDEST PUSH1 0x40 MLOAD DUP1 SWAP2 SUB SWAP1 RETURN JUMPDEST PUSH2 0xAE PUSH1 0x4 DUP1 CALLDATASIZE SUB DUP2 ADD SWAP1 PUSH2 0xA9 SWAP2 SWAP1 PUSH2 0x9E0 JUMP JUMPDEST PUSH2 0x17D JUMP JUMPDEST STOP JUMPDEST PUSH2 0xB8 PUSH2 0x43B JUMP JUMPDEST PUSH1 0x40 MLOAD PUSH2 0xC5 SWAP2 SWAP1 PUSH2 0xA39 JUMP JUMPDEST PUSH1 0x40 MLOAD DUP1 SWAP2 SUB SWAP1 RETURN JUMPDEST PUSH2 0xE8 PUSH1 0x4 DUP1 CALLDATASIZE SUB DUP2 ADD SWAP1 PUSH2 0xE3 SWAP2 SWAP1 PUSH2 0xA52 JUMP JUMPDEST PUSH2 0x44B JUMP JUMPDEST PUSH1 0x40 MLOAD PUSH2 0xF8 SWAP5 SWAP4 SWAP3 SWAP2 SWAP1 PUSH2 0xAB9 JUMP JUMPDEST PUSH1 0x40 MLOAD DUP1 SWAP2 SUB SWAP1 RETURN JUMPDEST PUSH2 0x11B PUSH1 0x4 DUP1 CALLDATASIZE SUB DUP2 ADD SWAP1 PUSH2 0x116 SWAP2 SWAP1 PUSH2 0xA52 JUMP JUMPDEST PUSH2 0x4A4 JUMP JUMPDEST PUSH1 0x40 MLOAD PUSH2 0x129 SWAP3 SWAP2 SWAP1 PUSH2 0xAFC JUMP JUMPDEST PUSH1 0x40 MLOAD DUP1 SWAP2 SUB SWAP1 RETURN JUMPDEST PUSH2 0x14C PUSH1 0x4 DUP1 CALLDATASIZE SUB DUP2 ADD SWAP1 PUSH2 0x147 SWAP2 SWAP1 PUSH2 0x9E0 JUMP JUMPDEST PUSH2 0x53D JUMP JUMPDEST STOP JUMPDEST PUSH0 DUP2 PUSH1 0x40 MLOAD PUSH1 0x20 ADD PUSH2 0x160 SWAP2 SWAP1 PUSH2 0xB43 JUMP JUMPDEST PUSH1 0x40 MLOAD PUSH1 0x20 DUP2 DUP4 SUB SUB DUP2 MSTORE SWAP1 PUSH1 0x40 MSTORE DUP1 MLOAD SWAP1 PUSH1 0x20 ADD KECCAK256 SWAP1 POP SWAP2 SWAP1 POP JUMP JUMPDEST PUSH0 ISZERO ISZERO PUSH1 0x1 PUSH0 DUP4 PUSH20 0xFFFFFFFFFFFFFFFFFFFFFFFFFFFFFFFFFFFFFFFF AND PUSH20 0xFFFFFFFFFFFFFFFFFFFFFFFFFFFFFFFFFFFFFFFF AND DUP2 MSTORE PUSH1 0x20 ADD SWAP1 DUP2 MSTORE PUSH1 0x20 ADD PUSH0 KECCAK256 PUSH1 0x1 ADD PUSH1 0x9 SWAP1 SLOAD SWAP1 PUSH2 0x100 EXP SWAP1 DIV PUSH1 0xFF AND ISZERO ISZERO EQ PUSH2 0x210 JUMPI PUSH1 0x40 MLOAD PUSH32 0x8C379A000000000000000000000000000000000000000000000000000000000 DUP2 MSTORE PUSH1 0x4 ADD PUSH2 0x207 SWAP1 PUSH2 0xBDD JUMP JUMPDEST PUSH1 0x40 MLOAD DUP1 SWAP2 SUB SWAP1 REVERT JUMPDEST DUP2 PUSH1 0x1 PUSH0 DUP4 PUSH20 0xFFFFFFFFFFFFFFFFFFFFFFFFFFFFFFFFFFFFFFFF AND PUSH20 0xFFFFFFFFFFFFFFFFFFFFFFFFFFFFFFFFFFFFFFFF AND DUP2 MSTORE PUSH1 0x20 ADD SWAP1 DUP2 MSTORE PUSH1 0x20 ADD PUSH0 KECCAK256 PUSH0 ADD DUP2 SWAP1 SSTORE POP PUSH1 0x1 DUP1 PUSH0 DUP4 PUSH20 0xFFFFFFFFFFFFFFFFFFFFFFFFFFFFFFFFFFFFFFFF AND PUSH20 0xFFFFFFFFFFFFFFFFFFFFFFFFFFFFFFFFFFFFFFFF AND DUP2 MSTORE PUSH1 0x20 ADD SWAP1 DUP2 MSTORE PUSH1 0x20 ADD PUSH0 KECCAK256 PUSH1 0x1 ADD PUSH1 0x9 PUSH2 0x100 EXP DUP2 SLOAD DUP2 PUSH1 0xFF MUL NOT AND SWAP1 DUP4 ISZERO ISZERO MUL OR SWAP1 SSTORE POP NUMBER PUSH1 0x1 PUSH0 DUP4 PUSH20 0xFFFFFFFFFFFFFFFFFFFFFFFFFFFFFFFFFFFFFFFF AND PUSH20 0xFFFFFFFFFFFFFFFFFFFFFFFFFFFFFFFFFFFFFFFF AND DUP2 MSTORE PUSH1 0x20 ADD SWAP1 DUP2 MSTORE PUSH1 0x20 ADD PUSH0 KECCAK256 PUSH1 0x1 ADD PUSH0 PUSH2 0x100 EXP DUP2 SLOAD DUP2 PUSH8 0xFFFFFFFFFFFFFFFF MUL NOT AND SWAP1 DUP4 PUSH8 0xFFFFFFFFFFFFFFFF AND MUL OR SWAP1 SSTORE POP PUSH0 PUSH1 0x1 PUSH0 DUP4 PUSH20 0xFFFFFFFFFFFFFFFFFFFFFFFFFFFFFFFFFFFFFFFF AND PUSH20 0xFFFFFFFFFFFFFFFFFFFFFFFFFFFFFFFFFFFFFFFF AND DUP2 MSTORE PUSH1 0x20 ADD SWAP1 DUP2 MSTORE PUSH1 0x20 ADD PUSH0 KECCAK256 PUSH1 0x1 ADD PUSH1 0x8 PUSH2 0x100 EXP DUP2 SLOAD DUP2 PUSH1 0xFF MUL NOT AND SWAP1 DUP4 ISZERO ISZERO MUL OR SWAP1 SSTORE POP PUSH32 0x3C1A1F8F38335B17F751C6DA4BA7D1865F26B3997535176F5080DE9FAD891603 DUP2 PUSH1 0x1 PUSH0 DUP5 PUSH20 0xFFFFFFFFFFFFFFFFFFFFFFFFFFFFFFFFFFFFFFFF AND PUSH20 0xFFFFFFFFFFFFFFFFFFFFFFFFFFFFFFFFFFFFFFFF AND DUP2 MSTORE PUSH1 0x20 ADD SWAP1 DUP2 MSTORE PUSH1 0x20 ADD PUSH0 KECCAK256 PUSH0 ADD SLOAD PUSH1 0x1 PUSH0 DUP6 PUSH20 0xFFFFFFFFFFFFFFFFFFFFFFFFFFFFFFFFFFFFFFFF AND PUSH20 0xFFFFFFFFFFFFFFFFFFFFFFFFFFFFFFFFFFFFFFFF AND DUP2 MSTORE PUSH1 0x20 ADD SWAP1 DUP2 MSTORE PUSH1 0x20 ADD PUSH0 KECCAK256 PUSH1 0x1 ADD PUSH0 SWAP1 SLOAD SWAP1 PUSH2 0x100 EXP SWAP1 DIV PUSH8 0xFFFFFFFFFFFFFFFF AND PUSH1 0x40 MLOAD PUSH2 0x42F SWAP4 SWAP3 SWAP2 SWAP1 PUSH2 0xC0A JUMP JUMPDEST PUSH1 0x40 MLOAD DUP1 SWAP2 SUB SWAP1 LOG1 POP POP JUMP JUMPDEST PUSH0 DUP1 SLOAD SWAP1 PUSH2 0x100 EXP SWAP1 DIV PUSH1 0xFF AND DUP2 JUMP JUMPDEST PUSH1 0x1 PUSH1 0x20 MSTORE DUP1 PUSH0 MSTORE PUSH1 0x40 PUSH0 KECCAK256 PUSH0 SWAP2 POP SWAP1 POP DUP1 PUSH0 ADD SLOAD SWAP1 DUP1 PUSH1 0x1 ADD PUSH0 SWAP1 SLOAD SWAP1 PUSH2 0x100 EXP SWAP1 DIV PUSH8 0xFFFFFFFFFFFFFFFF AND SWAP1 DUP1 PUSH1 0x1 ADD PUSH1 0x8 SWAP1 SLOAD SWAP1 PUSH2 0x100 EXP SWAP1 DIV PUSH1 0xFF AND SWAP1 DUP1 PUSH1 0x1 ADD PUSH1 0x9 SWAP1 SLOAD SWAP1 PUSH2 0x100 EXP SWAP1 DIV PUSH1 0xFF AND SWAP1 POP DUP5 JUMP JUMPDEST PUSH0 DUP1 PUSH1 0x1 PUSH0 DUP5 PUSH20 0xFFFFFFFFFFFFFFFFFFFFFFFFFFFFFFFFFFFFFFFF AND PUSH20 0xFFFFFFFFFFFFFFFFFFFFFFFFFFFFFFFFFFFFFFFF AND DUP2 MSTORE PUSH1 0x20 ADD SWAP1 DUP2 MSTORE PUSH1 0x20 ADD PUSH0 KECCAK256 PUSH0 ADD SLOAD PUSH1 0x1 PUSH0 DUP6 PUSH20 0xFFFFFFFFFFFFFFFFFFFFFFFFFFFFFFFFFFFFFFFF AND PUSH20 0xFFFFFFFFFFFFFFFFFFFFFFFFFFFFFFFFFFFFFFFF AND DUP2 MSTORE PUSH1 0x20 ADD SWAP1 DUP2 MSTORE PUSH1 0x20 ADD PUSH0 KECCAK256 PUSH1 0x1 ADD PUSH1 0x8 SWAP1 SLOAD SWAP1 PUSH2 0x100 EXP SWAP1 DIV PUSH1 0xFF AND SWAP2 POP SWAP2 POP SWAP2 POP SWAP2 JUMP JUMPDEST PUSH0 ISZERO ISZERO PUSH1 0x1 PUSH0 DUP4 PUSH20 0xFFFFFFFFFFFFFFFFFFFFFFFFFFFFFFFFFFFFFFFF AND PUSH20 0xFFFFFFFFFFFFFFFFFFFFFFFFFFFFFFFFFFFFFFFF AND DUP2 MSTORE PUSH1 0x20 ADD SWAP1 DUP2 MSTORE PUSH1 0x20 ADD PUSH0 KECCAK256 PUSH1 0x1 ADD PUSH1 0x8 SWAP1 SLOAD SWAP1 PUSH2 0x100 EXP SWAP1 DIV PUSH1 0xFF AND ISZERO ISZERO EQ PUSH2 0x5D0 JUMPI PUSH1 0x40 MLOAD PUSH32 0x8C379A000000000000000000000000000000000000000000000000000000000 DUP2 MSTORE PUSH1 0x4 ADD PUSH2 0x5C7 SWAP1 PUSH2 0xCAF JUMP JUMPDEST PUSH1 0x40 MLOAD DUP1 SWAP2 SUB SWAP1 REVERT JUMPDEST PUSH1 0x1 DUP1 PUSH0 DUP4 PUSH20 0xFFFFFFFFFFFFFFFFFFFFFFFFFFFFFFFFFFFFFFFF AND PUSH20 0xFFFFFFFFFFFFFFFFFFFFFFFFFFFFFFFFFFFFFFFF AND DUP2 MSTORE PUSH1 0x20 ADD SWAP1 DUP2 MSTORE PUSH1 0x20 ADD PUSH0 KECCAK256 PUSH1 0x1 ADD PUSH1 0x8 PUSH2 0x100 EXP DUP2 SLOAD DUP2 PUSH1 0xFF MUL NOT AND SWAP1 DUP4 ISZERO ISZERO MUL OR SWAP1 SSTORE POP PUSH1 0x1 PUSH0 DUP3 PUSH20 0xFFFFFFFFFFFFFFFFFFFFFFFFFFFFFFFFFFFFFFFF AND PUSH20 0xFFFFFFFFFFFFFFFFFFFFFFFFFFFFFFFFFFFFFFFF AND DUP2 MSTORE PUSH1 0x20 ADD SWAP1 DUP2 MSTORE PUSH1 0x20 ADD PUSH0 KECCAK256 PUSH0 ADD SLOAD PUSH2 0x671 DUP4 PUSH2 0x14E JUMP JUMPDEST EQ PUSH2 0x6B1 JUMPI PUSH1 0x40 MLOAD PUSH32 0x8C379A000000000000000000000000000000000000000000000000000000000 DUP2 MSTORE PUSH1 0x4 ADD PUSH2 0x6A8 SWAP1 PUSH2 0xD3D JUMP JUMPDEST PUSH1 0x40 MLOAD DUP1 SWAP2 SUB SWAP1 REVERT JUMPDEST PUSH1 0x1 PUSH0 DUP3 PUSH20 0xFFFFFFFFFFFFFFFFFFFFFFFFFFFFFFFFFFFFFFFF AND PUSH20 0xFFFFFFFFFFFFFFFFFFFFFFFFFFFFFFFFFFFFFFFF AND DUP2 MSTORE PUSH1 0x20 ADD SWAP1 DUP2 MSTORE PUSH1 0x20 ADD PUSH0 KECCAK256 PUSH1 0x1 ADD PUSH0 SWAP1 SLOAD SWAP1 PUSH2 0x100 EXP SWAP1 DIV PUSH8 0xFFFFFFFFFFFFFFFF AND PUSH8 0xFFFFFFFFFFFFFFFF AND NUMBER PUSH8 0xFFFFFFFFFFFFFFFF AND GT PUSH2 0x75A JUMPI PUSH1 0x40 MLOAD PUSH32 0x8C379A000000000000000000000000000000000000000000000000000000000 DUP2 MSTORE PUSH1 0x4 ADD PUSH2 0x751 SWAP1 PUSH2 0xDF1 JUMP JUMPDEST PUSH1 0x40 MLOAD DUP1 SWAP2 SUB SWAP1 REVERT JUMPDEST PUSH1 0xFA PUSH1 0x1 PUSH0 DUP4 PUSH20 0xFFFFFFFFFFFFFFFFFFFFFFFFFFFFFFFFFFFFFFFF AND PUSH20 0xFFFFFFFFFFFFFFFFFFFFFFFFFFFFFFFFFFFFFFFF AND DUP2 MSTORE PUSH1 0x20 ADD SWAP1 DUP2 MSTORE PUSH1 0x20 ADD PUSH0 KECCAK256 PUSH1 0x1 ADD PUSH0 SWAP1 SLOAD SWAP1 PUSH2 0x100 EXP SWAP1 DIV PUSH8 0xFFFFFFFFFFFFFFFF AND PUSH2 0x7BA SWAP2 SWAP1 PUSH2 0xE3C JUMP JUMPDEST PUSH8 0xFFFFFFFFFFFFFFFF AND NUMBER PUSH8 0xFFFFFFFFFFFFFFFF AND GT ISZERO PUSH2 0x810 JUMPI PUSH1 0x40 MLOAD PUSH32 0x8C379A000000000000000000000000000000000000000000000000000000000 DUP2 MSTORE PUSH1 0x4 ADD PUSH2 0x807 SWAP1 PUSH2 0xEE7 JUMP JUMPDEST PUSH1 0x40 MLOAD DUP1 SWAP2 SUB SWAP1 REVERT JUMPDEST PUSH0 PUSH1 0x1 PUSH0 DUP4 PUSH20 0xFFFFFFFFFFFFFFFFFFFFFFFFFFFFFFFFFFFFFFFF AND PUSH20 0xFFFFFFFFFFFFFFFFFFFFFFFFFFFFFFFFFFFFFFFF AND DUP2 MSTORE PUSH1 0x20 ADD SWAP1 DUP2 MSTORE PUSH1 0x20 ADD PUSH0 KECCAK256 PUSH1 0x1 ADD PUSH0 SWAP1 SLOAD SWAP1 PUSH2 0x100 EXP SWAP1 DIV PUSH8 0xFFFFFFFFFFFFFFFF AND PUSH8 0xFFFFFFFFFFFFFFFF AND BLOCKHASH SWAP1 POP PUSH0 DUP1 PUSH0 SWAP1 SLOAD SWAP1 PUSH2 0x100 EXP SWAP1 DIV PUSH1 0xFF AND PUSH1 0xFF AND DUP3 DUP6 PUSH1 0x40 MLOAD PUSH1 0x20 ADD PUSH2 0x897 SWAP3 SWAP2 SWAP1 PUSH2 0xF05 JUMP JUMPDEST PUSH1 0x40 MLOAD PUSH1 0x20 DUP2 DUP4 SUB SUB DUP2 MSTORE SWAP1 PUSH1 0x40 MSTORE DUP1 MLOAD SWAP1 PUSH1 0x20 ADD KECCAK256 PUSH0 SHR PUSH2 0x8B9 SWAP2 SWAP1 PUSH2 0xF66 JUMP JUMPDEST SWAP1 POP PUSH32 0xBC016DD1CADEAEFCB851AF7A0A93532E0023D536894B730801F7BCFE7065BCC2 DUP4 DUP6 DUP4 PUSH1 0x40 MLOAD PUSH2 0x8EE SWAP4 SWAP3 SWAP2 SWAP1 PUSH2 0xFA5 JUMP JUMPDEST PUSH1 0x40 MLOAD DUP1 SWAP2 SUB SWAP1 LOG1 POP POP POP POP JUMP JUMPDEST PUSH0 DUP1 REVERT JUMPDEST PUSH0 DUP2 SWAP1 POP SWAP2 SWAP1 POP JUMP JUMPDEST PUSH2 0x912 DUP2 PUSH2 0x900 JUMP JUMPDEST DUP2 EQ PUSH2 0x91C JUMPI PUSH0 DUP1 REVERT JUMPDEST POP JUMP JUMPDEST PUSH0 DUP2 CALLDATALOAD SWAP1 POP PUSH2 0x92D DUP2 PUSH2 0x909 JUMP JUMPDEST SWAP3 SWAP2 POP POP JUMP JUMPDEST PUSH0 PUSH1 0x20 DUP3 DUP5 SUB SLT ISZERO PUSH2 0x948 JUMPI PUSH2 0x947 PUSH2 0x8FC JUMP JUMPDEST JUMPDEST PUSH0 PUSH2 0x955 DUP5 DUP3 DUP6 ADD PUSH2 0x91F JUMP JUMPDEST SWAP2 POP POP SWAP3 SWAP2 POP POP JUMP JUMPDEST PUSH2 0x967 DUP2 PUSH2 0x900 JUMP JUMPDEST DUP3 MSTORE POP POP JUMP JUMPDEST PUSH0 PUSH1 0x20 DUP3 ADD SWAP1 POP PUSH2 0x980 PUSH0 DUP4 ADD DUP5 PUSH2 0x95E JUMP JUMPDEST SWAP3 SWAP2 POP POP JUMP JUMPDEST PUSH0 PUSH20 0xFFFFFFFFFFFFFFFFFFFFFFFFFFFFFFFFFFFFFFFF DUP3 AND SWAP1 POP SWAP2 SWAP1 POP JUMP JUMPDEST PUSH0 PUSH2 0x9AF DUP3 PUSH2 0x986 JUMP JUMPDEST SWAP1 POP SWAP2 SWAP1 POP JUMP JUMPDEST PUSH2 0x9BF DUP2 PUSH2 0x9A5 JUMP JUMPDEST DUP2 EQ PUSH2 0x9C9 JUMPI PUSH0 DUP1 REVERT JUMPDEST POP JUMP JUMPDEST PUSH0 DUP2 CALLDATALOAD SWAP1 POP PUSH2 0x9DA DUP2 PUSH2 0x9B6 JUMP JUMPDEST SWAP3 SWAP2 POP POP JUMP JUMPDEST PUSH0 DUP1 PUSH1 0x40 DUP4 DUP6 SUB SLT ISZERO PUSH2 0x9F6 JUMPI PUSH2 0x9F5 PUSH2 0x8FC JUMP JUMPDEST JUMPDEST PUSH0 PUSH2 0xA03 DUP6 DUP3 DUP7 ADD PUSH2 0x91F JUMP JUMPDEST SWAP3 POP POP PUSH1 0x20 PUSH2 0xA14 DUP6 DUP3 DUP7 ADD PUSH2 0x9CC JUMP JUMPDEST SWAP2 POP POP SWAP3 POP SWAP3 SWAP1 POP JUMP JUMPDEST PUSH0 PUSH1 0xFF DUP3 AND SWAP1 POP SWAP2 SWAP1 POP JUMP JUMPDEST PUSH2 0xA33 DUP2 PUSH2 0xA1E JUMP JUMPDEST DUP3 MSTORE POP POP JUMP JUMPDEST PUSH0 PUSH1 0x20 DUP3 ADD SWAP1 POP PUSH2 0xA4C PUSH0 DUP4 ADD DUP5 PUSH2 0xA2A JUMP JUMPDEST SWAP3 SWAP2 POP POP JUMP JUMPDEST PUSH0 PUSH1 0x20 DUP3 DUP5 SUB SLT ISZERO PUSH2 0xA67 JUMPI PUSH2 0xA66 PUSH2 0x8FC JUMP JUMPDEST JUMPDEST PUSH0 PUSH2 0xA74 DUP5 DUP3 DUP6 ADD PUSH2 0x9CC JUMP JUMPDEST SWAP2 POP POP SWAP3 SWAP2 POP POP JUMP JUMPDEST PUSH0 PUSH8 0xFFFFFFFFFFFFFFFF DUP3 AND SWAP1 POP SWAP2 SWAP1 POP JUMP JUMPDEST PUSH2 0xA99 DUP2 PUSH2 0xA7D JUMP JUMPDEST DUP3 MSTORE POP POP JUMP JUMPDEST PUSH0 DUP2 ISZERO ISZERO SWAP1 POP SWAP2 SWAP1 POP JUMP JUMPDEST PUSH2 0xAB3 DUP2 PUSH2 0xA9F JUMP JUMPDEST DUP3 MSTORE POP POP JUMP JUMPDEST PUSH0 PUSH1 0x80 DUP3 ADD SWAP1 POP PUSH2 0xACC PUSH0 DUP4 ADD DUP8 PUSH2 0x95E JUMP JUMPDEST PUSH2 0xAD9 PUSH1 0x20 DUP4 ADD DUP7 PUSH2 0xA90 JUMP JUMPDEST PUSH2 0xAE6 PUSH1 0x40 DUP4 ADD DUP6 PUSH2 0xAAA JUMP JUMPDEST PUSH2 0xAF3 PUSH1 0x60 DUP4 ADD DUP5 PUSH2 0xAAA JUMP JUMPDEST SWAP6 SWAP5 POP POP POP POP POP JUMP JUMPDEST PUSH0 PUSH1 0x40 DUP3 ADD SWAP1 POP PUSH2 0xB0F PUSH0 DUP4 ADD DUP6 PUSH2 0x95E JUMP JUMPDEST PUSH2 0xB1C PUSH1 0x20 DUP4 ADD DUP5 PUSH2 0xAAA JUMP JUMPDEST SWAP4 SWAP3 POP POP POP JUMP JUMPDEST PUSH0 DUP2 SWAP1 POP SWAP2 SWAP1 POP JUMP JUMPDEST PUSH2 0xB3D PUSH2 0xB38 DUP3 PUSH2 0x900 JUMP JUMPDEST PUSH2 0xB23 JUMP JUMPDEST DUP3 MSTORE POP POP JUMP JUMPDEST PUSH0 PUSH2 0xB4E DUP3 DUP5 PUSH2 0xB2C JUMP JUMPDEST PUSH1 0x20 DUP3 ADD SWAP2 POP DUP2 SWAP1 POP SWAP3 SWAP2 POP POP JUMP JUMPDEST PUSH0 DUP3 DUP3 MSTORE PUSH1 0x20 DUP3 ADD SWAP1 POP SWAP3 SWAP2 POP POP JUMP JUMPDEST PUSH32 0x436F6D6D697452657665616C3A3A636F6D6D69743A20416C726561647920636F PUSH0 DUP3 ADD MSTORE PUSH32 0x6D6D697465640000000000000000000000000000000000000000000000000000 PUSH1 0x20 DUP3 ADD MSTORE POP JUMP JUMPDEST PUSH0 PUSH2 0xBC7 PUSH1 0x26 DUP4 PUSH2 0xB5D JUMP JUMPDEST SWAP2 POP PUSH2 0xBD2 DUP3 PUSH2 0xB6D JUMP JUMPDEST PUSH1 0x40 DUP3 ADD SWAP1 POP SWAP2 SWAP1 POP JUMP JUMPDEST PUSH0 PUSH1 0x20 DUP3 ADD SWAP1 POP DUP2 DUP2 SUB PUSH0 DUP4 ADD MSTORE PUSH2 0xBF4 DUP2 PUSH2 0xBBB JUMP JUMPDEST SWAP1 POP SWAP2 SWAP1 POP JUMP JUMPDEST PUSH2 0xC04 DUP2 PUSH2 0x9A5 JUMP JUMPDEST DUP3 MSTORE POP POP JUMP JUMPDEST PUSH0 PUSH1 0x60 DUP3 ADD SWAP1 POP PUSH2 0xC1D PUSH0 DUP4 ADD DUP7 PUSH2 0xBFB JUMP JUMPDEST PUSH2 0xC2A PUSH1 0x20 DUP4 ADD DUP6 PUSH2 0x95E JUMP JUMPDEST PUSH2 0xC37 PUSH1 0x40 DUP4 ADD DUP5 PUSH2 0xA90 JUMP JUMPDEST SWAP5 SWAP4 POP POP POP POP JUMP JUMPDEST PUSH32 0x436F6D6D697452657665616C3A3A72657665616C3A20416C7265616479207265 PUSH0 DUP3 ADD MSTORE PUSH32 0x7665616C65640000000000000000000000000000000000000000000000000000 PUSH1 0x20 DUP3 ADD MSTORE POP JUMP JUMPDEST PUSH0 PUSH2 0xC99 PUSH1 0x26 DUP4 PUSH2 0xB5D JUMP JUMPDEST SWAP2 POP PUSH2 0xCA4 DUP3 PUSH2 0xC3F JUMP JUMPDEST PUSH1 0x40 DUP3 ADD SWAP1 POP SWAP2 SWAP1 POP JUMP JUMPDEST PUSH0 PUSH1 0x20 DUP3 ADD SWAP1 POP DUP2 DUP2 SUB PUSH0 DUP4 ADD MSTORE PUSH2 0xCC6 DUP2 PUSH2 0xC8D JUMP JUMPDEST SWAP1 POP SWAP2 SWAP1 POP JUMP JUMPDEST PUSH32 0x436F6D6D697452657665616C3A3A72657665616C3A2052657665616C65642068 PUSH0 DUP3 ADD MSTORE PUSH32 0x61736820646F6573206E6F74206D6174636820636F6D6D697400000000000000 PUSH1 0x20 DUP3 ADD MSTORE POP JUMP JUMPDEST PUSH0 PUSH2 0xD27 PUSH1 0x39 DUP4 PUSH2 0xB5D JUMP JUMPDEST SWAP2 POP PUSH2 0xD32 DUP3 PUSH2 0xCCD JUMP JUMPDEST PUSH1 0x40 DUP3 ADD SWAP1 POP SWAP2 SWAP1 POP JUMP JUMPDEST PUSH0 PUSH1 0x20 DUP3 ADD SWAP1 POP DUP2 DUP2 SUB PUSH0 DUP4 ADD MSTORE PUSH2 0xD54 DUP2 PUSH2 0xD1B JUMP JUMPDEST SWAP1 POP SWAP2 SWAP1 POP JUMP JUMPDEST PUSH32 0x436F6D6D697452657665616C3A3A72657665616C3A2052657665616C20616E64 PUSH0 DUP3 ADD MSTORE PUSH32 0x20636F6D6D69742068617070656E6564206F6E207468652073616D6520626C6F PUSH1 0x20 DUP3 ADD MSTORE PUSH32 0x636B000000000000000000000000000000000000000000000000000000000000 PUSH1 0x40 DUP3 ADD MSTORE POP JUMP JUMPDEST PUSH0 PUSH2 0xDDB PUSH1 0x42 DUP4 PUSH2 0xB5D JUMP JUMPDEST SWAP2 POP PUSH2 0xDE6 DUP3 PUSH2 0xD5B JUMP JUMPDEST PUSH1 0x60 DUP3 ADD SWAP1 POP SWAP2 SWAP1 POP JUMP JUMPDEST PUSH0 PUSH1 0x20 DUP3 ADD SWAP1 POP DUP2 DUP2 SUB PUSH0 DUP4 ADD MSTORE PUSH2 0xE08 DUP2 PUSH2 0xDCF JUMP JUMPDEST SWAP1 POP SWAP2 SWAP1 POP JUMP JUMPDEST PUSH32 0x4E487B7100000000000000000000000000000000000000000000000000000000 PUSH0 MSTORE PUSH1 0x11 PUSH1 0x4 MSTORE PUSH1 0x24 PUSH0 REVERT JUMPDEST PUSH0 PUSH2 0xE46 DUP3 PUSH2 0xA7D JUMP JUMPDEST SWAP2 POP PUSH2 0xE51 DUP4 PUSH2 0xA7D JUMP JUMPDEST SWAP3 POP DUP3 DUP3 ADD SWAP1 POP PUSH8 0xFFFFFFFFFFFFFFFF DUP2 GT ISZERO PUSH2 0xE71 JUMPI PUSH2 0xE70 PUSH2 0xE0F JUMP JUMPDEST JUMPDEST SWAP3 SWAP2 POP POP JUMP JUMPDEST PUSH32 0x436F6D6D697452657665616C3A3A72657665616C3A2052657665616C65642074 PUSH0 DUP3 ADD MSTORE PUSH32 0x6F6F206C61746500000000000000000000000000000000000000000000000000 PUSH1 0x20 DUP3 ADD MSTORE POP JUMP JUMPDEST PUSH0 PUSH2 0xED1 PUSH1 0x27 DUP4 PUSH2 0xB5D JUMP JUMPDEST SWAP2 POP PUSH2 0xEDC DUP3 PUSH2 0xE77 JUMP JUMPDEST PUSH1 0x40 DUP3 ADD SWAP1 POP SWAP2 SWAP1 POP JUMP JUMPDEST PUSH0 PUSH1 0x20 DUP3 ADD SWAP1 POP DUP2 DUP2 SUB PUSH0 DUP4 ADD MSTORE PUSH2 0xEFE DUP2 PUSH2 0xEC5 JUMP JUMPDEST SWAP1 POP SWAP2 SWAP1 POP JUMP JUMPDEST PUSH0 PUSH2 0xF10 DUP3 DUP6 PUSH2 0xB2C JUMP JUMPDEST PUSH1 0x20 DUP3 ADD SWAP2 POP PUSH2 0xF20 DUP3 DUP5 PUSH2 0xB2C JUMP JUMPDEST PUSH1 0x20 DUP3 ADD SWAP2 POP DUP2 SWAP1 POP SWAP4 SWAP3 POP POP POP JUMP JUMPDEST PUSH0 DUP2 SWAP1 POP SWAP2 SWAP1 POP JUMP JUMPDEST PUSH32 0x4E487B7100000000000000000000000000000000000000000000000000000000 PUSH0 MSTORE PUSH1 0x12 PUSH1 0x4 MSTORE PUSH1 0x24 PUSH0 REVERT JUMPDEST PUSH0 PUSH2 0xF70 DUP3 PUSH2 0xF30 JUMP JUMPDEST SWAP2 POP PUSH2 0xF7B DUP4 PUSH2 0xF30 JUMP JUMPDEST SWAP3 POP DUP3 PUSH2 0xF8B JUMPI PUSH2 0xF8A PUSH2 0xF39 JUMP JUMPDEST JUMPDEST DUP3 DUP3 MOD SWAP1 POP SWAP3 SWAP2 POP POP JUMP JUMPDEST PUSH2 0xF9F DUP2 PUSH2 0xF30 JUMP JUMPDEST DUP3 MSTORE POP POP JUMP JUMPDEST PUSH0 PUSH1 0x60 DUP3 ADD SWAP1 POP PUSH2 0xFB8 PUSH0 DUP4 ADD DUP7 PUSH2 0xBFB JUMP JUMPDEST PUSH2 0xFC5 PUSH1 0x20 DUP4 ADD DUP6 PUSH2 0x95E JUMP JUMPDEST PUSH2 0xFD2 PUSH1 0x40 DUP4 ADD DUP5 PUSH2 0xF96 JUMP JUMPDEST SWAP5 SWAP4 POP POP POP POP JUMP INVALID LOG2 PUSH5 0x6970667358 0x22 SLT KECCAK256 JUMPI 0x28 SWAP16 EXTCODECOPY 0xEC GASLIMIT 0x27 LT DUP7 0xEE NUMBER MSTORE 0xEE 0xD6 PUSH1 0xDB CALLDATACOPY 0x24 0xBA PUSH31 0x36B81DA6806840BDDAD6DF8964736F6C634300081A00336080604052348015 PUSH1 0xE JUMPI PUSH0 DUP1 REVERT JUMPDEST POP PUSH2 0x1D4 DUP1 PUSH2 0x1C PUSH0 CODECOPY PUSH0 RETURN INVALID PUSH1 0x80 PUSH1 0x40 MSTORE CALLVALUE DUP1 ISZERO PUSH2 0xF JUMPI PUSH0 DUP1 REVERT JUMPDEST POP PUSH1 0x4 CALLDATASIZE LT PUSH2 0x4A JUMPI PUSH0 CALLDATALOAD PUSH1 0xE0 SHR DUP1 PUSH4 0x4F61FD68 EQ PUSH2 0x4E JUMPI DUP1 PUSH4 0x7BAB61BC EQ PUSH2 0x6C JUMPI DUP1 PUSH4 0x7E2EEE53 EQ PUSH2 0x8A JUMPI DUP1 PUSH4 0xF4176B22 EQ PUSH2 0xA8 JUMPI JUMPDEST PUSH0 DUP1 REVERT JUMPDEST PUSH2 0x56 PUSH2 0xB2 JUMP JUMPDEST PUSH1 0x40 MLOAD PUSH2 0x63 SWAP2 SWAP1 PUSH2 0xF4 JUMP JUMPDEST PUSH1 0x40 MLOAD DUP1 SWAP2 SUB SWAP1 RETURN JUMPDEST PUSH2 0x74 PUSH2 0xC8 JUMP JUMPDEST PUSH1 0x40 MLOAD PUSH2 0x81 SWAP2 SWAP1 PUSH2 0x125 JUMP JUMPDEST PUSH1 0x40 MLOAD DUP1 SWAP2 SUB SWAP1 RETURN JUMPDEST PUSH2 0x92 PUSH2 0xCD JUMP JUMPDEST PUSH1 0x40 MLOAD PUSH2 0x9F SWAP2 SWAP1 PUSH2 0x125 JUMP JUMPDEST PUSH1 0x40 MLOAD DUP1 SWAP2 SUB SWAP1 RETURN JUMPDEST PUSH2 0xB0 PUSH2 0xD2 JUMP JUMPDEST STOP JUMPDEST PUSH0 PUSH1 0x3C PUSH0 SLOAD TIMESTAMP PUSH2 0xC2 SWAP2 SWAP1 PUSH2 0x16B JUMP JUMPDEST GT SWAP1 POP SWAP1 JUMP JUMPDEST PUSH0 SLOAD DUP2 JUMP JUMPDEST PUSH1 0x3C DUP2 JUMP JUMPDEST TIMESTAMP PUSH0 DUP2 SWAP1 SSTORE POP JUMP JUMPDEST PUSH0 DUP2 ISZERO ISZERO SWAP1 POP SWAP2 SWAP1 POP JUMP JUMPDEST PUSH2 0xEE DUP2 PUSH2 0xDA JUMP JUMPDEST DUP3 MSTORE POP POP JUMP JUMPDEST PUSH0 PUSH1 0x20 DUP3 ADD SWAP1 POP PUSH2 0x107 PUSH0 DUP4 ADD DUP5 PUSH2 0xE5 JUMP JUMPDEST SWAP3 SWAP2 POP POP JUMP JUMPDEST PUSH0 DUP2 SWAP1 POP SWAP2 SWAP1 POP JUMP JUMPDEST PUSH2 0x11F DUP2 PUSH2 0x10D JUMP JUMPDEST DUP3 MSTORE POP POP JUMP JUMPDEST PUSH0 PUSH1 0x20 DUP3 ADD SWAP1 POP PUSH2 0x138 PUSH0 DUP4 ADD DUP5 PUSH2 0x116 JUMP JUMPDEST SWAP3 SWAP2 POP POP JUMP JUMPDEST PUSH32 0x4E487B7100000000000000000000000000000000000000000000000000000000 PUSH0 MSTORE PUSH1 0x11 PUSH1 0x4 MSTORE PUSH1 0x24 PUSH0 REVERT JUMPDEST PUSH0 PUSH2 0x175 DUP3 PUSH2 0x10D JUMP JUMPDEST SWAP2 POP PUSH2 0x180 DUP4 PUSH2 0x10D JUMP JUMPDEST SWAP3 POP DUP3 DUP3 SUB SWAP1 POP DUP2 DUP2 GT ISZERO PUSH2 0x198 JUMPI PUSH2 0x197 PUSH2 0x13E JUMP JUMPDEST JUMPDEST SWAP3 SWAP2 POP POP JUMP INVALID LOG2 PUSH5 0x6970667358 0x22 SLT KECCAK256 ADDRESS LT GASPRICE 0xCD CHAINID PUSH5 0x3B40175AA0 0xD0 SWAP7 SAR RETURNDATACOPY NUMBER SWAP5 GAS PUSH8 0x172480956CC1EB08 0xB0 CALLDATASIZE 0x2E 0xB3 CODECOPY PUSH5 0x736F6C6343 STOP ADDMOD BYTE STOP CALLER "
				},
				"gasEstimates": {
					"creation": {
						"codeDepositCost": "1522000",
						"executionCost": "infinite",
						"totalCost": "infinite"
					},
					"external": {
						"addPlayer()": "infinite",
						"commitReveal()": "infinite",
						"getChoiceFromHash(bytes32)": "infinite",
						"inputCommit(bytes32)": "infinite",
						"numCommits()": "2470",
						"numPlayer()": "2448",
						"numReveals()": "2470",
						"player_choice(address)": "2824",
						"players(uint256)": "5032",
						"refund()": "infinite",
						"revealChoice(bytes32)": "infinite",
						"reward()": "2426",
						"timeUnit()": "infinite"
					},
					"internal": {
						"_checkWinnerAndPay()": "infinite",
						"_isWinner(uint256,uint256)": "440",
						"_resetGame()": "infinite"
					}
				},
				"methodIdentifiers": {
					"addPlayer()": "27b5db8a",
					"commitReveal()": "9d7b3f2d",
					"getChoiceFromHash(bytes32)": "d5b30714",
					"inputCommit(bytes32)": "a9c6921a",
					"numCommits()": "2f231163",
					"numPlayer()": "90d5d0c3",
					"numReveals()": "9b2c1d40",
					"player_choice(address)": "a040478d",
					"players(uint256)": "f71d96cb",
					"refund()": "590e1ae3",
					"revealChoice(bytes32)": "65ce0ac6",
					"reward()": "228cb733",
					"timeUnit()": "3c6a7f9b"
				}
			},
			"storageLayout": {
				"storage": [
					{
						"astId": 236,
						"contract": "RPSLS.sol:RPSLS",
						"label": "commitReveal",
						"offset": 0,
						"slot": "0",
						"type": "t_contract(CommitReveal)229"
					},
					{
						"astId": 239,
						"contract": "RPSLS.sol:RPSLS",
						"label": "timeUnit",
						"offset": 0,
						"slot": "1",
						"type": "t_contract(TimeUnit)824"
					},
					{
						"astId": 242,
						"contract": "RPSLS.sol:RPSLS",
						"label": "numPlayer",
						"offset": 0,
						"slot": "2",
						"type": "t_uint256"
					},
					{
						"astId": 245,
						"contract": "RPSLS.sol:RPSLS",
						"label": "reward",
						"offset": 0,
						"slot": "3",
						"type": "t_uint256"
					},
					{
						"astId": 249,
						"contract": "RPSLS.sol:RPSLS",
						"label": "player_choice",
						"offset": 0,
						"slot": "4",
						"type": "t_mapping(t_address,t_uint256)"
					},
					{
						"astId": 252,
						"contract": "RPSLS.sol:RPSLS",
						"label": "players",
						"offset": 0,
						"slot": "5",
						"type": "t_array(t_address)dyn_storage"
					},
					{
						"astId": 255,
						"contract": "RPSLS.sol:RPSLS",
						"label": "numCommits",
						"offset": 0,
						"slot": "6",
						"type": "t_uint256"
					},
					{
						"astId": 258,
						"contract": "RPSLS.sol:RPSLS",
						"label": "numReveals",
						"offset": 0,
						"slot": "7",
						"type": "t_uint256"
					}
				],
				"types": {
					"t_address": {
						"encoding": "inplace",
						"label": "address",
						"numberOfBytes": "20"
					},
					"t_array(t_address)dyn_storage": {
						"base": "t_address",
						"encoding": "dynamic_array",
						"label": "address[]",
						"numberOfBytes": "32"
					},
					"t_contract(CommitReveal)229": {
						"encoding": "inplace",
						"label": "contract CommitReveal",
						"numberOfBytes": "20"
					},
					"t_contract(TimeUnit)824": {
						"encoding": "inplace",
						"label": "contract TimeUnit",
						"numberOfBytes": "20"
					},
					"t_mapping(t_address,t_uint256)": {
						"encoding": "mapping",
						"key": "t_address",
						"label": "mapping(address => uint256)",
						"numberOfBytes": "32",
						"value": "t_uint256"
					},
					"t_uint256": {
						"encoding": "inplace",
						"label": "uint256",
						"numberOfBytes": "32"
					}
				}
			},
			"userdoc": {
				"kind": "user",
				"methods": {},
				"version": 1
			}
		}
	}
}