{
	"TimeUnit.sol": {
		"TimeUnit": {
			"abi": [
				{
					"inputs": [],
					"name": "delayTime",
					"outputs": [
						{
							"internalType": "uint256",
							"name": "",
							"type": "uint256"
						}
					],
					"stateMutability": "view",
					"type": "function"
				},
				{
					"inputs": [],
					"name": "isTimeExceeded",
					"outputs": [
						{
							"internalType": "bool",
							"name": "",
							"type": "bool"
						}
					],
					"stateMutability": "view",
					"type": "function"
				},
				{
					"inputs": [],
					"name": "latestActionTime",
					"outputs": [
						{
							"internalType": "uint256",
							"name": "",
							"type": "uint256"
						}
					],
					"stateMutability": "view",
					"type": "function"
				},
				{
					"inputs": [],
					"name": "updateActionTime",
					"outputs": [],
					"stateMutability": "nonpayable",
					"type": "function"
				}
			],
			"devdoc": {
				"kind": "dev",
				"methods": {},
				"version": 1
			},
			"evm": {
				"assembly": "    /* \"TimeUnit.sol\":72:409  contract TimeUnit {... */\n  mstore(0x40, 0x80)\n  callvalue\n  dup1\n  iszero\n  tag_1\n  jumpi\n  0x00\n  dup1\n  revert\ntag_1:\n  pop\n  dataSize(sub_0)\n  dup1\n  dataOffset(sub_0)\n  0x00\n  codecopy\n  0x00\n  return\nstop\n\nsub_0: assembly {\n        /* \"TimeUnit.sol\":72:409  contract TimeUnit {... */\n      mstore(0x40, 0x80)\n      callvalue\n      dup1\n      iszero\n      tag_1\n      jumpi\n      0x00\n      dup1\n      revert\n    tag_1:\n      pop\n      jumpi(tag_2, lt(calldatasize, 0x04))\n      shr(0xe0, calldataload(0x00))\n      dup1\n      0x4f61fd68\n      eq\n      tag_3\n      jumpi\n      dup1\n      0x7bab61bc\n      eq\n      tag_4\n      jumpi\n      dup1\n      0x7e2eee53\n      eq\n      tag_5\n      jumpi\n      dup1\n      0xf4176b22\n      eq\n      tag_6\n      jumpi\n    tag_2:\n      0x00\n      dup1\n      revert\n        /* \"TimeUnit.sol\":279:406  function isTimeExceeded() public view returns (bool) {... */\n    tag_3:\n      tag_7\n      tag_8\n      jump\t// in\n    tag_7:\n      mload(0x40)\n      tag_9\n      swap2\n      swap1\n      tag_10\n      jump\t// in\n    tag_9:\n      mload(0x40)\n      dup1\n      swap2\n      sub\n      swap1\n      return\n        /* \"TimeUnit.sol\":97:125  uint public latestActionTime */\n    tag_4:\n      tag_11\n      tag_12\n      jump\t// in\n    tag_11:\n      mload(0x40)\n      tag_13\n      swap2\n      swap1\n      tag_14\n      jump\t// in\n    tag_13:\n      mload(0x40)\n      dup1\n      swap2\n      sub\n      swap1\n      return\n        /* \"TimeUnit.sol\":132:174  uint public constant delayTime = 1 minutes */\n    tag_5:\n      tag_15\n      tag_16\n      jump\t// in\n    tag_15:\n      mload(0x40)\n      tag_17\n      swap2\n      swap1\n      tag_14\n      jump\t// in\n    tag_17:\n      mload(0x40)\n      dup1\n      swap2\n      sub\n      swap1\n      return\n        /* \"TimeUnit.sol\":183:271  function updateActionTime() public {... */\n    tag_6:\n      tag_18\n      tag_19\n      jump\t// in\n    tag_18:\n      stop\n        /* \"TimeUnit.sol\":279:406  function isTimeExceeded() public view returns (bool) {... */\n    tag_8:\n        /* \"TimeUnit.sol\":326:330  bool */\n      0x00\n        /* \"TimeUnit.sol\":165:174  1 minutes */\n      0x3c\n        /* \"TimeUnit.sol\":369:385  latestActionTime */\n      sload(0x00)\n        /* \"TimeUnit.sol\":351:366  block.timestamp */\n      timestamp\n        /* \"TimeUnit.sol\":351:385  block.timestamp - latestActionTime */\n      tag_21\n      swap2\n      swap1\n      tag_22\n      jump\t// in\n    tag_21:\n        /* \"TimeUnit.sol\":350:398  (block.timestamp - latestActionTime) > delayTime */\n      gt\n        /* \"TimeUnit.sol\":343:398  return (block.timestamp - latestActionTime) > delayTime */\n      swap1\n      pop\n        /* \"TimeUnit.sol\":279:406  function isTimeExceeded() public view returns (bool) {... */\n      swap1\n      jump\t// out\n        /* \"TimeUnit.sol\":97:125  uint public latestActionTime */\n    tag_12:\n      sload(0x00)\n      dup2\n      jump\t// out\n        /* \"TimeUnit.sol\":132:174  uint public constant delayTime = 1 minutes */\n    tag_16:\n        /* \"TimeUnit.sol\":165:174  1 minutes */\n      0x3c\n        /* \"TimeUnit.sol\":132:174  uint public constant delayTime = 1 minutes */\n      dup2\n      jump\t// out\n        /* \"TimeUnit.sol\":183:271  function updateActionTime() public {... */\n    tag_19:\n        /* \"TimeUnit.sol\":248:263  block.timestamp */\n      timestamp\n        /* \"TimeUnit.sol\":229:245  latestActionTime */\n      0x00\n        /* \"TimeUnit.sol\":229:263  latestActionTime = block.timestamp */\n      dup2\n      swap1\n      sstore\n      pop\n        /* \"TimeUnit.sol\":183:271  function updateActionTime() public {... */\n      jump\t// out\n        /* \"#utility.yul\":7:97   */\n    tag_24:\n        /* \"#utility.yul\":41:48   */\n      0x00\n        /* \"#utility.yul\":84:89   */\n      dup2\n        /* \"#utility.yul\":77:90   */\n      iszero\n        /* \"#utility.yul\":70:91   */\n      iszero\n        /* \"#utility.yul\":59:91   */\n      swap1\n      pop\n        /* \"#utility.yul\":7:97   */\n      swap2\n      swap1\n      pop\n      jump\t// out\n        /* \"#utility.yul\":103:212   */\n    tag_25:\n        /* \"#utility.yul\":184:205   */\n      tag_32\n        /* \"#utility.yul\":199:204   */\n      dup2\n        /* \"#utility.yul\":184:205   */\n      tag_24\n      jump\t// in\n    tag_32:\n        /* \"#utility.yul\":179:182   */\n      dup3\n        /* \"#utility.yul\":172:206   */\n      mstore\n        /* \"#utility.yul\":103:212   */\n      pop\n      pop\n      jump\t// out\n        /* \"#utility.yul\":218:428   */\n    tag_10:\n        /* \"#utility.yul\":305:309   */\n      0x00\n        /* \"#utility.yul\":343:345   */\n      0x20\n        /* \"#utility.yul\":332:341   */\n      dup3\n        /* \"#utility.yul\":328:346   */\n      add\n        /* \"#utility.yul\":320:346   */\n      swap1\n      pop\n        /* \"#utility.yul\":356:421   */\n      tag_34\n        /* \"#utility.yul\":418:419   */\n      0x00\n        /* \"#utility.yul\":407:416   */\n      dup4\n        /* \"#utility.yul\":403:420   */\n      add\n        /* \"#utility.yul\":394:400   */\n      dup5\n        /* \"#utility.yul\":356:421   */\n      tag_25\n      jump\t// in\n    tag_34:\n        /* \"#utility.yul\":218:428   */\n      swap3\n      swap2\n      pop\n      pop\n      jump\t// out\n        /* \"#utility.yul\":434:511   */\n    tag_26:\n        /* \"#utility.yul\":471:478   */\n      0x00\n        /* \"#utility.yul\":500:505   */\n      dup2\n        /* \"#utility.yul\":489:505   */\n      swap1\n      pop\n        /* \"#utility.yul\":434:511   */\n      swap2\n      swap1\n      pop\n      jump\t// out\n        /* \"#utility.yul\":517:635   */\n    tag_27:\n        /* \"#utility.yul\":604:628   */\n      tag_37\n        /* \"#utility.yul\":622:627   */\n      dup2\n        /* \"#utility.yul\":604:628   */\n      tag_26\n      jump\t// in\n    tag_37:\n        /* \"#utility.yul\":599:602   */\n      dup3\n        /* \"#utility.yul\":592:629   */\n      mstore\n        /* \"#utility.yul\":517:635   */\n      pop\n      pop\n      jump\t// out\n        /* \"#utility.yul\":641:863   */\n    tag_14:\n        /* \"#utility.yul\":734:738   */\n      0x00\n        /* \"#utility.yul\":772:774   */\n      0x20\n        /* \"#utility.yul\":761:770   */\n      dup3\n        /* \"#utility.yul\":757:775   */\n      add\n        /* \"#utility.yul\":749:775   */\n      swap1\n      pop\n        /* \"#utility.yul\":785:856   */\n      tag_39\n        /* \"#utility.yul\":853:854   */\n      0x00\n        /* \"#utility.yul\":842:851   */\n      dup4\n        /* \"#utility.yul\":838:855   */\n      add\n        /* \"#utility.yul\":829:835   */\n      dup5\n        /* \"#utility.yul\":785:856   */\n      tag_27\n      jump\t// in\n    tag_39:\n        /* \"#utility.yul\":641:863   */\n      swap3\n      swap2\n      pop\n      pop\n      jump\t// out\n        /* \"#utility.yul\":869:1049   */\n    tag_28:\n        /* \"#utility.yul\":917:994   */\n      0x4e487b7100000000000000000000000000000000000000000000000000000000\n        /* \"#utility.yul\":914:915   */\n      0x00\n        /* \"#utility.yul\":907:995   */\n      mstore\n        /* \"#utility.yul\":1014:1018   */\n      0x11\n        /* \"#utility.yul\":1011:1012   */\n      0x04\n        /* \"#utility.yul\":1004:1019   */\n      mstore\n        /* \"#utility.yul\":1038:1042   */\n      0x24\n        /* \"#utility.yul\":1035:1036   */\n      0x00\n        /* \"#utility.yul\":1028:1043   */\n      revert\n        /* \"#utility.yul\":1055:1249   */\n    tag_22:\n        /* \"#utility.yul\":1095:1099   */\n      0x00\n        /* \"#utility.yul\":1115:1135   */\n      tag_42\n        /* \"#utility.yul\":1133:1134   */\n      dup3\n        /* \"#utility.yul\":1115:1135   */\n      tag_26\n      jump\t// in\n    tag_42:\n        /* \"#utility.yul\":1110:1135   */\n      swap2\n      pop\n        /* \"#utility.yul\":1149:1169   */\n      tag_43\n        /* \"#utility.yul\":1167:1168   */\n      dup4\n        /* \"#utility.yul\":1149:1169   */\n      tag_26\n      jump\t// in\n    tag_43:\n        /* \"#utility.yul\":1144:1169   */\n      swap3\n      pop\n        /* \"#utility.yul\":1193:1194   */\n      dup3\n        /* \"#utility.yul\":1190:1191   */\n      dup3\n        /* \"#utility.yul\":1186:1195   */\n      sub\n        /* \"#utility.yul\":1178:1195   */\n      swap1\n      pop\n        /* \"#utility.yul\":1217:1218   */\n      dup2\n        /* \"#utility.yul\":1211:1215   */\n      dup2\n        /* \"#utility.yul\":1208:1219   */\n      gt\n        /* \"#utility.yul\":1205:1242   */\n      iszero\n      tag_44\n      jumpi\n        /* \"#utility.yul\":1222:1240   */\n      tag_45\n      tag_28\n      jump\t// in\n    tag_45:\n        /* \"#utility.yul\":1205:1242   */\n    tag_44:\n        /* \"#utility.yul\":1055:1249   */\n      swap3\n      swap2\n      pop\n      pop\n      jump\t// out\n\n    auxdata: 0xa264697066735822122030103acd46643b40175aa0d0961d3e43945a67172480956cc1eb08b0362eb33964736f6c634300081a0033\n}\n",
				"bytecode": {
					"linkReferences": {},
					"object": "6080604052348015600e575f80fd5b506101d48061001c5f395ff3fe608060405234801561000f575f80fd5b506004361061004a575f3560e01c80634f61fd681461004e5780637bab61bc1461006c5780637e2eee531461008a578063f4176b22146100a8575b5f80fd5b6100566100b2565b60405161006391906100f4565b60405180910390f35b6100746100c8565b6040516100819190610125565b60405180910390f35b6100926100cd565b60405161009f9190610125565b60405180910390f35b6100b06100d2565b005b5f603c5f54426100c2919061016b565b11905090565b5f5481565b603c81565b425f81905550565b5f8115159050919050565b6100ee816100da565b82525050565b5f6020820190506101075f8301846100e5565b92915050565b5f819050919050565b61011f8161010d565b82525050565b5f6020820190506101385f830184610116565b92915050565b7f4e487b71000000000000000000000000000000000000000000000000000000005f52601160045260245ffd5b5f6101758261010d565b91506101808361010d565b92508282039050818111156101985761019761013e565b5b9291505056fea264697066735822122030103acd46643b40175aa0d0961d3e43945a67172480956cc1eb08b0362eb33964736f6c634300081a0033",
					"opcodes": "PUSH1 0x80 PUSH1 0x40 MSTORE CALLVALUE DUP1 ISZERO PUSH1 0xE JUMPI PUSH0 DUP1 REVERT JUMPDEST POP PUSH2 0x1D4 DUP1 PUSH2 0x1C PUSH0 CODECOPY PUSH0 RETURN INVALID PUSH1 0x80 PUSH1 0x40 MSTORE CALLVALUE DUP1 ISZERO PUSH2 0xF JUMPI PUSH0 DUP1 REVERT JUMPDEST POP PUSH1 0x4 CALLDATASIZE LT PUSH2 0x4A JUMPI PUSH0 CALLDATALOAD PUSH1 0xE0 SHR DUP1 PUSH4 0x4F61FD68 EQ PUSH2 0x4E JUMPI DUP1 PUSH4 0x7BAB61BC EQ PUSH2 0x6C JUMPI DUP1 PUSH4 0x7E2EEE53 EQ PUSH2 0x8A JUMPI DUP1 PUSH4 0xF4176B22 EQ PUSH2 0xA8 JUMPI JUMPDEST PUSH0 DUP1 REVERT JUMPDEST PUSH2 0x56 PUSH2 0xB2 JUMP JUMPDEST PUSH1 0x40 MLOAD PUSH2 0x63 SWAP2 SWAP1 PUSH2 0xF4 JUMP JUMPDEST PUSH1 0x40 MLOAD DUP1 SWAP2 SUB SWAP1 RETURN JUMPDEST PUSH2 0x74 PUSH2 0xC8 JUMP JUMPDEST PUSH1 0x40 MLOAD PUSH2 0x81 SWAP2 SWAP1 PUSH2 0x125 JUMP JUMPDEST PUSH1 0x40 MLOAD DUP1 SWAP2 SUB SWAP1 RETURN JUMPDEST PUSH2 0x92 PUSH2 0xCD JUMP JUMPDEST PUSH1 0x40 MLOAD PUSH2 0x9F SWAP2 SWAP1 PUSH2 0x125 JUMP JUMPDEST PUSH1 0x40 MLOAD DUP1 SWAP2 SUB SWAP1 RETURN JUMPDEST PUSH2 0xB0 PUSH2 0xD2 JUMP JUMPDEST STOP JUMPDEST PUSH0 PUSH1 0x3C PUSH0 SLOAD TIMESTAMP PUSH2 0xC2 SWAP2 SWAP1 PUSH2 0x16B JUMP JUMPDEST GT SWAP1 POP SWAP1 JUMP JUMPDEST PUSH0 SLOAD DUP2 JUMP JUMPDEST PUSH1 0x3C DUP2 JUMP JUMPDEST TIMESTAMP PUSH0 DUP2 SWAP1 SSTORE POP JUMP JUMPDEST PUSH0 DUP2 ISZERO ISZERO SWAP1 POP SWAP2 SWAP1 POP JUMP JUMPDEST PUSH2 0xEE DUP2 PUSH2 0xDA JUMP JUMPDEST DUP3 MSTORE POP POP JUMP JUMPDEST PUSH0 PUSH1 0x20 DUP3 ADD SWAP1 POP PUSH2 0x107 PUSH0 DUP4 ADD DUP5 PUSH2 0xE5 JUMP JUMPDEST SWAP3 SWAP2 POP POP JUMP JUMPDEST PUSH0 DUP2 SWAP1 POP SWAP2 SWAP1 POP JUMP JUMPDEST PUSH2 0x11F DUP2 PUSH2 0x10D JUMP JUMPDEST DUP3 MSTORE POP POP JUMP JUMPDEST PUSH0 PUSH1 0x20 DUP3 ADD SWAP1 POP PUSH2 0x138 PUSH0 DUP4 ADD DUP5 PUSH2 0x116 JUMP JUMPDEST SWAP3 SWAP2 POP POP JUMP JUMPDEST PUSH32 0x4E487B7100000000000000000000000000000000000000000000000000000000 PUSH0 MSTORE PUSH1 0x11 PUSH1 0x4 MSTORE PUSH1 0x24 PUSH0 REVERT JUMPDEST PUSH0 PUSH2 0x175 DUP3 PUSH2 0x10D JUMP JUMPDEST SWAP2 POP PUSH2 0x180 DUP4 PUSH2 0x10D JUMP JUMPDEST SWAP3 POP DUP3 DUP3 SUB SWAP1 POP DUP2 DUP2 GT ISZERO PUSH2 0x198 JUMPI PUSH2 0x197 PUSH2 0x13E JUMP JUMPDEST JUMPDEST SWAP3 SWAP2 POP POP JUMP INVALID LOG2 PUSH5 0x6970667358 0x22 SLT KECCAK256 ADDRESS LT GASPRICE 0xCD CHAINID PUSH5 0x3B40175AA0 0xD0 SWAP7 SAR RETURNDATACOPY NUMBER SWAP5 GAS PUSH8 0x172480956CC1EB08 0xB0 CALLDATASIZE 0x2E 0xB3 CODECOPY PUSH5 0x736F6C6343 STOP ADDMOD BYTE STOP CALLER "
				},
				"gasEstimates": {
					"creation": {
						"codeDepositCost": "93600",
						"executionCost": "139",
						"totalCost": "93739"
					},
					"external": {
						"delayTime()": "347",
						"isTimeExceeded()": "infinite",
						"latestActionTime()": "2424",
						"updateActionTime()": "22299"
					}
				},
				"methodIdentifiers": {
					"delayTime()": "7e2eee53",
					"isTimeExceeded()": "4f61fd68",
					"latestActionTime()": "7bab61bc",
					"updateActionTime()": "f4176b22"
				}
			},
			"storageLayout": {
				"storage": [
					{
						"astId": 3,
						"contract": "TimeUnit.sol:TimeUnit",
						"label": "latestActionTime",
						"offset": 0,
						"slot": "0",
						"type": "t_uint256"
					}
				],
				"types": {
					"t_uint256": {
						"encoding": "inplace",
						"label": "uint256",
						"numberOfBytes": "32"
					}
				}
			},
			"userdoc": {
				"kind": "user",
				"methods": {},
				"version": 1
			}
		}
	}
}