{
	"CommitReveal.sol": {
		"CommitReveal": {
			"abi": [
				{
					"anonymous": false,
					"inputs": [
						{
							"indexed": false,
							"internalType": "address",
							"name": "sender",
							"type": "address"
						},
						{
							"indexed": false,
							"internalType": "bytes32",
							"name": "dataHash",
							"type": "bytes32"
						},
						{
							"indexed": false,
							"internalType": "uint64",
							"name": "block",
							"type": "uint64"
						}
					],
					"name": "CommitHash",
					"type": "event"
				},
				{
					"anonymous": false,
					"inputs": [
						{
							"indexed": false,
							"internalType": "address",
							"name": "sender",
							"type": "address"
						},
						{
							"indexed": false,
							"internalType": "bytes32",
							"name": "revealHash",
							"type": "bytes32"
						},
						{
							"indexed": false,
							"internalType": "uint256",
							"name": "random",
							"type": "uint256"
						}
					],
					"name": "RevealHash",
					"type": "event"
				},
				{
					"inputs": [
						{
							"internalType": "bytes32",
							"name": "dataHash",
							"type": "bytes32"
						},
						{
							"internalType": "address",
							"name": "sender",
							"type": "address"
						}
					],
					"name": "commit",
					"outputs": [],
					"stateMutability": "nonpayable",
					"type": "function"
				},
				{
					"inputs": [
						{
							"internalType": "address",
							"name": "",
							"type": "address"
						}
					],
					"name": "commits",
					"outputs": [
						{
							"internalType": "bytes32",
							"name": "commit",
							"type": "bytes32"
						},
						{
							"internalType": "uint64",
							"name": "block",
							"type": "uint64"
						},
						{
							"internalType": "bool",
							"name": "revealed",
							"type": "bool"
						},
						{
							"internalType": "bool",
							"name": "commited",
							"type": "bool"
						}
					],
					"stateMutability": "view",
					"type": "function"
				},
				{
					"inputs": [
						{
							"internalType": "address",
							"name": "sender",
							"type": "address"
						}
					],
					"name": "getCommit",
					"outputs": [
						{
							"internalType": "bytes32",
							"name": "",
							"type": "bytes32"
						},
						{
							"internalType": "bool",
							"name": "",
							"type": "bool"
						}
					],
					"stateMutability": "view",
					"type": "function"
				},
				{
					"inputs": [
						{
							"internalType": "bytes32",
							"name": "data",
							"type": "bytes32"
						}
					],
					"name": "getHash",
					"outputs": [
						{
							"internalType": "bytes32",
							"name": "",
							"type": "bytes32"
						}
					],
					"stateMutability": "pure",
					"type": "function"
				},
				{
					"inputs": [],
					"name": "max",
					"outputs": [
						{
							"internalType": "uint8",
							"name": "",
							"type": "uint8"
						}
					],
					"stateMutability": "view",
					"type": "function"
				},
				{
					"inputs": [
						{
							"internalType": "bytes32",
							"name": "revealHash",
							"type": "bytes32"
						},
						{
							"internalType": "address",
							"name": "sender",
							"type": "address"
						}
					],
					"name": "reveal",
					"outputs": [],
					"stateMutability": "nonpayable",
					"type": "function"
				}
			],
			"devdoc": {
				"kind": "dev",
				"methods": {},
				"version": 1
			},
			"evm": {
				"assembly": "    /* \"CommitReveal.sol\":74:2247  contract CommitReveal {... */\n  mstore(0x40, 0x80)\n    /* \"CommitReveal.sol\":122:125  100 */\n  0x64\n    /* \"CommitReveal.sol\":103:125  uint8 public max = 100 */\n  0x00\n  dup1\n  0x0100\n  exp\n  dup2\n  sload\n  dup2\n  0xff\n  mul\n  not\n  and\n  swap1\n  dup4\n  0xff\n  and\n  mul\n  or\n  swap1\n  sstore\n  pop\n    /* \"CommitReveal.sol\":74:2247  contract CommitReveal {... */\n  callvalue\n  dup1\n  iszero\n  tag_1\n  jumpi\n  0x00\n  dup1\n  revert\ntag_1:\n  pop\n  dataSize(sub_0)\n  dup1\n  dataOffset(sub_0)\n  0x00\n  codecopy\n  0x00\n  return\nstop\n\nsub_0: assembly {\n        /* \"CommitReveal.sol\":74:2247  contract CommitReveal {... */\n      mstore(0x40, 0x80)\n      callvalue\n      dup1\n      iszero\n      tag_1\n      jumpi\n      0x00\n      dup1\n      revert\n    tag_1:\n      pop\n      jumpi(tag_2, lt(calldatasize, 0x04))\n      shr(0xe0, calldataload(0x00))\n      dup1\n      0x3cf5040a\n      eq\n      tag_3\n      jumpi\n      dup1\n      0x5a746101\n      eq\n      tag_4\n      jumpi\n      dup1\n      0x6ac5db19\n      eq\n      tag_5\n      jumpi\n      dup1\n      0x7b43a8e6\n      eq\n      tag_6\n      jumpi\n      dup1\n      0x8696b887\n      eq\n      tag_7\n      jumpi\n      dup1\n      0xad487790\n      eq\n      tag_8\n      jumpi\n    tag_2:\n      0x00\n      dup1\n      revert\n        /* \"CommitReveal.sol\":1986:2098  function getHash(bytes32 data) public pure returns(bytes32){... */\n    tag_3:\n      tag_9\n      0x04\n      dup1\n      calldatasize\n      sub\n      dup2\n      add\n      swap1\n      tag_10\n      swap2\n      swap1\n      tag_11\n      jump\t// in\n    tag_10:\n      tag_12\n      jump\t// in\n    tag_9:\n      mload(0x40)\n      tag_13\n      swap2\n      swap1\n      tag_14\n      jump\t// in\n    tag_13:\n      mload(0x40)\n      dup1\n      swap2\n      sub\n      swap1\n      return\n        /* \"CommitReveal.sol\":287:683  function commit(bytes32 dataHash, address sender) public {... */\n    tag_4:\n      tag_15\n      0x04\n      dup1\n      calldatasize\n      sub\n      dup2\n      add\n      swap1\n      tag_16\n      swap2\n      swap1\n      tag_17\n      jump\t// in\n    tag_16:\n      tag_18\n      jump\t// in\n    tag_15:\n      stop\n        /* \"CommitReveal.sol\":103:125  uint8 public max = 100 */\n    tag_5:\n      tag_19\n      tag_20\n      jump\t// in\n    tag_19:\n      mload(0x40)\n      tag_21\n      swap2\n      swap1\n      tag_22\n      jump\t// in\n    tag_21:\n      mload(0x40)\n      dup1\n      swap2\n      sub\n      swap1\n      return\n        /* \"CommitReveal.sol\":238:280  mapping (address => Commit) public commits */\n    tag_6:\n      tag_23\n      0x04\n      dup1\n      calldatasize\n      sub\n      dup2\n      add\n      swap1\n      tag_24\n      swap2\n      swap1\n      tag_25\n      jump\t// in\n    tag_24:\n      tag_26\n      jump\t// in\n    tag_23:\n      mload(0x40)\n      tag_27\n      swap5\n      swap4\n      swap3\n      swap2\n      swap1\n      tag_28\n      jump\t// in\n    tag_27:\n      mload(0x40)\n      dup1\n      swap2\n      sub\n      swap1\n      return\n        /* \"CommitReveal.sol\":2104:2244  function getCommit(address sender) public view returns (bytes32, bool) {... */\n    tag_7:\n      tag_29\n      0x04\n      dup1\n      calldatasize\n      sub\n      dup2\n      add\n      swap1\n      tag_30\n      swap2\n      swap1\n      tag_25\n      jump\t// in\n    tag_30:\n      tag_31\n      jump\t// in\n    tag_29:\n      mload(0x40)\n      tag_32\n      swap3\n      swap2\n      swap1\n      tag_33\n      jump\t// in\n    tag_32:\n      mload(0x40)\n      dup1\n      swap2\n      sub\n      swap1\n      return\n        /* \"CommitReveal.sol\":758:1910  function reveal(bytes32 revealHash, address sender) public {... */\n    tag_8:\n      tag_34\n      0x04\n      dup1\n      calldatasize\n      sub\n      dup2\n      add\n      swap1\n      tag_35\n      swap2\n      swap1\n      tag_17\n      jump\t// in\n    tag_35:\n      tag_36\n      jump\t// in\n    tag_34:\n      stop\n        /* \"CommitReveal.sol\":1986:2098  function getHash(bytes32 data) public pure returns(bytes32){... */\n    tag_12:\n        /* \"CommitReveal.sol\":2037:2044  bytes32 */\n      0x00\n        /* \"CommitReveal.sol\":2086:2090  data */\n      dup2\n        /* \"CommitReveal.sol\":2069:2091  abi.encodePacked(data) */\n      add(0x20, mload(0x40))\n      tag_38\n      swap2\n      swap1\n      tag_39\n      jump\t// in\n    tag_38:\n      mload(0x40)\n      0x20\n      dup2\n      dup4\n      sub\n      sub\n      dup2\n      mstore\n      swap1\n      0x40\n      mstore\n        /* \"CommitReveal.sol\":2059:2092  keccak256(abi.encodePacked(data)) */\n      dup1\n      mload\n      swap1\n      0x20\n      add\n      keccak256\n        /* \"CommitReveal.sol\":2052:2092  return keccak256(abi.encodePacked(data)) */\n      swap1\n      pop\n        /* \"CommitReveal.sol\":1986:2098  function getHash(bytes32 data) public pure returns(bytes32){... */\n      swap2\n      swap1\n      pop\n      jump\t// out\n        /* \"CommitReveal.sol\":287:683  function commit(bytes32 dataHash, address sender) public {... */\n    tag_18:\n        /* \"CommitReveal.sol\":385:390  false */\n      0x00\n        /* \"CommitReveal.sol\":359:390  commits[sender].commited==false */\n      iszero\n      iszero\n        /* \"CommitReveal.sol\":359:366  commits */\n      0x01\n        /* \"CommitReveal.sol\":359:374  commits[sender] */\n      0x00\n        /* \"CommitReveal.sol\":367:373  sender */\n      dup4\n        /* \"CommitReveal.sol\":359:374  commits[sender] */\n      0xffffffffffffffffffffffffffffffffffffffff\n      and\n      0xffffffffffffffffffffffffffffffffffffffff\n      and\n      dup2\n      mstore\n      0x20\n      add\n      swap1\n      dup2\n      mstore\n      0x20\n      add\n      0x00\n      keccak256\n        /* \"CommitReveal.sol\":359:383  commits[sender].commited */\n      0x01\n      add\n      0x09\n      swap1\n      sload\n      swap1\n      0x0100\n      exp\n      swap1\n      div\n      0xff\n      and\n        /* \"CommitReveal.sol\":359:390  commits[sender].commited==false */\n      iszero\n      iszero\n      eq\n        /* \"CommitReveal.sol\":351:432  require(commits[sender].commited==false,\"CommitReveal::commit: Already commited\") */\n      tag_41\n      jumpi\n      mload(0x40)\n      0x08c379a000000000000000000000000000000000000000000000000000000000\n      dup2\n      mstore\n      0x04\n      add\n      tag_42\n      swap1\n      tag_43\n      jump\t// in\n    tag_42:\n      mload(0x40)\n      dup1\n      swap2\n      sub\n      swap1\n      revert\n    tag_41:\n        /* \"CommitReveal.sol\":466:474  dataHash */\n      dup2\n        /* \"CommitReveal.sol\":441:448  commits */\n      0x01\n        /* \"CommitReveal.sol\":441:456  commits[sender] */\n      0x00\n        /* \"CommitReveal.sol\":449:455  sender */\n      dup4\n        /* \"CommitReveal.sol\":441:456  commits[sender] */\n      0xffffffffffffffffffffffffffffffffffffffff\n      and\n      0xffffffffffffffffffffffffffffffffffffffff\n      and\n      dup2\n      mstore\n      0x20\n      add\n      swap1\n      dup2\n      mstore\n      0x20\n      add\n      0x00\n      keccak256\n        /* \"CommitReveal.sol\":441:463  commits[sender].commit */\n      0x00\n      add\n        /* \"CommitReveal.sol\":441:474  commits[sender].commit = dataHash */\n      dup2\n      swap1\n      sstore\n      pop\n        /* \"CommitReveal.sol\":508:512  true */\n      0x01\n        /* \"CommitReveal.sol\":481:488  commits */\n      dup1\n        /* \"CommitReveal.sol\":481:496  commits[sender] */\n      0x00\n        /* \"CommitReveal.sol\":489:495  sender */\n      dup4\n        /* \"CommitReveal.sol\":481:496  commits[sender] */\n      0xffffffffffffffffffffffffffffffffffffffff\n      and\n      0xffffffffffffffffffffffffffffffffffffffff\n      and\n      dup2\n      mstore\n      0x20\n      add\n      swap1\n      dup2\n      mstore\n      0x20\n      add\n      0x00\n      keccak256\n        /* \"CommitReveal.sol\":481:505  commits[sender].commited */\n      0x01\n      add\n      0x09\n        /* \"CommitReveal.sol\":481:512  commits[sender].commited = true */\n      0x0100\n      exp\n      dup2\n      sload\n      dup2\n      0xff\n      mul\n      not\n      and\n      swap1\n      dup4\n      iszero\n      iszero\n      mul\n      or\n      swap1\n      sstore\n      pop\n        /* \"CommitReveal.sol\":550:562  block.number */\n      number\n        /* \"CommitReveal.sol\":519:526  commits */\n      0x01\n        /* \"CommitReveal.sol\":519:534  commits[sender] */\n      0x00\n        /* \"CommitReveal.sol\":527:533  sender */\n      dup4\n        /* \"CommitReveal.sol\":519:534  commits[sender] */\n      0xffffffffffffffffffffffffffffffffffffffff\n      and\n      0xffffffffffffffffffffffffffffffffffffffff\n      and\n      dup2\n      mstore\n      0x20\n      add\n      swap1\n      dup2\n      mstore\n      0x20\n      add\n      0x00\n      keccak256\n        /* \"CommitReveal.sol\":519:540  commits[sender].block */\n      0x01\n      add\n      0x00\n        /* \"CommitReveal.sol\":519:563  commits[sender].block = uint64(block.number) */\n      0x0100\n      exp\n      dup2\n      sload\n      dup2\n      0xffffffffffffffff\n      mul\n      not\n      and\n      swap1\n      dup4\n      0xffffffffffffffff\n      and\n      mul\n      or\n      swap1\n      sstore\n      pop\n        /* \"CommitReveal.sol\":597:602  false */\n      0x00\n        /* \"CommitReveal.sol\":570:577  commits */\n      0x01\n        /* \"CommitReveal.sol\":570:585  commits[sender] */\n      0x00\n        /* \"CommitReveal.sol\":578:584  sender */\n      dup4\n        /* \"CommitReveal.sol\":570:585  commits[sender] */\n      0xffffffffffffffffffffffffffffffffffffffff\n      and\n      0xffffffffffffffffffffffffffffffffffffffff\n      and\n      dup2\n      mstore\n      0x20\n      add\n      swap1\n      dup2\n      mstore\n      0x20\n      add\n      0x00\n      keccak256\n        /* \"CommitReveal.sol\":570:594  commits[sender].revealed */\n      0x01\n      add\n      0x08\n        /* \"CommitReveal.sol\":570:602  commits[sender].revealed = false */\n      0x0100\n      exp\n      dup2\n      sload\n      dup2\n      0xff\n      mul\n      not\n      and\n      swap1\n      dup4\n      iszero\n      iszero\n      mul\n      or\n      swap1\n      sstore\n      pop\n        /* \"CommitReveal.sol\":614:677  CommitHash(sender,commits[sender].commit,commits[sender].block) */\n      0x3c1a1f8f38335b17f751c6da4ba7d1865f26b3997535176f5080de9fad891603\n        /* \"CommitReveal.sol\":625:631  sender */\n      dup2\n        /* \"CommitReveal.sol\":632:639  commits */\n      0x01\n        /* \"CommitReveal.sol\":632:647  commits[sender] */\n      0x00\n        /* \"CommitReveal.sol\":640:646  sender */\n      dup5\n        /* \"CommitReveal.sol\":632:647  commits[sender] */\n      0xffffffffffffffffffffffffffffffffffffffff\n      and\n      0xffffffffffffffffffffffffffffffffffffffff\n      and\n      dup2\n      mstore\n      0x20\n      add\n      swap1\n      dup2\n      mstore\n      0x20\n      add\n      0x00\n      keccak256\n        /* \"CommitReveal.sol\":632:654  commits[sender].commit */\n      0x00\n      add\n      sload\n        /* \"CommitReveal.sol\":655:662  commits */\n      0x01\n        /* \"CommitReveal.sol\":655:670  commits[sender] */\n      0x00\n        /* \"CommitReveal.sol\":663:669  sender */\n      dup6\n        /* \"CommitReveal.sol\":655:670  commits[sender] */\n      0xffffffffffffffffffffffffffffffffffffffff\n      and\n      0xffffffffffffffffffffffffffffffffffffffff\n      and\n      dup2\n      mstore\n      0x20\n      add\n      swap1\n      dup2\n      mstore\n      0x20\n      add\n      0x00\n      keccak256\n        /* \"CommitReveal.sol\":655:676  commits[sender].block */\n      0x01\n      add\n      0x00\n      swap1\n      sload\n      swap1\n      0x0100\n      exp\n      swap1\n      div\n      0xffffffffffffffff\n      and\n        /* \"CommitReveal.sol\":614:677  CommitHash(sender,commits[sender].commit,commits[sender].block) */\n      mload(0x40)\n      tag_44\n      swap4\n      swap3\n      swap2\n      swap1\n      tag_45\n      jump\t// in\n    tag_44:\n      mload(0x40)\n      dup1\n      swap2\n      sub\n      swap1\n      log1\n        /* \"CommitReveal.sol\":287:683  function commit(bytes32 dataHash, address sender) public {... */\n      pop\n      pop\n      jump\t// out\n        /* \"CommitReveal.sol\":103:125  uint8 public max = 100 */\n    tag_20:\n      0x00\n      dup1\n      sload\n      swap1\n      0x0100\n      exp\n      swap1\n      div\n      0xff\n      and\n      dup2\n      jump\t// out\n        /* \"CommitReveal.sol\":238:280  mapping (address => Commit) public commits */\n    tag_26:\n      mstore(0x20, 0x01)\n      dup1\n      0x00\n      mstore\n      keccak256(0x00, 0x40)\n      0x00\n      swap2\n      pop\n      swap1\n      pop\n      dup1\n      0x00\n      add\n      sload\n      swap1\n      dup1\n      0x01\n      add\n      0x00\n      swap1\n      sload\n      swap1\n      0x0100\n      exp\n      swap1\n      div\n      0xffffffffffffffff\n      and\n      swap1\n      dup1\n      0x01\n      add\n      0x08\n      swap1\n      sload\n      swap1\n      0x0100\n      exp\n      swap1\n      div\n      0xff\n      and\n      swap1\n      dup1\n      0x01\n      add\n      0x09\n      swap1\n      sload\n      swap1\n      0x0100\n      exp\n      swap1\n      div\n      0xff\n      and\n      swap1\n      pop\n      dup5\n      jump\t// out\n        /* \"CommitReveal.sol\":2104:2244  function getCommit(address sender) public view returns (bytes32, bool) {... */\n    tag_31:\n        /* \"CommitReveal.sol\":2160:2167  bytes32 */\n      0x00\n        /* \"CommitReveal.sol\":2169:2173  bool */\n      dup1\n        /* \"CommitReveal.sol\":2190:2197  commits */\n      0x01\n        /* \"CommitReveal.sol\":2190:2205  commits[sender] */\n      0x00\n        /* \"CommitReveal.sol\":2198:2204  sender */\n      dup5\n        /* \"CommitReveal.sol\":2190:2205  commits[sender] */\n      0xffffffffffffffffffffffffffffffffffffffff\n      and\n      0xffffffffffffffffffffffffffffffffffffffff\n      and\n      dup2\n      mstore\n      0x20\n      add\n      swap1\n      dup2\n      mstore\n      0x20\n      add\n      0x00\n      keccak256\n        /* \"CommitReveal.sol\":2190:2212  commits[sender].commit */\n      0x00\n      add\n      sload\n        /* \"CommitReveal.sol\":2213:2220  commits */\n      0x01\n        /* \"CommitReveal.sol\":2213:2228  commits[sender] */\n      0x00\n        /* \"CommitReveal.sol\":2221:2227  sender */\n      dup6\n        /* \"CommitReveal.sol\":2213:2228  commits[sender] */\n      0xffffffffffffffffffffffffffffffffffffffff\n      and\n      0xffffffffffffffffffffffffffffffffffffffff\n      and\n      dup2\n      mstore\n      0x20\n      add\n      swap1\n      dup2\n      mstore\n      0x20\n      add\n      0x00\n      keccak256\n        /* \"CommitReveal.sol\":2213:2237  commits[sender].revealed */\n      0x01\n      add\n      0x08\n      swap1\n      sload\n      swap1\n      0x0100\n      exp\n      swap1\n      div\n      0xff\n      and\n        /* \"CommitReveal.sol\":2182:2238  return (commits[sender].commit,commits[sender].revealed) */\n      swap2\n      pop\n      swap2\n      pop\n        /* \"CommitReveal.sol\":2104:2244  function getCommit(address sender) public view returns (bytes32, bool) {... */\n      swap2\n      pop\n      swap2\n      jump\t// out\n        /* \"CommitReveal.sol\":758:1910  function reveal(bytes32 revealHash, address sender) public {... */\n    tag_36:\n        /* \"CommitReveal.sol\":926:931  false */\n      0x00\n        /* \"CommitReveal.sol\":900:931  commits[sender].revealed==false */\n      iszero\n      iszero\n        /* \"CommitReveal.sol\":900:907  commits */\n      0x01\n        /* \"CommitReveal.sol\":900:915  commits[sender] */\n      0x00\n        /* \"CommitReveal.sol\":908:914  sender */\n      dup4\n        /* \"CommitReveal.sol\":900:915  commits[sender] */\n      0xffffffffffffffffffffffffffffffffffffffff\n      and\n      0xffffffffffffffffffffffffffffffffffffffff\n      and\n      dup2\n      mstore\n      0x20\n      add\n      swap1\n      dup2\n      mstore\n      0x20\n      add\n      0x00\n      keccak256\n        /* \"CommitReveal.sol\":900:924  commits[sender].revealed */\n      0x01\n      add\n      0x08\n      swap1\n      sload\n      swap1\n      0x0100\n      exp\n      swap1\n      div\n      0xff\n      and\n        /* \"CommitReveal.sol\":900:931  commits[sender].revealed==false */\n      iszero\n      iszero\n      eq\n        /* \"CommitReveal.sol\":892:973  require(commits[sender].revealed==false,\"CommitReveal::reveal: Already revealed\") */\n      tag_48\n      jumpi\n      mload(0x40)\n      0x08c379a000000000000000000000000000000000000000000000000000000000\n      dup2\n      mstore\n      0x04\n      add\n      tag_49\n      swap1\n      tag_50\n      jump\t// in\n    tag_49:\n      mload(0x40)\n      dup1\n      swap2\n      sub\n      swap1\n      revert\n    tag_48:\n        /* \"CommitReveal.sol\":1005:1009  true */\n      0x01\n        /* \"CommitReveal.sol\":980:987  commits */\n      dup1\n        /* \"CommitReveal.sol\":980:995  commits[sender] */\n      0x00\n        /* \"CommitReveal.sol\":988:994  sender */\n      dup4\n        /* \"CommitReveal.sol\":980:995  commits[sender] */\n      0xffffffffffffffffffffffffffffffffffffffff\n      and\n      0xffffffffffffffffffffffffffffffffffffffff\n      and\n      dup2\n      mstore\n      0x20\n      add\n      swap1\n      dup2\n      mstore\n      0x20\n      add\n      0x00\n      keccak256\n        /* \"CommitReveal.sol\":980:1004  commits[sender].revealed */\n      0x01\n      add\n      0x08\n        /* \"CommitReveal.sol\":980:1009  commits[sender].revealed=true */\n      0x0100\n      exp\n      dup2\n      sload\n      dup2\n      0xff\n      mul\n      not\n      and\n      swap1\n      dup4\n      iszero\n      iszero\n      mul\n      or\n      swap1\n      sstore\n      pop\n        /* \"CommitReveal.sol\":1101:1108  commits */\n      0x01\n        /* \"CommitReveal.sol\":1101:1116  commits[sender] */\n      0x00\n        /* \"CommitReveal.sol\":1109:1115  sender */\n      dup3\n        /* \"CommitReveal.sol\":1101:1116  commits[sender] */\n      0xffffffffffffffffffffffffffffffffffffffff\n      and\n      0xffffffffffffffffffffffffffffffffffffffff\n      and\n      dup2\n      mstore\n      0x20\n      add\n      swap1\n      dup2\n      mstore\n      0x20\n      add\n      0x00\n      keccak256\n        /* \"CommitReveal.sol\":1101:1123  commits[sender].commit */\n      0x00\n      add\n      sload\n        /* \"CommitReveal.sol\":1080:1099  getHash(revealHash) */\n      tag_51\n        /* \"CommitReveal.sol\":1088:1098  revealHash */\n      dup4\n        /* \"CommitReveal.sol\":1080:1087  getHash */\n      tag_12\n        /* \"CommitReveal.sol\":1080:1099  getHash(revealHash) */\n      jump\t// in\n    tag_51:\n        /* \"CommitReveal.sol\":1080:1123  getHash(revealHash)==commits[sender].commit */\n      eq\n        /* \"CommitReveal.sol\":1072:1184  require(getHash(revealHash)==commits[sender].commit,\"CommitReveal::reveal: Revealed hash does not match commit\") */\n      tag_52\n      jumpi\n      mload(0x40)\n      0x08c379a000000000000000000000000000000000000000000000000000000000\n      dup2\n      mstore\n      0x04\n      add\n      tag_53\n      swap1\n      tag_54\n      jump\t// in\n    tag_53:\n      mload(0x40)\n      dup1\n      swap2\n      sub\n      swap1\n      revert\n    tag_52:\n        /* \"CommitReveal.sol\":1292:1299  commits */\n      0x01\n        /* \"CommitReveal.sol\":1292:1307  commits[sender] */\n      0x00\n        /* \"CommitReveal.sol\":1300:1306  sender */\n      dup3\n        /* \"CommitReveal.sol\":1292:1307  commits[sender] */\n      0xffffffffffffffffffffffffffffffffffffffff\n      and\n      0xffffffffffffffffffffffffffffffffffffffff\n      and\n      dup2\n      mstore\n      0x20\n      add\n      swap1\n      dup2\n      mstore\n      0x20\n      add\n      0x00\n      keccak256\n        /* \"CommitReveal.sol\":1292:1313  commits[sender].block */\n      0x01\n      add\n      0x00\n      swap1\n      sload\n      swap1\n      0x0100\n      exp\n      swap1\n      div\n      0xffffffffffffffff\n      and\n        /* \"CommitReveal.sol\":1271:1313  uint64(block.number)>commits[sender].block */\n      0xffffffffffffffff\n      and\n        /* \"CommitReveal.sol\":1278:1290  block.number */\n      number\n        /* \"CommitReveal.sol\":1271:1313  uint64(block.number)>commits[sender].block */\n      0xffffffffffffffff\n      and\n      gt\n        /* \"CommitReveal.sol\":1263:1383  require(uint64(block.number)>commits[sender].block,\"CommitReveal::reveal: Reveal and commit happened on the same block\") */\n      tag_55\n      jumpi\n      mload(0x40)\n      0x08c379a000000000000000000000000000000000000000000000000000000000\n      dup2\n      mstore\n      0x04\n      add\n      tag_56\n      swap1\n      tag_57\n      jump\t// in\n    tag_56:\n      mload(0x40)\n      dup1\n      swap2\n      sub\n      swap1\n      revert\n    tag_55:\n        /* \"CommitReveal.sol\":1498:1501  250 */\n      0xfa\n        /* \"CommitReveal.sol\":1476:1483  commits */\n      0x01\n        /* \"CommitReveal.sol\":1476:1491  commits[sender] */\n      0x00\n        /* \"CommitReveal.sol\":1484:1490  sender */\n      dup4\n        /* \"CommitReveal.sol\":1476:1491  commits[sender] */\n      0xffffffffffffffffffffffffffffffffffffffff\n      and\n      0xffffffffffffffffffffffffffffffffffffffff\n      and\n      dup2\n      mstore\n      0x20\n      add\n      swap1\n      dup2\n      mstore\n      0x20\n      add\n      0x00\n      keccak256\n        /* \"CommitReveal.sol\":1476:1497  commits[sender].block */\n      0x01\n      add\n      0x00\n      swap1\n      sload\n      swap1\n      0x0100\n      exp\n      swap1\n      div\n      0xffffffffffffffff\n      and\n        /* \"CommitReveal.sol\":1476:1501  commits[sender].block+250 */\n      tag_58\n      swap2\n      swap1\n      tag_59\n      jump\t// in\n    tag_58:\n        /* \"CommitReveal.sol\":1454:1501  uint64(block.number)<=commits[sender].block+250 */\n      0xffffffffffffffff\n      and\n        /* \"CommitReveal.sol\":1461:1473  block.number */\n      number\n        /* \"CommitReveal.sol\":1454:1501  uint64(block.number)<=commits[sender].block+250 */\n      0xffffffffffffffff\n      and\n      gt\n      iszero\n        /* \"CommitReveal.sol\":1446:1544  require(uint64(block.number)<=commits[sender].block+250,\"CommitReveal::reveal: Revealed too late\") */\n      tag_60\n      jumpi\n      mload(0x40)\n      0x08c379a000000000000000000000000000000000000000000000000000000000\n      dup2\n      mstore\n      0x04\n      add\n      tag_61\n      swap1\n      tag_62\n      jump\t// in\n    tag_61:\n      mload(0x40)\n      dup1\n      swap2\n      sub\n      swap1\n      revert\n    tag_60:\n        /* \"CommitReveal.sol\":1619:1636  bytes32 blockHash */\n      0x00\n        /* \"CommitReveal.sol\":1649:1656  commits */\n      0x01\n        /* \"CommitReveal.sol\":1649:1664  commits[sender] */\n      0x00\n        /* \"CommitReveal.sol\":1657:1663  sender */\n      dup4\n        /* \"CommitReveal.sol\":1649:1664  commits[sender] */\n      0xffffffffffffffffffffffffffffffffffffffff\n      and\n      0xffffffffffffffffffffffffffffffffffffffff\n      and\n      dup2\n      mstore\n      0x20\n      add\n      swap1\n      dup2\n      mstore\n      0x20\n      add\n      0x00\n      keccak256\n        /* \"CommitReveal.sol\":1649:1670  commits[sender].block */\n      0x01\n      add\n      0x00\n      swap1\n      sload\n      swap1\n      0x0100\n      exp\n      swap1\n      div\n      0xffffffffffffffff\n      and\n        /* \"CommitReveal.sol\":1639:1671  blockhash(commits[sender].block) */\n      0xffffffffffffffff\n      and\n      blockhash\n        /* \"CommitReveal.sol\":1619:1671  bytes32 blockHash = blockhash(commits[sender].block) */\n      swap1\n      pop\n        /* \"CommitReveal.sol\":1783:1794  uint random */\n      0x00\n        /* \"CommitReveal.sol\":1853:1856  max */\n      dup1\n      0x00\n      swap1\n      sload\n      swap1\n      0x0100\n      exp\n      swap1\n      div\n      0xff\n      and\n        /* \"CommitReveal.sol\":1797:1856  uint(keccak256(abi.encodePacked(blockHash,revealHash)))%max */\n      0xff\n      and\n        /* \"CommitReveal.sol\":1829:1838  blockHash */\n      dup3\n        /* \"CommitReveal.sol\":1839:1849  revealHash */\n      dup6\n        /* \"CommitReveal.sol\":1812:1850  abi.encodePacked(blockHash,revealHash) */\n      add(0x20, mload(0x40))\n      tag_63\n      swap3\n      swap2\n      swap1\n      tag_64\n      jump\t// in\n    tag_63:\n      mload(0x40)\n      0x20\n      dup2\n      dup4\n      sub\n      sub\n      dup2\n      mstore\n      swap1\n      0x40\n      mstore\n        /* \"CommitReveal.sol\":1802:1851  keccak256(abi.encodePacked(blockHash,revealHash)) */\n      dup1\n      mload\n      swap1\n      0x20\n      add\n      keccak256\n        /* \"CommitReveal.sol\":1797:1852  uint(keccak256(abi.encodePacked(blockHash,revealHash))) */\n      0x00\n      shr\n        /* \"CommitReveal.sol\":1797:1856  uint(keccak256(abi.encodePacked(blockHash,revealHash)))%max */\n      tag_65\n      swap2\n      swap1\n      tag_66\n      jump\t// in\n    tag_65:\n        /* \"CommitReveal.sol\":1783:1856  uint random = uint(keccak256(abi.encodePacked(blockHash,revealHash)))%max */\n      swap1\n      pop\n        /* \"CommitReveal.sol\":1868:1904  RevealHash(sender,revealHash,random) */\n      0xbc016dd1cadeaefcb851af7a0a93532e0023d536894b730801f7bcfe7065bcc2\n        /* \"CommitReveal.sol\":1879:1885  sender */\n      dup4\n        /* \"CommitReveal.sol\":1886:1896  revealHash */\n      dup6\n        /* \"CommitReveal.sol\":1897:1903  random */\n      dup4\n        /* \"CommitReveal.sol\":1868:1904  RevealHash(sender,revealHash,random) */\n      mload(0x40)\n      tag_67\n      swap4\n      swap3\n      swap2\n      swap1\n      tag_68\n      jump\t// in\n    tag_67:\n      mload(0x40)\n      dup1\n      swap2\n      sub\n      swap1\n      log1\n        /* \"CommitReveal.sol\":817:1910  {... */\n      pop\n      pop\n        /* \"CommitReveal.sol\":758:1910  function reveal(bytes32 revealHash, address sender) public {... */\n      pop\n      pop\n      jump\t// out\n        /* \"#utility.yul\":88:205   */\n    tag_70:\n        /* \"#utility.yul\":197:198   */\n      0x00\n        /* \"#utility.yul\":194:195   */\n      dup1\n        /* \"#utility.yul\":187:199   */\n      revert\n        /* \"#utility.yul\":334:411   */\n    tag_72:\n        /* \"#utility.yul\":371:378   */\n      0x00\n        /* \"#utility.yul\":400:405   */\n      dup2\n        /* \"#utility.yul\":389:405   */\n      swap1\n      pop\n        /* \"#utility.yul\":334:411   */\n      swap2\n      swap1\n      pop\n      jump\t// out\n        /* \"#utility.yul\":417:539   */\n    tag_73:\n        /* \"#utility.yul\":490:514   */\n      tag_110\n        /* \"#utility.yul\":508:513   */\n      dup2\n        /* \"#utility.yul\":490:514   */\n      tag_72\n      jump\t// in\n    tag_110:\n        /* \"#utility.yul\":483:488   */\n      dup2\n        /* \"#utility.yul\":480:515   */\n      eq\n        /* \"#utility.yul\":470:533   */\n      tag_111\n      jumpi\n        /* \"#utility.yul\":529:530   */\n      0x00\n        /* \"#utility.yul\":526:527   */\n      dup1\n        /* \"#utility.yul\":519:531   */\n      revert\n        /* \"#utility.yul\":470:533   */\n    tag_111:\n        /* \"#utility.yul\":417:539   */\n      pop\n      jump\t// out\n        /* \"#utility.yul\":545:684   */\n    tag_74:\n        /* \"#utility.yul\":591:596   */\n      0x00\n        /* \"#utility.yul\":629:635   */\n      dup2\n        /* \"#utility.yul\":616:636   */\n      calldataload\n        /* \"#utility.yul\":607:636   */\n      swap1\n      pop\n        /* \"#utility.yul\":645:678   */\n      tag_113\n        /* \"#utility.yul\":672:677   */\n      dup2\n        /* \"#utility.yul\":645:678   */\n      tag_73\n      jump\t// in\n    tag_113:\n        /* \"#utility.yul\":545:684   */\n      swap3\n      swap2\n      pop\n      pop\n      jump\t// out\n        /* \"#utility.yul\":690:1019   */\n    tag_11:\n        /* \"#utility.yul\":749:755   */\n      0x00\n        /* \"#utility.yul\":798:800   */\n      0x20\n        /* \"#utility.yul\":786:795   */\n      dup3\n        /* \"#utility.yul\":777:784   */\n      dup5\n        /* \"#utility.yul\":773:796   */\n      sub\n        /* \"#utility.yul\":769:801   */\n      slt\n        /* \"#utility.yul\":766:885   */\n      iszero\n      tag_115\n      jumpi\n        /* \"#utility.yul\":804:883   */\n      tag_116\n      tag_70\n      jump\t// in\n    tag_116:\n        /* \"#utility.yul\":766:885   */\n    tag_115:\n        /* \"#utility.yul\":924:925   */\n      0x00\n        /* \"#utility.yul\":949:1002   */\n      tag_117\n        /* \"#utility.yul\":994:1001   */\n      dup5\n        /* \"#utility.yul\":985:991   */\n      dup3\n        /* \"#utility.yul\":974:983   */\n      dup6\n        /* \"#utility.yul\":970:992   */\n      add\n        /* \"#utility.yul\":949:1002   */\n      tag_74\n      jump\t// in\n    tag_117:\n        /* \"#utility.yul\":939:1002   */\n      swap2\n      pop\n        /* \"#utility.yul\":895:1012   */\n      pop\n        /* \"#utility.yul\":690:1019   */\n      swap3\n      swap2\n      pop\n      pop\n      jump\t// out\n        /* \"#utility.yul\":1025:1143   */\n    tag_75:\n        /* \"#utility.yul\":1112:1136   */\n      tag_119\n        /* \"#utility.yul\":1130:1135   */\n      dup2\n        /* \"#utility.yul\":1112:1136   */\n      tag_72\n      jump\t// in\n    tag_119:\n        /* \"#utility.yul\":1107:1110   */\n      dup3\n        /* \"#utility.yul\":1100:1137   */\n      mstore\n        /* \"#utility.yul\":1025:1143   */\n      pop\n      pop\n      jump\t// out\n        /* \"#utility.yul\":1149:1371   */\n    tag_14:\n        /* \"#utility.yul\":1242:1246   */\n      0x00\n        /* \"#utility.yul\":1280:1282   */\n      0x20\n        /* \"#utility.yul\":1269:1278   */\n      dup3\n        /* \"#utility.yul\":1265:1283   */\n      add\n        /* \"#utility.yul\":1257:1283   */\n      swap1\n      pop\n        /* \"#utility.yul\":1293:1364   */\n      tag_121\n        /* \"#utility.yul\":1361:1362   */\n      0x00\n        /* \"#utility.yul\":1350:1359   */\n      dup4\n        /* \"#utility.yul\":1346:1363   */\n      add\n        /* \"#utility.yul\":1337:1343   */\n      dup5\n        /* \"#utility.yul\":1293:1364   */\n      tag_75\n      jump\t// in\n    tag_121:\n        /* \"#utility.yul\":1149:1371   */\n      swap3\n      swap2\n      pop\n      pop\n      jump\t// out\n        /* \"#utility.yul\":1377:1503   */\n    tag_76:\n        /* \"#utility.yul\":1414:1421   */\n      0x00\n        /* \"#utility.yul\":1454:1496   */\n      0xffffffffffffffffffffffffffffffffffffffff\n        /* \"#utility.yul\":1447:1452   */\n      dup3\n        /* \"#utility.yul\":1443:1497   */\n      and\n        /* \"#utility.yul\":1432:1497   */\n      swap1\n      pop\n        /* \"#utility.yul\":1377:1503   */\n      swap2\n      swap1\n      pop\n      jump\t// out\n        /* \"#utility.yul\":1509:1605   */\n    tag_77:\n        /* \"#utility.yul\":1546:1553   */\n      0x00\n        /* \"#utility.yul\":1575:1599   */\n      tag_124\n        /* \"#utility.yul\":1593:1598   */\n      dup3\n        /* \"#utility.yul\":1575:1599   */\n      tag_76\n      jump\t// in\n    tag_124:\n        /* \"#utility.yul\":1564:1599   */\n      swap1\n      pop\n        /* \"#utility.yul\":1509:1605   */\n      swap2\n      swap1\n      pop\n      jump\t// out\n        /* \"#utility.yul\":1611:1733   */\n    tag_78:\n        /* \"#utility.yul\":1684:1708   */\n      tag_126\n        /* \"#utility.yul\":1702:1707   */\n      dup2\n        /* \"#utility.yul\":1684:1708   */\n      tag_77\n      jump\t// in\n    tag_126:\n        /* \"#utility.yul\":1677:1682   */\n      dup2\n        /* \"#utility.yul\":1674:1709   */\n      eq\n        /* \"#utility.yul\":1664:1727   */\n      tag_127\n      jumpi\n        /* \"#utility.yul\":1723:1724   */\n      0x00\n        /* \"#utility.yul\":1720:1721   */\n      dup1\n        /* \"#utility.yul\":1713:1725   */\n      revert\n        /* \"#utility.yul\":1664:1727   */\n    tag_127:\n        /* \"#utility.yul\":1611:1733   */\n      pop\n      jump\t// out\n        /* \"#utility.yul\":1739:1878   */\n    tag_79:\n        /* \"#utility.yul\":1785:1790   */\n      0x00\n        /* \"#utility.yul\":1823:1829   */\n      dup2\n        /* \"#utility.yul\":1810:1830   */\n      calldataload\n        /* \"#utility.yul\":1801:1830   */\n      swap1\n      pop\n        /* \"#utility.yul\":1839:1872   */\n      tag_129\n        /* \"#utility.yul\":1866:1871   */\n      dup2\n        /* \"#utility.yul\":1839:1872   */\n      tag_78\n      jump\t// in\n    tag_129:\n        /* \"#utility.yul\":1739:1878   */\n      swap3\n      swap2\n      pop\n      pop\n      jump\t// out\n        /* \"#utility.yul\":1884:2358   */\n    tag_17:\n        /* \"#utility.yul\":1952:1958   */\n      0x00\n        /* \"#utility.yul\":1960:1966   */\n      dup1\n        /* \"#utility.yul\":2009:2011   */\n      0x40\n        /* \"#utility.yul\":1997:2006   */\n      dup4\n        /* \"#utility.yul\":1988:1995   */\n      dup6\n        /* \"#utility.yul\":1984:2007   */\n      sub\n        /* \"#utility.yul\":1980:2012   */\n      slt\n        /* \"#utility.yul\":1977:2096   */\n      iszero\n      tag_131\n      jumpi\n        /* \"#utility.yul\":2015:2094   */\n      tag_132\n      tag_70\n      jump\t// in\n    tag_132:\n        /* \"#utility.yul\":1977:2096   */\n    tag_131:\n        /* \"#utility.yul\":2135:2136   */\n      0x00\n        /* \"#utility.yul\":2160:2213   */\n      tag_133\n        /* \"#utility.yul\":2205:2212   */\n      dup6\n        /* \"#utility.yul\":2196:2202   */\n      dup3\n        /* \"#utility.yul\":2185:2194   */\n      dup7\n        /* \"#utility.yul\":2181:2203   */\n      add\n        /* \"#utility.yul\":2160:2213   */\n      tag_74\n      jump\t// in\n    tag_133:\n        /* \"#utility.yul\":2150:2213   */\n      swap3\n      pop\n        /* \"#utility.yul\":2106:2223   */\n      pop\n        /* \"#utility.yul\":2262:2264   */\n      0x20\n        /* \"#utility.yul\":2288:2341   */\n      tag_134\n        /* \"#utility.yul\":2333:2340   */\n      dup6\n        /* \"#utility.yul\":2324:2330   */\n      dup3\n        /* \"#utility.yul\":2313:2322   */\n      dup7\n        /* \"#utility.yul\":2309:2331   */\n      add\n        /* \"#utility.yul\":2288:2341   */\n      tag_79\n      jump\t// in\n    tag_134:\n        /* \"#utility.yul\":2278:2341   */\n      swap2\n      pop\n        /* \"#utility.yul\":2233:2351   */\n      pop\n        /* \"#utility.yul\":1884:2358   */\n      swap3\n      pop\n      swap3\n      swap1\n      pop\n      jump\t// out\n        /* \"#utility.yul\":2364:2450   */\n    tag_80:\n        /* \"#utility.yul\":2399:2406   */\n      0x00\n        /* \"#utility.yul\":2439:2443   */\n      0xff\n        /* \"#utility.yul\":2432:2437   */\n      dup3\n        /* \"#utility.yul\":2428:2444   */\n      and\n        /* \"#utility.yul\":2417:2444   */\n      swap1\n      pop\n        /* \"#utility.yul\":2364:2450   */\n      swap2\n      swap1\n      pop\n      jump\t// out\n        /* \"#utility.yul\":2456:2568   */\n    tag_81:\n        /* \"#utility.yul\":2539:2561   */\n      tag_137\n        /* \"#utility.yul\":2555:2560   */\n      dup2\n        /* \"#utility.yul\":2539:2561   */\n      tag_80\n      jump\t// in\n    tag_137:\n        /* \"#utility.yul\":2534:2537   */\n      dup3\n        /* \"#utility.yul\":2527:2562   */\n      mstore\n        /* \"#utility.yul\":2456:2568   */\n      pop\n      pop\n      jump\t// out\n        /* \"#utility.yul\":2574:2788   */\n    tag_22:\n        /* \"#utility.yul\":2663:2667   */\n      0x00\n        /* \"#utility.yul\":2701:2703   */\n      0x20\n        /* \"#utility.yul\":2690:2699   */\n      dup3\n        /* \"#utility.yul\":2686:2704   */\n      add\n        /* \"#utility.yul\":2678:2704   */\n      swap1\n      pop\n        /* \"#utility.yul\":2714:2781   */\n      tag_139\n        /* \"#utility.yul\":2778:2779   */\n      0x00\n        /* \"#utility.yul\":2767:2776   */\n      dup4\n        /* \"#utility.yul\":2763:2780   */\n      add\n        /* \"#utility.yul\":2754:2760   */\n      dup5\n        /* \"#utility.yul\":2714:2781   */\n      tag_81\n      jump\t// in\n    tag_139:\n        /* \"#utility.yul\":2574:2788   */\n      swap3\n      swap2\n      pop\n      pop\n      jump\t// out\n        /* \"#utility.yul\":2794:3123   */\n    tag_25:\n        /* \"#utility.yul\":2853:2859   */\n      0x00\n        /* \"#utility.yul\":2902:2904   */\n      0x20\n        /* \"#utility.yul\":2890:2899   */\n      dup3\n        /* \"#utility.yul\":2881:2888   */\n      dup5\n        /* \"#utility.yul\":2877:2900   */\n      sub\n        /* \"#utility.yul\":2873:2905   */\n      slt\n        /* \"#utility.yul\":2870:2989   */\n      iszero\n      tag_141\n      jumpi\n        /* \"#utility.yul\":2908:2987   */\n      tag_142\n      tag_70\n      jump\t// in\n    tag_142:\n        /* \"#utility.yul\":2870:2989   */\n    tag_141:\n        /* \"#utility.yul\":3028:3029   */\n      0x00\n        /* \"#utility.yul\":3053:3106   */\n      tag_143\n        /* \"#utility.yul\":3098:3105   */\n      dup5\n        /* \"#utility.yul\":3089:3095   */\n      dup3\n        /* \"#utility.yul\":3078:3087   */\n      dup6\n        /* \"#utility.yul\":3074:3096   */\n      add\n        /* \"#utility.yul\":3053:3106   */\n      tag_79\n      jump\t// in\n    tag_143:\n        /* \"#utility.yul\":3043:3106   */\n      swap2\n      pop\n        /* \"#utility.yul\":2999:3116   */\n      pop\n        /* \"#utility.yul\":2794:3123   */\n      swap3\n      swap2\n      pop\n      pop\n      jump\t// out\n        /* \"#utility.yul\":3129:3230   */\n    tag_82:\n        /* \"#utility.yul\":3165:3172   */\n      0x00\n        /* \"#utility.yul\":3205:3223   */\n      0xffffffffffffffff\n        /* \"#utility.yul\":3198:3203   */\n      dup3\n        /* \"#utility.yul\":3194:3224   */\n      and\n        /* \"#utility.yul\":3183:3224   */\n      swap1\n      pop\n        /* \"#utility.yul\":3129:3230   */\n      swap2\n      swap1\n      pop\n      jump\t// out\n        /* \"#utility.yul\":3236:3351   */\n    tag_83:\n        /* \"#utility.yul\":3321:3344   */\n      tag_146\n        /* \"#utility.yul\":3338:3343   */\n      dup2\n        /* \"#utility.yul\":3321:3344   */\n      tag_82\n      jump\t// in\n    tag_146:\n        /* \"#utility.yul\":3316:3319   */\n      dup3\n        /* \"#utility.yul\":3309:3345   */\n      mstore\n        /* \"#utility.yul\":3236:3351   */\n      pop\n      pop\n      jump\t// out\n        /* \"#utility.yul\":3357:3447   */\n    tag_84:\n        /* \"#utility.yul\":3391:3398   */\n      0x00\n        /* \"#utility.yul\":3434:3439   */\n      dup2\n        /* \"#utility.yul\":3427:3440   */\n      iszero\n        /* \"#utility.yul\":3420:3441   */\n      iszero\n        /* \"#utility.yul\":3409:3441   */\n      swap1\n      pop\n        /* \"#utility.yul\":3357:3447   */\n      swap2\n      swap1\n      pop\n      jump\t// out\n        /* \"#utility.yul\":3453:3562   */\n    tag_85:\n        /* \"#utility.yul\":3534:3555   */\n      tag_149\n        /* \"#utility.yul\":3549:3554   */\n      dup2\n        /* \"#utility.yul\":3534:3555   */\n      tag_84\n      jump\t// in\n    tag_149:\n        /* \"#utility.yul\":3529:3532   */\n      dup3\n        /* \"#utility.yul\":3522:3556   */\n      mstore\n        /* \"#utility.yul\":3453:3562   */\n      pop\n      pop\n      jump\t// out\n        /* \"#utility.yul\":3568:4093   */\n    tag_28:\n        /* \"#utility.yul\":3731:3735   */\n      0x00\n        /* \"#utility.yul\":3769:3772   */\n      0x80\n        /* \"#utility.yul\":3758:3767   */\n      dup3\n        /* \"#utility.yul\":3754:3773   */\n      add\n        /* \"#utility.yul\":3746:3773   */\n      swap1\n      pop\n        /* \"#utility.yul\":3783:3854   */\n      tag_151\n        /* \"#utility.yul\":3851:3852   */\n      0x00\n        /* \"#utility.yul\":3840:3849   */\n      dup4\n        /* \"#utility.yul\":3836:3853   */\n      add\n        /* \"#utility.yul\":3827:3833   */\n      dup8\n        /* \"#utility.yul\":3783:3854   */\n      tag_75\n      jump\t// in\n    tag_151:\n        /* \"#utility.yul\":3864:3934   */\n      tag_152\n        /* \"#utility.yul\":3930:3932   */\n      0x20\n        /* \"#utility.yul\":3919:3928   */\n      dup4\n        /* \"#utility.yul\":3915:3933   */\n      add\n        /* \"#utility.yul\":3906:3912   */\n      dup7\n        /* \"#utility.yul\":3864:3934   */\n      tag_83\n      jump\t// in\n    tag_152:\n        /* \"#utility.yul\":3944:4010   */\n      tag_153\n        /* \"#utility.yul\":4006:4008   */\n      0x40\n        /* \"#utility.yul\":3995:4004   */\n      dup4\n        /* \"#utility.yul\":3991:4009   */\n      add\n        /* \"#utility.yul\":3982:3988   */\n      dup6\n        /* \"#utility.yul\":3944:4010   */\n      tag_85\n      jump\t// in\n    tag_153:\n        /* \"#utility.yul\":4020:4086   */\n      tag_154\n        /* \"#utility.yul\":4082:4084   */\n      0x60\n        /* \"#utility.yul\":4071:4080   */\n      dup4\n        /* \"#utility.yul\":4067:4085   */\n      add\n        /* \"#utility.yul\":4058:4064   */\n      dup5\n        /* \"#utility.yul\":4020:4086   */\n      tag_85\n      jump\t// in\n    tag_154:\n        /* \"#utility.yul\":3568:4093   */\n      swap6\n      swap5\n      pop\n      pop\n      pop\n      pop\n      pop\n      jump\t// out\n        /* \"#utility.yul\":4099:4419   */\n    tag_33:\n        /* \"#utility.yul\":4214:4218   */\n      0x00\n        /* \"#utility.yul\":4252:4254   */\n      0x40\n        /* \"#utility.yul\":4241:4250   */\n      dup3\n        /* \"#utility.yul\":4237:4255   */\n      add\n        /* \"#utility.yul\":4229:4255   */\n      swap1\n      pop\n        /* \"#utility.yul\":4265:4336   */\n      tag_156\n        /* \"#utility.yul\":4333:4334   */\n      0x00\n        /* \"#utility.yul\":4322:4331   */\n      dup4\n        /* \"#utility.yul\":4318:4335   */\n      add\n        /* \"#utility.yul\":4309:4315   */\n      dup6\n        /* \"#utility.yul\":4265:4336   */\n      tag_75\n      jump\t// in\n    tag_156:\n        /* \"#utility.yul\":4346:4412   */\n      tag_157\n        /* \"#utility.yul\":4408:4410   */\n      0x20\n        /* \"#utility.yul\":4397:4406   */\n      dup4\n        /* \"#utility.yul\":4393:4411   */\n      add\n        /* \"#utility.yul\":4384:4390   */\n      dup5\n        /* \"#utility.yul\":4346:4412   */\n      tag_85\n      jump\t// in\n    tag_157:\n        /* \"#utility.yul\":4099:4419   */\n      swap4\n      swap3\n      pop\n      pop\n      pop\n      jump\t// out\n        /* \"#utility.yul\":4425:4504   */\n    tag_86:\n        /* \"#utility.yul\":4464:4471   */\n      0x00\n        /* \"#utility.yul\":4493:4498   */\n      dup2\n        /* \"#utility.yul\":4482:4498   */\n      swap1\n      pop\n        /* \"#utility.yul\":4425:4504   */\n      swap2\n      swap1\n      pop\n      jump\t// out\n        /* \"#utility.yul\":4510:4667   */\n    tag_87:\n        /* \"#utility.yul\":4615:4660   */\n      tag_160\n        /* \"#utility.yul\":4635:4659   */\n      tag_161\n        /* \"#utility.yul\":4653:4658   */\n      dup3\n        /* \"#utility.yul\":4635:4659   */\n      tag_72\n      jump\t// in\n    tag_161:\n        /* \"#utility.yul\":4615:4660   */\n      tag_86\n      jump\t// in\n    tag_160:\n        /* \"#utility.yul\":4610:4613   */\n      dup3\n        /* \"#utility.yul\":4603:4661   */\n      mstore\n        /* \"#utility.yul\":4510:4667   */\n      pop\n      pop\n      jump\t// out\n        /* \"#utility.yul\":4673:4929   */\n    tag_39:\n        /* \"#utility.yul\":4785:4788   */\n      0x00\n        /* \"#utility.yul\":4800:4875   */\n      tag_163\n        /* \"#utility.yul\":4871:4874   */\n      dup3\n        /* \"#utility.yul\":4862:4868   */\n      dup5\n        /* \"#utility.yul\":4800:4875   */\n      tag_87\n      jump\t// in\n    tag_163:\n        /* \"#utility.yul\":4900:4902   */\n      0x20\n        /* \"#utility.yul\":4895:4898   */\n      dup3\n        /* \"#utility.yul\":4891:4903   */\n      add\n        /* \"#utility.yul\":4884:4903   */\n      swap2\n      pop\n        /* \"#utility.yul\":4920:4923   */\n      dup2\n        /* \"#utility.yul\":4913:4923   */\n      swap1\n      pop\n        /* \"#utility.yul\":4673:4929   */\n      swap3\n      swap2\n      pop\n      pop\n      jump\t// out\n        /* \"#utility.yul\":4935:5104   */\n    tag_88:\n        /* \"#utility.yul\":5019:5030   */\n      0x00\n        /* \"#utility.yul\":5053:5059   */\n      dup3\n        /* \"#utility.yul\":5048:5051   */\n      dup3\n        /* \"#utility.yul\":5041:5060   */\n      mstore\n        /* \"#utility.yul\":5093:5097   */\n      0x20\n        /* \"#utility.yul\":5088:5091   */\n      dup3\n        /* \"#utility.yul\":5084:5098   */\n      add\n        /* \"#utility.yul\":5069:5098   */\n      swap1\n      pop\n        /* \"#utility.yul\":4935:5104   */\n      swap3\n      swap2\n      pop\n      pop\n      jump\t// out\n        /* \"#utility.yul\":5110:5335   */\n    tag_89:\n        /* \"#utility.yul\":5250:5284   */\n      0x436f6d6d697452657665616c3a3a636f6d6d69743a20416c726561647920636f\n        /* \"#utility.yul\":5246:5247   */\n      0x00\n        /* \"#utility.yul\":5238:5244   */\n      dup3\n        /* \"#utility.yul\":5234:5248   */\n      add\n        /* \"#utility.yul\":5227:5285   */\n      mstore\n        /* \"#utility.yul\":5319:5327   */\n      0x6d6d697465640000000000000000000000000000000000000000000000000000\n        /* \"#utility.yul\":5314:5316   */\n      0x20\n        /* \"#utility.yul\":5306:5312   */\n      dup3\n        /* \"#utility.yul\":5302:5317   */\n      add\n        /* \"#utility.yul\":5295:5328   */\n      mstore\n        /* \"#utility.yul\":5110:5335   */\n      pop\n      jump\t// out\n        /* \"#utility.yul\":5341:5707   */\n    tag_90:\n        /* \"#utility.yul\":5483:5486   */\n      0x00\n        /* \"#utility.yul\":5504:5571   */\n      tag_167\n        /* \"#utility.yul\":5568:5570   */\n      0x26\n        /* \"#utility.yul\":5563:5566   */\n      dup4\n        /* \"#utility.yul\":5504:5571   */\n      tag_88\n      jump\t// in\n    tag_167:\n        /* \"#utility.yul\":5497:5571   */\n      swap2\n      pop\n        /* \"#utility.yul\":5580:5673   */\n      tag_168\n        /* \"#utility.yul\":5669:5672   */\n      dup3\n        /* \"#utility.yul\":5580:5673   */\n      tag_89\n      jump\t// in\n    tag_168:\n        /* \"#utility.yul\":5698:5700   */\n      0x40\n        /* \"#utility.yul\":5693:5696   */\n      dup3\n        /* \"#utility.yul\":5689:5701   */\n      add\n        /* \"#utility.yul\":5682:5701   */\n      swap1\n      pop\n        /* \"#utility.yul\":5341:5707   */\n      swap2\n      swap1\n      pop\n      jump\t// out\n        /* \"#utility.yul\":5713:6132   */\n    tag_43:\n        /* \"#utility.yul\":5879:5883   */\n      0x00\n        /* \"#utility.yul\":5917:5919   */\n      0x20\n        /* \"#utility.yul\":5906:5915   */\n      dup3\n        /* \"#utility.yul\":5902:5920   */\n      add\n        /* \"#utility.yul\":5894:5920   */\n      swap1\n      pop\n        /* \"#utility.yul\":5966:5975   */\n      dup2\n        /* \"#utility.yul\":5960:5964   */\n      dup2\n        /* \"#utility.yul\":5956:5976   */\n      sub\n        /* \"#utility.yul\":5952:5953   */\n      0x00\n        /* \"#utility.yul\":5941:5950   */\n      dup4\n        /* \"#utility.yul\":5937:5954   */\n      add\n        /* \"#utility.yul\":5930:5977   */\n      mstore\n        /* \"#utility.yul\":5994:6125   */\n      tag_170\n        /* \"#utility.yul\":6120:6124   */\n      dup2\n        /* \"#utility.yul\":5994:6125   */\n      tag_90\n      jump\t// in\n    tag_170:\n        /* \"#utility.yul\":5986:6125   */\n      swap1\n      pop\n        /* \"#utility.yul\":5713:6132   */\n      swap2\n      swap1\n      pop\n      jump\t// out\n        /* \"#utility.yul\":6138:6256   */\n    tag_91:\n        /* \"#utility.yul\":6225:6249   */\n      tag_172\n        /* \"#utility.yul\":6243:6248   */\n      dup2\n        /* \"#utility.yul\":6225:6249   */\n      tag_77\n      jump\t// in\n    tag_172:\n        /* \"#utility.yul\":6220:6223   */\n      dup3\n        /* \"#utility.yul\":6213:6250   */\n      mstore\n        /* \"#utility.yul\":6138:6256   */\n      pop\n      pop\n      jump\t// out\n        /* \"#utility.yul\":6262:6700   */\n    tag_45:\n        /* \"#utility.yul\":6409:6413   */\n      0x00\n        /* \"#utility.yul\":6447:6449   */\n      0x60\n        /* \"#utility.yul\":6436:6445   */\n      dup3\n        /* \"#utility.yul\":6432:6450   */\n      add\n        /* \"#utility.yul\":6424:6450   */\n      swap1\n      pop\n        /* \"#utility.yul\":6460:6531   */\n      tag_174\n        /* \"#utility.yul\":6528:6529   */\n      0x00\n        /* \"#utility.yul\":6517:6526   */\n      dup4\n        /* \"#utility.yul\":6513:6530   */\n      add\n        /* \"#utility.yul\":6504:6510   */\n      dup7\n        /* \"#utility.yul\":6460:6531   */\n      tag_91\n      jump\t// in\n    tag_174:\n        /* \"#utility.yul\":6541:6613   */\n      tag_175\n        /* \"#utility.yul\":6609:6611   */\n      0x20\n        /* \"#utility.yul\":6598:6607   */\n      dup4\n        /* \"#utility.yul\":6594:6612   */\n      add\n        /* \"#utility.yul\":6585:6591   */\n      dup6\n        /* \"#utility.yul\":6541:6613   */\n      tag_75\n      jump\t// in\n    tag_175:\n        /* \"#utility.yul\":6623:6693   */\n      tag_176\n        /* \"#utility.yul\":6689:6691   */\n      0x40\n        /* \"#utility.yul\":6678:6687   */\n      dup4\n        /* \"#utility.yul\":6674:6692   */\n      add\n        /* \"#utility.yul\":6665:6671   */\n      dup5\n        /* \"#utility.yul\":6623:6693   */\n      tag_83\n      jump\t// in\n    tag_176:\n        /* \"#utility.yul\":6262:6700   */\n      swap5\n      swap4\n      pop\n      pop\n      pop\n      pop\n      jump\t// out\n        /* \"#utility.yul\":6706:6931   */\n    tag_92:\n        /* \"#utility.yul\":6846:6880   */\n      0x436f6d6d697452657665616c3a3a72657665616c3a20416c7265616479207265\n        /* \"#utility.yul\":6842:6843   */\n      0x00\n        /* \"#utility.yul\":6834:6840   */\n      dup3\n        /* \"#utility.yul\":6830:6844   */\n      add\n        /* \"#utility.yul\":6823:6881   */\n      mstore\n        /* \"#utility.yul\":6915:6923   */\n      0x7665616c65640000000000000000000000000000000000000000000000000000\n        /* \"#utility.yul\":6910:6912   */\n      0x20\n        /* \"#utility.yul\":6902:6908   */\n      dup3\n        /* \"#utility.yul\":6898:6913   */\n      add\n        /* \"#utility.yul\":6891:6924   */\n      mstore\n        /* \"#utility.yul\":6706:6931   */\n      pop\n      jump\t// out\n        /* \"#utility.yul\":6937:7303   */\n    tag_93:\n        /* \"#utility.yul\":7079:7082   */\n      0x00\n        /* \"#utility.yul\":7100:7167   */\n      tag_179\n        /* \"#utility.yul\":7164:7166   */\n      0x26\n        /* \"#utility.yul\":7159:7162   */\n      dup4\n        /* \"#utility.yul\":7100:7167   */\n      tag_88\n      jump\t// in\n    tag_179:\n        /* \"#utility.yul\":7093:7167   */\n      swap2\n      pop\n        /* \"#utility.yul\":7176:7269   */\n      tag_180\n        /* \"#utility.yul\":7265:7268   */\n      dup3\n        /* \"#utility.yul\":7176:7269   */\n      tag_92\n      jump\t// in\n    tag_180:\n        /* \"#utility.yul\":7294:7296   */\n      0x40\n        /* \"#utility.yul\":7289:7292   */\n      dup3\n        /* \"#utility.yul\":7285:7297   */\n      add\n        /* \"#utility.yul\":7278:7297   */\n      swap1\n      pop\n        /* \"#utility.yul\":6937:7303   */\n      swap2\n      swap1\n      pop\n      jump\t// out\n        /* \"#utility.yul\":7309:7728   */\n    tag_50:\n        /* \"#utility.yul\":7475:7479   */\n      0x00\n        /* \"#utility.yul\":7513:7515   */\n      0x20\n        /* \"#utility.yul\":7502:7511   */\n      dup3\n        /* \"#utility.yul\":7498:7516   */\n      add\n        /* \"#utility.yul\":7490:7516   */\n      swap1\n      pop\n        /* \"#utility.yul\":7562:7571   */\n      dup2\n        /* \"#utility.yul\":7556:7560   */\n      dup2\n        /* \"#utility.yul\":7552:7572   */\n      sub\n        /* \"#utility.yul\":7548:7549   */\n      0x00\n        /* \"#utility.yul\":7537:7546   */\n      dup4\n        /* \"#utility.yul\":7533:7550   */\n      add\n        /* \"#utility.yul\":7526:7573   */\n      mstore\n        /* \"#utility.yul\":7590:7721   */\n      tag_182\n        /* \"#utility.yul\":7716:7720   */\n      dup2\n        /* \"#utility.yul\":7590:7721   */\n      tag_93\n      jump\t// in\n    tag_182:\n        /* \"#utility.yul\":7582:7721   */\n      swap1\n      pop\n        /* \"#utility.yul\":7309:7728   */\n      swap2\n      swap1\n      pop\n      jump\t// out\n        /* \"#utility.yul\":7734:7978   */\n    tag_94:\n        /* \"#utility.yul\":7874:7908   */\n      0x436f6d6d697452657665616c3a3a72657665616c3a2052657665616c65642068\n        /* \"#utility.yul\":7870:7871   */\n      0x00\n        /* \"#utility.yul\":7862:7868   */\n      dup3\n        /* \"#utility.yul\":7858:7872   */\n      add\n        /* \"#utility.yul\":7851:7909   */\n      mstore\n        /* \"#utility.yul\":7943:7970   */\n      0x61736820646f6573206e6f74206d6174636820636f6d6d697400000000000000\n        /* \"#utility.yul\":7938:7940   */\n      0x20\n        /* \"#utility.yul\":7930:7936   */\n      dup3\n        /* \"#utility.yul\":7926:7941   */\n      add\n        /* \"#utility.yul\":7919:7971   */\n      mstore\n        /* \"#utility.yul\":7734:7978   */\n      pop\n      jump\t// out\n        /* \"#utility.yul\":7984:8350   */\n    tag_95:\n        /* \"#utility.yul\":8126:8129   */\n      0x00\n        /* \"#utility.yul\":8147:8214   */\n      tag_185\n        /* \"#utility.yul\":8211:8213   */\n      0x39\n        /* \"#utility.yul\":8206:8209   */\n      dup4\n        /* \"#utility.yul\":8147:8214   */\n      tag_88\n      jump\t// in\n    tag_185:\n        /* \"#utility.yul\":8140:8214   */\n      swap2\n      pop\n        /* \"#utility.yul\":8223:8316   */\n      tag_186\n        /* \"#utility.yul\":8312:8315   */\n      dup3\n        /* \"#utility.yul\":8223:8316   */\n      tag_94\n      jump\t// in\n    tag_186:\n        /* \"#utility.yul\":8341:8343   */\n      0x40\n        /* \"#utility.yul\":8336:8339   */\n      dup3\n        /* \"#utility.yul\":8332:8344   */\n      add\n        /* \"#utility.yul\":8325:8344   */\n      swap1\n      pop\n        /* \"#utility.yul\":7984:8350   */\n      swap2\n      swap1\n      pop\n      jump\t// out\n        /* \"#utility.yul\":8356:8775   */\n    tag_54:\n        /* \"#utility.yul\":8522:8526   */\n      0x00\n        /* \"#utility.yul\":8560:8562   */\n      0x20\n        /* \"#utility.yul\":8549:8558   */\n      dup3\n        /* \"#utility.yul\":8545:8563   */\n      add\n        /* \"#utility.yul\":8537:8563   */\n      swap1\n      pop\n        /* \"#utility.yul\":8609:8618   */\n      dup2\n        /* \"#utility.yul\":8603:8607   */\n      dup2\n        /* \"#utility.yul\":8599:8619   */\n      sub\n        /* \"#utility.yul\":8595:8596   */\n      0x00\n        /* \"#utility.yul\":8584:8593   */\n      dup4\n        /* \"#utility.yul\":8580:8597   */\n      add\n        /* \"#utility.yul\":8573:8620   */\n      mstore\n        /* \"#utility.yul\":8637:8768   */\n      tag_188\n        /* \"#utility.yul\":8763:8767   */\n      dup2\n        /* \"#utility.yul\":8637:8768   */\n      tag_95\n      jump\t// in\n    tag_188:\n        /* \"#utility.yul\":8629:8768   */\n      swap1\n      pop\n        /* \"#utility.yul\":8356:8775   */\n      swap2\n      swap1\n      pop\n      jump\t// out\n        /* \"#utility.yul\":8781:9071   */\n    tag_96:\n        /* \"#utility.yul\":8921:8955   */\n      0x436f6d6d697452657665616c3a3a72657665616c3a2052657665616c20616e64\n        /* \"#utility.yul\":8917:8918   */\n      0x00\n        /* \"#utility.yul\":8909:8915   */\n      dup3\n        /* \"#utility.yul\":8905:8919   */\n      add\n        /* \"#utility.yul\":8898:8956   */\n      mstore\n        /* \"#utility.yul\":8990:9024   */\n      0x20636f6d6d69742068617070656e6564206f6e207468652073616d6520626c6f\n        /* \"#utility.yul\":8985:8987   */\n      0x20\n        /* \"#utility.yul\":8977:8983   */\n      dup3\n        /* \"#utility.yul\":8973:8988   */\n      add\n        /* \"#utility.yul\":8966:9025   */\n      mstore\n        /* \"#utility.yul\":9059:9063   */\n      0x636b000000000000000000000000000000000000000000000000000000000000\n        /* \"#utility.yul\":9054:9056   */\n      0x40\n        /* \"#utility.yul\":9046:9052   */\n      dup3\n        /* \"#utility.yul\":9042:9057   */\n      add\n        /* \"#utility.yul\":9035:9064   */\n      mstore\n        /* \"#utility.yul\":8781:9071   */\n      pop\n      jump\t// out\n        /* \"#utility.yul\":9077:9443   */\n    tag_97:\n        /* \"#utility.yul\":9219:9222   */\n      0x00\n        /* \"#utility.yul\":9240:9307   */\n      tag_191\n        /* \"#utility.yul\":9304:9306   */\n      0x42\n        /* \"#utility.yul\":9299:9302   */\n      dup4\n        /* \"#utility.yul\":9240:9307   */\n      tag_88\n      jump\t// in\n    tag_191:\n        /* \"#utility.yul\":9233:9307   */\n      swap2\n      pop\n        /* \"#utility.yul\":9316:9409   */\n      tag_192\n        /* \"#utility.yul\":9405:9408   */\n      dup3\n        /* \"#utility.yul\":9316:9409   */\n      tag_96\n      jump\t// in\n    tag_192:\n        /* \"#utility.yul\":9434:9436   */\n      0x60\n        /* \"#utility.yul\":9429:9432   */\n      dup3\n        /* \"#utility.yul\":9425:9437   */\n      add\n        /* \"#utility.yul\":9418:9437   */\n      swap1\n      pop\n        /* \"#utility.yul\":9077:9443   */\n      swap2\n      swap1\n      pop\n      jump\t// out\n        /* \"#utility.yul\":9449:9868   */\n    tag_57:\n        /* \"#utility.yul\":9615:9619   */\n      0x00\n        /* \"#utility.yul\":9653:9655   */\n      0x20\n        /* \"#utility.yul\":9642:9651   */\n      dup3\n        /* \"#utility.yul\":9638:9656   */\n      add\n        /* \"#utility.yul\":9630:9656   */\n      swap1\n      pop\n        /* \"#utility.yul\":9702:9711   */\n      dup2\n        /* \"#utility.yul\":9696:9700   */\n      dup2\n        /* \"#utility.yul\":9692:9712   */\n      sub\n        /* \"#utility.yul\":9688:9689   */\n      0x00\n        /* \"#utility.yul\":9677:9686   */\n      dup4\n        /* \"#utility.yul\":9673:9690   */\n      add\n        /* \"#utility.yul\":9666:9713   */\n      mstore\n        /* \"#utility.yul\":9730:9861   */\n      tag_194\n        /* \"#utility.yul\":9856:9860   */\n      dup2\n        /* \"#utility.yul\":9730:9861   */\n      tag_97\n      jump\t// in\n    tag_194:\n        /* \"#utility.yul\":9722:9861   */\n      swap1\n      pop\n        /* \"#utility.yul\":9449:9868   */\n      swap2\n      swap1\n      pop\n      jump\t// out\n        /* \"#utility.yul\":9874:10054   */\n    tag_98:\n        /* \"#utility.yul\":9922:9999   */\n      0x4e487b7100000000000000000000000000000000000000000000000000000000\n        /* \"#utility.yul\":9919:9920   */\n      0x00\n        /* \"#utility.yul\":9912:10000   */\n      mstore\n        /* \"#utility.yul\":10019:10023   */\n      0x11\n        /* \"#utility.yul\":10016:10017   */\n      0x04\n        /* \"#utility.yul\":10009:10024   */\n      mstore\n        /* \"#utility.yul\":10043:10047   */\n      0x24\n        /* \"#utility.yul\":10040:10041   */\n      0x00\n        /* \"#utility.yul\":10033:10048   */\n      revert\n        /* \"#utility.yul\":10060:10265   */\n    tag_59:\n        /* \"#utility.yul\":10099:10102   */\n      0x00\n        /* \"#utility.yul\":10118:10137   */\n      tag_197\n        /* \"#utility.yul\":10135:10136   */\n      dup3\n        /* \"#utility.yul\":10118:10137   */\n      tag_82\n      jump\t// in\n    tag_197:\n        /* \"#utility.yul\":10113:10137   */\n      swap2\n      pop\n        /* \"#utility.yul\":10151:10170   */\n      tag_198\n        /* \"#utility.yul\":10168:10169   */\n      dup4\n        /* \"#utility.yul\":10151:10170   */\n      tag_82\n      jump\t// in\n    tag_198:\n        /* \"#utility.yul\":10146:10170   */\n      swap3\n      pop\n        /* \"#utility.yul\":10193:10194   */\n      dup3\n        /* \"#utility.yul\":10190:10191   */\n      dup3\n        /* \"#utility.yul\":10186:10195   */\n      add\n        /* \"#utility.yul\":10179:10195   */\n      swap1\n      pop\n        /* \"#utility.yul\":10216:10234   */\n      0xffffffffffffffff\n        /* \"#utility.yul\":10211:10214   */\n      dup2\n        /* \"#utility.yul\":10208:10235   */\n      gt\n        /* \"#utility.yul\":10205:10258   */\n      iszero\n      tag_199\n      jumpi\n        /* \"#utility.yul\":10238:10256   */\n      tag_200\n      tag_98\n      jump\t// in\n    tag_200:\n        /* \"#utility.yul\":10205:10258   */\n    tag_199:\n        /* \"#utility.yul\":10060:10265   */\n      swap3\n      swap2\n      pop\n      pop\n      jump\t// out\n        /* \"#utility.yul\":10271:10497   */\n    tag_99:\n        /* \"#utility.yul\":10411:10445   */\n      0x436f6d6d697452657665616c3a3a72657665616c3a2052657665616c65642074\n        /* \"#utility.yul\":10407:10408   */\n      0x00\n        /* \"#utility.yul\":10399:10405   */\n      dup3\n        /* \"#utility.yul\":10395:10409   */\n      add\n        /* \"#utility.yul\":10388:10446   */\n      mstore\n        /* \"#utility.yul\":10480:10489   */\n      0x6f6f206c61746500000000000000000000000000000000000000000000000000\n        /* \"#utility.yul\":10475:10477   */\n      0x20\n        /* \"#utility.yul\":10467:10473   */\n      dup3\n        /* \"#utility.yul\":10463:10478   */\n      add\n        /* \"#utility.yul\":10456:10490   */\n      mstore\n        /* \"#utility.yul\":10271:10497   */\n      pop\n      jump\t// out\n        /* \"#utility.yul\":10503:10869   */\n    tag_100:\n        /* \"#utility.yul\":10645:10648   */\n      0x00\n        /* \"#utility.yul\":10666:10733   */\n      tag_203\n        /* \"#utility.yul\":10730:10732   */\n      0x27\n        /* \"#utility.yul\":10725:10728   */\n      dup4\n        /* \"#utility.yul\":10666:10733   */\n      tag_88\n      jump\t// in\n    tag_203:\n        /* \"#utility.yul\":10659:10733   */\n      swap2\n      pop\n        /* \"#utility.yul\":10742:10835   */\n      tag_204\n        /* \"#utility.yul\":10831:10834   */\n      dup3\n        /* \"#utility.yul\":10742:10835   */\n      tag_99\n      jump\t// in\n    tag_204:\n        /* \"#utility.yul\":10860:10862   */\n      0x40\n        /* \"#utility.yul\":10855:10858   */\n      dup3\n        /* \"#utility.yul\":10851:10863   */\n      add\n        /* \"#utility.yul\":10844:10863   */\n      swap1\n      pop\n        /* \"#utility.yul\":10503:10869   */\n      swap2\n      swap1\n      pop\n      jump\t// out\n        /* \"#utility.yul\":10875:11294   */\n    tag_62:\n        /* \"#utility.yul\":11041:11045   */\n      0x00\n        /* \"#utility.yul\":11079:11081   */\n      0x20\n        /* \"#utility.yul\":11068:11077   */\n      dup3\n        /* \"#utility.yul\":11064:11082   */\n      add\n        /* \"#utility.yul\":11056:11082   */\n      swap1\n      pop\n        /* \"#utility.yul\":11128:11137   */\n      dup2\n        /* \"#utility.yul\":11122:11126   */\n      dup2\n        /* \"#utility.yul\":11118:11138   */\n      sub\n        /* \"#utility.yul\":11114:11115   */\n      0x00\n        /* \"#utility.yul\":11103:11112   */\n      dup4\n        /* \"#utility.yul\":11099:11116   */\n      add\n        /* \"#utility.yul\":11092:11139   */\n      mstore\n        /* \"#utility.yul\":11156:11287   */\n      tag_206\n        /* \"#utility.yul\":11282:11286   */\n      dup2\n        /* \"#utility.yul\":11156:11287   */\n      tag_100\n      jump\t// in\n    tag_206:\n        /* \"#utility.yul\":11148:11287   */\n      swap1\n      pop\n        /* \"#utility.yul\":10875:11294   */\n      swap2\n      swap1\n      pop\n      jump\t// out\n        /* \"#utility.yul\":11300:11697   */\n    tag_64:\n        /* \"#utility.yul\":11440:11443   */\n      0x00\n        /* \"#utility.yul\":11455:11530   */\n      tag_208\n        /* \"#utility.yul\":11526:11529   */\n      dup3\n        /* \"#utility.yul\":11517:11523   */\n      dup6\n        /* \"#utility.yul\":11455:11530   */\n      tag_87\n      jump\t// in\n    tag_208:\n        /* \"#utility.yul\":11555:11557   */\n      0x20\n        /* \"#utility.yul\":11550:11553   */\n      dup3\n        /* \"#utility.yul\":11546:11558   */\n      add\n        /* \"#utility.yul\":11539:11558   */\n      swap2\n      pop\n        /* \"#utility.yul\":11568:11643   */\n      tag_209\n        /* \"#utility.yul\":11639:11642   */\n      dup3\n        /* \"#utility.yul\":11630:11636   */\n      dup5\n        /* \"#utility.yul\":11568:11643   */\n      tag_87\n      jump\t// in\n    tag_209:\n        /* \"#utility.yul\":11668:11670   */\n      0x20\n        /* \"#utility.yul\":11663:11666   */\n      dup3\n        /* \"#utility.yul\":11659:11671   */\n      add\n        /* \"#utility.yul\":11652:11671   */\n      swap2\n      pop\n        /* \"#utility.yul\":11688:11691   */\n      dup2\n        /* \"#utility.yul\":11681:11691   */\n      swap1\n      pop\n        /* \"#utility.yul\":11300:11697   */\n      swap4\n      swap3\n      pop\n      pop\n      pop\n      jump\t// out\n        /* \"#utility.yul\":11703:11780   */\n    tag_101:\n        /* \"#utility.yul\":11740:11747   */\n      0x00\n        /* \"#utility.yul\":11769:11774   */\n      dup2\n        /* \"#utility.yul\":11758:11774   */\n      swap1\n      pop\n        /* \"#utility.yul\":11703:11780   */\n      swap2\n      swap1\n      pop\n      jump\t// out\n        /* \"#utility.yul\":11786:11966   */\n    tag_102:\n        /* \"#utility.yul\":11834:11911   */\n      0x4e487b7100000000000000000000000000000000000000000000000000000000\n        /* \"#utility.yul\":11831:11832   */\n      0x00\n        /* \"#utility.yul\":11824:11912   */\n      mstore\n        /* \"#utility.yul\":11931:11935   */\n      0x12\n        /* \"#utility.yul\":11928:11929   */\n      0x04\n        /* \"#utility.yul\":11921:11936   */\n      mstore\n        /* \"#utility.yul\":11955:11959   */\n      0x24\n        /* \"#utility.yul\":11952:11953   */\n      0x00\n        /* \"#utility.yul\":11945:11960   */\n      revert\n        /* \"#utility.yul\":11972:12148   */\n    tag_66:\n        /* \"#utility.yul\":12004:12005   */\n      0x00\n        /* \"#utility.yul\":12021:12041   */\n      tag_213\n        /* \"#utility.yul\":12039:12040   */\n      dup3\n        /* \"#utility.yul\":12021:12041   */\n      tag_101\n      jump\t// in\n    tag_213:\n        /* \"#utility.yul\":12016:12041   */\n      swap2\n      pop\n        /* \"#utility.yul\":12055:12075   */\n      tag_214\n        /* \"#utility.yul\":12073:12074   */\n      dup4\n        /* \"#utility.yul\":12055:12075   */\n      tag_101\n      jump\t// in\n    tag_214:\n        /* \"#utility.yul\":12050:12075   */\n      swap3\n      pop\n        /* \"#utility.yul\":12094:12095   */\n      dup3\n        /* \"#utility.yul\":12084:12119   */\n      tag_215\n      jumpi\n        /* \"#utility.yul\":12099:12117   */\n      tag_216\n      tag_102\n      jump\t// in\n    tag_216:\n        /* \"#utility.yul\":12084:12119   */\n    tag_215:\n        /* \"#utility.yul\":12140:12141   */\n      dup3\n        /* \"#utility.yul\":12137:12138   */\n      dup3\n        /* \"#utility.yul\":12133:12142   */\n      mod\n        /* \"#utility.yul\":12128:12142   */\n      swap1\n      pop\n        /* \"#utility.yul\":11972:12148   */\n      swap3\n      swap2\n      pop\n      pop\n      jump\t// out\n        /* \"#utility.yul\":12154:12272   */\n    tag_103:\n        /* \"#utility.yul\":12241:12265   */\n      tag_218\n        /* \"#utility.yul\":12259:12264   */\n      dup2\n        /* \"#utility.yul\":12241:12265   */\n      tag_101\n      jump\t// in\n    tag_218:\n        /* \"#utility.yul\":12236:12239   */\n      dup3\n        /* \"#utility.yul\":12229:12266   */\n      mstore\n        /* \"#utility.yul\":12154:12272   */\n      pop\n      pop\n      jump\t// out\n        /* \"#utility.yul\":12278:12720   */\n    tag_68:\n        /* \"#utility.yul\":12427:12431   */\n      0x00\n        /* \"#utility.yul\":12465:12467   */\n      0x60\n        /* \"#utility.yul\":12454:12463   */\n      dup3\n        /* \"#utility.yul\":12450:12468   */\n      add\n        /* \"#utility.yul\":12442:12468   */\n      swap1\n      pop\n        /* \"#utility.yul\":12478:12549   */\n      tag_220\n        /* \"#utility.yul\":12546:12547   */\n      0x00\n        /* \"#utility.yul\":12535:12544   */\n      dup4\n        /* \"#utility.yul\":12531:12548   */\n      add\n        /* \"#utility.yul\":12522:12528   */\n      dup7\n        /* \"#utility.yul\":12478:12549   */\n      tag_91\n      jump\t// in\n    tag_220:\n        /* \"#utility.yul\":12559:12631   */\n      tag_221\n        /* \"#utility.yul\":12627:12629   */\n      0x20\n        /* \"#utility.yul\":12616:12625   */\n      dup4\n        /* \"#utility.yul\":12612:12630   */\n      add\n        /* \"#utility.yul\":12603:12609   */\n      dup6\n        /* \"#utility.yul\":12559:12631   */\n      tag_75\n      jump\t// in\n    tag_221:\n        /* \"#utility.yul\":12641:12713   */\n      tag_222\n        /* \"#utility.yul\":12709:12711   */\n      0x40\n        /* \"#utility.yul\":12698:12707   */\n      dup4\n        /* \"#utility.yul\":12694:12712   */\n      add\n        /* \"#utility.yul\":12685:12691   */\n      dup5\n        /* \"#utility.yul\":12641:12713   */\n      tag_103\n      jump\t// in\n    tag_222:\n        /* \"#utility.yul\":12278:12720   */\n      swap5\n      swap4\n      pop\n      pop\n      pop\n      pop\n      jump\t// out\n\n    auxdata: 0xa264697066735822122057289f3cec45271086ee4352eed660db3724ba7e36b81da6806840bddad6df8964736f6c634300081a0033\n}\n",
				"bytecode": {
					"linkReferences": {},
					"object": "608060405260645f806101000a81548160ff021916908360ff1602179055503480156028575f80fd5b50611010806100365f395ff3fe608060405234801561000f575f80fd5b5060043610610060575f3560e01c80633cf5040a146100645780635a746101146100945780636ac5db19146100b05780637b43a8e6146100ce5780638696b88714610101578063ad48779014610132575b5f80fd5b61007e60048036038101906100799190610933565b61014e565b60405161008b919061096d565b60405180910390f35b6100ae60048036038101906100a991906109e0565b61017d565b005b6100b861043b565b6040516100c59190610a39565b60405180910390f35b6100e860048036038101906100e39190610a52565b61044b565b6040516100f89493929190610ab9565b60405180910390f35b61011b60048036038101906101169190610a52565b6104a4565b604051610129929190610afc565b60405180910390f35b61014c600480360381019061014791906109e0565b61053d565b005b5f816040516020016101609190610b43565b604051602081830303815290604052805190602001209050919050565b5f151560015f8373ffffffffffffffffffffffffffffffffffffffff1673ffffffffffffffffffffffffffffffffffffffff1681526020019081526020015f2060010160099054906101000a900460ff16151514610210576040517f08c379a000000000000000000000000000000000000000000000000000000000815260040161020790610bdd565b60405180910390fd5b8160015f8373ffffffffffffffffffffffffffffffffffffffff1673ffffffffffffffffffffffffffffffffffffffff1681526020019081526020015f205f01819055506001805f8373ffffffffffffffffffffffffffffffffffffffff1673ffffffffffffffffffffffffffffffffffffffff1681526020019081526020015f2060010160096101000a81548160ff0219169083151502179055504360015f8373ffffffffffffffffffffffffffffffffffffffff1673ffffffffffffffffffffffffffffffffffffffff1681526020019081526020015f206001015f6101000a81548167ffffffffffffffff021916908367ffffffffffffffff1602179055505f60015f8373ffffffffffffffffffffffffffffffffffffffff1673ffffffffffffffffffffffffffffffffffffffff1681526020019081526020015f2060010160086101000a81548160ff0219169083151502179055507f3c1a1f8f38335b17f751c6da4ba7d1865f26b3997535176f5080de9fad8916038160015f8473ffffffffffffffffffffffffffffffffffffffff1673ffffffffffffffffffffffffffffffffffffffff1681526020019081526020015f205f015460015f8573ffffffffffffffffffffffffffffffffffffffff1673ffffffffffffffffffffffffffffffffffffffff1681526020019081526020015f206001015f9054906101000a900467ffffffffffffffff1660405161042f93929190610c0a565b60405180910390a15050565b5f8054906101000a900460ff1681565b6001602052805f5260405f205f91509050805f015490806001015f9054906101000a900467ffffffffffffffff16908060010160089054906101000a900460ff16908060010160099054906101000a900460ff16905084565b5f8060015f8473ffffffffffffffffffffffffffffffffffffffff1673ffffffffffffffffffffffffffffffffffffffff1681526020019081526020015f205f015460015f8573ffffffffffffffffffffffffffffffffffffffff1673ffffffffffffffffffffffffffffffffffffffff1681526020019081526020015f2060010160089054906101000a900460ff1691509150915091565b5f151560015f8373ffffffffffffffffffffffffffffffffffffffff1673ffffffffffffffffffffffffffffffffffffffff1681526020019081526020015f2060010160089054906101000a900460ff161515146105d0576040517f08c379a00000000000000000000000000000000000000000000000000000000081526004016105c790610caf565b60405180910390fd5b6001805f8373ffffffffffffffffffffffffffffffffffffffff1673ffffffffffffffffffffffffffffffffffffffff1681526020019081526020015f2060010160086101000a81548160ff02191690831515021790555060015f8273ffffffffffffffffffffffffffffffffffffffff1673ffffffffffffffffffffffffffffffffffffffff1681526020019081526020015f205f01546106718361014e565b146106b1576040517f08c379a00000000000000000000000000000000000000000000000000000000081526004016106a890610d3d565b60405180910390fd5b60015f8273ffffffffffffffffffffffffffffffffffffffff1673ffffffffffffffffffffffffffffffffffffffff1681526020019081526020015f206001015f9054906101000a900467ffffffffffffffff1667ffffffffffffffff164367ffffffffffffffff161161075a576040517f08c379a000000000000000000000000000000000000000000000000000000000815260040161075190610df1565b60405180910390fd5b60fa60015f8373ffffffffffffffffffffffffffffffffffffffff1673ffffffffffffffffffffffffffffffffffffffff1681526020019081526020015f206001015f9054906101000a900467ffffffffffffffff166107ba9190610e3c565b67ffffffffffffffff164367ffffffffffffffff161115610810576040517f08c379a000000000000000000000000000000000000000000000000000000000815260040161080790610ee7565b60405180910390fd5b5f60015f8373ffffffffffffffffffffffffffffffffffffffff1673ffffffffffffffffffffffffffffffffffffffff1681526020019081526020015f206001015f9054906101000a900467ffffffffffffffff1667ffffffffffffffff164090505f805f9054906101000a900460ff1660ff168285604051602001610897929190610f05565b604051602081830303815290604052805190602001205f1c6108b99190610f66565b90507fbc016dd1cadeaefcb851af7a0a93532e0023d536894b730801f7bcfe7065bcc28385836040516108ee93929190610fa5565b60405180910390a150505050565b5f80fd5b5f819050919050565b61091281610900565b811461091c575f80fd5b50565b5f8135905061092d81610909565b92915050565b5f60208284031215610948576109476108fc565b5b5f6109558482850161091f565b91505092915050565b61096781610900565b82525050565b5f6020820190506109805f83018461095e565b92915050565b5f73ffffffffffffffffffffffffffffffffffffffff82169050919050565b5f6109af82610986565b9050919050565b6109bf816109a5565b81146109c9575f80fd5b50565b5f813590506109da816109b6565b92915050565b5f80604083850312156109f6576109f56108fc565b5b5f610a038582860161091f565b9250506020610a14858286016109cc565b9150509250929050565b5f60ff82169050919050565b610a3381610a1e565b82525050565b5f602082019050610a4c5f830184610a2a565b92915050565b5f60208284031215610a6757610a666108fc565b5b5f610a74848285016109cc565b91505092915050565b5f67ffffffffffffffff82169050919050565b610a9981610a7d565b82525050565b5f8115159050919050565b610ab381610a9f565b82525050565b5f608082019050610acc5f83018761095e565b610ad96020830186610a90565b610ae66040830185610aaa565b610af36060830184610aaa565b95945050505050565b5f604082019050610b0f5f83018561095e565b610b1c6020830184610aaa565b9392505050565b5f819050919050565b610b3d610b3882610900565b610b23565b82525050565b5f610b4e8284610b2c565b60208201915081905092915050565b5f82825260208201905092915050565b7f436f6d6d697452657665616c3a3a636f6d6d69743a20416c726561647920636f5f8201527f6d6d697465640000000000000000000000000000000000000000000000000000602082015250565b5f610bc7602683610b5d565b9150610bd282610b6d565b604082019050919050565b5f6020820190508181035f830152610bf481610bbb565b9050919050565b610c04816109a5565b82525050565b5f606082019050610c1d5f830186610bfb565b610c2a602083018561095e565b610c376040830184610a90565b949350505050565b7f436f6d6d697452657665616c3a3a72657665616c3a20416c72656164792072655f8201527f7665616c65640000000000000000000000000000000000000000000000000000602082015250565b5f610c99602683610b5d565b9150610ca482610c3f565b604082019050919050565b5f6020820190508181035f830152610cc681610c8d565b9050919050565b7f436f6d6d697452657665616c3a3a72657665616c3a2052657665616c656420685f8201527f61736820646f6573206e6f74206d6174636820636f6d6d697400000000000000602082015250565b5f610d27603983610b5d565b9150610d3282610ccd565b604082019050919050565b5f6020820190508181035f830152610d5481610d1b565b9050919050565b7f436f6d6d697452657665616c3a3a72657665616c3a2052657665616c20616e645f8201527f20636f6d6d69742068617070656e6564206f6e207468652073616d6520626c6f60208201527f636b000000000000000000000000000000000000000000000000000000000000604082015250565b5f610ddb604283610b5d565b9150610de682610d5b565b606082019050919050565b5f6020820190508181035f830152610e0881610dcf565b9050919050565b7f4e487b71000000000000000000000000000000000000000000000000000000005f52601160045260245ffd5b5f610e4682610a7d565b9150610e5183610a7d565b9250828201905067ffffffffffffffff811115610e7157610e70610e0f565b5b92915050565b7f436f6d6d697452657665616c3a3a72657665616c3a2052657665616c656420745f8201527f6f6f206c61746500000000000000000000000000000000000000000000000000602082015250565b5f610ed1602783610b5d565b9150610edc82610e77565b604082019050919050565b5f6020820190508181035f830152610efe81610ec5565b9050919050565b5f610f108285610b2c565b602082019150610f208284610b2c565b6020820191508190509392505050565b5f819050919050565b7f4e487b71000000000000000000000000000000000000000000000000000000005f52601260045260245ffd5b5f610f7082610f30565b9150610f7b83610f30565b925082610f8b57610f8a610f39565b5b828206905092915050565b610f9f81610f30565b82525050565b5f606082019050610fb85f830186610bfb565b610fc5602083018561095e565b610fd26040830184610f96565b94935050505056fea264697066735822122057289f3cec45271086ee4352eed660db3724ba7e36b81da6806840bddad6df8964736f6c634300081a0033",
					"opcodes": "PUSH1 0x80 PUSH1 0x40 MSTORE PUSH1 0x64 PUSH0 DUP1 PUSH2 0x100 EXP DUP2 SLOAD DUP2 PUSH1 0xFF MUL NOT AND SWAP1 DUP4 PUSH1 0xFF AND MUL OR SWAP1 SSTORE POP CALLVALUE DUP1 ISZERO PUSH1 0x28 JUMPI PUSH0 DUP1 REVERT JUMPDEST POP PUSH2 0x1010 DUP1 PUSH2 0x36 PUSH0 CODECOPY PUSH0 RETURN INVALID PUSH1 0x80 PUSH1 0x40 MSTORE CALLVALUE DUP1 ISZERO PUSH2 0xF JUMPI PUSH0 DUP1 REVERT JUMPDEST POP PUSH1 0x4 CALLDATASIZE LT PUSH2 0x60 JUMPI PUSH0 CALLDATALOAD PUSH1 0xE0 SHR DUP1 PUSH4 0x3CF5040A EQ PUSH2 0x64 JUMPI DUP1 PUSH4 0x5A746101 EQ PUSH2 0x94 JUMPI DUP1 PUSH4 0x6AC5DB19 EQ PUSH2 0xB0 JUMPI DUP1 PUSH4 0x7B43A8E6 EQ PUSH2 0xCE JUMPI DUP1 PUSH4 0x8696B887 EQ PUSH2 0x101 JUMPI DUP1 PUSH4 0xAD487790 EQ PUSH2 0x132 JUMPI JUMPDEST PUSH0 DUP1 REVERT JUMPDEST PUSH2 0x7E PUSH1 0x4 DUP1 CALLDATASIZE SUB DUP2 ADD SWAP1 PUSH2 0x79 SWAP2 SWAP1 PUSH2 0x933 JUMP JUMPDEST PUSH2 0x14E JUMP JUMPDEST PUSH1 0x40 MLOAD PUSH2 0x8B SWAP2 SWAP1 PUSH2 0x96D JUMP JUMPDEST PUSH1 0x40 MLOAD DUP1 SWAP2 SUB SWAP1 RETURN JUMPDEST PUSH2 0xAE PUSH1 0x4 DUP1 CALLDATASIZE SUB DUP2 ADD SWAP1 PUSH2 0xA9 SWAP2 SWAP1 PUSH2 0x9E0 JUMP JUMPDEST PUSH2 0x17D JUMP JUMPDEST STOP JUMPDEST PUSH2 0xB8 PUSH2 0x43B JUMP JUMPDEST PUSH1 0x40 MLOAD PUSH2 0xC5 SWAP2 SWAP1 PUSH2 0xA39 JUMP JUMPDEST PUSH1 0x40 MLOAD DUP1 SWAP2 SUB SWAP1 RETURN JUMPDEST PUSH2 0xE8 PUSH1 0x4 DUP1 CALLDATASIZE SUB DUP2 ADD SWAP1 PUSH2 0xE3 SWAP2 SWAP1 PUSH2 0xA52 JUMP JUMPDEST PUSH2 0x44B JUMP JUMPDEST PUSH1 0x40 MLOAD PUSH2 0xF8 SWAP5 SWAP4 SWAP3 SWAP2 SWAP1 PUSH2 0xAB9 JUMP JUMPDEST PUSH1 0x40 MLOAD DUP1 SWAP2 SUB SWAP1 RETURN JUMPDEST PUSH2 0x11B PUSH1 0x4 DUP1 CALLDATASIZE SUB DUP2 ADD SWAP1 PUSH2 0x116 SWAP2 SWAP1 PUSH2 0xA52 JUMP JUMPDEST PUSH2 0x4A4 JUMP JUMPDEST PUSH1 0x40 MLOAD PUSH2 0x129 SWAP3 SWAP2 SWAP1 PUSH2 0xAFC JUMP JUMPDEST PUSH1 0x40 MLOAD DUP1 SWAP2 SUB SWAP1 RETURN JUMPDEST PUSH2 0x14C PUSH1 0x4 DUP1 CALLDATASIZE SUB DUP2 ADD SWAP1 PUSH2 0x147 SWAP2 SWAP1 PUSH2 0x9E0 JUMP JUMPDEST PUSH2 0x53D JUMP JUMPDEST STOP JUMPDEST PUSH0 DUP2 PUSH1 0x40 MLOAD PUSH1 0x20 ADD PUSH2 0x160 SWAP2 SWAP1 PUSH2 0xB43 JUMP JUMPDEST PUSH1 0x40 MLOAD PUSH1 0x20 DUP2 DUP4 SUB SUB DUP2 MSTORE SWAP1 PUSH1 0x40 MSTORE DUP1 MLOAD SWAP1 PUSH1 0x20 ADD KECCAK256 SWAP1 POP SWAP2 SWAP1 POP JUMP JUMPDEST PUSH0 ISZERO ISZERO PUSH1 0x1 PUSH0 DUP4 PUSH20 0xFFFFFFFFFFFFFFFFFFFFFFFFFFFFFFFFFFFFFFFF AND PUSH20 0xFFFFFFFFFFFFFFFFFFFFFFFFFFFFFFFFFFFFFFFF AND DUP2 MSTORE PUSH1 0x20 ADD SWAP1 DUP2 MSTORE PUSH1 0x20 ADD PUSH0 KECCAK256 PUSH1 0x1 ADD PUSH1 0x9 SWAP1 SLOAD SWAP1 PUSH2 0x100 EXP SWAP1 DIV PUSH1 0xFF AND ISZERO ISZERO EQ PUSH2 0x210 JUMPI PUSH1 0x40 MLOAD PUSH32 0x8C379A000000000000000000000000000000000000000000000000000000000 DUP2 MSTORE PUSH1 0x4 ADD PUSH2 0x207 SWAP1 PUSH2 0xBDD JUMP JUMPDEST PUSH1 0x40 MLOAD DUP1 SWAP2 SUB SWAP1 REVERT JUMPDEST DUP2 PUSH1 0x1 PUSH0 DUP4 PUSH20 0xFFFFFFFFFFFFFFFFFFFFFFFFFFFFFFFFFFFFFFFF AND PUSH20 0xFFFFFFFFFFFFFFFFFFFFFFFFFFFFFFFFFFFFFFFF AND DUP2 MSTORE PUSH1 0x20 ADD SWAP1 DUP2 MSTORE PUSH1 0x20 ADD PUSH0 KECCAK256 PUSH0 ADD DUP2 SWAP1 SSTORE POP PUSH1 0x1 DUP1 PUSH0 DUP4 PUSH20 0xFFFFFFFFFFFFFFFFFFFFFFFFFFFFFFFFFFFFFFFF AND PUSH20 0xFFFFFFFFFFFFFFFFFFFFFFFFFFFFFFFFFFFFFFFF AND DUP2 MSTORE PUSH1 0x20 ADD SWAP1 DUP2 MSTORE PUSH1 0x20 ADD PUSH0 KECCAK256 PUSH1 0x1 ADD PUSH1 0x9 PUSH2 0x100 EXP DUP2 SLOAD DUP2 PUSH1 0xFF MUL NOT AND SWAP1 DUP4 ISZERO ISZERO MUL OR SWAP1 SSTORE POP NUMBER PUSH1 0x1 PUSH0 DUP4 PUSH20 0xFFFFFFFFFFFFFFFFFFFFFFFFFFFFFFFFFFFFFFFF AND PUSH20 0xFFFFFFFFFFFFFFFFFFFFFFFFFFFFFFFFFFFFFFFF AND DUP2 MSTORE PUSH1 0x20 ADD SWAP1 DUP2 MSTORE PUSH1 0x20 ADD PUSH0 KECCAK256 PUSH1 0x1 ADD PUSH0 PUSH2 0x100 EXP DUP2 SLOAD DUP2 PUSH8 0xFFFFFFFFFFFFFFFF MUL NOT AND SWAP1 DUP4 PUSH8 0xFFFFFFFFFFFFFFFF AND MUL OR SWAP1 SSTORE POP PUSH0 PUSH1 0x1 PUSH0 DUP4 PUSH20 0xFFFFFFFFFFFFFFFFFFFFFFFFFFFFFFFFFFFFFFFF AND PUSH20 0xFFFFFFFFFFFFFFFFFFFFFFFFFFFFFFFFFFFFFFFF AND DUP2 MSTORE PUSH1 0x20 ADD SWAP1 DUP2 MSTORE PUSH1 0x20 ADD PUSH0 KECCAK256 PUSH1 0x1 ADD PUSH1 0x8 PUSH2 0x100 EXP DUP2 SLOAD DUP2 PUSH1 0xFF MUL NOT AND SWAP1 DUP4 ISZERO ISZERO MUL OR SWAP1 SSTORE POP PUSH32 0x3C1A1F8F38335B17F751C6DA4BA7D1865F26B3997535176F5080DE9FAD891603 DUP2 PUSH1 0x1 PUSH0 DUP5 PUSH20 0xFFFFFFFFFFFFFFFFFFFFFFFFFFFFFFFFFFFFFFFF AND PUSH20 0xFFFFFFFFFFFFFFFFFFFFFFFFFFFFFFFFFFFFFFFF AND DUP2 MSTORE PUSH1 0x20 ADD SWAP1 DUP2 MSTORE PUSH1 0x20 ADD PUSH0 KECCAK256 PUSH0 ADD SLOAD PUSH1 0x1 PUSH0 DUP6 PUSH20 0xFFFFFFFFFFFFFFFFFFFFFFFFFFFFFFFFFFFFFFFF AND PUSH20 0xFFFFFFFFFFFFFFFFFFFFFFFFFFFFFFFFFFFFFFFF AND DUP2 MSTORE PUSH1 0x20 ADD SWAP1 DUP2 MSTORE PUSH1 0x20 ADD PUSH0 KECCAK256 PUSH1 0x1 ADD PUSH0 SWAP1 SLOAD SWAP1 PUSH2 0x100 EXP SWAP1 DIV PUSH8 0xFFFFFFFFFFFFFFFF AND PUSH1 0x40 MLOAD PUSH2 0x42F SWAP4 SWAP3 SWAP2 SWAP1 PUSH2 0xC0A JUMP JUMPDEST PUSH1 0x40 MLOAD DUP1 SWAP2 SUB SWAP1 LOG1 POP POP JUMP JUMPDEST PUSH0 DUP1 SLOAD SWAP1 PUSH2 0x100 EXP SWAP1 DIV PUSH1 0xFF AND DUP2 JUMP JUMPDEST PUSH1 0x1 PUSH1 0x20 MSTORE DUP1 PUSH0 MSTORE PUSH1 0x40 PUSH0 KECCAK256 PUSH0 SWAP2 POP SWAP1 POP DUP1 PUSH0 ADD SLOAD SWAP1 DUP1 PUSH1 0x1 ADD PUSH0 SWAP1 SLOAD SWAP1 PUSH2 0x100 EXP SWAP1 DIV PUSH8 0xFFFFFFFFFFFFFFFF AND SWAP1 DUP1 PUSH1 0x1 ADD PUSH1 0x8 SWAP1 SLOAD SWAP1 PUSH2 0x100 EXP SWAP1 DIV PUSH1 0xFF AND SWAP1 DUP1 PUSH1 0x1 ADD PUSH1 0x9 SWAP1 SLOAD SWAP1 PUSH2 0x100 EXP SWAP1 DIV PUSH1 0xFF AND SWAP1 POP DUP5 JUMP JUMPDEST PUSH0 DUP1 PUSH1 0x1 PUSH0 DUP5 PUSH20 0xFFFFFFFFFFFFFFFFFFFFFFFFFFFFFFFFFFFFFFFF AND PUSH20 0xFFFFFFFFFFFFFFFFFFFFFFFFFFFFFFFFFFFFFFFF AND DUP2 MSTORE PUSH1 0x20 ADD SWAP1 DUP2 MSTORE PUSH1 0x20 ADD PUSH0 KECCAK256 PUSH0 ADD SLOAD PUSH1 0x1 PUSH0 DUP6 PUSH20 0xFFFFFFFFFFFFFFFFFFFFFFFFFFFFFFFFFFFFFFFF AND PUSH20 0xFFFFFFFFFFFFFFFFFFFFFFFFFFFFFFFFFFFFFFFF AND DUP2 MSTORE PUSH1 0x20 ADD SWAP1 DUP2 MSTORE PUSH1 0x20 ADD PUSH0 KECCAK256 PUSH1 0x1 ADD PUSH1 0x8 SWAP1 SLOAD SWAP1 PUSH2 0x100 EXP SWAP1 DIV PUSH1 0xFF AND SWAP2 POP SWAP2 POP SWAP2 POP SWAP2 JUMP JUMPDEST PUSH0 ISZERO ISZERO PUSH1 0x1 PUSH0 DUP4 PUSH20 0xFFFFFFFFFFFFFFFFFFFFFFFFFFFFFFFFFFFFFFFF AND PUSH20 0xFFFFFFFFFFFFFFFFFFFFFFFFFFFFFFFFFFFFFFFF AND DUP2 MSTORE PUSH1 0x20 ADD SWAP1 DUP2 MSTORE PUSH1 0x20 ADD PUSH0 KECCAK256 PUSH1 0x1 ADD PUSH1 0x8 SWAP1 SLOAD SWAP1 PUSH2 0x100 EXP SWAP1 DIV PUSH1 0xFF AND ISZERO ISZERO EQ PUSH2 0x5D0 JUMPI PUSH1 0x40 MLOAD PUSH32 0x8C379A000000000000000000000000000000000000000000000000000000000 DUP2 MSTORE PUSH1 0x4 ADD PUSH2 0x5C7 SWAP1 PUSH2 0xCAF JUMP JUMPDEST PUSH1 0x40 MLOAD DUP1 SWAP2 SUB SWAP1 REVERT JUMPDEST PUSH1 0x1 DUP1 PUSH0 DUP4 PUSH20 0xFFFFFFFFFFFFFFFFFFFFFFFFFFFFFFFFFFFFFFFF AND PUSH20 0xFFFFFFFFFFFFFFFFFFFFFFFFFFFFFFFFFFFFFFFF AND DUP2 MSTORE PUSH1 0x20 ADD SWAP1 DUP2 MSTORE PUSH1 0x20 ADD PUSH0 KECCAK256 PUSH1 0x1 ADD PUSH1 0x8 PUSH2 0x100 EXP DUP2 SLOAD DUP2 PUSH1 0xFF MUL NOT AND SWAP1 DUP4 ISZERO ISZERO MUL OR SWAP1 SSTORE POP PUSH1 0x1 PUSH0 DUP3 PUSH20 0xFFFFFFFFFFFFFFFFFFFFFFFFFFFFFFFFFFFFFFFF AND PUSH20 0xFFFFFFFFFFFFFFFFFFFFFFFFFFFFFFFFFFFFFFFF AND DUP2 MSTORE PUSH1 0x20 ADD SWAP1 DUP2 MSTORE PUSH1 0x20 ADD PUSH0 KECCAK256 PUSH0 ADD SLOAD PUSH2 0x671 DUP4 PUSH2 0x14E JUMP JUMPDEST EQ PUSH2 0x6B1 JUMPI PUSH1 0x40 MLOAD PUSH32 0x8C379A000000000000000000000000000000000000000000000000000000000 DUP2 MSTORE PUSH1 0x4 ADD PUSH2 0x6A8 SWAP1 PUSH2 0xD3D JUMP JUMPDEST PUSH1 0x40 MLOAD DUP1 SWAP2 SUB SWAP1 REVERT JUMPDEST PUSH1 0x1 PUSH0 DUP3 PUSH20 0xFFFFFFFFFFFFFFFFFFFFFFFFFFFFFFFFFFFFFFFF AND PUSH20 0xFFFFFFFFFFFFFFFFFFFFFFFFFFFFFFFFFFFFFFFF AND DUP2 MSTORE PUSH1 0x20 ADD SWAP1 DUP2 MSTORE PUSH1 0x20 ADD PUSH0 KECCAK256 PUSH1 0x1 ADD PUSH0 SWAP1 SLOAD SWAP1 PUSH2 0x100 EXP SWAP1 DIV PUSH8 0xFFFFFFFFFFFFFFFF AND PUSH8 0xFFFFFFFFFFFFFFFF AND NUMBER PUSH8 0xFFFFFFFFFFFFFFFF AND GT PUSH2 0x75A JUMPI PUSH1 0x40 MLOAD PUSH32 0x8C379A000000000000000000000000000000000000000000000000000000000 DUP2 MSTORE PUSH1 0x4 ADD PUSH2 0x751 SWAP1 PUSH2 0xDF1 JUMP JUMPDEST PUSH1 0x40 MLOAD DUP1 SWAP2 SUB SWAP1 REVERT JUMPDEST PUSH1 0xFA PUSH1 0x1 PUSH0 DUP4 PUSH20 0xFFFFFFFFFFFFFFFFFFFFFFFFFFFFFFFFFFFFFFFF AND PUSH20 0xFFFFFFFFFFFFFFFFFFFFFFFFFFFFFFFFFFFFFFFF AND DUP2 MSTORE PUSH1 0x20 ADD SWAP1 DUP2 MSTORE PUSH1 0x20 ADD PUSH0 KECCAK256 PUSH1 0x1 ADD PUSH0 SWAP1 SLOAD SWAP1 PUSH2 0x100 EXP SWAP1 DIV PUSH8 0xFFFFFFFFFFFFFFFF AND PUSH2 0x7BA SWAP2 SWAP1 PUSH2 0xE3C JUMP JUMPDEST PUSH8 0xFFFFFFFFFFFFFFFF AND NUMBER PUSH8 0xFFFFFFFFFFFFFFFF AND GT ISZERO PUSH2 0x810 JUMPI PUSH1 0x40 MLOAD PUSH32 0x8C379A000000000000000000000000000000000000000000000000000000000 DUP2 MSTORE PUSH1 0x4 ADD PUSH2 0x807 SWAP1 PUSH2 0xEE7 JUMP JUMPDEST PUSH1 0x40 MLOAD DUP1 SWAP2 SUB SWAP1 REVERT JUMPDEST PUSH0 PUSH1 0x1 PUSH0 DUP4 PUSH20 0xFFFFFFFFFFFFFFFFFFFFFFFFFFFFFFFFFFFFFFFF AND PUSH20 0xFFFFFFFFFFFFFFFFFFFFFFFFFFFFFFFFFFFFFFFF AND DUP2 MSTORE PUSH1 0x20 ADD SWAP1 DUP2 MSTORE PUSH1 0x20 ADD PUSH0 KECCAK256 PUSH1 0x1 ADD PUSH0 SWAP1 SLOAD SWAP1 PUSH2 0x100 EXP SWAP1 DIV PUSH8 0xFFFFFFFFFFFFFFFF AND PUSH8 0xFFFFFFFFFFFFFFFF AND BLOCKHASH SWAP1 POP PUSH0 DUP1 PUSH0 SWAP1 SLOAD SWAP1 PUSH2 0x100 EXP SWAP1 DIV PUSH1 0xFF AND PUSH1 0xFF AND DUP3 DUP6 PUSH1 0x40 MLOAD PUSH1 0x20 ADD PUSH2 0x897 SWAP3 SWAP2 SWAP1 PUSH2 0xF05 JUMP JUMPDEST PUSH1 0x40 MLOAD PUSH1 0x20 DUP2 DUP4 SUB SUB DUP2 MSTORE SWAP1 PUSH1 0x40 MSTORE DUP1 MLOAD SWAP1 PUSH1 0x20 ADD KECCAK256 PUSH0 SHR PUSH2 0x8B9 SWAP2 SWAP1 PUSH2 0xF66 JUMP JUMPDEST SWAP1 POP PUSH32 0xBC016DD1CADEAEFCB851AF7A0A93532E0023D536894B730801F7BCFE7065BCC2 DUP4 DUP6 DUP4 PUSH1 0x40 MLOAD PUSH2 0x8EE SWAP4 SWAP3 SWAP2 SWAP1 PUSH2 0xFA5 JUMP JUMPDEST PUSH1 0x40 MLOAD DUP1 SWAP2 SUB SWAP1 LOG1 POP POP POP POP JUMP JUMPDEST PUSH0 DUP1 REVERT JUMPDEST PUSH0 DUP2 SWAP1 POP SWAP2 SWAP1 POP JUMP JUMPDEST PUSH2 0x912 DUP2 PUSH2 0x900 JUMP JUMPDEST DUP2 EQ PUSH2 0x91C JUMPI PUSH0 DUP1 REVERT JUMPDEST POP JUMP JUMPDEST PUSH0 DUP2 CALLDATALOAD SWAP1 POP PUSH2 0x92D DUP2 PUSH2 0x909 JUMP JUMPDEST SWAP3 SWAP2 POP POP JUMP JUMPDEST PUSH0 PUSH1 0x20 DUP3 DUP5 SUB SLT ISZERO PUSH2 0x948 JUMPI PUSH2 0x947 PUSH2 0x8FC JUMP JUMPDEST JUMPDEST PUSH0 PUSH2 0x955 DUP5 DUP3 DUP6 ADD PUSH2 0x91F JUMP JUMPDEST SWAP2 POP POP SWAP3 SWAP2 POP POP JUMP JUMPDEST PUSH2 0x967 DUP2 PUSH2 0x900 JUMP JUMPDEST DUP3 MSTORE POP POP JUMP JUMPDEST PUSH0 PUSH1 0x20 DUP3 ADD SWAP1 POP PUSH2 0x980 PUSH0 DUP4 ADD DUP5 PUSH2 0x95E JUMP JUMPDEST SWAP3 SWAP2 POP POP JUMP JUMPDEST PUSH0 PUSH20 0xFFFFFFFFFFFFFFFFFFFFFFFFFFFFFFFFFFFFFFFF DUP3 AND SWAP1 POP SWAP2 SWAP1 POP JUMP JUMPDEST PUSH0 PUSH2 0x9AF DUP3 PUSH2 0x986 JUMP JUMPDEST SWAP1 POP SWAP2 SWAP1 POP JUMP JUMPDEST PUSH2 0x9BF DUP2 PUSH2 0x9A5 JUMP JUMPDEST DUP2 EQ PUSH2 0x9C9 JUMPI PUSH0 DUP1 REVERT JUMPDEST POP JUMP JUMPDEST PUSH0 DUP2 CALLDATALOAD SWAP1 POP PUSH2 0x9DA DUP2 PUSH2 0x9B6 JUMP JUMPDEST SWAP3 SWAP2 POP POP JUMP JUMPDEST PUSH0 DUP1 PUSH1 0x40 DUP4 DUP6 SUB SLT ISZERO PUSH2 0x9F6 JUMPI PUSH2 0x9F5 PUSH2 0x8FC JUMP JUMPDEST JUMPDEST PUSH0 PUSH2 0xA03 DUP6 DUP3 DUP7 ADD PUSH2 0x91F JUMP JUMPDEST SWAP3 POP POP PUSH1 0x20 PUSH2 0xA14 DUP6 DUP3 DUP7 ADD PUSH2 0x9CC JUMP JUMPDEST SWAP2 POP POP SWAP3 POP SWAP3 SWAP1 POP JUMP JUMPDEST PUSH0 PUSH1 0xFF DUP3 AND SWAP1 POP SWAP2 SWAP1 POP JUMP JUMPDEST PUSH2 0xA33 DUP2 PUSH2 0xA1E JUMP JUMPDEST DUP3 MSTORE POP POP JUMP JUMPDEST PUSH0 PUSH1 0x20 DUP3 ADD SWAP1 POP PUSH2 0xA4C PUSH0 DUP4 ADD DUP5 PUSH2 0xA2A JUMP JUMPDEST SWAP3 SWAP2 POP POP JUMP JUMPDEST PUSH0 PUSH1 0x20 DUP3 DUP5 SUB SLT ISZERO PUSH2 0xA67 JUMPI PUSH2 0xA66 PUSH2 0x8FC JUMP JUMPDEST JUMPDEST PUSH0 PUSH2 0xA74 DUP5 DUP3 DUP6 ADD PUSH2 0x9CC JUMP JUMPDEST SWAP2 POP POP SWAP3 SWAP2 POP POP JUMP JUMPDEST PUSH0 PUSH8 0xFFFFFFFFFFFFFFFF DUP3 AND SWAP1 POP SWAP2 SWAP1 POP JUMP JUMPDEST PUSH2 0xA99 DUP2 PUSH2 0xA7D JUMP JUMPDEST DUP3 MSTORE POP POP JUMP JUMPDEST PUSH0 DUP2 ISZERO ISZERO SWAP1 POP SWAP2 SWAP1 POP JUMP JUMPDEST PUSH2 0xAB3 DUP2 PUSH2 0xA9F JUMP JUMPDEST DUP3 MSTORE POP POP JUMP JUMPDEST PUSH0 PUSH1 0x80 DUP3 ADD SWAP1 POP PUSH2 0xACC PUSH0 DUP4 ADD DUP8 PUSH2 0x95E JUMP JUMPDEST PUSH2 0xAD9 PUSH1 0x20 DUP4 ADD DUP7 PUSH2 0xA90 JUMP JUMPDEST PUSH2 0xAE6 PUSH1 0x40 DUP4 ADD DUP6 PUSH2 0xAAA JUMP JUMPDEST PUSH2 0xAF3 PUSH1 0x60 DUP4 ADD DUP5 PUSH2 0xAAA JUMP JUMPDEST SWAP6 SWAP5 POP POP POP POP POP JUMP JUMPDEST PUSH0 PUSH1 0x40 DUP3 ADD SWAP1 POP PUSH2 0xB0F PUSH0 DUP4 ADD DUP6 PUSH2 0x95E JUMP JUMPDEST PUSH2 0xB1C PUSH1 0x20 DUP4 ADD DUP5 PUSH2 0xAAA JUMP JUMPDEST SWAP4 SWAP3 POP POP POP JUMP JUMPDEST PUSH0 DUP2 SWAP1 POP SWAP2 SWAP1 POP JUMP JUMPDEST PUSH2 0xB3D PUSH2 0xB38 DUP3 PUSH2 0x900 JUMP JUMPDEST PUSH2 0xB23 JUMP JUMPDEST DUP3 MSTORE POP POP JUMP JUMPDEST PUSH0 PUSH2 0xB4E DUP3 DUP5 PUSH2 0xB2C JUMP JUMPDEST PUSH1 0x20 DUP3 ADD SWAP2 POP DUP2 SWAP1 POP SWAP3 SWAP2 POP POP JUMP JUMPDEST PUSH0 DUP3 DUP3 MSTORE PUSH1 0x20 DUP3 ADD SWAP1 POP SWAP3 SWAP2 POP POP JUMP JUMPDEST PUSH32 0x436F6D6D697452657665616C3A3A636F6D6D69743A20416C726561647920636F PUSH0 DUP3 ADD MSTORE PUSH32 0x6D6D697465640000000000000000000000000000000000000000000000000000 PUSH1 0x20 DUP3 ADD MSTORE POP JUMP JUMPDEST PUSH0 PUSH2 0xBC7 PUSH1 0x26 DUP4 PUSH2 0xB5D JUMP JUMPDEST SWAP2 POP PUSH2 0xBD2 DUP3 PUSH2 0xB6D JUMP JUMPDEST PUSH1 0x40 DUP3 ADD SWAP1 POP SWAP2 SWAP1 POP JUMP JUMPDEST PUSH0 PUSH1 0x20 DUP3 ADD SWAP1 POP DUP2 DUP2 SUB PUSH0 DUP4 ADD MSTORE PUSH2 0xBF4 DUP2 PUSH2 0xBBB JUMP JUMPDEST SWAP1 POP SWAP2 SWAP1 POP JUMP JUMPDEST PUSH2 0xC04 DUP2 PUSH2 0x9A5 JUMP JUMPDEST DUP3 MSTORE POP POP JUMP JUMPDEST PUSH0 PUSH1 0x60 DUP3 ADD SWAP1 POP PUSH2 0xC1D PUSH0 DUP4 ADD DUP7 PUSH2 0xBFB JUMP JUMPDEST PUSH2 0xC2A PUSH1 0x20 DUP4 ADD DUP6 PUSH2 0x95E JUMP JUMPDEST PUSH2 0xC37 PUSH1 0x40 DUP4 ADD DUP5 PUSH2 0xA90 JUMP JUMPDEST SWAP5 SWAP4 POP POP POP POP JUMP JUMPDEST PUSH32 0x436F6D6D697452657665616C3A3A72657665616C3A20416C7265616479207265 PUSH0 DUP3 ADD MSTORE PUSH32 0x7665616C65640000000000000000000000000000000000000000000000000000 PUSH1 0x20 DUP3 ADD MSTORE POP JUMP JUMPDEST PUSH0 PUSH2 0xC99 PUSH1 0x26 DUP4 PUSH2 0xB5D JUMP JUMPDEST SWAP2 POP PUSH2 0xCA4 DUP3 PUSH2 0xC3F JUMP JUMPDEST PUSH1 0x40 DUP3 ADD SWAP1 POP SWAP2 SWAP1 POP JUMP JUMPDEST PUSH0 PUSH1 0x20 DUP3 ADD SWAP1 POP DUP2 DUP2 SUB PUSH0 DUP4 ADD MSTORE PUSH2 0xCC6 DUP2 PUSH2 0xC8D JUMP JUMPDEST SWAP1 POP SWAP2 SWAP1 POP JUMP JUMPDEST PUSH32 0x436F6D6D697452657665616C3A3A72657665616C3A2052657665616C65642068 PUSH0 DUP3 ADD MSTORE PUSH32 0x61736820646F6573206E6F74206D6174636820636F6D6D697400000000000000 PUSH1 0x20 DUP3 ADD MSTORE POP JUMP JUMPDEST PUSH0 PUSH2 0xD27 PUSH1 0x39 DUP4 PUSH2 0xB5D JUMP JUMPDEST SWAP2 POP PUSH2 0xD32 DUP3 PUSH2 0xCCD JUMP JUMPDEST PUSH1 0x40 DUP3 ADD SWAP1 POP SWAP2 SWAP1 POP JUMP JUMPDEST PUSH0 PUSH1 0x20 DUP3 ADD SWAP1 POP DUP2 DUP2 SUB PUSH0 DUP4 ADD MSTORE PUSH2 0xD54 DUP2 PUSH2 0xD1B JUMP JUMPDEST SWAP1 POP SWAP2 SWAP1 POP JUMP JUMPDEST PUSH32 0x436F6D6D697452657665616C3A3A72657665616C3A2052657665616C20616E64 PUSH0 DUP3 ADD MSTORE PUSH32 0x20636F6D6D69742068617070656E6564206F6E207468652073616D6520626C6F PUSH1 0x20 DUP3 ADD MSTORE PUSH32 0x636B000000000000000000000000000000000000000000000000000000000000 PUSH1 0x40 DUP3 ADD MSTORE POP JUMP JUMPDEST PUSH0 PUSH2 0xDDB PUSH1 0x42 DUP4 PUSH2 0xB5D JUMP JUMPDEST SWAP2 POP PUSH2 0xDE6 DUP3 PUSH2 0xD5B JUMP JUMPDEST PUSH1 0x60 DUP3 ADD SWAP1 POP SWAP2 SWAP1 POP JUMP JUMPDEST PUSH0 PUSH1 0x20 DUP3 ADD SWAP1 POP DUP2 DUP2 SUB PUSH0 DUP4 ADD MSTORE PUSH2 0xE08 DUP2 PUSH2 0xDCF JUMP JUMPDEST SWAP1 POP SWAP2 SWAP1 POP JUMP JUMPDEST PUSH32 0x4E487B7100000000000000000000000000000000000000000000000000000000 PUSH0 MSTORE PUSH1 0x11 PUSH1 0x4 MSTORE PUSH1 0x24 PUSH0 REVERT JUMPDEST PUSH0 PUSH2 0xE46 DUP3 PUSH2 0xA7D JUMP JUMPDEST SWAP2 POP PUSH2 0xE51 DUP4 PUSH2 0xA7D JUMP JUMPDEST SWAP3 POP DUP3 DUP3 ADD SWAP1 POP PUSH8 0xFFFFFFFFFFFFFFFF DUP2 GT ISZERO PUSH2 0xE71 JUMPI PUSH2 0xE70 PUSH2 0xE0F JUMP JUMPDEST JUMPDEST SWAP3 SWAP2 POP POP JUMP JUMPDEST PUSH32 0x436F6D6D697452657665616C3A3A72657665616C3A2052657665616C65642074 PUSH0 DUP3 ADD MSTORE PUSH32 0x6F6F206C61746500000000000000000000000000000000000000000000000000 PUSH1 0x20 DUP3 ADD MSTORE POP JUMP JUMPDEST PUSH0 PUSH2 0xED1 PUSH1 0x27 DUP4 PUSH2 0xB5D JUMP JUMPDEST SWAP2 POP PUSH2 0xEDC DUP3 PUSH2 0xE77 JUMP JUMPDEST PUSH1 0x40 DUP3 ADD SWAP1 POP SWAP2 SWAP1 POP JUMP JUMPDEST PUSH0 PUSH1 0x20 DUP3 ADD SWAP1 POP DUP2 DUP2 SUB PUSH0 DUP4 ADD MSTORE PUSH2 0xEFE DUP2 PUSH2 0xEC5 JUMP JUMPDEST SWAP1 POP SWAP2 SWAP1 POP JUMP JUMPDEST PUSH0 PUSH2 0xF10 DUP3 DUP6 PUSH2 0xB2C JUMP JUMPDEST PUSH1 0x20 DUP3 ADD SWAP2 POP PUSH2 0xF20 DUP3 DUP5 PUSH2 0xB2C JUMP JUMPDEST PUSH1 0x20 DUP3 ADD SWAP2 POP DUP2 SWAP1 POP SWAP4 SWAP3 POP POP POP JUMP JUMPDEST PUSH0 DUP2 SWAP1 POP SWAP2 SWAP1 POP JUMP JUMPDEST PUSH32 0x4E487B7100000000000000000000000000000000000000000000000000000000 PUSH0 MSTORE PUSH1 0x12 PUSH1 0x4 MSTORE PUSH1 0x24 PUSH0 REVERT JUMPDEST PUSH0 PUSH2 0xF70 DUP3 PUSH2 0xF30 JUMP JUMPDEST SWAP2 POP PUSH2 0xF7B DUP4 PUSH2 0xF30 JUMP JUMPDEST SWAP3 POP DUP3 PUSH2 0xF8B JUMPI PUSH2 0xF8A PUSH2 0xF39 JUMP JUMPDEST JUMPDEST DUP3 DUP3 MOD SWAP1 POP SWAP3 SWAP2 POP POP JUMP JUMPDEST PUSH2 0xF9F DUP2 PUSH2 0xF30 JUMP JUMPDEST DUP3 MSTORE POP POP JUMP JUMPDEST PUSH0 PUSH1 0x60 DUP3 ADD SWAP1 POP PUSH2 0xFB8 PUSH0 DUP4 ADD DUP7 PUSH2 0xBFB JUMP JUMPDEST PUSH2 0xFC5 PUSH1 0x20 DUP4 ADD DUP6 PUSH2 0x95E JUMP JUMPDEST PUSH2 0xFD2 PUSH1 0x40 DUP4 ADD DUP5 PUSH2 0xF96 JUMP JUMPDEST SWAP5 SWAP4 POP POP POP POP JUMP INVALID LOG2 PUSH5 0x6970667358 0x22 SLT KECCAK256 JUMPI 0x28 SWAP16 EXTCODECOPY 0xEC GASLIMIT 0x27 LT DUP7 0xEE NUMBER MSTORE 0xEE 0xD6 PUSH1 0xDB CALLDATACOPY 0x24 0xBA PUSH31 0x36B81DA6806840BDDAD6DF8964736F6C634300081A00330000000000000000 "
				},
				"gasEstimates": {
					"creation": {
						"codeDepositCost": "822400",
						"executionCost": "25121",
						"totalCost": "847521"
					},
					"external": {
						"commit(bytes32,address)": "infinite",
						"commits(address)": "infinite",
						"getCommit(address)": "5296",
						"getHash(bytes32)": "infinite",
						"max()": "2485",
						"reveal(bytes32,address)": "infinite"
					}
				},
				"methodIdentifiers": {
					"commit(bytes32,address)": "5a746101",
					"commits(address)": "7b43a8e6",
					"getCommit(address)": "8696b887",
					"getHash(bytes32)": "3cf5040a",
					"max()": "6ac5db19",
					"reveal(bytes32,address)": "ad487790"
				}
			},
			"storageLayout": {
				"storage": [
					{
						"astId": 4,
						"contract": "CommitReveal.sol:CommitReveal",
						"label": "max",
						"offset": 0,
						"slot": "0",
						"type": "t_uint8"
					},
					{
						"astId": 18,
						"contract": "CommitReveal.sol:CommitReveal",
						"label": "commits",
						"offset": 0,
						"slot": "1",
						"type": "t_mapping(t_address,t_struct(Commit)13_storage)"
					}
				],
				"types": {
					"t_address": {
						"encoding": "inplace",
						"label": "address",
						"numberOfBytes": "20"
					},
					"t_bool": {
						"encoding": "inplace",
						"label": "bool",
						"numberOfBytes": "1"
					},
					"t_bytes32": {
						"encoding": "inplace",
						"label": "bytes32",
						"numberOfBytes": "32"
					},
					"t_mapping(t_address,t_struct(Commit)13_storage)": {
						"encoding": "mapping",
						"key": "t_address",
						"label": "mapping(address => struct CommitReveal.Commit)",
						"numberOfBytes": "32",
						"value": "t_struct(Commit)13_storage"
					},
					"t_struct(Commit)13_storage": {
						"encoding": "inplace",
						"label": "struct CommitReveal.Commit",
						"members": [
							{
								"astId": 6,
								"contract": "CommitReveal.sol:CommitReveal",
								"label": "commit",
								"offset": 0,
								"slot": "0",
								"type": "t_bytes32"
							},
							{
								"astId": 8,
								"contract": "CommitReveal.sol:CommitReveal",
								"label": "block",
								"offset": 0,
								"slot": "1",
								"type": "t_uint64"
							},
							{
								"astId": 10,
								"contract": "CommitReveal.sol:CommitReveal",
								"label": "revealed",
								"offset": 8,
								"slot": "1",
								"type": "t_bool"
							},
							{
								"astId": 12,
								"contract": "CommitReveal.sol:CommitReveal",
								"label": "commited",
								"offset": 9,
								"slot": "1",
								"type": "t_bool"
							}
						],
						"numberOfBytes": "64"
					},
					"t_uint64": {
						"encoding": "inplace",
						"label": "uint64",
						"numberOfBytes": "8"
					},
					"t_uint8": {
						"encoding": "inplace",
						"label": "uint8",
						"numberOfBytes": "1"
					}
				}
			},
			"userdoc": {
				"kind": "user",
				"methods": {},
				"version": 1
			}
		}
	}
}